{
	"contracts/EscrowChannel.sol": {
		"EscrowChannel": {
			"abi": [
				{
					"anonymous": false,
					"inputs": [
						{
							"indexed": false,
							"internalType": "bytes32",
							"name": "channelId",
							"type": "bytes32"
						}
					],
					"name": "ChannelClosed",
					"type": "event"
				},
				{
					"anonymous": false,
					"inputs": [
						{
							"indexed": false,
							"internalType": "bytes32",
							"name": "channelId",
							"type": "bytes32"
						}
					],
					"name": "ChannelOpened",
					"type": "event"
				},
				{
					"anonymous": false,
					"inputs": [
						{
							"indexed": false,
							"internalType": "bytes32",
							"name": "channelId",
							"type": "bytes32"
						}
					],
					"name": "SellerJoined",
					"type": "event"
				},
				{
					"inputs": [
						{
							"internalType": "bytes32",
							"name": "channelId",
							"type": "bytes32"
						},
						{
							"internalType": "uint256",
							"name": "nonce",
							"type": "uint256"
						},
						{
							"internalType": "uint256",
							"name": "buyerBalance",
							"type": "uint256"
						},
						{
							"internalType": "uint256",
							"name": "sellerBalance",
							"type": "uint256"
						},
						{
							"internalType": "bytes",
							"name": "buyerSign",
							"type": "bytes"
						},
						{
							"internalType": "bytes",
							"name": "sellerSign",
							"type": "bytes"
						}
					],
					"name": "challenge",
					"outputs": [],
					"stateMutability": "nonpayable",
					"type": "function"
				},
				{
					"inputs": [
						{
							"internalType": "bytes32",
							"name": "",
							"type": "bytes32"
						}
					],
					"name": "channels",
					"outputs": [
						{
							"internalType": "bytes32",
							"name": "channelId",
							"type": "bytes32"
						},
						{
							"internalType": "address",
							"name": "tokenAddress",
							"type": "address"
						},
						{
							"internalType": "address",
							"name": "buyerAddress",
							"type": "address"
						},
						{
							"internalType": "address",
							"name": "sellerAddress",
							"type": "address"
						},
						{
							"internalType": "uint256",
							"name": "buyerBalance",
							"type": "uint256"
						},
						{
							"internalType": "uint256",
							"name": "sellerBalance",
							"type": "uint256"
						},
						{
							"internalType": "uint256",
							"name": "nonce",
							"type": "uint256"
						},
						{
							"internalType": "uint256",
							"name": "closingTime",
							"type": "uint256"
						},
						{
							"internalType": "uint256",
							"name": "activeTimePeriod",
							"type": "uint256"
						},
						{
							"internalType": "enum EscrowChannel.ChannelState",
							"name": "channelState",
							"type": "uint8"
						}
					],
					"stateMutability": "view",
					"type": "function"
				},
				{
					"inputs": [
						{
							"internalType": "bytes32",
							"name": "channelId",
							"type": "bytes32"
						},
						{
							"internalType": "uint256",
							"name": "nonce",
							"type": "uint256"
						},
						{
							"internalType": "uint256",
							"name": "buyerBalance",
							"type": "uint256"
						},
						{
							"internalType": "uint256",
							"name": "sellerBalance",
							"type": "uint256"
						},
						{
							"internalType": "bytes",
							"name": "buyerSign",
							"type": "bytes"
						},
						{
							"internalType": "bytes",
							"name": "sellerSign",
							"type": "bytes"
						}
					],
					"name": "closeChannel",
					"outputs": [],
					"stateMutability": "nonpayable",
					"type": "function"
				},
				{
					"inputs": [
						{
							"internalType": "bytes32",
							"name": "channelId",
							"type": "bytes32"
						},
						{
							"internalType": "uint256",
							"name": "amount",
							"type": "uint256"
						}
					],
					"name": "joinChannel",
					"outputs": [],
					"stateMutability": "nonpayable",
					"type": "function"
				},
				{
					"inputs": [
						{
							"internalType": "address",
							"name": "tokenAddress",
							"type": "address"
						},
						{
							"internalType": "address",
							"name": "sellerAddress",
							"type": "address"
						},
						{
							"internalType": "uint256",
							"name": "amount",
							"type": "uint256"
						},
						{
							"internalType": "uint256",
							"name": "activeTimePeriod",
							"type": "uint256"
						}
					],
					"name": "openChannel",
					"outputs": [],
					"stateMutability": "nonpayable",
					"type": "function"
				}
			],
			"devdoc": {
				"kind": "dev",
				"methods": {
					"openChannel(address,address,uint256,uint256)": {
						"params": {
							"activeTimePeriod": "time period to close the channel",
							"amount": "amount of toke to be deposited to the seller",
							"sellerAddress": "Address of the seller"
						}
					}
				},
				"version": 1
			},
			"evm": {
				"assembly": "    /* \"contracts/EscrowChannel.sol\":272:8682  contract EscrowChannel {... */\n  mstore(0x40, 0x80)\n  callvalue\n  dup1\n  iszero\n  tag_1\n  jumpi\n  0x00\n  dup1\n  revert\ntag_1:\n  pop\n  dataSize(sub_0)\n  dup1\n  dataOffset(sub_0)\n  0x00\n  codecopy\n  0x00\n  return\nstop\n\nsub_0: assembly {\n        /* \"contracts/EscrowChannel.sol\":272:8682  contract EscrowChannel {... */\n      mstore(0x40, 0x80)\n      callvalue\n      dup1\n      iszero\n      tag_1\n      jumpi\n      0x00\n      dup1\n      revert\n    tag_1:\n      pop\n      jumpi(tag_2, lt(calldatasize, 0x04))\n      shr(0xe0, calldataload(0x00))\n      dup1\n      0x283ffea0\n      eq\n      tag_3\n      jumpi\n      dup1\n      0x30686fe8\n      eq\n      tag_4\n      jumpi\n      dup1\n      0x39495ecf\n      eq\n      tag_5\n      jumpi\n      dup1\n      0x7a7ebd7b\n      eq\n      tag_6\n      jumpi\n      dup1\n      0xd8d9965a\n      eq\n      tag_7\n      jumpi\n    tag_2:\n      0x00\n      dup1\n      revert\n        /* \"contracts/EscrowChannel.sol\":4196:4979  function closeChannel(... */\n    tag_3:\n      tag_8\n      0x04\n      dup1\n      calldatasize\n      sub\n      dup2\n      add\n      swap1\n      tag_9\n      swap2\n      swap1\n      tag_10\n      jump\t// in\n    tag_9:\n      tag_11\n      jump\t// in\n    tag_8:\n      stop\n        /* \"contracts/EscrowChannel.sol\":5428:5787  function challenge(... */\n    tag_4:\n      tag_12\n      0x04\n      dup1\n      calldatasize\n      sub\n      dup2\n      add\n      swap1\n      tag_13\n      swap2\n      swap1\n      tag_10\n      jump\t// in\n    tag_13:\n      tag_14\n      jump\t// in\n    tag_12:\n      stop\n        /* \"contracts/EscrowChannel.sol\":3487:4190  function joinChannel(bytes32 channelId, uint256 amount)... */\n    tag_5:\n      tag_15\n      0x04\n      dup1\n      calldatasize\n      sub\n      dup2\n      add\n      swap1\n      tag_16\n      swap2\n      swap1\n      tag_17\n      jump\t// in\n    tag_16:\n      tag_18\n      jump\t// in\n    tag_15:\n      stop\n        /* \"contracts/EscrowChannel.sol\":966:1009  mapping(bytes32 => Channel) public channels */\n    tag_6:\n      tag_19\n      0x04\n      dup1\n      calldatasize\n      sub\n      dup2\n      add\n      swap1\n      tag_20\n      swap2\n      swap1\n      tag_21\n      jump\t// in\n    tag_20:\n      tag_22\n      jump\t// in\n    tag_19:\n      mload(0x40)\n      tag_23\n      swap11\n      swap10\n      swap9\n      swap8\n      swap7\n      swap6\n      swap5\n      swap4\n      swap3\n      swap2\n      swap1\n      tag_24\n      jump\t// in\n    tag_23:\n      mload(0x40)\n      dup1\n      swap2\n      sub\n      swap1\n      return\n        /* \"contracts/EscrowChannel.sol\":2397:3481  function openChannel(... */\n    tag_7:\n      tag_25\n      0x04\n      dup1\n      calldatasize\n      sub\n      dup2\n      add\n      swap1\n      tag_26\n      swap2\n      swap1\n      tag_27\n      jump\t// in\n    tag_26:\n      tag_28\n      jump\t// in\n    tag_25:\n      stop\n        /* \"contracts/EscrowChannel.sol\":4196:4979  function closeChannel(... */\n    tag_11:\n        /* \"contracts/EscrowChannel.sol\":4437:4446  channelId */\n      dup6\n        /* \"contracts/EscrowChannel.sol\":1527:1528  0 */\n      0x00\n        /* \"contracts/EscrowChannel.sol\":1501:1528  channels[id].channelId != 0 */\n      dup1\n      shl\n        /* \"contracts/EscrowChannel.sol\":1501:1509  channels */\n      0x00\n        /* \"contracts/EscrowChannel.sol\":1501:1513  channels[id] */\n      dup1\n        /* \"contracts/EscrowChannel.sol\":1510:1512  id */\n      dup4\n        /* \"contracts/EscrowChannel.sol\":1501:1513  channels[id] */\n      dup2\n      mstore\n      0x20\n      add\n      swap1\n      dup2\n      mstore\n      0x20\n      add\n      0x00\n      keccak256\n        /* \"contracts/EscrowChannel.sol\":1501:1523  channels[id].channelId */\n      0x00\n      add\n      sload\n        /* \"contracts/EscrowChannel.sol\":1501:1528  channels[id].channelId != 0 */\n      eq\n      iszero\n        /* \"contracts/EscrowChannel.sol\":1493:1555  require(channels[id].channelId != 0, \"Channel doesnot exists\") */\n      tag_30\n      jumpi\n      mload(0x40)\n      0x08c379a000000000000000000000000000000000000000000000000000000000\n      dup2\n      mstore\n      0x04\n      add\n      tag_31\n      swap1\n      tag_32\n      jump\t// in\n    tag_31:\n      mload(0x40)\n      dup1\n      swap2\n      sub\n      swap1\n      revert\n    tag_30:\n        /* \"contracts/EscrowChannel.sol\":4463:4472  channelId */\n      dup7\n        /* \"contracts/EscrowChannel.sol\":1356:1376  ChannelState.IS_OPEN */\n      0x00\n        /* \"contracts/EscrowChannel.sol\":1327:1376  channels[id].channelState == ChannelState.IS_OPEN */\n      0x02\n      dup2\n      gt\n      iszero\n      tag_34\n      jumpi\n      tag_35\n      tag_36\n      jump\t// in\n    tag_35:\n    tag_34:\n        /* \"contracts/EscrowChannel.sol\":1327:1335  channels */\n      0x00\n        /* \"contracts/EscrowChannel.sol\":1327:1339  channels[id] */\n      dup1\n        /* \"contracts/EscrowChannel.sol\":1336:1338  id */\n      dup4\n        /* \"contracts/EscrowChannel.sol\":1327:1339  channels[id] */\n      dup2\n      mstore\n      0x20\n      add\n      swap1\n      dup2\n      mstore\n      0x20\n      add\n      0x00\n      keccak256\n        /* \"contracts/EscrowChannel.sol\":1327:1352  channels[id].channelState */\n      0x09\n      add\n      0x00\n      swap1\n      sload\n      swap1\n      0x0100\n      exp\n      swap1\n      div\n      0xff\n      and\n        /* \"contracts/EscrowChannel.sol\":1327:1376  channels[id].channelState == ChannelState.IS_OPEN */\n      0x02\n      dup2\n      gt\n      iszero\n      tag_37\n      jumpi\n      tag_38\n      tag_36\n      jump\t// in\n    tag_38:\n    tag_37:\n      eq\n        /* \"contracts/EscrowChannel.sol\":1306:1425  require(... */\n      tag_39\n      jumpi\n      mload(0x40)\n      0x08c379a000000000000000000000000000000000000000000000000000000000\n      dup2\n      mstore\n      0x04\n      add\n      tag_40\n      swap1\n      tag_41\n      jump\t// in\n    tag_40:\n      mload(0x40)\n      dup1\n      swap2\n      sub\n      swap1\n      revert\n    tag_39:\n        /* \"contracts/EscrowChannel.sol\":4499:4508  channelId */\n      dup8\n        /* \"contracts/EscrowChannel.sol\":1855:1863  channels */\n      0x00\n        /* \"contracts/EscrowChannel.sol\":1855:1867  channels[id] */\n      dup1\n        /* \"contracts/EscrowChannel.sol\":1864:1866  id */\n      dup3\n        /* \"contracts/EscrowChannel.sol\":1855:1867  channels[id] */\n      dup2\n      mstore\n      0x20\n      add\n      swap1\n      dup2\n      mstore\n      0x20\n      add\n      0x00\n      keccak256\n        /* \"contracts/EscrowChannel.sol\":1855:1880  channels[id].buyerAddress */\n      0x02\n      add\n      0x00\n      swap1\n      sload\n      swap1\n      0x0100\n      exp\n      swap1\n      div\n      0xffffffffffffffffffffffffffffffffffffffff\n      and\n        /* \"contracts/EscrowChannel.sol\":1841:1880  msg.sender == channels[id].buyerAddress */\n      0xffffffffffffffffffffffffffffffffffffffff\n      and\n        /* \"contracts/EscrowChannel.sol\":1841:1851  msg.sender */\n      caller\n        /* \"contracts/EscrowChannel.sol\":1841:1880  msg.sender == channels[id].buyerAddress */\n      0xffffffffffffffffffffffffffffffffffffffff\n      and\n      eq\n        /* \"contracts/EscrowChannel.sol\":1841:1940  msg.sender == channels[id].buyerAddress ||... */\n      dup1\n      tag_43\n      jumpi\n      pop\n        /* \"contracts/EscrowChannel.sol\":1914:1922  channels */\n      0x00\n        /* \"contracts/EscrowChannel.sol\":1914:1926  channels[id] */\n      dup1\n        /* \"contracts/EscrowChannel.sol\":1923:1925  id */\n      dup3\n        /* \"contracts/EscrowChannel.sol\":1914:1926  channels[id] */\n      dup2\n      mstore\n      0x20\n      add\n      swap1\n      dup2\n      mstore\n      0x20\n      add\n      0x00\n      keccak256\n        /* \"contracts/EscrowChannel.sol\":1914:1940  channels[id].sellerAddress */\n      0x03\n      add\n      0x00\n      swap1\n      sload\n      swap1\n      0x0100\n      exp\n      swap1\n      div\n      0xffffffffffffffffffffffffffffffffffffffff\n      and\n        /* \"contracts/EscrowChannel.sol\":1900:1940  msg.sender == channels[id].sellerAddress */\n      0xffffffffffffffffffffffffffffffffffffffff\n      and\n        /* \"contracts/EscrowChannel.sol\":1900:1910  msg.sender */\n      caller\n        /* \"contracts/EscrowChannel.sol\":1900:1940  msg.sender == channels[id].sellerAddress */\n      0xffffffffffffffffffffffffffffffffffffffff\n      and\n      eq\n        /* \"contracts/EscrowChannel.sol\":1841:1940  msg.sender == channels[id].buyerAddress ||... */\n    tag_43:\n        /* \"contracts/EscrowChannel.sol\":1820:2004  require(... */\n      tag_44\n      jumpi\n      mload(0x40)\n      0x08c379a000000000000000000000000000000000000000000000000000000000\n      dup2\n      mstore\n      0x04\n      add\n      tag_45\n      swap1\n      tag_46\n      jump\t// in\n    tag_45:\n      mload(0x40)\n      dup1\n      swap2\n      sub\n      swap1\n      revert\n    tag_44:\n        /* \"contracts/EscrowChannel.sol\":4524:4698  verifyReceiptSignature(... */\n      tag_48\n        /* \"contracts/EscrowChannel.sol\":4560:4569  channelId */\n      dup10\n        /* \"contracts/EscrowChannel.sol\":4583:4588  nonce */\n      dup10\n        /* \"contracts/EscrowChannel.sol\":4602:4614  buyerBalance */\n      dup10\n        /* \"contracts/EscrowChannel.sol\":4628:4641  sellerBalance */\n      dup10\n        /* \"contracts/EscrowChannel.sol\":4655:4664  buyerSign */\n      dup10\n        /* \"contracts/EscrowChannel.sol\":4678:4688  sellerSign */\n      dup10\n        /* \"contracts/EscrowChannel.sol\":4524:4546  verifyReceiptSignature */\n      tag_49\n        /* \"contracts/EscrowChannel.sol\":4524:4698  verifyReceiptSignature(... */\n      jump\t// in\n    tag_48:\n        /* \"contracts/EscrowChannel.sol\":4708:4768  updateChannel(channelId, nonce, buyerBalance, sellerBalance) */\n      tag_50\n        /* \"contracts/EscrowChannel.sol\":4722:4731  channelId */\n      dup10\n        /* \"contracts/EscrowChannel.sol\":4733:4738  nonce */\n      dup10\n        /* \"contracts/EscrowChannel.sol\":4740:4752  buyerBalance */\n      dup10\n        /* \"contracts/EscrowChannel.sol\":4754:4767  sellerBalance */\n      dup10\n        /* \"contracts/EscrowChannel.sol\":4708:4721  updateChannel */\n      tag_51\n        /* \"contracts/EscrowChannel.sol\":4708:4768  updateChannel(channelId, nonce, buyerBalance, sellerBalance) */\n      jump\t// in\n    tag_50:\n        /* \"contracts/EscrowChannel.sol\":4778:4800  Channel memory channel */\n      0x00\n        /* \"contracts/EscrowChannel.sol\":4803:4811  channels */\n      dup1\n        /* \"contracts/EscrowChannel.sol\":4803:4822  channels[channelId] */\n      0x00\n        /* \"contracts/EscrowChannel.sol\":4812:4821  channelId */\n      dup12\n        /* \"contracts/EscrowChannel.sol\":4803:4822  channels[channelId] */\n      dup2\n      mstore\n      0x20\n      add\n      swap1\n      dup2\n      mstore\n      0x20\n      add\n      0x00\n      keccak256\n        /* \"contracts/EscrowChannel.sol\":4778:4822  Channel memory channel = channels[channelId] */\n      mload(0x40)\n      dup1\n      0x0140\n      add\n      0x40\n      mstore\n      swap1\n      dup2\n      0x00\n      dup3\n      add\n      sload\n      dup2\n      mstore\n      0x20\n      add\n      0x01\n      dup3\n      add\n      0x00\n      swap1\n      sload\n      swap1\n      0x0100\n      exp\n      swap1\n      div\n      0xffffffffffffffffffffffffffffffffffffffff\n      and\n      0xffffffffffffffffffffffffffffffffffffffff\n      and\n      0xffffffffffffffffffffffffffffffffffffffff\n      and\n      dup2\n      mstore\n      0x20\n      add\n      0x02\n      dup3\n      add\n      0x00\n      swap1\n      sload\n      swap1\n      0x0100\n      exp\n      swap1\n      div\n      0xffffffffffffffffffffffffffffffffffffffff\n      and\n      0xffffffffffffffffffffffffffffffffffffffff\n      and\n      0xffffffffffffffffffffffffffffffffffffffff\n      and\n      dup2\n      mstore\n      0x20\n      add\n      0x03\n      dup3\n      add\n      0x00\n      swap1\n      sload\n      swap1\n      0x0100\n      exp\n      swap1\n      div\n      0xffffffffffffffffffffffffffffffffffffffff\n      and\n      0xffffffffffffffffffffffffffffffffffffffff\n      and\n      0xffffffffffffffffffffffffffffffffffffffff\n      and\n      dup2\n      mstore\n      0x20\n      add\n      0x04\n      dup3\n      add\n      sload\n      dup2\n      mstore\n      0x20\n      add\n      0x05\n      dup3\n      add\n      sload\n      dup2\n      mstore\n      0x20\n      add\n      0x06\n      dup3\n      add\n      sload\n      dup2\n      mstore\n      0x20\n      add\n      0x07\n      dup3\n      add\n      sload\n      dup2\n      mstore\n      0x20\n      add\n      0x08\n      dup3\n      add\n      sload\n      dup2\n      mstore\n      0x20\n      add\n      0x09\n      dup3\n      add\n      0x00\n      swap1\n      sload\n      swap1\n      0x0100\n      exp\n      swap1\n      div\n      0xff\n      and\n      0x02\n      dup2\n      gt\n      iszero\n      tag_52\n      jumpi\n      tag_53\n      tag_36\n      jump\t// in\n    tag_53:\n    tag_52:\n      0x02\n      dup2\n      gt\n      iszero\n      tag_54\n      jumpi\n      tag_55\n      tag_36\n      jump\t// in\n    tag_55:\n    tag_54:\n      dup2\n      mstore\n      pop\n      pop\n      swap1\n      pop\n        /* \"contracts/EscrowChannel.sol\":4832:4855  bool channelIsnotActive */\n      0x00\n        /* \"contracts/EscrowChannel.sol\":4886:4887  0 */\n      dup1\n        /* \"contracts/EscrowChannel.sol\":4858:4865  channel */\n      dup3\n        /* \"contracts/EscrowChannel.sol\":4858:4882  channel.activeTimePeriod */\n      0x0100\n      add\n      mload\n        /* \"contracts/EscrowChannel.sol\":4858:4887  channel.activeTimePeriod == 0 */\n      eq\n        /* \"contracts/EscrowChannel.sol\":4832:4887  bool channelIsnotActive = channel.activeTimePeriod == 0 */\n      swap1\n      pop\n        /* \"contracts/EscrowChannel.sol\":4901:4919  channelIsnotActive */\n      dup1\n        /* \"contracts/EscrowChannel.sol\":4897:4973  if (channelIsnotActive) {... */\n      iszero\n      tag_56\n      jumpi\n        /* \"contracts/EscrowChannel.sol\":4935:4962  distributeTokens(channelId) */\n      tag_57\n        /* \"contracts/EscrowChannel.sol\":4952:4961  channelId */\n      dup12\n        /* \"contracts/EscrowChannel.sol\":4935:4951  distributeTokens */\n      tag_58\n        /* \"contracts/EscrowChannel.sol\":4935:4962  distributeTokens(channelId) */\n      jump\t// in\n    tag_57:\n        /* \"contracts/EscrowChannel.sol\":4897:4973  if (channelIsnotActive) {... */\n    tag_56:\n        /* \"contracts/EscrowChannel.sol\":4514:4979  {... */\n      pop\n      pop\n        /* \"contracts/EscrowChannel.sol\":1435:1436  _ */\n      pop\n        /* \"contracts/EscrowChannel.sol\":1565:1566  _ */\n      pop\n        /* \"contracts/EscrowChannel.sol\":4196:4979  function closeChannel(... */\n      pop\n      pop\n      pop\n      pop\n      pop\n      pop\n      pop\n      jump\t// out\n        /* \"contracts/EscrowChannel.sol\":5428:5787  function challenge(... */\n    tag_14:\n        /* \"contracts/EscrowChannel.sol\":5666:5675  channelId */\n      dup6\n        /* \"contracts/EscrowChannel.sol\":1527:1528  0 */\n      0x00\n        /* \"contracts/EscrowChannel.sol\":1501:1528  channels[id].channelId != 0 */\n      dup1\n      shl\n        /* \"contracts/EscrowChannel.sol\":1501:1509  channels */\n      0x00\n        /* \"contracts/EscrowChannel.sol\":1501:1513  channels[id] */\n      dup1\n        /* \"contracts/EscrowChannel.sol\":1510:1512  id */\n      dup4\n        /* \"contracts/EscrowChannel.sol\":1501:1513  channels[id] */\n      dup2\n      mstore\n      0x20\n      add\n      swap1\n      dup2\n      mstore\n      0x20\n      add\n      0x00\n      keccak256\n        /* \"contracts/EscrowChannel.sol\":1501:1523  channels[id].channelId */\n      0x00\n      add\n      sload\n        /* \"contracts/EscrowChannel.sol\":1501:1528  channels[id].channelId != 0 */\n      eq\n      iszero\n        /* \"contracts/EscrowChannel.sol\":1493:1555  require(channels[id].channelId != 0, \"Channel doesnot exists\") */\n      tag_60\n      jumpi\n      mload(0x40)\n      0x08c379a000000000000000000000000000000000000000000000000000000000\n      dup2\n      mstore\n      0x04\n      add\n      tag_61\n      swap1\n      tag_32\n      jump\t// in\n    tag_61:\n      mload(0x40)\n      dup1\n      swap2\n      sub\n      swap1\n      revert\n    tag_60:\n        /* \"contracts/EscrowChannel.sol\":5702:5711  channelId */\n      dup7\n        /* \"contracts/EscrowChannel.sol\":1855:1863  channels */\n      0x00\n        /* \"contracts/EscrowChannel.sol\":1855:1867  channels[id] */\n      dup1\n        /* \"contracts/EscrowChannel.sol\":1864:1866  id */\n      dup3\n        /* \"contracts/EscrowChannel.sol\":1855:1867  channels[id] */\n      dup2\n      mstore\n      0x20\n      add\n      swap1\n      dup2\n      mstore\n      0x20\n      add\n      0x00\n      keccak256\n        /* \"contracts/EscrowChannel.sol\":1855:1880  channels[id].buyerAddress */\n      0x02\n      add\n      0x00\n      swap1\n      sload\n      swap1\n      0x0100\n      exp\n      swap1\n      div\n      0xffffffffffffffffffffffffffffffffffffffff\n      and\n        /* \"contracts/EscrowChannel.sol\":1841:1880  msg.sender == channels[id].buyerAddress */\n      0xffffffffffffffffffffffffffffffffffffffff\n      and\n        /* \"contracts/EscrowChannel.sol\":1841:1851  msg.sender */\n      caller\n        /* \"contracts/EscrowChannel.sol\":1841:1880  msg.sender == channels[id].buyerAddress */\n      0xffffffffffffffffffffffffffffffffffffffff\n      and\n      eq\n        /* \"contracts/EscrowChannel.sol\":1841:1940  msg.sender == channels[id].buyerAddress ||... */\n      dup1\n      tag_63\n      jumpi\n      pop\n        /* \"contracts/EscrowChannel.sol\":1914:1922  channels */\n      0x00\n        /* \"contracts/EscrowChannel.sol\":1914:1926  channels[id] */\n      dup1\n        /* \"contracts/EscrowChannel.sol\":1923:1925  id */\n      dup3\n        /* \"contracts/EscrowChannel.sol\":1914:1926  channels[id] */\n      dup2\n      mstore\n      0x20\n      add\n      swap1\n      dup2\n      mstore\n      0x20\n      add\n      0x00\n      keccak256\n        /* \"contracts/EscrowChannel.sol\":1914:1940  channels[id].sellerAddress */\n      0x03\n      add\n      0x00\n      swap1\n      sload\n      swap1\n      0x0100\n      exp\n      swap1\n      div\n      0xffffffffffffffffffffffffffffffffffffffff\n      and\n        /* \"contracts/EscrowChannel.sol\":1900:1940  msg.sender == channels[id].sellerAddress */\n      0xffffffffffffffffffffffffffffffffffffffff\n      and\n        /* \"contracts/EscrowChannel.sol\":1900:1910  msg.sender */\n      caller\n        /* \"contracts/EscrowChannel.sol\":1900:1940  msg.sender == channels[id].sellerAddress */\n      0xffffffffffffffffffffffffffffffffffffffff\n      and\n      eq\n        /* \"contracts/EscrowChannel.sol\":1841:1940  msg.sender == channels[id].buyerAddress ||... */\n    tag_63:\n        /* \"contracts/EscrowChannel.sol\":1820:2004  require(... */\n      tag_64\n      jumpi\n      mload(0x40)\n      0x08c379a000000000000000000000000000000000000000000000000000000000\n      dup2\n      mstore\n      0x04\n      add\n      tag_65\n      swap1\n      tag_46\n      jump\t// in\n    tag_65:\n      mload(0x40)\n      dup1\n      swap2\n      sub\n      swap1\n      revert\n    tag_64:\n        /* \"contracts/EscrowChannel.sol\":5730:5739  channelId */\n      dup8\n        /* \"contracts/EscrowChannel.sol\":5335:5357  ChannelState.IS_ACTIVE */\n      0x01\n        /* \"contracts/EscrowChannel.sol\":5306:5357  channels[id].channelState == ChannelState.IS_ACTIVE */\n      0x02\n      dup2\n      gt\n      iszero\n      tag_67\n      jumpi\n      tag_68\n      tag_36\n      jump\t// in\n    tag_68:\n    tag_67:\n        /* \"contracts/EscrowChannel.sol\":5306:5314  channels */\n      0x00\n        /* \"contracts/EscrowChannel.sol\":5306:5318  channels[id] */\n      dup1\n        /* \"contracts/EscrowChannel.sol\":5315:5317  id */\n      dup4\n        /* \"contracts/EscrowChannel.sol\":5306:5318  channels[id] */\n      dup2\n      mstore\n      0x20\n      add\n      swap1\n      dup2\n      mstore\n      0x20\n      add\n      0x00\n      keccak256\n        /* \"contracts/EscrowChannel.sol\":5306:5331  channels[id].channelState */\n      0x09\n      add\n      0x00\n      swap1\n      sload\n      swap1\n      0x0100\n      exp\n      swap1\n      div\n      0xff\n      and\n        /* \"contracts/EscrowChannel.sol\":5306:5357  channels[id].channelState == ChannelState.IS_ACTIVE */\n      0x02\n      dup2\n      gt\n      iszero\n      tag_69\n      jumpi\n      tag_70\n      tag_36\n      jump\t// in\n    tag_70:\n    tag_69:\n      eq\n        /* \"contracts/EscrowChannel.sol\":5285:5404  require(... */\n      tag_71\n      jumpi\n      mload(0x40)\n      0x08c379a000000000000000000000000000000000000000000000000000000000\n      dup2\n      mstore\n      0x04\n      add\n      tag_72\n      swap1\n      tag_73\n      jump\t// in\n    tag_72:\n      mload(0x40)\n      dup1\n      swap2\n      sub\n      swap1\n      revert\n    tag_71:\n        /* \"contracts/EscrowChannel.sol\":5770:5779  channelId */\n      dup9\n        /* \"contracts/EscrowChannel.sol\":5037:5059  Channel memory channel */\n      0x00\n        /* \"contracts/EscrowChannel.sol\":5062:5070  channels */\n      dup1\n        /* \"contracts/EscrowChannel.sol\":5062:5074  channels[id] */\n      0x00\n        /* \"contracts/EscrowChannel.sol\":5071:5073  id */\n      dup4\n        /* \"contracts/EscrowChannel.sol\":5062:5074  channels[id] */\n      dup2\n      mstore\n      0x20\n      add\n      swap1\n      dup2\n      mstore\n      0x20\n      add\n      0x00\n      keccak256\n        /* \"contracts/EscrowChannel.sol\":5037:5074  Channel memory channel = channels[id] */\n      mload(0x40)\n      dup1\n      0x0140\n      add\n      0x40\n      mstore\n      swap1\n      dup2\n      0x00\n      dup3\n      add\n      sload\n      dup2\n      mstore\n      0x20\n      add\n      0x01\n      dup3\n      add\n      0x00\n      swap1\n      sload\n      swap1\n      0x0100\n      exp\n      swap1\n      div\n      0xffffffffffffffffffffffffffffffffffffffff\n      and\n      0xffffffffffffffffffffffffffffffffffffffff\n      and\n      0xffffffffffffffffffffffffffffffffffffffff\n      and\n      dup2\n      mstore\n      0x20\n      add\n      0x02\n      dup3\n      add\n      0x00\n      swap1\n      sload\n      swap1\n      0x0100\n      exp\n      swap1\n      div\n      0xffffffffffffffffffffffffffffffffffffffff\n      and\n      0xffffffffffffffffffffffffffffffffffffffff\n      and\n      0xffffffffffffffffffffffffffffffffffffffff\n      and\n      dup2\n      mstore\n      0x20\n      add\n      0x03\n      dup3\n      add\n      0x00\n      swap1\n      sload\n      swap1\n      0x0100\n      exp\n      swap1\n      div\n      0xffffffffffffffffffffffffffffffffffffffff\n      and\n      0xffffffffffffffffffffffffffffffffffffffff\n      and\n      0xffffffffffffffffffffffffffffffffffffffff\n      and\n      dup2\n      mstore\n      0x20\n      add\n      0x04\n      dup3\n      add\n      sload\n      dup2\n      mstore\n      0x20\n      add\n      0x05\n      dup3\n      add\n      sload\n      dup2\n      mstore\n      0x20\n      add\n      0x06\n      dup3\n      add\n      sload\n      dup2\n      mstore\n      0x20\n      add\n      0x07\n      dup3\n      add\n      sload\n      dup2\n      mstore\n      0x20\n      add\n      0x08\n      dup3\n      add\n      sload\n      dup2\n      mstore\n      0x20\n      add\n      0x09\n      dup3\n      add\n      0x00\n      swap1\n      sload\n      swap1\n      0x0100\n      exp\n      swap1\n      div\n      0xff\n      and\n      0x02\n      dup2\n      gt\n      iszero\n      tag_75\n      jumpi\n      tag_76\n      tag_36\n      jump\t// in\n    tag_76:\n    tag_75:\n      0x02\n      dup2\n      gt\n      iszero\n      tag_77\n      jumpi\n      tag_78\n      tag_36\n      jump\t// in\n    tag_78:\n    tag_77:\n      dup2\n      mstore\n      pop\n      pop\n      swap1\n      pop\n        /* \"contracts/EscrowChannel.sol\":5084:5097  bool timeOver */\n      0x00\n        /* \"contracts/EscrowChannel.sol\":5153:5160  channel */\n      dup2\n        /* \"contracts/EscrowChannel.sol\":5153:5177  channel.activeTimePeriod */\n      0x0100\n      add\n      mload\n        /* \"contracts/EscrowChannel.sol\":5130:5137  channel */\n      dup3\n        /* \"contracts/EscrowChannel.sol\":5130:5149  channel.closingTime */\n      0xe0\n      add\n      mload\n        /* \"contracts/EscrowChannel.sol\":5130:5178  channel.closingTime + (channel.activeTimePeriod) */\n      tag_79\n      swap2\n      swap1\n      tag_80\n      jump\t// in\n    tag_79:\n        /* \"contracts/EscrowChannel.sol\":5100:5115  block.timestamp */\n      timestamp\n        /* \"contracts/EscrowChannel.sol\":5100:5178  block.timestamp >... */\n      gt\n        /* \"contracts/EscrowChannel.sol\":5084:5178  bool timeOver = block.timestamp >... */\n      swap1\n      pop\n        /* \"contracts/EscrowChannel.sol\":5197:5205  timeOver */\n      dup1\n        /* \"contracts/EscrowChannel.sol\":5196:5205  !timeOver */\n      iszero\n        /* \"contracts/EscrowChannel.sol\":5188:5222  require(!timeOver, \"Time is Over\") */\n      tag_81\n      jumpi\n      mload(0x40)\n      0x08c379a000000000000000000000000000000000000000000000000000000000\n      dup2\n      mstore\n      0x04\n      add\n      tag_82\n      swap1\n      tag_83\n      jump\t// in\n    tag_82:\n      mload(0x40)\n      dup1\n      swap2\n      sub\n      swap1\n      revert\n    tag_81:\n        /* \"contracts/EscrowChannel.sol\":5027:5240  {... */\n      pop\n      pop\n        /* \"contracts/EscrowChannel.sol\":5414:5415  _ */\n      pop\n        /* \"contracts/EscrowChannel.sol\":2014:2015  _ */\n      pop\n        /* \"contracts/EscrowChannel.sol\":1565:1566  _ */\n      pop\n        /* \"contracts/EscrowChannel.sol\":5428:5787  function challenge(... */\n      pop\n      pop\n      pop\n      pop\n      pop\n      pop\n      pop\n      jump\t// out\n        /* \"contracts/EscrowChannel.sol\":3487:4190  function joinChannel(bytes32 channelId, uint256 amount)... */\n    tag_18:\n        /* \"contracts/EscrowChannel.sol\":3580:3589  channelId */\n      dup2\n        /* \"contracts/EscrowChannel.sol\":1527:1528  0 */\n      0x00\n        /* \"contracts/EscrowChannel.sol\":1501:1528  channels[id].channelId != 0 */\n      dup1\n      shl\n        /* \"contracts/EscrowChannel.sol\":1501:1509  channels */\n      0x00\n        /* \"contracts/EscrowChannel.sol\":1501:1513  channels[id] */\n      dup1\n        /* \"contracts/EscrowChannel.sol\":1510:1512  id */\n      dup4\n        /* \"contracts/EscrowChannel.sol\":1501:1513  channels[id] */\n      dup2\n      mstore\n      0x20\n      add\n      swap1\n      dup2\n      mstore\n      0x20\n      add\n      0x00\n      keccak256\n        /* \"contracts/EscrowChannel.sol\":1501:1523  channels[id].channelId */\n      0x00\n      add\n      sload\n        /* \"contracts/EscrowChannel.sol\":1501:1528  channels[id].channelId != 0 */\n      eq\n      iszero\n        /* \"contracts/EscrowChannel.sol\":1493:1555  require(channels[id].channelId != 0, \"Channel doesnot exists\") */\n      tag_86\n      jumpi\n      mload(0x40)\n      0x08c379a000000000000000000000000000000000000000000000000000000000\n      dup2\n      mstore\n      0x04\n      add\n      tag_87\n      swap1\n      tag_32\n      jump\t// in\n    tag_87:\n      mload(0x40)\n      dup1\n      swap2\n      sub\n      swap1\n      revert\n    tag_86:\n        /* \"contracts/EscrowChannel.sol\":3606:3615  channelId */\n      dup3\n        /* \"contracts/EscrowChannel.sol\":1356:1376  ChannelState.IS_OPEN */\n      0x00\n        /* \"contracts/EscrowChannel.sol\":1327:1376  channels[id].channelState == ChannelState.IS_OPEN */\n      0x02\n      dup2\n      gt\n      iszero\n      tag_89\n      jumpi\n      tag_90\n      tag_36\n      jump\t// in\n    tag_90:\n    tag_89:\n        /* \"contracts/EscrowChannel.sol\":1327:1335  channels */\n      0x00\n        /* \"contracts/EscrowChannel.sol\":1327:1339  channels[id] */\n      dup1\n        /* \"contracts/EscrowChannel.sol\":1336:1338  id */\n      dup4\n        /* \"contracts/EscrowChannel.sol\":1327:1339  channels[id] */\n      dup2\n      mstore\n      0x20\n      add\n      swap1\n      dup2\n      mstore\n      0x20\n      add\n      0x00\n      keccak256\n        /* \"contracts/EscrowChannel.sol\":1327:1352  channels[id].channelState */\n      0x09\n      add\n      0x00\n      swap1\n      sload\n      swap1\n      0x0100\n      exp\n      swap1\n      div\n      0xff\n      and\n        /* \"contracts/EscrowChannel.sol\":1327:1376  channels[id].channelState == ChannelState.IS_OPEN */\n      0x02\n      dup2\n      gt\n      iszero\n      tag_91\n      jumpi\n      tag_92\n      tag_36\n      jump\t// in\n    tag_92:\n    tag_91:\n      eq\n        /* \"contracts/EscrowChannel.sol\":1306:1425  require(... */\n      tag_93\n      jumpi\n      mload(0x40)\n      0x08c379a000000000000000000000000000000000000000000000000000000000\n      dup2\n      mstore\n      0x04\n      add\n      tag_94\n      swap1\n      tag_41\n      jump\t// in\n    tag_94:\n      mload(0x40)\n      dup1\n      swap2\n      sub\n      swap1\n      revert\n    tag_93:\n        /* \"contracts/EscrowChannel.sol\":3631:3652  address sellerAddress */\n      0x00\n        /* \"contracts/EscrowChannel.sol\":3655:3665  msg.sender */\n      caller\n        /* \"contracts/EscrowChannel.sol\":3631:3665  address sellerAddress = msg.sender */\n      swap1\n      pop\n        /* \"contracts/EscrowChannel.sol\":3675:3698  Channel storage channel */\n      0x00\n        /* \"contracts/EscrowChannel.sol\":3701:3709  channels */\n      dup1\n        /* \"contracts/EscrowChannel.sol\":3701:3720  channels[channelId] */\n      0x00\n        /* \"contracts/EscrowChannel.sol\":3710:3719  channelId */\n      dup8\n        /* \"contracts/EscrowChannel.sol\":3701:3720  channels[channelId] */\n      dup2\n      mstore\n      0x20\n      add\n      swap1\n      dup2\n      mstore\n      0x20\n      add\n      0x00\n      keccak256\n        /* \"contracts/EscrowChannel.sol\":3675:3720  Channel storage channel = channels[channelId] */\n      swap1\n      pop\n        /* \"contracts/EscrowChannel.sol\":3776:3789  sellerAddress */\n      dup2\n        /* \"contracts/EscrowChannel.sol\":3751:3789  channel.sellerAddress == sellerAddress */\n      0xffffffffffffffffffffffffffffffffffffffff\n      and\n        /* \"contracts/EscrowChannel.sol\":3751:3758  channel */\n      dup2\n        /* \"contracts/EscrowChannel.sol\":3751:3772  channel.sellerAddress */\n      0x03\n      add\n      0x00\n      swap1\n      sload\n      swap1\n      0x0100\n      exp\n      swap1\n      div\n      0xffffffffffffffffffffffffffffffffffffffff\n      and\n        /* \"contracts/EscrowChannel.sol\":3751:3789  channel.sellerAddress == sellerAddress */\n      0xffffffffffffffffffffffffffffffffffffffff\n      and\n      eq\n        /* \"contracts/EscrowChannel.sol\":3730:3864  require(... */\n      tag_96\n      jumpi\n      mload(0x40)\n      0x08c379a000000000000000000000000000000000000000000000000000000000\n      dup2\n      mstore\n      0x04\n      add\n      tag_97\n      swap1\n      tag_98\n      jump\t// in\n    tag_97:\n      mload(0x40)\n      dup1\n      swap2\n      sub\n      swap1\n      revert\n    tag_96:\n        /* \"contracts/EscrowChannel.sol\":3921:3922  0 */\n      0x00\n        /* \"contracts/EscrowChannel.sol\":3896:3903  channel */\n      dup2\n        /* \"contracts/EscrowChannel.sol\":3896:3917  channel.sellerBalance */\n      0x05\n      add\n      sload\n        /* \"contracts/EscrowChannel.sol\":3896:3922  channel.sellerBalance == 0 */\n      eq\n        /* \"contracts/EscrowChannel.sol\":3875:3985  require(... */\n      tag_99\n      jumpi\n      mload(0x40)\n      0x08c379a000000000000000000000000000000000000000000000000000000000\n      dup2\n      mstore\n      0x04\n      add\n      tag_100\n      swap1\n      tag_101\n      jump\t// in\n    tag_100:\n      mload(0x40)\n      dup1\n      swap2\n      sub\n      swap1\n      revert\n    tag_99:\n        /* \"contracts/EscrowChannel.sol\":4014:4015  0 */\n      0x00\n        /* \"contracts/EscrowChannel.sol\":4004:4010  amount */\n      dup6\n        /* \"contracts/EscrowChannel.sol\":4004:4015  amount >= 0 */\n      lt\n      iszero\n        /* \"contracts/EscrowChannel.sol\":3996:4037  require(amount >= 0, \"Incorrect amount.\") */\n      tag_102\n      jumpi\n      mload(0x40)\n      0x08c379a000000000000000000000000000000000000000000000000000000000\n      dup2\n      mstore\n      0x04\n      add\n      tag_103\n      swap1\n      tag_104\n      jump\t// in\n    tag_103:\n      mload(0x40)\n      dup1\n      swap2\n      sub\n      swap1\n      revert\n    tag_102:\n        /* \"contracts/EscrowChannel.sol\":4047:4105  receiveTokens(channel.tokenAddress, sellerAddress, amount) */\n      tag_105\n        /* \"contracts/EscrowChannel.sol\":4061:4068  channel */\n      dup2\n        /* \"contracts/EscrowChannel.sol\":4061:4081  channel.tokenAddress */\n      0x01\n      add\n      0x00\n      swap1\n      sload\n      swap1\n      0x0100\n      exp\n      swap1\n      div\n      0xffffffffffffffffffffffffffffffffffffffff\n      and\n        /* \"contracts/EscrowChannel.sol\":4083:4096  sellerAddress */\n      dup4\n        /* \"contracts/EscrowChannel.sol\":4098:4104  amount */\n      dup8\n        /* \"contracts/EscrowChannel.sol\":4047:4060  receiveTokens */\n      tag_106\n        /* \"contracts/EscrowChannel.sol\":4047:4105  receiveTokens(channel.tokenAddress, sellerAddress, amount) */\n      jump\t// in\n    tag_105:\n        /* \"contracts/EscrowChannel.sol\":4139:4145  amount */\n      dup5\n        /* \"contracts/EscrowChannel.sol\":4115:4122  channel */\n      dup2\n        /* \"contracts/EscrowChannel.sol\":4115:4136  channel.sellerBalance */\n      0x05\n      add\n        /* \"contracts/EscrowChannel.sol\":4115:4145  channel.sellerBalance = amount */\n      dup2\n      swap1\n      sstore\n      pop\n        /* \"contracts/EscrowChannel.sol\":4160:4183  SellerJoined(channelId) */\n      0x0f95d1a0e16b2a02afb2c679641b33c436dc227961d7572876640cd2ec17937c\n        /* \"contracts/EscrowChannel.sol\":4173:4182  channelId */\n      dup7\n        /* \"contracts/EscrowChannel.sol\":4160:4183  SellerJoined(channelId) */\n      mload(0x40)\n      tag_107\n      swap2\n      swap1\n      tag_108\n      jump\t// in\n    tag_107:\n      mload(0x40)\n      dup1\n      swap2\n      sub\n      swap1\n      log1\n        /* \"contracts/EscrowChannel.sol\":3621:4190  {... */\n      pop\n      pop\n        /* \"contracts/EscrowChannel.sol\":1565:1566  _ */\n      pop\n        /* \"contracts/EscrowChannel.sol\":3487:4190  function joinChannel(bytes32 channelId, uint256 amount)... */\n      pop\n      pop\n      pop\n      jump\t// out\n        /* \"contracts/EscrowChannel.sol\":966:1009  mapping(bytes32 => Channel) public channels */\n    tag_22:\n      mstore(0x20, 0x00)\n      dup1\n      0x00\n      mstore\n      keccak256(0x00, 0x40)\n      0x00\n      swap2\n      pop\n      swap1\n      pop\n      dup1\n      0x00\n      add\n      sload\n      swap1\n      dup1\n      0x01\n      add\n      0x00\n      swap1\n      sload\n      swap1\n      0x0100\n      exp\n      swap1\n      div\n      0xffffffffffffffffffffffffffffffffffffffff\n      and\n      swap1\n      dup1\n      0x02\n      add\n      0x00\n      swap1\n      sload\n      swap1\n      0x0100\n      exp\n      swap1\n      div\n      0xffffffffffffffffffffffffffffffffffffffff\n      and\n      swap1\n      dup1\n      0x03\n      add\n      0x00\n      swap1\n      sload\n      swap1\n      0x0100\n      exp\n      swap1\n      div\n      0xffffffffffffffffffffffffffffffffffffffff\n      and\n      swap1\n      dup1\n      0x04\n      add\n      sload\n      swap1\n      dup1\n      0x05\n      add\n      sload\n      swap1\n      dup1\n      0x06\n      add\n      sload\n      swap1\n      dup1\n      0x07\n      add\n      sload\n      swap1\n      dup1\n      0x08\n      add\n      sload\n      swap1\n      dup1\n      0x09\n      add\n      0x00\n      swap1\n      sload\n      swap1\n      0x0100\n      exp\n      swap1\n      div\n      0xff\n      and\n      swap1\n      pop\n      dup11\n      jump\t// out\n        /* \"contracts/EscrowChannel.sol\":2397:3481  function openChannel(... */\n    tag_28:\n        /* \"contracts/EscrowChannel.sol\":2560:2580  address buyerAddress */\n      0x00\n        /* \"contracts/EscrowChannel.sol\":2583:2593  msg.sender */\n      caller\n        /* \"contracts/EscrowChannel.sol\":2560:2593  address buyerAddress = msg.sender */\n      swap1\n      pop\n        /* \"contracts/EscrowChannel.sol\":2640:2653  sellerAddress */\n      dup4\n        /* \"contracts/EscrowChannel.sol\":2624:2653  buyerAddress != sellerAddress */\n      0xffffffffffffffffffffffffffffffffffffffff\n      and\n        /* \"contracts/EscrowChannel.sol\":2624:2636  buyerAddress */\n      dup2\n        /* \"contracts/EscrowChannel.sol\":2624:2653  buyerAddress != sellerAddress */\n      0xffffffffffffffffffffffffffffffffffffffff\n      and\n      eq\n      iszero\n        /* \"contracts/EscrowChannel.sol\":2603:2719  require(... */\n      tag_110\n      jumpi\n      mload(0x40)\n      0x08c379a000000000000000000000000000000000000000000000000000000000\n      dup2\n      mstore\n      0x04\n      add\n      tag_111\n      swap1\n      tag_112\n      jump\t// in\n    tag_111:\n      mload(0x40)\n      dup1\n      swap2\n      sub\n      swap1\n      revert\n    tag_110:\n        /* \"contracts/EscrowChannel.sol\":2747:2748  0 */\n      0x00\n        /* \"contracts/EscrowChannel.sol\":2737:2743  amount */\n      dup4\n        /* \"contracts/EscrowChannel.sol\":2737:2748  amount != 0 */\n      eq\n      iszero\n        /* \"contracts/EscrowChannel.sol\":2729:2775  require(amount != 0, \"you must make payments\") */\n      tag_113\n      jumpi\n      mload(0x40)\n      0x08c379a000000000000000000000000000000000000000000000000000000000\n      dup2\n      mstore\n      0x04\n      add\n      tag_114\n      swap1\n      tag_115\n      jump\t// in\n    tag_114:\n      mload(0x40)\n      dup1\n      swap2\n      sub\n      swap1\n      revert\n    tag_113:\n        /* \"contracts/EscrowChannel.sol\":2786:2803  bytes32 channelId */\n      0x00\n        /* \"contracts/EscrowChannel.sol\":2863:2875  tokenAddress */\n      dup6\n        /* \"contracts/EscrowChannel.sol\":2893:2906  sellerAddress */\n      dup6\n        /* \"contracts/EscrowChannel.sol\":2924:2936  buyerAddress */\n      dup4\n        /* \"contracts/EscrowChannel.sol\":2954:2966  block.number */\n      number\n        /* \"contracts/EscrowChannel.sol\":2829:2980  abi.encodePacked(... */\n      add(0x20, mload(0x40))\n      tag_116\n      swap5\n      swap4\n      swap3\n      swap2\n      swap1\n      tag_117\n      jump\t// in\n    tag_116:\n      mload(0x40)\n      0x20\n      dup2\n      dup4\n      sub\n      sub\n      dup2\n      mstore\n      swap1\n      0x40\n      mstore\n        /* \"contracts/EscrowChannel.sol\":2806:2990  keccak256(... */\n      dup1\n      mload\n      swap1\n      0x20\n      add\n      keccak256\n        /* \"contracts/EscrowChannel.sol\":2786:2990  bytes32 channelId = keccak256(... */\n      swap1\n      pop\n        /* \"contracts/EscrowChannel.sol\":3000:3022  Channel memory channel */\n      0x00\n        /* \"contracts/EscrowChannel.sol\":3025:3329  Channel(... */\n      mload(0x40)\n      dup1\n      0x0140\n      add\n      0x40\n      mstore\n      dup1\n        /* \"contracts/EscrowChannel.sol\":3046:3055  channelId */\n      dup4\n        /* \"contracts/EscrowChannel.sol\":3025:3329  Channel(... */\n      dup2\n      mstore\n      0x20\n      add\n        /* \"contracts/EscrowChannel.sol\":3069:3081  tokenAddress */\n      dup9\n        /* \"contracts/EscrowChannel.sol\":3025:3329  Channel(... */\n      0xffffffffffffffffffffffffffffffffffffffff\n      and\n      dup2\n      mstore\n      0x20\n      add\n        /* \"contracts/EscrowChannel.sol\":3095:3107  buyerAddress */\n      dup5\n        /* \"contracts/EscrowChannel.sol\":3025:3329  Channel(... */\n      0xffffffffffffffffffffffffffffffffffffffff\n      and\n      dup2\n      mstore\n      0x20\n      add\n        /* \"contracts/EscrowChannel.sol\":3121:3134  sellerAddress */\n      dup8\n        /* \"contracts/EscrowChannel.sol\":3025:3329  Channel(... */\n      0xffffffffffffffffffffffffffffffffffffffff\n      and\n      dup2\n      mstore\n      0x20\n      add\n        /* \"contracts/EscrowChannel.sol\":3148:3154  amount */\n      dup7\n        /* \"contracts/EscrowChannel.sol\":3025:3329  Channel(... */\n      dup2\n      mstore\n      0x20\n      add\n        /* \"contracts/EscrowChannel.sol\":3184:3185  0 */\n      0x00\n        /* \"contracts/EscrowChannel.sol\":3025:3329  Channel(... */\n      dup2\n      mstore\n      0x20\n      add\n        /* \"contracts/EscrowChannel.sol\":3216:3217  0 */\n      0x00\n        /* \"contracts/EscrowChannel.sol\":3025:3329  Channel(... */\n      dup2\n      mstore\n      0x20\n      add\n        /* \"contracts/EscrowChannel.sol\":3239:3240  0 */\n      0x00\n        /* \"contracts/EscrowChannel.sol\":3025:3329  Channel(... */\n      dup2\n      mstore\n      0x20\n      add\n        /* \"contracts/EscrowChannel.sol\":3269:3285  activeTimePeriod */\n      dup6\n        /* \"contracts/EscrowChannel.sol\":3025:3329  Channel(... */\n      dup2\n      mstore\n      0x20\n      add\n        /* \"contracts/EscrowChannel.sol\":3299:3319  ChannelState.IS_OPEN */\n      0x00\n        /* \"contracts/EscrowChannel.sol\":3025:3329  Channel(... */\n      0x02\n      dup2\n      gt\n      iszero\n      tag_118\n      jumpi\n      tag_119\n      tag_36\n      jump\t// in\n    tag_119:\n    tag_118:\n      dup2\n      mstore\n      pop\n        /* \"contracts/EscrowChannel.sol\":3000:3329  Channel memory channel = Channel(... */\n      swap1\n      pop\n        /* \"contracts/EscrowChannel.sol\":3339:3396  receiveTokens(channel.tokenAddress, buyerAddress, amount) */\n      tag_120\n        /* \"contracts/EscrowChannel.sol\":3353:3360  channel */\n      dup2\n        /* \"contracts/EscrowChannel.sol\":3353:3373  channel.tokenAddress */\n      0x20\n      add\n      mload\n        /* \"contracts/EscrowChannel.sol\":3375:3387  buyerAddress */\n      dup5\n        /* \"contracts/EscrowChannel.sol\":3389:3395  amount */\n      dup8\n        /* \"contracts/EscrowChannel.sol\":3339:3352  receiveTokens */\n      tag_106\n        /* \"contracts/EscrowChannel.sol\":3339:3396  receiveTokens(channel.tokenAddress, buyerAddress, amount) */\n      jump\t// in\n    tag_120:\n        /* \"contracts/EscrowChannel.sol\":3428:3435  channel */\n      dup1\n        /* \"contracts/EscrowChannel.sol\":3406:3414  channels */\n      0x00\n        /* \"contracts/EscrowChannel.sol\":3406:3425  channels[channelId] */\n      dup1\n        /* \"contracts/EscrowChannel.sol\":3415:3424  channelId */\n      dup5\n        /* \"contracts/EscrowChannel.sol\":3406:3425  channels[channelId] */\n      dup2\n      mstore\n      0x20\n      add\n      swap1\n      dup2\n      mstore\n      0x20\n      add\n      0x00\n      keccak256\n        /* \"contracts/EscrowChannel.sol\":3406:3435  channels[channelId] = channel */\n      0x00\n      dup3\n      add\n      mload\n      dup2\n      0x00\n      add\n      sstore\n      0x20\n      dup3\n      add\n      mload\n      dup2\n      0x01\n      add\n      exp(0x0100, 0x00)\n      dup2\n      sload\n      dup2\n      0xffffffffffffffffffffffffffffffffffffffff\n      mul\n      not\n      and\n      swap1\n      dup4\n      0xffffffffffffffffffffffffffffffffffffffff\n      and\n      mul\n      or\n      swap1\n      sstore\n      pop\n      0x40\n      dup3\n      add\n      mload\n      dup2\n      0x02\n      add\n      exp(0x0100, 0x00)\n      dup2\n      sload\n      dup2\n      0xffffffffffffffffffffffffffffffffffffffff\n      mul\n      not\n      and\n      swap1\n      dup4\n      0xffffffffffffffffffffffffffffffffffffffff\n      and\n      mul\n      or\n      swap1\n      sstore\n      pop\n      0x60\n      dup3\n      add\n      mload\n      dup2\n      0x03\n      add\n      exp(0x0100, 0x00)\n      dup2\n      sload\n      dup2\n      0xffffffffffffffffffffffffffffffffffffffff\n      mul\n      not\n      and\n      swap1\n      dup4\n      0xffffffffffffffffffffffffffffffffffffffff\n      and\n      mul\n      or\n      swap1\n      sstore\n      pop\n      0x80\n      dup3\n      add\n      mload\n      dup2\n      0x04\n      add\n      sstore\n      0xa0\n      dup3\n      add\n      mload\n      dup2\n      0x05\n      add\n      sstore\n      0xc0\n      dup3\n      add\n      mload\n      dup2\n      0x06\n      add\n      sstore\n      0xe0\n      dup3\n      add\n      mload\n      dup2\n      0x07\n      add\n      sstore\n      0x0100\n      dup3\n      add\n      mload\n      dup2\n      0x08\n      add\n      sstore\n      0x0120\n      dup3\n      add\n      mload\n      dup2\n      0x09\n      add\n      exp(0x0100, 0x00)\n      dup2\n      sload\n      dup2\n      0xff\n      mul\n      not\n      and\n      swap1\n      dup4\n      0x02\n      dup2\n      gt\n      iszero\n      tag_121\n      jumpi\n      tag_122\n      tag_36\n      jump\t// in\n    tag_122:\n    tag_121:\n      mul\n      or\n      swap1\n      sstore\n      pop\n      swap1\n      pop\n      pop\n        /* \"contracts/EscrowChannel.sol\":3450:3474  ChannelOpened(channelId) */\n      0x7ffc675d721b8768e035a323722842743bb523487b535906abc97e6b3e2095d0\n        /* \"contracts/EscrowChannel.sol\":3464:3473  channelId */\n      dup3\n        /* \"contracts/EscrowChannel.sol\":3450:3474  ChannelOpened(channelId) */\n      mload(0x40)\n      tag_123\n      swap2\n      swap1\n      tag_108\n      jump\t// in\n    tag_123:\n      mload(0x40)\n      dup1\n      swap2\n      sub\n      swap1\n      log1\n        /* \"contracts/EscrowChannel.sol\":2550:3481  {... */\n      pop\n      pop\n      pop\n        /* \"contracts/EscrowChannel.sol\":2397:3481  function openChannel(... */\n      pop\n      pop\n      pop\n      pop\n      jump\t// out\n        /* \"contracts/EscrowChannel.sol\":6481:7183  function verifyReceiptSignature(... */\n    tag_49:\n        /* \"contracts/EscrowChannel.sol\":6719:6741  Channel memory channel */\n      0x00\n        /* \"contracts/EscrowChannel.sol\":6744:6752  channels */\n      dup1\n        /* \"contracts/EscrowChannel.sol\":6744:6763  channels[channelId] */\n      0x00\n        /* \"contracts/EscrowChannel.sol\":6753:6762  channelId */\n      dup9\n        /* \"contracts/EscrowChannel.sol\":6744:6763  channels[channelId] */\n      dup2\n      mstore\n      0x20\n      add\n      swap1\n      dup2\n      mstore\n      0x20\n      add\n      0x00\n      keccak256\n        /* \"contracts/EscrowChannel.sol\":6719:6763  Channel memory channel = channels[channelId] */\n      mload(0x40)\n      dup1\n      0x0140\n      add\n      0x40\n      mstore\n      swap1\n      dup2\n      0x00\n      dup3\n      add\n      sload\n      dup2\n      mstore\n      0x20\n      add\n      0x01\n      dup3\n      add\n      0x00\n      swap1\n      sload\n      swap1\n      0x0100\n      exp\n      swap1\n      div\n      0xffffffffffffffffffffffffffffffffffffffff\n      and\n      0xffffffffffffffffffffffffffffffffffffffff\n      and\n      0xffffffffffffffffffffffffffffffffffffffff\n      and\n      dup2\n      mstore\n      0x20\n      add\n      0x02\n      dup3\n      add\n      0x00\n      swap1\n      sload\n      swap1\n      0x0100\n      exp\n      swap1\n      div\n      0xffffffffffffffffffffffffffffffffffffffff\n      and\n      0xffffffffffffffffffffffffffffffffffffffff\n      and\n      0xffffffffffffffffffffffffffffffffffffffff\n      and\n      dup2\n      mstore\n      0x20\n      add\n      0x03\n      dup3\n      add\n      0x00\n      swap1\n      sload\n      swap1\n      0x0100\n      exp\n      swap1\n      div\n      0xffffffffffffffffffffffffffffffffffffffff\n      and\n      0xffffffffffffffffffffffffffffffffffffffff\n      and\n      0xffffffffffffffffffffffffffffffffffffffff\n      and\n      dup2\n      mstore\n      0x20\n      add\n      0x04\n      dup3\n      add\n      sload\n      dup2\n      mstore\n      0x20\n      add\n      0x05\n      dup3\n      add\n      sload\n      dup2\n      mstore\n      0x20\n      add\n      0x06\n      dup3\n      add\n      sload\n      dup2\n      mstore\n      0x20\n      add\n      0x07\n      dup3\n      add\n      sload\n      dup2\n      mstore\n      0x20\n      add\n      0x08\n      dup3\n      add\n      sload\n      dup2\n      mstore\n      0x20\n      add\n      0x09\n      dup3\n      add\n      0x00\n      swap1\n      sload\n      swap1\n      0x0100\n      exp\n      swap1\n      div\n      0xff\n      and\n      0x02\n      dup2\n      gt\n      iszero\n      tag_125\n      jumpi\n      tag_126\n      tag_36\n      jump\t// in\n    tag_126:\n    tag_125:\n      0x02\n      dup2\n      gt\n      iszero\n      tag_127\n      jumpi\n      tag_128\n      tag_36\n      jump\t// in\n    tag_128:\n    tag_127:\n      dup2\n      mstore\n      pop\n      pop\n      swap1\n      pop\n        /* \"contracts/EscrowChannel.sol\":6773:6793  bytes32 generateHash */\n      0x00\n        /* \"contracts/EscrowChannel.sol\":6836:6845  channelId */\n      dup8\n        /* \"contracts/EscrowChannel.sol\":6847:6859  buyerBalance */\n      dup7\n        /* \"contracts/EscrowChannel.sol\":6861:6874  sellerBalance */\n      dup7\n        /* \"contracts/EscrowChannel.sol\":6876:6881  nonce */\n      dup10\n        /* \"contracts/EscrowChannel.sol\":6819:6882  abi.encodePacked(channelId, buyerBalance, sellerBalance, nonce) */\n      add(0x20, mload(0x40))\n      tag_129\n      swap5\n      swap4\n      swap3\n      swap2\n      swap1\n      tag_130\n      jump\t// in\n    tag_129:\n      mload(0x40)\n      0x20\n      dup2\n      dup4\n      sub\n      sub\n      dup2\n      mstore\n      swap1\n      0x40\n      mstore\n        /* \"contracts/EscrowChannel.sol\":6796:6892  keccak256(... */\n      dup1\n      mload\n      swap1\n      0x20\n      add\n      keccak256\n        /* \"contracts/EscrowChannel.sol\":6773:6892  bytes32 generateHash = keccak256(... */\n      swap1\n      pop\n        /* \"contracts/EscrowChannel.sol\":6924:6981  verifyHash(generateHash, buyerSign, channel.buyerAddress) */\n      tag_131\n        /* \"contracts/EscrowChannel.sol\":6935:6947  generateHash */\n      dup2\n        /* \"contracts/EscrowChannel.sol\":6949:6958  buyerSign */\n      dup6\n        /* \"contracts/EscrowChannel.sol\":6960:6967  channel */\n      dup5\n        /* \"contracts/EscrowChannel.sol\":6960:6980  channel.buyerAddress */\n      0x40\n      add\n      mload\n        /* \"contracts/EscrowChannel.sol\":6924:6934  verifyHash */\n      tag_132\n        /* \"contracts/EscrowChannel.sol\":6924:6981  verifyHash(generateHash, buyerSign, channel.buyerAddress) */\n      jump\t// in\n    tag_131:\n        /* \"contracts/EscrowChannel.sol\":6903:7033  require(... */\n      tag_133\n      jumpi\n      mload(0x40)\n      0x08c379a000000000000000000000000000000000000000000000000000000000\n      dup2\n      mstore\n      0x04\n      add\n      tag_134\n      swap1\n      tag_135\n      jump\t// in\n    tag_134:\n      mload(0x40)\n      dup1\n      swap2\n      sub\n      swap1\n      revert\n    tag_133:\n        /* \"contracts/EscrowChannel.sol\":7064:7123  verifyHash(generateHash, sellerSign, channel.sellerAddress) */\n      tag_136\n        /* \"contracts/EscrowChannel.sol\":7075:7087  generateHash */\n      dup2\n        /* \"contracts/EscrowChannel.sol\":7089:7099  sellerSign */\n      dup5\n        /* \"contracts/EscrowChannel.sol\":7101:7108  channel */\n      dup5\n        /* \"contracts/EscrowChannel.sol\":7101:7122  channel.sellerAddress */\n      0x60\n      add\n      mload\n        /* \"contracts/EscrowChannel.sol\":7064:7074  verifyHash */\n      tag_132\n        /* \"contracts/EscrowChannel.sol\":7064:7123  verifyHash(generateHash, sellerSign, channel.sellerAddress) */\n      jump\t// in\n    tag_136:\n        /* \"contracts/EscrowChannel.sol\":7043:7176  require(... */\n      tag_137\n      jumpi\n      mload(0x40)\n      0x08c379a000000000000000000000000000000000000000000000000000000000\n      dup2\n      mstore\n      0x04\n      add\n      tag_138\n      swap1\n      tag_139\n      jump\t// in\n    tag_138:\n      mload(0x40)\n      dup1\n      swap2\n      sub\n      swap1\n      revert\n    tag_137:\n        /* \"contracts/EscrowChannel.sol\":6709:7183  {... */\n      pop\n      pop\n        /* \"contracts/EscrowChannel.sol\":6481:7183  function verifyReceiptSignature(... */\n      pop\n      pop\n      pop\n      pop\n      pop\n      pop\n      jump\t// out\n        /* \"contracts/EscrowChannel.sol\":7189:7868  function updateChannel(... */\n    tag_51:\n        /* \"contracts/EscrowChannel.sol\":7348:7371  Channel storage channel */\n      0x00\n        /* \"contracts/EscrowChannel.sol\":7374:7382  channels */\n      dup1\n        /* \"contracts/EscrowChannel.sol\":7374:7393  channels[channelId] */\n      0x00\n        /* \"contracts/EscrowChannel.sol\":7383:7392  channelId */\n      dup7\n        /* \"contracts/EscrowChannel.sol\":7374:7393  channels[channelId] */\n      dup2\n      mstore\n      0x20\n      add\n      swap1\n      dup2\n      mstore\n      0x20\n      add\n      0x00\n      keccak256\n        /* \"contracts/EscrowChannel.sol\":7348:7393  Channel storage channel = channels[channelId] */\n      swap1\n      pop\n        /* \"contracts/EscrowChannel.sol\":7498:7505  channel */\n      dup1\n        /* \"contracts/EscrowChannel.sol\":7498:7519  channel.sellerBalance */\n      0x05\n      add\n      sload\n        /* \"contracts/EscrowChannel.sol\":7475:7482  channel */\n      dup2\n        /* \"contracts/EscrowChannel.sol\":7475:7495  channel.buyerBalance */\n      0x04\n      add\n      sload\n        /* \"contracts/EscrowChannel.sol\":7475:7519  channel.buyerBalance + channel.sellerBalance */\n      tag_141\n      swap2\n      swap1\n      tag_80\n      jump\t// in\n    tag_141:\n        /* \"contracts/EscrowChannel.sol\":7440:7453  sellerBalance */\n      dup3\n        /* \"contracts/EscrowChannel.sol\":7425:7437  buyerBalance */\n      dup5\n        /* \"contracts/EscrowChannel.sol\":7425:7453  buyerBalance + sellerBalance */\n      tag_142\n      swap2\n      swap1\n      tag_80\n      jump\t// in\n    tag_142:\n        /* \"contracts/EscrowChannel.sol\":7424:7520  (buyerBalance + sellerBalance) ==... */\n      eq\n        /* \"contracts/EscrowChannel.sol\":7403:7606  require(... */\n      tag_143\n      jumpi\n      mload(0x40)\n      0x08c379a000000000000000000000000000000000000000000000000000000000\n      dup2\n      mstore\n      0x04\n      add\n      tag_144\n      swap1\n      tag_145\n      jump\t// in\n    tag_144:\n      mload(0x40)\n      dup1\n      swap2\n      sub\n      swap1\n      revert\n    tag_143:\n        /* \"contracts/EscrowChannel.sol\":7632:7637  nonce */\n      dup4\n        /* \"contracts/EscrowChannel.sol\":7616:7623  channel */\n      dup2\n        /* \"contracts/EscrowChannel.sol\":7616:7629  channel.nonce */\n      0x06\n      add\n        /* \"contracts/EscrowChannel.sol\":7616:7637  channel.nonce = nonce */\n      dup2\n      swap1\n      sstore\n      pop\n        /* \"contracts/EscrowChannel.sol\":7670:7682  buyerBalance */\n      dup3\n        /* \"contracts/EscrowChannel.sol\":7647:7654  channel */\n      dup2\n        /* \"contracts/EscrowChannel.sol\":7647:7667  channel.buyerBalance */\n      0x04\n      add\n        /* \"contracts/EscrowChannel.sol\":7647:7682  channel.buyerBalance = buyerBalance */\n      dup2\n      swap1\n      sstore\n      pop\n        /* \"contracts/EscrowChannel.sol\":7716:7729  sellerBalance */\n      dup2\n        /* \"contracts/EscrowChannel.sol\":7692:7699  channel */\n      dup2\n        /* \"contracts/EscrowChannel.sol\":7692:7713  channel.sellerBalance */\n      0x05\n      add\n        /* \"contracts/EscrowChannel.sol\":7692:7729  channel.sellerBalance = sellerBalance */\n      dup2\n      swap1\n      sstore\n      pop\n        /* \"contracts/EscrowChannel.sol\":7766:7767  0 */\n      0x00\n        /* \"contracts/EscrowChannel.sol\":7743:7750  channel */\n      dup2\n        /* \"contracts/EscrowChannel.sol\":7743:7762  channel.closingTime */\n      0x07\n      add\n      sload\n        /* \"contracts/EscrowChannel.sol\":7743:7767  channel.closingTime == 0 */\n      eq\n        /* \"contracts/EscrowChannel.sol\":7739:7806  if (channel.closingTime == 0) channel.closingTime = block.timestamp */\n      iszero\n      tag_146\n      jumpi\n        /* \"contracts/EscrowChannel.sol\":7791:7806  block.timestamp */\n      timestamp\n        /* \"contracts/EscrowChannel.sol\":7769:7776  channel */\n      dup2\n        /* \"contracts/EscrowChannel.sol\":7769:7788  channel.closingTime */\n      0x07\n      add\n        /* \"contracts/EscrowChannel.sol\":7769:7806  channel.closingTime = block.timestamp */\n      dup2\n      swap1\n      sstore\n      pop\n        /* \"contracts/EscrowChannel.sol\":7739:7806  if (channel.closingTime == 0) channel.closingTime = block.timestamp */\n    tag_146:\n        /* \"contracts/EscrowChannel.sol\":7839:7861  ChannelState.IS_ACTIVE */\n      0x01\n        /* \"contracts/EscrowChannel.sol\":7816:7823  channel */\n      dup2\n        /* \"contracts/EscrowChannel.sol\":7816:7836  channel.channelState */\n      0x09\n      add\n      0x00\n        /* \"contracts/EscrowChannel.sol\":7816:7861  channel.channelState = ChannelState.IS_ACTIVE */\n      0x0100\n      exp\n      dup2\n      sload\n      dup2\n      0xff\n      mul\n      not\n      and\n      swap1\n      dup4\n      0x02\n      dup2\n      gt\n      iszero\n      tag_147\n      jumpi\n      tag_148\n      tag_36\n      jump\t// in\n    tag_148:\n    tag_147:\n      mul\n      or\n      swap1\n      sstore\n      pop\n        /* \"contracts/EscrowChannel.sol\":7338:7868  {... */\n      pop\n        /* \"contracts/EscrowChannel.sol\":7189:7868  function updateChannel(... */\n      pop\n      pop\n      pop\n      pop\n      jump\t// out\n        /* \"contracts/EscrowChannel.sol\":7874:8403  function distributeTokens(bytes32 channelId) internal notClosed(channelId) {... */\n    tag_58:\n        /* \"contracts/EscrowChannel.sol\":7938:7947  channelId */\n      dup1\n        /* \"contracts/EscrowChannel.sol\":1669:1691  ChannelState.IS_CLOSED */\n      0x02\n        /* \"contracts/EscrowChannel.sol\":1640:1691  channels[id].channelState != ChannelState.IS_CLOSED */\n      dup1\n      dup2\n      gt\n      iszero\n      tag_150\n      jumpi\n      tag_151\n      tag_36\n      jump\t// in\n    tag_151:\n    tag_150:\n        /* \"contracts/EscrowChannel.sol\":1640:1648  channels */\n      0x00\n        /* \"contracts/EscrowChannel.sol\":1640:1652  channels[id] */\n      dup1\n        /* \"contracts/EscrowChannel.sol\":1649:1651  id */\n      dup4\n        /* \"contracts/EscrowChannel.sol\":1640:1652  channels[id] */\n      dup2\n      mstore\n      0x20\n      add\n      swap1\n      dup2\n      mstore\n      0x20\n      add\n      0x00\n      keccak256\n        /* \"contracts/EscrowChannel.sol\":1640:1665  channels[id].channelState */\n      0x09\n      add\n      0x00\n      swap1\n      sload\n      swap1\n      0x0100\n      exp\n      swap1\n      div\n      0xff\n      and\n        /* \"contracts/EscrowChannel.sol\":1640:1691  channels[id].channelState != ChannelState.IS_CLOSED */\n      0x02\n      dup2\n      gt\n      iszero\n      tag_152\n      jumpi\n      tag_153\n      tag_36\n      jump\t// in\n    tag_153:\n    tag_152:\n      eq\n      iszero\n        /* \"contracts/EscrowChannel.sol\":1619:1749  require(... */\n      tag_154\n      jumpi\n      mload(0x40)\n      0x08c379a000000000000000000000000000000000000000000000000000000000\n      dup2\n      mstore\n      0x04\n      add\n      tag_155\n      swap1\n      tag_156\n      jump\t// in\n    tag_155:\n      mload(0x40)\n      dup1\n      swap2\n      sub\n      swap1\n      revert\n    tag_154:\n        /* \"contracts/EscrowChannel.sol\":7959:7982  Channel storage channel */\n      0x00\n        /* \"contracts/EscrowChannel.sol\":7985:7993  channels */\n      dup1\n        /* \"contracts/EscrowChannel.sol\":7985:8004  channels[channelId] */\n      0x00\n        /* \"contracts/EscrowChannel.sol\":7994:8003  channelId */\n      dup5\n        /* \"contracts/EscrowChannel.sol\":7985:8004  channels[channelId] */\n      dup2\n      mstore\n      0x20\n      add\n      swap1\n      dup2\n      mstore\n      0x20\n      add\n      0x00\n      keccak256\n        /* \"contracts/EscrowChannel.sol\":7959:8004  Channel storage channel = channels[channelId] */\n      swap1\n      pop\n        /* \"contracts/EscrowChannel.sol\":8061:8083  ChannelState.IS_CLOSED */\n      0x02\n        /* \"contracts/EscrowChannel.sol\":8038:8045  channel */\n      dup2\n        /* \"contracts/EscrowChannel.sol\":8038:8058  channel.channelState */\n      0x09\n      add\n      0x00\n        /* \"contracts/EscrowChannel.sol\":8038:8083  channel.channelState = ChannelState.IS_CLOSED */\n      0x0100\n      exp\n      dup2\n      sload\n      dup2\n      0xff\n      mul\n      not\n      and\n      swap1\n      dup4\n      0x02\n      dup2\n      gt\n      iszero\n      tag_158\n      jumpi\n      tag_159\n      tag_36\n      jump\t// in\n    tag_159:\n    tag_158:\n      mul\n      or\n      swap1\n      sstore\n      pop\n        /* \"contracts/EscrowChannel.sol\":8093:8219  transferTokens(... */\n      tag_160\n        /* \"contracts/EscrowChannel.sol\":8121:8128  channel */\n      dup2\n        /* \"contracts/EscrowChannel.sol\":8121:8141  channel.tokenAddress */\n      0x01\n      add\n      0x00\n      swap1\n      sload\n      swap1\n      0x0100\n      exp\n      swap1\n      div\n      0xffffffffffffffffffffffffffffffffffffffff\n      and\n        /* \"contracts/EscrowChannel.sol\":8155:8162  channel */\n      dup3\n        /* \"contracts/EscrowChannel.sol\":8155:8175  channel.buyerAddress */\n      0x02\n      add\n      0x00\n      swap1\n      sload\n      swap1\n      0x0100\n      exp\n      swap1\n      div\n      0xffffffffffffffffffffffffffffffffffffffff\n      and\n        /* \"contracts/EscrowChannel.sol\":8189:8196  channel */\n      dup4\n        /* \"contracts/EscrowChannel.sol\":8189:8209  channel.buyerBalance */\n      0x04\n      add\n      sload\n        /* \"contracts/EscrowChannel.sol\":8093:8107  transferTokens */\n      tag_161\n        /* \"contracts/EscrowChannel.sol\":8093:8219  transferTokens(... */\n      jump\t// in\n    tag_160:\n        /* \"contracts/EscrowChannel.sol\":8229:8357  transferTokens(... */\n      tag_162\n        /* \"contracts/EscrowChannel.sol\":8257:8264  channel */\n      dup2\n        /* \"contracts/EscrowChannel.sol\":8257:8277  channel.tokenAddress */\n      0x01\n      add\n      0x00\n      swap1\n      sload\n      swap1\n      0x0100\n      exp\n      swap1\n      div\n      0xffffffffffffffffffffffffffffffffffffffff\n      and\n        /* \"contracts/EscrowChannel.sol\":8291:8298  channel */\n      dup3\n        /* \"contracts/EscrowChannel.sol\":8291:8312  channel.sellerAddress */\n      0x03\n      add\n      0x00\n      swap1\n      sload\n      swap1\n      0x0100\n      exp\n      swap1\n      div\n      0xffffffffffffffffffffffffffffffffffffffff\n      and\n        /* \"contracts/EscrowChannel.sol\":8326:8333  channel */\n      dup4\n        /* \"contracts/EscrowChannel.sol\":8326:8347  channel.sellerBalance */\n      0x05\n      add\n      sload\n        /* \"contracts/EscrowChannel.sol\":8229:8243  transferTokens */\n      tag_161\n        /* \"contracts/EscrowChannel.sol\":8229:8357  transferTokens(... */\n      jump\t// in\n    tag_162:\n        /* \"contracts/EscrowChannel.sol\":8372:8396  ChannelClosed(channelId) */\n      0xceeab2eef998c17fe96f30f83fbf3c55fc5047f6e40c55a0cf72d236e9d2ba72\n        /* \"contracts/EscrowChannel.sol\":8386:8395  channelId */\n      dup4\n        /* \"contracts/EscrowChannel.sol\":8372:8396  ChannelClosed(channelId) */\n      mload(0x40)\n      tag_163\n      swap2\n      swap1\n      tag_108\n      jump\t// in\n    tag_163:\n      mload(0x40)\n      dup1\n      swap2\n      sub\n      swap1\n      log1\n        /* \"contracts/EscrowChannel.sol\":7949:8403  {... */\n      pop\n        /* \"contracts/EscrowChannel.sol\":7874:8403  function distributeTokens(bytes32 channelId) internal notClosed(channelId) {... */\n      pop\n      pop\n      jump\t// out\n        /* \"contracts/EscrowChannel.sol\":5947:6212  function receiveTokens(... */\n    tag_106:\n        /* \"contracts/EscrowChannel.sol\":6084:6085  0 */\n      0x00\n        /* \"contracts/EscrowChannel.sol\":6075:6081  amount */\n      dup2\n        /* \"contracts/EscrowChannel.sol\":6075:6085  amount > 0 */\n      gt\n        /* \"contracts/EscrowChannel.sol\":6071:6206  if (amount > 0) {... */\n      iszero\n      tag_165\n      jumpi\n        /* \"contracts/EscrowChannel.sol\":6101:6112  ERC20 token */\n      0x00\n        /* \"contracts/EscrowChannel.sol\":6121:6133  tokenAddress */\n      dup4\n        /* \"contracts/EscrowChannel.sol\":6101:6134  ERC20 token = ERC20(tokenAddress) */\n      swap1\n      pop\n        /* \"contracts/EscrowChannel.sol\":6148:6153  token */\n      dup1\n        /* \"contracts/EscrowChannel.sol\":6148:6166  token.transferFrom */\n      0xffffffffffffffffffffffffffffffffffffffff\n      and\n      0x23b872dd\n        /* \"contracts/EscrowChannel.sol\":6167:6171  from */\n      dup5\n        /* \"contracts/EscrowChannel.sol\":6181:6185  this */\n      address\n        /* \"contracts/EscrowChannel.sol\":6188:6194  amount */\n      dup6\n        /* \"contracts/EscrowChannel.sol\":6148:6195  token.transferFrom(from, address(this), amount) */\n      mload(0x40)\n      dup5\n      0xffffffff\n      and\n      0xe0\n      shl\n      dup2\n      mstore\n      0x04\n      add\n      tag_166\n      swap4\n      swap3\n      swap2\n      swap1\n      tag_167\n      jump\t// in\n    tag_166:\n      0x20\n      mload(0x40)\n      dup1\n      dup4\n      sub\n      dup2\n      0x00\n      dup8\n      dup1\n      extcodesize\n      iszero\n      dup1\n      iszero\n      tag_168\n      jumpi\n      0x00\n      dup1\n      revert\n    tag_168:\n      pop\n      gas\n      call\n      iszero\n      dup1\n      iszero\n      tag_170\n      jumpi\n      returndatasize\n      0x00\n      dup1\n      returndatacopy\n      revert(0x00, returndatasize)\n    tag_170:\n      pop\n      pop\n      pop\n      pop\n      mload(0x40)\n      returndatasize\n      not(0x1f)\n      0x1f\n      dup3\n      add\n      and\n      dup3\n      add\n      dup1\n      0x40\n      mstore\n      pop\n      dup2\n      add\n      swap1\n      tag_171\n      swap2\n      swap1\n      tag_172\n      jump\t// in\n    tag_171:\n      pop\n        /* \"contracts/EscrowChannel.sol\":6087:6206  {... */\n      pop\n        /* \"contracts/EscrowChannel.sol\":6071:6206  if (amount > 0) {... */\n    tag_165:\n        /* \"contracts/EscrowChannel.sol\":5947:6212  function receiveTokens(... */\n      pop\n      pop\n      pop\n      jump\t// out\n        /* \"contracts/EscrowChannel.sol\":6218:6475  function verifyHash(... */\n    tag_132:\n        /* \"contracts/EscrowChannel.sol\":6345:6356  bool result */\n      0x00\n        /* \"contracts/EscrowChannel.sol\":6368:6383  bytes32 ethHash */\n      dup1\n        /* \"contracts/EscrowChannel.sol\":6386:6415  hash.toEthSignedMessageHash() */\n      tag_174\n        /* \"contracts/EscrowChannel.sol\":6386:6390  hash */\n      dup6\n        /* \"contracts/EscrowChannel.sol\":6386:6413  hash.toEthSignedMessageHash */\n      tag_175\n        /* \"contracts/EscrowChannel.sol\":6386:6415  hash.toEthSignedMessageHash() */\n      jump\t// in\n    tag_174:\n        /* \"contracts/EscrowChannel.sol\":6368:6415  bytes32 ethHash = hash.toEthSignedMessageHash() */\n      swap1\n      pop\n        /* \"contracts/EscrowChannel.sol\":6462:6468  signer */\n      dup3\n        /* \"contracts/EscrowChannel.sol\":6432:6468  ethHash.recover(signature) == signer */\n      0xffffffffffffffffffffffffffffffffffffffff\n      and\n        /* \"contracts/EscrowChannel.sol\":6432:6458  ethHash.recover(signature) */\n      tag_176\n        /* \"contracts/EscrowChannel.sol\":6448:6457  signature */\n      dup6\n        /* \"contracts/EscrowChannel.sol\":6432:6439  ethHash */\n      dup4\n        /* \"contracts/EscrowChannel.sol\":6432:6447  ethHash.recover */\n      tag_177\n      swap1\n        /* \"contracts/EscrowChannel.sol\":6432:6458  ethHash.recover(signature) */\n      swap2\n      swap1\n      0xffffffff\n      and\n      jump\t// in\n    tag_176:\n        /* \"contracts/EscrowChannel.sol\":6432:6468  ethHash.recover(signature) == signer */\n      0xffffffffffffffffffffffffffffffffffffffff\n      and\n      eq\n        /* \"contracts/EscrowChannel.sol\":6425:6468  return ethHash.recover(signature) == signer */\n      swap2\n      pop\n      pop\n        /* \"contracts/EscrowChannel.sol\":6218:6475  function verifyHash(... */\n      swap4\n      swap3\n      pop\n      pop\n      pop\n      jump\t// out\n        /* \"contracts/EscrowChannel.sol\":8409:8680  function transferTokens(... */\n    tag_161:\n        /* \"contracts/EscrowChannel.sol\":8545:8546  0 */\n      0x00\n        /* \"contracts/EscrowChannel.sol\":8536:8542  amount */\n      dup2\n        /* \"contracts/EscrowChannel.sol\":8536:8546  amount > 0 */\n      gt\n        /* \"contracts/EscrowChannel.sol\":8532:8674  if (amount > 0) {... */\n      iszero\n      tag_179\n      jumpi\n        /* \"contracts/EscrowChannel.sol\":8562:8573  ERC20 token */\n      0x00\n        /* \"contracts/EscrowChannel.sol\":8582:8594  tokenAddress */\n      dup4\n        /* \"contracts/EscrowChannel.sol\":8562:8595  ERC20 token = ERC20(tokenAddress) */\n      swap1\n      pop\n        /* \"contracts/EscrowChannel.sol\":8617:8622  token */\n      dup1\n        /* \"contracts/EscrowChannel.sol\":8617:8631  token.transfer */\n      0xffffffffffffffffffffffffffffffffffffffff\n      and\n      0xa9059cbb\n        /* \"contracts/EscrowChannel.sol\":8632:8634  to */\n      dup5\n        /* \"contracts/EscrowChannel.sol\":8636:8642  amount */\n      dup5\n        /* \"contracts/EscrowChannel.sol\":8617:8643  token.transfer(to, amount) */\n      mload(0x40)\n      dup4\n      0xffffffff\n      and\n      0xe0\n      shl\n      dup2\n      mstore\n      0x04\n      add\n      tag_180\n      swap3\n      swap2\n      swap1\n      tag_181\n      jump\t// in\n    tag_180:\n      0x20\n      mload(0x40)\n      dup1\n      dup4\n      sub\n      dup2\n      0x00\n      dup8\n      dup1\n      extcodesize\n      iszero\n      dup1\n      iszero\n      tag_182\n      jumpi\n      0x00\n      dup1\n      revert\n    tag_182:\n      pop\n      gas\n      call\n      iszero\n      dup1\n      iszero\n      tag_184\n      jumpi\n      returndatasize\n      0x00\n      dup1\n      returndatacopy\n      revert(0x00, returndatasize)\n    tag_184:\n      pop\n      pop\n      pop\n      pop\n      mload(0x40)\n      returndatasize\n      not(0x1f)\n      0x1f\n      dup3\n      add\n      and\n      dup3\n      add\n      dup1\n      0x40\n      mstore\n      pop\n      dup2\n      add\n      swap1\n      tag_185\n      swap2\n      swap1\n      tag_172\n      jump\t// in\n    tag_185:\n        /* \"contracts/EscrowChannel.sol\":8609:8663  require(token.transfer(to, amount), \"Cannot Transfer\") */\n      tag_186\n      jumpi\n      mload(0x40)\n      0x08c379a000000000000000000000000000000000000000000000000000000000\n      dup2\n      mstore\n      0x04\n      add\n      tag_187\n      swap1\n      tag_188\n      jump\t// in\n    tag_187:\n      mload(0x40)\n      dup1\n      swap2\n      sub\n      swap1\n      revert\n    tag_186:\n        /* \"contracts/EscrowChannel.sol\":8548:8674  {... */\n      pop\n        /* \"contracts/EscrowChannel.sol\":8532:8674  if (amount > 0) {... */\n    tag_179:\n        /* \"contracts/EscrowChannel.sol\":8409:8680  function transferTokens(... */\n      pop\n      pop\n      pop\n      jump\t// out\n        /* \"@openzeppelin/contracts/utils/cryptography/ECDSA.sol\":8106:8371  function toEthSignedMessageHash(bytes32 hash) internal pure returns (bytes32) {... */\n    tag_175:\n        /* \"@openzeppelin/contracts/utils/cryptography/ECDSA.sol\":8175:8182  bytes32 */\n      0x00\n        /* \"@openzeppelin/contracts/utils/cryptography/ECDSA.sol\":8358:8362  hash */\n      dup2\n        /* \"@openzeppelin/contracts/utils/cryptography/ECDSA.sol\":8305:8363  abi.encodePacked(\"\\x19Ethereum Signed Message:\\n32\", hash) */\n      add(0x20, mload(0x40))\n      tag_190\n      swap2\n      swap1\n      tag_191\n      jump\t// in\n    tag_190:\n      mload(0x40)\n      0x20\n      dup2\n      dup4\n      sub\n      sub\n      dup2\n      mstore\n      swap1\n      0x40\n      mstore\n        /* \"@openzeppelin/contracts/utils/cryptography/ECDSA.sol\":8295:8364  keccak256(abi.encodePacked(\"\\x19Ethereum Signed Message:\\n32\", hash)) */\n      dup1\n      mload\n      swap1\n      0x20\n      add\n      keccak256\n        /* \"@openzeppelin/contracts/utils/cryptography/ECDSA.sol\":8288:8364  return keccak256(abi.encodePacked(\"\\x19Ethereum Signed Message:\\n32\", hash)) */\n      swap1\n      pop\n        /* \"@openzeppelin/contracts/utils/cryptography/ECDSA.sol\":8106:8371  function toEthSignedMessageHash(bytes32 hash) internal pure returns (bytes32) {... */\n      swap2\n      swap1\n      pop\n      jump\t// out\n        /* \"@openzeppelin/contracts/utils/cryptography/ECDSA.sol\":4402:4629  function recover(bytes32 hash, bytes memory signature) internal pure returns (address) {... */\n    tag_177:\n        /* \"@openzeppelin/contracts/utils/cryptography/ECDSA.sol\":4480:4487  address */\n      0x00\n        /* \"@openzeppelin/contracts/utils/cryptography/ECDSA.sol\":4500:4517  address recovered */\n      dup1\n        /* \"@openzeppelin/contracts/utils/cryptography/ECDSA.sol\":4519:4537  RecoverError error */\n      0x00\n        /* \"@openzeppelin/contracts/utils/cryptography/ECDSA.sol\":4541:4568  tryRecover(hash, signature) */\n      tag_193\n        /* \"@openzeppelin/contracts/utils/cryptography/ECDSA.sol\":4552:4556  hash */\n      dup6\n        /* \"@openzeppelin/contracts/utils/cryptography/ECDSA.sol\":4558:4567  signature */\n      dup6\n        /* \"@openzeppelin/contracts/utils/cryptography/ECDSA.sol\":4541:4551  tryRecover */\n      tag_194\n        /* \"@openzeppelin/contracts/utils/cryptography/ECDSA.sol\":4541:4568  tryRecover(hash, signature) */\n      jump\t// in\n    tag_193:\n        /* \"@openzeppelin/contracts/utils/cryptography/ECDSA.sol\":4499:4568  (address recovered, RecoverError error) = tryRecover(hash, signature) */\n      swap2\n      pop\n      swap2\n      pop\n        /* \"@openzeppelin/contracts/utils/cryptography/ECDSA.sol\":4578:4596  _throwError(error) */\n      tag_195\n        /* \"@openzeppelin/contracts/utils/cryptography/ECDSA.sol\":4590:4595  error */\n      dup2\n        /* \"@openzeppelin/contracts/utils/cryptography/ECDSA.sol\":4578:4589  _throwError */\n      tag_196\n        /* \"@openzeppelin/contracts/utils/cryptography/ECDSA.sol\":4578:4596  _throwError(error) */\n      jump\t// in\n    tag_195:\n        /* \"@openzeppelin/contracts/utils/cryptography/ECDSA.sol\":4613:4622  recovered */\n      dup2\n        /* \"@openzeppelin/contracts/utils/cryptography/ECDSA.sol\":4606:4622  return recovered */\n      swap3\n      pop\n      pop\n      pop\n        /* \"@openzeppelin/contracts/utils/cryptography/ECDSA.sol\":4402:4629  function recover(bytes32 hash, bytes memory signature) internal pure returns (address) {... */\n      swap3\n      swap2\n      pop\n      pop\n      jump\t// out\n        /* \"@openzeppelin/contracts/utils/cryptography/ECDSA.sol\":2243:3616  function tryRecover(bytes32 hash, bytes memory signature) internal pure returns (address, RecoverError) {... */\n    tag_194:\n        /* \"@openzeppelin/contracts/utils/cryptography/ECDSA.sol\":2324:2331  address */\n      0x00\n        /* \"@openzeppelin/contracts/utils/cryptography/ECDSA.sol\":2333:2345  RecoverError */\n      dup1\n        /* \"@openzeppelin/contracts/utils/cryptography/ECDSA.sol\":2574:2576  65 */\n      0x41\n        /* \"@openzeppelin/contracts/utils/cryptography/ECDSA.sol\":2554:2563  signature */\n      dup4\n        /* \"@openzeppelin/contracts/utils/cryptography/ECDSA.sol\":2554:2570  signature.length */\n      mload\n        /* \"@openzeppelin/contracts/utils/cryptography/ECDSA.sol\":2554:2576  signature.length == 65 */\n      eq\n        /* \"@openzeppelin/contracts/utils/cryptography/ECDSA.sol\":2550:3610  if (signature.length == 65) {... */\n      iszero\n      tag_198\n      jumpi\n        /* \"@openzeppelin/contracts/utils/cryptography/ECDSA.sol\":2592:2601  bytes32 r */\n      0x00\n        /* \"@openzeppelin/contracts/utils/cryptography/ECDSA.sol\":2615:2624  bytes32 s */\n      dup1\n        /* \"@openzeppelin/contracts/utils/cryptography/ECDSA.sol\":2638:2645  uint8 v */\n      0x00\n        /* \"@openzeppelin/contracts/utils/cryptography/ECDSA.sol\":2890:2894  0x20 */\n      0x20\n        /* \"@openzeppelin/contracts/utils/cryptography/ECDSA.sol\":2879:2888  signature */\n      dup7\n        /* \"@openzeppelin/contracts/utils/cryptography/ECDSA.sol\":2875:2895  add(signature, 0x20) */\n      add\n        /* \"@openzeppelin/contracts/utils/cryptography/ECDSA.sol\":2869:2896  mload(add(signature, 0x20)) */\n      mload\n        /* \"@openzeppelin/contracts/utils/cryptography/ECDSA.sol\":2864:2896  r := mload(add(signature, 0x20)) */\n      swap3\n      pop\n        /* \"@openzeppelin/contracts/utils/cryptography/ECDSA.sol\":2939:2943  0x40 */\n      0x40\n        /* \"@openzeppelin/contracts/utils/cryptography/ECDSA.sol\":2928:2937  signature */\n      dup7\n        /* \"@openzeppelin/contracts/utils/cryptography/ECDSA.sol\":2924:2944  add(signature, 0x40) */\n      add\n        /* \"@openzeppelin/contracts/utils/cryptography/ECDSA.sol\":2918:2945  mload(add(signature, 0x40)) */\n      mload\n        /* \"@openzeppelin/contracts/utils/cryptography/ECDSA.sol\":2913:2945  s := mload(add(signature, 0x40)) */\n      swap2\n      pop\n        /* \"@openzeppelin/contracts/utils/cryptography/ECDSA.sol\":2996:3000  0x60 */\n      0x60\n        /* \"@openzeppelin/contracts/utils/cryptography/ECDSA.sol\":2985:2994  signature */\n      dup7\n        /* \"@openzeppelin/contracts/utils/cryptography/ECDSA.sol\":2981:3001  add(signature, 0x60) */\n      add\n        /* \"@openzeppelin/contracts/utils/cryptography/ECDSA.sol\":2975:3002  mload(add(signature, 0x60)) */\n      mload\n        /* \"@openzeppelin/contracts/utils/cryptography/ECDSA.sol\":2972:2973  0 */\n      0x00\n        /* \"@openzeppelin/contracts/utils/cryptography/ECDSA.sol\":2967:3003  byte(0, mload(add(signature, 0x60))) */\n      byte\n        /* \"@openzeppelin/contracts/utils/cryptography/ECDSA.sol\":2962:3003  v := byte(0, mload(add(signature, 0x60))) */\n      swap1\n      pop\n        /* \"@openzeppelin/contracts/utils/cryptography/ECDSA.sol\":3037:3062  tryRecover(hash, v, r, s) */\n      tag_199\n        /* \"@openzeppelin/contracts/utils/cryptography/ECDSA.sol\":3048:3052  hash */\n      dup8\n        /* \"@openzeppelin/contracts/utils/cryptography/ECDSA.sol\":3054:3055  v */\n      dup3\n        /* \"@openzeppelin/contracts/utils/cryptography/ECDSA.sol\":3057:3058  r */\n      dup6\n        /* \"@openzeppelin/contracts/utils/cryptography/ECDSA.sol\":3060:3061  s */\n      dup6\n        /* \"@openzeppelin/contracts/utils/cryptography/ECDSA.sol\":3037:3047  tryRecover */\n      tag_200\n        /* \"@openzeppelin/contracts/utils/cryptography/ECDSA.sol\":3037:3062  tryRecover(hash, v, r, s) */\n      jump\t// in\n    tag_199:\n        /* \"@openzeppelin/contracts/utils/cryptography/ECDSA.sol\":3030:3062  return tryRecover(hash, v, r, s) */\n      swap5\n      pop\n      swap5\n      pop\n      pop\n      pop\n      pop\n      jump(tag_197)\n        /* \"@openzeppelin/contracts/utils/cryptography/ECDSA.sol\":2550:3610  if (signature.length == 65) {... */\n    tag_198:\n        /* \"@openzeppelin/contracts/utils/cryptography/ECDSA.sol\":3103:3105  64 */\n      0x40\n        /* \"@openzeppelin/contracts/utils/cryptography/ECDSA.sol\":3083:3092  signature */\n      dup4\n        /* \"@openzeppelin/contracts/utils/cryptography/ECDSA.sol\":3083:3099  signature.length */\n      mload\n        /* \"@openzeppelin/contracts/utils/cryptography/ECDSA.sol\":3083:3105  signature.length == 64 */\n      eq\n        /* \"@openzeppelin/contracts/utils/cryptography/ECDSA.sol\":3079:3610  if (signature.length == 64) {... */\n      iszero\n      tag_202\n      jumpi\n        /* \"@openzeppelin/contracts/utils/cryptography/ECDSA.sol\":3121:3130  bytes32 r */\n      0x00\n        /* \"@openzeppelin/contracts/utils/cryptography/ECDSA.sol\":3144:3154  bytes32 vs */\n      dup1\n        /* \"@openzeppelin/contracts/utils/cryptography/ECDSA.sol\":3399:3403  0x20 */\n      0x20\n        /* \"@openzeppelin/contracts/utils/cryptography/ECDSA.sol\":3388:3397  signature */\n      dup6\n        /* \"@openzeppelin/contracts/utils/cryptography/ECDSA.sol\":3384:3404  add(signature, 0x20) */\n      add\n        /* \"@openzeppelin/contracts/utils/cryptography/ECDSA.sol\":3378:3405  mload(add(signature, 0x20)) */\n      mload\n        /* \"@openzeppelin/contracts/utils/cryptography/ECDSA.sol\":3373:3405  r := mload(add(signature, 0x20)) */\n      swap2\n      pop\n        /* \"@openzeppelin/contracts/utils/cryptography/ECDSA.sol\":3449:3453  0x40 */\n      0x40\n        /* \"@openzeppelin/contracts/utils/cryptography/ECDSA.sol\":3438:3447  signature */\n      dup6\n        /* \"@openzeppelin/contracts/utils/cryptography/ECDSA.sol\":3434:3454  add(signature, 0x40) */\n      add\n        /* \"@openzeppelin/contracts/utils/cryptography/ECDSA.sol\":3428:3455  mload(add(signature, 0x40)) */\n      mload\n        /* \"@openzeppelin/contracts/utils/cryptography/ECDSA.sol\":3422:3455  vs := mload(add(signature, 0x40)) */\n      swap1\n      pop\n        /* \"@openzeppelin/contracts/utils/cryptography/ECDSA.sol\":3489:3512  tryRecover(hash, r, vs) */\n      tag_203\n        /* \"@openzeppelin/contracts/utils/cryptography/ECDSA.sol\":3500:3504  hash */\n      dup7\n        /* \"@openzeppelin/contracts/utils/cryptography/ECDSA.sol\":3506:3507  r */\n      dup4\n        /* \"@openzeppelin/contracts/utils/cryptography/ECDSA.sol\":3509:3511  vs */\n      dup4\n        /* \"@openzeppelin/contracts/utils/cryptography/ECDSA.sol\":3489:3499  tryRecover */\n      tag_204\n        /* \"@openzeppelin/contracts/utils/cryptography/ECDSA.sol\":3489:3512  tryRecover(hash, r, vs) */\n      jump\t// in\n    tag_203:\n        /* \"@openzeppelin/contracts/utils/cryptography/ECDSA.sol\":3482:3512  return tryRecover(hash, r, vs) */\n      swap4\n      pop\n      swap4\n      pop\n      pop\n      pop\n      jump(tag_197)\n        /* \"@openzeppelin/contracts/utils/cryptography/ECDSA.sol\":3079:3610  if (signature.length == 64) {... */\n    tag_202:\n        /* \"@openzeppelin/contracts/utils/cryptography/ECDSA.sol\":3559:3560  0 */\n      0x00\n        /* \"@openzeppelin/contracts/utils/cryptography/ECDSA.sol\":3563:3598  RecoverError.InvalidSignatureLength */\n      0x02\n        /* \"@openzeppelin/contracts/utils/cryptography/ECDSA.sol\":3543:3599  return (address(0), RecoverError.InvalidSignatureLength) */\n      swap2\n      pop\n      swap2\n      pop\n        /* \"@openzeppelin/contracts/utils/cryptography/ECDSA.sol\":2243:3616  function tryRecover(bytes32 hash, bytes memory signature) internal pure returns (address, RecoverError) {... */\n    tag_197:\n      swap3\n      pop\n      swap3\n      swap1\n      pop\n      jump\t// out\n        /* \"@openzeppelin/contracts/utils/cryptography/ECDSA.sol\":548:1179  function _throwError(RecoverError error) private pure {... */\n    tag_196:\n        /* \"@openzeppelin/contracts/utils/cryptography/ECDSA.sol\":625:645  RecoverError.NoError */\n      0x00\n        /* \"@openzeppelin/contracts/utils/cryptography/ECDSA.sol\":616:645  error == RecoverError.NoError */\n      0x04\n      dup2\n      gt\n      iszero\n      tag_207\n      jumpi\n      tag_208\n      tag_36\n      jump\t// in\n    tag_208:\n    tag_207:\n        /* \"@openzeppelin/contracts/utils/cryptography/ECDSA.sol\":616:621  error */\n      dup2\n        /* \"@openzeppelin/contracts/utils/cryptography/ECDSA.sol\":616:645  error == RecoverError.NoError */\n      0x04\n      dup2\n      gt\n      iszero\n      tag_209\n      jumpi\n      tag_210\n      tag_36\n      jump\t// in\n    tag_210:\n    tag_209:\n      eq\n        /* \"@openzeppelin/contracts/utils/cryptography/ECDSA.sol\":612:1173  if (error == RecoverError.NoError) {... */\n      iszero\n      tag_211\n      jumpi\n        /* \"@openzeppelin/contracts/utils/cryptography/ECDSA.sol\":661:668  return; */\n      jump(tag_206)\n        /* \"@openzeppelin/contracts/utils/cryptography/ECDSA.sol\":612:1173  if (error == RecoverError.NoError) {... */\n    tag_211:\n        /* \"@openzeppelin/contracts/utils/cryptography/ECDSA.sol\":721:750  RecoverError.InvalidSignature */\n      0x01\n        /* \"@openzeppelin/contracts/utils/cryptography/ECDSA.sol\":712:750  error == RecoverError.InvalidSignature */\n      0x04\n      dup2\n      gt\n      iszero\n      tag_213\n      jumpi\n      tag_214\n      tag_36\n      jump\t// in\n    tag_214:\n    tag_213:\n        /* \"@openzeppelin/contracts/utils/cryptography/ECDSA.sol\":712:717  error */\n      dup2\n        /* \"@openzeppelin/contracts/utils/cryptography/ECDSA.sol\":712:750  error == RecoverError.InvalidSignature */\n      0x04\n      dup2\n      gt\n      iszero\n      tag_215\n      jumpi\n      tag_216\n      tag_36\n      jump\t// in\n    tag_216:\n    tag_215:\n      eq\n        /* \"@openzeppelin/contracts/utils/cryptography/ECDSA.sol\":708:1173  if (error == RecoverError.InvalidSignature) {... */\n      iszero\n      tag_217\n      jumpi\n        /* \"@openzeppelin/contracts/utils/cryptography/ECDSA.sol\":766:800  revert(\"ECDSA: invalid signature\") */\n      mload(0x40)\n      0x08c379a000000000000000000000000000000000000000000000000000000000\n      dup2\n      mstore\n      0x04\n      add\n      tag_218\n      swap1\n      tag_219\n      jump\t// in\n    tag_218:\n      mload(0x40)\n      dup1\n      swap2\n      sub\n      swap1\n      revert\n        /* \"@openzeppelin/contracts/utils/cryptography/ECDSA.sol\":708:1173  if (error == RecoverError.InvalidSignature) {... */\n    tag_217:\n        /* \"@openzeppelin/contracts/utils/cryptography/ECDSA.sol\":830:865  RecoverError.InvalidSignatureLength */\n      0x02\n        /* \"@openzeppelin/contracts/utils/cryptography/ECDSA.sol\":821:865  error == RecoverError.InvalidSignatureLength */\n      0x04\n      dup2\n      gt\n      iszero\n      tag_221\n      jumpi\n      tag_222\n      tag_36\n      jump\t// in\n    tag_222:\n    tag_221:\n        /* \"@openzeppelin/contracts/utils/cryptography/ECDSA.sol\":821:826  error */\n      dup2\n        /* \"@openzeppelin/contracts/utils/cryptography/ECDSA.sol\":821:865  error == RecoverError.InvalidSignatureLength */\n      0x04\n      dup2\n      gt\n      iszero\n      tag_223\n      jumpi\n      tag_224\n      tag_36\n      jump\t// in\n    tag_224:\n    tag_223:\n      eq\n        /* \"@openzeppelin/contracts/utils/cryptography/ECDSA.sol\":817:1173  if (error == RecoverError.InvalidSignatureLength) {... */\n      iszero\n      tag_225\n      jumpi\n        /* \"@openzeppelin/contracts/utils/cryptography/ECDSA.sol\":881:922  revert(\"ECDSA: invalid signature length\") */\n      mload(0x40)\n      0x08c379a000000000000000000000000000000000000000000000000000000000\n      dup2\n      mstore\n      0x04\n      add\n      tag_226\n      swap1\n      tag_227\n      jump\t// in\n    tag_226:\n      mload(0x40)\n      dup1\n      swap2\n      sub\n      swap1\n      revert\n        /* \"@openzeppelin/contracts/utils/cryptography/ECDSA.sol\":817:1173  if (error == RecoverError.InvalidSignatureLength) {... */\n    tag_225:\n        /* \"@openzeppelin/contracts/utils/cryptography/ECDSA.sol\":952:982  RecoverError.InvalidSignatureS */\n      0x03\n        /* \"@openzeppelin/contracts/utils/cryptography/ECDSA.sol\":943:982  error == RecoverError.InvalidSignatureS */\n      0x04\n      dup2\n      gt\n      iszero\n      tag_229\n      jumpi\n      tag_230\n      tag_36\n      jump\t// in\n    tag_230:\n    tag_229:\n        /* \"@openzeppelin/contracts/utils/cryptography/ECDSA.sol\":943:948  error */\n      dup2\n        /* \"@openzeppelin/contracts/utils/cryptography/ECDSA.sol\":943:982  error == RecoverError.InvalidSignatureS */\n      0x04\n      dup2\n      gt\n      iszero\n      tag_231\n      jumpi\n      tag_232\n      tag_36\n      jump\t// in\n    tag_232:\n    tag_231:\n      eq\n        /* \"@openzeppelin/contracts/utils/cryptography/ECDSA.sol\":939:1173  if (error == RecoverError.InvalidSignatureS) {... */\n      iszero\n      tag_233\n      jumpi\n        /* \"@openzeppelin/contracts/utils/cryptography/ECDSA.sol\":998:1042  revert(\"ECDSA: invalid signature 's' value\") */\n      mload(0x40)\n      0x08c379a000000000000000000000000000000000000000000000000000000000\n      dup2\n      mstore\n      0x04\n      add\n      tag_234\n      swap1\n      tag_235\n      jump\t// in\n    tag_234:\n      mload(0x40)\n      dup1\n      swap2\n      sub\n      swap1\n      revert\n        /* \"@openzeppelin/contracts/utils/cryptography/ECDSA.sol\":939:1173  if (error == RecoverError.InvalidSignatureS) {... */\n    tag_233:\n        /* \"@openzeppelin/contracts/utils/cryptography/ECDSA.sol\":1072:1102  RecoverError.InvalidSignatureV */\n      0x04\n        /* \"@openzeppelin/contracts/utils/cryptography/ECDSA.sol\":1063:1102  error == RecoverError.InvalidSignatureV */\n      dup1\n      dup2\n      gt\n      iszero\n      tag_237\n      jumpi\n      tag_238\n      tag_36\n      jump\t// in\n    tag_238:\n    tag_237:\n        /* \"@openzeppelin/contracts/utils/cryptography/ECDSA.sol\":1063:1068  error */\n      dup2\n        /* \"@openzeppelin/contracts/utils/cryptography/ECDSA.sol\":1063:1102  error == RecoverError.InvalidSignatureV */\n      0x04\n      dup2\n      gt\n      iszero\n      tag_239\n      jumpi\n      tag_240\n      tag_36\n      jump\t// in\n    tag_240:\n    tag_239:\n      eq\n        /* \"@openzeppelin/contracts/utils/cryptography/ECDSA.sol\":1059:1173  if (error == RecoverError.InvalidSignatureV) {... */\n      iszero\n      tag_241\n      jumpi\n        /* \"@openzeppelin/contracts/utils/cryptography/ECDSA.sol\":1118:1162  revert(\"ECDSA: invalid signature 'v' value\") */\n      mload(0x40)\n      0x08c379a000000000000000000000000000000000000000000000000000000000\n      dup2\n      mstore\n      0x04\n      add\n      tag_242\n      swap1\n      tag_243\n      jump\t// in\n    tag_242:\n      mload(0x40)\n      dup1\n      swap2\n      sub\n      swap1\n      revert\n        /* \"@openzeppelin/contracts/utils/cryptography/ECDSA.sol\":1059:1173  if (error == RecoverError.InvalidSignatureV) {... */\n    tag_241:\n        /* \"@openzeppelin/contracts/utils/cryptography/ECDSA.sol\":548:1179  function _throwError(RecoverError error) private pure {... */\n    tag_206:\n      pop\n      jump\t// out\n        /* \"@openzeppelin/contracts/utils/cryptography/ECDSA.sol\":5810:7413  function tryRecover(... */\n    tag_200:\n        /* \"@openzeppelin/contracts/utils/cryptography/ECDSA.sol\":5936:5943  address */\n      0x00\n        /* \"@openzeppelin/contracts/utils/cryptography/ECDSA.sol\":5945:5957  RecoverError */\n      dup1\n        /* \"@openzeppelin/contracts/utils/cryptography/ECDSA.sol\":6860:6926  0x7FFFFFFFFFFFFFFFFFFFFFFFFFFFFFFF5D576E7357A4501DDFE92F46681B20A0 */\n      0x7fffffffffffffffffffffffffffffff5d576e7357a4501ddfe92f46681b20a0\n        /* \"@openzeppelin/contracts/utils/cryptography/ECDSA.sol\":6855:6856  s */\n      dup4\n        /* \"@openzeppelin/contracts/utils/cryptography/ECDSA.sol\":6847:6857  uint256(s) */\n      0x00\n      shr\n        /* \"@openzeppelin/contracts/utils/cryptography/ECDSA.sol\":6847:6926  uint256(s) > 0x7FFFFFFFFFFFFFFFFFFFFFFFFFFFFFFF5D576E7357A4501DDFE92F46681B20A0 */\n      gt\n        /* \"@openzeppelin/contracts/utils/cryptography/ECDSA.sol\":6843:7004  if (uint256(s) > 0x7FFFFFFFFFFFFFFFFFFFFFFFFFFFFFFF5D576E7357A4501DDFE92F46681B20A0) {... */\n      iszero\n      tag_245\n      jumpi\n        /* \"@openzeppelin/contracts/utils/cryptography/ECDSA.sol\":6958:6959  0 */\n      0x00\n        /* \"@openzeppelin/contracts/utils/cryptography/ECDSA.sol\":6962:6992  RecoverError.InvalidSignatureS */\n      0x03\n        /* \"@openzeppelin/contracts/utils/cryptography/ECDSA.sol\":6942:6993  return (address(0), RecoverError.InvalidSignatureS) */\n      swap2\n      pop\n      swap2\n      pop\n      jump(tag_244)\n        /* \"@openzeppelin/contracts/utils/cryptography/ECDSA.sol\":6843:7004  if (uint256(s) > 0x7FFFFFFFFFFFFFFFFFFFFFFFFFFFFFFF5D576E7357A4501DDFE92F46681B20A0) {... */\n    tag_245:\n        /* \"@openzeppelin/contracts/utils/cryptography/ECDSA.sol\":7022:7024  27 */\n      0x1b\n        /* \"@openzeppelin/contracts/utils/cryptography/ECDSA.sol\":7017:7018  v */\n      dup6\n        /* \"@openzeppelin/contracts/utils/cryptography/ECDSA.sol\":7017:7024  v != 27 */\n      0xff\n      and\n      eq\n      iszero\n        /* \"@openzeppelin/contracts/utils/cryptography/ECDSA.sol\":7017:7035  v != 27 && v != 28 */\n      dup1\n      iszero\n      tag_246\n      jumpi\n      pop\n        /* \"@openzeppelin/contracts/utils/cryptography/ECDSA.sol\":7033:7035  28 */\n      0x1c\n        /* \"@openzeppelin/contracts/utils/cryptography/ECDSA.sol\":7028:7029  v */\n      dup6\n        /* \"@openzeppelin/contracts/utils/cryptography/ECDSA.sol\":7028:7035  v != 28 */\n      0xff\n      and\n      eq\n      iszero\n        /* \"@openzeppelin/contracts/utils/cryptography/ECDSA.sol\":7017:7035  v != 27 && v != 28 */\n    tag_246:\n        /* \"@openzeppelin/contracts/utils/cryptography/ECDSA.sol\":7013:7113  if (v != 27 && v != 28) {... */\n      iszero\n      tag_247\n      jumpi\n        /* \"@openzeppelin/contracts/utils/cryptography/ECDSA.sol\":7067:7068  0 */\n      0x00\n        /* \"@openzeppelin/contracts/utils/cryptography/ECDSA.sol\":7071:7101  RecoverError.InvalidSignatureV */\n      0x04\n        /* \"@openzeppelin/contracts/utils/cryptography/ECDSA.sol\":7051:7102  return (address(0), RecoverError.InvalidSignatureV) */\n      swap2\n      pop\n      swap2\n      pop\n      jump(tag_244)\n        /* \"@openzeppelin/contracts/utils/cryptography/ECDSA.sol\":7013:7113  if (v != 27 && v != 28) {... */\n    tag_247:\n        /* \"@openzeppelin/contracts/utils/cryptography/ECDSA.sol\":7207:7221  address signer */\n      0x00\n        /* \"@openzeppelin/contracts/utils/cryptography/ECDSA.sol\":7224:7248  ecrecover(hash, v, r, s) */\n      0x01\n        /* \"@openzeppelin/contracts/utils/cryptography/ECDSA.sol\":7234:7238  hash */\n      dup8\n        /* \"@openzeppelin/contracts/utils/cryptography/ECDSA.sol\":7240:7241  v */\n      dup8\n        /* \"@openzeppelin/contracts/utils/cryptography/ECDSA.sol\":7243:7244  r */\n      dup8\n        /* \"@openzeppelin/contracts/utils/cryptography/ECDSA.sol\":7246:7247  s */\n      dup8\n        /* \"@openzeppelin/contracts/utils/cryptography/ECDSA.sol\":7224:7248  ecrecover(hash, v, r, s) */\n      mload(0x40)\n      0x00\n      dup2\n      mstore\n      0x20\n      add\n      0x40\n      mstore\n      mload(0x40)\n      tag_248\n      swap5\n      swap4\n      swap3\n      swap2\n      swap1\n      tag_249\n      jump\t// in\n    tag_248:\n      0x20\n      mload(0x40)\n      0x20\n      dup2\n      sub\n      swap1\n      dup1\n      dup5\n      sub\n      swap1\n      dup6\n      gas\n      staticcall\n      iszero\n      dup1\n      iszero\n      tag_251\n      jumpi\n      returndatasize\n      0x00\n      dup1\n      returndatacopy\n      revert(0x00, returndatasize)\n    tag_251:\n      pop\n      pop\n      pop\n      mload(sub(mload(0x40), 0x20))\n        /* \"@openzeppelin/contracts/utils/cryptography/ECDSA.sol\":7207:7248  address signer = ecrecover(hash, v, r, s) */\n      swap1\n      pop\n        /* \"@openzeppelin/contracts/utils/cryptography/ECDSA.sol\":7280:7281  0 */\n      0x00\n        /* \"@openzeppelin/contracts/utils/cryptography/ECDSA.sol\":7262:7282  signer == address(0) */\n      0xffffffffffffffffffffffffffffffffffffffff\n      and\n        /* \"@openzeppelin/contracts/utils/cryptography/ECDSA.sol\":7262:7268  signer */\n      dup2\n        /* \"@openzeppelin/contracts/utils/cryptography/ECDSA.sol\":7262:7282  signer == address(0) */\n      0xffffffffffffffffffffffffffffffffffffffff\n      and\n      eq\n        /* \"@openzeppelin/contracts/utils/cryptography/ECDSA.sol\":7258:7359  if (signer == address(0)) {... */\n      iszero\n      tag_252\n      jumpi\n        /* \"@openzeppelin/contracts/utils/cryptography/ECDSA.sol\":7314:7315  0 */\n      0x00\n        /* \"@openzeppelin/contracts/utils/cryptography/ECDSA.sol\":7318:7347  RecoverError.InvalidSignature */\n      0x01\n        /* \"@openzeppelin/contracts/utils/cryptography/ECDSA.sol\":7298:7348  return (address(0), RecoverError.InvalidSignature) */\n      swap3\n      pop\n      swap3\n      pop\n      pop\n      jump(tag_244)\n        /* \"@openzeppelin/contracts/utils/cryptography/ECDSA.sol\":7258:7359  if (signer == address(0)) {... */\n    tag_252:\n        /* \"@openzeppelin/contracts/utils/cryptography/ECDSA.sol\":7377:7383  signer */\n      dup1\n        /* \"@openzeppelin/contracts/utils/cryptography/ECDSA.sol\":7385:7405  RecoverError.NoError */\n      0x00\n        /* \"@openzeppelin/contracts/utils/cryptography/ECDSA.sol\":7369:7406  return (signer, RecoverError.NoError) */\n      swap3\n      pop\n      swap3\n      pop\n      pop\n        /* \"@openzeppelin/contracts/utils/cryptography/ECDSA.sol\":5810:7413  function tryRecover(... */\n    tag_244:\n      swap5\n      pop\n      swap5\n      swap3\n      pop\n      pop\n      pop\n      jump\t// out\n        /* \"@openzeppelin/contracts/utils/cryptography/ECDSA.sol\":4883:5219  function tryRecover(... */\n    tag_204:\n        /* \"@openzeppelin/contracts/utils/cryptography/ECDSA.sol\":4993:5000  address */\n      0x00\n        /* \"@openzeppelin/contracts/utils/cryptography/ECDSA.sol\":5002:5014  RecoverError */\n      dup1\n        /* \"@openzeppelin/contracts/utils/cryptography/ECDSA.sol\":5026:5035  bytes32 s */\n      0x00\n        /* \"@openzeppelin/contracts/utils/cryptography/ECDSA.sol\":5051:5117  0x7fffffffffffffffffffffffffffffffffffffffffffffffffffffffffffffff */\n      0x7fffffffffffffffffffffffffffffffffffffffffffffffffffffffffffffff\n        /* \"@openzeppelin/contracts/utils/cryptography/ECDSA.sol\":5043:5118  bytes32(0x7fffffffffffffffffffffffffffffffffffffffffffffffffffffffffffffff) */\n      0x00\n      shl\n        /* \"@openzeppelin/contracts/utils/cryptography/ECDSA.sol\":5038:5040  vs */\n      dup5\n        /* \"@openzeppelin/contracts/utils/cryptography/ECDSA.sol\":5038:5118  vs & bytes32(0x7fffffffffffffffffffffffffffffffffffffffffffffffffffffffffffffff) */\n      and\n        /* \"@openzeppelin/contracts/utils/cryptography/ECDSA.sol\":5026:5118  bytes32 s = vs & bytes32(0x7fffffffffffffffffffffffffffffffffffffffffffffffffffffffffffffff) */\n      swap1\n      pop\n        /* \"@openzeppelin/contracts/utils/cryptography/ECDSA.sol\":5128:5135  uint8 v */\n      0x00\n        /* \"@openzeppelin/contracts/utils/cryptography/ECDSA.sol\":5167:5169  27 */\n      0x1b\n        /* \"@openzeppelin/contracts/utils/cryptography/ECDSA.sol\":5160:5163  255 */\n      0xff\n        /* \"@openzeppelin/contracts/utils/cryptography/ECDSA.sol\":5153:5155  vs */\n      dup7\n        /* \"@openzeppelin/contracts/utils/cryptography/ECDSA.sol\":5145:5156  uint256(vs) */\n      0x00\n      shr\n        /* \"@openzeppelin/contracts/utils/cryptography/ECDSA.sol\":5145:5163  uint256(vs) >> 255 */\n      swap1\n      shr\n        /* \"@openzeppelin/contracts/utils/cryptography/ECDSA.sol\":5144:5169  (uint256(vs) >> 255) + 27 */\n      tag_254\n      swap2\n      swap1\n      tag_80\n      jump\t// in\n    tag_254:\n        /* \"@openzeppelin/contracts/utils/cryptography/ECDSA.sol\":5128:5170  uint8 v = uint8((uint256(vs) >> 255) + 27) */\n      swap1\n      pop\n        /* \"@openzeppelin/contracts/utils/cryptography/ECDSA.sol\":5187:5212  tryRecover(hash, v, r, s) */\n      tag_255\n        /* \"@openzeppelin/contracts/utils/cryptography/ECDSA.sol\":5198:5202  hash */\n      dup8\n        /* \"@openzeppelin/contracts/utils/cryptography/ECDSA.sol\":5204:5205  v */\n      dup3\n        /* \"@openzeppelin/contracts/utils/cryptography/ECDSA.sol\":5207:5208  r */\n      dup9\n        /* \"@openzeppelin/contracts/utils/cryptography/ECDSA.sol\":5210:5211  s */\n      dup6\n        /* \"@openzeppelin/contracts/utils/cryptography/ECDSA.sol\":5187:5197  tryRecover */\n      tag_200\n        /* \"@openzeppelin/contracts/utils/cryptography/ECDSA.sol\":5187:5212  tryRecover(hash, v, r, s) */\n      jump\t// in\n    tag_255:\n        /* \"@openzeppelin/contracts/utils/cryptography/ECDSA.sol\":5180:5212  return tryRecover(hash, v, r, s) */\n      swap4\n      pop\n      swap4\n      pop\n      pop\n      pop\n        /* \"@openzeppelin/contracts/utils/cryptography/ECDSA.sol\":4883:5219  function tryRecover(... */\n      swap4\n      pop\n      swap4\n      swap2\n      pop\n      pop\n      jump\t// out\n        /* \"#utility.yul\":7:417   */\n    tag_257:\n        /* \"#utility.yul\":84:89   */\n      0x00\n        /* \"#utility.yul\":109:174   */\n      tag_259\n        /* \"#utility.yul\":125:173   */\n      tag_260\n        /* \"#utility.yul\":166:172   */\n      dup5\n        /* \"#utility.yul\":125:173   */\n      tag_261\n      jump\t// in\n    tag_260:\n        /* \"#utility.yul\":109:174   */\n      tag_262\n      jump\t// in\n    tag_259:\n        /* \"#utility.yul\":100:174   */\n      swap1\n      pop\n        /* \"#utility.yul\":197:203   */\n      dup3\n        /* \"#utility.yul\":190:195   */\n      dup2\n        /* \"#utility.yul\":183:204   */\n      mstore\n        /* \"#utility.yul\":235:239   */\n      0x20\n        /* \"#utility.yul\":228:233   */\n      dup2\n        /* \"#utility.yul\":224:240   */\n      add\n        /* \"#utility.yul\":273:276   */\n      dup5\n        /* \"#utility.yul\":264:270   */\n      dup5\n        /* \"#utility.yul\":259:262   */\n      dup5\n        /* \"#utility.yul\":255:271   */\n      add\n        /* \"#utility.yul\":252:277   */\n      gt\n        /* \"#utility.yul\":249:251   */\n      iszero\n      tag_263\n      jumpi\n        /* \"#utility.yul\":280:359   */\n      tag_264\n      tag_265\n      jump\t// in\n    tag_264:\n        /* \"#utility.yul\":249:251   */\n    tag_263:\n        /* \"#utility.yul\":370:411   */\n      tag_266\n        /* \"#utility.yul\":404:410   */\n      dup5\n        /* \"#utility.yul\":399:402   */\n      dup3\n        /* \"#utility.yul\":394:397   */\n      dup6\n        /* \"#utility.yul\":370:411   */\n      tag_267\n      jump\t// in\n    tag_266:\n        /* \"#utility.yul\":90:417   */\n      pop\n      swap4\n      swap3\n      pop\n      pop\n      pop\n      jump\t// out\n        /* \"#utility.yul\":423:562   */\n    tag_268:\n        /* \"#utility.yul\":469:474   */\n      0x00\n        /* \"#utility.yul\":507:513   */\n      dup2\n        /* \"#utility.yul\":494:514   */\n      calldataload\n        /* \"#utility.yul\":485:514   */\n      swap1\n      pop\n        /* \"#utility.yul\":523:556   */\n      tag_270\n        /* \"#utility.yul\":550:555   */\n      dup2\n        /* \"#utility.yul\":523:556   */\n      tag_271\n      jump\t// in\n    tag_270:\n        /* \"#utility.yul\":475:562   */\n      swap3\n      swap2\n      pop\n      pop\n      jump\t// out\n        /* \"#utility.yul\":568:705   */\n    tag_272:\n        /* \"#utility.yul\":622:627   */\n      0x00\n        /* \"#utility.yul\":653:659   */\n      dup2\n        /* \"#utility.yul\":647:660   */\n      mload\n        /* \"#utility.yul\":638:660   */\n      swap1\n      pop\n        /* \"#utility.yul\":669:699   */\n      tag_274\n        /* \"#utility.yul\":693:698   */\n      dup2\n        /* \"#utility.yul\":669:699   */\n      tag_275\n      jump\t// in\n    tag_274:\n        /* \"#utility.yul\":628:705   */\n      swap3\n      swap2\n      pop\n      pop\n      jump\t// out\n        /* \"#utility.yul\":711:850   */\n    tag_276:\n        /* \"#utility.yul\":757:762   */\n      0x00\n        /* \"#utility.yul\":795:801   */\n      dup2\n        /* \"#utility.yul\":782:802   */\n      calldataload\n        /* \"#utility.yul\":773:802   */\n      swap1\n      pop\n        /* \"#utility.yul\":811:844   */\n      tag_278\n        /* \"#utility.yul\":838:843   */\n      dup2\n        /* \"#utility.yul\":811:844   */\n      tag_279\n      jump\t// in\n    tag_278:\n        /* \"#utility.yul\":763:850   */\n      swap3\n      swap2\n      pop\n      pop\n      jump\t// out\n        /* \"#utility.yul\":869:1207   */\n    tag_280:\n        /* \"#utility.yul\":924:929   */\n      0x00\n        /* \"#utility.yul\":973:976   */\n      dup3\n        /* \"#utility.yul\":966:970   */\n      0x1f\n        /* \"#utility.yul\":958:964   */\n      dup4\n        /* \"#utility.yul\":954:971   */\n      add\n        /* \"#utility.yul\":950:977   */\n      slt\n        /* \"#utility.yul\":940:942   */\n      tag_282\n      jumpi\n        /* \"#utility.yul\":981:1060   */\n      tag_283\n      tag_284\n      jump\t// in\n    tag_283:\n        /* \"#utility.yul\":940:942   */\n    tag_282:\n        /* \"#utility.yul\":1098:1104   */\n      dup2\n        /* \"#utility.yul\":1085:1105   */\n      calldataload\n        /* \"#utility.yul\":1123:1201   */\n      tag_285\n        /* \"#utility.yul\":1197:1200   */\n      dup5\n        /* \"#utility.yul\":1189:1195   */\n      dup3\n        /* \"#utility.yul\":1182:1186   */\n      0x20\n        /* \"#utility.yul\":1174:1180   */\n      dup7\n        /* \"#utility.yul\":1170:1187   */\n      add\n        /* \"#utility.yul\":1123:1201   */\n      tag_257\n      jump\t// in\n    tag_285:\n        /* \"#utility.yul\":1114:1201   */\n      swap2\n      pop\n        /* \"#utility.yul\":930:1207   */\n      pop\n      swap3\n      swap2\n      pop\n      pop\n      jump\t// out\n        /* \"#utility.yul\":1213:1352   */\n    tag_286:\n        /* \"#utility.yul\":1259:1264   */\n      0x00\n        /* \"#utility.yul\":1297:1303   */\n      dup2\n        /* \"#utility.yul\":1284:1304   */\n      calldataload\n        /* \"#utility.yul\":1275:1304   */\n      swap1\n      pop\n        /* \"#utility.yul\":1313:1346   */\n      tag_288\n        /* \"#utility.yul\":1340:1345   */\n      dup2\n        /* \"#utility.yul\":1313:1346   */\n      tag_289\n      jump\t// in\n    tag_288:\n        /* \"#utility.yul\":1265:1352   */\n      swap3\n      swap2\n      pop\n      pop\n      jump\t// out\n        /* \"#utility.yul\":1358:2123   */\n    tag_27:\n        /* \"#utility.yul\":1444:1450   */\n      0x00\n        /* \"#utility.yul\":1452:1458   */\n      dup1\n        /* \"#utility.yul\":1460:1466   */\n      0x00\n        /* \"#utility.yul\":1468:1474   */\n      dup1\n        /* \"#utility.yul\":1517:1520   */\n      0x80\n        /* \"#utility.yul\":1505:1514   */\n      dup6\n        /* \"#utility.yul\":1496:1503   */\n      dup8\n        /* \"#utility.yul\":1492:1515   */\n      sub\n        /* \"#utility.yul\":1488:1521   */\n      slt\n        /* \"#utility.yul\":1485:1487   */\n      iszero\n      tag_291\n      jumpi\n        /* \"#utility.yul\":1524:1603   */\n      tag_292\n      tag_293\n      jump\t// in\n    tag_292:\n        /* \"#utility.yul\":1485:1487   */\n    tag_291:\n        /* \"#utility.yul\":1644:1645   */\n      0x00\n        /* \"#utility.yul\":1669:1722   */\n      tag_294\n        /* \"#utility.yul\":1714:1721   */\n      dup8\n        /* \"#utility.yul\":1705:1711   */\n      dup3\n        /* \"#utility.yul\":1694:1703   */\n      dup9\n        /* \"#utility.yul\":1690:1712   */\n      add\n        /* \"#utility.yul\":1669:1722   */\n      tag_268\n      jump\t// in\n    tag_294:\n        /* \"#utility.yul\":1659:1722   */\n      swap5\n      pop\n        /* \"#utility.yul\":1615:1732   */\n      pop\n        /* \"#utility.yul\":1771:1773   */\n      0x20\n        /* \"#utility.yul\":1797:1850   */\n      tag_295\n        /* \"#utility.yul\":1842:1849   */\n      dup8\n        /* \"#utility.yul\":1833:1839   */\n      dup3\n        /* \"#utility.yul\":1822:1831   */\n      dup9\n        /* \"#utility.yul\":1818:1840   */\n      add\n        /* \"#utility.yul\":1797:1850   */\n      tag_268\n      jump\t// in\n    tag_295:\n        /* \"#utility.yul\":1787:1850   */\n      swap4\n      pop\n        /* \"#utility.yul\":1742:1860   */\n      pop\n        /* \"#utility.yul\":1899:1901   */\n      0x40\n        /* \"#utility.yul\":1925:1978   */\n      tag_296\n        /* \"#utility.yul\":1970:1977   */\n      dup8\n        /* \"#utility.yul\":1961:1967   */\n      dup3\n        /* \"#utility.yul\":1950:1959   */\n      dup9\n        /* \"#utility.yul\":1946:1968   */\n      add\n        /* \"#utility.yul\":1925:1978   */\n      tag_286\n      jump\t// in\n    tag_296:\n        /* \"#utility.yul\":1915:1978   */\n      swap3\n      pop\n        /* \"#utility.yul\":1870:1988   */\n      pop\n        /* \"#utility.yul\":2027:2029   */\n      0x60\n        /* \"#utility.yul\":2053:2106   */\n      tag_297\n        /* \"#utility.yul\":2098:2105   */\n      dup8\n        /* \"#utility.yul\":2089:2095   */\n      dup3\n        /* \"#utility.yul\":2078:2087   */\n      dup9\n        /* \"#utility.yul\":2074:2096   */\n      add\n        /* \"#utility.yul\":2053:2106   */\n      tag_286\n      jump\t// in\n    tag_297:\n        /* \"#utility.yul\":2043:2106   */\n      swap2\n      pop\n        /* \"#utility.yul\":1998:2116   */\n      pop\n        /* \"#utility.yul\":1475:2123   */\n      swap3\n      swap6\n      swap2\n      swap5\n      pop\n      swap3\n      pop\n      jump\t// out\n        /* \"#utility.yul\":2129:2474   */\n    tag_172:\n        /* \"#utility.yul\":2196:2202   */\n      0x00\n        /* \"#utility.yul\":2245:2247   */\n      0x20\n        /* \"#utility.yul\":2233:2242   */\n      dup3\n        /* \"#utility.yul\":2224:2231   */\n      dup5\n        /* \"#utility.yul\":2220:2243   */\n      sub\n        /* \"#utility.yul\":2216:2248   */\n      slt\n        /* \"#utility.yul\":2213:2215   */\n      iszero\n      tag_299\n      jumpi\n        /* \"#utility.yul\":2251:2330   */\n      tag_300\n      tag_293\n      jump\t// in\n    tag_300:\n        /* \"#utility.yul\":2213:2215   */\n    tag_299:\n        /* \"#utility.yul\":2371:2372   */\n      0x00\n        /* \"#utility.yul\":2396:2457   */\n      tag_301\n        /* \"#utility.yul\":2449:2456   */\n      dup5\n        /* \"#utility.yul\":2440:2446   */\n      dup3\n        /* \"#utility.yul\":2429:2438   */\n      dup6\n        /* \"#utility.yul\":2425:2447   */\n      add\n        /* \"#utility.yul\":2396:2457   */\n      tag_272\n      jump\t// in\n    tag_301:\n        /* \"#utility.yul\":2386:2457   */\n      swap2\n      pop\n        /* \"#utility.yul\":2342:2467   */\n      pop\n        /* \"#utility.yul\":2203:2474   */\n      swap3\n      swap2\n      pop\n      pop\n      jump\t// out\n        /* \"#utility.yul\":2480:2809   */\n    tag_21:\n        /* \"#utility.yul\":2539:2545   */\n      0x00\n        /* \"#utility.yul\":2588:2590   */\n      0x20\n        /* \"#utility.yul\":2576:2585   */\n      dup3\n        /* \"#utility.yul\":2567:2574   */\n      dup5\n        /* \"#utility.yul\":2563:2586   */\n      sub\n        /* \"#utility.yul\":2559:2591   */\n      slt\n        /* \"#utility.yul\":2556:2558   */\n      iszero\n      tag_303\n      jumpi\n        /* \"#utility.yul\":2594:2673   */\n      tag_304\n      tag_293\n      jump\t// in\n    tag_304:\n        /* \"#utility.yul\":2556:2558   */\n    tag_303:\n        /* \"#utility.yul\":2714:2715   */\n      0x00\n        /* \"#utility.yul\":2739:2792   */\n      tag_305\n        /* \"#utility.yul\":2784:2791   */\n      dup5\n        /* \"#utility.yul\":2775:2781   */\n      dup3\n        /* \"#utility.yul\":2764:2773   */\n      dup6\n        /* \"#utility.yul\":2760:2782   */\n      add\n        /* \"#utility.yul\":2739:2792   */\n      tag_276\n      jump\t// in\n    tag_305:\n        /* \"#utility.yul\":2729:2792   */\n      swap2\n      pop\n        /* \"#utility.yul\":2685:2802   */\n      pop\n        /* \"#utility.yul\":2546:2809   */\n      swap3\n      swap2\n      pop\n      pop\n      jump\t// out\n        /* \"#utility.yul\":2815:3289   */\n    tag_17:\n        /* \"#utility.yul\":2883:2889   */\n      0x00\n        /* \"#utility.yul\":2891:2897   */\n      dup1\n        /* \"#utility.yul\":2940:2942   */\n      0x40\n        /* \"#utility.yul\":2928:2937   */\n      dup4\n        /* \"#utility.yul\":2919:2926   */\n      dup6\n        /* \"#utility.yul\":2915:2938   */\n      sub\n        /* \"#utility.yul\":2911:2943   */\n      slt\n        /* \"#utility.yul\":2908:2910   */\n      iszero\n      tag_307\n      jumpi\n        /* \"#utility.yul\":2946:3025   */\n      tag_308\n      tag_293\n      jump\t// in\n    tag_308:\n        /* \"#utility.yul\":2908:2910   */\n    tag_307:\n        /* \"#utility.yul\":3066:3067   */\n      0x00\n        /* \"#utility.yul\":3091:3144   */\n      tag_309\n        /* \"#utility.yul\":3136:3143   */\n      dup6\n        /* \"#utility.yul\":3127:3133   */\n      dup3\n        /* \"#utility.yul\":3116:3125   */\n      dup7\n        /* \"#utility.yul\":3112:3134   */\n      add\n        /* \"#utility.yul\":3091:3144   */\n      tag_276\n      jump\t// in\n    tag_309:\n        /* \"#utility.yul\":3081:3144   */\n      swap3\n      pop\n        /* \"#utility.yul\":3037:3154   */\n      pop\n        /* \"#utility.yul\":3193:3195   */\n      0x20\n        /* \"#utility.yul\":3219:3272   */\n      tag_310\n        /* \"#utility.yul\":3264:3271   */\n      dup6\n        /* \"#utility.yul\":3255:3261   */\n      dup3\n        /* \"#utility.yul\":3244:3253   */\n      dup7\n        /* \"#utility.yul\":3240:3262   */\n      add\n        /* \"#utility.yul\":3219:3272   */\n      tag_286\n      jump\t// in\n    tag_310:\n        /* \"#utility.yul\":3209:3272   */\n      swap2\n      pop\n        /* \"#utility.yul\":3164:3282   */\n      pop\n        /* \"#utility.yul\":2898:3289   */\n      swap3\n      pop\n      swap3\n      swap1\n      pop\n      jump\t// out\n        /* \"#utility.yul\":3295:4708   */\n    tag_10:\n        /* \"#utility.yul\":3417:3423   */\n      0x00\n        /* \"#utility.yul\":3425:3431   */\n      dup1\n        /* \"#utility.yul\":3433:3439   */\n      0x00\n        /* \"#utility.yul\":3441:3447   */\n      dup1\n        /* \"#utility.yul\":3449:3455   */\n      0x00\n        /* \"#utility.yul\":3457:3463   */\n      dup1\n        /* \"#utility.yul\":3506:3509   */\n      0xc0\n        /* \"#utility.yul\":3494:3503   */\n      dup8\n        /* \"#utility.yul\":3485:3492   */\n      dup10\n        /* \"#utility.yul\":3481:3504   */\n      sub\n        /* \"#utility.yul\":3477:3510   */\n      slt\n        /* \"#utility.yul\":3474:3476   */\n      iszero\n      tag_312\n      jumpi\n        /* \"#utility.yul\":3513:3592   */\n      tag_313\n      tag_293\n      jump\t// in\n    tag_313:\n        /* \"#utility.yul\":3474:3476   */\n    tag_312:\n        /* \"#utility.yul\":3633:3634   */\n      0x00\n        /* \"#utility.yul\":3658:3711   */\n      tag_314\n        /* \"#utility.yul\":3703:3710   */\n      dup10\n        /* \"#utility.yul\":3694:3700   */\n      dup3\n        /* \"#utility.yul\":3683:3692   */\n      dup11\n        /* \"#utility.yul\":3679:3701   */\n      add\n        /* \"#utility.yul\":3658:3711   */\n      tag_276\n      jump\t// in\n    tag_314:\n        /* \"#utility.yul\":3648:3711   */\n      swap7\n      pop\n        /* \"#utility.yul\":3604:3721   */\n      pop\n        /* \"#utility.yul\":3760:3762   */\n      0x20\n        /* \"#utility.yul\":3786:3839   */\n      tag_315\n        /* \"#utility.yul\":3831:3838   */\n      dup10\n        /* \"#utility.yul\":3822:3828   */\n      dup3\n        /* \"#utility.yul\":3811:3820   */\n      dup11\n        /* \"#utility.yul\":3807:3829   */\n      add\n        /* \"#utility.yul\":3786:3839   */\n      tag_286\n      jump\t// in\n    tag_315:\n        /* \"#utility.yul\":3776:3839   */\n      swap6\n      pop\n        /* \"#utility.yul\":3731:3849   */\n      pop\n        /* \"#utility.yul\":3888:3890   */\n      0x40\n        /* \"#utility.yul\":3914:3967   */\n      tag_316\n        /* \"#utility.yul\":3959:3966   */\n      dup10\n        /* \"#utility.yul\":3950:3956   */\n      dup3\n        /* \"#utility.yul\":3939:3948   */\n      dup11\n        /* \"#utility.yul\":3935:3957   */\n      add\n        /* \"#utility.yul\":3914:3967   */\n      tag_286\n      jump\t// in\n    tag_316:\n        /* \"#utility.yul\":3904:3967   */\n      swap5\n      pop\n        /* \"#utility.yul\":3859:3977   */\n      pop\n        /* \"#utility.yul\":4016:4018   */\n      0x60\n        /* \"#utility.yul\":4042:4095   */\n      tag_317\n        /* \"#utility.yul\":4087:4094   */\n      dup10\n        /* \"#utility.yul\":4078:4084   */\n      dup3\n        /* \"#utility.yul\":4067:4076   */\n      dup11\n        /* \"#utility.yul\":4063:4085   */\n      add\n        /* \"#utility.yul\":4042:4095   */\n      tag_286\n      jump\t// in\n    tag_317:\n        /* \"#utility.yul\":4032:4095   */\n      swap4\n      pop\n        /* \"#utility.yul\":3987:4105   */\n      pop\n        /* \"#utility.yul\":4172:4175   */\n      0x80\n        /* \"#utility.yul\":4161:4170   */\n      dup8\n        /* \"#utility.yul\":4157:4176   */\n      add\n        /* \"#utility.yul\":4144:4177   */\n      calldataload\n        /* \"#utility.yul\":4204:4222   */\n      0xffffffffffffffff\n        /* \"#utility.yul\":4196:4202   */\n      dup2\n        /* \"#utility.yul\":4193:4223   */\n      gt\n        /* \"#utility.yul\":4190:4192   */\n      iszero\n      tag_318\n      jumpi\n        /* \"#utility.yul\":4226:4305   */\n      tag_319\n      tag_320\n      jump\t// in\n    tag_319:\n        /* \"#utility.yul\":4190:4192   */\n    tag_318:\n        /* \"#utility.yul\":4331:4393   */\n      tag_321\n        /* \"#utility.yul\":4385:4392   */\n      dup10\n        /* \"#utility.yul\":4376:4382   */\n      dup3\n        /* \"#utility.yul\":4365:4374   */\n      dup11\n        /* \"#utility.yul\":4361:4383   */\n      add\n        /* \"#utility.yul\":4331:4393   */\n      tag_280\n      jump\t// in\n    tag_321:\n        /* \"#utility.yul\":4321:4393   */\n      swap3\n      pop\n        /* \"#utility.yul\":4115:4403   */\n      pop\n        /* \"#utility.yul\":4470:4473   */\n      0xa0\n        /* \"#utility.yul\":4459:4468   */\n      dup8\n        /* \"#utility.yul\":4455:4474   */\n      add\n        /* \"#utility.yul\":4442:4475   */\n      calldataload\n        /* \"#utility.yul\":4502:4520   */\n      0xffffffffffffffff\n        /* \"#utility.yul\":4494:4500   */\n      dup2\n        /* \"#utility.yul\":4491:4521   */\n      gt\n        /* \"#utility.yul\":4488:4490   */\n      iszero\n      tag_322\n      jumpi\n        /* \"#utility.yul\":4524:4603   */\n      tag_323\n      tag_320\n      jump\t// in\n    tag_323:\n        /* \"#utility.yul\":4488:4490   */\n    tag_322:\n        /* \"#utility.yul\":4629:4691   */\n      tag_324\n        /* \"#utility.yul\":4683:4690   */\n      dup10\n        /* \"#utility.yul\":4674:4680   */\n      dup3\n        /* \"#utility.yul\":4663:4672   */\n      dup11\n        /* \"#utility.yul\":4659:4681   */\n      add\n        /* \"#utility.yul\":4629:4691   */\n      tag_280\n      jump\t// in\n    tag_324:\n        /* \"#utility.yul\":4619:4691   */\n      swap2\n      pop\n        /* \"#utility.yul\":4413:4701   */\n      pop\n        /* \"#utility.yul\":3464:4708   */\n      swap3\n      swap6\n      pop\n      swap3\n      swap6\n      pop\n      swap3\n      swap6\n      jump\t// out\n        /* \"#utility.yul\":4714:4832   */\n    tag_325:\n        /* \"#utility.yul\":4801:4825   */\n      tag_327\n        /* \"#utility.yul\":4819:4824   */\n      dup2\n        /* \"#utility.yul\":4801:4825   */\n      tag_328\n      jump\t// in\n    tag_327:\n        /* \"#utility.yul\":4796:4799   */\n      dup3\n        /* \"#utility.yul\":4789:4826   */\n      mstore\n        /* \"#utility.yul\":4779:4832   */\n      pop\n      pop\n      jump\t// out\n        /* \"#utility.yul\":4838:4995   */\n    tag_329:\n        /* \"#utility.yul\":4943:4988   */\n      tag_331\n        /* \"#utility.yul\":4963:4987   */\n      tag_332\n        /* \"#utility.yul\":4981:4986   */\n      dup3\n        /* \"#utility.yul\":4963:4987   */\n      tag_328\n      jump\t// in\n    tag_332:\n        /* \"#utility.yul\":4943:4988   */\n      tag_333\n      jump\t// in\n    tag_331:\n        /* \"#utility.yul\":4938:4941   */\n      dup3\n        /* \"#utility.yul\":4931:4989   */\n      mstore\n        /* \"#utility.yul\":4921:4995   */\n      pop\n      pop\n      jump\t// out\n        /* \"#utility.yul\":5001:5119   */\n    tag_334:\n        /* \"#utility.yul\":5088:5112   */\n      tag_336\n        /* \"#utility.yul\":5106:5111   */\n      dup2\n        /* \"#utility.yul\":5088:5112   */\n      tag_337\n      jump\t// in\n    tag_336:\n        /* \"#utility.yul\":5083:5086   */\n      dup3\n        /* \"#utility.yul\":5076:5113   */\n      mstore\n        /* \"#utility.yul\":5066:5119   */\n      pop\n      pop\n      jump\t// out\n        /* \"#utility.yul\":5125:5282   */\n    tag_338:\n        /* \"#utility.yul\":5230:5275   */\n      tag_340\n        /* \"#utility.yul\":5250:5274   */\n      tag_341\n        /* \"#utility.yul\":5268:5273   */\n      dup3\n        /* \"#utility.yul\":5250:5274   */\n      tag_337\n      jump\t// in\n    tag_341:\n        /* \"#utility.yul\":5230:5275   */\n      tag_342\n      jump\t// in\n    tag_340:\n        /* \"#utility.yul\":5225:5228   */\n      dup3\n        /* \"#utility.yul\":5218:5276   */\n      mstore\n        /* \"#utility.yul\":5208:5282   */\n      pop\n      pop\n      jump\t// out\n        /* \"#utility.yul\":5288:5449   */\n    tag_343:\n        /* \"#utility.yul\":5390:5442   */\n      tag_345\n        /* \"#utility.yul\":5436:5441   */\n      dup2\n        /* \"#utility.yul\":5390:5442   */\n      tag_346\n      jump\t// in\n    tag_345:\n        /* \"#utility.yul\":5385:5388   */\n      dup3\n        /* \"#utility.yul\":5378:5443   */\n      mstore\n        /* \"#utility.yul\":5368:5449   */\n      pop\n      pop\n      jump\t// out\n        /* \"#utility.yul\":5455:5821   */\n    tag_347:\n        /* \"#utility.yul\":5597:5600   */\n      0x00\n        /* \"#utility.yul\":5618:5685   */\n      tag_349\n        /* \"#utility.yul\":5682:5684   */\n      0x18\n        /* \"#utility.yul\":5677:5680   */\n      dup4\n        /* \"#utility.yul\":5618:5685   */\n      tag_350\n      jump\t// in\n    tag_349:\n        /* \"#utility.yul\":5611:5685   */\n      swap2\n      pop\n        /* \"#utility.yul\":5694:5787   */\n      tag_351\n        /* \"#utility.yul\":5783:5786   */\n      dup3\n        /* \"#utility.yul\":5694:5787   */\n      tag_352\n      jump\t// in\n    tag_351:\n        /* \"#utility.yul\":5812:5814   */\n      0x20\n        /* \"#utility.yul\":5807:5810   */\n      dup3\n        /* \"#utility.yul\":5803:5815   */\n      add\n        /* \"#utility.yul\":5796:5815   */\n      swap1\n      pop\n        /* \"#utility.yul\":5601:5821   */\n      swap2\n      swap1\n      pop\n      jump\t// out\n        /* \"#utility.yul\":5827:6193   */\n    tag_353:\n        /* \"#utility.yul\":5969:5972   */\n      0x00\n        /* \"#utility.yul\":5990:6057   */\n      tag_355\n        /* \"#utility.yul\":6054:6056   */\n      0x25\n        /* \"#utility.yul\":6049:6052   */\n      dup4\n        /* \"#utility.yul\":5990:6057   */\n      tag_350\n      jump\t// in\n    tag_355:\n        /* \"#utility.yul\":5983:6057   */\n      swap2\n      pop\n        /* \"#utility.yul\":6066:6159   */\n      tag_356\n        /* \"#utility.yul\":6155:6158   */\n      dup3\n        /* \"#utility.yul\":6066:6159   */\n      tag_357\n      jump\t// in\n    tag_356:\n        /* \"#utility.yul\":6184:6186   */\n      0x40\n        /* \"#utility.yul\":6179:6182   */\n      dup3\n        /* \"#utility.yul\":6175:6187   */\n      add\n        /* \"#utility.yul\":6168:6187   */\n      swap1\n      pop\n        /* \"#utility.yul\":5973:6193   */\n      swap2\n      swap1\n      pop\n      jump\t// out\n        /* \"#utility.yul\":6199:6565   */\n    tag_358:\n        /* \"#utility.yul\":6341:6344   */\n      0x00\n        /* \"#utility.yul\":6362:6429   */\n      tag_360\n        /* \"#utility.yul\":6426:6428   */\n      0x3c\n        /* \"#utility.yul\":6421:6424   */\n      dup4\n        /* \"#utility.yul\":6362:6429   */\n      tag_350\n      jump\t// in\n    tag_360:\n        /* \"#utility.yul\":6355:6429   */\n      swap2\n      pop\n        /* \"#utility.yul\":6438:6531   */\n      tag_361\n        /* \"#utility.yul\":6527:6530   */\n      dup3\n        /* \"#utility.yul\":6438:6531   */\n      tag_362\n      jump\t// in\n    tag_361:\n        /* \"#utility.yul\":6556:6558   */\n      0x40\n        /* \"#utility.yul\":6551:6554   */\n      dup3\n        /* \"#utility.yul\":6547:6559   */\n      add\n        /* \"#utility.yul\":6540:6559   */\n      swap1\n      pop\n        /* \"#utility.yul\":6345:6565   */\n      swap2\n      swap1\n      pop\n      jump\t// out\n        /* \"#utility.yul\":6571:6937   */\n    tag_363:\n        /* \"#utility.yul\":6713:6716   */\n      0x00\n        /* \"#utility.yul\":6734:6801   */\n      tag_365\n        /* \"#utility.yul\":6798:6800   */\n      0x1f\n        /* \"#utility.yul\":6793:6796   */\n      dup4\n        /* \"#utility.yul\":6734:6801   */\n      tag_350\n      jump\t// in\n    tag_365:\n        /* \"#utility.yul\":6727:6801   */\n      swap2\n      pop\n        /* \"#utility.yul\":6810:6903   */\n      tag_366\n        /* \"#utility.yul\":6899:6902   */\n      dup3\n        /* \"#utility.yul\":6810:6903   */\n      tag_367\n      jump\t// in\n    tag_366:\n        /* \"#utility.yul\":6928:6930   */\n      0x20\n        /* \"#utility.yul\":6923:6926   */\n      dup3\n        /* \"#utility.yul\":6919:6931   */\n      add\n        /* \"#utility.yul\":6912:6931   */\n      swap1\n      pop\n        /* \"#utility.yul\":6717:6937   */\n      swap2\n      swap1\n      pop\n      jump\t// out\n        /* \"#utility.yul\":6943:7345   */\n    tag_368:\n        /* \"#utility.yul\":7103:7106   */\n      0x00\n        /* \"#utility.yul\":7124:7209   */\n      tag_370\n        /* \"#utility.yul\":7206:7208   */\n      0x1c\n        /* \"#utility.yul\":7201:7204   */\n      dup4\n        /* \"#utility.yul\":7124:7209   */\n      tag_371\n      jump\t// in\n    tag_370:\n        /* \"#utility.yul\":7117:7209   */\n      swap2\n      pop\n        /* \"#utility.yul\":7218:7311   */\n      tag_372\n        /* \"#utility.yul\":7307:7310   */\n      dup3\n        /* \"#utility.yul\":7218:7311   */\n      tag_373\n      jump\t// in\n    tag_372:\n        /* \"#utility.yul\":7336:7338   */\n      0x1c\n        /* \"#utility.yul\":7331:7334   */\n      dup3\n        /* \"#utility.yul\":7327:7339   */\n      add\n        /* \"#utility.yul\":7320:7339   */\n      swap1\n      pop\n        /* \"#utility.yul\":7107:7345   */\n      swap2\n      swap1\n      pop\n      jump\t// out\n        /* \"#utility.yul\":7351:7717   */\n    tag_374:\n        /* \"#utility.yul\":7493:7496   */\n      0x00\n        /* \"#utility.yul\":7514:7581   */\n      tag_376\n        /* \"#utility.yul\":7578:7580   */\n      0x16\n        /* \"#utility.yul\":7573:7576   */\n      dup4\n        /* \"#utility.yul\":7514:7581   */\n      tag_350\n      jump\t// in\n    tag_376:\n        /* \"#utility.yul\":7507:7581   */\n      swap2\n      pop\n        /* \"#utility.yul\":7590:7683   */\n      tag_377\n        /* \"#utility.yul\":7679:7682   */\n      dup3\n        /* \"#utility.yul\":7590:7683   */\n      tag_378\n      jump\t// in\n    tag_377:\n        /* \"#utility.yul\":7708:7710   */\n      0x20\n        /* \"#utility.yul\":7703:7706   */\n      dup3\n        /* \"#utility.yul\":7699:7711   */\n      add\n        /* \"#utility.yul\":7692:7711   */\n      swap1\n      pop\n        /* \"#utility.yul\":7497:7717   */\n      swap2\n      swap1\n      pop\n      jump\t// out\n        /* \"#utility.yul\":7723:8089   */\n    tag_379:\n        /* \"#utility.yul\":7865:7868   */\n      0x00\n        /* \"#utility.yul\":7886:7953   */\n      tag_381\n        /* \"#utility.yul\":7950:7952   */\n      0x26\n        /* \"#utility.yul\":7945:7948   */\n      dup4\n        /* \"#utility.yul\":7886:7953   */\n      tag_350\n      jump\t// in\n    tag_381:\n        /* \"#utility.yul\":7879:7953   */\n      swap2\n      pop\n        /* \"#utility.yul\":7962:8055   */\n      tag_382\n        /* \"#utility.yul\":8051:8054   */\n      dup3\n        /* \"#utility.yul\":7962:8055   */\n      tag_383\n      jump\t// in\n    tag_382:\n        /* \"#utility.yul\":8080:8082   */\n      0x40\n        /* \"#utility.yul\":8075:8078   */\n      dup3\n        /* \"#utility.yul\":8071:8083   */\n      add\n        /* \"#utility.yul\":8064:8083   */\n      swap1\n      pop\n        /* \"#utility.yul\":7869:8089   */\n      swap2\n      swap1\n      pop\n      jump\t// out\n        /* \"#utility.yul\":8095:8461   */\n    tag_384:\n        /* \"#utility.yul\":8237:8240   */\n      0x00\n        /* \"#utility.yul\":8258:8325   */\n      tag_386\n        /* \"#utility.yul\":8322:8324   */\n      0x0c\n        /* \"#utility.yul\":8317:8320   */\n      dup4\n        /* \"#utility.yul\":8258:8325   */\n      tag_350\n      jump\t// in\n    tag_386:\n        /* \"#utility.yul\":8251:8325   */\n      swap2\n      pop\n        /* \"#utility.yul\":8334:8427   */\n      tag_387\n        /* \"#utility.yul\":8423:8426   */\n      dup3\n        /* \"#utility.yul\":8334:8427   */\n      tag_388\n      jump\t// in\n    tag_387:\n        /* \"#utility.yul\":8452:8454   */\n      0x20\n        /* \"#utility.yul\":8447:8450   */\n      dup3\n        /* \"#utility.yul\":8443:8455   */\n      add\n        /* \"#utility.yul\":8436:8455   */\n      swap1\n      pop\n        /* \"#utility.yul\":8241:8461   */\n      swap2\n      swap1\n      pop\n      jump\t// out\n        /* \"#utility.yul\":8467:8833   */\n    tag_389:\n        /* \"#utility.yul\":8609:8612   */\n      0x00\n        /* \"#utility.yul\":8630:8697   */\n      tag_391\n        /* \"#utility.yul\":8694:8696   */\n      0x16\n        /* \"#utility.yul\":8689:8692   */\n      dup4\n        /* \"#utility.yul\":8630:8697   */\n      tag_350\n      jump\t// in\n    tag_391:\n        /* \"#utility.yul\":8623:8697   */\n      swap2\n      pop\n        /* \"#utility.yul\":8706:8799   */\n      tag_392\n        /* \"#utility.yul\":8795:8798   */\n      dup3\n        /* \"#utility.yul\":8706:8799   */\n      tag_393\n      jump\t// in\n    tag_392:\n        /* \"#utility.yul\":8824:8826   */\n      0x20\n        /* \"#utility.yul\":8819:8822   */\n      dup3\n        /* \"#utility.yul\":8815:8827   */\n      add\n        /* \"#utility.yul\":8808:8827   */\n      swap1\n      pop\n        /* \"#utility.yul\":8613:8833   */\n      swap2\n      swap1\n      pop\n      jump\t// out\n        /* \"#utility.yul\":8839:9205   */\n    tag_394:\n        /* \"#utility.yul\":8981:8984   */\n      0x00\n        /* \"#utility.yul\":9002:9069   */\n      tag_396\n        /* \"#utility.yul\":9066:9068   */\n      0x22\n        /* \"#utility.yul\":9061:9064   */\n      dup4\n        /* \"#utility.yul\":9002:9069   */\n      tag_350\n      jump\t// in\n    tag_396:\n        /* \"#utility.yul\":8995:9069   */\n      swap2\n      pop\n        /* \"#utility.yul\":9078:9171   */\n      tag_397\n        /* \"#utility.yul\":9167:9170   */\n      dup3\n        /* \"#utility.yul\":9078:9171   */\n      tag_398\n      jump\t// in\n    tag_397:\n        /* \"#utility.yul\":9196:9198   */\n      0x40\n        /* \"#utility.yul\":9191:9194   */\n      dup3\n        /* \"#utility.yul\":9187:9199   */\n      add\n        /* \"#utility.yul\":9180:9199   */\n      swap1\n      pop\n        /* \"#utility.yul\":8985:9205   */\n      swap2\n      swap1\n      pop\n      jump\t// out\n        /* \"#utility.yul\":9211:9577   */\n    tag_399:\n        /* \"#utility.yul\":9353:9356   */\n      0x00\n        /* \"#utility.yul\":9374:9441   */\n      tag_401\n        /* \"#utility.yul\":9438:9440   */\n      0x28\n        /* \"#utility.yul\":9433:9436   */\n      dup4\n        /* \"#utility.yul\":9374:9441   */\n      tag_350\n      jump\t// in\n    tag_401:\n        /* \"#utility.yul\":9367:9441   */\n      swap2\n      pop\n        /* \"#utility.yul\":9450:9543   */\n      tag_402\n        /* \"#utility.yul\":9539:9542   */\n      dup3\n        /* \"#utility.yul\":9450:9543   */\n      tag_403\n      jump\t// in\n    tag_402:\n        /* \"#utility.yul\":9568:9570   */\n      0x40\n        /* \"#utility.yul\":9563:9566   */\n      dup3\n        /* \"#utility.yul\":9559:9571   */\n      add\n        /* \"#utility.yul\":9552:9571   */\n      swap1\n      pop\n        /* \"#utility.yul\":9357:9577   */\n      swap2\n      swap1\n      pop\n      jump\t// out\n        /* \"#utility.yul\":9583:9949   */\n    tag_404:\n        /* \"#utility.yul\":9725:9728   */\n      0x00\n        /* \"#utility.yul\":9746:9813   */\n      tag_406\n        /* \"#utility.yul\":9810:9812   */\n      0x20\n        /* \"#utility.yul\":9805:9808   */\n      dup4\n        /* \"#utility.yul\":9746:9813   */\n      tag_350\n      jump\t// in\n    tag_406:\n        /* \"#utility.yul\":9739:9813   */\n      swap2\n      pop\n        /* \"#utility.yul\":9822:9915   */\n      tag_407\n        /* \"#utility.yul\":9911:9914   */\n      dup3\n        /* \"#utility.yul\":9822:9915   */\n      tag_408\n      jump\t// in\n    tag_407:\n        /* \"#utility.yul\":9940:9942   */\n      0x20\n        /* \"#utility.yul\":9935:9938   */\n      dup3\n        /* \"#utility.yul\":9931:9943   */\n      add\n        /* \"#utility.yul\":9924:9943   */\n      swap1\n      pop\n        /* \"#utility.yul\":9729:9949   */\n      swap2\n      swap1\n      pop\n      jump\t// out\n        /* \"#utility.yul\":9955:10321   */\n    tag_409:\n        /* \"#utility.yul\":10097:10100   */\n      0x00\n        /* \"#utility.yul\":10118:10185   */\n      tag_411\n        /* \"#utility.yul\":10182:10184   */\n      0x0f\n        /* \"#utility.yul\":10177:10180   */\n      dup4\n        /* \"#utility.yul\":10118:10185   */\n      tag_350\n      jump\t// in\n    tag_411:\n        /* \"#utility.yul\":10111:10185   */\n      swap2\n      pop\n        /* \"#utility.yul\":10194:10287   */\n      tag_412\n        /* \"#utility.yul\":10283:10286   */\n      dup3\n        /* \"#utility.yul\":10194:10287   */\n      tag_413\n      jump\t// in\n    tag_412:\n        /* \"#utility.yul\":10312:10314   */\n      0x20\n        /* \"#utility.yul\":10307:10310   */\n      dup3\n        /* \"#utility.yul\":10303:10315   */\n      add\n        /* \"#utility.yul\":10296:10315   */\n      swap1\n      pop\n        /* \"#utility.yul\":10101:10321   */\n      swap2\n      swap1\n      pop\n      jump\t// out\n        /* \"#utility.yul\":10327:10693   */\n    tag_414:\n        /* \"#utility.yul\":10469:10472   */\n      0x00\n        /* \"#utility.yul\":10490:10557   */\n      tag_416\n        /* \"#utility.yul\":10554:10556   */\n      0x22\n        /* \"#utility.yul\":10549:10552   */\n      dup4\n        /* \"#utility.yul\":10490:10557   */\n      tag_350\n      jump\t// in\n    tag_416:\n        /* \"#utility.yul\":10483:10557   */\n      swap2\n      pop\n        /* \"#utility.yul\":10566:10659   */\n      tag_417\n        /* \"#utility.yul\":10655:10658   */\n      dup3\n        /* \"#utility.yul\":10566:10659   */\n      tag_418\n      jump\t// in\n    tag_417:\n        /* \"#utility.yul\":10684:10686   */\n      0x40\n        /* \"#utility.yul\":10679:10682   */\n      dup3\n        /* \"#utility.yul\":10675:10687   */\n      add\n        /* \"#utility.yul\":10668:10687   */\n      swap1\n      pop\n        /* \"#utility.yul\":10473:10693   */\n      swap2\n      swap1\n      pop\n      jump\t// out\n        /* \"#utility.yul\":10699:11065   */\n    tag_419:\n        /* \"#utility.yul\":10841:10844   */\n      0x00\n        /* \"#utility.yul\":10862:10929   */\n      tag_421\n        /* \"#utility.yul\":10926:10928   */\n      0x1a\n        /* \"#utility.yul\":10921:10924   */\n      dup4\n        /* \"#utility.yul\":10862:10929   */\n      tag_350\n      jump\t// in\n    tag_421:\n        /* \"#utility.yul\":10855:10929   */\n      swap2\n      pop\n        /* \"#utility.yul\":10938:11031   */\n      tag_422\n        /* \"#utility.yul\":11027:11030   */\n      dup3\n        /* \"#utility.yul\":10938:11031   */\n      tag_423\n      jump\t// in\n    tag_422:\n        /* \"#utility.yul\":11056:11058   */\n      0x20\n        /* \"#utility.yul\":11051:11054   */\n      dup3\n        /* \"#utility.yul\":11047:11059   */\n      add\n        /* \"#utility.yul\":11040:11059   */\n      swap1\n      pop\n        /* \"#utility.yul\":10845:11065   */\n      swap2\n      swap1\n      pop\n      jump\t// out\n        /* \"#utility.yul\":11071:11437   */\n    tag_424:\n        /* \"#utility.yul\":11213:11216   */\n      0x00\n        /* \"#utility.yul\":11234:11301   */\n      tag_426\n        /* \"#utility.yul\":11298:11300   */\n      0x17\n        /* \"#utility.yul\":11293:11296   */\n      dup4\n        /* \"#utility.yul\":11234:11301   */\n      tag_350\n      jump\t// in\n    tag_426:\n        /* \"#utility.yul\":11227:11301   */\n      swap2\n      pop\n        /* \"#utility.yul\":11310:11403   */\n      tag_427\n        /* \"#utility.yul\":11399:11402   */\n      dup3\n        /* \"#utility.yul\":11310:11403   */\n      tag_428\n      jump\t// in\n    tag_427:\n        /* \"#utility.yul\":11428:11430   */\n      0x20\n        /* \"#utility.yul\":11423:11426   */\n      dup3\n        /* \"#utility.yul\":11419:11431   */\n      add\n        /* \"#utility.yul\":11412:11431   */\n      swap1\n      pop\n        /* \"#utility.yul\":11217:11437   */\n      swap2\n      swap1\n      pop\n      jump\t// out\n        /* \"#utility.yul\":11443:11809   */\n    tag_429:\n        /* \"#utility.yul\":11585:11588   */\n      0x00\n        /* \"#utility.yul\":11606:11673   */\n      tag_431\n        /* \"#utility.yul\":11670:11672   */\n      0x1b\n        /* \"#utility.yul\":11665:11668   */\n      dup4\n        /* \"#utility.yul\":11606:11673   */\n      tag_350\n      jump\t// in\n    tag_431:\n        /* \"#utility.yul\":11599:11673   */\n      swap2\n      pop\n        /* \"#utility.yul\":11682:11775   */\n      tag_432\n        /* \"#utility.yul\":11771:11774   */\n      dup3\n        /* \"#utility.yul\":11682:11775   */\n      tag_433\n      jump\t// in\n    tag_432:\n        /* \"#utility.yul\":11800:11802   */\n      0x20\n        /* \"#utility.yul\":11795:11798   */\n      dup3\n        /* \"#utility.yul\":11791:11803   */\n      add\n        /* \"#utility.yul\":11784:11803   */\n      swap1\n      pop\n        /* \"#utility.yul\":11589:11809   */\n      swap2\n      swap1\n      pop\n      jump\t// out\n        /* \"#utility.yul\":11815:12181   */\n    tag_434:\n        /* \"#utility.yul\":11957:11960   */\n      0x00\n        /* \"#utility.yul\":11978:12045   */\n      tag_436\n        /* \"#utility.yul\":12042:12044   */\n      0x11\n        /* \"#utility.yul\":12037:12040   */\n      dup4\n        /* \"#utility.yul\":11978:12045   */\n      tag_350\n      jump\t// in\n    tag_436:\n        /* \"#utility.yul\":11971:12045   */\n      swap2\n      pop\n        /* \"#utility.yul\":12054:12147   */\n      tag_437\n        /* \"#utility.yul\":12143:12146   */\n      dup3\n        /* \"#utility.yul\":12054:12147   */\n      tag_438\n      jump\t// in\n    tag_437:\n        /* \"#utility.yul\":12172:12174   */\n      0x20\n        /* \"#utility.yul\":12167:12170   */\n      dup3\n        /* \"#utility.yul\":12163:12175   */\n      add\n        /* \"#utility.yul\":12156:12175   */\n      swap1\n      pop\n        /* \"#utility.yul\":11961:12181   */\n      swap2\n      swap1\n      pop\n      jump\t// out\n        /* \"#utility.yul\":12187:12553   */\n    tag_439:\n        /* \"#utility.yul\":12329:12332   */\n      0x00\n        /* \"#utility.yul\":12350:12417   */\n      tag_441\n        /* \"#utility.yul\":12414:12416   */\n      0x15\n        /* \"#utility.yul\":12409:12412   */\n      dup4\n        /* \"#utility.yul\":12350:12417   */\n      tag_350\n      jump\t// in\n    tag_441:\n        /* \"#utility.yul\":12343:12417   */\n      swap2\n      pop\n        /* \"#utility.yul\":12426:12519   */\n      tag_442\n        /* \"#utility.yul\":12515:12518   */\n      dup3\n        /* \"#utility.yul\":12426:12519   */\n      tag_443\n      jump\t// in\n    tag_442:\n        /* \"#utility.yul\":12544:12546   */\n      0x20\n        /* \"#utility.yul\":12539:12542   */\n      dup3\n        /* \"#utility.yul\":12535:12547   */\n      add\n        /* \"#utility.yul\":12528:12547   */\n      swap1\n      pop\n        /* \"#utility.yul\":12333:12553   */\n      swap2\n      swap1\n      pop\n      jump\t// out\n        /* \"#utility.yul\":12559:12925   */\n    tag_444:\n        /* \"#utility.yul\":12701:12704   */\n      0x00\n        /* \"#utility.yul\":12722:12789   */\n      tag_446\n        /* \"#utility.yul\":12786:12788   */\n      0x31\n        /* \"#utility.yul\":12781:12784   */\n      dup4\n        /* \"#utility.yul\":12722:12789   */\n      tag_350\n      jump\t// in\n    tag_446:\n        /* \"#utility.yul\":12715:12789   */\n      swap2\n      pop\n        /* \"#utility.yul\":12798:12891   */\n      tag_447\n        /* \"#utility.yul\":12887:12890   */\n      dup3\n        /* \"#utility.yul\":12798:12891   */\n      tag_448\n      jump\t// in\n    tag_447:\n        /* \"#utility.yul\":12916:12918   */\n      0x40\n        /* \"#utility.yul\":12911:12914   */\n      dup3\n        /* \"#utility.yul\":12907:12919   */\n      add\n        /* \"#utility.yul\":12900:12919   */\n      swap1\n      pop\n        /* \"#utility.yul\":12705:12925   */\n      swap2\n      swap1\n      pop\n      jump\t// out\n        /* \"#utility.yul\":12931:13049   */\n    tag_449:\n        /* \"#utility.yul\":13018:13042   */\n      tag_451\n        /* \"#utility.yul\":13036:13041   */\n      dup2\n        /* \"#utility.yul\":13018:13042   */\n      tag_452\n      jump\t// in\n    tag_451:\n        /* \"#utility.yul\":13013:13016   */\n      dup3\n        /* \"#utility.yul\":13006:13043   */\n      mstore\n        /* \"#utility.yul\":12996:13049   */\n      pop\n      pop\n      jump\t// out\n        /* \"#utility.yul\":13055:13212   */\n    tag_453:\n        /* \"#utility.yul\":13160:13205   */\n      tag_455\n        /* \"#utility.yul\":13180:13204   */\n      tag_456\n        /* \"#utility.yul\":13198:13203   */\n      dup3\n        /* \"#utility.yul\":13180:13204   */\n      tag_452\n      jump\t// in\n    tag_456:\n        /* \"#utility.yul\":13160:13205   */\n      tag_457\n      jump\t// in\n    tag_455:\n        /* \"#utility.yul\":13155:13158   */\n      dup3\n        /* \"#utility.yul\":13148:13206   */\n      mstore\n        /* \"#utility.yul\":13138:13212   */\n      pop\n      pop\n      jump\t// out\n        /* \"#utility.yul\":13218:13330   */\n    tag_458:\n        /* \"#utility.yul\":13301:13323   */\n      tag_460\n        /* \"#utility.yul\":13317:13322   */\n      dup2\n        /* \"#utility.yul\":13301:13323   */\n      tag_461\n      jump\t// in\n    tag_460:\n        /* \"#utility.yul\":13296:13299   */\n      dup3\n        /* \"#utility.yul\":13289:13324   */\n      mstore\n        /* \"#utility.yul\":13279:13330   */\n      pop\n      pop\n      jump\t// out\n        /* \"#utility.yul\":13336:14015   */\n    tag_117:\n        /* \"#utility.yul\":13532:13535   */\n      0x00\n        /* \"#utility.yul\":13547:13622   */\n      tag_463\n        /* \"#utility.yul\":13618:13621   */\n      dup3\n        /* \"#utility.yul\":13609:13615   */\n      dup8\n        /* \"#utility.yul\":13547:13622   */\n      tag_329\n      jump\t// in\n    tag_463:\n        /* \"#utility.yul\":13647:13649   */\n      0x14\n        /* \"#utility.yul\":13642:13645   */\n      dup3\n        /* \"#utility.yul\":13638:13650   */\n      add\n        /* \"#utility.yul\":13631:13650   */\n      swap2\n      pop\n        /* \"#utility.yul\":13660:13735   */\n      tag_464\n        /* \"#utility.yul\":13731:13734   */\n      dup3\n        /* \"#utility.yul\":13722:13728   */\n      dup7\n        /* \"#utility.yul\":13660:13735   */\n      tag_329\n      jump\t// in\n    tag_464:\n        /* \"#utility.yul\":13760:13762   */\n      0x14\n        /* \"#utility.yul\":13755:13758   */\n      dup3\n        /* \"#utility.yul\":13751:13763   */\n      add\n        /* \"#utility.yul\":13744:13763   */\n      swap2\n      pop\n        /* \"#utility.yul\":13773:13848   */\n      tag_465\n        /* \"#utility.yul\":13844:13847   */\n      dup3\n        /* \"#utility.yul\":13835:13841   */\n      dup6\n        /* \"#utility.yul\":13773:13848   */\n      tag_329\n      jump\t// in\n    tag_465:\n        /* \"#utility.yul\":13873:13875   */\n      0x14\n        /* \"#utility.yul\":13868:13871   */\n      dup3\n        /* \"#utility.yul\":13864:13876   */\n      add\n        /* \"#utility.yul\":13857:13876   */\n      swap2\n      pop\n        /* \"#utility.yul\":13886:13961   */\n      tag_466\n        /* \"#utility.yul\":13957:13960   */\n      dup3\n        /* \"#utility.yul\":13948:13954   */\n      dup5\n        /* \"#utility.yul\":13886:13961   */\n      tag_453\n      jump\t// in\n    tag_466:\n        /* \"#utility.yul\":13986:13988   */\n      0x20\n        /* \"#utility.yul\":13981:13984   */\n      dup3\n        /* \"#utility.yul\":13977:13989   */\n      add\n        /* \"#utility.yul\":13970:13989   */\n      swap2\n      pop\n        /* \"#utility.yul\":14006:14009   */\n      dup2\n        /* \"#utility.yul\":13999:14009   */\n      swap1\n      pop\n        /* \"#utility.yul\":13536:14015   */\n      swap6\n      swap5\n      pop\n      pop\n      pop\n      pop\n      pop\n      jump\t// out\n        /* \"#utility.yul\":14021:14700   */\n    tag_130:\n        /* \"#utility.yul\":14217:14220   */\n      0x00\n        /* \"#utility.yul\":14232:14307   */\n      tag_468\n        /* \"#utility.yul\":14303:14306   */\n      dup3\n        /* \"#utility.yul\":14294:14300   */\n      dup8\n        /* \"#utility.yul\":14232:14307   */\n      tag_338\n      jump\t// in\n    tag_468:\n        /* \"#utility.yul\":14332:14334   */\n      0x20\n        /* \"#utility.yul\":14327:14330   */\n      dup3\n        /* \"#utility.yul\":14323:14335   */\n      add\n        /* \"#utility.yul\":14316:14335   */\n      swap2\n      pop\n        /* \"#utility.yul\":14345:14420   */\n      tag_469\n        /* \"#utility.yul\":14416:14419   */\n      dup3\n        /* \"#utility.yul\":14407:14413   */\n      dup7\n        /* \"#utility.yul\":14345:14420   */\n      tag_453\n      jump\t// in\n    tag_469:\n        /* \"#utility.yul\":14445:14447   */\n      0x20\n        /* \"#utility.yul\":14440:14443   */\n      dup3\n        /* \"#utility.yul\":14436:14448   */\n      add\n        /* \"#utility.yul\":14429:14448   */\n      swap2\n      pop\n        /* \"#utility.yul\":14458:14533   */\n      tag_470\n        /* \"#utility.yul\":14529:14532   */\n      dup3\n        /* \"#utility.yul\":14520:14526   */\n      dup6\n        /* \"#utility.yul\":14458:14533   */\n      tag_453\n      jump\t// in\n    tag_470:\n        /* \"#utility.yul\":14558:14560   */\n      0x20\n        /* \"#utility.yul\":14553:14556   */\n      dup3\n        /* \"#utility.yul\":14549:14561   */\n      add\n        /* \"#utility.yul\":14542:14561   */\n      swap2\n      pop\n        /* \"#utility.yul\":14571:14646   */\n      tag_471\n        /* \"#utility.yul\":14642:14645   */\n      dup3\n        /* \"#utility.yul\":14633:14639   */\n      dup5\n        /* \"#utility.yul\":14571:14646   */\n      tag_453\n      jump\t// in\n    tag_471:\n        /* \"#utility.yul\":14671:14673   */\n      0x20\n        /* \"#utility.yul\":14666:14669   */\n      dup3\n        /* \"#utility.yul\":14662:14674   */\n      add\n        /* \"#utility.yul\":14655:14674   */\n      swap2\n      pop\n        /* \"#utility.yul\":14691:14694   */\n      dup2\n        /* \"#utility.yul\":14684:14694   */\n      swap1\n      pop\n        /* \"#utility.yul\":14221:14700   */\n      swap6\n      swap5\n      pop\n      pop\n      pop\n      pop\n      pop\n      jump\t// out\n        /* \"#utility.yul\":14706:15228   */\n    tag_191:\n        /* \"#utility.yul\":14919:14922   */\n      0x00\n        /* \"#utility.yul\":14941:15089   */\n      tag_473\n        /* \"#utility.yul\":15085:15088   */\n      dup3\n        /* \"#utility.yul\":14941:15089   */\n      tag_368\n      jump\t// in\n    tag_473:\n        /* \"#utility.yul\":14934:15089   */\n      swap2\n      pop\n        /* \"#utility.yul\":15099:15174   */\n      tag_474\n        /* \"#utility.yul\":15170:15173   */\n      dup3\n        /* \"#utility.yul\":15161:15167   */\n      dup5\n        /* \"#utility.yul\":15099:15174   */\n      tag_338\n      jump\t// in\n    tag_474:\n        /* \"#utility.yul\":15199:15201   */\n      0x20\n        /* \"#utility.yul\":15194:15197   */\n      dup3\n        /* \"#utility.yul\":15190:15202   */\n      add\n        /* \"#utility.yul\":15183:15202   */\n      swap2\n      pop\n        /* \"#utility.yul\":15219:15222   */\n      dup2\n        /* \"#utility.yul\":15212:15222   */\n      swap1\n      pop\n        /* \"#utility.yul\":14923:15228   */\n      swap3\n      swap2\n      pop\n      pop\n      jump\t// out\n        /* \"#utility.yul\":15234:15676   */\n    tag_167:\n        /* \"#utility.yul\":15383:15387   */\n      0x00\n        /* \"#utility.yul\":15421:15423   */\n      0x60\n        /* \"#utility.yul\":15410:15419   */\n      dup3\n        /* \"#utility.yul\":15406:15424   */\n      add\n        /* \"#utility.yul\":15398:15424   */\n      swap1\n      pop\n        /* \"#utility.yul\":15434:15505   */\n      tag_476\n        /* \"#utility.yul\":15502:15503   */\n      0x00\n        /* \"#utility.yul\":15491:15500   */\n      dup4\n        /* \"#utility.yul\":15487:15504   */\n      add\n        /* \"#utility.yul\":15478:15484   */\n      dup7\n        /* \"#utility.yul\":15434:15505   */\n      tag_325\n      jump\t// in\n    tag_476:\n        /* \"#utility.yul\":15515:15587   */\n      tag_477\n        /* \"#utility.yul\":15583:15585   */\n      0x20\n        /* \"#utility.yul\":15572:15581   */\n      dup4\n        /* \"#utility.yul\":15568:15586   */\n      add\n        /* \"#utility.yul\":15559:15565   */\n      dup6\n        /* \"#utility.yul\":15515:15587   */\n      tag_325\n      jump\t// in\n    tag_477:\n        /* \"#utility.yul\":15597:15669   */\n      tag_478\n        /* \"#utility.yul\":15665:15667   */\n      0x40\n        /* \"#utility.yul\":15654:15663   */\n      dup4\n        /* \"#utility.yul\":15650:15668   */\n      add\n        /* \"#utility.yul\":15641:15647   */\n      dup5\n        /* \"#utility.yul\":15597:15669   */\n      tag_449\n      jump\t// in\n    tag_478:\n        /* \"#utility.yul\":15388:15676   */\n      swap5\n      swap4\n      pop\n      pop\n      pop\n      pop\n      jump\t// out\n        /* \"#utility.yul\":15682:16014   */\n    tag_181:\n        /* \"#utility.yul\":15803:15807   */\n      0x00\n        /* \"#utility.yul\":15841:15843   */\n      0x40\n        /* \"#utility.yul\":15830:15839   */\n      dup3\n        /* \"#utility.yul\":15826:15844   */\n      add\n        /* \"#utility.yul\":15818:15844   */\n      swap1\n      pop\n        /* \"#utility.yul\":15854:15925   */\n      tag_480\n        /* \"#utility.yul\":15922:15923   */\n      0x00\n        /* \"#utility.yul\":15911:15920   */\n      dup4\n        /* \"#utility.yul\":15907:15924   */\n      add\n        /* \"#utility.yul\":15898:15904   */\n      dup6\n        /* \"#utility.yul\":15854:15925   */\n      tag_325\n      jump\t// in\n    tag_480:\n        /* \"#utility.yul\":15935:16007   */\n      tag_481\n        /* \"#utility.yul\":16003:16005   */\n      0x20\n        /* \"#utility.yul\":15992:16001   */\n      dup4\n        /* \"#utility.yul\":15988:16006   */\n      add\n        /* \"#utility.yul\":15979:15985   */\n      dup5\n        /* \"#utility.yul\":15935:16007   */\n      tag_449\n      jump\t// in\n    tag_481:\n        /* \"#utility.yul\":15808:16014   */\n      swap4\n      swap3\n      pop\n      pop\n      pop\n      jump\t// out\n        /* \"#utility.yul\":16020:16242   */\n    tag_108:\n        /* \"#utility.yul\":16113:16117   */\n      0x00\n        /* \"#utility.yul\":16151:16153   */\n      0x20\n        /* \"#utility.yul\":16140:16149   */\n      dup3\n        /* \"#utility.yul\":16136:16154   */\n      add\n        /* \"#utility.yul\":16128:16154   */\n      swap1\n      pop\n        /* \"#utility.yul\":16164:16235   */\n      tag_483\n        /* \"#utility.yul\":16232:16233   */\n      0x00\n        /* \"#utility.yul\":16221:16230   */\n      dup4\n        /* \"#utility.yul\":16217:16234   */\n      add\n        /* \"#utility.yul\":16208:16214   */\n      dup5\n        /* \"#utility.yul\":16164:16235   */\n      tag_334\n      jump\t// in\n    tag_483:\n        /* \"#utility.yul\":16118:16242   */\n      swap3\n      swap2\n      pop\n      pop\n      jump\t// out\n        /* \"#utility.yul\":16248:17497   */\n    tag_24:\n        /* \"#utility.yul\":16608:16612   */\n      0x00\n        /* \"#utility.yul\":16646:16649   */\n      0x0140\n        /* \"#utility.yul\":16635:16644   */\n      dup3\n        /* \"#utility.yul\":16631:16650   */\n      add\n        /* \"#utility.yul\":16623:16650   */\n      swap1\n      pop\n        /* \"#utility.yul\":16660:16731   */\n      tag_485\n        /* \"#utility.yul\":16728:16729   */\n      0x00\n        /* \"#utility.yul\":16717:16726   */\n      dup4\n        /* \"#utility.yul\":16713:16730   */\n      add\n        /* \"#utility.yul\":16704:16710   */\n      dup14\n        /* \"#utility.yul\":16660:16731   */\n      tag_334\n      jump\t// in\n    tag_485:\n        /* \"#utility.yul\":16741:16813   */\n      tag_486\n        /* \"#utility.yul\":16809:16811   */\n      0x20\n        /* \"#utility.yul\":16798:16807   */\n      dup4\n        /* \"#utility.yul\":16794:16812   */\n      add\n        /* \"#utility.yul\":16785:16791   */\n      dup13\n        /* \"#utility.yul\":16741:16813   */\n      tag_325\n      jump\t// in\n    tag_486:\n        /* \"#utility.yul\":16823:16895   */\n      tag_487\n        /* \"#utility.yul\":16891:16893   */\n      0x40\n        /* \"#utility.yul\":16880:16889   */\n      dup4\n        /* \"#utility.yul\":16876:16894   */\n      add\n        /* \"#utility.yul\":16867:16873   */\n      dup12\n        /* \"#utility.yul\":16823:16895   */\n      tag_325\n      jump\t// in\n    tag_487:\n        /* \"#utility.yul\":16905:16977   */\n      tag_488\n        /* \"#utility.yul\":16973:16975   */\n      0x60\n        /* \"#utility.yul\":16962:16971   */\n      dup4\n        /* \"#utility.yul\":16958:16976   */\n      add\n        /* \"#utility.yul\":16949:16955   */\n      dup11\n        /* \"#utility.yul\":16905:16977   */\n      tag_325\n      jump\t// in\n    tag_488:\n        /* \"#utility.yul\":16987:17060   */\n      tag_489\n        /* \"#utility.yul\":17055:17058   */\n      0x80\n        /* \"#utility.yul\":17044:17053   */\n      dup4\n        /* \"#utility.yul\":17040:17059   */\n      add\n        /* \"#utility.yul\":17031:17037   */\n      dup10\n        /* \"#utility.yul\":16987:17060   */\n      tag_449\n      jump\t// in\n    tag_489:\n        /* \"#utility.yul\":17070:17143   */\n      tag_490\n        /* \"#utility.yul\":17138:17141   */\n      0xa0\n        /* \"#utility.yul\":17127:17136   */\n      dup4\n        /* \"#utility.yul\":17123:17142   */\n      add\n        /* \"#utility.yul\":17114:17120   */\n      dup9\n        /* \"#utility.yul\":17070:17143   */\n      tag_449\n      jump\t// in\n    tag_490:\n        /* \"#utility.yul\":17153:17226   */\n      tag_491\n        /* \"#utility.yul\":17221:17224   */\n      0xc0\n        /* \"#utility.yul\":17210:17219   */\n      dup4\n        /* \"#utility.yul\":17206:17225   */\n      add\n        /* \"#utility.yul\":17197:17203   */\n      dup8\n        /* \"#utility.yul\":17153:17226   */\n      tag_449\n      jump\t// in\n    tag_491:\n        /* \"#utility.yul\":17236:17309   */\n      tag_492\n        /* \"#utility.yul\":17304:17307   */\n      0xe0\n        /* \"#utility.yul\":17293:17302   */\n      dup4\n        /* \"#utility.yul\":17289:17308   */\n      add\n        /* \"#utility.yul\":17280:17286   */\n      dup7\n        /* \"#utility.yul\":17236:17309   */\n      tag_449\n      jump\t// in\n    tag_492:\n        /* \"#utility.yul\":17319:17392   */\n      tag_493\n        /* \"#utility.yul\":17387:17390   */\n      0x0100\n        /* \"#utility.yul\":17376:17385   */\n      dup4\n        /* \"#utility.yul\":17372:17391   */\n      add\n        /* \"#utility.yul\":17363:17369   */\n      dup6\n        /* \"#utility.yul\":17319:17392   */\n      tag_449\n      jump\t// in\n    tag_493:\n        /* \"#utility.yul\":17402:17490   */\n      tag_494\n        /* \"#utility.yul\":17485:17488   */\n      0x0120\n        /* \"#utility.yul\":17474:17483   */\n      dup4\n        /* \"#utility.yul\":17470:17489   */\n      add\n        /* \"#utility.yul\":17461:17467   */\n      dup5\n        /* \"#utility.yul\":17402:17490   */\n      tag_343\n      jump\t// in\n    tag_494:\n        /* \"#utility.yul\":16613:17497   */\n      swap12\n      swap11\n      pop\n      pop\n      pop\n      pop\n      pop\n      pop\n      pop\n      pop\n      pop\n      pop\n      pop\n      jump\t// out\n        /* \"#utility.yul\":17503:18048   */\n    tag_249:\n        /* \"#utility.yul\":17676:17680   */\n      0x00\n        /* \"#utility.yul\":17714:17717   */\n      0x80\n        /* \"#utility.yul\":17703:17712   */\n      dup3\n        /* \"#utility.yul\":17699:17718   */\n      add\n        /* \"#utility.yul\":17691:17718   */\n      swap1\n      pop\n        /* \"#utility.yul\":17728:17799   */\n      tag_496\n        /* \"#utility.yul\":17796:17797   */\n      0x00\n        /* \"#utility.yul\":17785:17794   */\n      dup4\n        /* \"#utility.yul\":17781:17798   */\n      add\n        /* \"#utility.yul\":17772:17778   */\n      dup8\n        /* \"#utility.yul\":17728:17799   */\n      tag_334\n      jump\t// in\n    tag_496:\n        /* \"#utility.yul\":17809:17877   */\n      tag_497\n        /* \"#utility.yul\":17873:17875   */\n      0x20\n        /* \"#utility.yul\":17862:17871   */\n      dup4\n        /* \"#utility.yul\":17858:17876   */\n      add\n        /* \"#utility.yul\":17849:17855   */\n      dup7\n        /* \"#utility.yul\":17809:17877   */\n      tag_458\n      jump\t// in\n    tag_497:\n        /* \"#utility.yul\":17887:17959   */\n      tag_498\n        /* \"#utility.yul\":17955:17957   */\n      0x40\n        /* \"#utility.yul\":17944:17953   */\n      dup4\n        /* \"#utility.yul\":17940:17958   */\n      add\n        /* \"#utility.yul\":17931:17937   */\n      dup6\n        /* \"#utility.yul\":17887:17959   */\n      tag_334\n      jump\t// in\n    tag_498:\n        /* \"#utility.yul\":17969:18041   */\n      tag_499\n        /* \"#utility.yul\":18037:18039   */\n      0x60\n        /* \"#utility.yul\":18026:18035   */\n      dup4\n        /* \"#utility.yul\":18022:18040   */\n      add\n        /* \"#utility.yul\":18013:18019   */\n      dup5\n        /* \"#utility.yul\":17969:18041   */\n      tag_334\n      jump\t// in\n    tag_499:\n        /* \"#utility.yul\":17681:18048   */\n      swap6\n      swap5\n      pop\n      pop\n      pop\n      pop\n      pop\n      jump\t// out\n        /* \"#utility.yul\":18054:18473   */\n    tag_219:\n        /* \"#utility.yul\":18220:18224   */\n      0x00\n        /* \"#utility.yul\":18258:18260   */\n      0x20\n        /* \"#utility.yul\":18247:18256   */\n      dup3\n        /* \"#utility.yul\":18243:18261   */\n      add\n        /* \"#utility.yul\":18235:18261   */\n      swap1\n      pop\n        /* \"#utility.yul\":18307:18316   */\n      dup2\n        /* \"#utility.yul\":18301:18305   */\n      dup2\n        /* \"#utility.yul\":18297:18317   */\n      sub\n        /* \"#utility.yul\":18293:18294   */\n      0x00\n        /* \"#utility.yul\":18282:18291   */\n      dup4\n        /* \"#utility.yul\":18278:18295   */\n      add\n        /* \"#utility.yul\":18271:18318   */\n      mstore\n        /* \"#utility.yul\":18335:18466   */\n      tag_501\n        /* \"#utility.yul\":18461:18465   */\n      dup2\n        /* \"#utility.yul\":18335:18466   */\n      tag_347\n      jump\t// in\n    tag_501:\n        /* \"#utility.yul\":18327:18466   */\n      swap1\n      pop\n        /* \"#utility.yul\":18225:18473   */\n      swap2\n      swap1\n      pop\n      jump\t// out\n        /* \"#utility.yul\":18479:18898   */\n    tag_101:\n        /* \"#utility.yul\":18645:18649   */\n      0x00\n        /* \"#utility.yul\":18683:18685   */\n      0x20\n        /* \"#utility.yul\":18672:18681   */\n      dup3\n        /* \"#utility.yul\":18668:18686   */\n      add\n        /* \"#utility.yul\":18660:18686   */\n      swap1\n      pop\n        /* \"#utility.yul\":18732:18741   */\n      dup2\n        /* \"#utility.yul\":18726:18730   */\n      dup2\n        /* \"#utility.yul\":18722:18742   */\n      sub\n        /* \"#utility.yul\":18718:18719   */\n      0x00\n        /* \"#utility.yul\":18707:18716   */\n      dup4\n        /* \"#utility.yul\":18703:18720   */\n      add\n        /* \"#utility.yul\":18696:18743   */\n      mstore\n        /* \"#utility.yul\":18760:18891   */\n      tag_503\n        /* \"#utility.yul\":18886:18890   */\n      dup2\n        /* \"#utility.yul\":18760:18891   */\n      tag_353\n      jump\t// in\n    tag_503:\n        /* \"#utility.yul\":18752:18891   */\n      swap1\n      pop\n        /* \"#utility.yul\":18650:18898   */\n      swap2\n      swap1\n      pop\n      jump\t// out\n        /* \"#utility.yul\":18904:19323   */\n    tag_145:\n        /* \"#utility.yul\":19070:19074   */\n      0x00\n        /* \"#utility.yul\":19108:19110   */\n      0x20\n        /* \"#utility.yul\":19097:19106   */\n      dup3\n        /* \"#utility.yul\":19093:19111   */\n      add\n        /* \"#utility.yul\":19085:19111   */\n      swap1\n      pop\n        /* \"#utility.yul\":19157:19166   */\n      dup2\n        /* \"#utility.yul\":19151:19155   */\n      dup2\n        /* \"#utility.yul\":19147:19167   */\n      sub\n        /* \"#utility.yul\":19143:19144   */\n      0x00\n        /* \"#utility.yul\":19132:19141   */\n      dup4\n        /* \"#utility.yul\":19128:19145   */\n      add\n        /* \"#utility.yul\":19121:19168   */\n      mstore\n        /* \"#utility.yul\":19185:19316   */\n      tag_505\n        /* \"#utility.yul\":19311:19315   */\n      dup2\n        /* \"#utility.yul\":19185:19316   */\n      tag_358\n      jump\t// in\n    tag_505:\n        /* \"#utility.yul\":19177:19316   */\n      swap1\n      pop\n        /* \"#utility.yul\":19075:19323   */\n      swap2\n      swap1\n      pop\n      jump\t// out\n        /* \"#utility.yul\":19329:19748   */\n    tag_227:\n        /* \"#utility.yul\":19495:19499   */\n      0x00\n        /* \"#utility.yul\":19533:19535   */\n      0x20\n        /* \"#utility.yul\":19522:19531   */\n      dup3\n        /* \"#utility.yul\":19518:19536   */\n      add\n        /* \"#utility.yul\":19510:19536   */\n      swap1\n      pop\n        /* \"#utility.yul\":19582:19591   */\n      dup2\n        /* \"#utility.yul\":19576:19580   */\n      dup2\n        /* \"#utility.yul\":19572:19592   */\n      sub\n        /* \"#utility.yul\":19568:19569   */\n      0x00\n        /* \"#utility.yul\":19557:19566   */\n      dup4\n        /* \"#utility.yul\":19553:19570   */\n      add\n        /* \"#utility.yul\":19546:19593   */\n      mstore\n        /* \"#utility.yul\":19610:19741   */\n      tag_507\n        /* \"#utility.yul\":19736:19740   */\n      dup2\n        /* \"#utility.yul\":19610:19741   */\n      tag_363\n      jump\t// in\n    tag_507:\n        /* \"#utility.yul\":19602:19741   */\n      swap1\n      pop\n        /* \"#utility.yul\":19500:19748   */\n      swap2\n      swap1\n      pop\n      jump\t// out\n        /* \"#utility.yul\":19754:20173   */\n    tag_115:\n        /* \"#utility.yul\":19920:19924   */\n      0x00\n        /* \"#utility.yul\":19958:19960   */\n      0x20\n        /* \"#utility.yul\":19947:19956   */\n      dup3\n        /* \"#utility.yul\":19943:19961   */\n      add\n        /* \"#utility.yul\":19935:19961   */\n      swap1\n      pop\n        /* \"#utility.yul\":20007:20016   */\n      dup2\n        /* \"#utility.yul\":20001:20005   */\n      dup2\n        /* \"#utility.yul\":19997:20017   */\n      sub\n        /* \"#utility.yul\":19993:19994   */\n      0x00\n        /* \"#utility.yul\":19982:19991   */\n      dup4\n        /* \"#utility.yul\":19978:19995   */\n      add\n        /* \"#utility.yul\":19971:20018   */\n      mstore\n        /* \"#utility.yul\":20035:20166   */\n      tag_509\n        /* \"#utility.yul\":20161:20165   */\n      dup2\n        /* \"#utility.yul\":20035:20166   */\n      tag_374\n      jump\t// in\n    tag_509:\n        /* \"#utility.yul\":20027:20166   */\n      swap1\n      pop\n        /* \"#utility.yul\":19925:20173   */\n      swap2\n      swap1\n      pop\n      jump\t// out\n        /* \"#utility.yul\":20179:20598   */\n    tag_46:\n        /* \"#utility.yul\":20345:20349   */\n      0x00\n        /* \"#utility.yul\":20383:20385   */\n      0x20\n        /* \"#utility.yul\":20372:20381   */\n      dup3\n        /* \"#utility.yul\":20368:20386   */\n      add\n        /* \"#utility.yul\":20360:20386   */\n      swap1\n      pop\n        /* \"#utility.yul\":20432:20441   */\n      dup2\n        /* \"#utility.yul\":20426:20430   */\n      dup2\n        /* \"#utility.yul\":20422:20442   */\n      sub\n        /* \"#utility.yul\":20418:20419   */\n      0x00\n        /* \"#utility.yul\":20407:20416   */\n      dup4\n        /* \"#utility.yul\":20403:20420   */\n      add\n        /* \"#utility.yul\":20396:20443   */\n      mstore\n        /* \"#utility.yul\":20460:20591   */\n      tag_511\n        /* \"#utility.yul\":20586:20590   */\n      dup2\n        /* \"#utility.yul\":20460:20591   */\n      tag_379\n      jump\t// in\n    tag_511:\n        /* \"#utility.yul\":20452:20591   */\n      swap1\n      pop\n        /* \"#utility.yul\":20350:20598   */\n      swap2\n      swap1\n      pop\n      jump\t// out\n        /* \"#utility.yul\":20604:21023   */\n    tag_83:\n        /* \"#utility.yul\":20770:20774   */\n      0x00\n        /* \"#utility.yul\":20808:20810   */\n      0x20\n        /* \"#utility.yul\":20797:20806   */\n      dup3\n        /* \"#utility.yul\":20793:20811   */\n      add\n        /* \"#utility.yul\":20785:20811   */\n      swap1\n      pop\n        /* \"#utility.yul\":20857:20866   */\n      dup2\n        /* \"#utility.yul\":20851:20855   */\n      dup2\n        /* \"#utility.yul\":20847:20867   */\n      sub\n        /* \"#utility.yul\":20843:20844   */\n      0x00\n        /* \"#utility.yul\":20832:20841   */\n      dup4\n        /* \"#utility.yul\":20828:20845   */\n      add\n        /* \"#utility.yul\":20821:20868   */\n      mstore\n        /* \"#utility.yul\":20885:21016   */\n      tag_513\n        /* \"#utility.yul\":21011:21015   */\n      dup2\n        /* \"#utility.yul\":20885:21016   */\n      tag_384\n      jump\t// in\n    tag_513:\n        /* \"#utility.yul\":20877:21016   */\n      swap1\n      pop\n        /* \"#utility.yul\":20775:21023   */\n      swap2\n      swap1\n      pop\n      jump\t// out\n        /* \"#utility.yul\":21029:21448   */\n    tag_32:\n        /* \"#utility.yul\":21195:21199   */\n      0x00\n        /* \"#utility.yul\":21233:21235   */\n      0x20\n        /* \"#utility.yul\":21222:21231   */\n      dup3\n        /* \"#utility.yul\":21218:21236   */\n      add\n        /* \"#utility.yul\":21210:21236   */\n      swap1\n      pop\n        /* \"#utility.yul\":21282:21291   */\n      dup2\n        /* \"#utility.yul\":21276:21280   */\n      dup2\n        /* \"#utility.yul\":21272:21292   */\n      sub\n        /* \"#utility.yul\":21268:21269   */\n      0x00\n        /* \"#utility.yul\":21257:21266   */\n      dup4\n        /* \"#utility.yul\":21253:21270   */\n      add\n        /* \"#utility.yul\":21246:21293   */\n      mstore\n        /* \"#utility.yul\":21310:21441   */\n      tag_515\n        /* \"#utility.yul\":21436:21440   */\n      dup2\n        /* \"#utility.yul\":21310:21441   */\n      tag_389\n      jump\t// in\n    tag_515:\n        /* \"#utility.yul\":21302:21441   */\n      swap1\n      pop\n        /* \"#utility.yul\":21200:21448   */\n      swap2\n      swap1\n      pop\n      jump\t// out\n        /* \"#utility.yul\":21454:21873   */\n    tag_235:\n        /* \"#utility.yul\":21620:21624   */\n      0x00\n        /* \"#utility.yul\":21658:21660   */\n      0x20\n        /* \"#utility.yul\":21647:21656   */\n      dup3\n        /* \"#utility.yul\":21643:21661   */\n      add\n        /* \"#utility.yul\":21635:21661   */\n      swap1\n      pop\n        /* \"#utility.yul\":21707:21716   */\n      dup2\n        /* \"#utility.yul\":21701:21705   */\n      dup2\n        /* \"#utility.yul\":21697:21717   */\n      sub\n        /* \"#utility.yul\":21693:21694   */\n      0x00\n        /* \"#utility.yul\":21682:21691   */\n      dup4\n        /* \"#utility.yul\":21678:21695   */\n      add\n        /* \"#utility.yul\":21671:21718   */\n      mstore\n        /* \"#utility.yul\":21735:21866   */\n      tag_517\n        /* \"#utility.yul\":21861:21865   */\n      dup2\n        /* \"#utility.yul\":21735:21866   */\n      tag_394\n      jump\t// in\n    tag_517:\n        /* \"#utility.yul\":21727:21866   */\n      swap1\n      pop\n        /* \"#utility.yul\":21625:21873   */\n      swap2\n      swap1\n      pop\n      jump\t// out\n        /* \"#utility.yul\":21879:22298   */\n    tag_112:\n        /* \"#utility.yul\":22045:22049   */\n      0x00\n        /* \"#utility.yul\":22083:22085   */\n      0x20\n        /* \"#utility.yul\":22072:22081   */\n      dup3\n        /* \"#utility.yul\":22068:22086   */\n      add\n        /* \"#utility.yul\":22060:22086   */\n      swap1\n      pop\n        /* \"#utility.yul\":22132:22141   */\n      dup2\n        /* \"#utility.yul\":22126:22130   */\n      dup2\n        /* \"#utility.yul\":22122:22142   */\n      sub\n        /* \"#utility.yul\":22118:22119   */\n      0x00\n        /* \"#utility.yul\":22107:22116   */\n      dup4\n        /* \"#utility.yul\":22103:22120   */\n      add\n        /* \"#utility.yul\":22096:22143   */\n      mstore\n        /* \"#utility.yul\":22160:22291   */\n      tag_519\n        /* \"#utility.yul\":22286:22290   */\n      dup2\n        /* \"#utility.yul\":22160:22291   */\n      tag_399\n      jump\t// in\n    tag_519:\n        /* \"#utility.yul\":22152:22291   */\n      swap1\n      pop\n        /* \"#utility.yul\":22050:22298   */\n      swap2\n      swap1\n      pop\n      jump\t// out\n        /* \"#utility.yul\":22304:22723   */\n    tag_156:\n        /* \"#utility.yul\":22470:22474   */\n      0x00\n        /* \"#utility.yul\":22508:22510   */\n      0x20\n        /* \"#utility.yul\":22497:22506   */\n      dup3\n        /* \"#utility.yul\":22493:22511   */\n      add\n        /* \"#utility.yul\":22485:22511   */\n      swap1\n      pop\n        /* \"#utility.yul\":22557:22566   */\n      dup2\n        /* \"#utility.yul\":22551:22555   */\n      dup2\n        /* \"#utility.yul\":22547:22567   */\n      sub\n        /* \"#utility.yul\":22543:22544   */\n      0x00\n        /* \"#utility.yul\":22532:22541   */\n      dup4\n        /* \"#utility.yul\":22528:22545   */\n      add\n        /* \"#utility.yul\":22521:22568   */\n      mstore\n        /* \"#utility.yul\":22585:22716   */\n      tag_521\n        /* \"#utility.yul\":22711:22715   */\n      dup2\n        /* \"#utility.yul\":22585:22716   */\n      tag_404\n      jump\t// in\n    tag_521:\n        /* \"#utility.yul\":22577:22716   */\n      swap1\n      pop\n        /* \"#utility.yul\":22475:22723   */\n      swap2\n      swap1\n      pop\n      jump\t// out\n        /* \"#utility.yul\":22729:23148   */\n    tag_188:\n        /* \"#utility.yul\":22895:22899   */\n      0x00\n        /* \"#utility.yul\":22933:22935   */\n      0x20\n        /* \"#utility.yul\":22922:22931   */\n      dup3\n        /* \"#utility.yul\":22918:22936   */\n      add\n        /* \"#utility.yul\":22910:22936   */\n      swap1\n      pop\n        /* \"#utility.yul\":22982:22991   */\n      dup2\n        /* \"#utility.yul\":22976:22980   */\n      dup2\n        /* \"#utility.yul\":22972:22992   */\n      sub\n        /* \"#utility.yul\":22968:22969   */\n      0x00\n        /* \"#utility.yul\":22957:22966   */\n      dup4\n        /* \"#utility.yul\":22953:22970   */\n      add\n        /* \"#utility.yul\":22946:22993   */\n      mstore\n        /* \"#utility.yul\":23010:23141   */\n      tag_523\n        /* \"#utility.yul\":23136:23140   */\n      dup2\n        /* \"#utility.yul\":23010:23141   */\n      tag_409\n      jump\t// in\n    tag_523:\n        /* \"#utility.yul\":23002:23141   */\n      swap1\n      pop\n        /* \"#utility.yul\":22900:23148   */\n      swap2\n      swap1\n      pop\n      jump\t// out\n        /* \"#utility.yul\":23154:23573   */\n    tag_243:\n        /* \"#utility.yul\":23320:23324   */\n      0x00\n        /* \"#utility.yul\":23358:23360   */\n      0x20\n        /* \"#utility.yul\":23347:23356   */\n      dup3\n        /* \"#utility.yul\":23343:23361   */\n      add\n        /* \"#utility.yul\":23335:23361   */\n      swap1\n      pop\n        /* \"#utility.yul\":23407:23416   */\n      dup2\n        /* \"#utility.yul\":23401:23405   */\n      dup2\n        /* \"#utility.yul\":23397:23417   */\n      sub\n        /* \"#utility.yul\":23393:23394   */\n      0x00\n        /* \"#utility.yul\":23382:23391   */\n      dup4\n        /* \"#utility.yul\":23378:23395   */\n      add\n        /* \"#utility.yul\":23371:23418   */\n      mstore\n        /* \"#utility.yul\":23435:23566   */\n      tag_525\n        /* \"#utility.yul\":23561:23565   */\n      dup2\n        /* \"#utility.yul\":23435:23566   */\n      tag_414\n      jump\t// in\n    tag_525:\n        /* \"#utility.yul\":23427:23566   */\n      swap1\n      pop\n        /* \"#utility.yul\":23325:23573   */\n      swap2\n      swap1\n      pop\n      jump\t// out\n        /* \"#utility.yul\":23579:23998   */\n    tag_135:\n        /* \"#utility.yul\":23745:23749   */\n      0x00\n        /* \"#utility.yul\":23783:23785   */\n      0x20\n        /* \"#utility.yul\":23772:23781   */\n      dup3\n        /* \"#utility.yul\":23768:23786   */\n      add\n        /* \"#utility.yul\":23760:23786   */\n      swap1\n      pop\n        /* \"#utility.yul\":23832:23841   */\n      dup2\n        /* \"#utility.yul\":23826:23830   */\n      dup2\n        /* \"#utility.yul\":23822:23842   */\n      sub\n        /* \"#utility.yul\":23818:23819   */\n      0x00\n        /* \"#utility.yul\":23807:23816   */\n      dup4\n        /* \"#utility.yul\":23803:23820   */\n      add\n        /* \"#utility.yul\":23796:23843   */\n      mstore\n        /* \"#utility.yul\":23860:23991   */\n      tag_527\n        /* \"#utility.yul\":23986:23990   */\n      dup2\n        /* \"#utility.yul\":23860:23991   */\n      tag_419\n      jump\t// in\n    tag_527:\n        /* \"#utility.yul\":23852:23991   */\n      swap1\n      pop\n        /* \"#utility.yul\":23750:23998   */\n      swap2\n      swap1\n      pop\n      jump\t// out\n        /* \"#utility.yul\":24004:24423   */\n    tag_41:\n        /* \"#utility.yul\":24170:24174   */\n      0x00\n        /* \"#utility.yul\":24208:24210   */\n      0x20\n        /* \"#utility.yul\":24197:24206   */\n      dup3\n        /* \"#utility.yul\":24193:24211   */\n      add\n        /* \"#utility.yul\":24185:24211   */\n      swap1\n      pop\n        /* \"#utility.yul\":24257:24266   */\n      dup2\n        /* \"#utility.yul\":24251:24255   */\n      dup2\n        /* \"#utility.yul\":24247:24267   */\n      sub\n        /* \"#utility.yul\":24243:24244   */\n      0x00\n        /* \"#utility.yul\":24232:24241   */\n      dup4\n        /* \"#utility.yul\":24228:24245   */\n      add\n        /* \"#utility.yul\":24221:24268   */\n      mstore\n        /* \"#utility.yul\":24285:24416   */\n      tag_529\n        /* \"#utility.yul\":24411:24415   */\n      dup2\n        /* \"#utility.yul\":24285:24416   */\n      tag_424\n      jump\t// in\n    tag_529:\n        /* \"#utility.yul\":24277:24416   */\n      swap1\n      pop\n        /* \"#utility.yul\":24175:24423   */\n      swap2\n      swap1\n      pop\n      jump\t// out\n        /* \"#utility.yul\":24429:24848   */\n    tag_139:\n        /* \"#utility.yul\":24595:24599   */\n      0x00\n        /* \"#utility.yul\":24633:24635   */\n      0x20\n        /* \"#utility.yul\":24622:24631   */\n      dup3\n        /* \"#utility.yul\":24618:24636   */\n      add\n        /* \"#utility.yul\":24610:24636   */\n      swap1\n      pop\n        /* \"#utility.yul\":24682:24691   */\n      dup2\n        /* \"#utility.yul\":24676:24680   */\n      dup2\n        /* \"#utility.yul\":24672:24692   */\n      sub\n        /* \"#utility.yul\":24668:24669   */\n      0x00\n        /* \"#utility.yul\":24657:24666   */\n      dup4\n        /* \"#utility.yul\":24653:24670   */\n      add\n        /* \"#utility.yul\":24646:24693   */\n      mstore\n        /* \"#utility.yul\":24710:24841   */\n      tag_531\n        /* \"#utility.yul\":24836:24840   */\n      dup2\n        /* \"#utility.yul\":24710:24841   */\n      tag_429\n      jump\t// in\n    tag_531:\n        /* \"#utility.yul\":24702:24841   */\n      swap1\n      pop\n        /* \"#utility.yul\":24600:24848   */\n      swap2\n      swap1\n      pop\n      jump\t// out\n        /* \"#utility.yul\":24854:25273   */\n    tag_104:\n        /* \"#utility.yul\":25020:25024   */\n      0x00\n        /* \"#utility.yul\":25058:25060   */\n      0x20\n        /* \"#utility.yul\":25047:25056   */\n      dup3\n        /* \"#utility.yul\":25043:25061   */\n      add\n        /* \"#utility.yul\":25035:25061   */\n      swap1\n      pop\n        /* \"#utility.yul\":25107:25116   */\n      dup2\n        /* \"#utility.yul\":25101:25105   */\n      dup2\n        /* \"#utility.yul\":25097:25117   */\n      sub\n        /* \"#utility.yul\":25093:25094   */\n      0x00\n        /* \"#utility.yul\":25082:25091   */\n      dup4\n        /* \"#utility.yul\":25078:25095   */\n      add\n        /* \"#utility.yul\":25071:25118   */\n      mstore\n        /* \"#utility.yul\":25135:25266   */\n      tag_533\n        /* \"#utility.yul\":25261:25265   */\n      dup2\n        /* \"#utility.yul\":25135:25266   */\n      tag_434\n      jump\t// in\n    tag_533:\n        /* \"#utility.yul\":25127:25266   */\n      swap1\n      pop\n        /* \"#utility.yul\":25025:25273   */\n      swap2\n      swap1\n      pop\n      jump\t// out\n        /* \"#utility.yul\":25279:25698   */\n    tag_73:\n        /* \"#utility.yul\":25445:25449   */\n      0x00\n        /* \"#utility.yul\":25483:25485   */\n      0x20\n        /* \"#utility.yul\":25472:25481   */\n      dup3\n        /* \"#utility.yul\":25468:25486   */\n      add\n        /* \"#utility.yul\":25460:25486   */\n      swap1\n      pop\n        /* \"#utility.yul\":25532:25541   */\n      dup2\n        /* \"#utility.yul\":25526:25530   */\n      dup2\n        /* \"#utility.yul\":25522:25542   */\n      sub\n        /* \"#utility.yul\":25518:25519   */\n      0x00\n        /* \"#utility.yul\":25507:25516   */\n      dup4\n        /* \"#utility.yul\":25503:25520   */\n      add\n        /* \"#utility.yul\":25496:25543   */\n      mstore\n        /* \"#utility.yul\":25560:25691   */\n      tag_535\n        /* \"#utility.yul\":25686:25690   */\n      dup2\n        /* \"#utility.yul\":25560:25691   */\n      tag_439\n      jump\t// in\n    tag_535:\n        /* \"#utility.yul\":25552:25691   */\n      swap1\n      pop\n        /* \"#utility.yul\":25450:25698   */\n      swap2\n      swap1\n      pop\n      jump\t// out\n        /* \"#utility.yul\":25704:26123   */\n    tag_98:\n        /* \"#utility.yul\":25870:25874   */\n      0x00\n        /* \"#utility.yul\":25908:25910   */\n      0x20\n        /* \"#utility.yul\":25897:25906   */\n      dup3\n        /* \"#utility.yul\":25893:25911   */\n      add\n        /* \"#utility.yul\":25885:25911   */\n      swap1\n      pop\n        /* \"#utility.yul\":25957:25966   */\n      dup2\n        /* \"#utility.yul\":25951:25955   */\n      dup2\n        /* \"#utility.yul\":25947:25967   */\n      sub\n        /* \"#utility.yul\":25943:25944   */\n      0x00\n        /* \"#utility.yul\":25932:25941   */\n      dup4\n        /* \"#utility.yul\":25928:25945   */\n      add\n        /* \"#utility.yul\":25921:25968   */\n      mstore\n        /* \"#utility.yul\":25985:26116   */\n      tag_537\n        /* \"#utility.yul\":26111:26115   */\n      dup2\n        /* \"#utility.yul\":25985:26116   */\n      tag_444\n      jump\t// in\n    tag_537:\n        /* \"#utility.yul\":25977:26116   */\n      swap1\n      pop\n        /* \"#utility.yul\":25875:26123   */\n      swap2\n      swap1\n      pop\n      jump\t// out\n        /* \"#utility.yul\":26129:26258   */\n    tag_262:\n        /* \"#utility.yul\":26163:26169   */\n      0x00\n        /* \"#utility.yul\":26190:26210   */\n      tag_539\n      tag_540\n      jump\t// in\n    tag_539:\n        /* \"#utility.yul\":26180:26210   */\n      swap1\n      pop\n        /* \"#utility.yul\":26219:26252   */\n      tag_541\n        /* \"#utility.yul\":26247:26251   */\n      dup3\n        /* \"#utility.yul\":26239:26245   */\n      dup3\n        /* \"#utility.yul\":26219:26252   */\n      tag_542\n      jump\t// in\n    tag_541:\n        /* \"#utility.yul\":26170:26258   */\n      swap2\n      swap1\n      pop\n      jump\t// out\n        /* \"#utility.yul\":26264:26339   */\n    tag_540:\n        /* \"#utility.yul\":26297:26303   */\n      0x00\n        /* \"#utility.yul\":26330:26332   */\n      0x40\n        /* \"#utility.yul\":26324:26333   */\n      mload\n        /* \"#utility.yul\":26314:26333   */\n      swap1\n      pop\n        /* \"#utility.yul\":26304:26339   */\n      swap1\n      jump\t// out\n        /* \"#utility.yul\":26345:26652   */\n    tag_261:\n        /* \"#utility.yul\":26406:26410   */\n      0x00\n        /* \"#utility.yul\":26496:26514   */\n      0xffffffffffffffff\n        /* \"#utility.yul\":26488:26494   */\n      dup3\n        /* \"#utility.yul\":26485:26515   */\n      gt\n        /* \"#utility.yul\":26482:26484   */\n      iszero\n      tag_545\n      jumpi\n        /* \"#utility.yul\":26518:26536   */\n      tag_546\n      tag_547\n      jump\t// in\n    tag_546:\n        /* \"#utility.yul\":26482:26484   */\n    tag_545:\n        /* \"#utility.yul\":26556:26585   */\n      tag_548\n        /* \"#utility.yul\":26578:26584   */\n      dup3\n        /* \"#utility.yul\":26556:26585   */\n      tag_549\n      jump\t// in\n    tag_548:\n        /* \"#utility.yul\":26548:26585   */\n      swap1\n      pop\n        /* \"#utility.yul\":26640:26644   */\n      0x20\n        /* \"#utility.yul\":26634:26638   */\n      dup2\n        /* \"#utility.yul\":26630:26645   */\n      add\n        /* \"#utility.yul\":26622:26645   */\n      swap1\n      pop\n        /* \"#utility.yul\":26411:26652   */\n      swap2\n      swap1\n      pop\n      jump\t// out\n        /* \"#utility.yul\":26658:26827   */\n    tag_350:\n        /* \"#utility.yul\":26742:26753   */\n      0x00\n        /* \"#utility.yul\":26776:26782   */\n      dup3\n        /* \"#utility.yul\":26771:26774   */\n      dup3\n        /* \"#utility.yul\":26764:26783   */\n      mstore\n        /* \"#utility.yul\":26816:26820   */\n      0x20\n        /* \"#utility.yul\":26811:26814   */\n      dup3\n        /* \"#utility.yul\":26807:26821   */\n      add\n        /* \"#utility.yul\":26792:26821   */\n      swap1\n      pop\n        /* \"#utility.yul\":26754:26827   */\n      swap3\n      swap2\n      pop\n      pop\n      jump\t// out\n        /* \"#utility.yul\":26833:26981   */\n    tag_371:\n        /* \"#utility.yul\":26935:26946   */\n      0x00\n        /* \"#utility.yul\":26972:26975   */\n      dup2\n        /* \"#utility.yul\":26957:26975   */\n      swap1\n      pop\n        /* \"#utility.yul\":26947:26981   */\n      swap3\n      swap2\n      pop\n      pop\n      jump\t// out\n        /* \"#utility.yul\":26987:27292   */\n    tag_80:\n        /* \"#utility.yul\":27027:27030   */\n      0x00\n        /* \"#utility.yul\":27046:27066   */\n      tag_553\n        /* \"#utility.yul\":27064:27065   */\n      dup3\n        /* \"#utility.yul\":27046:27066   */\n      tag_452\n      jump\t// in\n    tag_553:\n        /* \"#utility.yul\":27041:27066   */\n      swap2\n      pop\n        /* \"#utility.yul\":27080:27100   */\n      tag_554\n        /* \"#utility.yul\":27098:27099   */\n      dup4\n        /* \"#utility.yul\":27080:27100   */\n      tag_452\n      jump\t// in\n    tag_554:\n        /* \"#utility.yul\":27075:27100   */\n      swap3\n      pop\n        /* \"#utility.yul\":27234:27235   */\n      dup3\n        /* \"#utility.yul\":27166:27232   */\n      0xffffffffffffffffffffffffffffffffffffffffffffffffffffffffffffffff\n        /* \"#utility.yul\":27162:27236   */\n      sub\n        /* \"#utility.yul\":27159:27160   */\n      dup3\n        /* \"#utility.yul\":27156:27237   */\n      gt\n        /* \"#utility.yul\":27153:27155   */\n      iszero\n      tag_555\n      jumpi\n        /* \"#utility.yul\":27240:27258   */\n      tag_556\n      tag_557\n      jump\t// in\n    tag_556:\n        /* \"#utility.yul\":27153:27155   */\n    tag_555:\n        /* \"#utility.yul\":27284:27285   */\n      dup3\n        /* \"#utility.yul\":27281:27282   */\n      dup3\n        /* \"#utility.yul\":27277:27286   */\n      add\n        /* \"#utility.yul\":27270:27286   */\n      swap1\n      pop\n        /* \"#utility.yul\":27031:27292   */\n      swap3\n      swap2\n      pop\n      pop\n      jump\t// out\n        /* \"#utility.yul\":27298:27394   */\n    tag_328:\n        /* \"#utility.yul\":27335:27342   */\n      0x00\n        /* \"#utility.yul\":27364:27388   */\n      tag_559\n        /* \"#utility.yul\":27382:27387   */\n      dup3\n        /* \"#utility.yul\":27364:27388   */\n      tag_560\n      jump\t// in\n    tag_559:\n        /* \"#utility.yul\":27353:27388   */\n      swap1\n      pop\n        /* \"#utility.yul\":27343:27394   */\n      swap2\n      swap1\n      pop\n      jump\t// out\n        /* \"#utility.yul\":27400:27490   */\n    tag_561:\n        /* \"#utility.yul\":27434:27441   */\n      0x00\n        /* \"#utility.yul\":27477:27482   */\n      dup2\n        /* \"#utility.yul\":27470:27483   */\n      iszero\n        /* \"#utility.yul\":27463:27484   */\n      iszero\n        /* \"#utility.yul\":27452:27484   */\n      swap1\n      pop\n        /* \"#utility.yul\":27442:27490   */\n      swap2\n      swap1\n      pop\n      jump\t// out\n        /* \"#utility.yul\":27496:27573   */\n    tag_337:\n        /* \"#utility.yul\":27533:27540   */\n      0x00\n        /* \"#utility.yul\":27562:27567   */\n      dup2\n        /* \"#utility.yul\":27551:27567   */\n      swap1\n      pop\n        /* \"#utility.yul\":27541:27573   */\n      swap2\n      swap1\n      pop\n      jump\t// out\n        /* \"#utility.yul\":27579:27724   */\n    tag_564:\n        /* \"#utility.yul\":27633:27640   */\n      0x00\n        /* \"#utility.yul\":27662:27667   */\n      dup2\n        /* \"#utility.yul\":27651:27667   */\n      swap1\n      pop\n        /* \"#utility.yul\":27668:27718   */\n      tag_566\n        /* \"#utility.yul\":27712:27717   */\n      dup3\n        /* \"#utility.yul\":27668:27718   */\n      tag_567\n      jump\t// in\n    tag_566:\n        /* \"#utility.yul\":27641:27724   */\n      swap2\n      swap1\n      pop\n      jump\t// out\n        /* \"#utility.yul\":27730:27856   */\n    tag_560:\n        /* \"#utility.yul\":27767:27774   */\n      0x00\n        /* \"#utility.yul\":27807:27849   */\n      0xffffffffffffffffffffffffffffffffffffffff\n        /* \"#utility.yul\":27800:27805   */\n      dup3\n        /* \"#utility.yul\":27796:27850   */\n      and\n        /* \"#utility.yul\":27785:27850   */\n      swap1\n      pop\n        /* \"#utility.yul\":27775:27856   */\n      swap2\n      swap1\n      pop\n      jump\t// out\n        /* \"#utility.yul\":27862:27939   */\n    tag_452:\n        /* \"#utility.yul\":27899:27906   */\n      0x00\n        /* \"#utility.yul\":27928:27933   */\n      dup2\n        /* \"#utility.yul\":27917:27933   */\n      swap1\n      pop\n        /* \"#utility.yul\":27907:27939   */\n      swap2\n      swap1\n      pop\n      jump\t// out\n        /* \"#utility.yul\":27945:28031   */\n    tag_461:\n        /* \"#utility.yul\":27980:27987   */\n      0x00\n        /* \"#utility.yul\":28020:28024   */\n      0xff\n        /* \"#utility.yul\":28013:28018   */\n      dup3\n        /* \"#utility.yul\":28009:28025   */\n      and\n        /* \"#utility.yul\":27998:28025   */\n      swap1\n      pop\n        /* \"#utility.yul\":27988:28031   */\n      swap2\n      swap1\n      pop\n      jump\t// out\n        /* \"#utility.yul\":28037:28182   */\n    tag_346:\n        /* \"#utility.yul\":28102:28111   */\n      0x00\n        /* \"#utility.yul\":28135:28176   */\n      tag_572\n        /* \"#utility.yul\":28170:28175   */\n      dup3\n        /* \"#utility.yul\":28135:28176   */\n      tag_564\n      jump\t// in\n    tag_572:\n        /* \"#utility.yul\":28122:28176   */\n      swap1\n      pop\n        /* \"#utility.yul\":28112:28182   */\n      swap2\n      swap1\n      pop\n      jump\t// out\n        /* \"#utility.yul\":28188:28342   */\n    tag_267:\n        /* \"#utility.yul\":28272:28278   */\n      dup3\n        /* \"#utility.yul\":28267:28270   */\n      dup2\n        /* \"#utility.yul\":28262:28265   */\n      dup4\n        /* \"#utility.yul\":28249:28279   */\n      calldatacopy\n        /* \"#utility.yul\":28334:28335   */\n      0x00\n        /* \"#utility.yul\":28325:28331   */\n      dup4\n        /* \"#utility.yul\":28320:28323   */\n      dup4\n        /* \"#utility.yul\":28316:28332   */\n      add\n        /* \"#utility.yul\":28309:28336   */\n      mstore\n        /* \"#utility.yul\":28239:28342   */\n      pop\n      pop\n      pop\n      jump\t// out\n        /* \"#utility.yul\":28348:28629   */\n    tag_542:\n        /* \"#utility.yul\":28431:28458   */\n      tag_575\n        /* \"#utility.yul\":28453:28457   */\n      dup3\n        /* \"#utility.yul\":28431:28458   */\n      tag_549\n      jump\t// in\n    tag_575:\n        /* \"#utility.yul\":28423:28429   */\n      dup2\n        /* \"#utility.yul\":28419:28459   */\n      add\n        /* \"#utility.yul\":28561:28567   */\n      dup2\n        /* \"#utility.yul\":28549:28559   */\n      dup2\n        /* \"#utility.yul\":28546:28568   */\n      lt\n        /* \"#utility.yul\":28525:28543   */\n      0xffffffffffffffff\n        /* \"#utility.yul\":28513:28523   */\n      dup3\n        /* \"#utility.yul\":28510:28544   */\n      gt\n        /* \"#utility.yul\":28507:28569   */\n      or\n        /* \"#utility.yul\":28504:28506   */\n      iszero\n      tag_576\n      jumpi\n        /* \"#utility.yul\":28572:28590   */\n      tag_577\n      tag_547\n      jump\t// in\n    tag_577:\n        /* \"#utility.yul\":28504:28506   */\n    tag_576:\n        /* \"#utility.yul\":28612:28622   */\n      dup1\n        /* \"#utility.yul\":28608:28610   */\n      0x40\n        /* \"#utility.yul\":28601:28623   */\n      mstore\n        /* \"#utility.yul\":28391:28629   */\n      pop\n      pop\n      pop\n      jump\t// out\n        /* \"#utility.yul\":28635:28735   */\n    tag_333:\n        /* \"#utility.yul\":28674:28681   */\n      0x00\n        /* \"#utility.yul\":28703:28729   */\n      tag_579\n        /* \"#utility.yul\":28723:28728   */\n      dup3\n        /* \"#utility.yul\":28703:28729   */\n      tag_580\n      jump\t// in\n    tag_579:\n        /* \"#utility.yul\":28692:28729   */\n      swap1\n      pop\n        /* \"#utility.yul\":28682:28735   */\n      swap2\n      swap1\n      pop\n      jump\t// out\n        /* \"#utility.yul\":28741:28820   */\n    tag_342:\n        /* \"#utility.yul\":28780:28787   */\n      0x00\n        /* \"#utility.yul\":28809:28814   */\n      dup2\n        /* \"#utility.yul\":28798:28814   */\n      swap1\n      pop\n        /* \"#utility.yul\":28788:28820   */\n      swap2\n      swap1\n      pop\n      jump\t// out\n        /* \"#utility.yul\":28826:28920   */\n    tag_580:\n        /* \"#utility.yul\":28865:28872   */\n      0x00\n        /* \"#utility.yul\":28894:28914   */\n      tag_583\n        /* \"#utility.yul\":28908:28913   */\n      dup3\n        /* \"#utility.yul\":28894:28914   */\n      tag_584\n      jump\t// in\n    tag_583:\n        /* \"#utility.yul\":28883:28914   */\n      swap1\n      pop\n        /* \"#utility.yul\":28873:28920   */\n      swap2\n      swap1\n      pop\n      jump\t// out\n        /* \"#utility.yul\":28926:29005   */\n    tag_457:\n        /* \"#utility.yul\":28965:28972   */\n      0x00\n        /* \"#utility.yul\":28994:28999   */\n      dup2\n        /* \"#utility.yul\":28983:28999   */\n      swap1\n      pop\n        /* \"#utility.yul\":28973:29005   */\n      swap2\n      swap1\n      pop\n      jump\t// out\n        /* \"#utility.yul\":29011:29191   */\n    tag_557:\n        /* \"#utility.yul\":29059:29136   */\n      0x4e487b7100000000000000000000000000000000000000000000000000000000\n        /* \"#utility.yul\":29056:29057   */\n      0x00\n        /* \"#utility.yul\":29049:29137   */\n      mstore\n        /* \"#utility.yul\":29156:29160   */\n      0x11\n        /* \"#utility.yul\":29153:29154   */\n      0x04\n        /* \"#utility.yul\":29146:29161   */\n      mstore\n        /* \"#utility.yul\":29180:29184   */\n      0x24\n        /* \"#utility.yul\":29177:29178   */\n      0x00\n        /* \"#utility.yul\":29170:29185   */\n      revert\n        /* \"#utility.yul\":29197:29377   */\n    tag_36:\n        /* \"#utility.yul\":29245:29322   */\n      0x4e487b7100000000000000000000000000000000000000000000000000000000\n        /* \"#utility.yul\":29242:29243   */\n      0x00\n        /* \"#utility.yul\":29235:29323   */\n      mstore\n        /* \"#utility.yul\":29342:29346   */\n      0x21\n        /* \"#utility.yul\":29339:29340   */\n      0x04\n        /* \"#utility.yul\":29332:29347   */\n      mstore\n        /* \"#utility.yul\":29366:29370   */\n      0x24\n        /* \"#utility.yul\":29363:29364   */\n      0x00\n        /* \"#utility.yul\":29356:29371   */\n      revert\n        /* \"#utility.yul\":29383:29563   */\n    tag_547:\n        /* \"#utility.yul\":29431:29508   */\n      0x4e487b7100000000000000000000000000000000000000000000000000000000\n        /* \"#utility.yul\":29428:29429   */\n      0x00\n        /* \"#utility.yul\":29421:29509   */\n      mstore\n        /* \"#utility.yul\":29528:29532   */\n      0x41\n        /* \"#utility.yul\":29525:29526   */\n      0x04\n        /* \"#utility.yul\":29518:29533   */\n      mstore\n        /* \"#utility.yul\":29552:29556   */\n      0x24\n        /* \"#utility.yul\":29549:29550   */\n      0x00\n        /* \"#utility.yul\":29542:29557   */\n      revert\n        /* \"#utility.yul\":29569:29686   */\n    tag_284:\n        /* \"#utility.yul\":29678:29679   */\n      0x00\n        /* \"#utility.yul\":29675:29676   */\n      dup1\n        /* \"#utility.yul\":29668:29680   */\n      revert\n        /* \"#utility.yul\":29692:29809   */\n    tag_265:\n        /* \"#utility.yul\":29801:29802   */\n      0x00\n        /* \"#utility.yul\":29798:29799   */\n      dup1\n        /* \"#utility.yul\":29791:29803   */\n      revert\n        /* \"#utility.yul\":29815:29932   */\n    tag_320:\n        /* \"#utility.yul\":29924:29925   */\n      0x00\n        /* \"#utility.yul\":29921:29922   */\n      dup1\n        /* \"#utility.yul\":29914:29926   */\n      revert\n        /* \"#utility.yul\":29938:30055   */\n    tag_293:\n        /* \"#utility.yul\":30047:30048   */\n      0x00\n        /* \"#utility.yul\":30044:30045   */\n      dup1\n        /* \"#utility.yul\":30037:30049   */\n      revert\n        /* \"#utility.yul\":30061:30163   */\n    tag_549:\n        /* \"#utility.yul\":30102:30108   */\n      0x00\n        /* \"#utility.yul\":30153:30155   */\n      0x1f\n        /* \"#utility.yul\":30149:30156   */\n      not\n        /* \"#utility.yul\":30144:30146   */\n      0x1f\n        /* \"#utility.yul\":30137:30142   */\n      dup4\n        /* \"#utility.yul\":30133:30147   */\n      add\n        /* \"#utility.yul\":30129:30157   */\n      and\n        /* \"#utility.yul\":30119:30157   */\n      swap1\n      pop\n        /* \"#utility.yul\":30109:30163   */\n      swap2\n      swap1\n      pop\n      jump\t// out\n        /* \"#utility.yul\":30169:30263   */\n    tag_584:\n        /* \"#utility.yul\":30202:30210   */\n      0x00\n        /* \"#utility.yul\":30250:30255   */\n      dup2\n        /* \"#utility.yul\":30246:30248   */\n      0x60\n        /* \"#utility.yul\":30242:30256   */\n      shl\n        /* \"#utility.yul\":30221:30256   */\n      swap1\n      pop\n        /* \"#utility.yul\":30211:30263   */\n      swap2\n      swap1\n      pop\n      jump\t// out\n        /* \"#utility.yul\":30269:30443   */\n    tag_352:\n        /* \"#utility.yul\":30409:30435   */\n      0x45434453413a20696e76616c6964207369676e61747572650000000000000000\n        /* \"#utility.yul\":30405:30406   */\n      0x00\n        /* \"#utility.yul\":30397:30403   */\n      dup3\n        /* \"#utility.yul\":30393:30407   */\n      add\n        /* \"#utility.yul\":30386:30436   */\n      mstore\n        /* \"#utility.yul\":30375:30443   */\n      pop\n      jump\t// out\n        /* \"#utility.yul\":30449:30673   */\n    tag_357:\n        /* \"#utility.yul\":30589:30623   */\n      0x596f752063616e6e6f74206a6f696e20746f20746865206368616e6e656c2074\n        /* \"#utility.yul\":30585:30586   */\n      0x00\n        /* \"#utility.yul\":30577:30583   */\n      dup3\n        /* \"#utility.yul\":30573:30587   */\n      add\n        /* \"#utility.yul\":30566:30624   */\n      mstore\n        /* \"#utility.yul\":30658:30665   */\n      0x776963652e000000000000000000000000000000000000000000000000000000\n        /* \"#utility.yul\":30653:30655   */\n      0x20\n        /* \"#utility.yul\":30645:30651   */\n      dup3\n        /* \"#utility.yul\":30641:30656   */\n      add\n        /* \"#utility.yul\":30634:30666   */\n      mstore\n        /* \"#utility.yul\":30555:30673   */\n      pop\n      jump\t// out\n        /* \"#utility.yul\":30679:30926   */\n    tag_362:\n        /* \"#utility.yul\":30819:30853   */\n      0x546865206c6177206f6620636f6e736572766174696f6e206f6620746f74616c\n        /* \"#utility.yul\":30815:30816   */\n      0x00\n        /* \"#utility.yul\":30807:30813   */\n      dup3\n        /* \"#utility.yul\":30803:30817   */\n      add\n        /* \"#utility.yul\":30796:30854   */\n      mstore\n        /* \"#utility.yul\":30888:30918   */\n      0x2062616c616e63657320776173206e6f74207265737065637465642e00000000\n        /* \"#utility.yul\":30883:30885   */\n      0x20\n        /* \"#utility.yul\":30875:30881   */\n      dup3\n        /* \"#utility.yul\":30871:30886   */\n      add\n        /* \"#utility.yul\":30864:30919   */\n      mstore\n        /* \"#utility.yul\":30785:30926   */\n      pop\n      jump\t// out\n        /* \"#utility.yul\":30932:31113   */\n    tag_367:\n        /* \"#utility.yul\":31072:31105   */\n      0x45434453413a20696e76616c6964207369676e6174757265206c656e67746800\n        /* \"#utility.yul\":31068:31069   */\n      0x00\n        /* \"#utility.yul\":31060:31066   */\n      dup3\n        /* \"#utility.yul\":31056:31070   */\n      add\n        /* \"#utility.yul\":31049:31106   */\n      mstore\n        /* \"#utility.yul\":31038:31113   */\n      pop\n      jump\t// out\n        /* \"#utility.yul\":31119:31333   */\n    tag_373:\n        /* \"#utility.yul\":31259:31325   */\n      0x19457468657265756d205369676e6564204d6573736167653a0a333200000000\n        /* \"#utility.yul\":31255:31256   */\n      0x00\n        /* \"#utility.yul\":31247:31253   */\n      dup3\n        /* \"#utility.yul\":31243:31257   */\n      add\n        /* \"#utility.yul\":31236:31326   */\n      mstore\n        /* \"#utility.yul\":31225:31333   */\n      pop\n      jump\t// out\n        /* \"#utility.yul\":31339:31511   */\n    tag_378:\n        /* \"#utility.yul\":31479:31503   */\n      0x796f75206d757374206d616b65207061796d656e747300000000000000000000\n        /* \"#utility.yul\":31475:31476   */\n      0x00\n        /* \"#utility.yul\":31467:31473   */\n      dup3\n        /* \"#utility.yul\":31463:31477   */\n      add\n        /* \"#utility.yul\":31456:31504   */\n      mstore\n        /* \"#utility.yul\":31445:31511   */\n      pop\n      jump\t// out\n        /* \"#utility.yul\":31517:31742   */\n    tag_383:\n        /* \"#utility.yul\":31657:31691   */\n      0x596f7520617265206e6f74207061727469636970616e7420696e207468652063\n        /* \"#utility.yul\":31653:31654   */\n      0x00\n        /* \"#utility.yul\":31645:31651   */\n      dup3\n        /* \"#utility.yul\":31641:31655   */\n      add\n        /* \"#utility.yul\":31634:31692   */\n      mstore\n        /* \"#utility.yul\":31726:31734   */\n      0x68616e6e656c0000000000000000000000000000000000000000000000000000\n        /* \"#utility.yul\":31721:31723   */\n      0x20\n        /* \"#utility.yul\":31713:31719   */\n      dup3\n        /* \"#utility.yul\":31709:31724   */\n      add\n        /* \"#utility.yul\":31702:31735   */\n      mstore\n        /* \"#utility.yul\":31623:31742   */\n      pop\n      jump\t// out\n        /* \"#utility.yul\":31748:31910   */\n    tag_388:\n        /* \"#utility.yul\":31888:31902   */\n      0x54696d65206973204f7665720000000000000000000000000000000000000000\n        /* \"#utility.yul\":31884:31885   */\n      0x00\n        /* \"#utility.yul\":31876:31882   */\n      dup3\n        /* \"#utility.yul\":31872:31886   */\n      add\n        /* \"#utility.yul\":31865:31903   */\n      mstore\n        /* \"#utility.yul\":31854:31910   */\n      pop\n      jump\t// out\n        /* \"#utility.yul\":31916:32088   */\n    tag_393:\n        /* \"#utility.yul\":32056:32080   */\n      0x4368616e6e656c20646f65736e6f742065786973747300000000000000000000\n        /* \"#utility.yul\":32052:32053   */\n      0x00\n        /* \"#utility.yul\":32044:32050   */\n      dup3\n        /* \"#utility.yul\":32040:32054   */\n      add\n        /* \"#utility.yul\":32033:32081   */\n      mstore\n        /* \"#utility.yul\":32022:32088   */\n      pop\n      jump\t// out\n        /* \"#utility.yul\":32094:32315   */\n    tag_398:\n        /* \"#utility.yul\":32234:32268   */\n      0x45434453413a20696e76616c6964207369676e6174757265202773272076616c\n        /* \"#utility.yul\":32230:32231   */\n      0x00\n        /* \"#utility.yul\":32222:32228   */\n      dup3\n        /* \"#utility.yul\":32218:32232   */\n      add\n        /* \"#utility.yul\":32211:32269   */\n      mstore\n        /* \"#utility.yul\":32303:32307   */\n      0x7565000000000000000000000000000000000000000000000000000000000000\n        /* \"#utility.yul\":32298:32300   */\n      0x20\n        /* \"#utility.yul\":32290:32296   */\n      dup3\n        /* \"#utility.yul\":32286:32301   */\n      add\n        /* \"#utility.yul\":32279:32308   */\n      mstore\n        /* \"#utility.yul\":32200:32315   */\n      pop\n      jump\t// out\n        /* \"#utility.yul\":32321:32548   */\n    tag_403:\n        /* \"#utility.yul\":32461:32495   */\n      0x7061727469636970616e7473206d757374206861766520646966666572656e74\n        /* \"#utility.yul\":32457:32458   */\n      0x00\n        /* \"#utility.yul\":32449:32455   */\n      dup3\n        /* \"#utility.yul\":32445:32459   */\n      add\n        /* \"#utility.yul\":32438:32496   */\n      mstore\n        /* \"#utility.yul\":32530:32540   */\n      0x2061646472657373000000000000000000000000000000000000000000000000\n        /* \"#utility.yul\":32525:32527   */\n      0x20\n        /* \"#utility.yul\":32517:32523   */\n      dup3\n        /* \"#utility.yul\":32513:32528   */\n      add\n        /* \"#utility.yul\":32506:32541   */\n      mstore\n        /* \"#utility.yul\":32427:32548   */\n      pop\n      jump\t// out\n        /* \"#utility.yul\":32554:32736   */\n    tag_408:\n        /* \"#utility.yul\":32694:32728   */\n      0x546865206368616e6e656c2073686f756c64206e6f7420626520636c6f736564\n        /* \"#utility.yul\":32690:32691   */\n      0x00\n        /* \"#utility.yul\":32682:32688   */\n      dup3\n        /* \"#utility.yul\":32678:32692   */\n      add\n        /* \"#utility.yul\":32671:32729   */\n      mstore\n        /* \"#utility.yul\":32660:32736   */\n      pop\n      jump\t// out\n        /* \"#utility.yul\":32742:32907   */\n    tag_413:\n        /* \"#utility.yul\":32882:32899   */\n      0x43616e6e6f74205472616e736665720000000000000000000000000000000000\n        /* \"#utility.yul\":32878:32879   */\n      0x00\n        /* \"#utility.yul\":32870:32876   */\n      dup3\n        /* \"#utility.yul\":32866:32880   */\n      add\n        /* \"#utility.yul\":32859:32900   */\n      mstore\n        /* \"#utility.yul\":32848:32907   */\n      pop\n      jump\t// out\n        /* \"#utility.yul\":32913:33134   */\n    tag_418:\n        /* \"#utility.yul\":33053:33087   */\n      0x45434453413a20696e76616c6964207369676e6174757265202776272076616c\n        /* \"#utility.yul\":33049:33050   */\n      0x00\n        /* \"#utility.yul\":33041:33047   */\n      dup3\n        /* \"#utility.yul\":33037:33051   */\n      add\n        /* \"#utility.yul\":33030:33088   */\n      mstore\n        /* \"#utility.yul\":33122:33126   */\n      0x7565000000000000000000000000000000000000000000000000000000000000\n        /* \"#utility.yul\":33117:33119   */\n      0x20\n        /* \"#utility.yul\":33109:33115   */\n      dup3\n        /* \"#utility.yul\":33105:33120   */\n      add\n        /* \"#utility.yul\":33098:33127   */\n      mstore\n        /* \"#utility.yul\":33019:33134   */\n      pop\n      jump\t// out\n        /* \"#utility.yul\":33140:33316   */\n    tag_423:\n        /* \"#utility.yul\":33280:33308   */\n      0x4275796572207369676e617475726520697320696e76616c6964000000000000\n        /* \"#utility.yul\":33276:33277   */\n      0x00\n        /* \"#utility.yul\":33268:33274   */\n      dup3\n        /* \"#utility.yul\":33264:33278   */\n      add\n        /* \"#utility.yul\":33257:33309   */\n      mstore\n        /* \"#utility.yul\":33246:33316   */\n      pop\n      jump\t// out\n        /* \"#utility.yul\":33322:33495   */\n    tag_428:\n        /* \"#utility.yul\":33462:33487   */\n      0x546865206368616e6e656c206973206e6f74206f70656e000000000000000000\n        /* \"#utility.yul\":33458:33459   */\n      0x00\n        /* \"#utility.yul\":33450:33456   */\n      dup3\n        /* \"#utility.yul\":33446:33460   */\n      add\n        /* \"#utility.yul\":33439:33488   */\n      mstore\n        /* \"#utility.yul\":33428:33495   */\n      pop\n      jump\t// out\n        /* \"#utility.yul\":33501:33678   */\n    tag_433:\n        /* \"#utility.yul\":33641:33670   */\n      0x53656c6c6572207369676e617475726520697320696e76616c69640000000000\n        /* \"#utility.yul\":33637:33638   */\n      0x00\n        /* \"#utility.yul\":33629:33635   */\n      dup3\n        /* \"#utility.yul\":33625:33639   */\n      add\n        /* \"#utility.yul\":33618:33671   */\n      mstore\n        /* \"#utility.yul\":33607:33678   */\n      pop\n      jump\t// out\n        /* \"#utility.yul\":33684:33851   */\n    tag_438:\n        /* \"#utility.yul\":33824:33843   */\n      0x496e636f727265637420616d6f756e742e000000000000000000000000000000\n        /* \"#utility.yul\":33820:33821   */\n      0x00\n        /* \"#utility.yul\":33812:33818   */\n      dup3\n        /* \"#utility.yul\":33808:33822   */\n      add\n        /* \"#utility.yul\":33801:33844   */\n      mstore\n        /* \"#utility.yul\":33790:33851   */\n      pop\n      jump\t// out\n        /* \"#utility.yul\":33857:34028   */\n    tag_443:\n        /* \"#utility.yul\":33997:34020   */\n      0x4368616e6e656c206973206e6f74206163746976650000000000000000000000\n        /* \"#utility.yul\":33993:33994   */\n      0x00\n        /* \"#utility.yul\":33985:33991   */\n      dup3\n        /* \"#utility.yul\":33981:33995   */\n      add\n        /* \"#utility.yul\":33974:34021   */\n      mstore\n        /* \"#utility.yul\":33963:34028   */\n      pop\n      jump\t// out\n        /* \"#utility.yul\":34034:34270   */\n    tag_448:\n        /* \"#utility.yul\":34174:34208   */\n      0x546865206368616e6e656c2063726561746f7220646964276e74207370656369\n        /* \"#utility.yul\":34170:34171   */\n      0x00\n        /* \"#utility.yul\":34162:34168   */\n      dup3\n        /* \"#utility.yul\":34158:34172   */\n      add\n        /* \"#utility.yul\":34151:34209   */\n      mstore\n        /* \"#utility.yul\":34243:34262   */\n      0x667920796f752061732073656c6c65722e000000000000000000000000000000\n        /* \"#utility.yul\":34238:34240   */\n      0x20\n        /* \"#utility.yul\":34230:34236   */\n      dup3\n        /* \"#utility.yul\":34226:34241   */\n      add\n        /* \"#utility.yul\":34219:34263   */\n      mstore\n        /* \"#utility.yul\":34140:34270   */\n      pop\n      jump\t// out\n        /* \"#utility.yul\":34276:34398   */\n    tag_567:\n        /* \"#utility.yul\":34366:34367   */\n      0x03\n        /* \"#utility.yul\":34359:34364   */\n      dup2\n        /* \"#utility.yul\":34356:34368   */\n      lt\n        /* \"#utility.yul\":34346:34348   */\n      tag_616\n      jumpi\n        /* \"#utility.yul\":34372:34390   */\n      tag_617\n      tag_36\n      jump\t// in\n    tag_617:\n        /* \"#utility.yul\":34346:34348   */\n    tag_616:\n        /* \"#utility.yul\":34336:34398   */\n      pop\n      jump\t// out\n        /* \"#utility.yul\":34404:34526   */\n    tag_271:\n        /* \"#utility.yul\":34477:34501   */\n      tag_619\n        /* \"#utility.yul\":34495:34500   */\n      dup2\n        /* \"#utility.yul\":34477:34501   */\n      tag_328\n      jump\t// in\n    tag_619:\n        /* \"#utility.yul\":34470:34475   */\n      dup2\n        /* \"#utility.yul\":34467:34502   */\n      eq\n        /* \"#utility.yul\":34457:34459   */\n      tag_620\n      jumpi\n        /* \"#utility.yul\":34516:34517   */\n      0x00\n        /* \"#utility.yul\":34513:34514   */\n      dup1\n        /* \"#utility.yul\":34506:34518   */\n      revert\n        /* \"#utility.yul\":34457:34459   */\n    tag_620:\n        /* \"#utility.yul\":34447:34526   */\n      pop\n      jump\t// out\n        /* \"#utility.yul\":34532:34648   */\n    tag_275:\n        /* \"#utility.yul\":34602:34623   */\n      tag_622\n        /* \"#utility.yul\":34617:34622   */\n      dup2\n        /* \"#utility.yul\":34602:34623   */\n      tag_561\n      jump\t// in\n    tag_622:\n        /* \"#utility.yul\":34595:34600   */\n      dup2\n        /* \"#utility.yul\":34592:34624   */\n      eq\n        /* \"#utility.yul\":34582:34584   */\n      tag_623\n      jumpi\n        /* \"#utility.yul\":34638:34639   */\n      0x00\n        /* \"#utility.yul\":34635:34636   */\n      dup1\n        /* \"#utility.yul\":34628:34640   */\n      revert\n        /* \"#utility.yul\":34582:34584   */\n    tag_623:\n        /* \"#utility.yul\":34572:34648   */\n      pop\n      jump\t// out\n        /* \"#utility.yul\":34654:34776   */\n    tag_279:\n        /* \"#utility.yul\":34727:34751   */\n      tag_625\n        /* \"#utility.yul\":34745:34750   */\n      dup2\n        /* \"#utility.yul\":34727:34751   */\n      tag_337\n      jump\t// in\n    tag_625:\n        /* \"#utility.yul\":34720:34725   */\n      dup2\n        /* \"#utility.yul\":34717:34752   */\n      eq\n        /* \"#utility.yul\":34707:34709   */\n      tag_626\n      jumpi\n        /* \"#utility.yul\":34766:34767   */\n      0x00\n        /* \"#utility.yul\":34763:34764   */\n      dup1\n        /* \"#utility.yul\":34756:34768   */\n      revert\n        /* \"#utility.yul\":34707:34709   */\n    tag_626:\n        /* \"#utility.yul\":34697:34776   */\n      pop\n      jump\t// out\n        /* \"#utility.yul\":34782:34904   */\n    tag_289:\n        /* \"#utility.yul\":34855:34879   */\n      tag_628\n        /* \"#utility.yul\":34873:34878   */\n      dup2\n        /* \"#utility.yul\":34855:34879   */\n      tag_452\n      jump\t// in\n    tag_628:\n        /* \"#utility.yul\":34848:34853   */\n      dup2\n        /* \"#utility.yul\":34845:34880   */\n      eq\n        /* \"#utility.yul\":34835:34837   */\n      tag_629\n      jumpi\n        /* \"#utility.yul\":34894:34895   */\n      0x00\n        /* \"#utility.yul\":34891:34892   */\n      dup1\n        /* \"#utility.yul\":34884:34896   */\n      revert\n        /* \"#utility.yul\":34835:34837   */\n    tag_629:\n        /* \"#utility.yul\":34825:34904   */\n      pop\n      jump\t// out\n\n    auxdata: 0xa2646970667358221220c8079b83c1d5c62011058519ff3c96807fb304c8fd39b5455d7f7b435ac972c164736f6c63430008060033\n}\n",
				"bytecode": {
					"linkReferences": {},
					"object": "608060405234801561001057600080fd5b50612c16806100206000396000f3fe608060405234801561001057600080fd5b50600436106100575760003560e01c8063283ffea01461005c57806330686fe81461007857806339495ecf146100945780637a7ebd7b146100b0578063d8d9965a146100e9575b600080fd5b61007660048036038101906100719190611c20565b610105565b005b610092600480360381019061008d9190611c20565b6104d8565b005b6100ae60048036038101906100a99190611be0565b6108d3565b005b6100ca60048036038101906100c59190611bb3565b610b68565b6040516100e09a9998979695949392919061216e565b60405180910390f35b61010360048036038101906100fe9190611b1f565b610c29565b005b856000801b600080838152602001908152602001600020600001541415610161576040517f08c379a00000000000000000000000000000000000000000000000000000000081526004016101589061232f565b60405180910390fd5b8660006002811115610176576101756126a2565b5b60008083815260200190815260200160002060090160009054906101000a900460ff1660028111156101ab576101aa6126a2565b5b146101eb576040517f08c379a00000000000000000000000000000000000000000000000000000000081526004016101e29061240f565b60405180910390fd5b8760008082815260200190815260200160002060020160009054906101000a900473ffffffffffffffffffffffffffffffffffffffff1673ffffffffffffffffffffffffffffffffffffffff163373ffffffffffffffffffffffffffffffffffffffff1614806102bb575060008082815260200190815260200160002060030160009054906101000a900473ffffffffffffffffffffffffffffffffffffffff1673ffffffffffffffffffffffffffffffffffffffff163373ffffffffffffffffffffffffffffffffffffffff16145b6102fa576040517f08c379a00000000000000000000000000000000000000000000000000000000081526004016102f1906122ef565b60405180910390fd5b610308898989898989610f5c565b610314898989896111ce565b60008060008b815260200190815260200160002060405180610140016040529081600082015481526020016001820160009054906101000a900473ffffffffffffffffffffffffffffffffffffffff1673ffffffffffffffffffffffffffffffffffffffff1673ffffffffffffffffffffffffffffffffffffffff1681526020016002820160009054906101000a900473ffffffffffffffffffffffffffffffffffffffff1673ffffffffffffffffffffffffffffffffffffffff1673ffffffffffffffffffffffffffffffffffffffff1681526020016003820160009054906101000a900473ffffffffffffffffffffffffffffffffffffffff1673ffffffffffffffffffffffffffffffffffffffff1673ffffffffffffffffffffffffffffffffffffffff16815260200160048201548152602001600582015481526020016006820154815260200160078201548152602001600882015481526020016009820160009054906101000a900460ff166002811115610497576104966126a2565b5b60028111156104a9576104a86126a2565b5b81525050905060008082610100015114905080156104cb576104ca8b6112aa565b5b5050505050505050505050565b856000801b600080838152602001908152602001600020600001541415610534576040517f08c379a000000000000000000000000000000000000000000000000000000000815260040161052b9061232f565b60405180910390fd5b8660008082815260200190815260200160002060020160009054906101000a900473ffffffffffffffffffffffffffffffffffffffff1673ffffffffffffffffffffffffffffffffffffffff163373ffffffffffffffffffffffffffffffffffffffff161480610604575060008082815260200190815260200160002060030160009054906101000a900473ffffffffffffffffffffffffffffffffffffffff1673ffffffffffffffffffffffffffffffffffffffff163373ffffffffffffffffffffffffffffffffffffffff16145b610643576040517f08c379a000000000000000000000000000000000000000000000000000000000815260040161063a906122ef565b60405180910390fd5b8760016002811115610658576106576126a2565b5b60008083815260200190815260200160002060090160009054906101000a900460ff16600281111561068d5761068c6126a2565b5b146106cd576040517f08c379a00000000000000000000000000000000000000000000000000000000081526004016106c49061246f565b60405180910390fd5b88600080600083815260200190815260200160002060405180610140016040529081600082015481526020016001820160009054906101000a900473ffffffffffffffffffffffffffffffffffffffff1673ffffffffffffffffffffffffffffffffffffffff1673ffffffffffffffffffffffffffffffffffffffff1681526020016002820160009054906101000a900473ffffffffffffffffffffffffffffffffffffffff1673ffffffffffffffffffffffffffffffffffffffff1673ffffffffffffffffffffffffffffffffffffffff1681526020016003820160009054906101000a900473ffffffffffffffffffffffffffffffffffffffff1673ffffffffffffffffffffffffffffffffffffffff1673ffffffffffffffffffffffffffffffffffffffff16815260200160048201548152602001600582015481526020016006820154815260200160078201548152602001600882015481526020016009820160009054906101000a900460ff166002811115610851576108506126a2565b5b6002811115610863576108626126a2565b5b81525050905060008161010001518260e001516108809190612521565b4211905080156108c5576040517f08c379a00000000000000000000000000000000000000000000000000000000081526004016108bc9061230f565b60405180910390fd5b505050505050505050505050565b816000801b60008083815260200190815260200160002060000154141561092f576040517f08c379a00000000000000000000000000000000000000000000000000000000081526004016109269061232f565b60405180910390fd5b8260006002811115610944576109436126a2565b5b60008083815260200190815260200160002060090160009054906101000a900460ff166002811115610979576109786126a2565b5b146109b9576040517f08c379a00000000000000000000000000000000000000000000000000000000081526004016109b09061240f565b60405180910390fd5b6000339050600080600087815260200190815260200160002090508173ffffffffffffffffffffffffffffffffffffffff168160030160009054906101000a900473ffffffffffffffffffffffffffffffffffffffff1673ffffffffffffffffffffffffffffffffffffffff1614610a66576040517f08c379a0000000000000000000000000000000000000000000000000000000008152600401610a5d9061248f565b60405180910390fd5b6000816005015414610aad576040517f08c379a0000000000000000000000000000000000000000000000000000000008152600401610aa49061226f565b60405180910390fd5b6000851015610af1576040517f08c379a0000000000000000000000000000000000000000000000000000000008152600401610ae89061244f565b60405180910390fd5b610b208160010160009054906101000a900473ffffffffffffffffffffffffffffffffffffffff168387611461565b8481600501819055507f0f95d1a0e16b2a02afb2c679641b33c436dc227961d7572876640cd2ec17937c86604051610b589190612153565b60405180910390a1505050505050565b60006020528060005260406000206000915090508060000154908060010160009054906101000a900473ffffffffffffffffffffffffffffffffffffffff16908060020160009054906101000a900473ffffffffffffffffffffffffffffffffffffffff16908060030160009054906101000a900473ffffffffffffffffffffffffffffffffffffffff16908060040154908060050154908060060154908060070154908060080154908060090160009054906101000a900460ff1690508a565b60003390508373ffffffffffffffffffffffffffffffffffffffff168173ffffffffffffffffffffffffffffffffffffffff161415610c9d576040517f08c379a0000000000000000000000000000000000000000000000000000000008152600401610c949061236f565b60405180910390fd5b6000831415610ce1576040517f08c379a0000000000000000000000000000000000000000000000000000000008152600401610cd8906122cf565b60405180910390fd5b600085858343604051602001610cfa9493929190612031565b60405160208183030381529060405280519060200120905060006040518061014001604052808381526020018873ffffffffffffffffffffffffffffffffffffffff1681526020018473ffffffffffffffffffffffffffffffffffffffff1681526020018773ffffffffffffffffffffffffffffffffffffffff16815260200186815260200160008152602001600081526020016000815260200185815260200160006002811115610daf57610dae6126a2565b5b8152509050610dc381602001518487611461565b806000808481526020019081526020016000206000820151816000015560208201518160010160006101000a81548173ffffffffffffffffffffffffffffffffffffffff021916908373ffffffffffffffffffffffffffffffffffffffff16021790555060408201518160020160006101000a81548173ffffffffffffffffffffffffffffffffffffffff021916908373ffffffffffffffffffffffffffffffffffffffff16021790555060608201518160030160006101000a81548173ffffffffffffffffffffffffffffffffffffffff021916908373ffffffffffffffffffffffffffffffffffffffff1602179055506080820151816004015560a0820151816005015560c0820151816006015560e0820151816007015561010082015181600801556101208201518160090160006101000a81548160ff02191690836002811115610f1457610f136126a2565b5b02179055509050507f7ffc675d721b8768e035a323722842743bb523487b535906abc97e6b3e2095d082604051610f4b9190612153565b60405180910390a150505050505050565b600080600088815260200190815260200160002060405180610140016040529081600082015481526020016001820160009054906101000a900473ffffffffffffffffffffffffffffffffffffffff1673ffffffffffffffffffffffffffffffffffffffff1673ffffffffffffffffffffffffffffffffffffffff1681526020016002820160009054906101000a900473ffffffffffffffffffffffffffffffffffffffff1673ffffffffffffffffffffffffffffffffffffffff1673ffffffffffffffffffffffffffffffffffffffff1681526020016003820160009054906101000a900473ffffffffffffffffffffffffffffffffffffffff1673ffffffffffffffffffffffffffffffffffffffff1673ffffffffffffffffffffffffffffffffffffffff16815260200160048201548152602001600582015481526020016006820154815260200160078201548152602001600882015481526020016009820160009054906101000a900460ff1660028111156110df576110de6126a2565b5b60028111156110f1576110f06126a2565b5b815250509050600087868689604051602001611110949392919061207f565b60405160208183030381529060405280519060200120905061113781858460400151611506565b611176576040517f08c379a000000000000000000000000000000000000000000000000000000000815260040161116d906123ef565b60405180910390fd5b61118581848460600151611506565b6111c4576040517f08c379a00000000000000000000000000000000000000000000000000000000081526004016111bb9061242f565b60405180910390fd5b5050505050505050565b60008060008681526020019081526020016000209050806005015481600401546111f89190612521565b82846112049190612521565b14611244576040517f08c379a000000000000000000000000000000000000000000000000000000000815260040161123b9061228f565b60405180910390fd5b838160060181905550828160040181905550818160050181905550600081600701541415611276574281600701819055505b60018160090160006101000a81548160ff0219169083600281111561129e5761129d6126a2565b5b02179055505050505050565b806002808111156112be576112bd6126a2565b5b60008083815260200190815260200160002060090160009054906101000a900460ff1660028111156112f3576112f26126a2565b5b1415611334576040517f08c379a000000000000000000000000000000000000000000000000000000000815260040161132b9061238f565b60405180910390fd5b6000806000848152602001908152602001600020905060028160090160006101000a81548160ff02191690836002811115611372576113716126a2565b5b02179055506113ce8160010160009054906101000a900473ffffffffffffffffffffffffffffffffffffffff168260020160009054906101000a900473ffffffffffffffffffffffffffffffffffffffff16836004015461155f565b6114258160010160009054906101000a900473ffffffffffffffffffffffffffffffffffffffff168260030160009054906101000a900473ffffffffffffffffffffffffffffffffffffffff16836005015461155f565b7fceeab2eef998c17fe96f30f83fbf3c55fc5047f6e40c55a0cf72d236e9d2ba72836040516114549190612153565b60405180910390a1505050565b60008111156115015760008390508073ffffffffffffffffffffffffffffffffffffffff166323b872dd8430856040518463ffffffff1660e01b81526004016114ac939291906120f3565b602060405180830381600087803b1580156114c657600080fd5b505af11580156114da573d6000803e3d6000fd5b505050506040513d601f19601f820116820180604052508101906114fe9190611b86565b50505b505050565b60008061151285611640565b90508273ffffffffffffffffffffffffffffffffffffffff1661153e858361167090919063ffffffff16565b73ffffffffffffffffffffffffffffffffffffffff16149150509392505050565b600081111561163b5760008390508073ffffffffffffffffffffffffffffffffffffffff1663a9059cbb84846040518363ffffffff1660e01b81526004016115a892919061212a565b602060405180830381600087803b1580156115c257600080fd5b505af11580156115d6573d6000803e3d6000fd5b505050506040513d601f19601f820116820180604052508101906115fa9190611b86565b611639576040517f08c379a0000000000000000000000000000000000000000000000000000000008152600401611630906123af565b60405180910390fd5b505b505050565b60008160405160200161165391906120cd565b604051602081830303815290604052805190602001209050919050565b600080600061167f8585611697565b9150915061168c8161171a565b819250505092915050565b6000806041835114156116d95760008060006020860151925060408601519150606086015160001a90506116cd878285856118ef565b94509450505050611713565b60408351141561170a5760008060208501519150604085015190506116ff8683836119fc565b935093505050611713565b60006002915091505b9250929050565b6000600481111561172e5761172d6126a2565b5b816004811115611741576117406126a2565b5b141561174c576118ec565b600160048111156117605761175f6126a2565b5b816004811115611773576117726126a2565b5b14156117b4576040517f08c379a00000000000000000000000000000000000000000000000000000000081526004016117ab9061224f565b60405180910390fd5b600260048111156117c8576117c76126a2565b5b8160048111156117db576117da6126a2565b5b141561181c576040517f08c379a0000000000000000000000000000000000000000000000000000000008152600401611813906122af565b60405180910390fd5b600360048111156118305761182f6126a2565b5b816004811115611843576118426126a2565b5b1415611884576040517f08c379a000000000000000000000000000000000000000000000000000000000815260040161187b9061234f565b60405180910390fd5b600480811115611897576118966126a2565b5b8160048111156118aa576118a96126a2565b5b14156118eb576040517f08c379a00000000000000000000000000000000000000000000000000000000081526004016118e2906123cf565b60405180910390fd5b5b50565b6000807f7fffffffffffffffffffffffffffffff5d576e7357a4501ddfe92f46681b20a08360001c111561192a5760006003915091506119f3565b601b8560ff16141580156119425750601c8560ff1614155b156119545760006004915091506119f3565b600060018787878760405160008152602001604052604051611979949392919061220a565b6020604051602081039080840390855afa15801561199b573d6000803e3d6000fd5b505050602060405103519050600073ffffffffffffffffffffffffffffffffffffffff168173ffffffffffffffffffffffffffffffffffffffff1614156119ea576000600192509250506119f3565b80600092509250505b94509492505050565b60008060007f7fffffffffffffffffffffffffffffffffffffffffffffffffffffffffffffff60001b841690506000601b60ff8660001c901c611a3f9190612521565b9050611a4d878288856118ef565b935093505050935093915050565b6000611a6e611a69846124d4565b6124af565b905082815260208101848484011115611a8a57611a89612705565b5b611a958482856125fb565b509392505050565b600081359050611aac81612b84565b92915050565b600081519050611ac181612b9b565b92915050565b600081359050611ad681612bb2565b92915050565b600082601f830112611af157611af0612700565b5b8135611b01848260208601611a5b565b91505092915050565b600081359050611b1981612bc9565b92915050565b60008060008060808587031215611b3957611b3861270f565b5b6000611b4787828801611a9d565b9450506020611b5887828801611a9d565b9350506040611b6987828801611b0a565b9250506060611b7a87828801611b0a565b91505092959194509250565b600060208284031215611b9c57611b9b61270f565b5b6000611baa84828501611ab2565b91505092915050565b600060208284031215611bc957611bc861270f565b5b6000611bd784828501611ac7565b91505092915050565b60008060408385031215611bf757611bf661270f565b5b6000611c0585828601611ac7565b9250506020611c1685828601611b0a565b9150509250929050565b60008060008060008060c08789031215611c3d57611c3c61270f565b5b6000611c4b89828a01611ac7565b9650506020611c5c89828a01611b0a565b9550506040611c6d89828a01611b0a565b9450506060611c7e89828a01611b0a565b935050608087013567ffffffffffffffff811115611c9f57611c9e61270a565b5b611cab89828a01611adc565b92505060a087013567ffffffffffffffff811115611ccc57611ccb61270a565b5b611cd889828a01611adc565b9150509295509295509295565b611cee81612577565b82525050565b611d05611d0082612577565b61263b565b82525050565b611d1481612595565b82525050565b611d2b611d2682612595565b61264d565b82525050565b611d3a816125e9565b82525050565b6000611d4d601883612505565b9150611d5882612732565b602082019050919050565b6000611d70602583612505565b9150611d7b8261275b565b604082019050919050565b6000611d93603c83612505565b9150611d9e826127aa565b604082019050919050565b6000611db6601f83612505565b9150611dc1826127f9565b602082019050919050565b6000611dd9601c83612516565b9150611de482612822565b601c82019050919050565b6000611dfc601683612505565b9150611e078261284b565b602082019050919050565b6000611e1f602683612505565b9150611e2a82612874565b604082019050919050565b6000611e42600c83612505565b9150611e4d826128c3565b602082019050919050565b6000611e65601683612505565b9150611e70826128ec565b602082019050919050565b6000611e88602283612505565b9150611e9382612915565b604082019050919050565b6000611eab602883612505565b9150611eb682612964565b604082019050919050565b6000611ece602083612505565b9150611ed9826129b3565b602082019050919050565b6000611ef1600f83612505565b9150611efc826129dc565b602082019050919050565b6000611f14602283612505565b9150611f1f82612a05565b604082019050919050565b6000611f37601a83612505565b9150611f4282612a54565b602082019050919050565b6000611f5a601783612505565b9150611f6582612a7d565b602082019050919050565b6000611f7d601b83612505565b9150611f8882612aa6565b602082019050919050565b6000611fa0601183612505565b9150611fab82612acf565b602082019050919050565b6000611fc3601583612505565b9150611fce82612af8565b602082019050919050565b6000611fe6603183612505565b9150611ff182612b21565b604082019050919050565b612005816125d2565b82525050565b61201c612017826125d2565b612669565b82525050565b61202b816125dc565b82525050565b600061203d8287611cf4565b60148201915061204d8286611cf4565b60148201915061205d8285611cf4565b60148201915061206d828461200b565b60208201915081905095945050505050565b600061208b8287611d1a565b60208201915061209b828661200b565b6020820191506120ab828561200b565b6020820191506120bb828461200b565b60208201915081905095945050505050565b60006120d882611dcc565b91506120e48284611d1a565b60208201915081905092915050565b60006060820190506121086000830186611ce5565b6121156020830185611ce5565b6121226040830184611ffc565b949350505050565b600060408201905061213f6000830185611ce5565b61214c6020830184611ffc565b9392505050565b60006020820190506121686000830184611d0b565b92915050565b600061014082019050612184600083018d611d0b565b612191602083018c611ce5565b61219e604083018b611ce5565b6121ab606083018a611ce5565b6121b86080830189611ffc565b6121c560a0830188611ffc565b6121d260c0830187611ffc565b6121df60e0830186611ffc565b6121ed610100830185611ffc565b6121fb610120830184611d31565b9b9a5050505050505050505050565b600060808201905061221f6000830187611d0b565b61222c6020830186612022565b6122396040830185611d0b565b6122466060830184611d0b565b95945050505050565b6000602082019050818103600083015261226881611d40565b9050919050565b6000602082019050818103600083015261228881611d63565b9050919050565b600060208201905081810360008301526122a881611d86565b9050919050565b600060208201905081810360008301526122c881611da9565b9050919050565b600060208201905081810360008301526122e881611def565b9050919050565b6000602082019050818103600083015261230881611e12565b9050919050565b6000602082019050818103600083015261232881611e35565b9050919050565b6000602082019050818103600083015261234881611e58565b9050919050565b6000602082019050818103600083015261236881611e7b565b9050919050565b6000602082019050818103600083015261238881611e9e565b9050919050565b600060208201905081810360008301526123a881611ec1565b9050919050565b600060208201905081810360008301526123c881611ee4565b9050919050565b600060208201905081810360008301526123e881611f07565b9050919050565b6000602082019050818103600083015261240881611f2a565b9050919050565b6000602082019050818103600083015261242881611f4d565b9050919050565b6000602082019050818103600083015261244881611f70565b9050919050565b6000602082019050818103600083015261246881611f93565b9050919050565b6000602082019050818103600083015261248881611fb6565b9050919050565b600060208201905081810360008301526124a881611fd9565b9050919050565b60006124b96124ca565b90506124c5828261260a565b919050565b6000604051905090565b600067ffffffffffffffff8211156124ef576124ee6126d1565b5b6124f882612714565b9050602081019050919050565b600082825260208201905092915050565b600081905092915050565b600061252c826125d2565b9150612537836125d2565b9250827fffffffffffffffffffffffffffffffffffffffffffffffffffffffffffffffff0382111561256c5761256b612673565b5b828201905092915050565b6000612582826125b2565b9050919050565b60008115159050919050565b6000819050919050565b60008190506125ad82612b70565b919050565b600073ffffffffffffffffffffffffffffffffffffffff82169050919050565b6000819050919050565b600060ff82169050919050565b60006125f48261259f565b9050919050565b82818337600083830152505050565b61261382612714565b810181811067ffffffffffffffff82111715612632576126316126d1565b5b80604052505050565b600061264682612657565b9050919050565b6000819050919050565b600061266282612725565b9050919050565b6000819050919050565b7f4e487b7100000000000000000000000000000000000000000000000000000000600052601160045260246000fd5b7f4e487b7100000000000000000000000000000000000000000000000000000000600052602160045260246000fd5b7f4e487b7100000000000000000000000000000000000000000000000000000000600052604160045260246000fd5b600080fd5b600080fd5b600080fd5b600080fd5b6000601f19601f8301169050919050565b60008160601b9050919050565b7f45434453413a20696e76616c6964207369676e61747572650000000000000000600082015250565b7f596f752063616e6e6f74206a6f696e20746f20746865206368616e6e656c207460008201527f776963652e000000000000000000000000000000000000000000000000000000602082015250565b7f546865206c6177206f6620636f6e736572766174696f6e206f6620746f74616c60008201527f2062616c616e63657320776173206e6f74207265737065637465642e00000000602082015250565b7f45434453413a20696e76616c6964207369676e6174757265206c656e67746800600082015250565b7f19457468657265756d205369676e6564204d6573736167653a0a333200000000600082015250565b7f796f75206d757374206d616b65207061796d656e747300000000000000000000600082015250565b7f596f7520617265206e6f74207061727469636970616e7420696e20746865206360008201527f68616e6e656c0000000000000000000000000000000000000000000000000000602082015250565b7f54696d65206973204f7665720000000000000000000000000000000000000000600082015250565b7f4368616e6e656c20646f65736e6f742065786973747300000000000000000000600082015250565b7f45434453413a20696e76616c6964207369676e6174757265202773272076616c60008201527f7565000000000000000000000000000000000000000000000000000000000000602082015250565b7f7061727469636970616e7473206d757374206861766520646966666572656e7460008201527f2061646472657373000000000000000000000000000000000000000000000000602082015250565b7f546865206368616e6e656c2073686f756c64206e6f7420626520636c6f736564600082015250565b7f43616e6e6f74205472616e736665720000000000000000000000000000000000600082015250565b7f45434453413a20696e76616c6964207369676e6174757265202776272076616c60008201527f7565000000000000000000000000000000000000000000000000000000000000602082015250565b7f4275796572207369676e617475726520697320696e76616c6964000000000000600082015250565b7f546865206368616e6e656c206973206e6f74206f70656e000000000000000000600082015250565b7f53656c6c6572207369676e617475726520697320696e76616c69640000000000600082015250565b7f496e636f727265637420616d6f756e742e000000000000000000000000000000600082015250565b7f4368616e6e656c206973206e6f74206163746976650000000000000000000000600082015250565b7f546865206368616e6e656c2063726561746f7220646964276e7420737065636960008201527f667920796f752061732073656c6c65722e000000000000000000000000000000602082015250565b60038110612b8157612b806126a2565b5b50565b612b8d81612577565b8114612b9857600080fd5b50565b612ba481612589565b8114612baf57600080fd5b50565b612bbb81612595565b8114612bc657600080fd5b50565b612bd2816125d2565b8114612bdd57600080fd5b5056fea2646970667358221220c8079b83c1d5c62011058519ff3c96807fb304c8fd39b5455d7f7b435ac972c164736f6c63430008060033",
					"opcodes": "PUSH1 0x80 PUSH1 0x40 MSTORE CALLVALUE DUP1 ISZERO PUSH2 0x10 JUMPI PUSH1 0x0 DUP1 REVERT JUMPDEST POP PUSH2 0x2C16 DUP1 PUSH2 0x20 PUSH1 0x0 CODECOPY PUSH1 0x0 RETURN INVALID PUSH1 0x80 PUSH1 0x40 MSTORE CALLVALUE DUP1 ISZERO PUSH2 0x10 JUMPI PUSH1 0x0 DUP1 REVERT JUMPDEST POP PUSH1 0x4 CALLDATASIZE LT PUSH2 0x57 JUMPI PUSH1 0x0 CALLDATALOAD PUSH1 0xE0 SHR DUP1 PUSH4 0x283FFEA0 EQ PUSH2 0x5C JUMPI DUP1 PUSH4 0x30686FE8 EQ PUSH2 0x78 JUMPI DUP1 PUSH4 0x39495ECF EQ PUSH2 0x94 JUMPI DUP1 PUSH4 0x7A7EBD7B EQ PUSH2 0xB0 JUMPI DUP1 PUSH4 0xD8D9965A EQ PUSH2 0xE9 JUMPI JUMPDEST PUSH1 0x0 DUP1 REVERT JUMPDEST PUSH2 0x76 PUSH1 0x4 DUP1 CALLDATASIZE SUB DUP2 ADD SWAP1 PUSH2 0x71 SWAP2 SWAP1 PUSH2 0x1C20 JUMP JUMPDEST PUSH2 0x105 JUMP JUMPDEST STOP JUMPDEST PUSH2 0x92 PUSH1 0x4 DUP1 CALLDATASIZE SUB DUP2 ADD SWAP1 PUSH2 0x8D SWAP2 SWAP1 PUSH2 0x1C20 JUMP JUMPDEST PUSH2 0x4D8 JUMP JUMPDEST STOP JUMPDEST PUSH2 0xAE PUSH1 0x4 DUP1 CALLDATASIZE SUB DUP2 ADD SWAP1 PUSH2 0xA9 SWAP2 SWAP1 PUSH2 0x1BE0 JUMP JUMPDEST PUSH2 0x8D3 JUMP JUMPDEST STOP JUMPDEST PUSH2 0xCA PUSH1 0x4 DUP1 CALLDATASIZE SUB DUP2 ADD SWAP1 PUSH2 0xC5 SWAP2 SWAP1 PUSH2 0x1BB3 JUMP JUMPDEST PUSH2 0xB68 JUMP JUMPDEST PUSH1 0x40 MLOAD PUSH2 0xE0 SWAP11 SWAP10 SWAP9 SWAP8 SWAP7 SWAP6 SWAP5 SWAP4 SWAP3 SWAP2 SWAP1 PUSH2 0x216E JUMP JUMPDEST PUSH1 0x40 MLOAD DUP1 SWAP2 SUB SWAP1 RETURN JUMPDEST PUSH2 0x103 PUSH1 0x4 DUP1 CALLDATASIZE SUB DUP2 ADD SWAP1 PUSH2 0xFE SWAP2 SWAP1 PUSH2 0x1B1F JUMP JUMPDEST PUSH2 0xC29 JUMP JUMPDEST STOP JUMPDEST DUP6 PUSH1 0x0 DUP1 SHL PUSH1 0x0 DUP1 DUP4 DUP2 MSTORE PUSH1 0x20 ADD SWAP1 DUP2 MSTORE PUSH1 0x20 ADD PUSH1 0x0 KECCAK256 PUSH1 0x0 ADD SLOAD EQ ISZERO PUSH2 0x161 JUMPI PUSH1 0x40 MLOAD PUSH32 0x8C379A000000000000000000000000000000000000000000000000000000000 DUP2 MSTORE PUSH1 0x4 ADD PUSH2 0x158 SWAP1 PUSH2 0x232F JUMP JUMPDEST PUSH1 0x40 MLOAD DUP1 SWAP2 SUB SWAP1 REVERT JUMPDEST DUP7 PUSH1 0x0 PUSH1 0x2 DUP2 GT ISZERO PUSH2 0x176 JUMPI PUSH2 0x175 PUSH2 0x26A2 JUMP JUMPDEST JUMPDEST PUSH1 0x0 DUP1 DUP4 DUP2 MSTORE PUSH1 0x20 ADD SWAP1 DUP2 MSTORE PUSH1 0x20 ADD PUSH1 0x0 KECCAK256 PUSH1 0x9 ADD PUSH1 0x0 SWAP1 SLOAD SWAP1 PUSH2 0x100 EXP SWAP1 DIV PUSH1 0xFF AND PUSH1 0x2 DUP2 GT ISZERO PUSH2 0x1AB JUMPI PUSH2 0x1AA PUSH2 0x26A2 JUMP JUMPDEST JUMPDEST EQ PUSH2 0x1EB JUMPI PUSH1 0x40 MLOAD PUSH32 0x8C379A000000000000000000000000000000000000000000000000000000000 DUP2 MSTORE PUSH1 0x4 ADD PUSH2 0x1E2 SWAP1 PUSH2 0x240F JUMP JUMPDEST PUSH1 0x40 MLOAD DUP1 SWAP2 SUB SWAP1 REVERT JUMPDEST DUP8 PUSH1 0x0 DUP1 DUP3 DUP2 MSTORE PUSH1 0x20 ADD SWAP1 DUP2 MSTORE PUSH1 0x20 ADD PUSH1 0x0 KECCAK256 PUSH1 0x2 ADD PUSH1 0x0 SWAP1 SLOAD SWAP1 PUSH2 0x100 EXP SWAP1 DIV PUSH20 0xFFFFFFFFFFFFFFFFFFFFFFFFFFFFFFFFFFFFFFFF AND PUSH20 0xFFFFFFFFFFFFFFFFFFFFFFFFFFFFFFFFFFFFFFFF AND CALLER PUSH20 0xFFFFFFFFFFFFFFFFFFFFFFFFFFFFFFFFFFFFFFFF AND EQ DUP1 PUSH2 0x2BB JUMPI POP PUSH1 0x0 DUP1 DUP3 DUP2 MSTORE PUSH1 0x20 ADD SWAP1 DUP2 MSTORE PUSH1 0x20 ADD PUSH1 0x0 KECCAK256 PUSH1 0x3 ADD PUSH1 0x0 SWAP1 SLOAD SWAP1 PUSH2 0x100 EXP SWAP1 DIV PUSH20 0xFFFFFFFFFFFFFFFFFFFFFFFFFFFFFFFFFFFFFFFF AND PUSH20 0xFFFFFFFFFFFFFFFFFFFFFFFFFFFFFFFFFFFFFFFF AND CALLER PUSH20 0xFFFFFFFFFFFFFFFFFFFFFFFFFFFFFFFFFFFFFFFF AND EQ JUMPDEST PUSH2 0x2FA JUMPI PUSH1 0x40 MLOAD PUSH32 0x8C379A000000000000000000000000000000000000000000000000000000000 DUP2 MSTORE PUSH1 0x4 ADD PUSH2 0x2F1 SWAP1 PUSH2 0x22EF JUMP JUMPDEST PUSH1 0x40 MLOAD DUP1 SWAP2 SUB SWAP1 REVERT JUMPDEST PUSH2 0x308 DUP10 DUP10 DUP10 DUP10 DUP10 DUP10 PUSH2 0xF5C JUMP JUMPDEST PUSH2 0x314 DUP10 DUP10 DUP10 DUP10 PUSH2 0x11CE JUMP JUMPDEST PUSH1 0x0 DUP1 PUSH1 0x0 DUP12 DUP2 MSTORE PUSH1 0x20 ADD SWAP1 DUP2 MSTORE PUSH1 0x20 ADD PUSH1 0x0 KECCAK256 PUSH1 0x40 MLOAD DUP1 PUSH2 0x140 ADD PUSH1 0x40 MSTORE SWAP1 DUP2 PUSH1 0x0 DUP3 ADD SLOAD DUP2 MSTORE PUSH1 0x20 ADD PUSH1 0x1 DUP3 ADD PUSH1 0x0 SWAP1 SLOAD SWAP1 PUSH2 0x100 EXP SWAP1 DIV PUSH20 0xFFFFFFFFFFFFFFFFFFFFFFFFFFFFFFFFFFFFFFFF AND PUSH20 0xFFFFFFFFFFFFFFFFFFFFFFFFFFFFFFFFFFFFFFFF AND PUSH20 0xFFFFFFFFFFFFFFFFFFFFFFFFFFFFFFFFFFFFFFFF AND DUP2 MSTORE PUSH1 0x20 ADD PUSH1 0x2 DUP3 ADD PUSH1 0x0 SWAP1 SLOAD SWAP1 PUSH2 0x100 EXP SWAP1 DIV PUSH20 0xFFFFFFFFFFFFFFFFFFFFFFFFFFFFFFFFFFFFFFFF AND PUSH20 0xFFFFFFFFFFFFFFFFFFFFFFFFFFFFFFFFFFFFFFFF AND PUSH20 0xFFFFFFFFFFFFFFFFFFFFFFFFFFFFFFFFFFFFFFFF AND DUP2 MSTORE PUSH1 0x20 ADD PUSH1 0x3 DUP3 ADD PUSH1 0x0 SWAP1 SLOAD SWAP1 PUSH2 0x100 EXP SWAP1 DIV PUSH20 0xFFFFFFFFFFFFFFFFFFFFFFFFFFFFFFFFFFFFFFFF AND PUSH20 0xFFFFFFFFFFFFFFFFFFFFFFFFFFFFFFFFFFFFFFFF AND PUSH20 0xFFFFFFFFFFFFFFFFFFFFFFFFFFFFFFFFFFFFFFFF AND DUP2 MSTORE PUSH1 0x20 ADD PUSH1 0x4 DUP3 ADD SLOAD DUP2 MSTORE PUSH1 0x20 ADD PUSH1 0x5 DUP3 ADD SLOAD DUP2 MSTORE PUSH1 0x20 ADD PUSH1 0x6 DUP3 ADD SLOAD DUP2 MSTORE PUSH1 0x20 ADD PUSH1 0x7 DUP3 ADD SLOAD DUP2 MSTORE PUSH1 0x20 ADD PUSH1 0x8 DUP3 ADD SLOAD DUP2 MSTORE PUSH1 0x20 ADD PUSH1 0x9 DUP3 ADD PUSH1 0x0 SWAP1 SLOAD SWAP1 PUSH2 0x100 EXP SWAP1 DIV PUSH1 0xFF AND PUSH1 0x2 DUP2 GT ISZERO PUSH2 0x497 JUMPI PUSH2 0x496 PUSH2 0x26A2 JUMP JUMPDEST JUMPDEST PUSH1 0x2 DUP2 GT ISZERO PUSH2 0x4A9 JUMPI PUSH2 0x4A8 PUSH2 0x26A2 JUMP JUMPDEST JUMPDEST DUP2 MSTORE POP POP SWAP1 POP PUSH1 0x0 DUP1 DUP3 PUSH2 0x100 ADD MLOAD EQ SWAP1 POP DUP1 ISZERO PUSH2 0x4CB JUMPI PUSH2 0x4CA DUP12 PUSH2 0x12AA JUMP JUMPDEST JUMPDEST POP POP POP POP POP POP POP POP POP POP POP JUMP JUMPDEST DUP6 PUSH1 0x0 DUP1 SHL PUSH1 0x0 DUP1 DUP4 DUP2 MSTORE PUSH1 0x20 ADD SWAP1 DUP2 MSTORE PUSH1 0x20 ADD PUSH1 0x0 KECCAK256 PUSH1 0x0 ADD SLOAD EQ ISZERO PUSH2 0x534 JUMPI PUSH1 0x40 MLOAD PUSH32 0x8C379A000000000000000000000000000000000000000000000000000000000 DUP2 MSTORE PUSH1 0x4 ADD PUSH2 0x52B SWAP1 PUSH2 0x232F JUMP JUMPDEST PUSH1 0x40 MLOAD DUP1 SWAP2 SUB SWAP1 REVERT JUMPDEST DUP7 PUSH1 0x0 DUP1 DUP3 DUP2 MSTORE PUSH1 0x20 ADD SWAP1 DUP2 MSTORE PUSH1 0x20 ADD PUSH1 0x0 KECCAK256 PUSH1 0x2 ADD PUSH1 0x0 SWAP1 SLOAD SWAP1 PUSH2 0x100 EXP SWAP1 DIV PUSH20 0xFFFFFFFFFFFFFFFFFFFFFFFFFFFFFFFFFFFFFFFF AND PUSH20 0xFFFFFFFFFFFFFFFFFFFFFFFFFFFFFFFFFFFFFFFF AND CALLER PUSH20 0xFFFFFFFFFFFFFFFFFFFFFFFFFFFFFFFFFFFFFFFF AND EQ DUP1 PUSH2 0x604 JUMPI POP PUSH1 0x0 DUP1 DUP3 DUP2 MSTORE PUSH1 0x20 ADD SWAP1 DUP2 MSTORE PUSH1 0x20 ADD PUSH1 0x0 KECCAK256 PUSH1 0x3 ADD PUSH1 0x0 SWAP1 SLOAD SWAP1 PUSH2 0x100 EXP SWAP1 DIV PUSH20 0xFFFFFFFFFFFFFFFFFFFFFFFFFFFFFFFFFFFFFFFF AND PUSH20 0xFFFFFFFFFFFFFFFFFFFFFFFFFFFFFFFFFFFFFFFF AND CALLER PUSH20 0xFFFFFFFFFFFFFFFFFFFFFFFFFFFFFFFFFFFFFFFF AND EQ JUMPDEST PUSH2 0x643 JUMPI PUSH1 0x40 MLOAD PUSH32 0x8C379A000000000000000000000000000000000000000000000000000000000 DUP2 MSTORE PUSH1 0x4 ADD PUSH2 0x63A SWAP1 PUSH2 0x22EF JUMP JUMPDEST PUSH1 0x40 MLOAD DUP1 SWAP2 SUB SWAP1 REVERT JUMPDEST DUP8 PUSH1 0x1 PUSH1 0x2 DUP2 GT ISZERO PUSH2 0x658 JUMPI PUSH2 0x657 PUSH2 0x26A2 JUMP JUMPDEST JUMPDEST PUSH1 0x0 DUP1 DUP4 DUP2 MSTORE PUSH1 0x20 ADD SWAP1 DUP2 MSTORE PUSH1 0x20 ADD PUSH1 0x0 KECCAK256 PUSH1 0x9 ADD PUSH1 0x0 SWAP1 SLOAD SWAP1 PUSH2 0x100 EXP SWAP1 DIV PUSH1 0xFF AND PUSH1 0x2 DUP2 GT ISZERO PUSH2 0x68D JUMPI PUSH2 0x68C PUSH2 0x26A2 JUMP JUMPDEST JUMPDEST EQ PUSH2 0x6CD JUMPI PUSH1 0x40 MLOAD PUSH32 0x8C379A000000000000000000000000000000000000000000000000000000000 DUP2 MSTORE PUSH1 0x4 ADD PUSH2 0x6C4 SWAP1 PUSH2 0x246F JUMP JUMPDEST PUSH1 0x40 MLOAD DUP1 SWAP2 SUB SWAP1 REVERT JUMPDEST DUP9 PUSH1 0x0 DUP1 PUSH1 0x0 DUP4 DUP2 MSTORE PUSH1 0x20 ADD SWAP1 DUP2 MSTORE PUSH1 0x20 ADD PUSH1 0x0 KECCAK256 PUSH1 0x40 MLOAD DUP1 PUSH2 0x140 ADD PUSH1 0x40 MSTORE SWAP1 DUP2 PUSH1 0x0 DUP3 ADD SLOAD DUP2 MSTORE PUSH1 0x20 ADD PUSH1 0x1 DUP3 ADD PUSH1 0x0 SWAP1 SLOAD SWAP1 PUSH2 0x100 EXP SWAP1 DIV PUSH20 0xFFFFFFFFFFFFFFFFFFFFFFFFFFFFFFFFFFFFFFFF AND PUSH20 0xFFFFFFFFFFFFFFFFFFFFFFFFFFFFFFFFFFFFFFFF AND PUSH20 0xFFFFFFFFFFFFFFFFFFFFFFFFFFFFFFFFFFFFFFFF AND DUP2 MSTORE PUSH1 0x20 ADD PUSH1 0x2 DUP3 ADD PUSH1 0x0 SWAP1 SLOAD SWAP1 PUSH2 0x100 EXP SWAP1 DIV PUSH20 0xFFFFFFFFFFFFFFFFFFFFFFFFFFFFFFFFFFFFFFFF AND PUSH20 0xFFFFFFFFFFFFFFFFFFFFFFFFFFFFFFFFFFFFFFFF AND PUSH20 0xFFFFFFFFFFFFFFFFFFFFFFFFFFFFFFFFFFFFFFFF AND DUP2 MSTORE PUSH1 0x20 ADD PUSH1 0x3 DUP3 ADD PUSH1 0x0 SWAP1 SLOAD SWAP1 PUSH2 0x100 EXP SWAP1 DIV PUSH20 0xFFFFFFFFFFFFFFFFFFFFFFFFFFFFFFFFFFFFFFFF AND PUSH20 0xFFFFFFFFFFFFFFFFFFFFFFFFFFFFFFFFFFFFFFFF AND PUSH20 0xFFFFFFFFFFFFFFFFFFFFFFFFFFFFFFFFFFFFFFFF AND DUP2 MSTORE PUSH1 0x20 ADD PUSH1 0x4 DUP3 ADD SLOAD DUP2 MSTORE PUSH1 0x20 ADD PUSH1 0x5 DUP3 ADD SLOAD DUP2 MSTORE PUSH1 0x20 ADD PUSH1 0x6 DUP3 ADD SLOAD DUP2 MSTORE PUSH1 0x20 ADD PUSH1 0x7 DUP3 ADD SLOAD DUP2 MSTORE PUSH1 0x20 ADD PUSH1 0x8 DUP3 ADD SLOAD DUP2 MSTORE PUSH1 0x20 ADD PUSH1 0x9 DUP3 ADD PUSH1 0x0 SWAP1 SLOAD SWAP1 PUSH2 0x100 EXP SWAP1 DIV PUSH1 0xFF AND PUSH1 0x2 DUP2 GT ISZERO PUSH2 0x851 JUMPI PUSH2 0x850 PUSH2 0x26A2 JUMP JUMPDEST JUMPDEST PUSH1 0x2 DUP2 GT ISZERO PUSH2 0x863 JUMPI PUSH2 0x862 PUSH2 0x26A2 JUMP JUMPDEST JUMPDEST DUP2 MSTORE POP POP SWAP1 POP PUSH1 0x0 DUP2 PUSH2 0x100 ADD MLOAD DUP3 PUSH1 0xE0 ADD MLOAD PUSH2 0x880 SWAP2 SWAP1 PUSH2 0x2521 JUMP JUMPDEST TIMESTAMP GT SWAP1 POP DUP1 ISZERO PUSH2 0x8C5 JUMPI PUSH1 0x40 MLOAD PUSH32 0x8C379A000000000000000000000000000000000000000000000000000000000 DUP2 MSTORE PUSH1 0x4 ADD PUSH2 0x8BC SWAP1 PUSH2 0x230F JUMP JUMPDEST PUSH1 0x40 MLOAD DUP1 SWAP2 SUB SWAP1 REVERT JUMPDEST POP POP POP POP POP POP POP POP POP POP POP POP JUMP JUMPDEST DUP2 PUSH1 0x0 DUP1 SHL PUSH1 0x0 DUP1 DUP4 DUP2 MSTORE PUSH1 0x20 ADD SWAP1 DUP2 MSTORE PUSH1 0x20 ADD PUSH1 0x0 KECCAK256 PUSH1 0x0 ADD SLOAD EQ ISZERO PUSH2 0x92F JUMPI PUSH1 0x40 MLOAD PUSH32 0x8C379A000000000000000000000000000000000000000000000000000000000 DUP2 MSTORE PUSH1 0x4 ADD PUSH2 0x926 SWAP1 PUSH2 0x232F JUMP JUMPDEST PUSH1 0x40 MLOAD DUP1 SWAP2 SUB SWAP1 REVERT JUMPDEST DUP3 PUSH1 0x0 PUSH1 0x2 DUP2 GT ISZERO PUSH2 0x944 JUMPI PUSH2 0x943 PUSH2 0x26A2 JUMP JUMPDEST JUMPDEST PUSH1 0x0 DUP1 DUP4 DUP2 MSTORE PUSH1 0x20 ADD SWAP1 DUP2 MSTORE PUSH1 0x20 ADD PUSH1 0x0 KECCAK256 PUSH1 0x9 ADD PUSH1 0x0 SWAP1 SLOAD SWAP1 PUSH2 0x100 EXP SWAP1 DIV PUSH1 0xFF AND PUSH1 0x2 DUP2 GT ISZERO PUSH2 0x979 JUMPI PUSH2 0x978 PUSH2 0x26A2 JUMP JUMPDEST JUMPDEST EQ PUSH2 0x9B9 JUMPI PUSH1 0x40 MLOAD PUSH32 0x8C379A000000000000000000000000000000000000000000000000000000000 DUP2 MSTORE PUSH1 0x4 ADD PUSH2 0x9B0 SWAP1 PUSH2 0x240F JUMP JUMPDEST PUSH1 0x40 MLOAD DUP1 SWAP2 SUB SWAP1 REVERT JUMPDEST PUSH1 0x0 CALLER SWAP1 POP PUSH1 0x0 DUP1 PUSH1 0x0 DUP8 DUP2 MSTORE PUSH1 0x20 ADD SWAP1 DUP2 MSTORE PUSH1 0x20 ADD PUSH1 0x0 KECCAK256 SWAP1 POP DUP2 PUSH20 0xFFFFFFFFFFFFFFFFFFFFFFFFFFFFFFFFFFFFFFFF AND DUP2 PUSH1 0x3 ADD PUSH1 0x0 SWAP1 SLOAD SWAP1 PUSH2 0x100 EXP SWAP1 DIV PUSH20 0xFFFFFFFFFFFFFFFFFFFFFFFFFFFFFFFFFFFFFFFF AND PUSH20 0xFFFFFFFFFFFFFFFFFFFFFFFFFFFFFFFFFFFFFFFF AND EQ PUSH2 0xA66 JUMPI PUSH1 0x40 MLOAD PUSH32 0x8C379A000000000000000000000000000000000000000000000000000000000 DUP2 MSTORE PUSH1 0x4 ADD PUSH2 0xA5D SWAP1 PUSH2 0x248F JUMP JUMPDEST PUSH1 0x40 MLOAD DUP1 SWAP2 SUB SWAP1 REVERT JUMPDEST PUSH1 0x0 DUP2 PUSH1 0x5 ADD SLOAD EQ PUSH2 0xAAD JUMPI PUSH1 0x40 MLOAD PUSH32 0x8C379A000000000000000000000000000000000000000000000000000000000 DUP2 MSTORE PUSH1 0x4 ADD PUSH2 0xAA4 SWAP1 PUSH2 0x226F JUMP JUMPDEST PUSH1 0x40 MLOAD DUP1 SWAP2 SUB SWAP1 REVERT JUMPDEST PUSH1 0x0 DUP6 LT ISZERO PUSH2 0xAF1 JUMPI PUSH1 0x40 MLOAD PUSH32 0x8C379A000000000000000000000000000000000000000000000000000000000 DUP2 MSTORE PUSH1 0x4 ADD PUSH2 0xAE8 SWAP1 PUSH2 0x244F JUMP JUMPDEST PUSH1 0x40 MLOAD DUP1 SWAP2 SUB SWAP1 REVERT JUMPDEST PUSH2 0xB20 DUP2 PUSH1 0x1 ADD PUSH1 0x0 SWAP1 SLOAD SWAP1 PUSH2 0x100 EXP SWAP1 DIV PUSH20 0xFFFFFFFFFFFFFFFFFFFFFFFFFFFFFFFFFFFFFFFF AND DUP4 DUP8 PUSH2 0x1461 JUMP JUMPDEST DUP5 DUP2 PUSH1 0x5 ADD DUP2 SWAP1 SSTORE POP PUSH32 0xF95D1A0E16B2A02AFB2C679641B33C436DC227961D7572876640CD2EC17937C DUP7 PUSH1 0x40 MLOAD PUSH2 0xB58 SWAP2 SWAP1 PUSH2 0x2153 JUMP JUMPDEST PUSH1 0x40 MLOAD DUP1 SWAP2 SUB SWAP1 LOG1 POP POP POP POP POP POP JUMP JUMPDEST PUSH1 0x0 PUSH1 0x20 MSTORE DUP1 PUSH1 0x0 MSTORE PUSH1 0x40 PUSH1 0x0 KECCAK256 PUSH1 0x0 SWAP2 POP SWAP1 POP DUP1 PUSH1 0x0 ADD SLOAD SWAP1 DUP1 PUSH1 0x1 ADD PUSH1 0x0 SWAP1 SLOAD SWAP1 PUSH2 0x100 EXP SWAP1 DIV PUSH20 0xFFFFFFFFFFFFFFFFFFFFFFFFFFFFFFFFFFFFFFFF AND SWAP1 DUP1 PUSH1 0x2 ADD PUSH1 0x0 SWAP1 SLOAD SWAP1 PUSH2 0x100 EXP SWAP1 DIV PUSH20 0xFFFFFFFFFFFFFFFFFFFFFFFFFFFFFFFFFFFFFFFF AND SWAP1 DUP1 PUSH1 0x3 ADD PUSH1 0x0 SWAP1 SLOAD SWAP1 PUSH2 0x100 EXP SWAP1 DIV PUSH20 0xFFFFFFFFFFFFFFFFFFFFFFFFFFFFFFFFFFFFFFFF AND SWAP1 DUP1 PUSH1 0x4 ADD SLOAD SWAP1 DUP1 PUSH1 0x5 ADD SLOAD SWAP1 DUP1 PUSH1 0x6 ADD SLOAD SWAP1 DUP1 PUSH1 0x7 ADD SLOAD SWAP1 DUP1 PUSH1 0x8 ADD SLOAD SWAP1 DUP1 PUSH1 0x9 ADD PUSH1 0x0 SWAP1 SLOAD SWAP1 PUSH2 0x100 EXP SWAP1 DIV PUSH1 0xFF AND SWAP1 POP DUP11 JUMP JUMPDEST PUSH1 0x0 CALLER SWAP1 POP DUP4 PUSH20 0xFFFFFFFFFFFFFFFFFFFFFFFFFFFFFFFFFFFFFFFF AND DUP2 PUSH20 0xFFFFFFFFFFFFFFFFFFFFFFFFFFFFFFFFFFFFFFFF AND EQ ISZERO PUSH2 0xC9D JUMPI PUSH1 0x40 MLOAD PUSH32 0x8C379A000000000000000000000000000000000000000000000000000000000 DUP2 MSTORE PUSH1 0x4 ADD PUSH2 0xC94 SWAP1 PUSH2 0x236F JUMP JUMPDEST PUSH1 0x40 MLOAD DUP1 SWAP2 SUB SWAP1 REVERT JUMPDEST PUSH1 0x0 DUP4 EQ ISZERO PUSH2 0xCE1 JUMPI PUSH1 0x40 MLOAD PUSH32 0x8C379A000000000000000000000000000000000000000000000000000000000 DUP2 MSTORE PUSH1 0x4 ADD PUSH2 0xCD8 SWAP1 PUSH2 0x22CF JUMP JUMPDEST PUSH1 0x40 MLOAD DUP1 SWAP2 SUB SWAP1 REVERT JUMPDEST PUSH1 0x0 DUP6 DUP6 DUP4 NUMBER PUSH1 0x40 MLOAD PUSH1 0x20 ADD PUSH2 0xCFA SWAP5 SWAP4 SWAP3 SWAP2 SWAP1 PUSH2 0x2031 JUMP JUMPDEST PUSH1 0x40 MLOAD PUSH1 0x20 DUP2 DUP4 SUB SUB DUP2 MSTORE SWAP1 PUSH1 0x40 MSTORE DUP1 MLOAD SWAP1 PUSH1 0x20 ADD KECCAK256 SWAP1 POP PUSH1 0x0 PUSH1 0x40 MLOAD DUP1 PUSH2 0x140 ADD PUSH1 0x40 MSTORE DUP1 DUP4 DUP2 MSTORE PUSH1 0x20 ADD DUP9 PUSH20 0xFFFFFFFFFFFFFFFFFFFFFFFFFFFFFFFFFFFFFFFF AND DUP2 MSTORE PUSH1 0x20 ADD DUP5 PUSH20 0xFFFFFFFFFFFFFFFFFFFFFFFFFFFFFFFFFFFFFFFF AND DUP2 MSTORE PUSH1 0x20 ADD DUP8 PUSH20 0xFFFFFFFFFFFFFFFFFFFFFFFFFFFFFFFFFFFFFFFF AND DUP2 MSTORE PUSH1 0x20 ADD DUP7 DUP2 MSTORE PUSH1 0x20 ADD PUSH1 0x0 DUP2 MSTORE PUSH1 0x20 ADD PUSH1 0x0 DUP2 MSTORE PUSH1 0x20 ADD PUSH1 0x0 DUP2 MSTORE PUSH1 0x20 ADD DUP6 DUP2 MSTORE PUSH1 0x20 ADD PUSH1 0x0 PUSH1 0x2 DUP2 GT ISZERO PUSH2 0xDAF JUMPI PUSH2 0xDAE PUSH2 0x26A2 JUMP JUMPDEST JUMPDEST DUP2 MSTORE POP SWAP1 POP PUSH2 0xDC3 DUP2 PUSH1 0x20 ADD MLOAD DUP5 DUP8 PUSH2 0x1461 JUMP JUMPDEST DUP1 PUSH1 0x0 DUP1 DUP5 DUP2 MSTORE PUSH1 0x20 ADD SWAP1 DUP2 MSTORE PUSH1 0x20 ADD PUSH1 0x0 KECCAK256 PUSH1 0x0 DUP3 ADD MLOAD DUP2 PUSH1 0x0 ADD SSTORE PUSH1 0x20 DUP3 ADD MLOAD DUP2 PUSH1 0x1 ADD PUSH1 0x0 PUSH2 0x100 EXP DUP2 SLOAD DUP2 PUSH20 0xFFFFFFFFFFFFFFFFFFFFFFFFFFFFFFFFFFFFFFFF MUL NOT AND SWAP1 DUP4 PUSH20 0xFFFFFFFFFFFFFFFFFFFFFFFFFFFFFFFFFFFFFFFF AND MUL OR SWAP1 SSTORE POP PUSH1 0x40 DUP3 ADD MLOAD DUP2 PUSH1 0x2 ADD PUSH1 0x0 PUSH2 0x100 EXP DUP2 SLOAD DUP2 PUSH20 0xFFFFFFFFFFFFFFFFFFFFFFFFFFFFFFFFFFFFFFFF MUL NOT AND SWAP1 DUP4 PUSH20 0xFFFFFFFFFFFFFFFFFFFFFFFFFFFFFFFFFFFFFFFF AND MUL OR SWAP1 SSTORE POP PUSH1 0x60 DUP3 ADD MLOAD DUP2 PUSH1 0x3 ADD PUSH1 0x0 PUSH2 0x100 EXP DUP2 SLOAD DUP2 PUSH20 0xFFFFFFFFFFFFFFFFFFFFFFFFFFFFFFFFFFFFFFFF MUL NOT AND SWAP1 DUP4 PUSH20 0xFFFFFFFFFFFFFFFFFFFFFFFFFFFFFFFFFFFFFFFF AND MUL OR SWAP1 SSTORE POP PUSH1 0x80 DUP3 ADD MLOAD DUP2 PUSH1 0x4 ADD SSTORE PUSH1 0xA0 DUP3 ADD MLOAD DUP2 PUSH1 0x5 ADD SSTORE PUSH1 0xC0 DUP3 ADD MLOAD DUP2 PUSH1 0x6 ADD SSTORE PUSH1 0xE0 DUP3 ADD MLOAD DUP2 PUSH1 0x7 ADD SSTORE PUSH2 0x100 DUP3 ADD MLOAD DUP2 PUSH1 0x8 ADD SSTORE PUSH2 0x120 DUP3 ADD MLOAD DUP2 PUSH1 0x9 ADD PUSH1 0x0 PUSH2 0x100 EXP DUP2 SLOAD DUP2 PUSH1 0xFF MUL NOT AND SWAP1 DUP4 PUSH1 0x2 DUP2 GT ISZERO PUSH2 0xF14 JUMPI PUSH2 0xF13 PUSH2 0x26A2 JUMP JUMPDEST JUMPDEST MUL OR SWAP1 SSTORE POP SWAP1 POP POP PUSH32 0x7FFC675D721B8768E035A323722842743BB523487B535906ABC97E6B3E2095D0 DUP3 PUSH1 0x40 MLOAD PUSH2 0xF4B SWAP2 SWAP1 PUSH2 0x2153 JUMP JUMPDEST PUSH1 0x40 MLOAD DUP1 SWAP2 SUB SWAP1 LOG1 POP POP POP POP POP POP POP JUMP JUMPDEST PUSH1 0x0 DUP1 PUSH1 0x0 DUP9 DUP2 MSTORE PUSH1 0x20 ADD SWAP1 DUP2 MSTORE PUSH1 0x20 ADD PUSH1 0x0 KECCAK256 PUSH1 0x40 MLOAD DUP1 PUSH2 0x140 ADD PUSH1 0x40 MSTORE SWAP1 DUP2 PUSH1 0x0 DUP3 ADD SLOAD DUP2 MSTORE PUSH1 0x20 ADD PUSH1 0x1 DUP3 ADD PUSH1 0x0 SWAP1 SLOAD SWAP1 PUSH2 0x100 EXP SWAP1 DIV PUSH20 0xFFFFFFFFFFFFFFFFFFFFFFFFFFFFFFFFFFFFFFFF AND PUSH20 0xFFFFFFFFFFFFFFFFFFFFFFFFFFFFFFFFFFFFFFFF AND PUSH20 0xFFFFFFFFFFFFFFFFFFFFFFFFFFFFFFFFFFFFFFFF AND DUP2 MSTORE PUSH1 0x20 ADD PUSH1 0x2 DUP3 ADD PUSH1 0x0 SWAP1 SLOAD SWAP1 PUSH2 0x100 EXP SWAP1 DIV PUSH20 0xFFFFFFFFFFFFFFFFFFFFFFFFFFFFFFFFFFFFFFFF AND PUSH20 0xFFFFFFFFFFFFFFFFFFFFFFFFFFFFFFFFFFFFFFFF AND PUSH20 0xFFFFFFFFFFFFFFFFFFFFFFFFFFFFFFFFFFFFFFFF AND DUP2 MSTORE PUSH1 0x20 ADD PUSH1 0x3 DUP3 ADD PUSH1 0x0 SWAP1 SLOAD SWAP1 PUSH2 0x100 EXP SWAP1 DIV PUSH20 0xFFFFFFFFFFFFFFFFFFFFFFFFFFFFFFFFFFFFFFFF AND PUSH20 0xFFFFFFFFFFFFFFFFFFFFFFFFFFFFFFFFFFFFFFFF AND PUSH20 0xFFFFFFFFFFFFFFFFFFFFFFFFFFFFFFFFFFFFFFFF AND DUP2 MSTORE PUSH1 0x20 ADD PUSH1 0x4 DUP3 ADD SLOAD DUP2 MSTORE PUSH1 0x20 ADD PUSH1 0x5 DUP3 ADD SLOAD DUP2 MSTORE PUSH1 0x20 ADD PUSH1 0x6 DUP3 ADD SLOAD DUP2 MSTORE PUSH1 0x20 ADD PUSH1 0x7 DUP3 ADD SLOAD DUP2 MSTORE PUSH1 0x20 ADD PUSH1 0x8 DUP3 ADD SLOAD DUP2 MSTORE PUSH1 0x20 ADD PUSH1 0x9 DUP3 ADD PUSH1 0x0 SWAP1 SLOAD SWAP1 PUSH2 0x100 EXP SWAP1 DIV PUSH1 0xFF AND PUSH1 0x2 DUP2 GT ISZERO PUSH2 0x10DF JUMPI PUSH2 0x10DE PUSH2 0x26A2 JUMP JUMPDEST JUMPDEST PUSH1 0x2 DUP2 GT ISZERO PUSH2 0x10F1 JUMPI PUSH2 0x10F0 PUSH2 0x26A2 JUMP JUMPDEST JUMPDEST DUP2 MSTORE POP POP SWAP1 POP PUSH1 0x0 DUP8 DUP7 DUP7 DUP10 PUSH1 0x40 MLOAD PUSH1 0x20 ADD PUSH2 0x1110 SWAP5 SWAP4 SWAP3 SWAP2 SWAP1 PUSH2 0x207F JUMP JUMPDEST PUSH1 0x40 MLOAD PUSH1 0x20 DUP2 DUP4 SUB SUB DUP2 MSTORE SWAP1 PUSH1 0x40 MSTORE DUP1 MLOAD SWAP1 PUSH1 0x20 ADD KECCAK256 SWAP1 POP PUSH2 0x1137 DUP2 DUP6 DUP5 PUSH1 0x40 ADD MLOAD PUSH2 0x1506 JUMP JUMPDEST PUSH2 0x1176 JUMPI PUSH1 0x40 MLOAD PUSH32 0x8C379A000000000000000000000000000000000000000000000000000000000 DUP2 MSTORE PUSH1 0x4 ADD PUSH2 0x116D SWAP1 PUSH2 0x23EF JUMP JUMPDEST PUSH1 0x40 MLOAD DUP1 SWAP2 SUB SWAP1 REVERT JUMPDEST PUSH2 0x1185 DUP2 DUP5 DUP5 PUSH1 0x60 ADD MLOAD PUSH2 0x1506 JUMP JUMPDEST PUSH2 0x11C4 JUMPI PUSH1 0x40 MLOAD PUSH32 0x8C379A000000000000000000000000000000000000000000000000000000000 DUP2 MSTORE PUSH1 0x4 ADD PUSH2 0x11BB SWAP1 PUSH2 0x242F JUMP JUMPDEST PUSH1 0x40 MLOAD DUP1 SWAP2 SUB SWAP1 REVERT JUMPDEST POP POP POP POP POP POP POP POP JUMP JUMPDEST PUSH1 0x0 DUP1 PUSH1 0x0 DUP7 DUP2 MSTORE PUSH1 0x20 ADD SWAP1 DUP2 MSTORE PUSH1 0x20 ADD PUSH1 0x0 KECCAK256 SWAP1 POP DUP1 PUSH1 0x5 ADD SLOAD DUP2 PUSH1 0x4 ADD SLOAD PUSH2 0x11F8 SWAP2 SWAP1 PUSH2 0x2521 JUMP JUMPDEST DUP3 DUP5 PUSH2 0x1204 SWAP2 SWAP1 PUSH2 0x2521 JUMP JUMPDEST EQ PUSH2 0x1244 JUMPI PUSH1 0x40 MLOAD PUSH32 0x8C379A000000000000000000000000000000000000000000000000000000000 DUP2 MSTORE PUSH1 0x4 ADD PUSH2 0x123B SWAP1 PUSH2 0x228F JUMP JUMPDEST PUSH1 0x40 MLOAD DUP1 SWAP2 SUB SWAP1 REVERT JUMPDEST DUP4 DUP2 PUSH1 0x6 ADD DUP2 SWAP1 SSTORE POP DUP3 DUP2 PUSH1 0x4 ADD DUP2 SWAP1 SSTORE POP DUP2 DUP2 PUSH1 0x5 ADD DUP2 SWAP1 SSTORE POP PUSH1 0x0 DUP2 PUSH1 0x7 ADD SLOAD EQ ISZERO PUSH2 0x1276 JUMPI TIMESTAMP DUP2 PUSH1 0x7 ADD DUP2 SWAP1 SSTORE POP JUMPDEST PUSH1 0x1 DUP2 PUSH1 0x9 ADD PUSH1 0x0 PUSH2 0x100 EXP DUP2 SLOAD DUP2 PUSH1 0xFF MUL NOT AND SWAP1 DUP4 PUSH1 0x2 DUP2 GT ISZERO PUSH2 0x129E JUMPI PUSH2 0x129D PUSH2 0x26A2 JUMP JUMPDEST JUMPDEST MUL OR SWAP1 SSTORE POP POP POP POP POP POP JUMP JUMPDEST DUP1 PUSH1 0x2 DUP1 DUP2 GT ISZERO PUSH2 0x12BE JUMPI PUSH2 0x12BD PUSH2 0x26A2 JUMP JUMPDEST JUMPDEST PUSH1 0x0 DUP1 DUP4 DUP2 MSTORE PUSH1 0x20 ADD SWAP1 DUP2 MSTORE PUSH1 0x20 ADD PUSH1 0x0 KECCAK256 PUSH1 0x9 ADD PUSH1 0x0 SWAP1 SLOAD SWAP1 PUSH2 0x100 EXP SWAP1 DIV PUSH1 0xFF AND PUSH1 0x2 DUP2 GT ISZERO PUSH2 0x12F3 JUMPI PUSH2 0x12F2 PUSH2 0x26A2 JUMP JUMPDEST JUMPDEST EQ ISZERO PUSH2 0x1334 JUMPI PUSH1 0x40 MLOAD PUSH32 0x8C379A000000000000000000000000000000000000000000000000000000000 DUP2 MSTORE PUSH1 0x4 ADD PUSH2 0x132B SWAP1 PUSH2 0x238F JUMP JUMPDEST PUSH1 0x40 MLOAD DUP1 SWAP2 SUB SWAP1 REVERT JUMPDEST PUSH1 0x0 DUP1 PUSH1 0x0 DUP5 DUP2 MSTORE PUSH1 0x20 ADD SWAP1 DUP2 MSTORE PUSH1 0x20 ADD PUSH1 0x0 KECCAK256 SWAP1 POP PUSH1 0x2 DUP2 PUSH1 0x9 ADD PUSH1 0x0 PUSH2 0x100 EXP DUP2 SLOAD DUP2 PUSH1 0xFF MUL NOT AND SWAP1 DUP4 PUSH1 0x2 DUP2 GT ISZERO PUSH2 0x1372 JUMPI PUSH2 0x1371 PUSH2 0x26A2 JUMP JUMPDEST JUMPDEST MUL OR SWAP1 SSTORE POP PUSH2 0x13CE DUP2 PUSH1 0x1 ADD PUSH1 0x0 SWAP1 SLOAD SWAP1 PUSH2 0x100 EXP SWAP1 DIV PUSH20 0xFFFFFFFFFFFFFFFFFFFFFFFFFFFFFFFFFFFFFFFF AND DUP3 PUSH1 0x2 ADD PUSH1 0x0 SWAP1 SLOAD SWAP1 PUSH2 0x100 EXP SWAP1 DIV PUSH20 0xFFFFFFFFFFFFFFFFFFFFFFFFFFFFFFFFFFFFFFFF AND DUP4 PUSH1 0x4 ADD SLOAD PUSH2 0x155F JUMP JUMPDEST PUSH2 0x1425 DUP2 PUSH1 0x1 ADD PUSH1 0x0 SWAP1 SLOAD SWAP1 PUSH2 0x100 EXP SWAP1 DIV PUSH20 0xFFFFFFFFFFFFFFFFFFFFFFFFFFFFFFFFFFFFFFFF AND DUP3 PUSH1 0x3 ADD PUSH1 0x0 SWAP1 SLOAD SWAP1 PUSH2 0x100 EXP SWAP1 DIV PUSH20 0xFFFFFFFFFFFFFFFFFFFFFFFFFFFFFFFFFFFFFFFF AND DUP4 PUSH1 0x5 ADD SLOAD PUSH2 0x155F JUMP JUMPDEST PUSH32 0xCEEAB2EEF998C17FE96F30F83FBF3C55FC5047F6E40C55A0CF72D236E9D2BA72 DUP4 PUSH1 0x40 MLOAD PUSH2 0x1454 SWAP2 SWAP1 PUSH2 0x2153 JUMP JUMPDEST PUSH1 0x40 MLOAD DUP1 SWAP2 SUB SWAP1 LOG1 POP POP POP JUMP JUMPDEST PUSH1 0x0 DUP2 GT ISZERO PUSH2 0x1501 JUMPI PUSH1 0x0 DUP4 SWAP1 POP DUP1 PUSH20 0xFFFFFFFFFFFFFFFFFFFFFFFFFFFFFFFFFFFFFFFF AND PUSH4 0x23B872DD DUP5 ADDRESS DUP6 PUSH1 0x40 MLOAD DUP5 PUSH4 0xFFFFFFFF AND PUSH1 0xE0 SHL DUP2 MSTORE PUSH1 0x4 ADD PUSH2 0x14AC SWAP4 SWAP3 SWAP2 SWAP1 PUSH2 0x20F3 JUMP JUMPDEST PUSH1 0x20 PUSH1 0x40 MLOAD DUP1 DUP4 SUB DUP2 PUSH1 0x0 DUP8 DUP1 EXTCODESIZE ISZERO DUP1 ISZERO PUSH2 0x14C6 JUMPI PUSH1 0x0 DUP1 REVERT JUMPDEST POP GAS CALL ISZERO DUP1 ISZERO PUSH2 0x14DA JUMPI RETURNDATASIZE PUSH1 0x0 DUP1 RETURNDATACOPY RETURNDATASIZE PUSH1 0x0 REVERT JUMPDEST POP POP POP POP PUSH1 0x40 MLOAD RETURNDATASIZE PUSH1 0x1F NOT PUSH1 0x1F DUP3 ADD AND DUP3 ADD DUP1 PUSH1 0x40 MSTORE POP DUP2 ADD SWAP1 PUSH2 0x14FE SWAP2 SWAP1 PUSH2 0x1B86 JUMP JUMPDEST POP POP JUMPDEST POP POP POP JUMP JUMPDEST PUSH1 0x0 DUP1 PUSH2 0x1512 DUP6 PUSH2 0x1640 JUMP JUMPDEST SWAP1 POP DUP3 PUSH20 0xFFFFFFFFFFFFFFFFFFFFFFFFFFFFFFFFFFFFFFFF AND PUSH2 0x153E DUP6 DUP4 PUSH2 0x1670 SWAP1 SWAP2 SWAP1 PUSH4 0xFFFFFFFF AND JUMP JUMPDEST PUSH20 0xFFFFFFFFFFFFFFFFFFFFFFFFFFFFFFFFFFFFFFFF AND EQ SWAP2 POP POP SWAP4 SWAP3 POP POP POP JUMP JUMPDEST PUSH1 0x0 DUP2 GT ISZERO PUSH2 0x163B JUMPI PUSH1 0x0 DUP4 SWAP1 POP DUP1 PUSH20 0xFFFFFFFFFFFFFFFFFFFFFFFFFFFFFFFFFFFFFFFF AND PUSH4 0xA9059CBB DUP5 DUP5 PUSH1 0x40 MLOAD DUP4 PUSH4 0xFFFFFFFF AND PUSH1 0xE0 SHL DUP2 MSTORE PUSH1 0x4 ADD PUSH2 0x15A8 SWAP3 SWAP2 SWAP1 PUSH2 0x212A JUMP JUMPDEST PUSH1 0x20 PUSH1 0x40 MLOAD DUP1 DUP4 SUB DUP2 PUSH1 0x0 DUP8 DUP1 EXTCODESIZE ISZERO DUP1 ISZERO PUSH2 0x15C2 JUMPI PUSH1 0x0 DUP1 REVERT JUMPDEST POP GAS CALL ISZERO DUP1 ISZERO PUSH2 0x15D6 JUMPI RETURNDATASIZE PUSH1 0x0 DUP1 RETURNDATACOPY RETURNDATASIZE PUSH1 0x0 REVERT JUMPDEST POP POP POP POP PUSH1 0x40 MLOAD RETURNDATASIZE PUSH1 0x1F NOT PUSH1 0x1F DUP3 ADD AND DUP3 ADD DUP1 PUSH1 0x40 MSTORE POP DUP2 ADD SWAP1 PUSH2 0x15FA SWAP2 SWAP1 PUSH2 0x1B86 JUMP JUMPDEST PUSH2 0x1639 JUMPI PUSH1 0x40 MLOAD PUSH32 0x8C379A000000000000000000000000000000000000000000000000000000000 DUP2 MSTORE PUSH1 0x4 ADD PUSH2 0x1630 SWAP1 PUSH2 0x23AF JUMP JUMPDEST PUSH1 0x40 MLOAD DUP1 SWAP2 SUB SWAP1 REVERT JUMPDEST POP JUMPDEST POP POP POP JUMP JUMPDEST PUSH1 0x0 DUP2 PUSH1 0x40 MLOAD PUSH1 0x20 ADD PUSH2 0x1653 SWAP2 SWAP1 PUSH2 0x20CD JUMP JUMPDEST PUSH1 0x40 MLOAD PUSH1 0x20 DUP2 DUP4 SUB SUB DUP2 MSTORE SWAP1 PUSH1 0x40 MSTORE DUP1 MLOAD SWAP1 PUSH1 0x20 ADD KECCAK256 SWAP1 POP SWAP2 SWAP1 POP JUMP JUMPDEST PUSH1 0x0 DUP1 PUSH1 0x0 PUSH2 0x167F DUP6 DUP6 PUSH2 0x1697 JUMP JUMPDEST SWAP2 POP SWAP2 POP PUSH2 0x168C DUP2 PUSH2 0x171A JUMP JUMPDEST DUP2 SWAP3 POP POP POP SWAP3 SWAP2 POP POP JUMP JUMPDEST PUSH1 0x0 DUP1 PUSH1 0x41 DUP4 MLOAD EQ ISZERO PUSH2 0x16D9 JUMPI PUSH1 0x0 DUP1 PUSH1 0x0 PUSH1 0x20 DUP7 ADD MLOAD SWAP3 POP PUSH1 0x40 DUP7 ADD MLOAD SWAP2 POP PUSH1 0x60 DUP7 ADD MLOAD PUSH1 0x0 BYTE SWAP1 POP PUSH2 0x16CD DUP8 DUP3 DUP6 DUP6 PUSH2 0x18EF JUMP JUMPDEST SWAP5 POP SWAP5 POP POP POP POP PUSH2 0x1713 JUMP JUMPDEST PUSH1 0x40 DUP4 MLOAD EQ ISZERO PUSH2 0x170A JUMPI PUSH1 0x0 DUP1 PUSH1 0x20 DUP6 ADD MLOAD SWAP2 POP PUSH1 0x40 DUP6 ADD MLOAD SWAP1 POP PUSH2 0x16FF DUP7 DUP4 DUP4 PUSH2 0x19FC JUMP JUMPDEST SWAP4 POP SWAP4 POP POP POP PUSH2 0x1713 JUMP JUMPDEST PUSH1 0x0 PUSH1 0x2 SWAP2 POP SWAP2 POP JUMPDEST SWAP3 POP SWAP3 SWAP1 POP JUMP JUMPDEST PUSH1 0x0 PUSH1 0x4 DUP2 GT ISZERO PUSH2 0x172E JUMPI PUSH2 0x172D PUSH2 0x26A2 JUMP JUMPDEST JUMPDEST DUP2 PUSH1 0x4 DUP2 GT ISZERO PUSH2 0x1741 JUMPI PUSH2 0x1740 PUSH2 0x26A2 JUMP JUMPDEST JUMPDEST EQ ISZERO PUSH2 0x174C JUMPI PUSH2 0x18EC JUMP JUMPDEST PUSH1 0x1 PUSH1 0x4 DUP2 GT ISZERO PUSH2 0x1760 JUMPI PUSH2 0x175F PUSH2 0x26A2 JUMP JUMPDEST JUMPDEST DUP2 PUSH1 0x4 DUP2 GT ISZERO PUSH2 0x1773 JUMPI PUSH2 0x1772 PUSH2 0x26A2 JUMP JUMPDEST JUMPDEST EQ ISZERO PUSH2 0x17B4 JUMPI PUSH1 0x40 MLOAD PUSH32 0x8C379A000000000000000000000000000000000000000000000000000000000 DUP2 MSTORE PUSH1 0x4 ADD PUSH2 0x17AB SWAP1 PUSH2 0x224F JUMP JUMPDEST PUSH1 0x40 MLOAD DUP1 SWAP2 SUB SWAP1 REVERT JUMPDEST PUSH1 0x2 PUSH1 0x4 DUP2 GT ISZERO PUSH2 0x17C8 JUMPI PUSH2 0x17C7 PUSH2 0x26A2 JUMP JUMPDEST JUMPDEST DUP2 PUSH1 0x4 DUP2 GT ISZERO PUSH2 0x17DB JUMPI PUSH2 0x17DA PUSH2 0x26A2 JUMP JUMPDEST JUMPDEST EQ ISZERO PUSH2 0x181C JUMPI PUSH1 0x40 MLOAD PUSH32 0x8C379A000000000000000000000000000000000000000000000000000000000 DUP2 MSTORE PUSH1 0x4 ADD PUSH2 0x1813 SWAP1 PUSH2 0x22AF JUMP JUMPDEST PUSH1 0x40 MLOAD DUP1 SWAP2 SUB SWAP1 REVERT JUMPDEST PUSH1 0x3 PUSH1 0x4 DUP2 GT ISZERO PUSH2 0x1830 JUMPI PUSH2 0x182F PUSH2 0x26A2 JUMP JUMPDEST JUMPDEST DUP2 PUSH1 0x4 DUP2 GT ISZERO PUSH2 0x1843 JUMPI PUSH2 0x1842 PUSH2 0x26A2 JUMP JUMPDEST JUMPDEST EQ ISZERO PUSH2 0x1884 JUMPI PUSH1 0x40 MLOAD PUSH32 0x8C379A000000000000000000000000000000000000000000000000000000000 DUP2 MSTORE PUSH1 0x4 ADD PUSH2 0x187B SWAP1 PUSH2 0x234F JUMP JUMPDEST PUSH1 0x40 MLOAD DUP1 SWAP2 SUB SWAP1 REVERT JUMPDEST PUSH1 0x4 DUP1 DUP2 GT ISZERO PUSH2 0x1897 JUMPI PUSH2 0x1896 PUSH2 0x26A2 JUMP JUMPDEST JUMPDEST DUP2 PUSH1 0x4 DUP2 GT ISZERO PUSH2 0x18AA JUMPI PUSH2 0x18A9 PUSH2 0x26A2 JUMP JUMPDEST JUMPDEST EQ ISZERO PUSH2 0x18EB JUMPI PUSH1 0x40 MLOAD PUSH32 0x8C379A000000000000000000000000000000000000000000000000000000000 DUP2 MSTORE PUSH1 0x4 ADD PUSH2 0x18E2 SWAP1 PUSH2 0x23CF JUMP JUMPDEST PUSH1 0x40 MLOAD DUP1 SWAP2 SUB SWAP1 REVERT JUMPDEST JUMPDEST POP JUMP JUMPDEST PUSH1 0x0 DUP1 PUSH32 0x7FFFFFFFFFFFFFFFFFFFFFFFFFFFFFFF5D576E7357A4501DDFE92F46681B20A0 DUP4 PUSH1 0x0 SHR GT ISZERO PUSH2 0x192A JUMPI PUSH1 0x0 PUSH1 0x3 SWAP2 POP SWAP2 POP PUSH2 0x19F3 JUMP JUMPDEST PUSH1 0x1B DUP6 PUSH1 0xFF AND EQ ISZERO DUP1 ISZERO PUSH2 0x1942 JUMPI POP PUSH1 0x1C DUP6 PUSH1 0xFF AND EQ ISZERO JUMPDEST ISZERO PUSH2 0x1954 JUMPI PUSH1 0x0 PUSH1 0x4 SWAP2 POP SWAP2 POP PUSH2 0x19F3 JUMP JUMPDEST PUSH1 0x0 PUSH1 0x1 DUP8 DUP8 DUP8 DUP8 PUSH1 0x40 MLOAD PUSH1 0x0 DUP2 MSTORE PUSH1 0x20 ADD PUSH1 0x40 MSTORE PUSH1 0x40 MLOAD PUSH2 0x1979 SWAP5 SWAP4 SWAP3 SWAP2 SWAP1 PUSH2 0x220A JUMP JUMPDEST PUSH1 0x20 PUSH1 0x40 MLOAD PUSH1 0x20 DUP2 SUB SWAP1 DUP1 DUP5 SUB SWAP1 DUP6 GAS STATICCALL ISZERO DUP1 ISZERO PUSH2 0x199B JUMPI RETURNDATASIZE PUSH1 0x0 DUP1 RETURNDATACOPY RETURNDATASIZE PUSH1 0x0 REVERT JUMPDEST POP POP POP PUSH1 0x20 PUSH1 0x40 MLOAD SUB MLOAD SWAP1 POP PUSH1 0x0 PUSH20 0xFFFFFFFFFFFFFFFFFFFFFFFFFFFFFFFFFFFFFFFF AND DUP2 PUSH20 0xFFFFFFFFFFFFFFFFFFFFFFFFFFFFFFFFFFFFFFFF AND EQ ISZERO PUSH2 0x19EA JUMPI PUSH1 0x0 PUSH1 0x1 SWAP3 POP SWAP3 POP POP PUSH2 0x19F3 JUMP JUMPDEST DUP1 PUSH1 0x0 SWAP3 POP SWAP3 POP POP JUMPDEST SWAP5 POP SWAP5 SWAP3 POP POP POP JUMP JUMPDEST PUSH1 0x0 DUP1 PUSH1 0x0 PUSH32 0x7FFFFFFFFFFFFFFFFFFFFFFFFFFFFFFFFFFFFFFFFFFFFFFFFFFFFFFFFFFFFFFF PUSH1 0x0 SHL DUP5 AND SWAP1 POP PUSH1 0x0 PUSH1 0x1B PUSH1 0xFF DUP7 PUSH1 0x0 SHR SWAP1 SHR PUSH2 0x1A3F SWAP2 SWAP1 PUSH2 0x2521 JUMP JUMPDEST SWAP1 POP PUSH2 0x1A4D DUP8 DUP3 DUP9 DUP6 PUSH2 0x18EF JUMP JUMPDEST SWAP4 POP SWAP4 POP POP POP SWAP4 POP SWAP4 SWAP2 POP POP JUMP JUMPDEST PUSH1 0x0 PUSH2 0x1A6E PUSH2 0x1A69 DUP5 PUSH2 0x24D4 JUMP JUMPDEST PUSH2 0x24AF JUMP JUMPDEST SWAP1 POP DUP3 DUP2 MSTORE PUSH1 0x20 DUP2 ADD DUP5 DUP5 DUP5 ADD GT ISZERO PUSH2 0x1A8A JUMPI PUSH2 0x1A89 PUSH2 0x2705 JUMP JUMPDEST JUMPDEST PUSH2 0x1A95 DUP5 DUP3 DUP6 PUSH2 0x25FB JUMP JUMPDEST POP SWAP4 SWAP3 POP POP POP JUMP JUMPDEST PUSH1 0x0 DUP2 CALLDATALOAD SWAP1 POP PUSH2 0x1AAC DUP2 PUSH2 0x2B84 JUMP JUMPDEST SWAP3 SWAP2 POP POP JUMP JUMPDEST PUSH1 0x0 DUP2 MLOAD SWAP1 POP PUSH2 0x1AC1 DUP2 PUSH2 0x2B9B JUMP JUMPDEST SWAP3 SWAP2 POP POP JUMP JUMPDEST PUSH1 0x0 DUP2 CALLDATALOAD SWAP1 POP PUSH2 0x1AD6 DUP2 PUSH2 0x2BB2 JUMP JUMPDEST SWAP3 SWAP2 POP POP JUMP JUMPDEST PUSH1 0x0 DUP3 PUSH1 0x1F DUP4 ADD SLT PUSH2 0x1AF1 JUMPI PUSH2 0x1AF0 PUSH2 0x2700 JUMP JUMPDEST JUMPDEST DUP2 CALLDATALOAD PUSH2 0x1B01 DUP5 DUP3 PUSH1 0x20 DUP7 ADD PUSH2 0x1A5B JUMP JUMPDEST SWAP2 POP POP SWAP3 SWAP2 POP POP JUMP JUMPDEST PUSH1 0x0 DUP2 CALLDATALOAD SWAP1 POP PUSH2 0x1B19 DUP2 PUSH2 0x2BC9 JUMP JUMPDEST SWAP3 SWAP2 POP POP JUMP JUMPDEST PUSH1 0x0 DUP1 PUSH1 0x0 DUP1 PUSH1 0x80 DUP6 DUP8 SUB SLT ISZERO PUSH2 0x1B39 JUMPI PUSH2 0x1B38 PUSH2 0x270F JUMP JUMPDEST JUMPDEST PUSH1 0x0 PUSH2 0x1B47 DUP8 DUP3 DUP9 ADD PUSH2 0x1A9D JUMP JUMPDEST SWAP5 POP POP PUSH1 0x20 PUSH2 0x1B58 DUP8 DUP3 DUP9 ADD PUSH2 0x1A9D JUMP JUMPDEST SWAP4 POP POP PUSH1 0x40 PUSH2 0x1B69 DUP8 DUP3 DUP9 ADD PUSH2 0x1B0A JUMP JUMPDEST SWAP3 POP POP PUSH1 0x60 PUSH2 0x1B7A DUP8 DUP3 DUP9 ADD PUSH2 0x1B0A JUMP JUMPDEST SWAP2 POP POP SWAP3 SWAP6 SWAP2 SWAP5 POP SWAP3 POP JUMP JUMPDEST PUSH1 0x0 PUSH1 0x20 DUP3 DUP5 SUB SLT ISZERO PUSH2 0x1B9C JUMPI PUSH2 0x1B9B PUSH2 0x270F JUMP JUMPDEST JUMPDEST PUSH1 0x0 PUSH2 0x1BAA DUP5 DUP3 DUP6 ADD PUSH2 0x1AB2 JUMP JUMPDEST SWAP2 POP POP SWAP3 SWAP2 POP POP JUMP JUMPDEST PUSH1 0x0 PUSH1 0x20 DUP3 DUP5 SUB SLT ISZERO PUSH2 0x1BC9 JUMPI PUSH2 0x1BC8 PUSH2 0x270F JUMP JUMPDEST JUMPDEST PUSH1 0x0 PUSH2 0x1BD7 DUP5 DUP3 DUP6 ADD PUSH2 0x1AC7 JUMP JUMPDEST SWAP2 POP POP SWAP3 SWAP2 POP POP JUMP JUMPDEST PUSH1 0x0 DUP1 PUSH1 0x40 DUP4 DUP6 SUB SLT ISZERO PUSH2 0x1BF7 JUMPI PUSH2 0x1BF6 PUSH2 0x270F JUMP JUMPDEST JUMPDEST PUSH1 0x0 PUSH2 0x1C05 DUP6 DUP3 DUP7 ADD PUSH2 0x1AC7 JUMP JUMPDEST SWAP3 POP POP PUSH1 0x20 PUSH2 0x1C16 DUP6 DUP3 DUP7 ADD PUSH2 0x1B0A JUMP JUMPDEST SWAP2 POP POP SWAP3 POP SWAP3 SWAP1 POP JUMP JUMPDEST PUSH1 0x0 DUP1 PUSH1 0x0 DUP1 PUSH1 0x0 DUP1 PUSH1 0xC0 DUP8 DUP10 SUB SLT ISZERO PUSH2 0x1C3D JUMPI PUSH2 0x1C3C PUSH2 0x270F JUMP JUMPDEST JUMPDEST PUSH1 0x0 PUSH2 0x1C4B DUP10 DUP3 DUP11 ADD PUSH2 0x1AC7 JUMP JUMPDEST SWAP7 POP POP PUSH1 0x20 PUSH2 0x1C5C DUP10 DUP3 DUP11 ADD PUSH2 0x1B0A JUMP JUMPDEST SWAP6 POP POP PUSH1 0x40 PUSH2 0x1C6D DUP10 DUP3 DUP11 ADD PUSH2 0x1B0A JUMP JUMPDEST SWAP5 POP POP PUSH1 0x60 PUSH2 0x1C7E DUP10 DUP3 DUP11 ADD PUSH2 0x1B0A JUMP JUMPDEST SWAP4 POP POP PUSH1 0x80 DUP8 ADD CALLDATALOAD PUSH8 0xFFFFFFFFFFFFFFFF DUP2 GT ISZERO PUSH2 0x1C9F JUMPI PUSH2 0x1C9E PUSH2 0x270A JUMP JUMPDEST JUMPDEST PUSH2 0x1CAB DUP10 DUP3 DUP11 ADD PUSH2 0x1ADC JUMP JUMPDEST SWAP3 POP POP PUSH1 0xA0 DUP8 ADD CALLDATALOAD PUSH8 0xFFFFFFFFFFFFFFFF DUP2 GT ISZERO PUSH2 0x1CCC JUMPI PUSH2 0x1CCB PUSH2 0x270A JUMP JUMPDEST JUMPDEST PUSH2 0x1CD8 DUP10 DUP3 DUP11 ADD PUSH2 0x1ADC JUMP JUMPDEST SWAP2 POP POP SWAP3 SWAP6 POP SWAP3 SWAP6 POP SWAP3 SWAP6 JUMP JUMPDEST PUSH2 0x1CEE DUP2 PUSH2 0x2577 JUMP JUMPDEST DUP3 MSTORE POP POP JUMP JUMPDEST PUSH2 0x1D05 PUSH2 0x1D00 DUP3 PUSH2 0x2577 JUMP JUMPDEST PUSH2 0x263B JUMP JUMPDEST DUP3 MSTORE POP POP JUMP JUMPDEST PUSH2 0x1D14 DUP2 PUSH2 0x2595 JUMP JUMPDEST DUP3 MSTORE POP POP JUMP JUMPDEST PUSH2 0x1D2B PUSH2 0x1D26 DUP3 PUSH2 0x2595 JUMP JUMPDEST PUSH2 0x264D JUMP JUMPDEST DUP3 MSTORE POP POP JUMP JUMPDEST PUSH2 0x1D3A DUP2 PUSH2 0x25E9 JUMP JUMPDEST DUP3 MSTORE POP POP JUMP JUMPDEST PUSH1 0x0 PUSH2 0x1D4D PUSH1 0x18 DUP4 PUSH2 0x2505 JUMP JUMPDEST SWAP2 POP PUSH2 0x1D58 DUP3 PUSH2 0x2732 JUMP JUMPDEST PUSH1 0x20 DUP3 ADD SWAP1 POP SWAP2 SWAP1 POP JUMP JUMPDEST PUSH1 0x0 PUSH2 0x1D70 PUSH1 0x25 DUP4 PUSH2 0x2505 JUMP JUMPDEST SWAP2 POP PUSH2 0x1D7B DUP3 PUSH2 0x275B JUMP JUMPDEST PUSH1 0x40 DUP3 ADD SWAP1 POP SWAP2 SWAP1 POP JUMP JUMPDEST PUSH1 0x0 PUSH2 0x1D93 PUSH1 0x3C DUP4 PUSH2 0x2505 JUMP JUMPDEST SWAP2 POP PUSH2 0x1D9E DUP3 PUSH2 0x27AA JUMP JUMPDEST PUSH1 0x40 DUP3 ADD SWAP1 POP SWAP2 SWAP1 POP JUMP JUMPDEST PUSH1 0x0 PUSH2 0x1DB6 PUSH1 0x1F DUP4 PUSH2 0x2505 JUMP JUMPDEST SWAP2 POP PUSH2 0x1DC1 DUP3 PUSH2 0x27F9 JUMP JUMPDEST PUSH1 0x20 DUP3 ADD SWAP1 POP SWAP2 SWAP1 POP JUMP JUMPDEST PUSH1 0x0 PUSH2 0x1DD9 PUSH1 0x1C DUP4 PUSH2 0x2516 JUMP JUMPDEST SWAP2 POP PUSH2 0x1DE4 DUP3 PUSH2 0x2822 JUMP JUMPDEST PUSH1 0x1C DUP3 ADD SWAP1 POP SWAP2 SWAP1 POP JUMP JUMPDEST PUSH1 0x0 PUSH2 0x1DFC PUSH1 0x16 DUP4 PUSH2 0x2505 JUMP JUMPDEST SWAP2 POP PUSH2 0x1E07 DUP3 PUSH2 0x284B JUMP JUMPDEST PUSH1 0x20 DUP3 ADD SWAP1 POP SWAP2 SWAP1 POP JUMP JUMPDEST PUSH1 0x0 PUSH2 0x1E1F PUSH1 0x26 DUP4 PUSH2 0x2505 JUMP JUMPDEST SWAP2 POP PUSH2 0x1E2A DUP3 PUSH2 0x2874 JUMP JUMPDEST PUSH1 0x40 DUP3 ADD SWAP1 POP SWAP2 SWAP1 POP JUMP JUMPDEST PUSH1 0x0 PUSH2 0x1E42 PUSH1 0xC DUP4 PUSH2 0x2505 JUMP JUMPDEST SWAP2 POP PUSH2 0x1E4D DUP3 PUSH2 0x28C3 JUMP JUMPDEST PUSH1 0x20 DUP3 ADD SWAP1 POP SWAP2 SWAP1 POP JUMP JUMPDEST PUSH1 0x0 PUSH2 0x1E65 PUSH1 0x16 DUP4 PUSH2 0x2505 JUMP JUMPDEST SWAP2 POP PUSH2 0x1E70 DUP3 PUSH2 0x28EC JUMP JUMPDEST PUSH1 0x20 DUP3 ADD SWAP1 POP SWAP2 SWAP1 POP JUMP JUMPDEST PUSH1 0x0 PUSH2 0x1E88 PUSH1 0x22 DUP4 PUSH2 0x2505 JUMP JUMPDEST SWAP2 POP PUSH2 0x1E93 DUP3 PUSH2 0x2915 JUMP JUMPDEST PUSH1 0x40 DUP3 ADD SWAP1 POP SWAP2 SWAP1 POP JUMP JUMPDEST PUSH1 0x0 PUSH2 0x1EAB PUSH1 0x28 DUP4 PUSH2 0x2505 JUMP JUMPDEST SWAP2 POP PUSH2 0x1EB6 DUP3 PUSH2 0x2964 JUMP JUMPDEST PUSH1 0x40 DUP3 ADD SWAP1 POP SWAP2 SWAP1 POP JUMP JUMPDEST PUSH1 0x0 PUSH2 0x1ECE PUSH1 0x20 DUP4 PUSH2 0x2505 JUMP JUMPDEST SWAP2 POP PUSH2 0x1ED9 DUP3 PUSH2 0x29B3 JUMP JUMPDEST PUSH1 0x20 DUP3 ADD SWAP1 POP SWAP2 SWAP1 POP JUMP JUMPDEST PUSH1 0x0 PUSH2 0x1EF1 PUSH1 0xF DUP4 PUSH2 0x2505 JUMP JUMPDEST SWAP2 POP PUSH2 0x1EFC DUP3 PUSH2 0x29DC JUMP JUMPDEST PUSH1 0x20 DUP3 ADD SWAP1 POP SWAP2 SWAP1 POP JUMP JUMPDEST PUSH1 0x0 PUSH2 0x1F14 PUSH1 0x22 DUP4 PUSH2 0x2505 JUMP JUMPDEST SWAP2 POP PUSH2 0x1F1F DUP3 PUSH2 0x2A05 JUMP JUMPDEST PUSH1 0x40 DUP3 ADD SWAP1 POP SWAP2 SWAP1 POP JUMP JUMPDEST PUSH1 0x0 PUSH2 0x1F37 PUSH1 0x1A DUP4 PUSH2 0x2505 JUMP JUMPDEST SWAP2 POP PUSH2 0x1F42 DUP3 PUSH2 0x2A54 JUMP JUMPDEST PUSH1 0x20 DUP3 ADD SWAP1 POP SWAP2 SWAP1 POP JUMP JUMPDEST PUSH1 0x0 PUSH2 0x1F5A PUSH1 0x17 DUP4 PUSH2 0x2505 JUMP JUMPDEST SWAP2 POP PUSH2 0x1F65 DUP3 PUSH2 0x2A7D JUMP JUMPDEST PUSH1 0x20 DUP3 ADD SWAP1 POP SWAP2 SWAP1 POP JUMP JUMPDEST PUSH1 0x0 PUSH2 0x1F7D PUSH1 0x1B DUP4 PUSH2 0x2505 JUMP JUMPDEST SWAP2 POP PUSH2 0x1F88 DUP3 PUSH2 0x2AA6 JUMP JUMPDEST PUSH1 0x20 DUP3 ADD SWAP1 POP SWAP2 SWAP1 POP JUMP JUMPDEST PUSH1 0x0 PUSH2 0x1FA0 PUSH1 0x11 DUP4 PUSH2 0x2505 JUMP JUMPDEST SWAP2 POP PUSH2 0x1FAB DUP3 PUSH2 0x2ACF JUMP JUMPDEST PUSH1 0x20 DUP3 ADD SWAP1 POP SWAP2 SWAP1 POP JUMP JUMPDEST PUSH1 0x0 PUSH2 0x1FC3 PUSH1 0x15 DUP4 PUSH2 0x2505 JUMP JUMPDEST SWAP2 POP PUSH2 0x1FCE DUP3 PUSH2 0x2AF8 JUMP JUMPDEST PUSH1 0x20 DUP3 ADD SWAP1 POP SWAP2 SWAP1 POP JUMP JUMPDEST PUSH1 0x0 PUSH2 0x1FE6 PUSH1 0x31 DUP4 PUSH2 0x2505 JUMP JUMPDEST SWAP2 POP PUSH2 0x1FF1 DUP3 PUSH2 0x2B21 JUMP JUMPDEST PUSH1 0x40 DUP3 ADD SWAP1 POP SWAP2 SWAP1 POP JUMP JUMPDEST PUSH2 0x2005 DUP2 PUSH2 0x25D2 JUMP JUMPDEST DUP3 MSTORE POP POP JUMP JUMPDEST PUSH2 0x201C PUSH2 0x2017 DUP3 PUSH2 0x25D2 JUMP JUMPDEST PUSH2 0x2669 JUMP JUMPDEST DUP3 MSTORE POP POP JUMP JUMPDEST PUSH2 0x202B DUP2 PUSH2 0x25DC JUMP JUMPDEST DUP3 MSTORE POP POP JUMP JUMPDEST PUSH1 0x0 PUSH2 0x203D DUP3 DUP8 PUSH2 0x1CF4 JUMP JUMPDEST PUSH1 0x14 DUP3 ADD SWAP2 POP PUSH2 0x204D DUP3 DUP7 PUSH2 0x1CF4 JUMP JUMPDEST PUSH1 0x14 DUP3 ADD SWAP2 POP PUSH2 0x205D DUP3 DUP6 PUSH2 0x1CF4 JUMP JUMPDEST PUSH1 0x14 DUP3 ADD SWAP2 POP PUSH2 0x206D DUP3 DUP5 PUSH2 0x200B JUMP JUMPDEST PUSH1 0x20 DUP3 ADD SWAP2 POP DUP2 SWAP1 POP SWAP6 SWAP5 POP POP POP POP POP JUMP JUMPDEST PUSH1 0x0 PUSH2 0x208B DUP3 DUP8 PUSH2 0x1D1A JUMP JUMPDEST PUSH1 0x20 DUP3 ADD SWAP2 POP PUSH2 0x209B DUP3 DUP7 PUSH2 0x200B JUMP JUMPDEST PUSH1 0x20 DUP3 ADD SWAP2 POP PUSH2 0x20AB DUP3 DUP6 PUSH2 0x200B JUMP JUMPDEST PUSH1 0x20 DUP3 ADD SWAP2 POP PUSH2 0x20BB DUP3 DUP5 PUSH2 0x200B JUMP JUMPDEST PUSH1 0x20 DUP3 ADD SWAP2 POP DUP2 SWAP1 POP SWAP6 SWAP5 POP POP POP POP POP JUMP JUMPDEST PUSH1 0x0 PUSH2 0x20D8 DUP3 PUSH2 0x1DCC JUMP JUMPDEST SWAP2 POP PUSH2 0x20E4 DUP3 DUP5 PUSH2 0x1D1A JUMP JUMPDEST PUSH1 0x20 DUP3 ADD SWAP2 POP DUP2 SWAP1 POP SWAP3 SWAP2 POP POP JUMP JUMPDEST PUSH1 0x0 PUSH1 0x60 DUP3 ADD SWAP1 POP PUSH2 0x2108 PUSH1 0x0 DUP4 ADD DUP7 PUSH2 0x1CE5 JUMP JUMPDEST PUSH2 0x2115 PUSH1 0x20 DUP4 ADD DUP6 PUSH2 0x1CE5 JUMP JUMPDEST PUSH2 0x2122 PUSH1 0x40 DUP4 ADD DUP5 PUSH2 0x1FFC JUMP JUMPDEST SWAP5 SWAP4 POP POP POP POP JUMP JUMPDEST PUSH1 0x0 PUSH1 0x40 DUP3 ADD SWAP1 POP PUSH2 0x213F PUSH1 0x0 DUP4 ADD DUP6 PUSH2 0x1CE5 JUMP JUMPDEST PUSH2 0x214C PUSH1 0x20 DUP4 ADD DUP5 PUSH2 0x1FFC JUMP JUMPDEST SWAP4 SWAP3 POP POP POP JUMP JUMPDEST PUSH1 0x0 PUSH1 0x20 DUP3 ADD SWAP1 POP PUSH2 0x2168 PUSH1 0x0 DUP4 ADD DUP5 PUSH2 0x1D0B JUMP JUMPDEST SWAP3 SWAP2 POP POP JUMP JUMPDEST PUSH1 0x0 PUSH2 0x140 DUP3 ADD SWAP1 POP PUSH2 0x2184 PUSH1 0x0 DUP4 ADD DUP14 PUSH2 0x1D0B JUMP JUMPDEST PUSH2 0x2191 PUSH1 0x20 DUP4 ADD DUP13 PUSH2 0x1CE5 JUMP JUMPDEST PUSH2 0x219E PUSH1 0x40 DUP4 ADD DUP12 PUSH2 0x1CE5 JUMP JUMPDEST PUSH2 0x21AB PUSH1 0x60 DUP4 ADD DUP11 PUSH2 0x1CE5 JUMP JUMPDEST PUSH2 0x21B8 PUSH1 0x80 DUP4 ADD DUP10 PUSH2 0x1FFC JUMP JUMPDEST PUSH2 0x21C5 PUSH1 0xA0 DUP4 ADD DUP9 PUSH2 0x1FFC JUMP JUMPDEST PUSH2 0x21D2 PUSH1 0xC0 DUP4 ADD DUP8 PUSH2 0x1FFC JUMP JUMPDEST PUSH2 0x21DF PUSH1 0xE0 DUP4 ADD DUP7 PUSH2 0x1FFC JUMP JUMPDEST PUSH2 0x21ED PUSH2 0x100 DUP4 ADD DUP6 PUSH2 0x1FFC JUMP JUMPDEST PUSH2 0x21FB PUSH2 0x120 DUP4 ADD DUP5 PUSH2 0x1D31 JUMP JUMPDEST SWAP12 SWAP11 POP POP POP POP POP POP POP POP POP POP POP JUMP JUMPDEST PUSH1 0x0 PUSH1 0x80 DUP3 ADD SWAP1 POP PUSH2 0x221F PUSH1 0x0 DUP4 ADD DUP8 PUSH2 0x1D0B JUMP JUMPDEST PUSH2 0x222C PUSH1 0x20 DUP4 ADD DUP7 PUSH2 0x2022 JUMP JUMPDEST PUSH2 0x2239 PUSH1 0x40 DUP4 ADD DUP6 PUSH2 0x1D0B JUMP JUMPDEST PUSH2 0x2246 PUSH1 0x60 DUP4 ADD DUP5 PUSH2 0x1D0B JUMP JUMPDEST SWAP6 SWAP5 POP POP POP POP POP JUMP JUMPDEST PUSH1 0x0 PUSH1 0x20 DUP3 ADD SWAP1 POP DUP2 DUP2 SUB PUSH1 0x0 DUP4 ADD MSTORE PUSH2 0x2268 DUP2 PUSH2 0x1D40 JUMP JUMPDEST SWAP1 POP SWAP2 SWAP1 POP JUMP JUMPDEST PUSH1 0x0 PUSH1 0x20 DUP3 ADD SWAP1 POP DUP2 DUP2 SUB PUSH1 0x0 DUP4 ADD MSTORE PUSH2 0x2288 DUP2 PUSH2 0x1D63 JUMP JUMPDEST SWAP1 POP SWAP2 SWAP1 POP JUMP JUMPDEST PUSH1 0x0 PUSH1 0x20 DUP3 ADD SWAP1 POP DUP2 DUP2 SUB PUSH1 0x0 DUP4 ADD MSTORE PUSH2 0x22A8 DUP2 PUSH2 0x1D86 JUMP JUMPDEST SWAP1 POP SWAP2 SWAP1 POP JUMP JUMPDEST PUSH1 0x0 PUSH1 0x20 DUP3 ADD SWAP1 POP DUP2 DUP2 SUB PUSH1 0x0 DUP4 ADD MSTORE PUSH2 0x22C8 DUP2 PUSH2 0x1DA9 JUMP JUMPDEST SWAP1 POP SWAP2 SWAP1 POP JUMP JUMPDEST PUSH1 0x0 PUSH1 0x20 DUP3 ADD SWAP1 POP DUP2 DUP2 SUB PUSH1 0x0 DUP4 ADD MSTORE PUSH2 0x22E8 DUP2 PUSH2 0x1DEF JUMP JUMPDEST SWAP1 POP SWAP2 SWAP1 POP JUMP JUMPDEST PUSH1 0x0 PUSH1 0x20 DUP3 ADD SWAP1 POP DUP2 DUP2 SUB PUSH1 0x0 DUP4 ADD MSTORE PUSH2 0x2308 DUP2 PUSH2 0x1E12 JUMP JUMPDEST SWAP1 POP SWAP2 SWAP1 POP JUMP JUMPDEST PUSH1 0x0 PUSH1 0x20 DUP3 ADD SWAP1 POP DUP2 DUP2 SUB PUSH1 0x0 DUP4 ADD MSTORE PUSH2 0x2328 DUP2 PUSH2 0x1E35 JUMP JUMPDEST SWAP1 POP SWAP2 SWAP1 POP JUMP JUMPDEST PUSH1 0x0 PUSH1 0x20 DUP3 ADD SWAP1 POP DUP2 DUP2 SUB PUSH1 0x0 DUP4 ADD MSTORE PUSH2 0x2348 DUP2 PUSH2 0x1E58 JUMP JUMPDEST SWAP1 POP SWAP2 SWAP1 POP JUMP JUMPDEST PUSH1 0x0 PUSH1 0x20 DUP3 ADD SWAP1 POP DUP2 DUP2 SUB PUSH1 0x0 DUP4 ADD MSTORE PUSH2 0x2368 DUP2 PUSH2 0x1E7B JUMP JUMPDEST SWAP1 POP SWAP2 SWAP1 POP JUMP JUMPDEST PUSH1 0x0 PUSH1 0x20 DUP3 ADD SWAP1 POP DUP2 DUP2 SUB PUSH1 0x0 DUP4 ADD MSTORE PUSH2 0x2388 DUP2 PUSH2 0x1E9E JUMP JUMPDEST SWAP1 POP SWAP2 SWAP1 POP JUMP JUMPDEST PUSH1 0x0 PUSH1 0x20 DUP3 ADD SWAP1 POP DUP2 DUP2 SUB PUSH1 0x0 DUP4 ADD MSTORE PUSH2 0x23A8 DUP2 PUSH2 0x1EC1 JUMP JUMPDEST SWAP1 POP SWAP2 SWAP1 POP JUMP JUMPDEST PUSH1 0x0 PUSH1 0x20 DUP3 ADD SWAP1 POP DUP2 DUP2 SUB PUSH1 0x0 DUP4 ADD MSTORE PUSH2 0x23C8 DUP2 PUSH2 0x1EE4 JUMP JUMPDEST SWAP1 POP SWAP2 SWAP1 POP JUMP JUMPDEST PUSH1 0x0 PUSH1 0x20 DUP3 ADD SWAP1 POP DUP2 DUP2 SUB PUSH1 0x0 DUP4 ADD MSTORE PUSH2 0x23E8 DUP2 PUSH2 0x1F07 JUMP JUMPDEST SWAP1 POP SWAP2 SWAP1 POP JUMP JUMPDEST PUSH1 0x0 PUSH1 0x20 DUP3 ADD SWAP1 POP DUP2 DUP2 SUB PUSH1 0x0 DUP4 ADD MSTORE PUSH2 0x2408 DUP2 PUSH2 0x1F2A JUMP JUMPDEST SWAP1 POP SWAP2 SWAP1 POP JUMP JUMPDEST PUSH1 0x0 PUSH1 0x20 DUP3 ADD SWAP1 POP DUP2 DUP2 SUB PUSH1 0x0 DUP4 ADD MSTORE PUSH2 0x2428 DUP2 PUSH2 0x1F4D JUMP JUMPDEST SWAP1 POP SWAP2 SWAP1 POP JUMP JUMPDEST PUSH1 0x0 PUSH1 0x20 DUP3 ADD SWAP1 POP DUP2 DUP2 SUB PUSH1 0x0 DUP4 ADD MSTORE PUSH2 0x2448 DUP2 PUSH2 0x1F70 JUMP JUMPDEST SWAP1 POP SWAP2 SWAP1 POP JUMP JUMPDEST PUSH1 0x0 PUSH1 0x20 DUP3 ADD SWAP1 POP DUP2 DUP2 SUB PUSH1 0x0 DUP4 ADD MSTORE PUSH2 0x2468 DUP2 PUSH2 0x1F93 JUMP JUMPDEST SWAP1 POP SWAP2 SWAP1 POP JUMP JUMPDEST PUSH1 0x0 PUSH1 0x20 DUP3 ADD SWAP1 POP DUP2 DUP2 SUB PUSH1 0x0 DUP4 ADD MSTORE PUSH2 0x2488 DUP2 PUSH2 0x1FB6 JUMP JUMPDEST SWAP1 POP SWAP2 SWAP1 POP JUMP JUMPDEST PUSH1 0x0 PUSH1 0x20 DUP3 ADD SWAP1 POP DUP2 DUP2 SUB PUSH1 0x0 DUP4 ADD MSTORE PUSH2 0x24A8 DUP2 PUSH2 0x1FD9 JUMP JUMPDEST SWAP1 POP SWAP2 SWAP1 POP JUMP JUMPDEST PUSH1 0x0 PUSH2 0x24B9 PUSH2 0x24CA JUMP JUMPDEST SWAP1 POP PUSH2 0x24C5 DUP3 DUP3 PUSH2 0x260A JUMP JUMPDEST SWAP2 SWAP1 POP JUMP JUMPDEST PUSH1 0x0 PUSH1 0x40 MLOAD SWAP1 POP SWAP1 JUMP JUMPDEST PUSH1 0x0 PUSH8 0xFFFFFFFFFFFFFFFF DUP3 GT ISZERO PUSH2 0x24EF JUMPI PUSH2 0x24EE PUSH2 0x26D1 JUMP JUMPDEST JUMPDEST PUSH2 0x24F8 DUP3 PUSH2 0x2714 JUMP JUMPDEST SWAP1 POP PUSH1 0x20 DUP2 ADD SWAP1 POP SWAP2 SWAP1 POP JUMP JUMPDEST PUSH1 0x0 DUP3 DUP3 MSTORE PUSH1 0x20 DUP3 ADD SWAP1 POP SWAP3 SWAP2 POP POP JUMP JUMPDEST PUSH1 0x0 DUP2 SWAP1 POP SWAP3 SWAP2 POP POP JUMP JUMPDEST PUSH1 0x0 PUSH2 0x252C DUP3 PUSH2 0x25D2 JUMP JUMPDEST SWAP2 POP PUSH2 0x2537 DUP4 PUSH2 0x25D2 JUMP JUMPDEST SWAP3 POP DUP3 PUSH32 0xFFFFFFFFFFFFFFFFFFFFFFFFFFFFFFFFFFFFFFFFFFFFFFFFFFFFFFFFFFFFFFFF SUB DUP3 GT ISZERO PUSH2 0x256C JUMPI PUSH2 0x256B PUSH2 0x2673 JUMP JUMPDEST JUMPDEST DUP3 DUP3 ADD SWAP1 POP SWAP3 SWAP2 POP POP JUMP JUMPDEST PUSH1 0x0 PUSH2 0x2582 DUP3 PUSH2 0x25B2 JUMP JUMPDEST SWAP1 POP SWAP2 SWAP1 POP JUMP JUMPDEST PUSH1 0x0 DUP2 ISZERO ISZERO SWAP1 POP SWAP2 SWAP1 POP JUMP JUMPDEST PUSH1 0x0 DUP2 SWAP1 POP SWAP2 SWAP1 POP JUMP JUMPDEST PUSH1 0x0 DUP2 SWAP1 POP PUSH2 0x25AD DUP3 PUSH2 0x2B70 JUMP JUMPDEST SWAP2 SWAP1 POP JUMP JUMPDEST PUSH1 0x0 PUSH20 0xFFFFFFFFFFFFFFFFFFFFFFFFFFFFFFFFFFFFFFFF DUP3 AND SWAP1 POP SWAP2 SWAP1 POP JUMP JUMPDEST PUSH1 0x0 DUP2 SWAP1 POP SWAP2 SWAP1 POP JUMP JUMPDEST PUSH1 0x0 PUSH1 0xFF DUP3 AND SWAP1 POP SWAP2 SWAP1 POP JUMP JUMPDEST PUSH1 0x0 PUSH2 0x25F4 DUP3 PUSH2 0x259F JUMP JUMPDEST SWAP1 POP SWAP2 SWAP1 POP JUMP JUMPDEST DUP3 DUP2 DUP4 CALLDATACOPY PUSH1 0x0 DUP4 DUP4 ADD MSTORE POP POP POP JUMP JUMPDEST PUSH2 0x2613 DUP3 PUSH2 0x2714 JUMP JUMPDEST DUP2 ADD DUP2 DUP2 LT PUSH8 0xFFFFFFFFFFFFFFFF DUP3 GT OR ISZERO PUSH2 0x2632 JUMPI PUSH2 0x2631 PUSH2 0x26D1 JUMP JUMPDEST JUMPDEST DUP1 PUSH1 0x40 MSTORE POP POP POP JUMP JUMPDEST PUSH1 0x0 PUSH2 0x2646 DUP3 PUSH2 0x2657 JUMP JUMPDEST SWAP1 POP SWAP2 SWAP1 POP JUMP JUMPDEST PUSH1 0x0 DUP2 SWAP1 POP SWAP2 SWAP1 POP JUMP JUMPDEST PUSH1 0x0 PUSH2 0x2662 DUP3 PUSH2 0x2725 JUMP JUMPDEST SWAP1 POP SWAP2 SWAP1 POP JUMP JUMPDEST PUSH1 0x0 DUP2 SWAP1 POP SWAP2 SWAP1 POP JUMP JUMPDEST PUSH32 0x4E487B7100000000000000000000000000000000000000000000000000000000 PUSH1 0x0 MSTORE PUSH1 0x11 PUSH1 0x4 MSTORE PUSH1 0x24 PUSH1 0x0 REVERT JUMPDEST PUSH32 0x4E487B7100000000000000000000000000000000000000000000000000000000 PUSH1 0x0 MSTORE PUSH1 0x21 PUSH1 0x4 MSTORE PUSH1 0x24 PUSH1 0x0 REVERT JUMPDEST PUSH32 0x4E487B7100000000000000000000000000000000000000000000000000000000 PUSH1 0x0 MSTORE PUSH1 0x41 PUSH1 0x4 MSTORE PUSH1 0x24 PUSH1 0x0 REVERT JUMPDEST PUSH1 0x0 DUP1 REVERT JUMPDEST PUSH1 0x0 DUP1 REVERT JUMPDEST PUSH1 0x0 DUP1 REVERT JUMPDEST PUSH1 0x0 DUP1 REVERT JUMPDEST PUSH1 0x0 PUSH1 0x1F NOT PUSH1 0x1F DUP4 ADD AND SWAP1 POP SWAP2 SWAP1 POP JUMP JUMPDEST PUSH1 0x0 DUP2 PUSH1 0x60 SHL SWAP1 POP SWAP2 SWAP1 POP JUMP JUMPDEST PUSH32 0x45434453413A20696E76616C6964207369676E61747572650000000000000000 PUSH1 0x0 DUP3 ADD MSTORE POP JUMP JUMPDEST PUSH32 0x596F752063616E6E6F74206A6F696E20746F20746865206368616E6E656C2074 PUSH1 0x0 DUP3 ADD MSTORE PUSH32 0x776963652E000000000000000000000000000000000000000000000000000000 PUSH1 0x20 DUP3 ADD MSTORE POP JUMP JUMPDEST PUSH32 0x546865206C6177206F6620636F6E736572766174696F6E206F6620746F74616C PUSH1 0x0 DUP3 ADD MSTORE PUSH32 0x2062616C616E63657320776173206E6F74207265737065637465642E00000000 PUSH1 0x20 DUP3 ADD MSTORE POP JUMP JUMPDEST PUSH32 0x45434453413A20696E76616C6964207369676E6174757265206C656E67746800 PUSH1 0x0 DUP3 ADD MSTORE POP JUMP JUMPDEST PUSH32 0x19457468657265756D205369676E6564204D6573736167653A0A333200000000 PUSH1 0x0 DUP3 ADD MSTORE POP JUMP JUMPDEST PUSH32 0x796F75206D757374206D616B65207061796D656E747300000000000000000000 PUSH1 0x0 DUP3 ADD MSTORE POP JUMP JUMPDEST PUSH32 0x596F7520617265206E6F74207061727469636970616E7420696E207468652063 PUSH1 0x0 DUP3 ADD MSTORE PUSH32 0x68616E6E656C0000000000000000000000000000000000000000000000000000 PUSH1 0x20 DUP3 ADD MSTORE POP JUMP JUMPDEST PUSH32 0x54696D65206973204F7665720000000000000000000000000000000000000000 PUSH1 0x0 DUP3 ADD MSTORE POP JUMP JUMPDEST PUSH32 0x4368616E6E656C20646F65736E6F742065786973747300000000000000000000 PUSH1 0x0 DUP3 ADD MSTORE POP JUMP JUMPDEST PUSH32 0x45434453413A20696E76616C6964207369676E6174757265202773272076616C PUSH1 0x0 DUP3 ADD MSTORE PUSH32 0x7565000000000000000000000000000000000000000000000000000000000000 PUSH1 0x20 DUP3 ADD MSTORE POP JUMP JUMPDEST PUSH32 0x7061727469636970616E7473206D757374206861766520646966666572656E74 PUSH1 0x0 DUP3 ADD MSTORE PUSH32 0x2061646472657373000000000000000000000000000000000000000000000000 PUSH1 0x20 DUP3 ADD MSTORE POP JUMP JUMPDEST PUSH32 0x546865206368616E6E656C2073686F756C64206E6F7420626520636C6F736564 PUSH1 0x0 DUP3 ADD MSTORE POP JUMP JUMPDEST PUSH32 0x43616E6E6F74205472616E736665720000000000000000000000000000000000 PUSH1 0x0 DUP3 ADD MSTORE POP JUMP JUMPDEST PUSH32 0x45434453413A20696E76616C6964207369676E6174757265202776272076616C PUSH1 0x0 DUP3 ADD MSTORE PUSH32 0x7565000000000000000000000000000000000000000000000000000000000000 PUSH1 0x20 DUP3 ADD MSTORE POP JUMP JUMPDEST PUSH32 0x4275796572207369676E617475726520697320696E76616C6964000000000000 PUSH1 0x0 DUP3 ADD MSTORE POP JUMP JUMPDEST PUSH32 0x546865206368616E6E656C206973206E6F74206F70656E000000000000000000 PUSH1 0x0 DUP3 ADD MSTORE POP JUMP JUMPDEST PUSH32 0x53656C6C6572207369676E617475726520697320696E76616C69640000000000 PUSH1 0x0 DUP3 ADD MSTORE POP JUMP JUMPDEST PUSH32 0x496E636F727265637420616D6F756E742E000000000000000000000000000000 PUSH1 0x0 DUP3 ADD MSTORE POP JUMP JUMPDEST PUSH32 0x4368616E6E656C206973206E6F74206163746976650000000000000000000000 PUSH1 0x0 DUP3 ADD MSTORE POP JUMP JUMPDEST PUSH32 0x546865206368616E6E656C2063726561746F7220646964276E74207370656369 PUSH1 0x0 DUP3 ADD MSTORE PUSH32 0x667920796F752061732073656C6C65722E000000000000000000000000000000 PUSH1 0x20 DUP3 ADD MSTORE POP JUMP JUMPDEST PUSH1 0x3 DUP2 LT PUSH2 0x2B81 JUMPI PUSH2 0x2B80 PUSH2 0x26A2 JUMP JUMPDEST JUMPDEST POP JUMP JUMPDEST PUSH2 0x2B8D DUP2 PUSH2 0x2577 JUMP JUMPDEST DUP2 EQ PUSH2 0x2B98 JUMPI PUSH1 0x0 DUP1 REVERT JUMPDEST POP JUMP JUMPDEST PUSH2 0x2BA4 DUP2 PUSH2 0x2589 JUMP JUMPDEST DUP2 EQ PUSH2 0x2BAF JUMPI PUSH1 0x0 DUP1 REVERT JUMPDEST POP JUMP JUMPDEST PUSH2 0x2BBB DUP2 PUSH2 0x2595 JUMP JUMPDEST DUP2 EQ PUSH2 0x2BC6 JUMPI PUSH1 0x0 DUP1 REVERT JUMPDEST POP JUMP JUMPDEST PUSH2 0x2BD2 DUP2 PUSH2 0x25D2 JUMP JUMPDEST DUP2 EQ PUSH2 0x2BDD JUMPI PUSH1 0x0 DUP1 REVERT JUMPDEST POP JUMP INVALID LOG2 PUSH5 0x6970667358 0x22 SLT KECCAK256 0xC8 SMOD SWAP12 DUP4 0xC1 0xD5 0xC6 KECCAK256 GT SDIV DUP6 NOT SELFDESTRUCT EXTCODECOPY SWAP7 DUP1 PUSH32 0xB304C8FD39B5455D7F7B435AC972C164736F6C63430008060033000000000000 "
				},
				"gasEstimates": {
					"creation": {
						"codeDepositCost": "2257200",
						"executionCost": "2412",
						"totalCost": "2259612"
					},
					"external": {
						"challenge(bytes32,uint256,uint256,uint256,bytes,bytes)": "infinite",
						"channels(bytes32)": "infinite",
						"closeChannel(bytes32,uint256,uint256,uint256,bytes,bytes)": "infinite",
						"joinChannel(bytes32,uint256)": "infinite",
						"openChannel(address,address,uint256,uint256)": "infinite"
					},
					"internal": {
						"distributeTokens(bytes32)": "infinite",
						"receiveTokens(address,address,uint256)": "infinite",
						"transferTokens(address,address,uint256)": "infinite",
						"updateChannel(bytes32,uint256,uint256,uint256)": "infinite",
						"verifyHash(bytes32,bytes memory,address)": "infinite",
						"verifyReceiptSignature(bytes32,uint256,uint256,uint256,bytes memory,bytes memory)": "infinite"
					}
				},
				"methodIdentifiers": {
					"challenge(bytes32,uint256,uint256,uint256,bytes,bytes)": "30686fe8",
					"channels(bytes32)": "7a7ebd7b",
					"closeChannel(bytes32,uint256,uint256,uint256,bytes,bytes)": "283ffea0",
					"joinChannel(bytes32,uint256)": "39495ecf",
					"openChannel(address,address,uint256,uint256)": "d8d9965a"
				}
			},
			"storageLayout": {
				"storage": [
					{
						"astId": 1694,
						"contract": "contracts/EscrowChannel.sol:EscrowChannel",
						"label": "channels",
						"offset": 0,
						"slot": "0",
						"type": "t_mapping(t_bytes32,t_struct(Channel)1689_storage)"
					}
				],
				"types": {
					"t_address": {
						"encoding": "inplace",
						"label": "address",
						"numberOfBytes": "20"
					},
					"t_bytes32": {
						"encoding": "inplace",
						"label": "bytes32",
						"numberOfBytes": "32"
					},
					"t_enum(ChannelState)1667": {
						"encoding": "inplace",
						"label": "enum EscrowChannel.ChannelState",
						"numberOfBytes": "1"
					},
					"t_mapping(t_bytes32,t_struct(Channel)1689_storage)": {
						"encoding": "mapping",
						"key": "t_bytes32",
						"label": "mapping(bytes32 => struct EscrowChannel.Channel)",
						"numberOfBytes": "32",
						"value": "t_struct(Channel)1689_storage"
					},
					"t_struct(Channel)1689_storage": {
						"encoding": "inplace",
						"label": "struct EscrowChannel.Channel",
						"members": [
							{
								"astId": 1669,
								"contract": "contracts/EscrowChannel.sol:EscrowChannel",
								"label": "channelId",
								"offset": 0,
								"slot": "0",
								"type": "t_bytes32"
							},
							{
								"astId": 1671,
								"contract": "contracts/EscrowChannel.sol:EscrowChannel",
								"label": "tokenAddress",
								"offset": 0,
								"slot": "1",
								"type": "t_address"
							},
							{
								"astId": 1673,
								"contract": "contracts/EscrowChannel.sol:EscrowChannel",
								"label": "buyerAddress",
								"offset": 0,
								"slot": "2",
								"type": "t_address"
							},
							{
								"astId": 1675,
								"contract": "contracts/EscrowChannel.sol:EscrowChannel",
								"label": "sellerAddress",
								"offset": 0,
								"slot": "3",
								"type": "t_address"
							},
							{
								"astId": 1677,
								"contract": "contracts/EscrowChannel.sol:EscrowChannel",
								"label": "buyerBalance",
								"offset": 0,
								"slot": "4",
								"type": "t_uint256"
							},
							{
								"astId": 1679,
								"contract": "contracts/EscrowChannel.sol:EscrowChannel",
								"label": "sellerBalance",
								"offset": 0,
								"slot": "5",
								"type": "t_uint256"
							},
							{
								"astId": 1681,
								"contract": "contracts/EscrowChannel.sol:EscrowChannel",
								"label": "nonce",
								"offset": 0,
								"slot": "6",
								"type": "t_uint256"
							},
							{
								"astId": 1683,
								"contract": "contracts/EscrowChannel.sol:EscrowChannel",
								"label": "closingTime",
								"offset": 0,
								"slot": "7",
								"type": "t_uint256"
							},
							{
								"astId": 1685,
								"contract": "contracts/EscrowChannel.sol:EscrowChannel",
								"label": "activeTimePeriod",
								"offset": 0,
								"slot": "8",
								"type": "t_uint256"
							},
							{
								"astId": 1688,
								"contract": "contracts/EscrowChannel.sol:EscrowChannel",
								"label": "channelState",
								"offset": 0,
								"slot": "9",
								"type": "t_enum(ChannelState)1667"
							}
						],
						"numberOfBytes": "320"
					},
					"t_uint256": {
						"encoding": "inplace",
						"label": "uint256",
						"numberOfBytes": "32"
					}
				}
			},
			"userdoc": {
				"kind": "user",
				"methods": {
					"openChannel(address,address,uint256,uint256)": {
						"notice": "Open a channel."
					}
				},
				"version": 1
			}
		}
	}
}