{
	"contracts/EscrowChannel.sol": {
		"EscrowChannel": {
			"abi": [
				{
					"anonymous": false,
					"inputs": [
						{
							"indexed": false,
							"internalType": "bytes32",
							"name": "channelId",
							"type": "bytes32"
						}
					],
					"name": "ChannelClosed",
					"type": "event"
				},
				{
					"anonymous": false,
					"inputs": [
						{
							"indexed": false,
							"internalType": "bytes32",
							"name": "channelId",
							"type": "bytes32"
						}
					],
					"name": "ChannelOpened",
					"type": "event"
				},
				{
					"anonymous": false,
					"inputs": [
						{
							"indexed": false,
							"internalType": "bytes32",
							"name": "channelId",
							"type": "bytes32"
						}
					],
					"name": "SellerJoined",
					"type": "event"
				},
				{
					"inputs": [
						{
							"internalType": "bytes32",
							"name": "",
							"type": "bytes32"
						}
					],
					"name": "channels",
					"outputs": [
						{
							"internalType": "bytes32",
							"name": "channelId",
							"type": "bytes32"
						},
						{
							"internalType": "address",
							"name": "tokenAddress",
							"type": "address"
						},
						{
							"internalType": "address",
							"name": "buyerAddress",
							"type": "address"
						},
						{
							"internalType": "address",
							"name": "sellerAddress",
							"type": "address"
						},
						{
							"internalType": "uint256",
							"name": "buyerBalance",
							"type": "uint256"
						},
						{
							"internalType": "uint256",
							"name": "sellerBalance",
							"type": "uint256"
						},
						{
							"internalType": "uint256",
							"name": "nonce",
							"type": "uint256"
						},
						{
							"internalType": "uint256",
							"name": "closingTime",
							"type": "uint256"
						},
						{
							"internalType": "uint256",
							"name": "activeTimePeriod",
							"type": "uint256"
						},
						{
							"internalType": "enum EscrowChannel.ChannelState",
							"name": "channelState",
							"type": "uint8"
						}
					],
					"stateMutability": "view",
					"type": "function"
				},
				{
					"inputs": [
						{
							"internalType": "bytes32",
							"name": "channelId",
							"type": "bytes32"
						},
						{
							"internalType": "uint256",
							"name": "nonce",
							"type": "uint256"
						},
						{
							"internalType": "uint256",
							"name": "buyerBalance",
							"type": "uint256"
						},
						{
							"internalType": "uint256",
							"name": "sellerBalance",
							"type": "uint256"
						},
						{
							"internalType": "bytes",
							"name": "buyerSign",
							"type": "bytes"
						},
						{
							"internalType": "bytes",
							"name": "sellerSign",
							"type": "bytes"
						}
					],
					"name": "closeChannel",
					"outputs": [],
					"stateMutability": "nonpayable",
					"type": "function"
				},
				{
					"inputs": [
						{
							"internalType": "bytes32",
							"name": "channelId",
							"type": "bytes32"
						},
						{
							"internalType": "uint256",
							"name": "amount",
							"type": "uint256"
						}
					],
					"name": "joinChannel",
					"outputs": [],
					"stateMutability": "nonpayable",
					"type": "function"
				},
				{
					"inputs": [
						{
							"internalType": "address",
							"name": "tokenAddress",
							"type": "address"
						},
						{
							"internalType": "address",
							"name": "sellerAddress",
							"type": "address"
						},
						{
							"internalType": "uint256",
							"name": "amount",
							"type": "uint256"
						},
						{
							"internalType": "uint256",
							"name": "activeTimePeriod",
							"type": "uint256"
						}
					],
					"name": "openChannel",
					"outputs": [],
					"stateMutability": "nonpayable",
					"type": "function"
				}
			],
			"devdoc": {
				"kind": "dev",
				"methods": {
					"openChannel(address,address,uint256,uint256)": {
						"params": {
							"activeTimePeriod": "time period to close the channel",
							"amount": "amount of toke to be deposited to the seller",
							"sellerAddress": "Address of the seller"
						}
					}
				},
				"version": 1
			},
			"evm": {
				"assembly": "    /* \"contracts/EscrowChannel.sol\":272:7916  contract EscrowChannel {... */\n  mstore(0x40, 0x80)\n  callvalue\n  dup1\n  iszero\n  tag_1\n  jumpi\n  0x00\n  dup1\n  revert\ntag_1:\n  pop\n  dataSize(sub_0)\n  dup1\n  dataOffset(sub_0)\n  0x00\n  codecopy\n  0x00\n  return\nstop\n\nsub_0: assembly {\n        /* \"contracts/EscrowChannel.sol\":272:7916  contract EscrowChannel {... */\n      mstore(0x40, 0x80)\n      callvalue\n      dup1\n      iszero\n      tag_1\n      jumpi\n      0x00\n      dup1\n      revert\n    tag_1:\n      pop\n      jumpi(tag_2, lt(calldatasize, 0x04))\n      shr(0xe0, calldataload(0x00))\n      dup1\n      0x283ffea0\n      eq\n      tag_3\n      jumpi\n      dup1\n      0x39495ecf\n      eq\n      tag_4\n      jumpi\n      dup1\n      0x7a7ebd7b\n      eq\n      tag_5\n      jumpi\n      dup1\n      0xd8d9965a\n      eq\n      tag_6\n      jumpi\n    tag_2:\n      0x00\n      dup1\n      revert\n        /* \"contracts/EscrowChannel.sol\":4196:5021  function closeChannel(... */\n    tag_3:\n      tag_7\n      0x04\n      dup1\n      calldatasize\n      sub\n      dup2\n      add\n      swap1\n      tag_8\n      swap2\n      swap1\n      tag_9\n      jump\t// in\n    tag_8:\n      tag_10\n      jump\t// in\n    tag_7:\n      stop\n        /* \"contracts/EscrowChannel.sol\":3487:4190  function joinChannel(bytes32 channelId, uint256 amount)... */\n    tag_4:\n      tag_11\n      0x04\n      dup1\n      calldatasize\n      sub\n      dup2\n      add\n      swap1\n      tag_12\n      swap2\n      swap1\n      tag_13\n      jump\t// in\n    tag_12:\n      tag_14\n      jump\t// in\n    tag_11:\n      stop\n        /* \"contracts/EscrowChannel.sol\":966:1009  mapping(bytes32 => Channel) public channels */\n    tag_5:\n      tag_15\n      0x04\n      dup1\n      calldatasize\n      sub\n      dup2\n      add\n      swap1\n      tag_16\n      swap2\n      swap1\n      tag_17\n      jump\t// in\n    tag_16:\n      tag_18\n      jump\t// in\n    tag_15:\n      mload(0x40)\n      tag_19\n      swap11\n      swap10\n      swap9\n      swap8\n      swap7\n      swap6\n      swap5\n      swap4\n      swap3\n      swap2\n      swap1\n      tag_20\n      jump\t// in\n    tag_19:\n      mload(0x40)\n      dup1\n      swap2\n      sub\n      swap1\n      return\n        /* \"contracts/EscrowChannel.sol\":2397:3481  function openChannel(... */\n    tag_6:\n      tag_21\n      0x04\n      dup1\n      calldatasize\n      sub\n      dup2\n      add\n      swap1\n      tag_22\n      swap2\n      swap1\n      tag_23\n      jump\t// in\n    tag_22:\n      tag_24\n      jump\t// in\n    tag_21:\n      stop\n        /* \"contracts/EscrowChannel.sol\":4196:5021  function closeChannel(... */\n    tag_10:\n        /* \"contracts/EscrowChannel.sol\":4437:4446  channelId */\n      dup6\n        /* \"contracts/EscrowChannel.sol\":1527:1528  0 */\n      0x00\n        /* \"contracts/EscrowChannel.sol\":1501:1528  channels[id].channelId != 0 */\n      dup1\n      shl\n        /* \"contracts/EscrowChannel.sol\":1501:1509  channels */\n      0x00\n        /* \"contracts/EscrowChannel.sol\":1501:1513  channels[id] */\n      dup1\n        /* \"contracts/EscrowChannel.sol\":1510:1512  id */\n      dup4\n        /* \"contracts/EscrowChannel.sol\":1501:1513  channels[id] */\n      dup2\n      mstore\n      0x20\n      add\n      swap1\n      dup2\n      mstore\n      0x20\n      add\n      0x00\n      keccak256\n        /* \"contracts/EscrowChannel.sol\":1501:1523  channels[id].channelId */\n      0x00\n      add\n      sload\n        /* \"contracts/EscrowChannel.sol\":1501:1528  channels[id].channelId != 0 */\n      eq\n      iszero\n        /* \"contracts/EscrowChannel.sol\":1493:1555  require(channels[id].channelId != 0, \"Channel doesnot exists\") */\n      tag_26\n      jumpi\n      mload(0x40)\n      0x08c379a000000000000000000000000000000000000000000000000000000000\n      dup2\n      mstore\n      0x04\n      add\n      tag_27\n      swap1\n      tag_28\n      jump\t// in\n    tag_27:\n      mload(0x40)\n      dup1\n      swap2\n      sub\n      swap1\n      revert\n    tag_26:\n        /* \"contracts/EscrowChannel.sol\":4463:4472  channelId */\n      dup7\n        /* \"contracts/EscrowChannel.sol\":1356:1376  ChannelState.IS_OPEN */\n      0x00\n        /* \"contracts/EscrowChannel.sol\":1327:1376  channels[id].channelState == ChannelState.IS_OPEN */\n      0x02\n      dup2\n      gt\n      iszero\n      tag_30\n      jumpi\n      tag_31\n      tag_32\n      jump\t// in\n    tag_31:\n    tag_30:\n        /* \"contracts/EscrowChannel.sol\":1327:1335  channels */\n      0x00\n        /* \"contracts/EscrowChannel.sol\":1327:1339  channels[id] */\n      dup1\n        /* \"contracts/EscrowChannel.sol\":1336:1338  id */\n      dup4\n        /* \"contracts/EscrowChannel.sol\":1327:1339  channels[id] */\n      dup2\n      mstore\n      0x20\n      add\n      swap1\n      dup2\n      mstore\n      0x20\n      add\n      0x00\n      keccak256\n        /* \"contracts/EscrowChannel.sol\":1327:1352  channels[id].channelState */\n      0x09\n      add\n      0x00\n      swap1\n      sload\n      swap1\n      0x0100\n      exp\n      swap1\n      div\n      0xff\n      and\n        /* \"contracts/EscrowChannel.sol\":1327:1376  channels[id].channelState == ChannelState.IS_OPEN */\n      0x02\n      dup2\n      gt\n      iszero\n      tag_33\n      jumpi\n      tag_34\n      tag_32\n      jump\t// in\n    tag_34:\n    tag_33:\n      eq\n        /* \"contracts/EscrowChannel.sol\":1306:1425  require(... */\n      tag_35\n      jumpi\n      mload(0x40)\n      0x08c379a000000000000000000000000000000000000000000000000000000000\n      dup2\n      mstore\n      0x04\n      add\n      tag_36\n      swap1\n      tag_37\n      jump\t// in\n    tag_36:\n      mload(0x40)\n      dup1\n      swap2\n      sub\n      swap1\n      revert\n    tag_35:\n        /* \"contracts/EscrowChannel.sol\":4499:4508  channelId */\n      dup8\n        /* \"contracts/EscrowChannel.sol\":1855:1863  channels */\n      0x00\n        /* \"contracts/EscrowChannel.sol\":1855:1867  channels[id] */\n      dup1\n        /* \"contracts/EscrowChannel.sol\":1864:1866  id */\n      dup3\n        /* \"contracts/EscrowChannel.sol\":1855:1867  channels[id] */\n      dup2\n      mstore\n      0x20\n      add\n      swap1\n      dup2\n      mstore\n      0x20\n      add\n      0x00\n      keccak256\n        /* \"contracts/EscrowChannel.sol\":1855:1880  channels[id].buyerAddress */\n      0x02\n      add\n      0x00\n      swap1\n      sload\n      swap1\n      0x0100\n      exp\n      swap1\n      div\n      0xffffffffffffffffffffffffffffffffffffffff\n      and\n        /* \"contracts/EscrowChannel.sol\":1841:1880  msg.sender == channels[id].buyerAddress */\n      0xffffffffffffffffffffffffffffffffffffffff\n      and\n        /* \"contracts/EscrowChannel.sol\":1841:1851  msg.sender */\n      caller\n        /* \"contracts/EscrowChannel.sol\":1841:1880  msg.sender == channels[id].buyerAddress */\n      0xffffffffffffffffffffffffffffffffffffffff\n      and\n      eq\n        /* \"contracts/EscrowChannel.sol\":1841:1940  msg.sender == channels[id].buyerAddress ||... */\n      dup1\n      tag_39\n      jumpi\n      pop\n        /* \"contracts/EscrowChannel.sol\":1914:1922  channels */\n      0x00\n        /* \"contracts/EscrowChannel.sol\":1914:1926  channels[id] */\n      dup1\n        /* \"contracts/EscrowChannel.sol\":1923:1925  id */\n      dup3\n        /* \"contracts/EscrowChannel.sol\":1914:1926  channels[id] */\n      dup2\n      mstore\n      0x20\n      add\n      swap1\n      dup2\n      mstore\n      0x20\n      add\n      0x00\n      keccak256\n        /* \"contracts/EscrowChannel.sol\":1914:1940  channels[id].sellerAddress */\n      0x03\n      add\n      0x00\n      swap1\n      sload\n      swap1\n      0x0100\n      exp\n      swap1\n      div\n      0xffffffffffffffffffffffffffffffffffffffff\n      and\n        /* \"contracts/EscrowChannel.sol\":1900:1940  msg.sender == channels[id].sellerAddress */\n      0xffffffffffffffffffffffffffffffffffffffff\n      and\n        /* \"contracts/EscrowChannel.sol\":1900:1910  msg.sender */\n      caller\n        /* \"contracts/EscrowChannel.sol\":1900:1940  msg.sender == channels[id].sellerAddress */\n      0xffffffffffffffffffffffffffffffffffffffff\n      and\n      eq\n        /* \"contracts/EscrowChannel.sol\":1841:1940  msg.sender == channels[id].buyerAddress ||... */\n    tag_39:\n        /* \"contracts/EscrowChannel.sol\":1820:2004  require(... */\n      tag_40\n      jumpi\n      mload(0x40)\n      0x08c379a000000000000000000000000000000000000000000000000000000000\n      dup2\n      mstore\n      0x04\n      add\n      tag_41\n      swap1\n      tag_42\n      jump\t// in\n    tag_41:\n      mload(0x40)\n      dup1\n      swap2\n      sub\n      swap1\n      revert\n    tag_40:\n        /* \"contracts/EscrowChannel.sol\":4524:4698  verifyReceiptSignature(... */\n      tag_44\n        /* \"contracts/EscrowChannel.sol\":4560:4569  channelId */\n      dup10\n        /* \"contracts/EscrowChannel.sol\":4583:4588  nonce */\n      dup10\n        /* \"contracts/EscrowChannel.sol\":4602:4614  buyerBalance */\n      dup10\n        /* \"contracts/EscrowChannel.sol\":4628:4641  sellerBalance */\n      dup10\n        /* \"contracts/EscrowChannel.sol\":4655:4664  buyerSign */\n      dup10\n        /* \"contracts/EscrowChannel.sol\":4678:4688  sellerSign */\n      dup10\n        /* \"contracts/EscrowChannel.sol\":4524:4546  verifyReceiptSignature */\n      tag_45\n        /* \"contracts/EscrowChannel.sol\":4524:4698  verifyReceiptSignature(... */\n      jump\t// in\n    tag_44:\n        /* \"contracts/EscrowChannel.sol\":4708:4768  updateChannel(channelId, nonce, buyerBalance, sellerBalance) */\n      tag_46\n        /* \"contracts/EscrowChannel.sol\":4722:4731  channelId */\n      dup10\n        /* \"contracts/EscrowChannel.sol\":4733:4738  nonce */\n      dup10\n        /* \"contracts/EscrowChannel.sol\":4740:4752  buyerBalance */\n      dup10\n        /* \"contracts/EscrowChannel.sol\":4754:4767  sellerBalance */\n      dup10\n        /* \"contracts/EscrowChannel.sol\":4708:4721  updateChannel */\n      tag_47\n        /* \"contracts/EscrowChannel.sol\":4708:4768  updateChannel(channelId, nonce, buyerBalance, sellerBalance) */\n      jump\t// in\n    tag_46:\n        /* \"contracts/EscrowChannel.sol\":4778:4800  Channel memory channel */\n      0x00\n        /* \"contracts/EscrowChannel.sol\":4803:4811  channels */\n      dup1\n        /* \"contracts/EscrowChannel.sol\":4803:4822  channels[channelId] */\n      0x00\n        /* \"contracts/EscrowChannel.sol\":4812:4821  channelId */\n      dup12\n        /* \"contracts/EscrowChannel.sol\":4803:4822  channels[channelId] */\n      dup2\n      mstore\n      0x20\n      add\n      swap1\n      dup2\n      mstore\n      0x20\n      add\n      0x00\n      keccak256\n        /* \"contracts/EscrowChannel.sol\":4778:4822  Channel memory channel = channels[channelId] */\n      mload(0x40)\n      dup1\n      0x0140\n      add\n      0x40\n      mstore\n      swap1\n      dup2\n      0x00\n      dup3\n      add\n      sload\n      dup2\n      mstore\n      0x20\n      add\n      0x01\n      dup3\n      add\n      0x00\n      swap1\n      sload\n      swap1\n      0x0100\n      exp\n      swap1\n      div\n      0xffffffffffffffffffffffffffffffffffffffff\n      and\n      0xffffffffffffffffffffffffffffffffffffffff\n      and\n      0xffffffffffffffffffffffffffffffffffffffff\n      and\n      dup2\n      mstore\n      0x20\n      add\n      0x02\n      dup3\n      add\n      0x00\n      swap1\n      sload\n      swap1\n      0x0100\n      exp\n      swap1\n      div\n      0xffffffffffffffffffffffffffffffffffffffff\n      and\n      0xffffffffffffffffffffffffffffffffffffffff\n      and\n      0xffffffffffffffffffffffffffffffffffffffff\n      and\n      dup2\n      mstore\n      0x20\n      add\n      0x03\n      dup3\n      add\n      0x00\n      swap1\n      sload\n      swap1\n      0x0100\n      exp\n      swap1\n      div\n      0xffffffffffffffffffffffffffffffffffffffff\n      and\n      0xffffffffffffffffffffffffffffffffffffffff\n      and\n      0xffffffffffffffffffffffffffffffffffffffff\n      and\n      dup2\n      mstore\n      0x20\n      add\n      0x04\n      dup3\n      add\n      sload\n      dup2\n      mstore\n      0x20\n      add\n      0x05\n      dup3\n      add\n      sload\n      dup2\n      mstore\n      0x20\n      add\n      0x06\n      dup3\n      add\n      sload\n      dup2\n      mstore\n      0x20\n      add\n      0x07\n      dup3\n      add\n      sload\n      dup2\n      mstore\n      0x20\n      add\n      0x08\n      dup3\n      add\n      sload\n      dup2\n      mstore\n      0x20\n      add\n      0x09\n      dup3\n      add\n      0x00\n      swap1\n      sload\n      swap1\n      0x0100\n      exp\n      swap1\n      div\n      0xff\n      and\n      0x02\n      dup2\n      gt\n      iszero\n      tag_48\n      jumpi\n      tag_49\n      tag_32\n      jump\t// in\n    tag_49:\n    tag_48:\n      0x02\n      dup2\n      gt\n      iszero\n      tag_50\n      jumpi\n      tag_51\n      tag_32\n      jump\t// in\n    tag_51:\n    tag_50:\n      dup2\n      mstore\n      pop\n      pop\n      swap1\n      pop\n        /* \"contracts/EscrowChannel.sol\":4832:4855  bool channelIsnotActive */\n      0x00\n        /* \"contracts/EscrowChannel.sol\":4886:4887  0 */\n      dup1\n        /* \"contracts/EscrowChannel.sol\":4858:4865  channel */\n      dup3\n        /* \"contracts/EscrowChannel.sol\":4858:4882  channel.activeTimePeriod */\n      0x0100\n      add\n      mload\n        /* \"contracts/EscrowChannel.sol\":4858:4887  channel.activeTimePeriod == 0 */\n      eq\n        /* \"contracts/EscrowChannel.sol\":4832:4887  bool channelIsnotActive = channel.activeTimePeriod == 0 */\n      swap1\n      pop\n        /* \"contracts/EscrowChannel.sol\":4901:4919  channelIsnotActive */\n      dup1\n        /* \"contracts/EscrowChannel.sol\":4897:5015  if (channelIsnotActive) {... */\n      iszero\n      tag_52\n      jumpi\n      jump(tag_53)\n    tag_52:\n    tag_53:\n        /* \"contracts/EscrowChannel.sol\":4514:5021  {... */\n      pop\n      pop\n        /* \"contracts/EscrowChannel.sol\":1435:1436  _ */\n      pop\n        /* \"contracts/EscrowChannel.sol\":1565:1566  _ */\n      pop\n        /* \"contracts/EscrowChannel.sol\":4196:5021  function closeChannel(... */\n      pop\n      pop\n      pop\n      pop\n      pop\n      pop\n      pop\n      jump\t// out\n        /* \"contracts/EscrowChannel.sol\":3487:4190  function joinChannel(bytes32 channelId, uint256 amount)... */\n    tag_14:\n        /* \"contracts/EscrowChannel.sol\":3580:3589  channelId */\n      dup2\n        /* \"contracts/EscrowChannel.sol\":1527:1528  0 */\n      0x00\n        /* \"contracts/EscrowChannel.sol\":1501:1528  channels[id].channelId != 0 */\n      dup1\n      shl\n        /* \"contracts/EscrowChannel.sol\":1501:1509  channels */\n      0x00\n        /* \"contracts/EscrowChannel.sol\":1501:1513  channels[id] */\n      dup1\n        /* \"contracts/EscrowChannel.sol\":1510:1512  id */\n      dup4\n        /* \"contracts/EscrowChannel.sol\":1501:1513  channels[id] */\n      dup2\n      mstore\n      0x20\n      add\n      swap1\n      dup2\n      mstore\n      0x20\n      add\n      0x00\n      keccak256\n        /* \"contracts/EscrowChannel.sol\":1501:1523  channels[id].channelId */\n      0x00\n      add\n      sload\n        /* \"contracts/EscrowChannel.sol\":1501:1528  channels[id].channelId != 0 */\n      eq\n      iszero\n        /* \"contracts/EscrowChannel.sol\":1493:1555  require(channels[id].channelId != 0, \"Channel doesnot exists\") */\n      tag_55\n      jumpi\n      mload(0x40)\n      0x08c379a000000000000000000000000000000000000000000000000000000000\n      dup2\n      mstore\n      0x04\n      add\n      tag_56\n      swap1\n      tag_28\n      jump\t// in\n    tag_56:\n      mload(0x40)\n      dup1\n      swap2\n      sub\n      swap1\n      revert\n    tag_55:\n        /* \"contracts/EscrowChannel.sol\":3606:3615  channelId */\n      dup3\n        /* \"contracts/EscrowChannel.sol\":1356:1376  ChannelState.IS_OPEN */\n      0x00\n        /* \"contracts/EscrowChannel.sol\":1327:1376  channels[id].channelState == ChannelState.IS_OPEN */\n      0x02\n      dup2\n      gt\n      iszero\n      tag_58\n      jumpi\n      tag_59\n      tag_32\n      jump\t// in\n    tag_59:\n    tag_58:\n        /* \"contracts/EscrowChannel.sol\":1327:1335  channels */\n      0x00\n        /* \"contracts/EscrowChannel.sol\":1327:1339  channels[id] */\n      dup1\n        /* \"contracts/EscrowChannel.sol\":1336:1338  id */\n      dup4\n        /* \"contracts/EscrowChannel.sol\":1327:1339  channels[id] */\n      dup2\n      mstore\n      0x20\n      add\n      swap1\n      dup2\n      mstore\n      0x20\n      add\n      0x00\n      keccak256\n        /* \"contracts/EscrowChannel.sol\":1327:1352  channels[id].channelState */\n      0x09\n      add\n      0x00\n      swap1\n      sload\n      swap1\n      0x0100\n      exp\n      swap1\n      div\n      0xff\n      and\n        /* \"contracts/EscrowChannel.sol\":1327:1376  channels[id].channelState == ChannelState.IS_OPEN */\n      0x02\n      dup2\n      gt\n      iszero\n      tag_60\n      jumpi\n      tag_61\n      tag_32\n      jump\t// in\n    tag_61:\n    tag_60:\n      eq\n        /* \"contracts/EscrowChannel.sol\":1306:1425  require(... */\n      tag_62\n      jumpi\n      mload(0x40)\n      0x08c379a000000000000000000000000000000000000000000000000000000000\n      dup2\n      mstore\n      0x04\n      add\n      tag_63\n      swap1\n      tag_37\n      jump\t// in\n    tag_63:\n      mload(0x40)\n      dup1\n      swap2\n      sub\n      swap1\n      revert\n    tag_62:\n        /* \"contracts/EscrowChannel.sol\":3631:3652  address sellerAddress */\n      0x00\n        /* \"contracts/EscrowChannel.sol\":3655:3665  msg.sender */\n      caller\n        /* \"contracts/EscrowChannel.sol\":3631:3665  address sellerAddress = msg.sender */\n      swap1\n      pop\n        /* \"contracts/EscrowChannel.sol\":3675:3698  Channel storage channel */\n      0x00\n        /* \"contracts/EscrowChannel.sol\":3701:3709  channels */\n      dup1\n        /* \"contracts/EscrowChannel.sol\":3701:3720  channels[channelId] */\n      0x00\n        /* \"contracts/EscrowChannel.sol\":3710:3719  channelId */\n      dup8\n        /* \"contracts/EscrowChannel.sol\":3701:3720  channels[channelId] */\n      dup2\n      mstore\n      0x20\n      add\n      swap1\n      dup2\n      mstore\n      0x20\n      add\n      0x00\n      keccak256\n        /* \"contracts/EscrowChannel.sol\":3675:3720  Channel storage channel = channels[channelId] */\n      swap1\n      pop\n        /* \"contracts/EscrowChannel.sol\":3776:3789  sellerAddress */\n      dup2\n        /* \"contracts/EscrowChannel.sol\":3751:3789  channel.sellerAddress == sellerAddress */\n      0xffffffffffffffffffffffffffffffffffffffff\n      and\n        /* \"contracts/EscrowChannel.sol\":3751:3758  channel */\n      dup2\n        /* \"contracts/EscrowChannel.sol\":3751:3772  channel.sellerAddress */\n      0x03\n      add\n      0x00\n      swap1\n      sload\n      swap1\n      0x0100\n      exp\n      swap1\n      div\n      0xffffffffffffffffffffffffffffffffffffffff\n      and\n        /* \"contracts/EscrowChannel.sol\":3751:3789  channel.sellerAddress == sellerAddress */\n      0xffffffffffffffffffffffffffffffffffffffff\n      and\n      eq\n        /* \"contracts/EscrowChannel.sol\":3730:3864  require(... */\n      tag_65\n      jumpi\n      mload(0x40)\n      0x08c379a000000000000000000000000000000000000000000000000000000000\n      dup2\n      mstore\n      0x04\n      add\n      tag_66\n      swap1\n      tag_67\n      jump\t// in\n    tag_66:\n      mload(0x40)\n      dup1\n      swap2\n      sub\n      swap1\n      revert\n    tag_65:\n        /* \"contracts/EscrowChannel.sol\":3921:3922  0 */\n      0x00\n        /* \"contracts/EscrowChannel.sol\":3896:3903  channel */\n      dup2\n        /* \"contracts/EscrowChannel.sol\":3896:3917  channel.sellerBalance */\n      0x05\n      add\n      sload\n        /* \"contracts/EscrowChannel.sol\":3896:3922  channel.sellerBalance == 0 */\n      eq\n        /* \"contracts/EscrowChannel.sol\":3875:3985  require(... */\n      tag_68\n      jumpi\n      mload(0x40)\n      0x08c379a000000000000000000000000000000000000000000000000000000000\n      dup2\n      mstore\n      0x04\n      add\n      tag_69\n      swap1\n      tag_70\n      jump\t// in\n    tag_69:\n      mload(0x40)\n      dup1\n      swap2\n      sub\n      swap1\n      revert\n    tag_68:\n        /* \"contracts/EscrowChannel.sol\":4014:4015  0 */\n      0x00\n        /* \"contracts/EscrowChannel.sol\":4004:4010  amount */\n      dup6\n        /* \"contracts/EscrowChannel.sol\":4004:4015  amount >= 0 */\n      lt\n      iszero\n        /* \"contracts/EscrowChannel.sol\":3996:4037  require(amount >= 0, \"Incorrect amount.\") */\n      tag_71\n      jumpi\n      mload(0x40)\n      0x08c379a000000000000000000000000000000000000000000000000000000000\n      dup2\n      mstore\n      0x04\n      add\n      tag_72\n      swap1\n      tag_73\n      jump\t// in\n    tag_72:\n      mload(0x40)\n      dup1\n      swap2\n      sub\n      swap1\n      revert\n    tag_71:\n        /* \"contracts/EscrowChannel.sol\":4047:4105  receiveTokens(channel.tokenAddress, sellerAddress, amount) */\n      tag_74\n        /* \"contracts/EscrowChannel.sol\":4061:4068  channel */\n      dup2\n        /* \"contracts/EscrowChannel.sol\":4061:4081  channel.tokenAddress */\n      0x01\n      add\n      0x00\n      swap1\n      sload\n      swap1\n      0x0100\n      exp\n      swap1\n      div\n      0xffffffffffffffffffffffffffffffffffffffff\n      and\n        /* \"contracts/EscrowChannel.sol\":4083:4096  sellerAddress */\n      dup4\n        /* \"contracts/EscrowChannel.sol\":4098:4104  amount */\n      dup8\n        /* \"contracts/EscrowChannel.sol\":4047:4060  receiveTokens */\n      tag_75\n        /* \"contracts/EscrowChannel.sol\":4047:4105  receiveTokens(channel.tokenAddress, sellerAddress, amount) */\n      jump\t// in\n    tag_74:\n        /* \"contracts/EscrowChannel.sol\":4139:4145  amount */\n      dup5\n        /* \"contracts/EscrowChannel.sol\":4115:4122  channel */\n      dup2\n        /* \"contracts/EscrowChannel.sol\":4115:4136  channel.sellerBalance */\n      0x05\n      add\n        /* \"contracts/EscrowChannel.sol\":4115:4145  channel.sellerBalance = amount */\n      dup2\n      swap1\n      sstore\n      pop\n        /* \"contracts/EscrowChannel.sol\":4160:4183  SellerJoined(channelId) */\n      0x0f95d1a0e16b2a02afb2c679641b33c436dc227961d7572876640cd2ec17937c\n        /* \"contracts/EscrowChannel.sol\":4173:4182  channelId */\n      dup7\n        /* \"contracts/EscrowChannel.sol\":4160:4183  SellerJoined(channelId) */\n      mload(0x40)\n      tag_76\n      swap2\n      swap1\n      tag_77\n      jump\t// in\n    tag_76:\n      mload(0x40)\n      dup1\n      swap2\n      sub\n      swap1\n      log1\n        /* \"contracts/EscrowChannel.sol\":3621:4190  {... */\n      pop\n      pop\n        /* \"contracts/EscrowChannel.sol\":1565:1566  _ */\n      pop\n        /* \"contracts/EscrowChannel.sol\":3487:4190  function joinChannel(bytes32 channelId, uint256 amount)... */\n      pop\n      pop\n      pop\n      jump\t// out\n        /* \"contracts/EscrowChannel.sol\":966:1009  mapping(bytes32 => Channel) public channels */\n    tag_18:\n      mstore(0x20, 0x00)\n      dup1\n      0x00\n      mstore\n      keccak256(0x00, 0x40)\n      0x00\n      swap2\n      pop\n      swap1\n      pop\n      dup1\n      0x00\n      add\n      sload\n      swap1\n      dup1\n      0x01\n      add\n      0x00\n      swap1\n      sload\n      swap1\n      0x0100\n      exp\n      swap1\n      div\n      0xffffffffffffffffffffffffffffffffffffffff\n      and\n      swap1\n      dup1\n      0x02\n      add\n      0x00\n      swap1\n      sload\n      swap1\n      0x0100\n      exp\n      swap1\n      div\n      0xffffffffffffffffffffffffffffffffffffffff\n      and\n      swap1\n      dup1\n      0x03\n      add\n      0x00\n      swap1\n      sload\n      swap1\n      0x0100\n      exp\n      swap1\n      div\n      0xffffffffffffffffffffffffffffffffffffffff\n      and\n      swap1\n      dup1\n      0x04\n      add\n      sload\n      swap1\n      dup1\n      0x05\n      add\n      sload\n      swap1\n      dup1\n      0x06\n      add\n      sload\n      swap1\n      dup1\n      0x07\n      add\n      sload\n      swap1\n      dup1\n      0x08\n      add\n      sload\n      swap1\n      dup1\n      0x09\n      add\n      0x00\n      swap1\n      sload\n      swap1\n      0x0100\n      exp\n      swap1\n      div\n      0xff\n      and\n      swap1\n      pop\n      dup11\n      jump\t// out\n        /* \"contracts/EscrowChannel.sol\":2397:3481  function openChannel(... */\n    tag_24:\n        /* \"contracts/EscrowChannel.sol\":2560:2580  address buyerAddress */\n      0x00\n        /* \"contracts/EscrowChannel.sol\":2583:2593  msg.sender */\n      caller\n        /* \"contracts/EscrowChannel.sol\":2560:2593  address buyerAddress = msg.sender */\n      swap1\n      pop\n        /* \"contracts/EscrowChannel.sol\":2640:2653  sellerAddress */\n      dup4\n        /* \"contracts/EscrowChannel.sol\":2624:2653  buyerAddress != sellerAddress */\n      0xffffffffffffffffffffffffffffffffffffffff\n      and\n        /* \"contracts/EscrowChannel.sol\":2624:2636  buyerAddress */\n      dup2\n        /* \"contracts/EscrowChannel.sol\":2624:2653  buyerAddress != sellerAddress */\n      0xffffffffffffffffffffffffffffffffffffffff\n      and\n      eq\n      iszero\n        /* \"contracts/EscrowChannel.sol\":2603:2719  require(... */\n      tag_79\n      jumpi\n      mload(0x40)\n      0x08c379a000000000000000000000000000000000000000000000000000000000\n      dup2\n      mstore\n      0x04\n      add\n      tag_80\n      swap1\n      tag_81\n      jump\t// in\n    tag_80:\n      mload(0x40)\n      dup1\n      swap2\n      sub\n      swap1\n      revert\n    tag_79:\n        /* \"contracts/EscrowChannel.sol\":2747:2748  0 */\n      0x00\n        /* \"contracts/EscrowChannel.sol\":2737:2743  amount */\n      dup4\n        /* \"contracts/EscrowChannel.sol\":2737:2748  amount != 0 */\n      eq\n      iszero\n        /* \"contracts/EscrowChannel.sol\":2729:2775  require(amount != 0, \"you must make payments\") */\n      tag_82\n      jumpi\n      mload(0x40)\n      0x08c379a000000000000000000000000000000000000000000000000000000000\n      dup2\n      mstore\n      0x04\n      add\n      tag_83\n      swap1\n      tag_84\n      jump\t// in\n    tag_83:\n      mload(0x40)\n      dup1\n      swap2\n      sub\n      swap1\n      revert\n    tag_82:\n        /* \"contracts/EscrowChannel.sol\":2786:2803  bytes32 channelId */\n      0x00\n        /* \"contracts/EscrowChannel.sol\":2863:2875  tokenAddress */\n      dup6\n        /* \"contracts/EscrowChannel.sol\":2893:2906  sellerAddress */\n      dup6\n        /* \"contracts/EscrowChannel.sol\":2924:2936  buyerAddress */\n      dup4\n        /* \"contracts/EscrowChannel.sol\":2954:2966  block.number */\n      number\n        /* \"contracts/EscrowChannel.sol\":2829:2980  abi.encodePacked(... */\n      add(0x20, mload(0x40))\n      tag_85\n      swap5\n      swap4\n      swap3\n      swap2\n      swap1\n      tag_86\n      jump\t// in\n    tag_85:\n      mload(0x40)\n      0x20\n      dup2\n      dup4\n      sub\n      sub\n      dup2\n      mstore\n      swap1\n      0x40\n      mstore\n        /* \"contracts/EscrowChannel.sol\":2806:2990  keccak256(... */\n      dup1\n      mload\n      swap1\n      0x20\n      add\n      keccak256\n        /* \"contracts/EscrowChannel.sol\":2786:2990  bytes32 channelId = keccak256(... */\n      swap1\n      pop\n        /* \"contracts/EscrowChannel.sol\":3000:3022  Channel memory channel */\n      0x00\n        /* \"contracts/EscrowChannel.sol\":3025:3329  Channel(... */\n      mload(0x40)\n      dup1\n      0x0140\n      add\n      0x40\n      mstore\n      dup1\n        /* \"contracts/EscrowChannel.sol\":3046:3055  channelId */\n      dup4\n        /* \"contracts/EscrowChannel.sol\":3025:3329  Channel(... */\n      dup2\n      mstore\n      0x20\n      add\n        /* \"contracts/EscrowChannel.sol\":3069:3081  tokenAddress */\n      dup9\n        /* \"contracts/EscrowChannel.sol\":3025:3329  Channel(... */\n      0xffffffffffffffffffffffffffffffffffffffff\n      and\n      dup2\n      mstore\n      0x20\n      add\n        /* \"contracts/EscrowChannel.sol\":3095:3107  buyerAddress */\n      dup5\n        /* \"contracts/EscrowChannel.sol\":3025:3329  Channel(... */\n      0xffffffffffffffffffffffffffffffffffffffff\n      and\n      dup2\n      mstore\n      0x20\n      add\n        /* \"contracts/EscrowChannel.sol\":3121:3134  sellerAddress */\n      dup8\n        /* \"contracts/EscrowChannel.sol\":3025:3329  Channel(... */\n      0xffffffffffffffffffffffffffffffffffffffff\n      and\n      dup2\n      mstore\n      0x20\n      add\n        /* \"contracts/EscrowChannel.sol\":3148:3154  amount */\n      dup7\n        /* \"contracts/EscrowChannel.sol\":3025:3329  Channel(... */\n      dup2\n      mstore\n      0x20\n      add\n        /* \"contracts/EscrowChannel.sol\":3184:3185  0 */\n      0x00\n        /* \"contracts/EscrowChannel.sol\":3025:3329  Channel(... */\n      dup2\n      mstore\n      0x20\n      add\n        /* \"contracts/EscrowChannel.sol\":3216:3217  0 */\n      0x00\n        /* \"contracts/EscrowChannel.sol\":3025:3329  Channel(... */\n      dup2\n      mstore\n      0x20\n      add\n        /* \"contracts/EscrowChannel.sol\":3239:3240  0 */\n      0x00\n        /* \"contracts/EscrowChannel.sol\":3025:3329  Channel(... */\n      dup2\n      mstore\n      0x20\n      add\n        /* \"contracts/EscrowChannel.sol\":3269:3285  activeTimePeriod */\n      dup6\n        /* \"contracts/EscrowChannel.sol\":3025:3329  Channel(... */\n      dup2\n      mstore\n      0x20\n      add\n        /* \"contracts/EscrowChannel.sol\":3299:3319  ChannelState.IS_OPEN */\n      0x00\n        /* \"contracts/EscrowChannel.sol\":3025:3329  Channel(... */\n      0x02\n      dup2\n      gt\n      iszero\n      tag_87\n      jumpi\n      tag_88\n      tag_32\n      jump\t// in\n    tag_88:\n    tag_87:\n      dup2\n      mstore\n      pop\n        /* \"contracts/EscrowChannel.sol\":3000:3329  Channel memory channel = Channel(... */\n      swap1\n      pop\n        /* \"contracts/EscrowChannel.sol\":3339:3396  receiveTokens(channel.tokenAddress, buyerAddress, amount) */\n      tag_89\n        /* \"contracts/EscrowChannel.sol\":3353:3360  channel */\n      dup2\n        /* \"contracts/EscrowChannel.sol\":3353:3373  channel.tokenAddress */\n      0x20\n      add\n      mload\n        /* \"contracts/EscrowChannel.sol\":3375:3387  buyerAddress */\n      dup5\n        /* \"contracts/EscrowChannel.sol\":3389:3395  amount */\n      dup8\n        /* \"contracts/EscrowChannel.sol\":3339:3352  receiveTokens */\n      tag_75\n        /* \"contracts/EscrowChannel.sol\":3339:3396  receiveTokens(channel.tokenAddress, buyerAddress, amount) */\n      jump\t// in\n    tag_89:\n        /* \"contracts/EscrowChannel.sol\":3428:3435  channel */\n      dup1\n        /* \"contracts/EscrowChannel.sol\":3406:3414  channels */\n      0x00\n        /* \"contracts/EscrowChannel.sol\":3406:3425  channels[channelId] */\n      dup1\n        /* \"contracts/EscrowChannel.sol\":3415:3424  channelId */\n      dup5\n        /* \"contracts/EscrowChannel.sol\":3406:3425  channels[channelId] */\n      dup2\n      mstore\n      0x20\n      add\n      swap1\n      dup2\n      mstore\n      0x20\n      add\n      0x00\n      keccak256\n        /* \"contracts/EscrowChannel.sol\":3406:3435  channels[channelId] = channel */\n      0x00\n      dup3\n      add\n      mload\n      dup2\n      0x00\n      add\n      sstore\n      0x20\n      dup3\n      add\n      mload\n      dup2\n      0x01\n      add\n      exp(0x0100, 0x00)\n      dup2\n      sload\n      dup2\n      0xffffffffffffffffffffffffffffffffffffffff\n      mul\n      not\n      and\n      swap1\n      dup4\n      0xffffffffffffffffffffffffffffffffffffffff\n      and\n      mul\n      or\n      swap1\n      sstore\n      pop\n      0x40\n      dup3\n      add\n      mload\n      dup2\n      0x02\n      add\n      exp(0x0100, 0x00)\n      dup2\n      sload\n      dup2\n      0xffffffffffffffffffffffffffffffffffffffff\n      mul\n      not\n      and\n      swap1\n      dup4\n      0xffffffffffffffffffffffffffffffffffffffff\n      and\n      mul\n      or\n      swap1\n      sstore\n      pop\n      0x60\n      dup3\n      add\n      mload\n      dup2\n      0x03\n      add\n      exp(0x0100, 0x00)\n      dup2\n      sload\n      dup2\n      0xffffffffffffffffffffffffffffffffffffffff\n      mul\n      not\n      and\n      swap1\n      dup4\n      0xffffffffffffffffffffffffffffffffffffffff\n      and\n      mul\n      or\n      swap1\n      sstore\n      pop\n      0x80\n      dup3\n      add\n      mload\n      dup2\n      0x04\n      add\n      sstore\n      0xa0\n      dup3\n      add\n      mload\n      dup2\n      0x05\n      add\n      sstore\n      0xc0\n      dup3\n      add\n      mload\n      dup2\n      0x06\n      add\n      sstore\n      0xe0\n      dup3\n      add\n      mload\n      dup2\n      0x07\n      add\n      sstore\n      0x0100\n      dup3\n      add\n      mload\n      dup2\n      0x08\n      add\n      sstore\n      0x0120\n      dup3\n      add\n      mload\n      dup2\n      0x09\n      add\n      exp(0x0100, 0x00)\n      dup2\n      sload\n      dup2\n      0xff\n      mul\n      not\n      and\n      swap1\n      dup4\n      0x02\n      dup2\n      gt\n      iszero\n      tag_90\n      jumpi\n      tag_91\n      tag_32\n      jump\t// in\n    tag_91:\n    tag_90:\n      mul\n      or\n      swap1\n      sstore\n      pop\n      swap1\n      pop\n      pop\n        /* \"contracts/EscrowChannel.sol\":3450:3474  ChannelOpened(channelId) */\n      0x7ffc675d721b8768e035a323722842743bb523487b535906abc97e6b3e2095d0\n        /* \"contracts/EscrowChannel.sol\":3464:3473  channelId */\n      dup3\n        /* \"contracts/EscrowChannel.sol\":3450:3474  ChannelOpened(channelId) */\n      mload(0x40)\n      tag_92\n      swap2\n      swap1\n      tag_77\n      jump\t// in\n    tag_92:\n      mload(0x40)\n      dup1\n      swap2\n      sub\n      swap1\n      log1\n        /* \"contracts/EscrowChannel.sol\":2550:3481  {... */\n      pop\n      pop\n      pop\n        /* \"contracts/EscrowChannel.sol\":2397:3481  function openChannel(... */\n      pop\n      pop\n      pop\n      pop\n      jump\t// out\n        /* \"contracts/EscrowChannel.sol\":5715:6417  function verifyReceiptSignature(... */\n    tag_45:\n        /* \"contracts/EscrowChannel.sol\":5953:5975  Channel memory channel */\n      0x00\n        /* \"contracts/EscrowChannel.sol\":5978:5986  channels */\n      dup1\n        /* \"contracts/EscrowChannel.sol\":5978:5997  channels[channelId] */\n      0x00\n        /* \"contracts/EscrowChannel.sol\":5987:5996  channelId */\n      dup9\n        /* \"contracts/EscrowChannel.sol\":5978:5997  channels[channelId] */\n      dup2\n      mstore\n      0x20\n      add\n      swap1\n      dup2\n      mstore\n      0x20\n      add\n      0x00\n      keccak256\n        /* \"contracts/EscrowChannel.sol\":5953:5997  Channel memory channel = channels[channelId] */\n      mload(0x40)\n      dup1\n      0x0140\n      add\n      0x40\n      mstore\n      swap1\n      dup2\n      0x00\n      dup3\n      add\n      sload\n      dup2\n      mstore\n      0x20\n      add\n      0x01\n      dup3\n      add\n      0x00\n      swap1\n      sload\n      swap1\n      0x0100\n      exp\n      swap1\n      div\n      0xffffffffffffffffffffffffffffffffffffffff\n      and\n      0xffffffffffffffffffffffffffffffffffffffff\n      and\n      0xffffffffffffffffffffffffffffffffffffffff\n      and\n      dup2\n      mstore\n      0x20\n      add\n      0x02\n      dup3\n      add\n      0x00\n      swap1\n      sload\n      swap1\n      0x0100\n      exp\n      swap1\n      div\n      0xffffffffffffffffffffffffffffffffffffffff\n      and\n      0xffffffffffffffffffffffffffffffffffffffff\n      and\n      0xffffffffffffffffffffffffffffffffffffffff\n      and\n      dup2\n      mstore\n      0x20\n      add\n      0x03\n      dup3\n      add\n      0x00\n      swap1\n      sload\n      swap1\n      0x0100\n      exp\n      swap1\n      div\n      0xffffffffffffffffffffffffffffffffffffffff\n      and\n      0xffffffffffffffffffffffffffffffffffffffff\n      and\n      0xffffffffffffffffffffffffffffffffffffffff\n      and\n      dup2\n      mstore\n      0x20\n      add\n      0x04\n      dup3\n      add\n      sload\n      dup2\n      mstore\n      0x20\n      add\n      0x05\n      dup3\n      add\n      sload\n      dup2\n      mstore\n      0x20\n      add\n      0x06\n      dup3\n      add\n      sload\n      dup2\n      mstore\n      0x20\n      add\n      0x07\n      dup3\n      add\n      sload\n      dup2\n      mstore\n      0x20\n      add\n      0x08\n      dup3\n      add\n      sload\n      dup2\n      mstore\n      0x20\n      add\n      0x09\n      dup3\n      add\n      0x00\n      swap1\n      sload\n      swap1\n      0x0100\n      exp\n      swap1\n      div\n      0xff\n      and\n      0x02\n      dup2\n      gt\n      iszero\n      tag_94\n      jumpi\n      tag_95\n      tag_32\n      jump\t// in\n    tag_95:\n    tag_94:\n      0x02\n      dup2\n      gt\n      iszero\n      tag_96\n      jumpi\n      tag_97\n      tag_32\n      jump\t// in\n    tag_97:\n    tag_96:\n      dup2\n      mstore\n      pop\n      pop\n      swap1\n      pop\n        /* \"contracts/EscrowChannel.sol\":6007:6027  bytes32 generateHash */\n      0x00\n        /* \"contracts/EscrowChannel.sol\":6070:6079  channelId */\n      dup8\n        /* \"contracts/EscrowChannel.sol\":6081:6093  buyerBalance */\n      dup7\n        /* \"contracts/EscrowChannel.sol\":6095:6108  sellerBalance */\n      dup7\n        /* \"contracts/EscrowChannel.sol\":6110:6115  nonce */\n      dup10\n        /* \"contracts/EscrowChannel.sol\":6053:6116  abi.encodePacked(channelId, buyerBalance, sellerBalance, nonce) */\n      add(0x20, mload(0x40))\n      tag_98\n      swap5\n      swap4\n      swap3\n      swap2\n      swap1\n      tag_99\n      jump\t// in\n    tag_98:\n      mload(0x40)\n      0x20\n      dup2\n      dup4\n      sub\n      sub\n      dup2\n      mstore\n      swap1\n      0x40\n      mstore\n        /* \"contracts/EscrowChannel.sol\":6030:6126  keccak256(... */\n      dup1\n      mload\n      swap1\n      0x20\n      add\n      keccak256\n        /* \"contracts/EscrowChannel.sol\":6007:6126  bytes32 generateHash = keccak256(... */\n      swap1\n      pop\n        /* \"contracts/EscrowChannel.sol\":6158:6215  verifyHash(generateHash, buyerSign, channel.buyerAddress) */\n      tag_100\n        /* \"contracts/EscrowChannel.sol\":6169:6181  generateHash */\n      dup2\n        /* \"contracts/EscrowChannel.sol\":6183:6192  buyerSign */\n      dup6\n        /* \"contracts/EscrowChannel.sol\":6194:6201  channel */\n      dup5\n        /* \"contracts/EscrowChannel.sol\":6194:6214  channel.buyerAddress */\n      0x40\n      add\n      mload\n        /* \"contracts/EscrowChannel.sol\":6158:6168  verifyHash */\n      tag_101\n        /* \"contracts/EscrowChannel.sol\":6158:6215  verifyHash(generateHash, buyerSign, channel.buyerAddress) */\n      jump\t// in\n    tag_100:\n        /* \"contracts/EscrowChannel.sol\":6137:6267  require(... */\n      tag_102\n      jumpi\n      mload(0x40)\n      0x08c379a000000000000000000000000000000000000000000000000000000000\n      dup2\n      mstore\n      0x04\n      add\n      tag_103\n      swap1\n      tag_104\n      jump\t// in\n    tag_103:\n      mload(0x40)\n      dup1\n      swap2\n      sub\n      swap1\n      revert\n    tag_102:\n        /* \"contracts/EscrowChannel.sol\":6298:6357  verifyHash(generateHash, sellerSign, channel.sellerAddress) */\n      tag_105\n        /* \"contracts/EscrowChannel.sol\":6309:6321  generateHash */\n      dup2\n        /* \"contracts/EscrowChannel.sol\":6323:6333  sellerSign */\n      dup5\n        /* \"contracts/EscrowChannel.sol\":6335:6342  channel */\n      dup5\n        /* \"contracts/EscrowChannel.sol\":6335:6356  channel.sellerAddress */\n      0x60\n      add\n      mload\n        /* \"contracts/EscrowChannel.sol\":6298:6308  verifyHash */\n      tag_101\n        /* \"contracts/EscrowChannel.sol\":6298:6357  verifyHash(generateHash, sellerSign, channel.sellerAddress) */\n      jump\t// in\n    tag_105:\n        /* \"contracts/EscrowChannel.sol\":6277:6410  require(... */\n      tag_106\n      jumpi\n      mload(0x40)\n      0x08c379a000000000000000000000000000000000000000000000000000000000\n      dup2\n      mstore\n      0x04\n      add\n      tag_107\n      swap1\n      tag_108\n      jump\t// in\n    tag_107:\n      mload(0x40)\n      dup1\n      swap2\n      sub\n      swap1\n      revert\n    tag_106:\n        /* \"contracts/EscrowChannel.sol\":5943:6417  {... */\n      pop\n      pop\n        /* \"contracts/EscrowChannel.sol\":5715:6417  function verifyReceiptSignature(... */\n      pop\n      pop\n      pop\n      pop\n      pop\n      pop\n      jump\t// out\n        /* \"contracts/EscrowChannel.sol\":6423:7102  function updateChannel(... */\n    tag_47:\n        /* \"contracts/EscrowChannel.sol\":6582:6605  Channel storage channel */\n      0x00\n        /* \"contracts/EscrowChannel.sol\":6608:6616  channels */\n      dup1\n        /* \"contracts/EscrowChannel.sol\":6608:6627  channels[channelId] */\n      0x00\n        /* \"contracts/EscrowChannel.sol\":6617:6626  channelId */\n      dup7\n        /* \"contracts/EscrowChannel.sol\":6608:6627  channels[channelId] */\n      dup2\n      mstore\n      0x20\n      add\n      swap1\n      dup2\n      mstore\n      0x20\n      add\n      0x00\n      keccak256\n        /* \"contracts/EscrowChannel.sol\":6582:6627  Channel storage channel = channels[channelId] */\n      swap1\n      pop\n        /* \"contracts/EscrowChannel.sol\":6732:6739  channel */\n      dup1\n        /* \"contracts/EscrowChannel.sol\":6732:6753  channel.sellerBalance */\n      0x05\n      add\n      sload\n        /* \"contracts/EscrowChannel.sol\":6709:6716  channel */\n      dup2\n        /* \"contracts/EscrowChannel.sol\":6709:6729  channel.buyerBalance */\n      0x04\n      add\n      sload\n        /* \"contracts/EscrowChannel.sol\":6709:6753  channel.buyerBalance + channel.sellerBalance */\n      tag_110\n      swap2\n      swap1\n      tag_111\n      jump\t// in\n    tag_110:\n        /* \"contracts/EscrowChannel.sol\":6674:6687  sellerBalance */\n      dup3\n        /* \"contracts/EscrowChannel.sol\":6659:6671  buyerBalance */\n      dup5\n        /* \"contracts/EscrowChannel.sol\":6659:6687  buyerBalance + sellerBalance */\n      tag_112\n      swap2\n      swap1\n      tag_111\n      jump\t// in\n    tag_112:\n        /* \"contracts/EscrowChannel.sol\":6658:6754  (buyerBalance + sellerBalance) ==... */\n      eq\n        /* \"contracts/EscrowChannel.sol\":6637:6840  require(... */\n      tag_113\n      jumpi\n      mload(0x40)\n      0x08c379a000000000000000000000000000000000000000000000000000000000\n      dup2\n      mstore\n      0x04\n      add\n      tag_114\n      swap1\n      tag_115\n      jump\t// in\n    tag_114:\n      mload(0x40)\n      dup1\n      swap2\n      sub\n      swap1\n      revert\n    tag_113:\n        /* \"contracts/EscrowChannel.sol\":6866:6871  nonce */\n      dup4\n        /* \"contracts/EscrowChannel.sol\":6850:6857  channel */\n      dup2\n        /* \"contracts/EscrowChannel.sol\":6850:6863  channel.nonce */\n      0x06\n      add\n        /* \"contracts/EscrowChannel.sol\":6850:6871  channel.nonce = nonce */\n      dup2\n      swap1\n      sstore\n      pop\n        /* \"contracts/EscrowChannel.sol\":6904:6916  buyerBalance */\n      dup3\n        /* \"contracts/EscrowChannel.sol\":6881:6888  channel */\n      dup2\n        /* \"contracts/EscrowChannel.sol\":6881:6901  channel.buyerBalance */\n      0x04\n      add\n        /* \"contracts/EscrowChannel.sol\":6881:6916  channel.buyerBalance = buyerBalance */\n      dup2\n      swap1\n      sstore\n      pop\n        /* \"contracts/EscrowChannel.sol\":6950:6963  sellerBalance */\n      dup2\n        /* \"contracts/EscrowChannel.sol\":6926:6933  channel */\n      dup2\n        /* \"contracts/EscrowChannel.sol\":6926:6947  channel.sellerBalance */\n      0x05\n      add\n        /* \"contracts/EscrowChannel.sol\":6926:6963  channel.sellerBalance = sellerBalance */\n      dup2\n      swap1\n      sstore\n      pop\n        /* \"contracts/EscrowChannel.sol\":7000:7001  0 */\n      0x00\n        /* \"contracts/EscrowChannel.sol\":6977:6984  channel */\n      dup2\n        /* \"contracts/EscrowChannel.sol\":6977:6996  channel.closingTime */\n      0x07\n      add\n      sload\n        /* \"contracts/EscrowChannel.sol\":6977:7001  channel.closingTime == 0 */\n      eq\n        /* \"contracts/EscrowChannel.sol\":6973:7040  if (channel.closingTime == 0) channel.closingTime = block.timestamp */\n      iszero\n      tag_116\n      jumpi\n        /* \"contracts/EscrowChannel.sol\":7025:7040  block.timestamp */\n      timestamp\n        /* \"contracts/EscrowChannel.sol\":7003:7010  channel */\n      dup2\n        /* \"contracts/EscrowChannel.sol\":7003:7022  channel.closingTime */\n      0x07\n      add\n        /* \"contracts/EscrowChannel.sol\":7003:7040  channel.closingTime = block.timestamp */\n      dup2\n      swap1\n      sstore\n      pop\n        /* \"contracts/EscrowChannel.sol\":6973:7040  if (channel.closingTime == 0) channel.closingTime = block.timestamp */\n    tag_116:\n        /* \"contracts/EscrowChannel.sol\":7073:7095  ChannelState.IS_ACTIVE */\n      0x01\n        /* \"contracts/EscrowChannel.sol\":7050:7057  channel */\n      dup2\n        /* \"contracts/EscrowChannel.sol\":7050:7070  channel.channelState */\n      0x09\n      add\n      0x00\n        /* \"contracts/EscrowChannel.sol\":7050:7095  channel.channelState = ChannelState.IS_ACTIVE */\n      0x0100\n      exp\n      dup2\n      sload\n      dup2\n      0xff\n      mul\n      not\n      and\n      swap1\n      dup4\n      0x02\n      dup2\n      gt\n      iszero\n      tag_117\n      jumpi\n      tag_118\n      tag_32\n      jump\t// in\n    tag_118:\n    tag_117:\n      mul\n      or\n      swap1\n      sstore\n      pop\n        /* \"contracts/EscrowChannel.sol\":6572:7102  {... */\n      pop\n        /* \"contracts/EscrowChannel.sol\":6423:7102  function updateChannel(... */\n      pop\n      pop\n      pop\n      pop\n      jump\t// out\n        /* \"contracts/EscrowChannel.sol\":5181:5446  function receiveTokens(... */\n    tag_75:\n        /* \"contracts/EscrowChannel.sol\":5318:5319  0 */\n      0x00\n        /* \"contracts/EscrowChannel.sol\":5309:5315  amount */\n      dup2\n        /* \"contracts/EscrowChannel.sol\":5309:5319  amount > 0 */\n      gt\n        /* \"contracts/EscrowChannel.sol\":5305:5440  if (amount > 0) {... */\n      iszero\n      tag_120\n      jumpi\n        /* \"contracts/EscrowChannel.sol\":5335:5346  ERC20 token */\n      0x00\n        /* \"contracts/EscrowChannel.sol\":5355:5367  tokenAddress */\n      dup4\n        /* \"contracts/EscrowChannel.sol\":5335:5368  ERC20 token = ERC20(tokenAddress) */\n      swap1\n      pop\n        /* \"contracts/EscrowChannel.sol\":5382:5387  token */\n      dup1\n        /* \"contracts/EscrowChannel.sol\":5382:5400  token.transferFrom */\n      0xffffffffffffffffffffffffffffffffffffffff\n      and\n      0x23b872dd\n        /* \"contracts/EscrowChannel.sol\":5401:5405  from */\n      dup5\n        /* \"contracts/EscrowChannel.sol\":5415:5419  this */\n      address\n        /* \"contracts/EscrowChannel.sol\":5422:5428  amount */\n      dup6\n        /* \"contracts/EscrowChannel.sol\":5382:5429  token.transferFrom(from, address(this), amount) */\n      mload(0x40)\n      dup5\n      0xffffffff\n      and\n      0xe0\n      shl\n      dup2\n      mstore\n      0x04\n      add\n      tag_121\n      swap4\n      swap3\n      swap2\n      swap1\n      tag_122\n      jump\t// in\n    tag_121:\n      0x20\n      mload(0x40)\n      dup1\n      dup4\n      sub\n      dup2\n      0x00\n      dup8\n      dup1\n      extcodesize\n      iszero\n      dup1\n      iszero\n      tag_123\n      jumpi\n      0x00\n      dup1\n      revert\n    tag_123:\n      pop\n      gas\n      call\n      iszero\n      dup1\n      iszero\n      tag_125\n      jumpi\n      returndatasize\n      0x00\n      dup1\n      returndatacopy\n      revert(0x00, returndatasize)\n    tag_125:\n      pop\n      pop\n      pop\n      pop\n      mload(0x40)\n      returndatasize\n      not(0x1f)\n      0x1f\n      dup3\n      add\n      and\n      dup3\n      add\n      dup1\n      0x40\n      mstore\n      pop\n      dup2\n      add\n      swap1\n      tag_126\n      swap2\n      swap1\n      tag_127\n      jump\t// in\n    tag_126:\n      pop\n        /* \"contracts/EscrowChannel.sol\":5321:5440  {... */\n      pop\n        /* \"contracts/EscrowChannel.sol\":5305:5440  if (amount > 0) {... */\n    tag_120:\n        /* \"contracts/EscrowChannel.sol\":5181:5446  function receiveTokens(... */\n      pop\n      pop\n      pop\n      jump\t// out\n        /* \"contracts/EscrowChannel.sol\":5452:5709  function verifyHash(... */\n    tag_101:\n        /* \"contracts/EscrowChannel.sol\":5579:5590  bool result */\n      0x00\n        /* \"contracts/EscrowChannel.sol\":5602:5617  bytes32 ethHash */\n      dup1\n        /* \"contracts/EscrowChannel.sol\":5620:5649  hash.toEthSignedMessageHash() */\n      tag_129\n        /* \"contracts/EscrowChannel.sol\":5620:5624  hash */\n      dup6\n        /* \"contracts/EscrowChannel.sol\":5620:5647  hash.toEthSignedMessageHash */\n      tag_130\n        /* \"contracts/EscrowChannel.sol\":5620:5649  hash.toEthSignedMessageHash() */\n      jump\t// in\n    tag_129:\n        /* \"contracts/EscrowChannel.sol\":5602:5649  bytes32 ethHash = hash.toEthSignedMessageHash() */\n      swap1\n      pop\n        /* \"contracts/EscrowChannel.sol\":5696:5702  signer */\n      dup3\n        /* \"contracts/EscrowChannel.sol\":5666:5702  ethHash.recover(signature) == signer */\n      0xffffffffffffffffffffffffffffffffffffffff\n      and\n        /* \"contracts/EscrowChannel.sol\":5666:5692  ethHash.recover(signature) */\n      tag_131\n        /* \"contracts/EscrowChannel.sol\":5682:5691  signature */\n      dup6\n        /* \"contracts/EscrowChannel.sol\":5666:5673  ethHash */\n      dup4\n        /* \"contracts/EscrowChannel.sol\":5666:5681  ethHash.recover */\n      tag_132\n      swap1\n        /* \"contracts/EscrowChannel.sol\":5666:5692  ethHash.recover(signature) */\n      swap2\n      swap1\n      0xffffffff\n      and\n      jump\t// in\n    tag_131:\n        /* \"contracts/EscrowChannel.sol\":5666:5702  ethHash.recover(signature) == signer */\n      0xffffffffffffffffffffffffffffffffffffffff\n      and\n      eq\n        /* \"contracts/EscrowChannel.sol\":5659:5702  return ethHash.recover(signature) == signer */\n      swap2\n      pop\n      pop\n        /* \"contracts/EscrowChannel.sol\":5452:5709  function verifyHash(... */\n      swap4\n      swap3\n      pop\n      pop\n      pop\n      jump\t// out\n        /* \"@openzeppelin/contracts/utils/cryptography/ECDSA.sol\":8106:8371  function toEthSignedMessageHash(bytes32 hash) internal pure returns (bytes32) {... */\n    tag_130:\n        /* \"@openzeppelin/contracts/utils/cryptography/ECDSA.sol\":8175:8182  bytes32 */\n      0x00\n        /* \"@openzeppelin/contracts/utils/cryptography/ECDSA.sol\":8358:8362  hash */\n      dup2\n        /* \"@openzeppelin/contracts/utils/cryptography/ECDSA.sol\":8305:8363  abi.encodePacked(\"\\x19Ethereum Signed Message:\\n32\", hash) */\n      add(0x20, mload(0x40))\n      tag_134\n      swap2\n      swap1\n      tag_135\n      jump\t// in\n    tag_134:\n      mload(0x40)\n      0x20\n      dup2\n      dup4\n      sub\n      sub\n      dup2\n      mstore\n      swap1\n      0x40\n      mstore\n        /* \"@openzeppelin/contracts/utils/cryptography/ECDSA.sol\":8295:8364  keccak256(abi.encodePacked(\"\\x19Ethereum Signed Message:\\n32\", hash)) */\n      dup1\n      mload\n      swap1\n      0x20\n      add\n      keccak256\n        /* \"@openzeppelin/contracts/utils/cryptography/ECDSA.sol\":8288:8364  return keccak256(abi.encodePacked(\"\\x19Ethereum Signed Message:\\n32\", hash)) */\n      swap1\n      pop\n        /* \"@openzeppelin/contracts/utils/cryptography/ECDSA.sol\":8106:8371  function toEthSignedMessageHash(bytes32 hash) internal pure returns (bytes32) {... */\n      swap2\n      swap1\n      pop\n      jump\t// out\n        /* \"@openzeppelin/contracts/utils/cryptography/ECDSA.sol\":4402:4629  function recover(bytes32 hash, bytes memory signature) internal pure returns (address) {... */\n    tag_132:\n        /* \"@openzeppelin/contracts/utils/cryptography/ECDSA.sol\":4480:4487  address */\n      0x00\n        /* \"@openzeppelin/contracts/utils/cryptography/ECDSA.sol\":4500:4517  address recovered */\n      dup1\n        /* \"@openzeppelin/contracts/utils/cryptography/ECDSA.sol\":4519:4537  RecoverError error */\n      0x00\n        /* \"@openzeppelin/contracts/utils/cryptography/ECDSA.sol\":4541:4568  tryRecover(hash, signature) */\n      tag_137\n        /* \"@openzeppelin/contracts/utils/cryptography/ECDSA.sol\":4552:4556  hash */\n      dup6\n        /* \"@openzeppelin/contracts/utils/cryptography/ECDSA.sol\":4558:4567  signature */\n      dup6\n        /* \"@openzeppelin/contracts/utils/cryptography/ECDSA.sol\":4541:4551  tryRecover */\n      tag_138\n        /* \"@openzeppelin/contracts/utils/cryptography/ECDSA.sol\":4541:4568  tryRecover(hash, signature) */\n      jump\t// in\n    tag_137:\n        /* \"@openzeppelin/contracts/utils/cryptography/ECDSA.sol\":4499:4568  (address recovered, RecoverError error) = tryRecover(hash, signature) */\n      swap2\n      pop\n      swap2\n      pop\n        /* \"@openzeppelin/contracts/utils/cryptography/ECDSA.sol\":4578:4596  _throwError(error) */\n      tag_139\n        /* \"@openzeppelin/contracts/utils/cryptography/ECDSA.sol\":4590:4595  error */\n      dup2\n        /* \"@openzeppelin/contracts/utils/cryptography/ECDSA.sol\":4578:4589  _throwError */\n      tag_140\n        /* \"@openzeppelin/contracts/utils/cryptography/ECDSA.sol\":4578:4596  _throwError(error) */\n      jump\t// in\n    tag_139:\n        /* \"@openzeppelin/contracts/utils/cryptography/ECDSA.sol\":4613:4622  recovered */\n      dup2\n        /* \"@openzeppelin/contracts/utils/cryptography/ECDSA.sol\":4606:4622  return recovered */\n      swap3\n      pop\n      pop\n      pop\n        /* \"@openzeppelin/contracts/utils/cryptography/ECDSA.sol\":4402:4629  function recover(bytes32 hash, bytes memory signature) internal pure returns (address) {... */\n      swap3\n      swap2\n      pop\n      pop\n      jump\t// out\n        /* \"@openzeppelin/contracts/utils/cryptography/ECDSA.sol\":2243:3616  function tryRecover(bytes32 hash, bytes memory signature) internal pure returns (address, RecoverError) {... */\n    tag_138:\n        /* \"@openzeppelin/contracts/utils/cryptography/ECDSA.sol\":2324:2331  address */\n      0x00\n        /* \"@openzeppelin/contracts/utils/cryptography/ECDSA.sol\":2333:2345  RecoverError */\n      dup1\n        /* \"@openzeppelin/contracts/utils/cryptography/ECDSA.sol\":2574:2576  65 */\n      0x41\n        /* \"@openzeppelin/contracts/utils/cryptography/ECDSA.sol\":2554:2563  signature */\n      dup4\n        /* \"@openzeppelin/contracts/utils/cryptography/ECDSA.sol\":2554:2570  signature.length */\n      mload\n        /* \"@openzeppelin/contracts/utils/cryptography/ECDSA.sol\":2554:2576  signature.length == 65 */\n      eq\n        /* \"@openzeppelin/contracts/utils/cryptography/ECDSA.sol\":2550:3610  if (signature.length == 65) {... */\n      iszero\n      tag_142\n      jumpi\n        /* \"@openzeppelin/contracts/utils/cryptography/ECDSA.sol\":2592:2601  bytes32 r */\n      0x00\n        /* \"@openzeppelin/contracts/utils/cryptography/ECDSA.sol\":2615:2624  bytes32 s */\n      dup1\n        /* \"@openzeppelin/contracts/utils/cryptography/ECDSA.sol\":2638:2645  uint8 v */\n      0x00\n        /* \"@openzeppelin/contracts/utils/cryptography/ECDSA.sol\":2890:2894  0x20 */\n      0x20\n        /* \"@openzeppelin/contracts/utils/cryptography/ECDSA.sol\":2879:2888  signature */\n      dup7\n        /* \"@openzeppelin/contracts/utils/cryptography/ECDSA.sol\":2875:2895  add(signature, 0x20) */\n      add\n        /* \"@openzeppelin/contracts/utils/cryptography/ECDSA.sol\":2869:2896  mload(add(signature, 0x20)) */\n      mload\n        /* \"@openzeppelin/contracts/utils/cryptography/ECDSA.sol\":2864:2896  r := mload(add(signature, 0x20)) */\n      swap3\n      pop\n        /* \"@openzeppelin/contracts/utils/cryptography/ECDSA.sol\":2939:2943  0x40 */\n      0x40\n        /* \"@openzeppelin/contracts/utils/cryptography/ECDSA.sol\":2928:2937  signature */\n      dup7\n        /* \"@openzeppelin/contracts/utils/cryptography/ECDSA.sol\":2924:2944  add(signature, 0x40) */\n      add\n        /* \"@openzeppelin/contracts/utils/cryptography/ECDSA.sol\":2918:2945  mload(add(signature, 0x40)) */\n      mload\n        /* \"@openzeppelin/contracts/utils/cryptography/ECDSA.sol\":2913:2945  s := mload(add(signature, 0x40)) */\n      swap2\n      pop\n        /* \"@openzeppelin/contracts/utils/cryptography/ECDSA.sol\":2996:3000  0x60 */\n      0x60\n        /* \"@openzeppelin/contracts/utils/cryptography/ECDSA.sol\":2985:2994  signature */\n      dup7\n        /* \"@openzeppelin/contracts/utils/cryptography/ECDSA.sol\":2981:3001  add(signature, 0x60) */\n      add\n        /* \"@openzeppelin/contracts/utils/cryptography/ECDSA.sol\":2975:3002  mload(add(signature, 0x60)) */\n      mload\n        /* \"@openzeppelin/contracts/utils/cryptography/ECDSA.sol\":2972:2973  0 */\n      0x00\n        /* \"@openzeppelin/contracts/utils/cryptography/ECDSA.sol\":2967:3003  byte(0, mload(add(signature, 0x60))) */\n      byte\n        /* \"@openzeppelin/contracts/utils/cryptography/ECDSA.sol\":2962:3003  v := byte(0, mload(add(signature, 0x60))) */\n      swap1\n      pop\n        /* \"@openzeppelin/contracts/utils/cryptography/ECDSA.sol\":3037:3062  tryRecover(hash, v, r, s) */\n      tag_143\n        /* \"@openzeppelin/contracts/utils/cryptography/ECDSA.sol\":3048:3052  hash */\n      dup8\n        /* \"@openzeppelin/contracts/utils/cryptography/ECDSA.sol\":3054:3055  v */\n      dup3\n        /* \"@openzeppelin/contracts/utils/cryptography/ECDSA.sol\":3057:3058  r */\n      dup6\n        /* \"@openzeppelin/contracts/utils/cryptography/ECDSA.sol\":3060:3061  s */\n      dup6\n        /* \"@openzeppelin/contracts/utils/cryptography/ECDSA.sol\":3037:3047  tryRecover */\n      tag_144\n        /* \"@openzeppelin/contracts/utils/cryptography/ECDSA.sol\":3037:3062  tryRecover(hash, v, r, s) */\n      jump\t// in\n    tag_143:\n        /* \"@openzeppelin/contracts/utils/cryptography/ECDSA.sol\":3030:3062  return tryRecover(hash, v, r, s) */\n      swap5\n      pop\n      swap5\n      pop\n      pop\n      pop\n      pop\n      jump(tag_141)\n        /* \"@openzeppelin/contracts/utils/cryptography/ECDSA.sol\":2550:3610  if (signature.length == 65) {... */\n    tag_142:\n        /* \"@openzeppelin/contracts/utils/cryptography/ECDSA.sol\":3103:3105  64 */\n      0x40\n        /* \"@openzeppelin/contracts/utils/cryptography/ECDSA.sol\":3083:3092  signature */\n      dup4\n        /* \"@openzeppelin/contracts/utils/cryptography/ECDSA.sol\":3083:3099  signature.length */\n      mload\n        /* \"@openzeppelin/contracts/utils/cryptography/ECDSA.sol\":3083:3105  signature.length == 64 */\n      eq\n        /* \"@openzeppelin/contracts/utils/cryptography/ECDSA.sol\":3079:3610  if (signature.length == 64) {... */\n      iszero\n      tag_146\n      jumpi\n        /* \"@openzeppelin/contracts/utils/cryptography/ECDSA.sol\":3121:3130  bytes32 r */\n      0x00\n        /* \"@openzeppelin/contracts/utils/cryptography/ECDSA.sol\":3144:3154  bytes32 vs */\n      dup1\n        /* \"@openzeppelin/contracts/utils/cryptography/ECDSA.sol\":3399:3403  0x20 */\n      0x20\n        /* \"@openzeppelin/contracts/utils/cryptography/ECDSA.sol\":3388:3397  signature */\n      dup6\n        /* \"@openzeppelin/contracts/utils/cryptography/ECDSA.sol\":3384:3404  add(signature, 0x20) */\n      add\n        /* \"@openzeppelin/contracts/utils/cryptography/ECDSA.sol\":3378:3405  mload(add(signature, 0x20)) */\n      mload\n        /* \"@openzeppelin/contracts/utils/cryptography/ECDSA.sol\":3373:3405  r := mload(add(signature, 0x20)) */\n      swap2\n      pop\n        /* \"@openzeppelin/contracts/utils/cryptography/ECDSA.sol\":3449:3453  0x40 */\n      0x40\n        /* \"@openzeppelin/contracts/utils/cryptography/ECDSA.sol\":3438:3447  signature */\n      dup6\n        /* \"@openzeppelin/contracts/utils/cryptography/ECDSA.sol\":3434:3454  add(signature, 0x40) */\n      add\n        /* \"@openzeppelin/contracts/utils/cryptography/ECDSA.sol\":3428:3455  mload(add(signature, 0x40)) */\n      mload\n        /* \"@openzeppelin/contracts/utils/cryptography/ECDSA.sol\":3422:3455  vs := mload(add(signature, 0x40)) */\n      swap1\n      pop\n        /* \"@openzeppelin/contracts/utils/cryptography/ECDSA.sol\":3489:3512  tryRecover(hash, r, vs) */\n      tag_147\n        /* \"@openzeppelin/contracts/utils/cryptography/ECDSA.sol\":3500:3504  hash */\n      dup7\n        /* \"@openzeppelin/contracts/utils/cryptography/ECDSA.sol\":3506:3507  r */\n      dup4\n        /* \"@openzeppelin/contracts/utils/cryptography/ECDSA.sol\":3509:3511  vs */\n      dup4\n        /* \"@openzeppelin/contracts/utils/cryptography/ECDSA.sol\":3489:3499  tryRecover */\n      tag_148\n        /* \"@openzeppelin/contracts/utils/cryptography/ECDSA.sol\":3489:3512  tryRecover(hash, r, vs) */\n      jump\t// in\n    tag_147:\n        /* \"@openzeppelin/contracts/utils/cryptography/ECDSA.sol\":3482:3512  return tryRecover(hash, r, vs) */\n      swap4\n      pop\n      swap4\n      pop\n      pop\n      pop\n      jump(tag_141)\n        /* \"@openzeppelin/contracts/utils/cryptography/ECDSA.sol\":3079:3610  if (signature.length == 64) {... */\n    tag_146:\n        /* \"@openzeppelin/contracts/utils/cryptography/ECDSA.sol\":3559:3560  0 */\n      0x00\n        /* \"@openzeppelin/contracts/utils/cryptography/ECDSA.sol\":3563:3598  RecoverError.InvalidSignatureLength */\n      0x02\n        /* \"@openzeppelin/contracts/utils/cryptography/ECDSA.sol\":3543:3599  return (address(0), RecoverError.InvalidSignatureLength) */\n      swap2\n      pop\n      swap2\n      pop\n        /* \"@openzeppelin/contracts/utils/cryptography/ECDSA.sol\":2243:3616  function tryRecover(bytes32 hash, bytes memory signature) internal pure returns (address, RecoverError) {... */\n    tag_141:\n      swap3\n      pop\n      swap3\n      swap1\n      pop\n      jump\t// out\n        /* \"@openzeppelin/contracts/utils/cryptography/ECDSA.sol\":548:1179  function _throwError(RecoverError error) private pure {... */\n    tag_140:\n        /* \"@openzeppelin/contracts/utils/cryptography/ECDSA.sol\":625:645  RecoverError.NoError */\n      0x00\n        /* \"@openzeppelin/contracts/utils/cryptography/ECDSA.sol\":616:645  error == RecoverError.NoError */\n      0x04\n      dup2\n      gt\n      iszero\n      tag_151\n      jumpi\n      tag_152\n      tag_32\n      jump\t// in\n    tag_152:\n    tag_151:\n        /* \"@openzeppelin/contracts/utils/cryptography/ECDSA.sol\":616:621  error */\n      dup2\n        /* \"@openzeppelin/contracts/utils/cryptography/ECDSA.sol\":616:645  error == RecoverError.NoError */\n      0x04\n      dup2\n      gt\n      iszero\n      tag_153\n      jumpi\n      tag_154\n      tag_32\n      jump\t// in\n    tag_154:\n    tag_153:\n      eq\n        /* \"@openzeppelin/contracts/utils/cryptography/ECDSA.sol\":612:1173  if (error == RecoverError.NoError) {... */\n      iszero\n      tag_155\n      jumpi\n        /* \"@openzeppelin/contracts/utils/cryptography/ECDSA.sol\":661:668  return; */\n      jump(tag_150)\n        /* \"@openzeppelin/contracts/utils/cryptography/ECDSA.sol\":612:1173  if (error == RecoverError.NoError) {... */\n    tag_155:\n        /* \"@openzeppelin/contracts/utils/cryptography/ECDSA.sol\":721:750  RecoverError.InvalidSignature */\n      0x01\n        /* \"@openzeppelin/contracts/utils/cryptography/ECDSA.sol\":712:750  error == RecoverError.InvalidSignature */\n      0x04\n      dup2\n      gt\n      iszero\n      tag_157\n      jumpi\n      tag_158\n      tag_32\n      jump\t// in\n    tag_158:\n    tag_157:\n        /* \"@openzeppelin/contracts/utils/cryptography/ECDSA.sol\":712:717  error */\n      dup2\n        /* \"@openzeppelin/contracts/utils/cryptography/ECDSA.sol\":712:750  error == RecoverError.InvalidSignature */\n      0x04\n      dup2\n      gt\n      iszero\n      tag_159\n      jumpi\n      tag_160\n      tag_32\n      jump\t// in\n    tag_160:\n    tag_159:\n      eq\n        /* \"@openzeppelin/contracts/utils/cryptography/ECDSA.sol\":708:1173  if (error == RecoverError.InvalidSignature) {... */\n      iszero\n      tag_161\n      jumpi\n        /* \"@openzeppelin/contracts/utils/cryptography/ECDSA.sol\":766:800  revert(\"ECDSA: invalid signature\") */\n      mload(0x40)\n      0x08c379a000000000000000000000000000000000000000000000000000000000\n      dup2\n      mstore\n      0x04\n      add\n      tag_162\n      swap1\n      tag_163\n      jump\t// in\n    tag_162:\n      mload(0x40)\n      dup1\n      swap2\n      sub\n      swap1\n      revert\n        /* \"@openzeppelin/contracts/utils/cryptography/ECDSA.sol\":708:1173  if (error == RecoverError.InvalidSignature) {... */\n    tag_161:\n        /* \"@openzeppelin/contracts/utils/cryptography/ECDSA.sol\":830:865  RecoverError.InvalidSignatureLength */\n      0x02\n        /* \"@openzeppelin/contracts/utils/cryptography/ECDSA.sol\":821:865  error == RecoverError.InvalidSignatureLength */\n      0x04\n      dup2\n      gt\n      iszero\n      tag_165\n      jumpi\n      tag_166\n      tag_32\n      jump\t// in\n    tag_166:\n    tag_165:\n        /* \"@openzeppelin/contracts/utils/cryptography/ECDSA.sol\":821:826  error */\n      dup2\n        /* \"@openzeppelin/contracts/utils/cryptography/ECDSA.sol\":821:865  error == RecoverError.InvalidSignatureLength */\n      0x04\n      dup2\n      gt\n      iszero\n      tag_167\n      jumpi\n      tag_168\n      tag_32\n      jump\t// in\n    tag_168:\n    tag_167:\n      eq\n        /* \"@openzeppelin/contracts/utils/cryptography/ECDSA.sol\":817:1173  if (error == RecoverError.InvalidSignatureLength) {... */\n      iszero\n      tag_169\n      jumpi\n        /* \"@openzeppelin/contracts/utils/cryptography/ECDSA.sol\":881:922  revert(\"ECDSA: invalid signature length\") */\n      mload(0x40)\n      0x08c379a000000000000000000000000000000000000000000000000000000000\n      dup2\n      mstore\n      0x04\n      add\n      tag_170\n      swap1\n      tag_171\n      jump\t// in\n    tag_170:\n      mload(0x40)\n      dup1\n      swap2\n      sub\n      swap1\n      revert\n        /* \"@openzeppelin/contracts/utils/cryptography/ECDSA.sol\":817:1173  if (error == RecoverError.InvalidSignatureLength) {... */\n    tag_169:\n        /* \"@openzeppelin/contracts/utils/cryptography/ECDSA.sol\":952:982  RecoverError.InvalidSignatureS */\n      0x03\n        /* \"@openzeppelin/contracts/utils/cryptography/ECDSA.sol\":943:982  error == RecoverError.InvalidSignatureS */\n      0x04\n      dup2\n      gt\n      iszero\n      tag_173\n      jumpi\n      tag_174\n      tag_32\n      jump\t// in\n    tag_174:\n    tag_173:\n        /* \"@openzeppelin/contracts/utils/cryptography/ECDSA.sol\":943:948  error */\n      dup2\n        /* \"@openzeppelin/contracts/utils/cryptography/ECDSA.sol\":943:982  error == RecoverError.InvalidSignatureS */\n      0x04\n      dup2\n      gt\n      iszero\n      tag_175\n      jumpi\n      tag_176\n      tag_32\n      jump\t// in\n    tag_176:\n    tag_175:\n      eq\n        /* \"@openzeppelin/contracts/utils/cryptography/ECDSA.sol\":939:1173  if (error == RecoverError.InvalidSignatureS) {... */\n      iszero\n      tag_177\n      jumpi\n        /* \"@openzeppelin/contracts/utils/cryptography/ECDSA.sol\":998:1042  revert(\"ECDSA: invalid signature 's' value\") */\n      mload(0x40)\n      0x08c379a000000000000000000000000000000000000000000000000000000000\n      dup2\n      mstore\n      0x04\n      add\n      tag_178\n      swap1\n      tag_179\n      jump\t// in\n    tag_178:\n      mload(0x40)\n      dup1\n      swap2\n      sub\n      swap1\n      revert\n        /* \"@openzeppelin/contracts/utils/cryptography/ECDSA.sol\":939:1173  if (error == RecoverError.InvalidSignatureS) {... */\n    tag_177:\n        /* \"@openzeppelin/contracts/utils/cryptography/ECDSA.sol\":1072:1102  RecoverError.InvalidSignatureV */\n      0x04\n        /* \"@openzeppelin/contracts/utils/cryptography/ECDSA.sol\":1063:1102  error == RecoverError.InvalidSignatureV */\n      dup1\n      dup2\n      gt\n      iszero\n      tag_181\n      jumpi\n      tag_182\n      tag_32\n      jump\t// in\n    tag_182:\n    tag_181:\n        /* \"@openzeppelin/contracts/utils/cryptography/ECDSA.sol\":1063:1068  error */\n      dup2\n        /* \"@openzeppelin/contracts/utils/cryptography/ECDSA.sol\":1063:1102  error == RecoverError.InvalidSignatureV */\n      0x04\n      dup2\n      gt\n      iszero\n      tag_183\n      jumpi\n      tag_184\n      tag_32\n      jump\t// in\n    tag_184:\n    tag_183:\n      eq\n        /* \"@openzeppelin/contracts/utils/cryptography/ECDSA.sol\":1059:1173  if (error == RecoverError.InvalidSignatureV) {... */\n      iszero\n      tag_185\n      jumpi\n        /* \"@openzeppelin/contracts/utils/cryptography/ECDSA.sol\":1118:1162  revert(\"ECDSA: invalid signature 'v' value\") */\n      mload(0x40)\n      0x08c379a000000000000000000000000000000000000000000000000000000000\n      dup2\n      mstore\n      0x04\n      add\n      tag_186\n      swap1\n      tag_187\n      jump\t// in\n    tag_186:\n      mload(0x40)\n      dup1\n      swap2\n      sub\n      swap1\n      revert\n        /* \"@openzeppelin/contracts/utils/cryptography/ECDSA.sol\":1059:1173  if (error == RecoverError.InvalidSignatureV) {... */\n    tag_185:\n        /* \"@openzeppelin/contracts/utils/cryptography/ECDSA.sol\":548:1179  function _throwError(RecoverError error) private pure {... */\n    tag_150:\n      pop\n      jump\t// out\n        /* \"@openzeppelin/contracts/utils/cryptography/ECDSA.sol\":5810:7413  function tryRecover(... */\n    tag_144:\n        /* \"@openzeppelin/contracts/utils/cryptography/ECDSA.sol\":5936:5943  address */\n      0x00\n        /* \"@openzeppelin/contracts/utils/cryptography/ECDSA.sol\":5945:5957  RecoverError */\n      dup1\n        /* \"@openzeppelin/contracts/utils/cryptography/ECDSA.sol\":6860:6926  0x7FFFFFFFFFFFFFFFFFFFFFFFFFFFFFFF5D576E7357A4501DDFE92F46681B20A0 */\n      0x7fffffffffffffffffffffffffffffff5d576e7357a4501ddfe92f46681b20a0\n        /* \"@openzeppelin/contracts/utils/cryptography/ECDSA.sol\":6855:6856  s */\n      dup4\n        /* \"@openzeppelin/contracts/utils/cryptography/ECDSA.sol\":6847:6857  uint256(s) */\n      0x00\n      shr\n        /* \"@openzeppelin/contracts/utils/cryptography/ECDSA.sol\":6847:6926  uint256(s) > 0x7FFFFFFFFFFFFFFFFFFFFFFFFFFFFFFF5D576E7357A4501DDFE92F46681B20A0 */\n      gt\n        /* \"@openzeppelin/contracts/utils/cryptography/ECDSA.sol\":6843:7004  if (uint256(s) > 0x7FFFFFFFFFFFFFFFFFFFFFFFFFFFFFFF5D576E7357A4501DDFE92F46681B20A0) {... */\n      iszero\n      tag_189\n      jumpi\n        /* \"@openzeppelin/contracts/utils/cryptography/ECDSA.sol\":6958:6959  0 */\n      0x00\n        /* \"@openzeppelin/contracts/utils/cryptography/ECDSA.sol\":6962:6992  RecoverError.InvalidSignatureS */\n      0x03\n        /* \"@openzeppelin/contracts/utils/cryptography/ECDSA.sol\":6942:6993  return (address(0), RecoverError.InvalidSignatureS) */\n      swap2\n      pop\n      swap2\n      pop\n      jump(tag_188)\n        /* \"@openzeppelin/contracts/utils/cryptography/ECDSA.sol\":6843:7004  if (uint256(s) > 0x7FFFFFFFFFFFFFFFFFFFFFFFFFFFFFFF5D576E7357A4501DDFE92F46681B20A0) {... */\n    tag_189:\n        /* \"@openzeppelin/contracts/utils/cryptography/ECDSA.sol\":7022:7024  27 */\n      0x1b\n        /* \"@openzeppelin/contracts/utils/cryptography/ECDSA.sol\":7017:7018  v */\n      dup6\n        /* \"@openzeppelin/contracts/utils/cryptography/ECDSA.sol\":7017:7024  v != 27 */\n      0xff\n      and\n      eq\n      iszero\n        /* \"@openzeppelin/contracts/utils/cryptography/ECDSA.sol\":7017:7035  v != 27 && v != 28 */\n      dup1\n      iszero\n      tag_190\n      jumpi\n      pop\n        /* \"@openzeppelin/contracts/utils/cryptography/ECDSA.sol\":7033:7035  28 */\n      0x1c\n        /* \"@openzeppelin/contracts/utils/cryptography/ECDSA.sol\":7028:7029  v */\n      dup6\n        /* \"@openzeppelin/contracts/utils/cryptography/ECDSA.sol\":7028:7035  v != 28 */\n      0xff\n      and\n      eq\n      iszero\n        /* \"@openzeppelin/contracts/utils/cryptography/ECDSA.sol\":7017:7035  v != 27 && v != 28 */\n    tag_190:\n        /* \"@openzeppelin/contracts/utils/cryptography/ECDSA.sol\":7013:7113  if (v != 27 && v != 28) {... */\n      iszero\n      tag_191\n      jumpi\n        /* \"@openzeppelin/contracts/utils/cryptography/ECDSA.sol\":7067:7068  0 */\n      0x00\n        /* \"@openzeppelin/contracts/utils/cryptography/ECDSA.sol\":7071:7101  RecoverError.InvalidSignatureV */\n      0x04\n        /* \"@openzeppelin/contracts/utils/cryptography/ECDSA.sol\":7051:7102  return (address(0), RecoverError.InvalidSignatureV) */\n      swap2\n      pop\n      swap2\n      pop\n      jump(tag_188)\n        /* \"@openzeppelin/contracts/utils/cryptography/ECDSA.sol\":7013:7113  if (v != 27 && v != 28) {... */\n    tag_191:\n        /* \"@openzeppelin/contracts/utils/cryptography/ECDSA.sol\":7207:7221  address signer */\n      0x00\n        /* \"@openzeppelin/contracts/utils/cryptography/ECDSA.sol\":7224:7248  ecrecover(hash, v, r, s) */\n      0x01\n        /* \"@openzeppelin/contracts/utils/cryptography/ECDSA.sol\":7234:7238  hash */\n      dup8\n        /* \"@openzeppelin/contracts/utils/cryptography/ECDSA.sol\":7240:7241  v */\n      dup8\n        /* \"@openzeppelin/contracts/utils/cryptography/ECDSA.sol\":7243:7244  r */\n      dup8\n        /* \"@openzeppelin/contracts/utils/cryptography/ECDSA.sol\":7246:7247  s */\n      dup8\n        /* \"@openzeppelin/contracts/utils/cryptography/ECDSA.sol\":7224:7248  ecrecover(hash, v, r, s) */\n      mload(0x40)\n      0x00\n      dup2\n      mstore\n      0x20\n      add\n      0x40\n      mstore\n      mload(0x40)\n      tag_192\n      swap5\n      swap4\n      swap3\n      swap2\n      swap1\n      tag_193\n      jump\t// in\n    tag_192:\n      0x20\n      mload(0x40)\n      0x20\n      dup2\n      sub\n      swap1\n      dup1\n      dup5\n      sub\n      swap1\n      dup6\n      gas\n      staticcall\n      iszero\n      dup1\n      iszero\n      tag_195\n      jumpi\n      returndatasize\n      0x00\n      dup1\n      returndatacopy\n      revert(0x00, returndatasize)\n    tag_195:\n      pop\n      pop\n      pop\n      mload(sub(mload(0x40), 0x20))\n        /* \"@openzeppelin/contracts/utils/cryptography/ECDSA.sol\":7207:7248  address signer = ecrecover(hash, v, r, s) */\n      swap1\n      pop\n        /* \"@openzeppelin/contracts/utils/cryptography/ECDSA.sol\":7280:7281  0 */\n      0x00\n        /* \"@openzeppelin/contracts/utils/cryptography/ECDSA.sol\":7262:7282  signer == address(0) */\n      0xffffffffffffffffffffffffffffffffffffffff\n      and\n        /* \"@openzeppelin/contracts/utils/cryptography/ECDSA.sol\":7262:7268  signer */\n      dup2\n        /* \"@openzeppelin/contracts/utils/cryptography/ECDSA.sol\":7262:7282  signer == address(0) */\n      0xffffffffffffffffffffffffffffffffffffffff\n      and\n      eq\n        /* \"@openzeppelin/contracts/utils/cryptography/ECDSA.sol\":7258:7359  if (signer == address(0)) {... */\n      iszero\n      tag_196\n      jumpi\n        /* \"@openzeppelin/contracts/utils/cryptography/ECDSA.sol\":7314:7315  0 */\n      0x00\n        /* \"@openzeppelin/contracts/utils/cryptography/ECDSA.sol\":7318:7347  RecoverError.InvalidSignature */\n      0x01\n        /* \"@openzeppelin/contracts/utils/cryptography/ECDSA.sol\":7298:7348  return (address(0), RecoverError.InvalidSignature) */\n      swap3\n      pop\n      swap3\n      pop\n      pop\n      jump(tag_188)\n        /* \"@openzeppelin/contracts/utils/cryptography/ECDSA.sol\":7258:7359  if (signer == address(0)) {... */\n    tag_196:\n        /* \"@openzeppelin/contracts/utils/cryptography/ECDSA.sol\":7377:7383  signer */\n      dup1\n        /* \"@openzeppelin/contracts/utils/cryptography/ECDSA.sol\":7385:7405  RecoverError.NoError */\n      0x00\n        /* \"@openzeppelin/contracts/utils/cryptography/ECDSA.sol\":7369:7406  return (signer, RecoverError.NoError) */\n      swap3\n      pop\n      swap3\n      pop\n      pop\n        /* \"@openzeppelin/contracts/utils/cryptography/ECDSA.sol\":5810:7413  function tryRecover(... */\n    tag_188:\n      swap5\n      pop\n      swap5\n      swap3\n      pop\n      pop\n      pop\n      jump\t// out\n        /* \"@openzeppelin/contracts/utils/cryptography/ECDSA.sol\":4883:5219  function tryRecover(... */\n    tag_148:\n        /* \"@openzeppelin/contracts/utils/cryptography/ECDSA.sol\":4993:5000  address */\n      0x00\n        /* \"@openzeppelin/contracts/utils/cryptography/ECDSA.sol\":5002:5014  RecoverError */\n      dup1\n        /* \"@openzeppelin/contracts/utils/cryptography/ECDSA.sol\":5026:5035  bytes32 s */\n      0x00\n        /* \"@openzeppelin/contracts/utils/cryptography/ECDSA.sol\":5051:5117  0x7fffffffffffffffffffffffffffffffffffffffffffffffffffffffffffffff */\n      0x7fffffffffffffffffffffffffffffffffffffffffffffffffffffffffffffff\n        /* \"@openzeppelin/contracts/utils/cryptography/ECDSA.sol\":5043:5118  bytes32(0x7fffffffffffffffffffffffffffffffffffffffffffffffffffffffffffffff) */\n      0x00\n      shl\n        /* \"@openzeppelin/contracts/utils/cryptography/ECDSA.sol\":5038:5040  vs */\n      dup5\n        /* \"@openzeppelin/contracts/utils/cryptography/ECDSA.sol\":5038:5118  vs & bytes32(0x7fffffffffffffffffffffffffffffffffffffffffffffffffffffffffffffff) */\n      and\n        /* \"@openzeppelin/contracts/utils/cryptography/ECDSA.sol\":5026:5118  bytes32 s = vs & bytes32(0x7fffffffffffffffffffffffffffffffffffffffffffffffffffffffffffffff) */\n      swap1\n      pop\n        /* \"@openzeppelin/contracts/utils/cryptography/ECDSA.sol\":5128:5135  uint8 v */\n      0x00\n        /* \"@openzeppelin/contracts/utils/cryptography/ECDSA.sol\":5167:5169  27 */\n      0x1b\n        /* \"@openzeppelin/contracts/utils/cryptography/ECDSA.sol\":5160:5163  255 */\n      0xff\n        /* \"@openzeppelin/contracts/utils/cryptography/ECDSA.sol\":5153:5155  vs */\n      dup7\n        /* \"@openzeppelin/contracts/utils/cryptography/ECDSA.sol\":5145:5156  uint256(vs) */\n      0x00\n      shr\n        /* \"@openzeppelin/contracts/utils/cryptography/ECDSA.sol\":5145:5163  uint256(vs) >> 255 */\n      swap1\n      shr\n        /* \"@openzeppelin/contracts/utils/cryptography/ECDSA.sol\":5144:5169  (uint256(vs) >> 255) + 27 */\n      tag_198\n      swap2\n      swap1\n      tag_111\n      jump\t// in\n    tag_198:\n        /* \"@openzeppelin/contracts/utils/cryptography/ECDSA.sol\":5128:5170  uint8 v = uint8((uint256(vs) >> 255) + 27) */\n      swap1\n      pop\n        /* \"@openzeppelin/contracts/utils/cryptography/ECDSA.sol\":5187:5212  tryRecover(hash, v, r, s) */\n      tag_199\n        /* \"@openzeppelin/contracts/utils/cryptography/ECDSA.sol\":5198:5202  hash */\n      dup8\n        /* \"@openzeppelin/contracts/utils/cryptography/ECDSA.sol\":5204:5205  v */\n      dup3\n        /* \"@openzeppelin/contracts/utils/cryptography/ECDSA.sol\":5207:5208  r */\n      dup9\n        /* \"@openzeppelin/contracts/utils/cryptography/ECDSA.sol\":5210:5211  s */\n      dup6\n        /* \"@openzeppelin/contracts/utils/cryptography/ECDSA.sol\":5187:5197  tryRecover */\n      tag_144\n        /* \"@openzeppelin/contracts/utils/cryptography/ECDSA.sol\":5187:5212  tryRecover(hash, v, r, s) */\n      jump\t// in\n    tag_199:\n        /* \"@openzeppelin/contracts/utils/cryptography/ECDSA.sol\":5180:5212  return tryRecover(hash, v, r, s) */\n      swap4\n      pop\n      swap4\n      pop\n      pop\n      pop\n        /* \"@openzeppelin/contracts/utils/cryptography/ECDSA.sol\":4883:5219  function tryRecover(... */\n      swap4\n      pop\n      swap4\n      swap2\n      pop\n      pop\n      jump\t// out\n        /* \"#utility.yul\":7:417   */\n    tag_201:\n        /* \"#utility.yul\":84:89   */\n      0x00\n        /* \"#utility.yul\":109:174   */\n      tag_203\n        /* \"#utility.yul\":125:173   */\n      tag_204\n        /* \"#utility.yul\":166:172   */\n      dup5\n        /* \"#utility.yul\":125:173   */\n      tag_205\n      jump\t// in\n    tag_204:\n        /* \"#utility.yul\":109:174   */\n      tag_206\n      jump\t// in\n    tag_203:\n        /* \"#utility.yul\":100:174   */\n      swap1\n      pop\n        /* \"#utility.yul\":197:203   */\n      dup3\n        /* \"#utility.yul\":190:195   */\n      dup2\n        /* \"#utility.yul\":183:204   */\n      mstore\n        /* \"#utility.yul\":235:239   */\n      0x20\n        /* \"#utility.yul\":228:233   */\n      dup2\n        /* \"#utility.yul\":224:240   */\n      add\n        /* \"#utility.yul\":273:276   */\n      dup5\n        /* \"#utility.yul\":264:270   */\n      dup5\n        /* \"#utility.yul\":259:262   */\n      dup5\n        /* \"#utility.yul\":255:271   */\n      add\n        /* \"#utility.yul\":252:277   */\n      gt\n        /* \"#utility.yul\":249:251   */\n      iszero\n      tag_207\n      jumpi\n        /* \"#utility.yul\":280:359   */\n      tag_208\n      tag_209\n      jump\t// in\n    tag_208:\n        /* \"#utility.yul\":249:251   */\n    tag_207:\n        /* \"#utility.yul\":370:411   */\n      tag_210\n        /* \"#utility.yul\":404:410   */\n      dup5\n        /* \"#utility.yul\":399:402   */\n      dup3\n        /* \"#utility.yul\":394:397   */\n      dup6\n        /* \"#utility.yul\":370:411   */\n      tag_211\n      jump\t// in\n    tag_210:\n        /* \"#utility.yul\":90:417   */\n      pop\n      swap4\n      swap3\n      pop\n      pop\n      pop\n      jump\t// out\n        /* \"#utility.yul\":423:562   */\n    tag_212:\n        /* \"#utility.yul\":469:474   */\n      0x00\n        /* \"#utility.yul\":507:513   */\n      dup2\n        /* \"#utility.yul\":494:514   */\n      calldataload\n        /* \"#utility.yul\":485:514   */\n      swap1\n      pop\n        /* \"#utility.yul\":523:556   */\n      tag_214\n        /* \"#utility.yul\":550:555   */\n      dup2\n        /* \"#utility.yul\":523:556   */\n      tag_215\n      jump\t// in\n    tag_214:\n        /* \"#utility.yul\":475:562   */\n      swap3\n      swap2\n      pop\n      pop\n      jump\t// out\n        /* \"#utility.yul\":568:705   */\n    tag_216:\n        /* \"#utility.yul\":622:627   */\n      0x00\n        /* \"#utility.yul\":653:659   */\n      dup2\n        /* \"#utility.yul\":647:660   */\n      mload\n        /* \"#utility.yul\":638:660   */\n      swap1\n      pop\n        /* \"#utility.yul\":669:699   */\n      tag_218\n        /* \"#utility.yul\":693:698   */\n      dup2\n        /* \"#utility.yul\":669:699   */\n      tag_219\n      jump\t// in\n    tag_218:\n        /* \"#utility.yul\":628:705   */\n      swap3\n      swap2\n      pop\n      pop\n      jump\t// out\n        /* \"#utility.yul\":711:850   */\n    tag_220:\n        /* \"#utility.yul\":757:762   */\n      0x00\n        /* \"#utility.yul\":795:801   */\n      dup2\n        /* \"#utility.yul\":782:802   */\n      calldataload\n        /* \"#utility.yul\":773:802   */\n      swap1\n      pop\n        /* \"#utility.yul\":811:844   */\n      tag_222\n        /* \"#utility.yul\":838:843   */\n      dup2\n        /* \"#utility.yul\":811:844   */\n      tag_223\n      jump\t// in\n    tag_222:\n        /* \"#utility.yul\":763:850   */\n      swap3\n      swap2\n      pop\n      pop\n      jump\t// out\n        /* \"#utility.yul\":869:1207   */\n    tag_224:\n        /* \"#utility.yul\":924:929   */\n      0x00\n        /* \"#utility.yul\":973:976   */\n      dup3\n        /* \"#utility.yul\":966:970   */\n      0x1f\n        /* \"#utility.yul\":958:964   */\n      dup4\n        /* \"#utility.yul\":954:971   */\n      add\n        /* \"#utility.yul\":950:977   */\n      slt\n        /* \"#utility.yul\":940:942   */\n      tag_226\n      jumpi\n        /* \"#utility.yul\":981:1060   */\n      tag_227\n      tag_228\n      jump\t// in\n    tag_227:\n        /* \"#utility.yul\":940:942   */\n    tag_226:\n        /* \"#utility.yul\":1098:1104   */\n      dup2\n        /* \"#utility.yul\":1085:1105   */\n      calldataload\n        /* \"#utility.yul\":1123:1201   */\n      tag_229\n        /* \"#utility.yul\":1197:1200   */\n      dup5\n        /* \"#utility.yul\":1189:1195   */\n      dup3\n        /* \"#utility.yul\":1182:1186   */\n      0x20\n        /* \"#utility.yul\":1174:1180   */\n      dup7\n        /* \"#utility.yul\":1170:1187   */\n      add\n        /* \"#utility.yul\":1123:1201   */\n      tag_201\n      jump\t// in\n    tag_229:\n        /* \"#utility.yul\":1114:1201   */\n      swap2\n      pop\n        /* \"#utility.yul\":930:1207   */\n      pop\n      swap3\n      swap2\n      pop\n      pop\n      jump\t// out\n        /* \"#utility.yul\":1213:1352   */\n    tag_230:\n        /* \"#utility.yul\":1259:1264   */\n      0x00\n        /* \"#utility.yul\":1297:1303   */\n      dup2\n        /* \"#utility.yul\":1284:1304   */\n      calldataload\n        /* \"#utility.yul\":1275:1304   */\n      swap1\n      pop\n        /* \"#utility.yul\":1313:1346   */\n      tag_232\n        /* \"#utility.yul\":1340:1345   */\n      dup2\n        /* \"#utility.yul\":1313:1346   */\n      tag_233\n      jump\t// in\n    tag_232:\n        /* \"#utility.yul\":1265:1352   */\n      swap3\n      swap2\n      pop\n      pop\n      jump\t// out\n        /* \"#utility.yul\":1358:2123   */\n    tag_23:\n        /* \"#utility.yul\":1444:1450   */\n      0x00\n        /* \"#utility.yul\":1452:1458   */\n      dup1\n        /* \"#utility.yul\":1460:1466   */\n      0x00\n        /* \"#utility.yul\":1468:1474   */\n      dup1\n        /* \"#utility.yul\":1517:1520   */\n      0x80\n        /* \"#utility.yul\":1505:1514   */\n      dup6\n        /* \"#utility.yul\":1496:1503   */\n      dup8\n        /* \"#utility.yul\":1492:1515   */\n      sub\n        /* \"#utility.yul\":1488:1521   */\n      slt\n        /* \"#utility.yul\":1485:1487   */\n      iszero\n      tag_235\n      jumpi\n        /* \"#utility.yul\":1524:1603   */\n      tag_236\n      tag_237\n      jump\t// in\n    tag_236:\n        /* \"#utility.yul\":1485:1487   */\n    tag_235:\n        /* \"#utility.yul\":1644:1645   */\n      0x00\n        /* \"#utility.yul\":1669:1722   */\n      tag_238\n        /* \"#utility.yul\":1714:1721   */\n      dup8\n        /* \"#utility.yul\":1705:1711   */\n      dup3\n        /* \"#utility.yul\":1694:1703   */\n      dup9\n        /* \"#utility.yul\":1690:1712   */\n      add\n        /* \"#utility.yul\":1669:1722   */\n      tag_212\n      jump\t// in\n    tag_238:\n        /* \"#utility.yul\":1659:1722   */\n      swap5\n      pop\n        /* \"#utility.yul\":1615:1732   */\n      pop\n        /* \"#utility.yul\":1771:1773   */\n      0x20\n        /* \"#utility.yul\":1797:1850   */\n      tag_239\n        /* \"#utility.yul\":1842:1849   */\n      dup8\n        /* \"#utility.yul\":1833:1839   */\n      dup3\n        /* \"#utility.yul\":1822:1831   */\n      dup9\n        /* \"#utility.yul\":1818:1840   */\n      add\n        /* \"#utility.yul\":1797:1850   */\n      tag_212\n      jump\t// in\n    tag_239:\n        /* \"#utility.yul\":1787:1850   */\n      swap4\n      pop\n        /* \"#utility.yul\":1742:1860   */\n      pop\n        /* \"#utility.yul\":1899:1901   */\n      0x40\n        /* \"#utility.yul\":1925:1978   */\n      tag_240\n        /* \"#utility.yul\":1970:1977   */\n      dup8\n        /* \"#utility.yul\":1961:1967   */\n      dup3\n        /* \"#utility.yul\":1950:1959   */\n      dup9\n        /* \"#utility.yul\":1946:1968   */\n      add\n        /* \"#utility.yul\":1925:1978   */\n      tag_230\n      jump\t// in\n    tag_240:\n        /* \"#utility.yul\":1915:1978   */\n      swap3\n      pop\n        /* \"#utility.yul\":1870:1988   */\n      pop\n        /* \"#utility.yul\":2027:2029   */\n      0x60\n        /* \"#utility.yul\":2053:2106   */\n      tag_241\n        /* \"#utility.yul\":2098:2105   */\n      dup8\n        /* \"#utility.yul\":2089:2095   */\n      dup3\n        /* \"#utility.yul\":2078:2087   */\n      dup9\n        /* \"#utility.yul\":2074:2096   */\n      add\n        /* \"#utility.yul\":2053:2106   */\n      tag_230\n      jump\t// in\n    tag_241:\n        /* \"#utility.yul\":2043:2106   */\n      swap2\n      pop\n        /* \"#utility.yul\":1998:2116   */\n      pop\n        /* \"#utility.yul\":1475:2123   */\n      swap3\n      swap6\n      swap2\n      swap5\n      pop\n      swap3\n      pop\n      jump\t// out\n        /* \"#utility.yul\":2129:2474   */\n    tag_127:\n        /* \"#utility.yul\":2196:2202   */\n      0x00\n        /* \"#utility.yul\":2245:2247   */\n      0x20\n        /* \"#utility.yul\":2233:2242   */\n      dup3\n        /* \"#utility.yul\":2224:2231   */\n      dup5\n        /* \"#utility.yul\":2220:2243   */\n      sub\n        /* \"#utility.yul\":2216:2248   */\n      slt\n        /* \"#utility.yul\":2213:2215   */\n      iszero\n      tag_243\n      jumpi\n        /* \"#utility.yul\":2251:2330   */\n      tag_244\n      tag_237\n      jump\t// in\n    tag_244:\n        /* \"#utility.yul\":2213:2215   */\n    tag_243:\n        /* \"#utility.yul\":2371:2372   */\n      0x00\n        /* \"#utility.yul\":2396:2457   */\n      tag_245\n        /* \"#utility.yul\":2449:2456   */\n      dup5\n        /* \"#utility.yul\":2440:2446   */\n      dup3\n        /* \"#utility.yul\":2429:2438   */\n      dup6\n        /* \"#utility.yul\":2425:2447   */\n      add\n        /* \"#utility.yul\":2396:2457   */\n      tag_216\n      jump\t// in\n    tag_245:\n        /* \"#utility.yul\":2386:2457   */\n      swap2\n      pop\n        /* \"#utility.yul\":2342:2467   */\n      pop\n        /* \"#utility.yul\":2203:2474   */\n      swap3\n      swap2\n      pop\n      pop\n      jump\t// out\n        /* \"#utility.yul\":2480:2809   */\n    tag_17:\n        /* \"#utility.yul\":2539:2545   */\n      0x00\n        /* \"#utility.yul\":2588:2590   */\n      0x20\n        /* \"#utility.yul\":2576:2585   */\n      dup3\n        /* \"#utility.yul\":2567:2574   */\n      dup5\n        /* \"#utility.yul\":2563:2586   */\n      sub\n        /* \"#utility.yul\":2559:2591   */\n      slt\n        /* \"#utility.yul\":2556:2558   */\n      iszero\n      tag_247\n      jumpi\n        /* \"#utility.yul\":2594:2673   */\n      tag_248\n      tag_237\n      jump\t// in\n    tag_248:\n        /* \"#utility.yul\":2556:2558   */\n    tag_247:\n        /* \"#utility.yul\":2714:2715   */\n      0x00\n        /* \"#utility.yul\":2739:2792   */\n      tag_249\n        /* \"#utility.yul\":2784:2791   */\n      dup5\n        /* \"#utility.yul\":2775:2781   */\n      dup3\n        /* \"#utility.yul\":2764:2773   */\n      dup6\n        /* \"#utility.yul\":2760:2782   */\n      add\n        /* \"#utility.yul\":2739:2792   */\n      tag_220\n      jump\t// in\n    tag_249:\n        /* \"#utility.yul\":2729:2792   */\n      swap2\n      pop\n        /* \"#utility.yul\":2685:2802   */\n      pop\n        /* \"#utility.yul\":2546:2809   */\n      swap3\n      swap2\n      pop\n      pop\n      jump\t// out\n        /* \"#utility.yul\":2815:3289   */\n    tag_13:\n        /* \"#utility.yul\":2883:2889   */\n      0x00\n        /* \"#utility.yul\":2891:2897   */\n      dup1\n        /* \"#utility.yul\":2940:2942   */\n      0x40\n        /* \"#utility.yul\":2928:2937   */\n      dup4\n        /* \"#utility.yul\":2919:2926   */\n      dup6\n        /* \"#utility.yul\":2915:2938   */\n      sub\n        /* \"#utility.yul\":2911:2943   */\n      slt\n        /* \"#utility.yul\":2908:2910   */\n      iszero\n      tag_251\n      jumpi\n        /* \"#utility.yul\":2946:3025   */\n      tag_252\n      tag_237\n      jump\t// in\n    tag_252:\n        /* \"#utility.yul\":2908:2910   */\n    tag_251:\n        /* \"#utility.yul\":3066:3067   */\n      0x00\n        /* \"#utility.yul\":3091:3144   */\n      tag_253\n        /* \"#utility.yul\":3136:3143   */\n      dup6\n        /* \"#utility.yul\":3127:3133   */\n      dup3\n        /* \"#utility.yul\":3116:3125   */\n      dup7\n        /* \"#utility.yul\":3112:3134   */\n      add\n        /* \"#utility.yul\":3091:3144   */\n      tag_220\n      jump\t// in\n    tag_253:\n        /* \"#utility.yul\":3081:3144   */\n      swap3\n      pop\n        /* \"#utility.yul\":3037:3154   */\n      pop\n        /* \"#utility.yul\":3193:3195   */\n      0x20\n        /* \"#utility.yul\":3219:3272   */\n      tag_254\n        /* \"#utility.yul\":3264:3271   */\n      dup6\n        /* \"#utility.yul\":3255:3261   */\n      dup3\n        /* \"#utility.yul\":3244:3253   */\n      dup7\n        /* \"#utility.yul\":3240:3262   */\n      add\n        /* \"#utility.yul\":3219:3272   */\n      tag_230\n      jump\t// in\n    tag_254:\n        /* \"#utility.yul\":3209:3272   */\n      swap2\n      pop\n        /* \"#utility.yul\":3164:3282   */\n      pop\n        /* \"#utility.yul\":2898:3289   */\n      swap3\n      pop\n      swap3\n      swap1\n      pop\n      jump\t// out\n        /* \"#utility.yul\":3295:4708   */\n    tag_9:\n        /* \"#utility.yul\":3417:3423   */\n      0x00\n        /* \"#utility.yul\":3425:3431   */\n      dup1\n        /* \"#utility.yul\":3433:3439   */\n      0x00\n        /* \"#utility.yul\":3441:3447   */\n      dup1\n        /* \"#utility.yul\":3449:3455   */\n      0x00\n        /* \"#utility.yul\":3457:3463   */\n      dup1\n        /* \"#utility.yul\":3506:3509   */\n      0xc0\n        /* \"#utility.yul\":3494:3503   */\n      dup8\n        /* \"#utility.yul\":3485:3492   */\n      dup10\n        /* \"#utility.yul\":3481:3504   */\n      sub\n        /* \"#utility.yul\":3477:3510   */\n      slt\n        /* \"#utility.yul\":3474:3476   */\n      iszero\n      tag_256\n      jumpi\n        /* \"#utility.yul\":3513:3592   */\n      tag_257\n      tag_237\n      jump\t// in\n    tag_257:\n        /* \"#utility.yul\":3474:3476   */\n    tag_256:\n        /* \"#utility.yul\":3633:3634   */\n      0x00\n        /* \"#utility.yul\":3658:3711   */\n      tag_258\n        /* \"#utility.yul\":3703:3710   */\n      dup10\n        /* \"#utility.yul\":3694:3700   */\n      dup3\n        /* \"#utility.yul\":3683:3692   */\n      dup11\n        /* \"#utility.yul\":3679:3701   */\n      add\n        /* \"#utility.yul\":3658:3711   */\n      tag_220\n      jump\t// in\n    tag_258:\n        /* \"#utility.yul\":3648:3711   */\n      swap7\n      pop\n        /* \"#utility.yul\":3604:3721   */\n      pop\n        /* \"#utility.yul\":3760:3762   */\n      0x20\n        /* \"#utility.yul\":3786:3839   */\n      tag_259\n        /* \"#utility.yul\":3831:3838   */\n      dup10\n        /* \"#utility.yul\":3822:3828   */\n      dup3\n        /* \"#utility.yul\":3811:3820   */\n      dup11\n        /* \"#utility.yul\":3807:3829   */\n      add\n        /* \"#utility.yul\":3786:3839   */\n      tag_230\n      jump\t// in\n    tag_259:\n        /* \"#utility.yul\":3776:3839   */\n      swap6\n      pop\n        /* \"#utility.yul\":3731:3849   */\n      pop\n        /* \"#utility.yul\":3888:3890   */\n      0x40\n        /* \"#utility.yul\":3914:3967   */\n      tag_260\n        /* \"#utility.yul\":3959:3966   */\n      dup10\n        /* \"#utility.yul\":3950:3956   */\n      dup3\n        /* \"#utility.yul\":3939:3948   */\n      dup11\n        /* \"#utility.yul\":3935:3957   */\n      add\n        /* \"#utility.yul\":3914:3967   */\n      tag_230\n      jump\t// in\n    tag_260:\n        /* \"#utility.yul\":3904:3967   */\n      swap5\n      pop\n        /* \"#utility.yul\":3859:3977   */\n      pop\n        /* \"#utility.yul\":4016:4018   */\n      0x60\n        /* \"#utility.yul\":4042:4095   */\n      tag_261\n        /* \"#utility.yul\":4087:4094   */\n      dup10\n        /* \"#utility.yul\":4078:4084   */\n      dup3\n        /* \"#utility.yul\":4067:4076   */\n      dup11\n        /* \"#utility.yul\":4063:4085   */\n      add\n        /* \"#utility.yul\":4042:4095   */\n      tag_230\n      jump\t// in\n    tag_261:\n        /* \"#utility.yul\":4032:4095   */\n      swap4\n      pop\n        /* \"#utility.yul\":3987:4105   */\n      pop\n        /* \"#utility.yul\":4172:4175   */\n      0x80\n        /* \"#utility.yul\":4161:4170   */\n      dup8\n        /* \"#utility.yul\":4157:4176   */\n      add\n        /* \"#utility.yul\":4144:4177   */\n      calldataload\n        /* \"#utility.yul\":4204:4222   */\n      0xffffffffffffffff\n        /* \"#utility.yul\":4196:4202   */\n      dup2\n        /* \"#utility.yul\":4193:4223   */\n      gt\n        /* \"#utility.yul\":4190:4192   */\n      iszero\n      tag_262\n      jumpi\n        /* \"#utility.yul\":4226:4305   */\n      tag_263\n      tag_264\n      jump\t// in\n    tag_263:\n        /* \"#utility.yul\":4190:4192   */\n    tag_262:\n        /* \"#utility.yul\":4331:4393   */\n      tag_265\n        /* \"#utility.yul\":4385:4392   */\n      dup10\n        /* \"#utility.yul\":4376:4382   */\n      dup3\n        /* \"#utility.yul\":4365:4374   */\n      dup11\n        /* \"#utility.yul\":4361:4383   */\n      add\n        /* \"#utility.yul\":4331:4393   */\n      tag_224\n      jump\t// in\n    tag_265:\n        /* \"#utility.yul\":4321:4393   */\n      swap3\n      pop\n        /* \"#utility.yul\":4115:4403   */\n      pop\n        /* \"#utility.yul\":4470:4473   */\n      0xa0\n        /* \"#utility.yul\":4459:4468   */\n      dup8\n        /* \"#utility.yul\":4455:4474   */\n      add\n        /* \"#utility.yul\":4442:4475   */\n      calldataload\n        /* \"#utility.yul\":4502:4520   */\n      0xffffffffffffffff\n        /* \"#utility.yul\":4494:4500   */\n      dup2\n        /* \"#utility.yul\":4491:4521   */\n      gt\n        /* \"#utility.yul\":4488:4490   */\n      iszero\n      tag_266\n      jumpi\n        /* \"#utility.yul\":4524:4603   */\n      tag_267\n      tag_264\n      jump\t// in\n    tag_267:\n        /* \"#utility.yul\":4488:4490   */\n    tag_266:\n        /* \"#utility.yul\":4629:4691   */\n      tag_268\n        /* \"#utility.yul\":4683:4690   */\n      dup10\n        /* \"#utility.yul\":4674:4680   */\n      dup3\n        /* \"#utility.yul\":4663:4672   */\n      dup11\n        /* \"#utility.yul\":4659:4681   */\n      add\n        /* \"#utility.yul\":4629:4691   */\n      tag_224\n      jump\t// in\n    tag_268:\n        /* \"#utility.yul\":4619:4691   */\n      swap2\n      pop\n        /* \"#utility.yul\":4413:4701   */\n      pop\n        /* \"#utility.yul\":3464:4708   */\n      swap3\n      swap6\n      pop\n      swap3\n      swap6\n      pop\n      swap3\n      swap6\n      jump\t// out\n        /* \"#utility.yul\":4714:4832   */\n    tag_269:\n        /* \"#utility.yul\":4801:4825   */\n      tag_271\n        /* \"#utility.yul\":4819:4824   */\n      dup2\n        /* \"#utility.yul\":4801:4825   */\n      tag_272\n      jump\t// in\n    tag_271:\n        /* \"#utility.yul\":4796:4799   */\n      dup3\n        /* \"#utility.yul\":4789:4826   */\n      mstore\n        /* \"#utility.yul\":4779:4832   */\n      pop\n      pop\n      jump\t// out\n        /* \"#utility.yul\":4838:4995   */\n    tag_273:\n        /* \"#utility.yul\":4943:4988   */\n      tag_275\n        /* \"#utility.yul\":4963:4987   */\n      tag_276\n        /* \"#utility.yul\":4981:4986   */\n      dup3\n        /* \"#utility.yul\":4963:4987   */\n      tag_272\n      jump\t// in\n    tag_276:\n        /* \"#utility.yul\":4943:4988   */\n      tag_277\n      jump\t// in\n    tag_275:\n        /* \"#utility.yul\":4938:4941   */\n      dup3\n        /* \"#utility.yul\":4931:4989   */\n      mstore\n        /* \"#utility.yul\":4921:4995   */\n      pop\n      pop\n      jump\t// out\n        /* \"#utility.yul\":5001:5119   */\n    tag_278:\n        /* \"#utility.yul\":5088:5112   */\n      tag_280\n        /* \"#utility.yul\":5106:5111   */\n      dup2\n        /* \"#utility.yul\":5088:5112   */\n      tag_281\n      jump\t// in\n    tag_280:\n        /* \"#utility.yul\":5083:5086   */\n      dup3\n        /* \"#utility.yul\":5076:5113   */\n      mstore\n        /* \"#utility.yul\":5066:5119   */\n      pop\n      pop\n      jump\t// out\n        /* \"#utility.yul\":5125:5282   */\n    tag_282:\n        /* \"#utility.yul\":5230:5275   */\n      tag_284\n        /* \"#utility.yul\":5250:5274   */\n      tag_285\n        /* \"#utility.yul\":5268:5273   */\n      dup3\n        /* \"#utility.yul\":5250:5274   */\n      tag_281\n      jump\t// in\n    tag_285:\n        /* \"#utility.yul\":5230:5275   */\n      tag_286\n      jump\t// in\n    tag_284:\n        /* \"#utility.yul\":5225:5228   */\n      dup3\n        /* \"#utility.yul\":5218:5276   */\n      mstore\n        /* \"#utility.yul\":5208:5282   */\n      pop\n      pop\n      jump\t// out\n        /* \"#utility.yul\":5288:5449   */\n    tag_287:\n        /* \"#utility.yul\":5390:5442   */\n      tag_289\n        /* \"#utility.yul\":5436:5441   */\n      dup2\n        /* \"#utility.yul\":5390:5442   */\n      tag_290\n      jump\t// in\n    tag_289:\n        /* \"#utility.yul\":5385:5388   */\n      dup3\n        /* \"#utility.yul\":5378:5443   */\n      mstore\n        /* \"#utility.yul\":5368:5449   */\n      pop\n      pop\n      jump\t// out\n        /* \"#utility.yul\":5455:5821   */\n    tag_291:\n        /* \"#utility.yul\":5597:5600   */\n      0x00\n        /* \"#utility.yul\":5618:5685   */\n      tag_293\n        /* \"#utility.yul\":5682:5684   */\n      0x18\n        /* \"#utility.yul\":5677:5680   */\n      dup4\n        /* \"#utility.yul\":5618:5685   */\n      tag_294\n      jump\t// in\n    tag_293:\n        /* \"#utility.yul\":5611:5685   */\n      swap2\n      pop\n        /* \"#utility.yul\":5694:5787   */\n      tag_295\n        /* \"#utility.yul\":5783:5786   */\n      dup3\n        /* \"#utility.yul\":5694:5787   */\n      tag_296\n      jump\t// in\n    tag_295:\n        /* \"#utility.yul\":5812:5814   */\n      0x20\n        /* \"#utility.yul\":5807:5810   */\n      dup3\n        /* \"#utility.yul\":5803:5815   */\n      add\n        /* \"#utility.yul\":5796:5815   */\n      swap1\n      pop\n        /* \"#utility.yul\":5601:5821   */\n      swap2\n      swap1\n      pop\n      jump\t// out\n        /* \"#utility.yul\":5827:6193   */\n    tag_297:\n        /* \"#utility.yul\":5969:5972   */\n      0x00\n        /* \"#utility.yul\":5990:6057   */\n      tag_299\n        /* \"#utility.yul\":6054:6056   */\n      0x25\n        /* \"#utility.yul\":6049:6052   */\n      dup4\n        /* \"#utility.yul\":5990:6057   */\n      tag_294\n      jump\t// in\n    tag_299:\n        /* \"#utility.yul\":5983:6057   */\n      swap2\n      pop\n        /* \"#utility.yul\":6066:6159   */\n      tag_300\n        /* \"#utility.yul\":6155:6158   */\n      dup3\n        /* \"#utility.yul\":6066:6159   */\n      tag_301\n      jump\t// in\n    tag_300:\n        /* \"#utility.yul\":6184:6186   */\n      0x40\n        /* \"#utility.yul\":6179:6182   */\n      dup3\n        /* \"#utility.yul\":6175:6187   */\n      add\n        /* \"#utility.yul\":6168:6187   */\n      swap1\n      pop\n        /* \"#utility.yul\":5973:6193   */\n      swap2\n      swap1\n      pop\n      jump\t// out\n        /* \"#utility.yul\":6199:6565   */\n    tag_302:\n        /* \"#utility.yul\":6341:6344   */\n      0x00\n        /* \"#utility.yul\":6362:6429   */\n      tag_304\n        /* \"#utility.yul\":6426:6428   */\n      0x3c\n        /* \"#utility.yul\":6421:6424   */\n      dup4\n        /* \"#utility.yul\":6362:6429   */\n      tag_294\n      jump\t// in\n    tag_304:\n        /* \"#utility.yul\":6355:6429   */\n      swap2\n      pop\n        /* \"#utility.yul\":6438:6531   */\n      tag_305\n        /* \"#utility.yul\":6527:6530   */\n      dup3\n        /* \"#utility.yul\":6438:6531   */\n      tag_306\n      jump\t// in\n    tag_305:\n        /* \"#utility.yul\":6556:6558   */\n      0x40\n        /* \"#utility.yul\":6551:6554   */\n      dup3\n        /* \"#utility.yul\":6547:6559   */\n      add\n        /* \"#utility.yul\":6540:6559   */\n      swap1\n      pop\n        /* \"#utility.yul\":6345:6565   */\n      swap2\n      swap1\n      pop\n      jump\t// out\n        /* \"#utility.yul\":6571:6937   */\n    tag_307:\n        /* \"#utility.yul\":6713:6716   */\n      0x00\n        /* \"#utility.yul\":6734:6801   */\n      tag_309\n        /* \"#utility.yul\":6798:6800   */\n      0x1f\n        /* \"#utility.yul\":6793:6796   */\n      dup4\n        /* \"#utility.yul\":6734:6801   */\n      tag_294\n      jump\t// in\n    tag_309:\n        /* \"#utility.yul\":6727:6801   */\n      swap2\n      pop\n        /* \"#utility.yul\":6810:6903   */\n      tag_310\n        /* \"#utility.yul\":6899:6902   */\n      dup3\n        /* \"#utility.yul\":6810:6903   */\n      tag_311\n      jump\t// in\n    tag_310:\n        /* \"#utility.yul\":6928:6930   */\n      0x20\n        /* \"#utility.yul\":6923:6926   */\n      dup3\n        /* \"#utility.yul\":6919:6931   */\n      add\n        /* \"#utility.yul\":6912:6931   */\n      swap1\n      pop\n        /* \"#utility.yul\":6717:6937   */\n      swap2\n      swap1\n      pop\n      jump\t// out\n        /* \"#utility.yul\":6943:7345   */\n    tag_312:\n        /* \"#utility.yul\":7103:7106   */\n      0x00\n        /* \"#utility.yul\":7124:7209   */\n      tag_314\n        /* \"#utility.yul\":7206:7208   */\n      0x1c\n        /* \"#utility.yul\":7201:7204   */\n      dup4\n        /* \"#utility.yul\":7124:7209   */\n      tag_315\n      jump\t// in\n    tag_314:\n        /* \"#utility.yul\":7117:7209   */\n      swap2\n      pop\n        /* \"#utility.yul\":7218:7311   */\n      tag_316\n        /* \"#utility.yul\":7307:7310   */\n      dup3\n        /* \"#utility.yul\":7218:7311   */\n      tag_317\n      jump\t// in\n    tag_316:\n        /* \"#utility.yul\":7336:7338   */\n      0x1c\n        /* \"#utility.yul\":7331:7334   */\n      dup3\n        /* \"#utility.yul\":7327:7339   */\n      add\n        /* \"#utility.yul\":7320:7339   */\n      swap1\n      pop\n        /* \"#utility.yul\":7107:7345   */\n      swap2\n      swap1\n      pop\n      jump\t// out\n        /* \"#utility.yul\":7351:7717   */\n    tag_318:\n        /* \"#utility.yul\":7493:7496   */\n      0x00\n        /* \"#utility.yul\":7514:7581   */\n      tag_320\n        /* \"#utility.yul\":7578:7580   */\n      0x16\n        /* \"#utility.yul\":7573:7576   */\n      dup4\n        /* \"#utility.yul\":7514:7581   */\n      tag_294\n      jump\t// in\n    tag_320:\n        /* \"#utility.yul\":7507:7581   */\n      swap2\n      pop\n        /* \"#utility.yul\":7590:7683   */\n      tag_321\n        /* \"#utility.yul\":7679:7682   */\n      dup3\n        /* \"#utility.yul\":7590:7683   */\n      tag_322\n      jump\t// in\n    tag_321:\n        /* \"#utility.yul\":7708:7710   */\n      0x20\n        /* \"#utility.yul\":7703:7706   */\n      dup3\n        /* \"#utility.yul\":7699:7711   */\n      add\n        /* \"#utility.yul\":7692:7711   */\n      swap1\n      pop\n        /* \"#utility.yul\":7497:7717   */\n      swap2\n      swap1\n      pop\n      jump\t// out\n        /* \"#utility.yul\":7723:8089   */\n    tag_323:\n        /* \"#utility.yul\":7865:7868   */\n      0x00\n        /* \"#utility.yul\":7886:7953   */\n      tag_325\n        /* \"#utility.yul\":7950:7952   */\n      0x26\n        /* \"#utility.yul\":7945:7948   */\n      dup4\n        /* \"#utility.yul\":7886:7953   */\n      tag_294\n      jump\t// in\n    tag_325:\n        /* \"#utility.yul\":7879:7953   */\n      swap2\n      pop\n        /* \"#utility.yul\":7962:8055   */\n      tag_326\n        /* \"#utility.yul\":8051:8054   */\n      dup3\n        /* \"#utility.yul\":7962:8055   */\n      tag_327\n      jump\t// in\n    tag_326:\n        /* \"#utility.yul\":8080:8082   */\n      0x40\n        /* \"#utility.yul\":8075:8078   */\n      dup3\n        /* \"#utility.yul\":8071:8083   */\n      add\n        /* \"#utility.yul\":8064:8083   */\n      swap1\n      pop\n        /* \"#utility.yul\":7869:8089   */\n      swap2\n      swap1\n      pop\n      jump\t// out\n        /* \"#utility.yul\":8095:8461   */\n    tag_328:\n        /* \"#utility.yul\":8237:8240   */\n      0x00\n        /* \"#utility.yul\":8258:8325   */\n      tag_330\n        /* \"#utility.yul\":8322:8324   */\n      0x16\n        /* \"#utility.yul\":8317:8320   */\n      dup4\n        /* \"#utility.yul\":8258:8325   */\n      tag_294\n      jump\t// in\n    tag_330:\n        /* \"#utility.yul\":8251:8325   */\n      swap2\n      pop\n        /* \"#utility.yul\":8334:8427   */\n      tag_331\n        /* \"#utility.yul\":8423:8426   */\n      dup3\n        /* \"#utility.yul\":8334:8427   */\n      tag_332\n      jump\t// in\n    tag_331:\n        /* \"#utility.yul\":8452:8454   */\n      0x20\n        /* \"#utility.yul\":8447:8450   */\n      dup3\n        /* \"#utility.yul\":8443:8455   */\n      add\n        /* \"#utility.yul\":8436:8455   */\n      swap1\n      pop\n        /* \"#utility.yul\":8241:8461   */\n      swap2\n      swap1\n      pop\n      jump\t// out\n        /* \"#utility.yul\":8467:8833   */\n    tag_333:\n        /* \"#utility.yul\":8609:8612   */\n      0x00\n        /* \"#utility.yul\":8630:8697   */\n      tag_335\n        /* \"#utility.yul\":8694:8696   */\n      0x22\n        /* \"#utility.yul\":8689:8692   */\n      dup4\n        /* \"#utility.yul\":8630:8697   */\n      tag_294\n      jump\t// in\n    tag_335:\n        /* \"#utility.yul\":8623:8697   */\n      swap2\n      pop\n        /* \"#utility.yul\":8706:8799   */\n      tag_336\n        /* \"#utility.yul\":8795:8798   */\n      dup3\n        /* \"#utility.yul\":8706:8799   */\n      tag_337\n      jump\t// in\n    tag_336:\n        /* \"#utility.yul\":8824:8826   */\n      0x40\n        /* \"#utility.yul\":8819:8822   */\n      dup3\n        /* \"#utility.yul\":8815:8827   */\n      add\n        /* \"#utility.yul\":8808:8827   */\n      swap1\n      pop\n        /* \"#utility.yul\":8613:8833   */\n      swap2\n      swap1\n      pop\n      jump\t// out\n        /* \"#utility.yul\":8839:9205   */\n    tag_338:\n        /* \"#utility.yul\":8981:8984   */\n      0x00\n        /* \"#utility.yul\":9002:9069   */\n      tag_340\n        /* \"#utility.yul\":9066:9068   */\n      0x28\n        /* \"#utility.yul\":9061:9064   */\n      dup4\n        /* \"#utility.yul\":9002:9069   */\n      tag_294\n      jump\t// in\n    tag_340:\n        /* \"#utility.yul\":8995:9069   */\n      swap2\n      pop\n        /* \"#utility.yul\":9078:9171   */\n      tag_341\n        /* \"#utility.yul\":9167:9170   */\n      dup3\n        /* \"#utility.yul\":9078:9171   */\n      tag_342\n      jump\t// in\n    tag_341:\n        /* \"#utility.yul\":9196:9198   */\n      0x40\n        /* \"#utility.yul\":9191:9194   */\n      dup3\n        /* \"#utility.yul\":9187:9199   */\n      add\n        /* \"#utility.yul\":9180:9199   */\n      swap1\n      pop\n        /* \"#utility.yul\":8985:9205   */\n      swap2\n      swap1\n      pop\n      jump\t// out\n        /* \"#utility.yul\":9211:9577   */\n    tag_343:\n        /* \"#utility.yul\":9353:9356   */\n      0x00\n        /* \"#utility.yul\":9374:9441   */\n      tag_345\n        /* \"#utility.yul\":9438:9440   */\n      0x22\n        /* \"#utility.yul\":9433:9436   */\n      dup4\n        /* \"#utility.yul\":9374:9441   */\n      tag_294\n      jump\t// in\n    tag_345:\n        /* \"#utility.yul\":9367:9441   */\n      swap2\n      pop\n        /* \"#utility.yul\":9450:9543   */\n      tag_346\n        /* \"#utility.yul\":9539:9542   */\n      dup3\n        /* \"#utility.yul\":9450:9543   */\n      tag_347\n      jump\t// in\n    tag_346:\n        /* \"#utility.yul\":9568:9570   */\n      0x40\n        /* \"#utility.yul\":9563:9566   */\n      dup3\n        /* \"#utility.yul\":9559:9571   */\n      add\n        /* \"#utility.yul\":9552:9571   */\n      swap1\n      pop\n        /* \"#utility.yul\":9357:9577   */\n      swap2\n      swap1\n      pop\n      jump\t// out\n        /* \"#utility.yul\":9583:9949   */\n    tag_348:\n        /* \"#utility.yul\":9725:9728   */\n      0x00\n        /* \"#utility.yul\":9746:9813   */\n      tag_350\n        /* \"#utility.yul\":9810:9812   */\n      0x1a\n        /* \"#utility.yul\":9805:9808   */\n      dup4\n        /* \"#utility.yul\":9746:9813   */\n      tag_294\n      jump\t// in\n    tag_350:\n        /* \"#utility.yul\":9739:9813   */\n      swap2\n      pop\n        /* \"#utility.yul\":9822:9915   */\n      tag_351\n        /* \"#utility.yul\":9911:9914   */\n      dup3\n        /* \"#utility.yul\":9822:9915   */\n      tag_352\n      jump\t// in\n    tag_351:\n        /* \"#utility.yul\":9940:9942   */\n      0x20\n        /* \"#utility.yul\":9935:9938   */\n      dup3\n        /* \"#utility.yul\":9931:9943   */\n      add\n        /* \"#utility.yul\":9924:9943   */\n      swap1\n      pop\n        /* \"#utility.yul\":9729:9949   */\n      swap2\n      swap1\n      pop\n      jump\t// out\n        /* \"#utility.yul\":9955:10321   */\n    tag_353:\n        /* \"#utility.yul\":10097:10100   */\n      0x00\n        /* \"#utility.yul\":10118:10185   */\n      tag_355\n        /* \"#utility.yul\":10182:10184   */\n      0x17\n        /* \"#utility.yul\":10177:10180   */\n      dup4\n        /* \"#utility.yul\":10118:10185   */\n      tag_294\n      jump\t// in\n    tag_355:\n        /* \"#utility.yul\":10111:10185   */\n      swap2\n      pop\n        /* \"#utility.yul\":10194:10287   */\n      tag_356\n        /* \"#utility.yul\":10283:10286   */\n      dup3\n        /* \"#utility.yul\":10194:10287   */\n      tag_357\n      jump\t// in\n    tag_356:\n        /* \"#utility.yul\":10312:10314   */\n      0x20\n        /* \"#utility.yul\":10307:10310   */\n      dup3\n        /* \"#utility.yul\":10303:10315   */\n      add\n        /* \"#utility.yul\":10296:10315   */\n      swap1\n      pop\n        /* \"#utility.yul\":10101:10321   */\n      swap2\n      swap1\n      pop\n      jump\t// out\n        /* \"#utility.yul\":10327:10693   */\n    tag_358:\n        /* \"#utility.yul\":10469:10472   */\n      0x00\n        /* \"#utility.yul\":10490:10557   */\n      tag_360\n        /* \"#utility.yul\":10554:10556   */\n      0x1b\n        /* \"#utility.yul\":10549:10552   */\n      dup4\n        /* \"#utility.yul\":10490:10557   */\n      tag_294\n      jump\t// in\n    tag_360:\n        /* \"#utility.yul\":10483:10557   */\n      swap2\n      pop\n        /* \"#utility.yul\":10566:10659   */\n      tag_361\n        /* \"#utility.yul\":10655:10658   */\n      dup3\n        /* \"#utility.yul\":10566:10659   */\n      tag_362\n      jump\t// in\n    tag_361:\n        /* \"#utility.yul\":10684:10686   */\n      0x20\n        /* \"#utility.yul\":10679:10682   */\n      dup3\n        /* \"#utility.yul\":10675:10687   */\n      add\n        /* \"#utility.yul\":10668:10687   */\n      swap1\n      pop\n        /* \"#utility.yul\":10473:10693   */\n      swap2\n      swap1\n      pop\n      jump\t// out\n        /* \"#utility.yul\":10699:11065   */\n    tag_363:\n        /* \"#utility.yul\":10841:10844   */\n      0x00\n        /* \"#utility.yul\":10862:10929   */\n      tag_365\n        /* \"#utility.yul\":10926:10928   */\n      0x11\n        /* \"#utility.yul\":10921:10924   */\n      dup4\n        /* \"#utility.yul\":10862:10929   */\n      tag_294\n      jump\t// in\n    tag_365:\n        /* \"#utility.yul\":10855:10929   */\n      swap2\n      pop\n        /* \"#utility.yul\":10938:11031   */\n      tag_366\n        /* \"#utility.yul\":11027:11030   */\n      dup3\n        /* \"#utility.yul\":10938:11031   */\n      tag_367\n      jump\t// in\n    tag_366:\n        /* \"#utility.yul\":11056:11058   */\n      0x20\n        /* \"#utility.yul\":11051:11054   */\n      dup3\n        /* \"#utility.yul\":11047:11059   */\n      add\n        /* \"#utility.yul\":11040:11059   */\n      swap1\n      pop\n        /* \"#utility.yul\":10845:11065   */\n      swap2\n      swap1\n      pop\n      jump\t// out\n        /* \"#utility.yul\":11071:11437   */\n    tag_368:\n        /* \"#utility.yul\":11213:11216   */\n      0x00\n        /* \"#utility.yul\":11234:11301   */\n      tag_370\n        /* \"#utility.yul\":11298:11300   */\n      0x31\n        /* \"#utility.yul\":11293:11296   */\n      dup4\n        /* \"#utility.yul\":11234:11301   */\n      tag_294\n      jump\t// in\n    tag_370:\n        /* \"#utility.yul\":11227:11301   */\n      swap2\n      pop\n        /* \"#utility.yul\":11310:11403   */\n      tag_371\n        /* \"#utility.yul\":11399:11402   */\n      dup3\n        /* \"#utility.yul\":11310:11403   */\n      tag_372\n      jump\t// in\n    tag_371:\n        /* \"#utility.yul\":11428:11430   */\n      0x40\n        /* \"#utility.yul\":11423:11426   */\n      dup3\n        /* \"#utility.yul\":11419:11431   */\n      add\n        /* \"#utility.yul\":11412:11431   */\n      swap1\n      pop\n        /* \"#utility.yul\":11217:11437   */\n      swap2\n      swap1\n      pop\n      jump\t// out\n        /* \"#utility.yul\":11443:11561   */\n    tag_373:\n        /* \"#utility.yul\":11530:11554   */\n      tag_375\n        /* \"#utility.yul\":11548:11553   */\n      dup2\n        /* \"#utility.yul\":11530:11554   */\n      tag_376\n      jump\t// in\n    tag_375:\n        /* \"#utility.yul\":11525:11528   */\n      dup3\n        /* \"#utility.yul\":11518:11555   */\n      mstore\n        /* \"#utility.yul\":11508:11561   */\n      pop\n      pop\n      jump\t// out\n        /* \"#utility.yul\":11567:11724   */\n    tag_377:\n        /* \"#utility.yul\":11672:11717   */\n      tag_379\n        /* \"#utility.yul\":11692:11716   */\n      tag_380\n        /* \"#utility.yul\":11710:11715   */\n      dup3\n        /* \"#utility.yul\":11692:11716   */\n      tag_376\n      jump\t// in\n    tag_380:\n        /* \"#utility.yul\":11672:11717   */\n      tag_381\n      jump\t// in\n    tag_379:\n        /* \"#utility.yul\":11667:11670   */\n      dup3\n        /* \"#utility.yul\":11660:11718   */\n      mstore\n        /* \"#utility.yul\":11650:11724   */\n      pop\n      pop\n      jump\t// out\n        /* \"#utility.yul\":11730:11842   */\n    tag_382:\n        /* \"#utility.yul\":11813:11835   */\n      tag_384\n        /* \"#utility.yul\":11829:11834   */\n      dup2\n        /* \"#utility.yul\":11813:11835   */\n      tag_385\n      jump\t// in\n    tag_384:\n        /* \"#utility.yul\":11808:11811   */\n      dup3\n        /* \"#utility.yul\":11801:11836   */\n      mstore\n        /* \"#utility.yul\":11791:11842   */\n      pop\n      pop\n      jump\t// out\n        /* \"#utility.yul\":11848:12527   */\n    tag_86:\n        /* \"#utility.yul\":12044:12047   */\n      0x00\n        /* \"#utility.yul\":12059:12134   */\n      tag_387\n        /* \"#utility.yul\":12130:12133   */\n      dup3\n        /* \"#utility.yul\":12121:12127   */\n      dup8\n        /* \"#utility.yul\":12059:12134   */\n      tag_273\n      jump\t// in\n    tag_387:\n        /* \"#utility.yul\":12159:12161   */\n      0x14\n        /* \"#utility.yul\":12154:12157   */\n      dup3\n        /* \"#utility.yul\":12150:12162   */\n      add\n        /* \"#utility.yul\":12143:12162   */\n      swap2\n      pop\n        /* \"#utility.yul\":12172:12247   */\n      tag_388\n        /* \"#utility.yul\":12243:12246   */\n      dup3\n        /* \"#utility.yul\":12234:12240   */\n      dup7\n        /* \"#utility.yul\":12172:12247   */\n      tag_273\n      jump\t// in\n    tag_388:\n        /* \"#utility.yul\":12272:12274   */\n      0x14\n        /* \"#utility.yul\":12267:12270   */\n      dup3\n        /* \"#utility.yul\":12263:12275   */\n      add\n        /* \"#utility.yul\":12256:12275   */\n      swap2\n      pop\n        /* \"#utility.yul\":12285:12360   */\n      tag_389\n        /* \"#utility.yul\":12356:12359   */\n      dup3\n        /* \"#utility.yul\":12347:12353   */\n      dup6\n        /* \"#utility.yul\":12285:12360   */\n      tag_273\n      jump\t// in\n    tag_389:\n        /* \"#utility.yul\":12385:12387   */\n      0x14\n        /* \"#utility.yul\":12380:12383   */\n      dup3\n        /* \"#utility.yul\":12376:12388   */\n      add\n        /* \"#utility.yul\":12369:12388   */\n      swap2\n      pop\n        /* \"#utility.yul\":12398:12473   */\n      tag_390\n        /* \"#utility.yul\":12469:12472   */\n      dup3\n        /* \"#utility.yul\":12460:12466   */\n      dup5\n        /* \"#utility.yul\":12398:12473   */\n      tag_377\n      jump\t// in\n    tag_390:\n        /* \"#utility.yul\":12498:12500   */\n      0x20\n        /* \"#utility.yul\":12493:12496   */\n      dup3\n        /* \"#utility.yul\":12489:12501   */\n      add\n        /* \"#utility.yul\":12482:12501   */\n      swap2\n      pop\n        /* \"#utility.yul\":12518:12521   */\n      dup2\n        /* \"#utility.yul\":12511:12521   */\n      swap1\n      pop\n        /* \"#utility.yul\":12048:12527   */\n      swap6\n      swap5\n      pop\n      pop\n      pop\n      pop\n      pop\n      jump\t// out\n        /* \"#utility.yul\":12533:13212   */\n    tag_99:\n        /* \"#utility.yul\":12729:12732   */\n      0x00\n        /* \"#utility.yul\":12744:12819   */\n      tag_392\n        /* \"#utility.yul\":12815:12818   */\n      dup3\n        /* \"#utility.yul\":12806:12812   */\n      dup8\n        /* \"#utility.yul\":12744:12819   */\n      tag_282\n      jump\t// in\n    tag_392:\n        /* \"#utility.yul\":12844:12846   */\n      0x20\n        /* \"#utility.yul\":12839:12842   */\n      dup3\n        /* \"#utility.yul\":12835:12847   */\n      add\n        /* \"#utility.yul\":12828:12847   */\n      swap2\n      pop\n        /* \"#utility.yul\":12857:12932   */\n      tag_393\n        /* \"#utility.yul\":12928:12931   */\n      dup3\n        /* \"#utility.yul\":12919:12925   */\n      dup7\n        /* \"#utility.yul\":12857:12932   */\n      tag_377\n      jump\t// in\n    tag_393:\n        /* \"#utility.yul\":12957:12959   */\n      0x20\n        /* \"#utility.yul\":12952:12955   */\n      dup3\n        /* \"#utility.yul\":12948:12960   */\n      add\n        /* \"#utility.yul\":12941:12960   */\n      swap2\n      pop\n        /* \"#utility.yul\":12970:13045   */\n      tag_394\n        /* \"#utility.yul\":13041:13044   */\n      dup3\n        /* \"#utility.yul\":13032:13038   */\n      dup6\n        /* \"#utility.yul\":12970:13045   */\n      tag_377\n      jump\t// in\n    tag_394:\n        /* \"#utility.yul\":13070:13072   */\n      0x20\n        /* \"#utility.yul\":13065:13068   */\n      dup3\n        /* \"#utility.yul\":13061:13073   */\n      add\n        /* \"#utility.yul\":13054:13073   */\n      swap2\n      pop\n        /* \"#utility.yul\":13083:13158   */\n      tag_395\n        /* \"#utility.yul\":13154:13157   */\n      dup3\n        /* \"#utility.yul\":13145:13151   */\n      dup5\n        /* \"#utility.yul\":13083:13158   */\n      tag_377\n      jump\t// in\n    tag_395:\n        /* \"#utility.yul\":13183:13185   */\n      0x20\n        /* \"#utility.yul\":13178:13181   */\n      dup3\n        /* \"#utility.yul\":13174:13186   */\n      add\n        /* \"#utility.yul\":13167:13186   */\n      swap2\n      pop\n        /* \"#utility.yul\":13203:13206   */\n      dup2\n        /* \"#utility.yul\":13196:13206   */\n      swap1\n      pop\n        /* \"#utility.yul\":12733:13212   */\n      swap6\n      swap5\n      pop\n      pop\n      pop\n      pop\n      pop\n      jump\t// out\n        /* \"#utility.yul\":13218:13740   */\n    tag_135:\n        /* \"#utility.yul\":13431:13434   */\n      0x00\n        /* \"#utility.yul\":13453:13601   */\n      tag_397\n        /* \"#utility.yul\":13597:13600   */\n      dup3\n        /* \"#utility.yul\":13453:13601   */\n      tag_312\n      jump\t// in\n    tag_397:\n        /* \"#utility.yul\":13446:13601   */\n      swap2\n      pop\n        /* \"#utility.yul\":13611:13686   */\n      tag_398\n        /* \"#utility.yul\":13682:13685   */\n      dup3\n        /* \"#utility.yul\":13673:13679   */\n      dup5\n        /* \"#utility.yul\":13611:13686   */\n      tag_282\n      jump\t// in\n    tag_398:\n        /* \"#utility.yul\":13711:13713   */\n      0x20\n        /* \"#utility.yul\":13706:13709   */\n      dup3\n        /* \"#utility.yul\":13702:13714   */\n      add\n        /* \"#utility.yul\":13695:13714   */\n      swap2\n      pop\n        /* \"#utility.yul\":13731:13734   */\n      dup2\n        /* \"#utility.yul\":13724:13734   */\n      swap1\n      pop\n        /* \"#utility.yul\":13435:13740   */\n      swap3\n      swap2\n      pop\n      pop\n      jump\t// out\n        /* \"#utility.yul\":13746:14188   */\n    tag_122:\n        /* \"#utility.yul\":13895:13899   */\n      0x00\n        /* \"#utility.yul\":13933:13935   */\n      0x60\n        /* \"#utility.yul\":13922:13931   */\n      dup3\n        /* \"#utility.yul\":13918:13936   */\n      add\n        /* \"#utility.yul\":13910:13936   */\n      swap1\n      pop\n        /* \"#utility.yul\":13946:14017   */\n      tag_400\n        /* \"#utility.yul\":14014:14015   */\n      0x00\n        /* \"#utility.yul\":14003:14012   */\n      dup4\n        /* \"#utility.yul\":13999:14016   */\n      add\n        /* \"#utility.yul\":13990:13996   */\n      dup7\n        /* \"#utility.yul\":13946:14017   */\n      tag_269\n      jump\t// in\n    tag_400:\n        /* \"#utility.yul\":14027:14099   */\n      tag_401\n        /* \"#utility.yul\":14095:14097   */\n      0x20\n        /* \"#utility.yul\":14084:14093   */\n      dup4\n        /* \"#utility.yul\":14080:14098   */\n      add\n        /* \"#utility.yul\":14071:14077   */\n      dup6\n        /* \"#utility.yul\":14027:14099   */\n      tag_269\n      jump\t// in\n    tag_401:\n        /* \"#utility.yul\":14109:14181   */\n      tag_402\n        /* \"#utility.yul\":14177:14179   */\n      0x40\n        /* \"#utility.yul\":14166:14175   */\n      dup4\n        /* \"#utility.yul\":14162:14180   */\n      add\n        /* \"#utility.yul\":14153:14159   */\n      dup5\n        /* \"#utility.yul\":14109:14181   */\n      tag_373\n      jump\t// in\n    tag_402:\n        /* \"#utility.yul\":13900:14188   */\n      swap5\n      swap4\n      pop\n      pop\n      pop\n      pop\n      jump\t// out\n        /* \"#utility.yul\":14194:14416   */\n    tag_77:\n        /* \"#utility.yul\":14287:14291   */\n      0x00\n        /* \"#utility.yul\":14325:14327   */\n      0x20\n        /* \"#utility.yul\":14314:14323   */\n      dup3\n        /* \"#utility.yul\":14310:14328   */\n      add\n        /* \"#utility.yul\":14302:14328   */\n      swap1\n      pop\n        /* \"#utility.yul\":14338:14409   */\n      tag_404\n        /* \"#utility.yul\":14406:14407   */\n      0x00\n        /* \"#utility.yul\":14395:14404   */\n      dup4\n        /* \"#utility.yul\":14391:14408   */\n      add\n        /* \"#utility.yul\":14382:14388   */\n      dup5\n        /* \"#utility.yul\":14338:14409   */\n      tag_278\n      jump\t// in\n    tag_404:\n        /* \"#utility.yul\":14292:14416   */\n      swap3\n      swap2\n      pop\n      pop\n      jump\t// out\n        /* \"#utility.yul\":14422:15671   */\n    tag_20:\n        /* \"#utility.yul\":14782:14786   */\n      0x00\n        /* \"#utility.yul\":14820:14823   */\n      0x0140\n        /* \"#utility.yul\":14809:14818   */\n      dup3\n        /* \"#utility.yul\":14805:14824   */\n      add\n        /* \"#utility.yul\":14797:14824   */\n      swap1\n      pop\n        /* \"#utility.yul\":14834:14905   */\n      tag_406\n        /* \"#utility.yul\":14902:14903   */\n      0x00\n        /* \"#utility.yul\":14891:14900   */\n      dup4\n        /* \"#utility.yul\":14887:14904   */\n      add\n        /* \"#utility.yul\":14878:14884   */\n      dup14\n        /* \"#utility.yul\":14834:14905   */\n      tag_278\n      jump\t// in\n    tag_406:\n        /* \"#utility.yul\":14915:14987   */\n      tag_407\n        /* \"#utility.yul\":14983:14985   */\n      0x20\n        /* \"#utility.yul\":14972:14981   */\n      dup4\n        /* \"#utility.yul\":14968:14986   */\n      add\n        /* \"#utility.yul\":14959:14965   */\n      dup13\n        /* \"#utility.yul\":14915:14987   */\n      tag_269\n      jump\t// in\n    tag_407:\n        /* \"#utility.yul\":14997:15069   */\n      tag_408\n        /* \"#utility.yul\":15065:15067   */\n      0x40\n        /* \"#utility.yul\":15054:15063   */\n      dup4\n        /* \"#utility.yul\":15050:15068   */\n      add\n        /* \"#utility.yul\":15041:15047   */\n      dup12\n        /* \"#utility.yul\":14997:15069   */\n      tag_269\n      jump\t// in\n    tag_408:\n        /* \"#utility.yul\":15079:15151   */\n      tag_409\n        /* \"#utility.yul\":15147:15149   */\n      0x60\n        /* \"#utility.yul\":15136:15145   */\n      dup4\n        /* \"#utility.yul\":15132:15150   */\n      add\n        /* \"#utility.yul\":15123:15129   */\n      dup11\n        /* \"#utility.yul\":15079:15151   */\n      tag_269\n      jump\t// in\n    tag_409:\n        /* \"#utility.yul\":15161:15234   */\n      tag_410\n        /* \"#utility.yul\":15229:15232   */\n      0x80\n        /* \"#utility.yul\":15218:15227   */\n      dup4\n        /* \"#utility.yul\":15214:15233   */\n      add\n        /* \"#utility.yul\":15205:15211   */\n      dup10\n        /* \"#utility.yul\":15161:15234   */\n      tag_373\n      jump\t// in\n    tag_410:\n        /* \"#utility.yul\":15244:15317   */\n      tag_411\n        /* \"#utility.yul\":15312:15315   */\n      0xa0\n        /* \"#utility.yul\":15301:15310   */\n      dup4\n        /* \"#utility.yul\":15297:15316   */\n      add\n        /* \"#utility.yul\":15288:15294   */\n      dup9\n        /* \"#utility.yul\":15244:15317   */\n      tag_373\n      jump\t// in\n    tag_411:\n        /* \"#utility.yul\":15327:15400   */\n      tag_412\n        /* \"#utility.yul\":15395:15398   */\n      0xc0\n        /* \"#utility.yul\":15384:15393   */\n      dup4\n        /* \"#utility.yul\":15380:15399   */\n      add\n        /* \"#utility.yul\":15371:15377   */\n      dup8\n        /* \"#utility.yul\":15327:15400   */\n      tag_373\n      jump\t// in\n    tag_412:\n        /* \"#utility.yul\":15410:15483   */\n      tag_413\n        /* \"#utility.yul\":15478:15481   */\n      0xe0\n        /* \"#utility.yul\":15467:15476   */\n      dup4\n        /* \"#utility.yul\":15463:15482   */\n      add\n        /* \"#utility.yul\":15454:15460   */\n      dup7\n        /* \"#utility.yul\":15410:15483   */\n      tag_373\n      jump\t// in\n    tag_413:\n        /* \"#utility.yul\":15493:15566   */\n      tag_414\n        /* \"#utility.yul\":15561:15564   */\n      0x0100\n        /* \"#utility.yul\":15550:15559   */\n      dup4\n        /* \"#utility.yul\":15546:15565   */\n      add\n        /* \"#utility.yul\":15537:15543   */\n      dup6\n        /* \"#utility.yul\":15493:15566   */\n      tag_373\n      jump\t// in\n    tag_414:\n        /* \"#utility.yul\":15576:15664   */\n      tag_415\n        /* \"#utility.yul\":15659:15662   */\n      0x0120\n        /* \"#utility.yul\":15648:15657   */\n      dup4\n        /* \"#utility.yul\":15644:15663   */\n      add\n        /* \"#utility.yul\":15635:15641   */\n      dup5\n        /* \"#utility.yul\":15576:15664   */\n      tag_287\n      jump\t// in\n    tag_415:\n        /* \"#utility.yul\":14787:15671   */\n      swap12\n      swap11\n      pop\n      pop\n      pop\n      pop\n      pop\n      pop\n      pop\n      pop\n      pop\n      pop\n      pop\n      jump\t// out\n        /* \"#utility.yul\":15677:16222   */\n    tag_193:\n        /* \"#utility.yul\":15850:15854   */\n      0x00\n        /* \"#utility.yul\":15888:15891   */\n      0x80\n        /* \"#utility.yul\":15877:15886   */\n      dup3\n        /* \"#utility.yul\":15873:15892   */\n      add\n        /* \"#utility.yul\":15865:15892   */\n      swap1\n      pop\n        /* \"#utility.yul\":15902:15973   */\n      tag_417\n        /* \"#utility.yul\":15970:15971   */\n      0x00\n        /* \"#utility.yul\":15959:15968   */\n      dup4\n        /* \"#utility.yul\":15955:15972   */\n      add\n        /* \"#utility.yul\":15946:15952   */\n      dup8\n        /* \"#utility.yul\":15902:15973   */\n      tag_278\n      jump\t// in\n    tag_417:\n        /* \"#utility.yul\":15983:16051   */\n      tag_418\n        /* \"#utility.yul\":16047:16049   */\n      0x20\n        /* \"#utility.yul\":16036:16045   */\n      dup4\n        /* \"#utility.yul\":16032:16050   */\n      add\n        /* \"#utility.yul\":16023:16029   */\n      dup7\n        /* \"#utility.yul\":15983:16051   */\n      tag_382\n      jump\t// in\n    tag_418:\n        /* \"#utility.yul\":16061:16133   */\n      tag_419\n        /* \"#utility.yul\":16129:16131   */\n      0x40\n        /* \"#utility.yul\":16118:16127   */\n      dup4\n        /* \"#utility.yul\":16114:16132   */\n      add\n        /* \"#utility.yul\":16105:16111   */\n      dup6\n        /* \"#utility.yul\":16061:16133   */\n      tag_278\n      jump\t// in\n    tag_419:\n        /* \"#utility.yul\":16143:16215   */\n      tag_420\n        /* \"#utility.yul\":16211:16213   */\n      0x60\n        /* \"#utility.yul\":16200:16209   */\n      dup4\n        /* \"#utility.yul\":16196:16214   */\n      add\n        /* \"#utility.yul\":16187:16193   */\n      dup5\n        /* \"#utility.yul\":16143:16215   */\n      tag_278\n      jump\t// in\n    tag_420:\n        /* \"#utility.yul\":15855:16222   */\n      swap6\n      swap5\n      pop\n      pop\n      pop\n      pop\n      pop\n      jump\t// out\n        /* \"#utility.yul\":16228:16647   */\n    tag_163:\n        /* \"#utility.yul\":16394:16398   */\n      0x00\n        /* \"#utility.yul\":16432:16434   */\n      0x20\n        /* \"#utility.yul\":16421:16430   */\n      dup3\n        /* \"#utility.yul\":16417:16435   */\n      add\n        /* \"#utility.yul\":16409:16435   */\n      swap1\n      pop\n        /* \"#utility.yul\":16481:16490   */\n      dup2\n        /* \"#utility.yul\":16475:16479   */\n      dup2\n        /* \"#utility.yul\":16471:16491   */\n      sub\n        /* \"#utility.yul\":16467:16468   */\n      0x00\n        /* \"#utility.yul\":16456:16465   */\n      dup4\n        /* \"#utility.yul\":16452:16469   */\n      add\n        /* \"#utility.yul\":16445:16492   */\n      mstore\n        /* \"#utility.yul\":16509:16640   */\n      tag_422\n        /* \"#utility.yul\":16635:16639   */\n      dup2\n        /* \"#utility.yul\":16509:16640   */\n      tag_291\n      jump\t// in\n    tag_422:\n        /* \"#utility.yul\":16501:16640   */\n      swap1\n      pop\n        /* \"#utility.yul\":16399:16647   */\n      swap2\n      swap1\n      pop\n      jump\t// out\n        /* \"#utility.yul\":16653:17072   */\n    tag_70:\n        /* \"#utility.yul\":16819:16823   */\n      0x00\n        /* \"#utility.yul\":16857:16859   */\n      0x20\n        /* \"#utility.yul\":16846:16855   */\n      dup3\n        /* \"#utility.yul\":16842:16860   */\n      add\n        /* \"#utility.yul\":16834:16860   */\n      swap1\n      pop\n        /* \"#utility.yul\":16906:16915   */\n      dup2\n        /* \"#utility.yul\":16900:16904   */\n      dup2\n        /* \"#utility.yul\":16896:16916   */\n      sub\n        /* \"#utility.yul\":16892:16893   */\n      0x00\n        /* \"#utility.yul\":16881:16890   */\n      dup4\n        /* \"#utility.yul\":16877:16894   */\n      add\n        /* \"#utility.yul\":16870:16917   */\n      mstore\n        /* \"#utility.yul\":16934:17065   */\n      tag_424\n        /* \"#utility.yul\":17060:17064   */\n      dup2\n        /* \"#utility.yul\":16934:17065   */\n      tag_297\n      jump\t// in\n    tag_424:\n        /* \"#utility.yul\":16926:17065   */\n      swap1\n      pop\n        /* \"#utility.yul\":16824:17072   */\n      swap2\n      swap1\n      pop\n      jump\t// out\n        /* \"#utility.yul\":17078:17497   */\n    tag_115:\n        /* \"#utility.yul\":17244:17248   */\n      0x00\n        /* \"#utility.yul\":17282:17284   */\n      0x20\n        /* \"#utility.yul\":17271:17280   */\n      dup3\n        /* \"#utility.yul\":17267:17285   */\n      add\n        /* \"#utility.yul\":17259:17285   */\n      swap1\n      pop\n        /* \"#utility.yul\":17331:17340   */\n      dup2\n        /* \"#utility.yul\":17325:17329   */\n      dup2\n        /* \"#utility.yul\":17321:17341   */\n      sub\n        /* \"#utility.yul\":17317:17318   */\n      0x00\n        /* \"#utility.yul\":17306:17315   */\n      dup4\n        /* \"#utility.yul\":17302:17319   */\n      add\n        /* \"#utility.yul\":17295:17342   */\n      mstore\n        /* \"#utility.yul\":17359:17490   */\n      tag_426\n        /* \"#utility.yul\":17485:17489   */\n      dup2\n        /* \"#utility.yul\":17359:17490   */\n      tag_302\n      jump\t// in\n    tag_426:\n        /* \"#utility.yul\":17351:17490   */\n      swap1\n      pop\n        /* \"#utility.yul\":17249:17497   */\n      swap2\n      swap1\n      pop\n      jump\t// out\n        /* \"#utility.yul\":17503:17922   */\n    tag_171:\n        /* \"#utility.yul\":17669:17673   */\n      0x00\n        /* \"#utility.yul\":17707:17709   */\n      0x20\n        /* \"#utility.yul\":17696:17705   */\n      dup3\n        /* \"#utility.yul\":17692:17710   */\n      add\n        /* \"#utility.yul\":17684:17710   */\n      swap1\n      pop\n        /* \"#utility.yul\":17756:17765   */\n      dup2\n        /* \"#utility.yul\":17750:17754   */\n      dup2\n        /* \"#utility.yul\":17746:17766   */\n      sub\n        /* \"#utility.yul\":17742:17743   */\n      0x00\n        /* \"#utility.yul\":17731:17740   */\n      dup4\n        /* \"#utility.yul\":17727:17744   */\n      add\n        /* \"#utility.yul\":17720:17767   */\n      mstore\n        /* \"#utility.yul\":17784:17915   */\n      tag_428\n        /* \"#utility.yul\":17910:17914   */\n      dup2\n        /* \"#utility.yul\":17784:17915   */\n      tag_307\n      jump\t// in\n    tag_428:\n        /* \"#utility.yul\":17776:17915   */\n      swap1\n      pop\n        /* \"#utility.yul\":17674:17922   */\n      swap2\n      swap1\n      pop\n      jump\t// out\n        /* \"#utility.yul\":17928:18347   */\n    tag_84:\n        /* \"#utility.yul\":18094:18098   */\n      0x00\n        /* \"#utility.yul\":18132:18134   */\n      0x20\n        /* \"#utility.yul\":18121:18130   */\n      dup3\n        /* \"#utility.yul\":18117:18135   */\n      add\n        /* \"#utility.yul\":18109:18135   */\n      swap1\n      pop\n        /* \"#utility.yul\":18181:18190   */\n      dup2\n        /* \"#utility.yul\":18175:18179   */\n      dup2\n        /* \"#utility.yul\":18171:18191   */\n      sub\n        /* \"#utility.yul\":18167:18168   */\n      0x00\n        /* \"#utility.yul\":18156:18165   */\n      dup4\n        /* \"#utility.yul\":18152:18169   */\n      add\n        /* \"#utility.yul\":18145:18192   */\n      mstore\n        /* \"#utility.yul\":18209:18340   */\n      tag_430\n        /* \"#utility.yul\":18335:18339   */\n      dup2\n        /* \"#utility.yul\":18209:18340   */\n      tag_318\n      jump\t// in\n    tag_430:\n        /* \"#utility.yul\":18201:18340   */\n      swap1\n      pop\n        /* \"#utility.yul\":18099:18347   */\n      swap2\n      swap1\n      pop\n      jump\t// out\n        /* \"#utility.yul\":18353:18772   */\n    tag_42:\n        /* \"#utility.yul\":18519:18523   */\n      0x00\n        /* \"#utility.yul\":18557:18559   */\n      0x20\n        /* \"#utility.yul\":18546:18555   */\n      dup3\n        /* \"#utility.yul\":18542:18560   */\n      add\n        /* \"#utility.yul\":18534:18560   */\n      swap1\n      pop\n        /* \"#utility.yul\":18606:18615   */\n      dup2\n        /* \"#utility.yul\":18600:18604   */\n      dup2\n        /* \"#utility.yul\":18596:18616   */\n      sub\n        /* \"#utility.yul\":18592:18593   */\n      0x00\n        /* \"#utility.yul\":18581:18590   */\n      dup4\n        /* \"#utility.yul\":18577:18594   */\n      add\n        /* \"#utility.yul\":18570:18617   */\n      mstore\n        /* \"#utility.yul\":18634:18765   */\n      tag_432\n        /* \"#utility.yul\":18760:18764   */\n      dup2\n        /* \"#utility.yul\":18634:18765   */\n      tag_323\n      jump\t// in\n    tag_432:\n        /* \"#utility.yul\":18626:18765   */\n      swap1\n      pop\n        /* \"#utility.yul\":18524:18772   */\n      swap2\n      swap1\n      pop\n      jump\t// out\n        /* \"#utility.yul\":18778:19197   */\n    tag_28:\n        /* \"#utility.yul\":18944:18948   */\n      0x00\n        /* \"#utility.yul\":18982:18984   */\n      0x20\n        /* \"#utility.yul\":18971:18980   */\n      dup3\n        /* \"#utility.yul\":18967:18985   */\n      add\n        /* \"#utility.yul\":18959:18985   */\n      swap1\n      pop\n        /* \"#utility.yul\":19031:19040   */\n      dup2\n        /* \"#utility.yul\":19025:19029   */\n      dup2\n        /* \"#utility.yul\":19021:19041   */\n      sub\n        /* \"#utility.yul\":19017:19018   */\n      0x00\n        /* \"#utility.yul\":19006:19015   */\n      dup4\n        /* \"#utility.yul\":19002:19019   */\n      add\n        /* \"#utility.yul\":18995:19042   */\n      mstore\n        /* \"#utility.yul\":19059:19190   */\n      tag_434\n        /* \"#utility.yul\":19185:19189   */\n      dup2\n        /* \"#utility.yul\":19059:19190   */\n      tag_328\n      jump\t// in\n    tag_434:\n        /* \"#utility.yul\":19051:19190   */\n      swap1\n      pop\n        /* \"#utility.yul\":18949:19197   */\n      swap2\n      swap1\n      pop\n      jump\t// out\n        /* \"#utility.yul\":19203:19622   */\n    tag_179:\n        /* \"#utility.yul\":19369:19373   */\n      0x00\n        /* \"#utility.yul\":19407:19409   */\n      0x20\n        /* \"#utility.yul\":19396:19405   */\n      dup3\n        /* \"#utility.yul\":19392:19410   */\n      add\n        /* \"#utility.yul\":19384:19410   */\n      swap1\n      pop\n        /* \"#utility.yul\":19456:19465   */\n      dup2\n        /* \"#utility.yul\":19450:19454   */\n      dup2\n        /* \"#utility.yul\":19446:19466   */\n      sub\n        /* \"#utility.yul\":19442:19443   */\n      0x00\n        /* \"#utility.yul\":19431:19440   */\n      dup4\n        /* \"#utility.yul\":19427:19444   */\n      add\n        /* \"#utility.yul\":19420:19467   */\n      mstore\n        /* \"#utility.yul\":19484:19615   */\n      tag_436\n        /* \"#utility.yul\":19610:19614   */\n      dup2\n        /* \"#utility.yul\":19484:19615   */\n      tag_333\n      jump\t// in\n    tag_436:\n        /* \"#utility.yul\":19476:19615   */\n      swap1\n      pop\n        /* \"#utility.yul\":19374:19622   */\n      swap2\n      swap1\n      pop\n      jump\t// out\n        /* \"#utility.yul\":19628:20047   */\n    tag_81:\n        /* \"#utility.yul\":19794:19798   */\n      0x00\n        /* \"#utility.yul\":19832:19834   */\n      0x20\n        /* \"#utility.yul\":19821:19830   */\n      dup3\n        /* \"#utility.yul\":19817:19835   */\n      add\n        /* \"#utility.yul\":19809:19835   */\n      swap1\n      pop\n        /* \"#utility.yul\":19881:19890   */\n      dup2\n        /* \"#utility.yul\":19875:19879   */\n      dup2\n        /* \"#utility.yul\":19871:19891   */\n      sub\n        /* \"#utility.yul\":19867:19868   */\n      0x00\n        /* \"#utility.yul\":19856:19865   */\n      dup4\n        /* \"#utility.yul\":19852:19869   */\n      add\n        /* \"#utility.yul\":19845:19892   */\n      mstore\n        /* \"#utility.yul\":19909:20040   */\n      tag_438\n        /* \"#utility.yul\":20035:20039   */\n      dup2\n        /* \"#utility.yul\":19909:20040   */\n      tag_338\n      jump\t// in\n    tag_438:\n        /* \"#utility.yul\":19901:20040   */\n      swap1\n      pop\n        /* \"#utility.yul\":19799:20047   */\n      swap2\n      swap1\n      pop\n      jump\t// out\n        /* \"#utility.yul\":20053:20472   */\n    tag_187:\n        /* \"#utility.yul\":20219:20223   */\n      0x00\n        /* \"#utility.yul\":20257:20259   */\n      0x20\n        /* \"#utility.yul\":20246:20255   */\n      dup3\n        /* \"#utility.yul\":20242:20260   */\n      add\n        /* \"#utility.yul\":20234:20260   */\n      swap1\n      pop\n        /* \"#utility.yul\":20306:20315   */\n      dup2\n        /* \"#utility.yul\":20300:20304   */\n      dup2\n        /* \"#utility.yul\":20296:20316   */\n      sub\n        /* \"#utility.yul\":20292:20293   */\n      0x00\n        /* \"#utility.yul\":20281:20290   */\n      dup4\n        /* \"#utility.yul\":20277:20294   */\n      add\n        /* \"#utility.yul\":20270:20317   */\n      mstore\n        /* \"#utility.yul\":20334:20465   */\n      tag_440\n        /* \"#utility.yul\":20460:20464   */\n      dup2\n        /* \"#utility.yul\":20334:20465   */\n      tag_343\n      jump\t// in\n    tag_440:\n        /* \"#utility.yul\":20326:20465   */\n      swap1\n      pop\n        /* \"#utility.yul\":20224:20472   */\n      swap2\n      swap1\n      pop\n      jump\t// out\n        /* \"#utility.yul\":20478:20897   */\n    tag_104:\n        /* \"#utility.yul\":20644:20648   */\n      0x00\n        /* \"#utility.yul\":20682:20684   */\n      0x20\n        /* \"#utility.yul\":20671:20680   */\n      dup3\n        /* \"#utility.yul\":20667:20685   */\n      add\n        /* \"#utility.yul\":20659:20685   */\n      swap1\n      pop\n        /* \"#utility.yul\":20731:20740   */\n      dup2\n        /* \"#utility.yul\":20725:20729   */\n      dup2\n        /* \"#utility.yul\":20721:20741   */\n      sub\n        /* \"#utility.yul\":20717:20718   */\n      0x00\n        /* \"#utility.yul\":20706:20715   */\n      dup4\n        /* \"#utility.yul\":20702:20719   */\n      add\n        /* \"#utility.yul\":20695:20742   */\n      mstore\n        /* \"#utility.yul\":20759:20890   */\n      tag_442\n        /* \"#utility.yul\":20885:20889   */\n      dup2\n        /* \"#utility.yul\":20759:20890   */\n      tag_348\n      jump\t// in\n    tag_442:\n        /* \"#utility.yul\":20751:20890   */\n      swap1\n      pop\n        /* \"#utility.yul\":20649:20897   */\n      swap2\n      swap1\n      pop\n      jump\t// out\n        /* \"#utility.yul\":20903:21322   */\n    tag_37:\n        /* \"#utility.yul\":21069:21073   */\n      0x00\n        /* \"#utility.yul\":21107:21109   */\n      0x20\n        /* \"#utility.yul\":21096:21105   */\n      dup3\n        /* \"#utility.yul\":21092:21110   */\n      add\n        /* \"#utility.yul\":21084:21110   */\n      swap1\n      pop\n        /* \"#utility.yul\":21156:21165   */\n      dup2\n        /* \"#utility.yul\":21150:21154   */\n      dup2\n        /* \"#utility.yul\":21146:21166   */\n      sub\n        /* \"#utility.yul\":21142:21143   */\n      0x00\n        /* \"#utility.yul\":21131:21140   */\n      dup4\n        /* \"#utility.yul\":21127:21144   */\n      add\n        /* \"#utility.yul\":21120:21167   */\n      mstore\n        /* \"#utility.yul\":21184:21315   */\n      tag_444\n        /* \"#utility.yul\":21310:21314   */\n      dup2\n        /* \"#utility.yul\":21184:21315   */\n      tag_353\n      jump\t// in\n    tag_444:\n        /* \"#utility.yul\":21176:21315   */\n      swap1\n      pop\n        /* \"#utility.yul\":21074:21322   */\n      swap2\n      swap1\n      pop\n      jump\t// out\n        /* \"#utility.yul\":21328:21747   */\n    tag_108:\n        /* \"#utility.yul\":21494:21498   */\n      0x00\n        /* \"#utility.yul\":21532:21534   */\n      0x20\n        /* \"#utility.yul\":21521:21530   */\n      dup3\n        /* \"#utility.yul\":21517:21535   */\n      add\n        /* \"#utility.yul\":21509:21535   */\n      swap1\n      pop\n        /* \"#utility.yul\":21581:21590   */\n      dup2\n        /* \"#utility.yul\":21575:21579   */\n      dup2\n        /* \"#utility.yul\":21571:21591   */\n      sub\n        /* \"#utility.yul\":21567:21568   */\n      0x00\n        /* \"#utility.yul\":21556:21565   */\n      dup4\n        /* \"#utility.yul\":21552:21569   */\n      add\n        /* \"#utility.yul\":21545:21592   */\n      mstore\n        /* \"#utility.yul\":21609:21740   */\n      tag_446\n        /* \"#utility.yul\":21735:21739   */\n      dup2\n        /* \"#utility.yul\":21609:21740   */\n      tag_358\n      jump\t// in\n    tag_446:\n        /* \"#utility.yul\":21601:21740   */\n      swap1\n      pop\n        /* \"#utility.yul\":21499:21747   */\n      swap2\n      swap1\n      pop\n      jump\t// out\n        /* \"#utility.yul\":21753:22172   */\n    tag_73:\n        /* \"#utility.yul\":21919:21923   */\n      0x00\n        /* \"#utility.yul\":21957:21959   */\n      0x20\n        /* \"#utility.yul\":21946:21955   */\n      dup3\n        /* \"#utility.yul\":21942:21960   */\n      add\n        /* \"#utility.yul\":21934:21960   */\n      swap1\n      pop\n        /* \"#utility.yul\":22006:22015   */\n      dup2\n        /* \"#utility.yul\":22000:22004   */\n      dup2\n        /* \"#utility.yul\":21996:22016   */\n      sub\n        /* \"#utility.yul\":21992:21993   */\n      0x00\n        /* \"#utility.yul\":21981:21990   */\n      dup4\n        /* \"#utility.yul\":21977:21994   */\n      add\n        /* \"#utility.yul\":21970:22017   */\n      mstore\n        /* \"#utility.yul\":22034:22165   */\n      tag_448\n        /* \"#utility.yul\":22160:22164   */\n      dup2\n        /* \"#utility.yul\":22034:22165   */\n      tag_363\n      jump\t// in\n    tag_448:\n        /* \"#utility.yul\":22026:22165   */\n      swap1\n      pop\n        /* \"#utility.yul\":21924:22172   */\n      swap2\n      swap1\n      pop\n      jump\t// out\n        /* \"#utility.yul\":22178:22597   */\n    tag_67:\n        /* \"#utility.yul\":22344:22348   */\n      0x00\n        /* \"#utility.yul\":22382:22384   */\n      0x20\n        /* \"#utility.yul\":22371:22380   */\n      dup3\n        /* \"#utility.yul\":22367:22385   */\n      add\n        /* \"#utility.yul\":22359:22385   */\n      swap1\n      pop\n        /* \"#utility.yul\":22431:22440   */\n      dup2\n        /* \"#utility.yul\":22425:22429   */\n      dup2\n        /* \"#utility.yul\":22421:22441   */\n      sub\n        /* \"#utility.yul\":22417:22418   */\n      0x00\n        /* \"#utility.yul\":22406:22415   */\n      dup4\n        /* \"#utility.yul\":22402:22419   */\n      add\n        /* \"#utility.yul\":22395:22442   */\n      mstore\n        /* \"#utility.yul\":22459:22590   */\n      tag_450\n        /* \"#utility.yul\":22585:22589   */\n      dup2\n        /* \"#utility.yul\":22459:22590   */\n      tag_368\n      jump\t// in\n    tag_450:\n        /* \"#utility.yul\":22451:22590   */\n      swap1\n      pop\n        /* \"#utility.yul\":22349:22597   */\n      swap2\n      swap1\n      pop\n      jump\t// out\n        /* \"#utility.yul\":22603:22732   */\n    tag_206:\n        /* \"#utility.yul\":22637:22643   */\n      0x00\n        /* \"#utility.yul\":22664:22684   */\n      tag_452\n      tag_453\n      jump\t// in\n    tag_452:\n        /* \"#utility.yul\":22654:22684   */\n      swap1\n      pop\n        /* \"#utility.yul\":22693:22726   */\n      tag_454\n        /* \"#utility.yul\":22721:22725   */\n      dup3\n        /* \"#utility.yul\":22713:22719   */\n      dup3\n        /* \"#utility.yul\":22693:22726   */\n      tag_455\n      jump\t// in\n    tag_454:\n        /* \"#utility.yul\":22644:22732   */\n      swap2\n      swap1\n      pop\n      jump\t// out\n        /* \"#utility.yul\":22738:22813   */\n    tag_453:\n        /* \"#utility.yul\":22771:22777   */\n      0x00\n        /* \"#utility.yul\":22804:22806   */\n      0x40\n        /* \"#utility.yul\":22798:22807   */\n      mload\n        /* \"#utility.yul\":22788:22807   */\n      swap1\n      pop\n        /* \"#utility.yul\":22778:22813   */\n      swap1\n      jump\t// out\n        /* \"#utility.yul\":22819:23126   */\n    tag_205:\n        /* \"#utility.yul\":22880:22884   */\n      0x00\n        /* \"#utility.yul\":22970:22988   */\n      0xffffffffffffffff\n        /* \"#utility.yul\":22962:22968   */\n      dup3\n        /* \"#utility.yul\":22959:22989   */\n      gt\n        /* \"#utility.yul\":22956:22958   */\n      iszero\n      tag_458\n      jumpi\n        /* \"#utility.yul\":22992:23010   */\n      tag_459\n      tag_460\n      jump\t// in\n    tag_459:\n        /* \"#utility.yul\":22956:22958   */\n    tag_458:\n        /* \"#utility.yul\":23030:23059   */\n      tag_461\n        /* \"#utility.yul\":23052:23058   */\n      dup3\n        /* \"#utility.yul\":23030:23059   */\n      tag_462\n      jump\t// in\n    tag_461:\n        /* \"#utility.yul\":23022:23059   */\n      swap1\n      pop\n        /* \"#utility.yul\":23114:23118   */\n      0x20\n        /* \"#utility.yul\":23108:23112   */\n      dup2\n        /* \"#utility.yul\":23104:23119   */\n      add\n        /* \"#utility.yul\":23096:23119   */\n      swap1\n      pop\n        /* \"#utility.yul\":22885:23126   */\n      swap2\n      swap1\n      pop\n      jump\t// out\n        /* \"#utility.yul\":23132:23301   */\n    tag_294:\n        /* \"#utility.yul\":23216:23227   */\n      0x00\n        /* \"#utility.yul\":23250:23256   */\n      dup3\n        /* \"#utility.yul\":23245:23248   */\n      dup3\n        /* \"#utility.yul\":23238:23257   */\n      mstore\n        /* \"#utility.yul\":23290:23294   */\n      0x20\n        /* \"#utility.yul\":23285:23288   */\n      dup3\n        /* \"#utility.yul\":23281:23295   */\n      add\n        /* \"#utility.yul\":23266:23295   */\n      swap1\n      pop\n        /* \"#utility.yul\":23228:23301   */\n      swap3\n      swap2\n      pop\n      pop\n      jump\t// out\n        /* \"#utility.yul\":23307:23455   */\n    tag_315:\n        /* \"#utility.yul\":23409:23420   */\n      0x00\n        /* \"#utility.yul\":23446:23449   */\n      dup2\n        /* \"#utility.yul\":23431:23449   */\n      swap1\n      pop\n        /* \"#utility.yul\":23421:23455   */\n      swap3\n      swap2\n      pop\n      pop\n      jump\t// out\n        /* \"#utility.yul\":23461:23766   */\n    tag_111:\n        /* \"#utility.yul\":23501:23504   */\n      0x00\n        /* \"#utility.yul\":23520:23540   */\n      tag_466\n        /* \"#utility.yul\":23538:23539   */\n      dup3\n        /* \"#utility.yul\":23520:23540   */\n      tag_376\n      jump\t// in\n    tag_466:\n        /* \"#utility.yul\":23515:23540   */\n      swap2\n      pop\n        /* \"#utility.yul\":23554:23574   */\n      tag_467\n        /* \"#utility.yul\":23572:23573   */\n      dup4\n        /* \"#utility.yul\":23554:23574   */\n      tag_376\n      jump\t// in\n    tag_467:\n        /* \"#utility.yul\":23549:23574   */\n      swap3\n      pop\n        /* \"#utility.yul\":23708:23709   */\n      dup3\n        /* \"#utility.yul\":23640:23706   */\n      0xffffffffffffffffffffffffffffffffffffffffffffffffffffffffffffffff\n        /* \"#utility.yul\":23636:23710   */\n      sub\n        /* \"#utility.yul\":23633:23634   */\n      dup3\n        /* \"#utility.yul\":23630:23711   */\n      gt\n        /* \"#utility.yul\":23627:23629   */\n      iszero\n      tag_468\n      jumpi\n        /* \"#utility.yul\":23714:23732   */\n      tag_469\n      tag_470\n      jump\t// in\n    tag_469:\n        /* \"#utility.yul\":23627:23629   */\n    tag_468:\n        /* \"#utility.yul\":23758:23759   */\n      dup3\n        /* \"#utility.yul\":23755:23756   */\n      dup3\n        /* \"#utility.yul\":23751:23760   */\n      add\n        /* \"#utility.yul\":23744:23760   */\n      swap1\n      pop\n        /* \"#utility.yul\":23505:23766   */\n      swap3\n      swap2\n      pop\n      pop\n      jump\t// out\n        /* \"#utility.yul\":23772:23868   */\n    tag_272:\n        /* \"#utility.yul\":23809:23816   */\n      0x00\n        /* \"#utility.yul\":23838:23862   */\n      tag_472\n        /* \"#utility.yul\":23856:23861   */\n      dup3\n        /* \"#utility.yul\":23838:23862   */\n      tag_473\n      jump\t// in\n    tag_472:\n        /* \"#utility.yul\":23827:23862   */\n      swap1\n      pop\n        /* \"#utility.yul\":23817:23868   */\n      swap2\n      swap1\n      pop\n      jump\t// out\n        /* \"#utility.yul\":23874:23964   */\n    tag_474:\n        /* \"#utility.yul\":23908:23915   */\n      0x00\n        /* \"#utility.yul\":23951:23956   */\n      dup2\n        /* \"#utility.yul\":23944:23957   */\n      iszero\n        /* \"#utility.yul\":23937:23958   */\n      iszero\n        /* \"#utility.yul\":23926:23958   */\n      swap1\n      pop\n        /* \"#utility.yul\":23916:23964   */\n      swap2\n      swap1\n      pop\n      jump\t// out\n        /* \"#utility.yul\":23970:24047   */\n    tag_281:\n        /* \"#utility.yul\":24007:24014   */\n      0x00\n        /* \"#utility.yul\":24036:24041   */\n      dup2\n        /* \"#utility.yul\":24025:24041   */\n      swap1\n      pop\n        /* \"#utility.yul\":24015:24047   */\n      swap2\n      swap1\n      pop\n      jump\t// out\n        /* \"#utility.yul\":24053:24198   */\n    tag_477:\n        /* \"#utility.yul\":24107:24114   */\n      0x00\n        /* \"#utility.yul\":24136:24141   */\n      dup2\n        /* \"#utility.yul\":24125:24141   */\n      swap1\n      pop\n        /* \"#utility.yul\":24142:24192   */\n      tag_479\n        /* \"#utility.yul\":24186:24191   */\n      dup3\n        /* \"#utility.yul\":24142:24192   */\n      tag_480\n      jump\t// in\n    tag_479:\n        /* \"#utility.yul\":24115:24198   */\n      swap2\n      swap1\n      pop\n      jump\t// out\n        /* \"#utility.yul\":24204:24330   */\n    tag_473:\n        /* \"#utility.yul\":24241:24248   */\n      0x00\n        /* \"#utility.yul\":24281:24323   */\n      0xffffffffffffffffffffffffffffffffffffffff\n        /* \"#utility.yul\":24274:24279   */\n      dup3\n        /* \"#utility.yul\":24270:24324   */\n      and\n        /* \"#utility.yul\":24259:24324   */\n      swap1\n      pop\n        /* \"#utility.yul\":24249:24330   */\n      swap2\n      swap1\n      pop\n      jump\t// out\n        /* \"#utility.yul\":24336:24413   */\n    tag_376:\n        /* \"#utility.yul\":24373:24380   */\n      0x00\n        /* \"#utility.yul\":24402:24407   */\n      dup2\n        /* \"#utility.yul\":24391:24407   */\n      swap1\n      pop\n        /* \"#utility.yul\":24381:24413   */\n      swap2\n      swap1\n      pop\n      jump\t// out\n        /* \"#utility.yul\":24419:24505   */\n    tag_385:\n        /* \"#utility.yul\":24454:24461   */\n      0x00\n        /* \"#utility.yul\":24494:24498   */\n      0xff\n        /* \"#utility.yul\":24487:24492   */\n      dup3\n        /* \"#utility.yul\":24483:24499   */\n      and\n        /* \"#utility.yul\":24472:24499   */\n      swap1\n      pop\n        /* \"#utility.yul\":24462:24505   */\n      swap2\n      swap1\n      pop\n      jump\t// out\n        /* \"#utility.yul\":24511:24656   */\n    tag_290:\n        /* \"#utility.yul\":24576:24585   */\n      0x00\n        /* \"#utility.yul\":24609:24650   */\n      tag_485\n        /* \"#utility.yul\":24644:24649   */\n      dup3\n        /* \"#utility.yul\":24609:24650   */\n      tag_477\n      jump\t// in\n    tag_485:\n        /* \"#utility.yul\":24596:24650   */\n      swap1\n      pop\n        /* \"#utility.yul\":24586:24656   */\n      swap2\n      swap1\n      pop\n      jump\t// out\n        /* \"#utility.yul\":24662:24816   */\n    tag_211:\n        /* \"#utility.yul\":24746:24752   */\n      dup3\n        /* \"#utility.yul\":24741:24744   */\n      dup2\n        /* \"#utility.yul\":24736:24739   */\n      dup4\n        /* \"#utility.yul\":24723:24753   */\n      calldatacopy\n        /* \"#utility.yul\":24808:24809   */\n      0x00\n        /* \"#utility.yul\":24799:24805   */\n      dup4\n        /* \"#utility.yul\":24794:24797   */\n      dup4\n        /* \"#utility.yul\":24790:24806   */\n      add\n        /* \"#utility.yul\":24783:24810   */\n      mstore\n        /* \"#utility.yul\":24713:24816   */\n      pop\n      pop\n      pop\n      jump\t// out\n        /* \"#utility.yul\":24822:25103   */\n    tag_455:\n        /* \"#utility.yul\":24905:24932   */\n      tag_488\n        /* \"#utility.yul\":24927:24931   */\n      dup3\n        /* \"#utility.yul\":24905:24932   */\n      tag_462\n      jump\t// in\n    tag_488:\n        /* \"#utility.yul\":24897:24903   */\n      dup2\n        /* \"#utility.yul\":24893:24933   */\n      add\n        /* \"#utility.yul\":25035:25041   */\n      dup2\n        /* \"#utility.yul\":25023:25033   */\n      dup2\n        /* \"#utility.yul\":25020:25042   */\n      lt\n        /* \"#utility.yul\":24999:25017   */\n      0xffffffffffffffff\n        /* \"#utility.yul\":24987:24997   */\n      dup3\n        /* \"#utility.yul\":24984:25018   */\n      gt\n        /* \"#utility.yul\":24981:25043   */\n      or\n        /* \"#utility.yul\":24978:24980   */\n      iszero\n      tag_489\n      jumpi\n        /* \"#utility.yul\":25046:25064   */\n      tag_490\n      tag_460\n      jump\t// in\n    tag_490:\n        /* \"#utility.yul\":24978:24980   */\n    tag_489:\n        /* \"#utility.yul\":25086:25096   */\n      dup1\n        /* \"#utility.yul\":25082:25084   */\n      0x40\n        /* \"#utility.yul\":25075:25097   */\n      mstore\n        /* \"#utility.yul\":24865:25103   */\n      pop\n      pop\n      pop\n      jump\t// out\n        /* \"#utility.yul\":25109:25209   */\n    tag_277:\n        /* \"#utility.yul\":25148:25155   */\n      0x00\n        /* \"#utility.yul\":25177:25203   */\n      tag_492\n        /* \"#utility.yul\":25197:25202   */\n      dup3\n        /* \"#utility.yul\":25177:25203   */\n      tag_493\n      jump\t// in\n    tag_492:\n        /* \"#utility.yul\":25166:25203   */\n      swap1\n      pop\n        /* \"#utility.yul\":25156:25209   */\n      swap2\n      swap1\n      pop\n      jump\t// out\n        /* \"#utility.yul\":25215:25294   */\n    tag_286:\n        /* \"#utility.yul\":25254:25261   */\n      0x00\n        /* \"#utility.yul\":25283:25288   */\n      dup2\n        /* \"#utility.yul\":25272:25288   */\n      swap1\n      pop\n        /* \"#utility.yul\":25262:25294   */\n      swap2\n      swap1\n      pop\n      jump\t// out\n        /* \"#utility.yul\":25300:25394   */\n    tag_493:\n        /* \"#utility.yul\":25339:25346   */\n      0x00\n        /* \"#utility.yul\":25368:25388   */\n      tag_496\n        /* \"#utility.yul\":25382:25387   */\n      dup3\n        /* \"#utility.yul\":25368:25388   */\n      tag_497\n      jump\t// in\n    tag_496:\n        /* \"#utility.yul\":25357:25388   */\n      swap1\n      pop\n        /* \"#utility.yul\":25347:25394   */\n      swap2\n      swap1\n      pop\n      jump\t// out\n        /* \"#utility.yul\":25400:25479   */\n    tag_381:\n        /* \"#utility.yul\":25439:25446   */\n      0x00\n        /* \"#utility.yul\":25468:25473   */\n      dup2\n        /* \"#utility.yul\":25457:25473   */\n      swap1\n      pop\n        /* \"#utility.yul\":25447:25479   */\n      swap2\n      swap1\n      pop\n      jump\t// out\n        /* \"#utility.yul\":25485:25665   */\n    tag_470:\n        /* \"#utility.yul\":25533:25610   */\n      0x4e487b7100000000000000000000000000000000000000000000000000000000\n        /* \"#utility.yul\":25530:25531   */\n      0x00\n        /* \"#utility.yul\":25523:25611   */\n      mstore\n        /* \"#utility.yul\":25630:25634   */\n      0x11\n        /* \"#utility.yul\":25627:25628   */\n      0x04\n        /* \"#utility.yul\":25620:25635   */\n      mstore\n        /* \"#utility.yul\":25654:25658   */\n      0x24\n        /* \"#utility.yul\":25651:25652   */\n      0x00\n        /* \"#utility.yul\":25644:25659   */\n      revert\n        /* \"#utility.yul\":25671:25851   */\n    tag_32:\n        /* \"#utility.yul\":25719:25796   */\n      0x4e487b7100000000000000000000000000000000000000000000000000000000\n        /* \"#utility.yul\":25716:25717   */\n      0x00\n        /* \"#utility.yul\":25709:25797   */\n      mstore\n        /* \"#utility.yul\":25816:25820   */\n      0x21\n        /* \"#utility.yul\":25813:25814   */\n      0x04\n        /* \"#utility.yul\":25806:25821   */\n      mstore\n        /* \"#utility.yul\":25840:25844   */\n      0x24\n        /* \"#utility.yul\":25837:25838   */\n      0x00\n        /* \"#utility.yul\":25830:25845   */\n      revert\n        /* \"#utility.yul\":25857:26037   */\n    tag_460:\n        /* \"#utility.yul\":25905:25982   */\n      0x4e487b7100000000000000000000000000000000000000000000000000000000\n        /* \"#utility.yul\":25902:25903   */\n      0x00\n        /* \"#utility.yul\":25895:25983   */\n      mstore\n        /* \"#utility.yul\":26002:26006   */\n      0x41\n        /* \"#utility.yul\":25999:26000   */\n      0x04\n        /* \"#utility.yul\":25992:26007   */\n      mstore\n        /* \"#utility.yul\":26026:26030   */\n      0x24\n        /* \"#utility.yul\":26023:26024   */\n      0x00\n        /* \"#utility.yul\":26016:26031   */\n      revert\n        /* \"#utility.yul\":26043:26160   */\n    tag_228:\n        /* \"#utility.yul\":26152:26153   */\n      0x00\n        /* \"#utility.yul\":26149:26150   */\n      dup1\n        /* \"#utility.yul\":26142:26154   */\n      revert\n        /* \"#utility.yul\":26166:26283   */\n    tag_209:\n        /* \"#utility.yul\":26275:26276   */\n      0x00\n        /* \"#utility.yul\":26272:26273   */\n      dup1\n        /* \"#utility.yul\":26265:26277   */\n      revert\n        /* \"#utility.yul\":26289:26406   */\n    tag_264:\n        /* \"#utility.yul\":26398:26399   */\n      0x00\n        /* \"#utility.yul\":26395:26396   */\n      dup1\n        /* \"#utility.yul\":26388:26400   */\n      revert\n        /* \"#utility.yul\":26412:26529   */\n    tag_237:\n        /* \"#utility.yul\":26521:26522   */\n      0x00\n        /* \"#utility.yul\":26518:26519   */\n      dup1\n        /* \"#utility.yul\":26511:26523   */\n      revert\n        /* \"#utility.yul\":26535:26637   */\n    tag_462:\n        /* \"#utility.yul\":26576:26582   */\n      0x00\n        /* \"#utility.yul\":26627:26629   */\n      0x1f\n        /* \"#utility.yul\":26623:26630   */\n      not\n        /* \"#utility.yul\":26618:26620   */\n      0x1f\n        /* \"#utility.yul\":26611:26616   */\n      dup4\n        /* \"#utility.yul\":26607:26621   */\n      add\n        /* \"#utility.yul\":26603:26631   */\n      and\n        /* \"#utility.yul\":26593:26631   */\n      swap1\n      pop\n        /* \"#utility.yul\":26583:26637   */\n      swap2\n      swap1\n      pop\n      jump\t// out\n        /* \"#utility.yul\":26643:26737   */\n    tag_497:\n        /* \"#utility.yul\":26676:26684   */\n      0x00\n        /* \"#utility.yul\":26724:26729   */\n      dup2\n        /* \"#utility.yul\":26720:26722   */\n      0x60\n        /* \"#utility.yul\":26716:26730   */\n      shl\n        /* \"#utility.yul\":26695:26730   */\n      swap1\n      pop\n        /* \"#utility.yul\":26685:26737   */\n      swap2\n      swap1\n      pop\n      jump\t// out\n        /* \"#utility.yul\":26743:26917   */\n    tag_296:\n        /* \"#utility.yul\":26883:26909   */\n      0x45434453413a20696e76616c6964207369676e61747572650000000000000000\n        /* \"#utility.yul\":26879:26880   */\n      0x00\n        /* \"#utility.yul\":26871:26877   */\n      dup3\n        /* \"#utility.yul\":26867:26881   */\n      add\n        /* \"#utility.yul\":26860:26910   */\n      mstore\n        /* \"#utility.yul\":26849:26917   */\n      pop\n      jump\t// out\n        /* \"#utility.yul\":26923:27147   */\n    tag_301:\n        /* \"#utility.yul\":27063:27097   */\n      0x596f752063616e6e6f74206a6f696e20746f20746865206368616e6e656c2074\n        /* \"#utility.yul\":27059:27060   */\n      0x00\n        /* \"#utility.yul\":27051:27057   */\n      dup3\n        /* \"#utility.yul\":27047:27061   */\n      add\n        /* \"#utility.yul\":27040:27098   */\n      mstore\n        /* \"#utility.yul\":27132:27139   */\n      0x776963652e000000000000000000000000000000000000000000000000000000\n        /* \"#utility.yul\":27127:27129   */\n      0x20\n        /* \"#utility.yul\":27119:27125   */\n      dup3\n        /* \"#utility.yul\":27115:27130   */\n      add\n        /* \"#utility.yul\":27108:27140   */\n      mstore\n        /* \"#utility.yul\":27029:27147   */\n      pop\n      jump\t// out\n        /* \"#utility.yul\":27153:27400   */\n    tag_306:\n        /* \"#utility.yul\":27293:27327   */\n      0x546865206c6177206f6620636f6e736572766174696f6e206f6620746f74616c\n        /* \"#utility.yul\":27289:27290   */\n      0x00\n        /* \"#utility.yul\":27281:27287   */\n      dup3\n        /* \"#utility.yul\":27277:27291   */\n      add\n        /* \"#utility.yul\":27270:27328   */\n      mstore\n        /* \"#utility.yul\":27362:27392   */\n      0x2062616c616e63657320776173206e6f74207265737065637465642e00000000\n        /* \"#utility.yul\":27357:27359   */\n      0x20\n        /* \"#utility.yul\":27349:27355   */\n      dup3\n        /* \"#utility.yul\":27345:27360   */\n      add\n        /* \"#utility.yul\":27338:27393   */\n      mstore\n        /* \"#utility.yul\":27259:27400   */\n      pop\n      jump\t// out\n        /* \"#utility.yul\":27406:27587   */\n    tag_311:\n        /* \"#utility.yul\":27546:27579   */\n      0x45434453413a20696e76616c6964207369676e6174757265206c656e67746800\n        /* \"#utility.yul\":27542:27543   */\n      0x00\n        /* \"#utility.yul\":27534:27540   */\n      dup3\n        /* \"#utility.yul\":27530:27544   */\n      add\n        /* \"#utility.yul\":27523:27580   */\n      mstore\n        /* \"#utility.yul\":27512:27587   */\n      pop\n      jump\t// out\n        /* \"#utility.yul\":27593:27807   */\n    tag_317:\n        /* \"#utility.yul\":27733:27799   */\n      0x19457468657265756d205369676e6564204d6573736167653a0a333200000000\n        /* \"#utility.yul\":27729:27730   */\n      0x00\n        /* \"#utility.yul\":27721:27727   */\n      dup3\n        /* \"#utility.yul\":27717:27731   */\n      add\n        /* \"#utility.yul\":27710:27800   */\n      mstore\n        /* \"#utility.yul\":27699:27807   */\n      pop\n      jump\t// out\n        /* \"#utility.yul\":27813:27985   */\n    tag_322:\n        /* \"#utility.yul\":27953:27977   */\n      0x796f75206d757374206d616b65207061796d656e747300000000000000000000\n        /* \"#utility.yul\":27949:27950   */\n      0x00\n        /* \"#utility.yul\":27941:27947   */\n      dup3\n        /* \"#utility.yul\":27937:27951   */\n      add\n        /* \"#utility.yul\":27930:27978   */\n      mstore\n        /* \"#utility.yul\":27919:27985   */\n      pop\n      jump\t// out\n        /* \"#utility.yul\":27991:28216   */\n    tag_327:\n        /* \"#utility.yul\":28131:28165   */\n      0x596f7520617265206e6f74207061727469636970616e7420696e207468652063\n        /* \"#utility.yul\":28127:28128   */\n      0x00\n        /* \"#utility.yul\":28119:28125   */\n      dup3\n        /* \"#utility.yul\":28115:28129   */\n      add\n        /* \"#utility.yul\":28108:28166   */\n      mstore\n        /* \"#utility.yul\":28200:28208   */\n      0x68616e6e656c0000000000000000000000000000000000000000000000000000\n        /* \"#utility.yul\":28195:28197   */\n      0x20\n        /* \"#utility.yul\":28187:28193   */\n      dup3\n        /* \"#utility.yul\":28183:28198   */\n      add\n        /* \"#utility.yul\":28176:28209   */\n      mstore\n        /* \"#utility.yul\":28097:28216   */\n      pop\n      jump\t// out\n        /* \"#utility.yul\":28222:28394   */\n    tag_332:\n        /* \"#utility.yul\":28362:28386   */\n      0x4368616e6e656c20646f65736e6f742065786973747300000000000000000000\n        /* \"#utility.yul\":28358:28359   */\n      0x00\n        /* \"#utility.yul\":28350:28356   */\n      dup3\n        /* \"#utility.yul\":28346:28360   */\n      add\n        /* \"#utility.yul\":28339:28387   */\n      mstore\n        /* \"#utility.yul\":28328:28394   */\n      pop\n      jump\t// out\n        /* \"#utility.yul\":28400:28621   */\n    tag_337:\n        /* \"#utility.yul\":28540:28574   */\n      0x45434453413a20696e76616c6964207369676e6174757265202773272076616c\n        /* \"#utility.yul\":28536:28537   */\n      0x00\n        /* \"#utility.yul\":28528:28534   */\n      dup3\n        /* \"#utility.yul\":28524:28538   */\n      add\n        /* \"#utility.yul\":28517:28575   */\n      mstore\n        /* \"#utility.yul\":28609:28613   */\n      0x7565000000000000000000000000000000000000000000000000000000000000\n        /* \"#utility.yul\":28604:28606   */\n      0x20\n        /* \"#utility.yul\":28596:28602   */\n      dup3\n        /* \"#utility.yul\":28592:28607   */\n      add\n        /* \"#utility.yul\":28585:28614   */\n      mstore\n        /* \"#utility.yul\":28506:28621   */\n      pop\n      jump\t// out\n        /* \"#utility.yul\":28627:28854   */\n    tag_342:\n        /* \"#utility.yul\":28767:28801   */\n      0x7061727469636970616e7473206d757374206861766520646966666572656e74\n        /* \"#utility.yul\":28763:28764   */\n      0x00\n        /* \"#utility.yul\":28755:28761   */\n      dup3\n        /* \"#utility.yul\":28751:28765   */\n      add\n        /* \"#utility.yul\":28744:28802   */\n      mstore\n        /* \"#utility.yul\":28836:28846   */\n      0x2061646472657373000000000000000000000000000000000000000000000000\n        /* \"#utility.yul\":28831:28833   */\n      0x20\n        /* \"#utility.yul\":28823:28829   */\n      dup3\n        /* \"#utility.yul\":28819:28834   */\n      add\n        /* \"#utility.yul\":28812:28847   */\n      mstore\n        /* \"#utility.yul\":28733:28854   */\n      pop\n      jump\t// out\n        /* \"#utility.yul\":28860:29081   */\n    tag_347:\n        /* \"#utility.yul\":29000:29034   */\n      0x45434453413a20696e76616c6964207369676e6174757265202776272076616c\n        /* \"#utility.yul\":28996:28997   */\n      0x00\n        /* \"#utility.yul\":28988:28994   */\n      dup3\n        /* \"#utility.yul\":28984:28998   */\n      add\n        /* \"#utility.yul\":28977:29035   */\n      mstore\n        /* \"#utility.yul\":29069:29073   */\n      0x7565000000000000000000000000000000000000000000000000000000000000\n        /* \"#utility.yul\":29064:29066   */\n      0x20\n        /* \"#utility.yul\":29056:29062   */\n      dup3\n        /* \"#utility.yul\":29052:29067   */\n      add\n        /* \"#utility.yul\":29045:29074   */\n      mstore\n        /* \"#utility.yul\":28966:29081   */\n      pop\n      jump\t// out\n        /* \"#utility.yul\":29087:29263   */\n    tag_352:\n        /* \"#utility.yul\":29227:29255   */\n      0x4275796572207369676e617475726520697320696e76616c6964000000000000\n        /* \"#utility.yul\":29223:29224   */\n      0x00\n        /* \"#utility.yul\":29215:29221   */\n      dup3\n        /* \"#utility.yul\":29211:29225   */\n      add\n        /* \"#utility.yul\":29204:29256   */\n      mstore\n        /* \"#utility.yul\":29193:29263   */\n      pop\n      jump\t// out\n        /* \"#utility.yul\":29269:29442   */\n    tag_357:\n        /* \"#utility.yul\":29409:29434   */\n      0x546865206368616e6e656c206973206e6f74206f70656e000000000000000000\n        /* \"#utility.yul\":29405:29406   */\n      0x00\n        /* \"#utility.yul\":29397:29403   */\n      dup3\n        /* \"#utility.yul\":29393:29407   */\n      add\n        /* \"#utility.yul\":29386:29435   */\n      mstore\n        /* \"#utility.yul\":29375:29442   */\n      pop\n      jump\t// out\n        /* \"#utility.yul\":29448:29625   */\n    tag_362:\n        /* \"#utility.yul\":29588:29617   */\n      0x53656c6c6572207369676e617475726520697320696e76616c69640000000000\n        /* \"#utility.yul\":29584:29585   */\n      0x00\n        /* \"#utility.yul\":29576:29582   */\n      dup3\n        /* \"#utility.yul\":29572:29586   */\n      add\n        /* \"#utility.yul\":29565:29618   */\n      mstore\n        /* \"#utility.yul\":29554:29625   */\n      pop\n      jump\t// out\n        /* \"#utility.yul\":29631:29798   */\n    tag_367:\n        /* \"#utility.yul\":29771:29790   */\n      0x496e636f727265637420616d6f756e742e000000000000000000000000000000\n        /* \"#utility.yul\":29767:29768   */\n      0x00\n        /* \"#utility.yul\":29759:29765   */\n      dup3\n        /* \"#utility.yul\":29755:29769   */\n      add\n        /* \"#utility.yul\":29748:29791   */\n      mstore\n        /* \"#utility.yul\":29737:29798   */\n      pop\n      jump\t// out\n        /* \"#utility.yul\":29804:30040   */\n    tag_372:\n        /* \"#utility.yul\":29944:29978   */\n      0x546865206368616e6e656c2063726561746f7220646964276e74207370656369\n        /* \"#utility.yul\":29940:29941   */\n      0x00\n        /* \"#utility.yul\":29932:29938   */\n      dup3\n        /* \"#utility.yul\":29928:29942   */\n      add\n        /* \"#utility.yul\":29921:29979   */\n      mstore\n        /* \"#utility.yul\":30013:30032   */\n      0x667920796f752061732073656c6c65722e000000000000000000000000000000\n        /* \"#utility.yul\":30008:30010   */\n      0x20\n        /* \"#utility.yul\":30000:30006   */\n      dup3\n        /* \"#utility.yul\":29996:30011   */\n      add\n        /* \"#utility.yul\":29989:30033   */\n      mstore\n        /* \"#utility.yul\":29910:30040   */\n      pop\n      jump\t// out\n        /* \"#utility.yul\":30046:30168   */\n    tag_480:\n        /* \"#utility.yul\":30136:30137   */\n      0x03\n        /* \"#utility.yul\":30129:30134   */\n      dup2\n        /* \"#utility.yul\":30126:30138   */\n      lt\n        /* \"#utility.yul\":30116:30118   */\n      tag_525\n      jumpi\n        /* \"#utility.yul\":30142:30160   */\n      tag_526\n      tag_32\n      jump\t// in\n    tag_526:\n        /* \"#utility.yul\":30116:30118   */\n    tag_525:\n        /* \"#utility.yul\":30106:30168   */\n      pop\n      jump\t// out\n        /* \"#utility.yul\":30174:30296   */\n    tag_215:\n        /* \"#utility.yul\":30247:30271   */\n      tag_528\n        /* \"#utility.yul\":30265:30270   */\n      dup2\n        /* \"#utility.yul\":30247:30271   */\n      tag_272\n      jump\t// in\n    tag_528:\n        /* \"#utility.yul\":30240:30245   */\n      dup2\n        /* \"#utility.yul\":30237:30272   */\n      eq\n        /* \"#utility.yul\":30227:30229   */\n      tag_529\n      jumpi\n        /* \"#utility.yul\":30286:30287   */\n      0x00\n        /* \"#utility.yul\":30283:30284   */\n      dup1\n        /* \"#utility.yul\":30276:30288   */\n      revert\n        /* \"#utility.yul\":30227:30229   */\n    tag_529:\n        /* \"#utility.yul\":30217:30296   */\n      pop\n      jump\t// out\n        /* \"#utility.yul\":30302:30418   */\n    tag_219:\n        /* \"#utility.yul\":30372:30393   */\n      tag_531\n        /* \"#utility.yul\":30387:30392   */\n      dup2\n        /* \"#utility.yul\":30372:30393   */\n      tag_474\n      jump\t// in\n    tag_531:\n        /* \"#utility.yul\":30365:30370   */\n      dup2\n        /* \"#utility.yul\":30362:30394   */\n      eq\n        /* \"#utility.yul\":30352:30354   */\n      tag_532\n      jumpi\n        /* \"#utility.yul\":30408:30409   */\n      0x00\n        /* \"#utility.yul\":30405:30406   */\n      dup1\n        /* \"#utility.yul\":30398:30410   */\n      revert\n        /* \"#utility.yul\":30352:30354   */\n    tag_532:\n        /* \"#utility.yul\":30342:30418   */\n      pop\n      jump\t// out\n        /* \"#utility.yul\":30424:30546   */\n    tag_223:\n        /* \"#utility.yul\":30497:30521   */\n      tag_534\n        /* \"#utility.yul\":30515:30520   */\n      dup2\n        /* \"#utility.yul\":30497:30521   */\n      tag_281\n      jump\t// in\n    tag_534:\n        /* \"#utility.yul\":30490:30495   */\n      dup2\n        /* \"#utility.yul\":30487:30522   */\n      eq\n        /* \"#utility.yul\":30477:30479   */\n      tag_535\n      jumpi\n        /* \"#utility.yul\":30536:30537   */\n      0x00\n        /* \"#utility.yul\":30533:30534   */\n      dup1\n        /* \"#utility.yul\":30526:30538   */\n      revert\n        /* \"#utility.yul\":30477:30479   */\n    tag_535:\n        /* \"#utility.yul\":30467:30546   */\n      pop\n      jump\t// out\n        /* \"#utility.yul\":30552:30674   */\n    tag_233:\n        /* \"#utility.yul\":30625:30649   */\n      tag_537\n        /* \"#utility.yul\":30643:30648   */\n      dup2\n        /* \"#utility.yul\":30625:30649   */\n      tag_376\n      jump\t// in\n    tag_537:\n        /* \"#utility.yul\":30618:30623   */\n      dup2\n        /* \"#utility.yul\":30615:30650   */\n      eq\n        /* \"#utility.yul\":30605:30607   */\n      tag_538\n      jumpi\n        /* \"#utility.yul\":30664:30665   */\n      0x00\n        /* \"#utility.yul\":30661:30662   */\n      dup1\n        /* \"#utility.yul\":30654:30666   */\n      revert\n        /* \"#utility.yul\":30605:30607   */\n    tag_538:\n        /* \"#utility.yul\":30595:30674   */\n      pop\n      jump\t// out\n\n    auxdata: 0xa264697066735822122043cdc73c9751b16b013dc801d82d0dc931d45a689af5a1902bad37254d4305cc64736f6c63430008060033\n}\n",
				"bytecode": {
					"linkReferences": {},
					"object": "608060405234801561001057600080fd5b5061237f806100206000396000f3fe608060405234801561001057600080fd5b506004361061004c5760003560e01c8063283ffea01461005157806339495ecf1461006d5780637a7ebd7b14610089578063d8d9965a146100c2575b600080fd5b61006b60048036038101906100669190611562565b6100de565b005b61008760048036038101906100829190611522565b6104ad565b005b6100a3600480360381019061009e91906114f5565b610742565b6040516100b99a999897969594939291906119fb565b60405180910390f35b6100dc60048036038101906100d79190611461565b610803565b005b856000801b60008083815260200190815260200160002060000154141561013a576040517f08c379a000000000000000000000000000000000000000000000000000000000815260040161013190611b9c565b60405180910390fd5b866000600281111561014f5761014e611eaf565b5b60008083815260200190815260200160002060090160009054906101000a900460ff16600281111561018457610183611eaf565b5b146101c4576040517f08c379a00000000000000000000000000000000000000000000000000000000081526004016101bb90611c3c565b60405180910390fd5b8760008082815260200190815260200160002060020160009054906101000a900473ffffffffffffffffffffffffffffffffffffffff1673ffffffffffffffffffffffffffffffffffffffff163373ffffffffffffffffffffffffffffffffffffffff161480610294575060008082815260200190815260200160002060030160009054906101000a900473ffffffffffffffffffffffffffffffffffffffff1673ffffffffffffffffffffffffffffffffffffffff163373ffffffffffffffffffffffffffffffffffffffff16145b6102d3576040517f08c379a00000000000000000000000000000000000000000000000000000000081526004016102ca90611b7c565b60405180910390fd5b6102e1898989898989610b36565b6102ed89898989610da8565b60008060008b815260200190815260200160002060405180610140016040529081600082015481526020016001820160009054906101000a900473ffffffffffffffffffffffffffffffffffffffff1673ffffffffffffffffffffffffffffffffffffffff1673ffffffffffffffffffffffffffffffffffffffff1681526020016002820160009054906101000a900473ffffffffffffffffffffffffffffffffffffffff1673ffffffffffffffffffffffffffffffffffffffff1673ffffffffffffffffffffffffffffffffffffffff1681526020016003820160009054906101000a900473ffffffffffffffffffffffffffffffffffffffff1673ffffffffffffffffffffffffffffffffffffffff1673ffffffffffffffffffffffffffffffffffffffff16815260200160048201548152602001600582015481526020016006820154815260200160078201548152602001600882015481526020016009820160009054906101000a900460ff1660028111156104705761046f611eaf565b5b600281111561048257610481611eaf565b5b815250509050600080826101000151149050801561049f576104a0565b5b5050505050505050505050565b816000801b600080838152602001908152602001600020600001541415610509576040517f08c379a000000000000000000000000000000000000000000000000000000000815260040161050090611b9c565b60405180910390fd5b826000600281111561051e5761051d611eaf565b5b60008083815260200190815260200160002060090160009054906101000a900460ff16600281111561055357610552611eaf565b5b14610593576040517f08c379a000000000000000000000000000000000000000000000000000000000815260040161058a90611c3c565b60405180910390fd5b6000339050600080600087815260200190815260200160002090508173ffffffffffffffffffffffffffffffffffffffff168160030160009054906101000a900473ffffffffffffffffffffffffffffffffffffffff1673ffffffffffffffffffffffffffffffffffffffff1614610640576040517f08c379a000000000000000000000000000000000000000000000000000000000815260040161063790611c9c565b60405180910390fd5b6000816005015414610687576040517f08c379a000000000000000000000000000000000000000000000000000000000815260040161067e90611afc565b60405180910390fd5b60008510156106cb576040517f08c379a00000000000000000000000000000000000000000000000000000000081526004016106c290611c7c565b60405180910390fd5b6106fa8160010160009054906101000a900473ffffffffffffffffffffffffffffffffffffffff168387610e84565b8481600501819055507f0f95d1a0e16b2a02afb2c679641b33c436dc227961d7572876640cd2ec17937c8660405161073291906119e0565b60405180910390a1505050505050565b60006020528060005260406000206000915090508060000154908060010160009054906101000a900473ffffffffffffffffffffffffffffffffffffffff16908060020160009054906101000a900473ffffffffffffffffffffffffffffffffffffffff16908060030160009054906101000a900473ffffffffffffffffffffffffffffffffffffffff16908060040154908060050154908060060154908060070154908060080154908060090160009054906101000a900460ff1690508a565b60003390508373ffffffffffffffffffffffffffffffffffffffff168173ffffffffffffffffffffffffffffffffffffffff161415610877576040517f08c379a000000000000000000000000000000000000000000000000000000000815260040161086e90611bdc565b60405180910390fd5b60008314156108bb576040517f08c379a00000000000000000000000000000000000000000000000000000000081526004016108b290611b5c565b60405180910390fd5b6000858583436040516020016108d494939291906118e7565b60405160208183030381529060405280519060200120905060006040518061014001604052808381526020018873ffffffffffffffffffffffffffffffffffffffff1681526020018473ffffffffffffffffffffffffffffffffffffffff1681526020018773ffffffffffffffffffffffffffffffffffffffff1681526020018681526020016000815260200160008152602001600081526020018581526020016000600281111561098957610988611eaf565b5b815250905061099d81602001518487610e84565b806000808481526020019081526020016000206000820151816000015560208201518160010160006101000a81548173ffffffffffffffffffffffffffffffffffffffff021916908373ffffffffffffffffffffffffffffffffffffffff16021790555060408201518160020160006101000a81548173ffffffffffffffffffffffffffffffffffffffff021916908373ffffffffffffffffffffffffffffffffffffffff16021790555060608201518160030160006101000a81548173ffffffffffffffffffffffffffffffffffffffff021916908373ffffffffffffffffffffffffffffffffffffffff1602179055506080820151816004015560a0820151816005015560c0820151816006015560e0820151816007015561010082015181600801556101208201518160090160006101000a81548160ff02191690836002811115610aee57610aed611eaf565b5b02179055509050507f7ffc675d721b8768e035a323722842743bb523487b535906abc97e6b3e2095d082604051610b2591906119e0565b60405180910390a150505050505050565b600080600088815260200190815260200160002060405180610140016040529081600082015481526020016001820160009054906101000a900473ffffffffffffffffffffffffffffffffffffffff1673ffffffffffffffffffffffffffffffffffffffff1673ffffffffffffffffffffffffffffffffffffffff1681526020016002820160009054906101000a900473ffffffffffffffffffffffffffffffffffffffff1673ffffffffffffffffffffffffffffffffffffffff1673ffffffffffffffffffffffffffffffffffffffff1681526020016003820160009054906101000a900473ffffffffffffffffffffffffffffffffffffffff1673ffffffffffffffffffffffffffffffffffffffff1673ffffffffffffffffffffffffffffffffffffffff16815260200160048201548152602001600582015481526020016006820154815260200160078201548152602001600882015481526020016009820160009054906101000a900460ff166002811115610cb957610cb8611eaf565b5b6002811115610ccb57610cca611eaf565b5b815250509050600087868689604051602001610cea9493929190611935565b604051602081830303815290604052805190602001209050610d1181858460400151610f29565b610d50576040517f08c379a0000000000000000000000000000000000000000000000000000000008152600401610d4790611c1c565b60405180910390fd5b610d5f81848460600151610f29565b610d9e576040517f08c379a0000000000000000000000000000000000000000000000000000000008152600401610d9590611c5c565b60405180910390fd5b5050505050505050565b6000806000868152602001908152602001600020905080600501548160040154610dd29190611d2e565b8284610dde9190611d2e565b14610e1e576040517f08c379a0000000000000000000000000000000000000000000000000000000008152600401610e1590611b1c565b60405180910390fd5b838160060181905550828160040181905550818160050181905550600081600701541415610e50574281600701819055505b60018160090160006101000a81548160ff02191690836002811115610e7857610e77611eaf565b5b02179055505050505050565b6000811115610f245760008390508073ffffffffffffffffffffffffffffffffffffffff166323b872dd8430856040518463ffffffff1660e01b8152600401610ecf939291906119a9565b602060405180830381600087803b158015610ee957600080fd5b505af1158015610efd573d6000803e3d6000fd5b505050506040513d601f19601f82011682018060405250810190610f2191906114c8565b50505b505050565b600080610f3585610f82565b90508273ffffffffffffffffffffffffffffffffffffffff16610f618583610fb290919063ffffffff16565b73ffffffffffffffffffffffffffffffffffffffff16149150509392505050565b600081604051602001610f959190611983565b604051602081830303815290604052805190602001209050919050565b6000806000610fc18585610fd9565b91509150610fce8161105c565b819250505092915050565b60008060418351141561101b5760008060006020860151925060408601519150606086015160001a905061100f87828585611231565b94509450505050611055565b60408351141561104c57600080602085015191506040850151905061104186838361133e565b935093505050611055565b60006002915091505b9250929050565b600060048111156110705761106f611eaf565b5b81600481111561108357611082611eaf565b5b141561108e5761122e565b600160048111156110a2576110a1611eaf565b5b8160048111156110b5576110b4611eaf565b5b14156110f6576040517f08c379a00000000000000000000000000000000000000000000000000000000081526004016110ed90611adc565b60405180910390fd5b6002600481111561110a57611109611eaf565b5b81600481111561111d5761111c611eaf565b5b141561115e576040517f08c379a000000000000000000000000000000000000000000000000000000000815260040161115590611b3c565b60405180910390fd5b6003600481111561117257611171611eaf565b5b81600481111561118557611184611eaf565b5b14156111c6576040517f08c379a00000000000000000000000000000000000000000000000000000000081526004016111bd90611bbc565b60405180910390fd5b6004808111156111d9576111d8611eaf565b5b8160048111156111ec576111eb611eaf565b5b141561122d576040517f08c379a000000000000000000000000000000000000000000000000000000000815260040161122490611bfc565b60405180910390fd5b5b50565b6000807f7fffffffffffffffffffffffffffffff5d576e7357a4501ddfe92f46681b20a08360001c111561126c576000600391509150611335565b601b8560ff16141580156112845750601c8560ff1614155b15611296576000600491509150611335565b6000600187878787604051600081526020016040526040516112bb9493929190611a97565b6020604051602081039080840390855afa1580156112dd573d6000803e3d6000fd5b505050602060405103519050600073ffffffffffffffffffffffffffffffffffffffff168173ffffffffffffffffffffffffffffffffffffffff16141561132c57600060019250925050611335565b80600092509250505b94509492505050565b60008060007f7fffffffffffffffffffffffffffffffffffffffffffffffffffffffffffffff60001b841690506000601b60ff8660001c901c6113819190611d2e565b905061138f87828885611231565b935093505050935093915050565b60006113b06113ab84611ce1565b611cbc565b9050828152602081018484840111156113cc576113cb611f12565b5b6113d7848285611e08565b509392505050565b6000813590506113ee816122ed565b92915050565b60008151905061140381612304565b92915050565b6000813590506114188161231b565b92915050565b600082601f83011261143357611432611f0d565b5b813561144384826020860161139d565b91505092915050565b60008135905061145b81612332565b92915050565b6000806000806080858703121561147b5761147a611f1c565b5b6000611489878288016113df565b945050602061149a878288016113df565b93505060406114ab8782880161144c565b92505060606114bc8782880161144c565b91505092959194509250565b6000602082840312156114de576114dd611f1c565b5b60006114ec848285016113f4565b91505092915050565b60006020828403121561150b5761150a611f1c565b5b600061151984828501611409565b91505092915050565b6000806040838503121561153957611538611f1c565b5b600061154785828601611409565b92505060206115588582860161144c565b9150509250929050565b60008060008060008060c0878903121561157f5761157e611f1c565b5b600061158d89828a01611409565b965050602061159e89828a0161144c565b95505060406115af89828a0161144c565b94505060606115c089828a0161144c565b935050608087013567ffffffffffffffff8111156115e1576115e0611f17565b5b6115ed89828a0161141e565b92505060a087013567ffffffffffffffff81111561160e5761160d611f17565b5b61161a89828a0161141e565b9150509295509295509295565b61163081611d84565b82525050565b61164761164282611d84565b611e48565b82525050565b61165681611da2565b82525050565b61166d61166882611da2565b611e5a565b82525050565b61167c81611df6565b82525050565b600061168f601883611d12565b915061169a82611f3f565b602082019050919050565b60006116b2602583611d12565b91506116bd82611f68565b604082019050919050565b60006116d5603c83611d12565b91506116e082611fb7565b604082019050919050565b60006116f8601f83611d12565b915061170382612006565b602082019050919050565b600061171b601c83611d23565b91506117268261202f565b601c82019050919050565b600061173e601683611d12565b915061174982612058565b602082019050919050565b6000611761602683611d12565b915061176c82612081565b604082019050919050565b6000611784601683611d12565b915061178f826120d0565b602082019050919050565b60006117a7602283611d12565b91506117b2826120f9565b604082019050919050565b60006117ca602883611d12565b91506117d582612148565b604082019050919050565b60006117ed602283611d12565b91506117f882612197565b604082019050919050565b6000611810601a83611d12565b915061181b826121e6565b602082019050919050565b6000611833601783611d12565b915061183e8261220f565b602082019050919050565b6000611856601b83611d12565b915061186182612238565b602082019050919050565b6000611879601183611d12565b915061188482612261565b602082019050919050565b600061189c603183611d12565b91506118a78261228a565b604082019050919050565b6118bb81611ddf565b82525050565b6118d26118cd82611ddf565b611e76565b82525050565b6118e181611de9565b82525050565b60006118f38287611636565b6014820191506119038286611636565b6014820191506119138285611636565b60148201915061192382846118c1565b60208201915081905095945050505050565b6000611941828761165c565b60208201915061195182866118c1565b60208201915061196182856118c1565b60208201915061197182846118c1565b60208201915081905095945050505050565b600061198e8261170e565b915061199a828461165c565b60208201915081905092915050565b60006060820190506119be6000830186611627565b6119cb6020830185611627565b6119d860408301846118b2565b949350505050565b60006020820190506119f5600083018461164d565b92915050565b600061014082019050611a11600083018d61164d565b611a1e602083018c611627565b611a2b604083018b611627565b611a38606083018a611627565b611a4560808301896118b2565b611a5260a08301886118b2565b611a5f60c08301876118b2565b611a6c60e08301866118b2565b611a7a6101008301856118b2565b611a88610120830184611673565b9b9a5050505050505050505050565b6000608082019050611aac600083018761164d565b611ab960208301866118d8565b611ac6604083018561164d565b611ad3606083018461164d565b95945050505050565b60006020820190508181036000830152611af581611682565b9050919050565b60006020820190508181036000830152611b15816116a5565b9050919050565b60006020820190508181036000830152611b35816116c8565b9050919050565b60006020820190508181036000830152611b55816116eb565b9050919050565b60006020820190508181036000830152611b7581611731565b9050919050565b60006020820190508181036000830152611b9581611754565b9050919050565b60006020820190508181036000830152611bb581611777565b9050919050565b60006020820190508181036000830152611bd58161179a565b9050919050565b60006020820190508181036000830152611bf5816117bd565b9050919050565b60006020820190508181036000830152611c15816117e0565b9050919050565b60006020820190508181036000830152611c3581611803565b9050919050565b60006020820190508181036000830152611c5581611826565b9050919050565b60006020820190508181036000830152611c7581611849565b9050919050565b60006020820190508181036000830152611c958161186c565b9050919050565b60006020820190508181036000830152611cb58161188f565b9050919050565b6000611cc6611cd7565b9050611cd28282611e17565b919050565b6000604051905090565b600067ffffffffffffffff821115611cfc57611cfb611ede565b5b611d0582611f21565b9050602081019050919050565b600082825260208201905092915050565b600081905092915050565b6000611d3982611ddf565b9150611d4483611ddf565b9250827fffffffffffffffffffffffffffffffffffffffffffffffffffffffffffffffff03821115611d7957611d78611e80565b5b828201905092915050565b6000611d8f82611dbf565b9050919050565b60008115159050919050565b6000819050919050565b6000819050611dba826122d9565b919050565b600073ffffffffffffffffffffffffffffffffffffffff82169050919050565b6000819050919050565b600060ff82169050919050565b6000611e0182611dac565b9050919050565b82818337600083830152505050565b611e2082611f21565b810181811067ffffffffffffffff82111715611e3f57611e3e611ede565b5b80604052505050565b6000611e5382611e64565b9050919050565b6000819050919050565b6000611e6f82611f32565b9050919050565b6000819050919050565b7f4e487b7100000000000000000000000000000000000000000000000000000000600052601160045260246000fd5b7f4e487b7100000000000000000000000000000000000000000000000000000000600052602160045260246000fd5b7f4e487b7100000000000000000000000000000000000000000000000000000000600052604160045260246000fd5b600080fd5b600080fd5b600080fd5b600080fd5b6000601f19601f8301169050919050565b60008160601b9050919050565b7f45434453413a20696e76616c6964207369676e61747572650000000000000000600082015250565b7f596f752063616e6e6f74206a6f696e20746f20746865206368616e6e656c207460008201527f776963652e000000000000000000000000000000000000000000000000000000602082015250565b7f546865206c6177206f6620636f6e736572766174696f6e206f6620746f74616c60008201527f2062616c616e63657320776173206e6f74207265737065637465642e00000000602082015250565b7f45434453413a20696e76616c6964207369676e6174757265206c656e67746800600082015250565b7f19457468657265756d205369676e6564204d6573736167653a0a333200000000600082015250565b7f796f75206d757374206d616b65207061796d656e747300000000000000000000600082015250565b7f596f7520617265206e6f74207061727469636970616e7420696e20746865206360008201527f68616e6e656c0000000000000000000000000000000000000000000000000000602082015250565b7f4368616e6e656c20646f65736e6f742065786973747300000000000000000000600082015250565b7f45434453413a20696e76616c6964207369676e6174757265202773272076616c60008201527f7565000000000000000000000000000000000000000000000000000000000000602082015250565b7f7061727469636970616e7473206d757374206861766520646966666572656e7460008201527f2061646472657373000000000000000000000000000000000000000000000000602082015250565b7f45434453413a20696e76616c6964207369676e6174757265202776272076616c60008201527f7565000000000000000000000000000000000000000000000000000000000000602082015250565b7f4275796572207369676e617475726520697320696e76616c6964000000000000600082015250565b7f546865206368616e6e656c206973206e6f74206f70656e000000000000000000600082015250565b7f53656c6c6572207369676e617475726520697320696e76616c69640000000000600082015250565b7f496e636f727265637420616d6f756e742e000000000000000000000000000000600082015250565b7f546865206368616e6e656c2063726561746f7220646964276e7420737065636960008201527f667920796f752061732073656c6c65722e000000000000000000000000000000602082015250565b600381106122ea576122e9611eaf565b5b50565b6122f681611d84565b811461230157600080fd5b50565b61230d81611d96565b811461231857600080fd5b50565b61232481611da2565b811461232f57600080fd5b50565b61233b81611ddf565b811461234657600080fd5b5056fea264697066735822122043cdc73c9751b16b013dc801d82d0dc931d45a689af5a1902bad37254d4305cc64736f6c63430008060033",
					"opcodes": "PUSH1 0x80 PUSH1 0x40 MSTORE CALLVALUE DUP1 ISZERO PUSH2 0x10 JUMPI PUSH1 0x0 DUP1 REVERT JUMPDEST POP PUSH2 0x237F DUP1 PUSH2 0x20 PUSH1 0x0 CODECOPY PUSH1 0x0 RETURN INVALID PUSH1 0x80 PUSH1 0x40 MSTORE CALLVALUE DUP1 ISZERO PUSH2 0x10 JUMPI PUSH1 0x0 DUP1 REVERT JUMPDEST POP PUSH1 0x4 CALLDATASIZE LT PUSH2 0x4C JUMPI PUSH1 0x0 CALLDATALOAD PUSH1 0xE0 SHR DUP1 PUSH4 0x283FFEA0 EQ PUSH2 0x51 JUMPI DUP1 PUSH4 0x39495ECF EQ PUSH2 0x6D JUMPI DUP1 PUSH4 0x7A7EBD7B EQ PUSH2 0x89 JUMPI DUP1 PUSH4 0xD8D9965A EQ PUSH2 0xC2 JUMPI JUMPDEST PUSH1 0x0 DUP1 REVERT JUMPDEST PUSH2 0x6B PUSH1 0x4 DUP1 CALLDATASIZE SUB DUP2 ADD SWAP1 PUSH2 0x66 SWAP2 SWAP1 PUSH2 0x1562 JUMP JUMPDEST PUSH2 0xDE JUMP JUMPDEST STOP JUMPDEST PUSH2 0x87 PUSH1 0x4 DUP1 CALLDATASIZE SUB DUP2 ADD SWAP1 PUSH2 0x82 SWAP2 SWAP1 PUSH2 0x1522 JUMP JUMPDEST PUSH2 0x4AD JUMP JUMPDEST STOP JUMPDEST PUSH2 0xA3 PUSH1 0x4 DUP1 CALLDATASIZE SUB DUP2 ADD SWAP1 PUSH2 0x9E SWAP2 SWAP1 PUSH2 0x14F5 JUMP JUMPDEST PUSH2 0x742 JUMP JUMPDEST PUSH1 0x40 MLOAD PUSH2 0xB9 SWAP11 SWAP10 SWAP9 SWAP8 SWAP7 SWAP6 SWAP5 SWAP4 SWAP3 SWAP2 SWAP1 PUSH2 0x19FB JUMP JUMPDEST PUSH1 0x40 MLOAD DUP1 SWAP2 SUB SWAP1 RETURN JUMPDEST PUSH2 0xDC PUSH1 0x4 DUP1 CALLDATASIZE SUB DUP2 ADD SWAP1 PUSH2 0xD7 SWAP2 SWAP1 PUSH2 0x1461 JUMP JUMPDEST PUSH2 0x803 JUMP JUMPDEST STOP JUMPDEST DUP6 PUSH1 0x0 DUP1 SHL PUSH1 0x0 DUP1 DUP4 DUP2 MSTORE PUSH1 0x20 ADD SWAP1 DUP2 MSTORE PUSH1 0x20 ADD PUSH1 0x0 KECCAK256 PUSH1 0x0 ADD SLOAD EQ ISZERO PUSH2 0x13A JUMPI PUSH1 0x40 MLOAD PUSH32 0x8C379A000000000000000000000000000000000000000000000000000000000 DUP2 MSTORE PUSH1 0x4 ADD PUSH2 0x131 SWAP1 PUSH2 0x1B9C JUMP JUMPDEST PUSH1 0x40 MLOAD DUP1 SWAP2 SUB SWAP1 REVERT JUMPDEST DUP7 PUSH1 0x0 PUSH1 0x2 DUP2 GT ISZERO PUSH2 0x14F JUMPI PUSH2 0x14E PUSH2 0x1EAF JUMP JUMPDEST JUMPDEST PUSH1 0x0 DUP1 DUP4 DUP2 MSTORE PUSH1 0x20 ADD SWAP1 DUP2 MSTORE PUSH1 0x20 ADD PUSH1 0x0 KECCAK256 PUSH1 0x9 ADD PUSH1 0x0 SWAP1 SLOAD SWAP1 PUSH2 0x100 EXP SWAP1 DIV PUSH1 0xFF AND PUSH1 0x2 DUP2 GT ISZERO PUSH2 0x184 JUMPI PUSH2 0x183 PUSH2 0x1EAF JUMP JUMPDEST JUMPDEST EQ PUSH2 0x1C4 JUMPI PUSH1 0x40 MLOAD PUSH32 0x8C379A000000000000000000000000000000000000000000000000000000000 DUP2 MSTORE PUSH1 0x4 ADD PUSH2 0x1BB SWAP1 PUSH2 0x1C3C JUMP JUMPDEST PUSH1 0x40 MLOAD DUP1 SWAP2 SUB SWAP1 REVERT JUMPDEST DUP8 PUSH1 0x0 DUP1 DUP3 DUP2 MSTORE PUSH1 0x20 ADD SWAP1 DUP2 MSTORE PUSH1 0x20 ADD PUSH1 0x0 KECCAK256 PUSH1 0x2 ADD PUSH1 0x0 SWAP1 SLOAD SWAP1 PUSH2 0x100 EXP SWAP1 DIV PUSH20 0xFFFFFFFFFFFFFFFFFFFFFFFFFFFFFFFFFFFFFFFF AND PUSH20 0xFFFFFFFFFFFFFFFFFFFFFFFFFFFFFFFFFFFFFFFF AND CALLER PUSH20 0xFFFFFFFFFFFFFFFFFFFFFFFFFFFFFFFFFFFFFFFF AND EQ DUP1 PUSH2 0x294 JUMPI POP PUSH1 0x0 DUP1 DUP3 DUP2 MSTORE PUSH1 0x20 ADD SWAP1 DUP2 MSTORE PUSH1 0x20 ADD PUSH1 0x0 KECCAK256 PUSH1 0x3 ADD PUSH1 0x0 SWAP1 SLOAD SWAP1 PUSH2 0x100 EXP SWAP1 DIV PUSH20 0xFFFFFFFFFFFFFFFFFFFFFFFFFFFFFFFFFFFFFFFF AND PUSH20 0xFFFFFFFFFFFFFFFFFFFFFFFFFFFFFFFFFFFFFFFF AND CALLER PUSH20 0xFFFFFFFFFFFFFFFFFFFFFFFFFFFFFFFFFFFFFFFF AND EQ JUMPDEST PUSH2 0x2D3 JUMPI PUSH1 0x40 MLOAD PUSH32 0x8C379A000000000000000000000000000000000000000000000000000000000 DUP2 MSTORE PUSH1 0x4 ADD PUSH2 0x2CA SWAP1 PUSH2 0x1B7C JUMP JUMPDEST PUSH1 0x40 MLOAD DUP1 SWAP2 SUB SWAP1 REVERT JUMPDEST PUSH2 0x2E1 DUP10 DUP10 DUP10 DUP10 DUP10 DUP10 PUSH2 0xB36 JUMP JUMPDEST PUSH2 0x2ED DUP10 DUP10 DUP10 DUP10 PUSH2 0xDA8 JUMP JUMPDEST PUSH1 0x0 DUP1 PUSH1 0x0 DUP12 DUP2 MSTORE PUSH1 0x20 ADD SWAP1 DUP2 MSTORE PUSH1 0x20 ADD PUSH1 0x0 KECCAK256 PUSH1 0x40 MLOAD DUP1 PUSH2 0x140 ADD PUSH1 0x40 MSTORE SWAP1 DUP2 PUSH1 0x0 DUP3 ADD SLOAD DUP2 MSTORE PUSH1 0x20 ADD PUSH1 0x1 DUP3 ADD PUSH1 0x0 SWAP1 SLOAD SWAP1 PUSH2 0x100 EXP SWAP1 DIV PUSH20 0xFFFFFFFFFFFFFFFFFFFFFFFFFFFFFFFFFFFFFFFF AND PUSH20 0xFFFFFFFFFFFFFFFFFFFFFFFFFFFFFFFFFFFFFFFF AND PUSH20 0xFFFFFFFFFFFFFFFFFFFFFFFFFFFFFFFFFFFFFFFF AND DUP2 MSTORE PUSH1 0x20 ADD PUSH1 0x2 DUP3 ADD PUSH1 0x0 SWAP1 SLOAD SWAP1 PUSH2 0x100 EXP SWAP1 DIV PUSH20 0xFFFFFFFFFFFFFFFFFFFFFFFFFFFFFFFFFFFFFFFF AND PUSH20 0xFFFFFFFFFFFFFFFFFFFFFFFFFFFFFFFFFFFFFFFF AND PUSH20 0xFFFFFFFFFFFFFFFFFFFFFFFFFFFFFFFFFFFFFFFF AND DUP2 MSTORE PUSH1 0x20 ADD PUSH1 0x3 DUP3 ADD PUSH1 0x0 SWAP1 SLOAD SWAP1 PUSH2 0x100 EXP SWAP1 DIV PUSH20 0xFFFFFFFFFFFFFFFFFFFFFFFFFFFFFFFFFFFFFFFF AND PUSH20 0xFFFFFFFFFFFFFFFFFFFFFFFFFFFFFFFFFFFFFFFF AND PUSH20 0xFFFFFFFFFFFFFFFFFFFFFFFFFFFFFFFFFFFFFFFF AND DUP2 MSTORE PUSH1 0x20 ADD PUSH1 0x4 DUP3 ADD SLOAD DUP2 MSTORE PUSH1 0x20 ADD PUSH1 0x5 DUP3 ADD SLOAD DUP2 MSTORE PUSH1 0x20 ADD PUSH1 0x6 DUP3 ADD SLOAD DUP2 MSTORE PUSH1 0x20 ADD PUSH1 0x7 DUP3 ADD SLOAD DUP2 MSTORE PUSH1 0x20 ADD PUSH1 0x8 DUP3 ADD SLOAD DUP2 MSTORE PUSH1 0x20 ADD PUSH1 0x9 DUP3 ADD PUSH1 0x0 SWAP1 SLOAD SWAP1 PUSH2 0x100 EXP SWAP1 DIV PUSH1 0xFF AND PUSH1 0x2 DUP2 GT ISZERO PUSH2 0x470 JUMPI PUSH2 0x46F PUSH2 0x1EAF JUMP JUMPDEST JUMPDEST PUSH1 0x2 DUP2 GT ISZERO PUSH2 0x482 JUMPI PUSH2 0x481 PUSH2 0x1EAF JUMP JUMPDEST JUMPDEST DUP2 MSTORE POP POP SWAP1 POP PUSH1 0x0 DUP1 DUP3 PUSH2 0x100 ADD MLOAD EQ SWAP1 POP DUP1 ISZERO PUSH2 0x49F JUMPI PUSH2 0x4A0 JUMP JUMPDEST JUMPDEST POP POP POP POP POP POP POP POP POP POP POP JUMP JUMPDEST DUP2 PUSH1 0x0 DUP1 SHL PUSH1 0x0 DUP1 DUP4 DUP2 MSTORE PUSH1 0x20 ADD SWAP1 DUP2 MSTORE PUSH1 0x20 ADD PUSH1 0x0 KECCAK256 PUSH1 0x0 ADD SLOAD EQ ISZERO PUSH2 0x509 JUMPI PUSH1 0x40 MLOAD PUSH32 0x8C379A000000000000000000000000000000000000000000000000000000000 DUP2 MSTORE PUSH1 0x4 ADD PUSH2 0x500 SWAP1 PUSH2 0x1B9C JUMP JUMPDEST PUSH1 0x40 MLOAD DUP1 SWAP2 SUB SWAP1 REVERT JUMPDEST DUP3 PUSH1 0x0 PUSH1 0x2 DUP2 GT ISZERO PUSH2 0x51E JUMPI PUSH2 0x51D PUSH2 0x1EAF JUMP JUMPDEST JUMPDEST PUSH1 0x0 DUP1 DUP4 DUP2 MSTORE PUSH1 0x20 ADD SWAP1 DUP2 MSTORE PUSH1 0x20 ADD PUSH1 0x0 KECCAK256 PUSH1 0x9 ADD PUSH1 0x0 SWAP1 SLOAD SWAP1 PUSH2 0x100 EXP SWAP1 DIV PUSH1 0xFF AND PUSH1 0x2 DUP2 GT ISZERO PUSH2 0x553 JUMPI PUSH2 0x552 PUSH2 0x1EAF JUMP JUMPDEST JUMPDEST EQ PUSH2 0x593 JUMPI PUSH1 0x40 MLOAD PUSH32 0x8C379A000000000000000000000000000000000000000000000000000000000 DUP2 MSTORE PUSH1 0x4 ADD PUSH2 0x58A SWAP1 PUSH2 0x1C3C JUMP JUMPDEST PUSH1 0x40 MLOAD DUP1 SWAP2 SUB SWAP1 REVERT JUMPDEST PUSH1 0x0 CALLER SWAP1 POP PUSH1 0x0 DUP1 PUSH1 0x0 DUP8 DUP2 MSTORE PUSH1 0x20 ADD SWAP1 DUP2 MSTORE PUSH1 0x20 ADD PUSH1 0x0 KECCAK256 SWAP1 POP DUP2 PUSH20 0xFFFFFFFFFFFFFFFFFFFFFFFFFFFFFFFFFFFFFFFF AND DUP2 PUSH1 0x3 ADD PUSH1 0x0 SWAP1 SLOAD SWAP1 PUSH2 0x100 EXP SWAP1 DIV PUSH20 0xFFFFFFFFFFFFFFFFFFFFFFFFFFFFFFFFFFFFFFFF AND PUSH20 0xFFFFFFFFFFFFFFFFFFFFFFFFFFFFFFFFFFFFFFFF AND EQ PUSH2 0x640 JUMPI PUSH1 0x40 MLOAD PUSH32 0x8C379A000000000000000000000000000000000000000000000000000000000 DUP2 MSTORE PUSH1 0x4 ADD PUSH2 0x637 SWAP1 PUSH2 0x1C9C JUMP JUMPDEST PUSH1 0x40 MLOAD DUP1 SWAP2 SUB SWAP1 REVERT JUMPDEST PUSH1 0x0 DUP2 PUSH1 0x5 ADD SLOAD EQ PUSH2 0x687 JUMPI PUSH1 0x40 MLOAD PUSH32 0x8C379A000000000000000000000000000000000000000000000000000000000 DUP2 MSTORE PUSH1 0x4 ADD PUSH2 0x67E SWAP1 PUSH2 0x1AFC JUMP JUMPDEST PUSH1 0x40 MLOAD DUP1 SWAP2 SUB SWAP1 REVERT JUMPDEST PUSH1 0x0 DUP6 LT ISZERO PUSH2 0x6CB JUMPI PUSH1 0x40 MLOAD PUSH32 0x8C379A000000000000000000000000000000000000000000000000000000000 DUP2 MSTORE PUSH1 0x4 ADD PUSH2 0x6C2 SWAP1 PUSH2 0x1C7C JUMP JUMPDEST PUSH1 0x40 MLOAD DUP1 SWAP2 SUB SWAP1 REVERT JUMPDEST PUSH2 0x6FA DUP2 PUSH1 0x1 ADD PUSH1 0x0 SWAP1 SLOAD SWAP1 PUSH2 0x100 EXP SWAP1 DIV PUSH20 0xFFFFFFFFFFFFFFFFFFFFFFFFFFFFFFFFFFFFFFFF AND DUP4 DUP8 PUSH2 0xE84 JUMP JUMPDEST DUP5 DUP2 PUSH1 0x5 ADD DUP2 SWAP1 SSTORE POP PUSH32 0xF95D1A0E16B2A02AFB2C679641B33C436DC227961D7572876640CD2EC17937C DUP7 PUSH1 0x40 MLOAD PUSH2 0x732 SWAP2 SWAP1 PUSH2 0x19E0 JUMP JUMPDEST PUSH1 0x40 MLOAD DUP1 SWAP2 SUB SWAP1 LOG1 POP POP POP POP POP POP JUMP JUMPDEST PUSH1 0x0 PUSH1 0x20 MSTORE DUP1 PUSH1 0x0 MSTORE PUSH1 0x40 PUSH1 0x0 KECCAK256 PUSH1 0x0 SWAP2 POP SWAP1 POP DUP1 PUSH1 0x0 ADD SLOAD SWAP1 DUP1 PUSH1 0x1 ADD PUSH1 0x0 SWAP1 SLOAD SWAP1 PUSH2 0x100 EXP SWAP1 DIV PUSH20 0xFFFFFFFFFFFFFFFFFFFFFFFFFFFFFFFFFFFFFFFF AND SWAP1 DUP1 PUSH1 0x2 ADD PUSH1 0x0 SWAP1 SLOAD SWAP1 PUSH2 0x100 EXP SWAP1 DIV PUSH20 0xFFFFFFFFFFFFFFFFFFFFFFFFFFFFFFFFFFFFFFFF AND SWAP1 DUP1 PUSH1 0x3 ADD PUSH1 0x0 SWAP1 SLOAD SWAP1 PUSH2 0x100 EXP SWAP1 DIV PUSH20 0xFFFFFFFFFFFFFFFFFFFFFFFFFFFFFFFFFFFFFFFF AND SWAP1 DUP1 PUSH1 0x4 ADD SLOAD SWAP1 DUP1 PUSH1 0x5 ADD SLOAD SWAP1 DUP1 PUSH1 0x6 ADD SLOAD SWAP1 DUP1 PUSH1 0x7 ADD SLOAD SWAP1 DUP1 PUSH1 0x8 ADD SLOAD SWAP1 DUP1 PUSH1 0x9 ADD PUSH1 0x0 SWAP1 SLOAD SWAP1 PUSH2 0x100 EXP SWAP1 DIV PUSH1 0xFF AND SWAP1 POP DUP11 JUMP JUMPDEST PUSH1 0x0 CALLER SWAP1 POP DUP4 PUSH20 0xFFFFFFFFFFFFFFFFFFFFFFFFFFFFFFFFFFFFFFFF AND DUP2 PUSH20 0xFFFFFFFFFFFFFFFFFFFFFFFFFFFFFFFFFFFFFFFF AND EQ ISZERO PUSH2 0x877 JUMPI PUSH1 0x40 MLOAD PUSH32 0x8C379A000000000000000000000000000000000000000000000000000000000 DUP2 MSTORE PUSH1 0x4 ADD PUSH2 0x86E SWAP1 PUSH2 0x1BDC JUMP JUMPDEST PUSH1 0x40 MLOAD DUP1 SWAP2 SUB SWAP1 REVERT JUMPDEST PUSH1 0x0 DUP4 EQ ISZERO PUSH2 0x8BB JUMPI PUSH1 0x40 MLOAD PUSH32 0x8C379A000000000000000000000000000000000000000000000000000000000 DUP2 MSTORE PUSH1 0x4 ADD PUSH2 0x8B2 SWAP1 PUSH2 0x1B5C JUMP JUMPDEST PUSH1 0x40 MLOAD DUP1 SWAP2 SUB SWAP1 REVERT JUMPDEST PUSH1 0x0 DUP6 DUP6 DUP4 NUMBER PUSH1 0x40 MLOAD PUSH1 0x20 ADD PUSH2 0x8D4 SWAP5 SWAP4 SWAP3 SWAP2 SWAP1 PUSH2 0x18E7 JUMP JUMPDEST PUSH1 0x40 MLOAD PUSH1 0x20 DUP2 DUP4 SUB SUB DUP2 MSTORE SWAP1 PUSH1 0x40 MSTORE DUP1 MLOAD SWAP1 PUSH1 0x20 ADD KECCAK256 SWAP1 POP PUSH1 0x0 PUSH1 0x40 MLOAD DUP1 PUSH2 0x140 ADD PUSH1 0x40 MSTORE DUP1 DUP4 DUP2 MSTORE PUSH1 0x20 ADD DUP9 PUSH20 0xFFFFFFFFFFFFFFFFFFFFFFFFFFFFFFFFFFFFFFFF AND DUP2 MSTORE PUSH1 0x20 ADD DUP5 PUSH20 0xFFFFFFFFFFFFFFFFFFFFFFFFFFFFFFFFFFFFFFFF AND DUP2 MSTORE PUSH1 0x20 ADD DUP8 PUSH20 0xFFFFFFFFFFFFFFFFFFFFFFFFFFFFFFFFFFFFFFFF AND DUP2 MSTORE PUSH1 0x20 ADD DUP7 DUP2 MSTORE PUSH1 0x20 ADD PUSH1 0x0 DUP2 MSTORE PUSH1 0x20 ADD PUSH1 0x0 DUP2 MSTORE PUSH1 0x20 ADD PUSH1 0x0 DUP2 MSTORE PUSH1 0x20 ADD DUP6 DUP2 MSTORE PUSH1 0x20 ADD PUSH1 0x0 PUSH1 0x2 DUP2 GT ISZERO PUSH2 0x989 JUMPI PUSH2 0x988 PUSH2 0x1EAF JUMP JUMPDEST JUMPDEST DUP2 MSTORE POP SWAP1 POP PUSH2 0x99D DUP2 PUSH1 0x20 ADD MLOAD DUP5 DUP8 PUSH2 0xE84 JUMP JUMPDEST DUP1 PUSH1 0x0 DUP1 DUP5 DUP2 MSTORE PUSH1 0x20 ADD SWAP1 DUP2 MSTORE PUSH1 0x20 ADD PUSH1 0x0 KECCAK256 PUSH1 0x0 DUP3 ADD MLOAD DUP2 PUSH1 0x0 ADD SSTORE PUSH1 0x20 DUP3 ADD MLOAD DUP2 PUSH1 0x1 ADD PUSH1 0x0 PUSH2 0x100 EXP DUP2 SLOAD DUP2 PUSH20 0xFFFFFFFFFFFFFFFFFFFFFFFFFFFFFFFFFFFFFFFF MUL NOT AND SWAP1 DUP4 PUSH20 0xFFFFFFFFFFFFFFFFFFFFFFFFFFFFFFFFFFFFFFFF AND MUL OR SWAP1 SSTORE POP PUSH1 0x40 DUP3 ADD MLOAD DUP2 PUSH1 0x2 ADD PUSH1 0x0 PUSH2 0x100 EXP DUP2 SLOAD DUP2 PUSH20 0xFFFFFFFFFFFFFFFFFFFFFFFFFFFFFFFFFFFFFFFF MUL NOT AND SWAP1 DUP4 PUSH20 0xFFFFFFFFFFFFFFFFFFFFFFFFFFFFFFFFFFFFFFFF AND MUL OR SWAP1 SSTORE POP PUSH1 0x60 DUP3 ADD MLOAD DUP2 PUSH1 0x3 ADD PUSH1 0x0 PUSH2 0x100 EXP DUP2 SLOAD DUP2 PUSH20 0xFFFFFFFFFFFFFFFFFFFFFFFFFFFFFFFFFFFFFFFF MUL NOT AND SWAP1 DUP4 PUSH20 0xFFFFFFFFFFFFFFFFFFFFFFFFFFFFFFFFFFFFFFFF AND MUL OR SWAP1 SSTORE POP PUSH1 0x80 DUP3 ADD MLOAD DUP2 PUSH1 0x4 ADD SSTORE PUSH1 0xA0 DUP3 ADD MLOAD DUP2 PUSH1 0x5 ADD SSTORE PUSH1 0xC0 DUP3 ADD MLOAD DUP2 PUSH1 0x6 ADD SSTORE PUSH1 0xE0 DUP3 ADD MLOAD DUP2 PUSH1 0x7 ADD SSTORE PUSH2 0x100 DUP3 ADD MLOAD DUP2 PUSH1 0x8 ADD SSTORE PUSH2 0x120 DUP3 ADD MLOAD DUP2 PUSH1 0x9 ADD PUSH1 0x0 PUSH2 0x100 EXP DUP2 SLOAD DUP2 PUSH1 0xFF MUL NOT AND SWAP1 DUP4 PUSH1 0x2 DUP2 GT ISZERO PUSH2 0xAEE JUMPI PUSH2 0xAED PUSH2 0x1EAF JUMP JUMPDEST JUMPDEST MUL OR SWAP1 SSTORE POP SWAP1 POP POP PUSH32 0x7FFC675D721B8768E035A323722842743BB523487B535906ABC97E6B3E2095D0 DUP3 PUSH1 0x40 MLOAD PUSH2 0xB25 SWAP2 SWAP1 PUSH2 0x19E0 JUMP JUMPDEST PUSH1 0x40 MLOAD DUP1 SWAP2 SUB SWAP1 LOG1 POP POP POP POP POP POP POP JUMP JUMPDEST PUSH1 0x0 DUP1 PUSH1 0x0 DUP9 DUP2 MSTORE PUSH1 0x20 ADD SWAP1 DUP2 MSTORE PUSH1 0x20 ADD PUSH1 0x0 KECCAK256 PUSH1 0x40 MLOAD DUP1 PUSH2 0x140 ADD PUSH1 0x40 MSTORE SWAP1 DUP2 PUSH1 0x0 DUP3 ADD SLOAD DUP2 MSTORE PUSH1 0x20 ADD PUSH1 0x1 DUP3 ADD PUSH1 0x0 SWAP1 SLOAD SWAP1 PUSH2 0x100 EXP SWAP1 DIV PUSH20 0xFFFFFFFFFFFFFFFFFFFFFFFFFFFFFFFFFFFFFFFF AND PUSH20 0xFFFFFFFFFFFFFFFFFFFFFFFFFFFFFFFFFFFFFFFF AND PUSH20 0xFFFFFFFFFFFFFFFFFFFFFFFFFFFFFFFFFFFFFFFF AND DUP2 MSTORE PUSH1 0x20 ADD PUSH1 0x2 DUP3 ADD PUSH1 0x0 SWAP1 SLOAD SWAP1 PUSH2 0x100 EXP SWAP1 DIV PUSH20 0xFFFFFFFFFFFFFFFFFFFFFFFFFFFFFFFFFFFFFFFF AND PUSH20 0xFFFFFFFFFFFFFFFFFFFFFFFFFFFFFFFFFFFFFFFF AND PUSH20 0xFFFFFFFFFFFFFFFFFFFFFFFFFFFFFFFFFFFFFFFF AND DUP2 MSTORE PUSH1 0x20 ADD PUSH1 0x3 DUP3 ADD PUSH1 0x0 SWAP1 SLOAD SWAP1 PUSH2 0x100 EXP SWAP1 DIV PUSH20 0xFFFFFFFFFFFFFFFFFFFFFFFFFFFFFFFFFFFFFFFF AND PUSH20 0xFFFFFFFFFFFFFFFFFFFFFFFFFFFFFFFFFFFFFFFF AND PUSH20 0xFFFFFFFFFFFFFFFFFFFFFFFFFFFFFFFFFFFFFFFF AND DUP2 MSTORE PUSH1 0x20 ADD PUSH1 0x4 DUP3 ADD SLOAD DUP2 MSTORE PUSH1 0x20 ADD PUSH1 0x5 DUP3 ADD SLOAD DUP2 MSTORE PUSH1 0x20 ADD PUSH1 0x6 DUP3 ADD SLOAD DUP2 MSTORE PUSH1 0x20 ADD PUSH1 0x7 DUP3 ADD SLOAD DUP2 MSTORE PUSH1 0x20 ADD PUSH1 0x8 DUP3 ADD SLOAD DUP2 MSTORE PUSH1 0x20 ADD PUSH1 0x9 DUP3 ADD PUSH1 0x0 SWAP1 SLOAD SWAP1 PUSH2 0x100 EXP SWAP1 DIV PUSH1 0xFF AND PUSH1 0x2 DUP2 GT ISZERO PUSH2 0xCB9 JUMPI PUSH2 0xCB8 PUSH2 0x1EAF JUMP JUMPDEST JUMPDEST PUSH1 0x2 DUP2 GT ISZERO PUSH2 0xCCB JUMPI PUSH2 0xCCA PUSH2 0x1EAF JUMP JUMPDEST JUMPDEST DUP2 MSTORE POP POP SWAP1 POP PUSH1 0x0 DUP8 DUP7 DUP7 DUP10 PUSH1 0x40 MLOAD PUSH1 0x20 ADD PUSH2 0xCEA SWAP5 SWAP4 SWAP3 SWAP2 SWAP1 PUSH2 0x1935 JUMP JUMPDEST PUSH1 0x40 MLOAD PUSH1 0x20 DUP2 DUP4 SUB SUB DUP2 MSTORE SWAP1 PUSH1 0x40 MSTORE DUP1 MLOAD SWAP1 PUSH1 0x20 ADD KECCAK256 SWAP1 POP PUSH2 0xD11 DUP2 DUP6 DUP5 PUSH1 0x40 ADD MLOAD PUSH2 0xF29 JUMP JUMPDEST PUSH2 0xD50 JUMPI PUSH1 0x40 MLOAD PUSH32 0x8C379A000000000000000000000000000000000000000000000000000000000 DUP2 MSTORE PUSH1 0x4 ADD PUSH2 0xD47 SWAP1 PUSH2 0x1C1C JUMP JUMPDEST PUSH1 0x40 MLOAD DUP1 SWAP2 SUB SWAP1 REVERT JUMPDEST PUSH2 0xD5F DUP2 DUP5 DUP5 PUSH1 0x60 ADD MLOAD PUSH2 0xF29 JUMP JUMPDEST PUSH2 0xD9E JUMPI PUSH1 0x40 MLOAD PUSH32 0x8C379A000000000000000000000000000000000000000000000000000000000 DUP2 MSTORE PUSH1 0x4 ADD PUSH2 0xD95 SWAP1 PUSH2 0x1C5C JUMP JUMPDEST PUSH1 0x40 MLOAD DUP1 SWAP2 SUB SWAP1 REVERT JUMPDEST POP POP POP POP POP POP POP POP JUMP JUMPDEST PUSH1 0x0 DUP1 PUSH1 0x0 DUP7 DUP2 MSTORE PUSH1 0x20 ADD SWAP1 DUP2 MSTORE PUSH1 0x20 ADD PUSH1 0x0 KECCAK256 SWAP1 POP DUP1 PUSH1 0x5 ADD SLOAD DUP2 PUSH1 0x4 ADD SLOAD PUSH2 0xDD2 SWAP2 SWAP1 PUSH2 0x1D2E JUMP JUMPDEST DUP3 DUP5 PUSH2 0xDDE SWAP2 SWAP1 PUSH2 0x1D2E JUMP JUMPDEST EQ PUSH2 0xE1E JUMPI PUSH1 0x40 MLOAD PUSH32 0x8C379A000000000000000000000000000000000000000000000000000000000 DUP2 MSTORE PUSH1 0x4 ADD PUSH2 0xE15 SWAP1 PUSH2 0x1B1C JUMP JUMPDEST PUSH1 0x40 MLOAD DUP1 SWAP2 SUB SWAP1 REVERT JUMPDEST DUP4 DUP2 PUSH1 0x6 ADD DUP2 SWAP1 SSTORE POP DUP3 DUP2 PUSH1 0x4 ADD DUP2 SWAP1 SSTORE POP DUP2 DUP2 PUSH1 0x5 ADD DUP2 SWAP1 SSTORE POP PUSH1 0x0 DUP2 PUSH1 0x7 ADD SLOAD EQ ISZERO PUSH2 0xE50 JUMPI TIMESTAMP DUP2 PUSH1 0x7 ADD DUP2 SWAP1 SSTORE POP JUMPDEST PUSH1 0x1 DUP2 PUSH1 0x9 ADD PUSH1 0x0 PUSH2 0x100 EXP DUP2 SLOAD DUP2 PUSH1 0xFF MUL NOT AND SWAP1 DUP4 PUSH1 0x2 DUP2 GT ISZERO PUSH2 0xE78 JUMPI PUSH2 0xE77 PUSH2 0x1EAF JUMP JUMPDEST JUMPDEST MUL OR SWAP1 SSTORE POP POP POP POP POP POP JUMP JUMPDEST PUSH1 0x0 DUP2 GT ISZERO PUSH2 0xF24 JUMPI PUSH1 0x0 DUP4 SWAP1 POP DUP1 PUSH20 0xFFFFFFFFFFFFFFFFFFFFFFFFFFFFFFFFFFFFFFFF AND PUSH4 0x23B872DD DUP5 ADDRESS DUP6 PUSH1 0x40 MLOAD DUP5 PUSH4 0xFFFFFFFF AND PUSH1 0xE0 SHL DUP2 MSTORE PUSH1 0x4 ADD PUSH2 0xECF SWAP4 SWAP3 SWAP2 SWAP1 PUSH2 0x19A9 JUMP JUMPDEST PUSH1 0x20 PUSH1 0x40 MLOAD DUP1 DUP4 SUB DUP2 PUSH1 0x0 DUP8 DUP1 EXTCODESIZE ISZERO DUP1 ISZERO PUSH2 0xEE9 JUMPI PUSH1 0x0 DUP1 REVERT JUMPDEST POP GAS CALL ISZERO DUP1 ISZERO PUSH2 0xEFD JUMPI RETURNDATASIZE PUSH1 0x0 DUP1 RETURNDATACOPY RETURNDATASIZE PUSH1 0x0 REVERT JUMPDEST POP POP POP POP PUSH1 0x40 MLOAD RETURNDATASIZE PUSH1 0x1F NOT PUSH1 0x1F DUP3 ADD AND DUP3 ADD DUP1 PUSH1 0x40 MSTORE POP DUP2 ADD SWAP1 PUSH2 0xF21 SWAP2 SWAP1 PUSH2 0x14C8 JUMP JUMPDEST POP POP JUMPDEST POP POP POP JUMP JUMPDEST PUSH1 0x0 DUP1 PUSH2 0xF35 DUP6 PUSH2 0xF82 JUMP JUMPDEST SWAP1 POP DUP3 PUSH20 0xFFFFFFFFFFFFFFFFFFFFFFFFFFFFFFFFFFFFFFFF AND PUSH2 0xF61 DUP6 DUP4 PUSH2 0xFB2 SWAP1 SWAP2 SWAP1 PUSH4 0xFFFFFFFF AND JUMP JUMPDEST PUSH20 0xFFFFFFFFFFFFFFFFFFFFFFFFFFFFFFFFFFFFFFFF AND EQ SWAP2 POP POP SWAP4 SWAP3 POP POP POP JUMP JUMPDEST PUSH1 0x0 DUP2 PUSH1 0x40 MLOAD PUSH1 0x20 ADD PUSH2 0xF95 SWAP2 SWAP1 PUSH2 0x1983 JUMP JUMPDEST PUSH1 0x40 MLOAD PUSH1 0x20 DUP2 DUP4 SUB SUB DUP2 MSTORE SWAP1 PUSH1 0x40 MSTORE DUP1 MLOAD SWAP1 PUSH1 0x20 ADD KECCAK256 SWAP1 POP SWAP2 SWAP1 POP JUMP JUMPDEST PUSH1 0x0 DUP1 PUSH1 0x0 PUSH2 0xFC1 DUP6 DUP6 PUSH2 0xFD9 JUMP JUMPDEST SWAP2 POP SWAP2 POP PUSH2 0xFCE DUP2 PUSH2 0x105C JUMP JUMPDEST DUP2 SWAP3 POP POP POP SWAP3 SWAP2 POP POP JUMP JUMPDEST PUSH1 0x0 DUP1 PUSH1 0x41 DUP4 MLOAD EQ ISZERO PUSH2 0x101B JUMPI PUSH1 0x0 DUP1 PUSH1 0x0 PUSH1 0x20 DUP7 ADD MLOAD SWAP3 POP PUSH1 0x40 DUP7 ADD MLOAD SWAP2 POP PUSH1 0x60 DUP7 ADD MLOAD PUSH1 0x0 BYTE SWAP1 POP PUSH2 0x100F DUP8 DUP3 DUP6 DUP6 PUSH2 0x1231 JUMP JUMPDEST SWAP5 POP SWAP5 POP POP POP POP PUSH2 0x1055 JUMP JUMPDEST PUSH1 0x40 DUP4 MLOAD EQ ISZERO PUSH2 0x104C JUMPI PUSH1 0x0 DUP1 PUSH1 0x20 DUP6 ADD MLOAD SWAP2 POP PUSH1 0x40 DUP6 ADD MLOAD SWAP1 POP PUSH2 0x1041 DUP7 DUP4 DUP4 PUSH2 0x133E JUMP JUMPDEST SWAP4 POP SWAP4 POP POP POP PUSH2 0x1055 JUMP JUMPDEST PUSH1 0x0 PUSH1 0x2 SWAP2 POP SWAP2 POP JUMPDEST SWAP3 POP SWAP3 SWAP1 POP JUMP JUMPDEST PUSH1 0x0 PUSH1 0x4 DUP2 GT ISZERO PUSH2 0x1070 JUMPI PUSH2 0x106F PUSH2 0x1EAF JUMP JUMPDEST JUMPDEST DUP2 PUSH1 0x4 DUP2 GT ISZERO PUSH2 0x1083 JUMPI PUSH2 0x1082 PUSH2 0x1EAF JUMP JUMPDEST JUMPDEST EQ ISZERO PUSH2 0x108E JUMPI PUSH2 0x122E JUMP JUMPDEST PUSH1 0x1 PUSH1 0x4 DUP2 GT ISZERO PUSH2 0x10A2 JUMPI PUSH2 0x10A1 PUSH2 0x1EAF JUMP JUMPDEST JUMPDEST DUP2 PUSH1 0x4 DUP2 GT ISZERO PUSH2 0x10B5 JUMPI PUSH2 0x10B4 PUSH2 0x1EAF JUMP JUMPDEST JUMPDEST EQ ISZERO PUSH2 0x10F6 JUMPI PUSH1 0x40 MLOAD PUSH32 0x8C379A000000000000000000000000000000000000000000000000000000000 DUP2 MSTORE PUSH1 0x4 ADD PUSH2 0x10ED SWAP1 PUSH2 0x1ADC JUMP JUMPDEST PUSH1 0x40 MLOAD DUP1 SWAP2 SUB SWAP1 REVERT JUMPDEST PUSH1 0x2 PUSH1 0x4 DUP2 GT ISZERO PUSH2 0x110A JUMPI PUSH2 0x1109 PUSH2 0x1EAF JUMP JUMPDEST JUMPDEST DUP2 PUSH1 0x4 DUP2 GT ISZERO PUSH2 0x111D JUMPI PUSH2 0x111C PUSH2 0x1EAF JUMP JUMPDEST JUMPDEST EQ ISZERO PUSH2 0x115E JUMPI PUSH1 0x40 MLOAD PUSH32 0x8C379A000000000000000000000000000000000000000000000000000000000 DUP2 MSTORE PUSH1 0x4 ADD PUSH2 0x1155 SWAP1 PUSH2 0x1B3C JUMP JUMPDEST PUSH1 0x40 MLOAD DUP1 SWAP2 SUB SWAP1 REVERT JUMPDEST PUSH1 0x3 PUSH1 0x4 DUP2 GT ISZERO PUSH2 0x1172 JUMPI PUSH2 0x1171 PUSH2 0x1EAF JUMP JUMPDEST JUMPDEST DUP2 PUSH1 0x4 DUP2 GT ISZERO PUSH2 0x1185 JUMPI PUSH2 0x1184 PUSH2 0x1EAF JUMP JUMPDEST JUMPDEST EQ ISZERO PUSH2 0x11C6 JUMPI PUSH1 0x40 MLOAD PUSH32 0x8C379A000000000000000000000000000000000000000000000000000000000 DUP2 MSTORE PUSH1 0x4 ADD PUSH2 0x11BD SWAP1 PUSH2 0x1BBC JUMP JUMPDEST PUSH1 0x40 MLOAD DUP1 SWAP2 SUB SWAP1 REVERT JUMPDEST PUSH1 0x4 DUP1 DUP2 GT ISZERO PUSH2 0x11D9 JUMPI PUSH2 0x11D8 PUSH2 0x1EAF JUMP JUMPDEST JUMPDEST DUP2 PUSH1 0x4 DUP2 GT ISZERO PUSH2 0x11EC JUMPI PUSH2 0x11EB PUSH2 0x1EAF JUMP JUMPDEST JUMPDEST EQ ISZERO PUSH2 0x122D JUMPI PUSH1 0x40 MLOAD PUSH32 0x8C379A000000000000000000000000000000000000000000000000000000000 DUP2 MSTORE PUSH1 0x4 ADD PUSH2 0x1224 SWAP1 PUSH2 0x1BFC JUMP JUMPDEST PUSH1 0x40 MLOAD DUP1 SWAP2 SUB SWAP1 REVERT JUMPDEST JUMPDEST POP JUMP JUMPDEST PUSH1 0x0 DUP1 PUSH32 0x7FFFFFFFFFFFFFFFFFFFFFFFFFFFFFFF5D576E7357A4501DDFE92F46681B20A0 DUP4 PUSH1 0x0 SHR GT ISZERO PUSH2 0x126C JUMPI PUSH1 0x0 PUSH1 0x3 SWAP2 POP SWAP2 POP PUSH2 0x1335 JUMP JUMPDEST PUSH1 0x1B DUP6 PUSH1 0xFF AND EQ ISZERO DUP1 ISZERO PUSH2 0x1284 JUMPI POP PUSH1 0x1C DUP6 PUSH1 0xFF AND EQ ISZERO JUMPDEST ISZERO PUSH2 0x1296 JUMPI PUSH1 0x0 PUSH1 0x4 SWAP2 POP SWAP2 POP PUSH2 0x1335 JUMP JUMPDEST PUSH1 0x0 PUSH1 0x1 DUP8 DUP8 DUP8 DUP8 PUSH1 0x40 MLOAD PUSH1 0x0 DUP2 MSTORE PUSH1 0x20 ADD PUSH1 0x40 MSTORE PUSH1 0x40 MLOAD PUSH2 0x12BB SWAP5 SWAP4 SWAP3 SWAP2 SWAP1 PUSH2 0x1A97 JUMP JUMPDEST PUSH1 0x20 PUSH1 0x40 MLOAD PUSH1 0x20 DUP2 SUB SWAP1 DUP1 DUP5 SUB SWAP1 DUP6 GAS STATICCALL ISZERO DUP1 ISZERO PUSH2 0x12DD JUMPI RETURNDATASIZE PUSH1 0x0 DUP1 RETURNDATACOPY RETURNDATASIZE PUSH1 0x0 REVERT JUMPDEST POP POP POP PUSH1 0x20 PUSH1 0x40 MLOAD SUB MLOAD SWAP1 POP PUSH1 0x0 PUSH20 0xFFFFFFFFFFFFFFFFFFFFFFFFFFFFFFFFFFFFFFFF AND DUP2 PUSH20 0xFFFFFFFFFFFFFFFFFFFFFFFFFFFFFFFFFFFFFFFF AND EQ ISZERO PUSH2 0x132C JUMPI PUSH1 0x0 PUSH1 0x1 SWAP3 POP SWAP3 POP POP PUSH2 0x1335 JUMP JUMPDEST DUP1 PUSH1 0x0 SWAP3 POP SWAP3 POP POP JUMPDEST SWAP5 POP SWAP5 SWAP3 POP POP POP JUMP JUMPDEST PUSH1 0x0 DUP1 PUSH1 0x0 PUSH32 0x7FFFFFFFFFFFFFFFFFFFFFFFFFFFFFFFFFFFFFFFFFFFFFFFFFFFFFFFFFFFFFFF PUSH1 0x0 SHL DUP5 AND SWAP1 POP PUSH1 0x0 PUSH1 0x1B PUSH1 0xFF DUP7 PUSH1 0x0 SHR SWAP1 SHR PUSH2 0x1381 SWAP2 SWAP1 PUSH2 0x1D2E JUMP JUMPDEST SWAP1 POP PUSH2 0x138F DUP8 DUP3 DUP9 DUP6 PUSH2 0x1231 JUMP JUMPDEST SWAP4 POP SWAP4 POP POP POP SWAP4 POP SWAP4 SWAP2 POP POP JUMP JUMPDEST PUSH1 0x0 PUSH2 0x13B0 PUSH2 0x13AB DUP5 PUSH2 0x1CE1 JUMP JUMPDEST PUSH2 0x1CBC JUMP JUMPDEST SWAP1 POP DUP3 DUP2 MSTORE PUSH1 0x20 DUP2 ADD DUP5 DUP5 DUP5 ADD GT ISZERO PUSH2 0x13CC JUMPI PUSH2 0x13CB PUSH2 0x1F12 JUMP JUMPDEST JUMPDEST PUSH2 0x13D7 DUP5 DUP3 DUP6 PUSH2 0x1E08 JUMP JUMPDEST POP SWAP4 SWAP3 POP POP POP JUMP JUMPDEST PUSH1 0x0 DUP2 CALLDATALOAD SWAP1 POP PUSH2 0x13EE DUP2 PUSH2 0x22ED JUMP JUMPDEST SWAP3 SWAP2 POP POP JUMP JUMPDEST PUSH1 0x0 DUP2 MLOAD SWAP1 POP PUSH2 0x1403 DUP2 PUSH2 0x2304 JUMP JUMPDEST SWAP3 SWAP2 POP POP JUMP JUMPDEST PUSH1 0x0 DUP2 CALLDATALOAD SWAP1 POP PUSH2 0x1418 DUP2 PUSH2 0x231B JUMP JUMPDEST SWAP3 SWAP2 POP POP JUMP JUMPDEST PUSH1 0x0 DUP3 PUSH1 0x1F DUP4 ADD SLT PUSH2 0x1433 JUMPI PUSH2 0x1432 PUSH2 0x1F0D JUMP JUMPDEST JUMPDEST DUP2 CALLDATALOAD PUSH2 0x1443 DUP5 DUP3 PUSH1 0x20 DUP7 ADD PUSH2 0x139D JUMP JUMPDEST SWAP2 POP POP SWAP3 SWAP2 POP POP JUMP JUMPDEST PUSH1 0x0 DUP2 CALLDATALOAD SWAP1 POP PUSH2 0x145B DUP2 PUSH2 0x2332 JUMP JUMPDEST SWAP3 SWAP2 POP POP JUMP JUMPDEST PUSH1 0x0 DUP1 PUSH1 0x0 DUP1 PUSH1 0x80 DUP6 DUP8 SUB SLT ISZERO PUSH2 0x147B JUMPI PUSH2 0x147A PUSH2 0x1F1C JUMP JUMPDEST JUMPDEST PUSH1 0x0 PUSH2 0x1489 DUP8 DUP3 DUP9 ADD PUSH2 0x13DF JUMP JUMPDEST SWAP5 POP POP PUSH1 0x20 PUSH2 0x149A DUP8 DUP3 DUP9 ADD PUSH2 0x13DF JUMP JUMPDEST SWAP4 POP POP PUSH1 0x40 PUSH2 0x14AB DUP8 DUP3 DUP9 ADD PUSH2 0x144C JUMP JUMPDEST SWAP3 POP POP PUSH1 0x60 PUSH2 0x14BC DUP8 DUP3 DUP9 ADD PUSH2 0x144C JUMP JUMPDEST SWAP2 POP POP SWAP3 SWAP6 SWAP2 SWAP5 POP SWAP3 POP JUMP JUMPDEST PUSH1 0x0 PUSH1 0x20 DUP3 DUP5 SUB SLT ISZERO PUSH2 0x14DE JUMPI PUSH2 0x14DD PUSH2 0x1F1C JUMP JUMPDEST JUMPDEST PUSH1 0x0 PUSH2 0x14EC DUP5 DUP3 DUP6 ADD PUSH2 0x13F4 JUMP JUMPDEST SWAP2 POP POP SWAP3 SWAP2 POP POP JUMP JUMPDEST PUSH1 0x0 PUSH1 0x20 DUP3 DUP5 SUB SLT ISZERO PUSH2 0x150B JUMPI PUSH2 0x150A PUSH2 0x1F1C JUMP JUMPDEST JUMPDEST PUSH1 0x0 PUSH2 0x1519 DUP5 DUP3 DUP6 ADD PUSH2 0x1409 JUMP JUMPDEST SWAP2 POP POP SWAP3 SWAP2 POP POP JUMP JUMPDEST PUSH1 0x0 DUP1 PUSH1 0x40 DUP4 DUP6 SUB SLT ISZERO PUSH2 0x1539 JUMPI PUSH2 0x1538 PUSH2 0x1F1C JUMP JUMPDEST JUMPDEST PUSH1 0x0 PUSH2 0x1547 DUP6 DUP3 DUP7 ADD PUSH2 0x1409 JUMP JUMPDEST SWAP3 POP POP PUSH1 0x20 PUSH2 0x1558 DUP6 DUP3 DUP7 ADD PUSH2 0x144C JUMP JUMPDEST SWAP2 POP POP SWAP3 POP SWAP3 SWAP1 POP JUMP JUMPDEST PUSH1 0x0 DUP1 PUSH1 0x0 DUP1 PUSH1 0x0 DUP1 PUSH1 0xC0 DUP8 DUP10 SUB SLT ISZERO PUSH2 0x157F JUMPI PUSH2 0x157E PUSH2 0x1F1C JUMP JUMPDEST JUMPDEST PUSH1 0x0 PUSH2 0x158D DUP10 DUP3 DUP11 ADD PUSH2 0x1409 JUMP JUMPDEST SWAP7 POP POP PUSH1 0x20 PUSH2 0x159E DUP10 DUP3 DUP11 ADD PUSH2 0x144C JUMP JUMPDEST SWAP6 POP POP PUSH1 0x40 PUSH2 0x15AF DUP10 DUP3 DUP11 ADD PUSH2 0x144C JUMP JUMPDEST SWAP5 POP POP PUSH1 0x60 PUSH2 0x15C0 DUP10 DUP3 DUP11 ADD PUSH2 0x144C JUMP JUMPDEST SWAP4 POP POP PUSH1 0x80 DUP8 ADD CALLDATALOAD PUSH8 0xFFFFFFFFFFFFFFFF DUP2 GT ISZERO PUSH2 0x15E1 JUMPI PUSH2 0x15E0 PUSH2 0x1F17 JUMP JUMPDEST JUMPDEST PUSH2 0x15ED DUP10 DUP3 DUP11 ADD PUSH2 0x141E JUMP JUMPDEST SWAP3 POP POP PUSH1 0xA0 DUP8 ADD CALLDATALOAD PUSH8 0xFFFFFFFFFFFFFFFF DUP2 GT ISZERO PUSH2 0x160E JUMPI PUSH2 0x160D PUSH2 0x1F17 JUMP JUMPDEST JUMPDEST PUSH2 0x161A DUP10 DUP3 DUP11 ADD PUSH2 0x141E JUMP JUMPDEST SWAP2 POP POP SWAP3 SWAP6 POP SWAP3 SWAP6 POP SWAP3 SWAP6 JUMP JUMPDEST PUSH2 0x1630 DUP2 PUSH2 0x1D84 JUMP JUMPDEST DUP3 MSTORE POP POP JUMP JUMPDEST PUSH2 0x1647 PUSH2 0x1642 DUP3 PUSH2 0x1D84 JUMP JUMPDEST PUSH2 0x1E48 JUMP JUMPDEST DUP3 MSTORE POP POP JUMP JUMPDEST PUSH2 0x1656 DUP2 PUSH2 0x1DA2 JUMP JUMPDEST DUP3 MSTORE POP POP JUMP JUMPDEST PUSH2 0x166D PUSH2 0x1668 DUP3 PUSH2 0x1DA2 JUMP JUMPDEST PUSH2 0x1E5A JUMP JUMPDEST DUP3 MSTORE POP POP JUMP JUMPDEST PUSH2 0x167C DUP2 PUSH2 0x1DF6 JUMP JUMPDEST DUP3 MSTORE POP POP JUMP JUMPDEST PUSH1 0x0 PUSH2 0x168F PUSH1 0x18 DUP4 PUSH2 0x1D12 JUMP JUMPDEST SWAP2 POP PUSH2 0x169A DUP3 PUSH2 0x1F3F JUMP JUMPDEST PUSH1 0x20 DUP3 ADD SWAP1 POP SWAP2 SWAP1 POP JUMP JUMPDEST PUSH1 0x0 PUSH2 0x16B2 PUSH1 0x25 DUP4 PUSH2 0x1D12 JUMP JUMPDEST SWAP2 POP PUSH2 0x16BD DUP3 PUSH2 0x1F68 JUMP JUMPDEST PUSH1 0x40 DUP3 ADD SWAP1 POP SWAP2 SWAP1 POP JUMP JUMPDEST PUSH1 0x0 PUSH2 0x16D5 PUSH1 0x3C DUP4 PUSH2 0x1D12 JUMP JUMPDEST SWAP2 POP PUSH2 0x16E0 DUP3 PUSH2 0x1FB7 JUMP JUMPDEST PUSH1 0x40 DUP3 ADD SWAP1 POP SWAP2 SWAP1 POP JUMP JUMPDEST PUSH1 0x0 PUSH2 0x16F8 PUSH1 0x1F DUP4 PUSH2 0x1D12 JUMP JUMPDEST SWAP2 POP PUSH2 0x1703 DUP3 PUSH2 0x2006 JUMP JUMPDEST PUSH1 0x20 DUP3 ADD SWAP1 POP SWAP2 SWAP1 POP JUMP JUMPDEST PUSH1 0x0 PUSH2 0x171B PUSH1 0x1C DUP4 PUSH2 0x1D23 JUMP JUMPDEST SWAP2 POP PUSH2 0x1726 DUP3 PUSH2 0x202F JUMP JUMPDEST PUSH1 0x1C DUP3 ADD SWAP1 POP SWAP2 SWAP1 POP JUMP JUMPDEST PUSH1 0x0 PUSH2 0x173E PUSH1 0x16 DUP4 PUSH2 0x1D12 JUMP JUMPDEST SWAP2 POP PUSH2 0x1749 DUP3 PUSH2 0x2058 JUMP JUMPDEST PUSH1 0x20 DUP3 ADD SWAP1 POP SWAP2 SWAP1 POP JUMP JUMPDEST PUSH1 0x0 PUSH2 0x1761 PUSH1 0x26 DUP4 PUSH2 0x1D12 JUMP JUMPDEST SWAP2 POP PUSH2 0x176C DUP3 PUSH2 0x2081 JUMP JUMPDEST PUSH1 0x40 DUP3 ADD SWAP1 POP SWAP2 SWAP1 POP JUMP JUMPDEST PUSH1 0x0 PUSH2 0x1784 PUSH1 0x16 DUP4 PUSH2 0x1D12 JUMP JUMPDEST SWAP2 POP PUSH2 0x178F DUP3 PUSH2 0x20D0 JUMP JUMPDEST PUSH1 0x20 DUP3 ADD SWAP1 POP SWAP2 SWAP1 POP JUMP JUMPDEST PUSH1 0x0 PUSH2 0x17A7 PUSH1 0x22 DUP4 PUSH2 0x1D12 JUMP JUMPDEST SWAP2 POP PUSH2 0x17B2 DUP3 PUSH2 0x20F9 JUMP JUMPDEST PUSH1 0x40 DUP3 ADD SWAP1 POP SWAP2 SWAP1 POP JUMP JUMPDEST PUSH1 0x0 PUSH2 0x17CA PUSH1 0x28 DUP4 PUSH2 0x1D12 JUMP JUMPDEST SWAP2 POP PUSH2 0x17D5 DUP3 PUSH2 0x2148 JUMP JUMPDEST PUSH1 0x40 DUP3 ADD SWAP1 POP SWAP2 SWAP1 POP JUMP JUMPDEST PUSH1 0x0 PUSH2 0x17ED PUSH1 0x22 DUP4 PUSH2 0x1D12 JUMP JUMPDEST SWAP2 POP PUSH2 0x17F8 DUP3 PUSH2 0x2197 JUMP JUMPDEST PUSH1 0x40 DUP3 ADD SWAP1 POP SWAP2 SWAP1 POP JUMP JUMPDEST PUSH1 0x0 PUSH2 0x1810 PUSH1 0x1A DUP4 PUSH2 0x1D12 JUMP JUMPDEST SWAP2 POP PUSH2 0x181B DUP3 PUSH2 0x21E6 JUMP JUMPDEST PUSH1 0x20 DUP3 ADD SWAP1 POP SWAP2 SWAP1 POP JUMP JUMPDEST PUSH1 0x0 PUSH2 0x1833 PUSH1 0x17 DUP4 PUSH2 0x1D12 JUMP JUMPDEST SWAP2 POP PUSH2 0x183E DUP3 PUSH2 0x220F JUMP JUMPDEST PUSH1 0x20 DUP3 ADD SWAP1 POP SWAP2 SWAP1 POP JUMP JUMPDEST PUSH1 0x0 PUSH2 0x1856 PUSH1 0x1B DUP4 PUSH2 0x1D12 JUMP JUMPDEST SWAP2 POP PUSH2 0x1861 DUP3 PUSH2 0x2238 JUMP JUMPDEST PUSH1 0x20 DUP3 ADD SWAP1 POP SWAP2 SWAP1 POP JUMP JUMPDEST PUSH1 0x0 PUSH2 0x1879 PUSH1 0x11 DUP4 PUSH2 0x1D12 JUMP JUMPDEST SWAP2 POP PUSH2 0x1884 DUP3 PUSH2 0x2261 JUMP JUMPDEST PUSH1 0x20 DUP3 ADD SWAP1 POP SWAP2 SWAP1 POP JUMP JUMPDEST PUSH1 0x0 PUSH2 0x189C PUSH1 0x31 DUP4 PUSH2 0x1D12 JUMP JUMPDEST SWAP2 POP PUSH2 0x18A7 DUP3 PUSH2 0x228A JUMP JUMPDEST PUSH1 0x40 DUP3 ADD SWAP1 POP SWAP2 SWAP1 POP JUMP JUMPDEST PUSH2 0x18BB DUP2 PUSH2 0x1DDF JUMP JUMPDEST DUP3 MSTORE POP POP JUMP JUMPDEST PUSH2 0x18D2 PUSH2 0x18CD DUP3 PUSH2 0x1DDF JUMP JUMPDEST PUSH2 0x1E76 JUMP JUMPDEST DUP3 MSTORE POP POP JUMP JUMPDEST PUSH2 0x18E1 DUP2 PUSH2 0x1DE9 JUMP JUMPDEST DUP3 MSTORE POP POP JUMP JUMPDEST PUSH1 0x0 PUSH2 0x18F3 DUP3 DUP8 PUSH2 0x1636 JUMP JUMPDEST PUSH1 0x14 DUP3 ADD SWAP2 POP PUSH2 0x1903 DUP3 DUP7 PUSH2 0x1636 JUMP JUMPDEST PUSH1 0x14 DUP3 ADD SWAP2 POP PUSH2 0x1913 DUP3 DUP6 PUSH2 0x1636 JUMP JUMPDEST PUSH1 0x14 DUP3 ADD SWAP2 POP PUSH2 0x1923 DUP3 DUP5 PUSH2 0x18C1 JUMP JUMPDEST PUSH1 0x20 DUP3 ADD SWAP2 POP DUP2 SWAP1 POP SWAP6 SWAP5 POP POP POP POP POP JUMP JUMPDEST PUSH1 0x0 PUSH2 0x1941 DUP3 DUP8 PUSH2 0x165C JUMP JUMPDEST PUSH1 0x20 DUP3 ADD SWAP2 POP PUSH2 0x1951 DUP3 DUP7 PUSH2 0x18C1 JUMP JUMPDEST PUSH1 0x20 DUP3 ADD SWAP2 POP PUSH2 0x1961 DUP3 DUP6 PUSH2 0x18C1 JUMP JUMPDEST PUSH1 0x20 DUP3 ADD SWAP2 POP PUSH2 0x1971 DUP3 DUP5 PUSH2 0x18C1 JUMP JUMPDEST PUSH1 0x20 DUP3 ADD SWAP2 POP DUP2 SWAP1 POP SWAP6 SWAP5 POP POP POP POP POP JUMP JUMPDEST PUSH1 0x0 PUSH2 0x198E DUP3 PUSH2 0x170E JUMP JUMPDEST SWAP2 POP PUSH2 0x199A DUP3 DUP5 PUSH2 0x165C JUMP JUMPDEST PUSH1 0x20 DUP3 ADD SWAP2 POP DUP2 SWAP1 POP SWAP3 SWAP2 POP POP JUMP JUMPDEST PUSH1 0x0 PUSH1 0x60 DUP3 ADD SWAP1 POP PUSH2 0x19BE PUSH1 0x0 DUP4 ADD DUP7 PUSH2 0x1627 JUMP JUMPDEST PUSH2 0x19CB PUSH1 0x20 DUP4 ADD DUP6 PUSH2 0x1627 JUMP JUMPDEST PUSH2 0x19D8 PUSH1 0x40 DUP4 ADD DUP5 PUSH2 0x18B2 JUMP JUMPDEST SWAP5 SWAP4 POP POP POP POP JUMP JUMPDEST PUSH1 0x0 PUSH1 0x20 DUP3 ADD SWAP1 POP PUSH2 0x19F5 PUSH1 0x0 DUP4 ADD DUP5 PUSH2 0x164D JUMP JUMPDEST SWAP3 SWAP2 POP POP JUMP JUMPDEST PUSH1 0x0 PUSH2 0x140 DUP3 ADD SWAP1 POP PUSH2 0x1A11 PUSH1 0x0 DUP4 ADD DUP14 PUSH2 0x164D JUMP JUMPDEST PUSH2 0x1A1E PUSH1 0x20 DUP4 ADD DUP13 PUSH2 0x1627 JUMP JUMPDEST PUSH2 0x1A2B PUSH1 0x40 DUP4 ADD DUP12 PUSH2 0x1627 JUMP JUMPDEST PUSH2 0x1A38 PUSH1 0x60 DUP4 ADD DUP11 PUSH2 0x1627 JUMP JUMPDEST PUSH2 0x1A45 PUSH1 0x80 DUP4 ADD DUP10 PUSH2 0x18B2 JUMP JUMPDEST PUSH2 0x1A52 PUSH1 0xA0 DUP4 ADD DUP9 PUSH2 0x18B2 JUMP JUMPDEST PUSH2 0x1A5F PUSH1 0xC0 DUP4 ADD DUP8 PUSH2 0x18B2 JUMP JUMPDEST PUSH2 0x1A6C PUSH1 0xE0 DUP4 ADD DUP7 PUSH2 0x18B2 JUMP JUMPDEST PUSH2 0x1A7A PUSH2 0x100 DUP4 ADD DUP6 PUSH2 0x18B2 JUMP JUMPDEST PUSH2 0x1A88 PUSH2 0x120 DUP4 ADD DUP5 PUSH2 0x1673 JUMP JUMPDEST SWAP12 SWAP11 POP POP POP POP POP POP POP POP POP POP POP JUMP JUMPDEST PUSH1 0x0 PUSH1 0x80 DUP3 ADD SWAP1 POP PUSH2 0x1AAC PUSH1 0x0 DUP4 ADD DUP8 PUSH2 0x164D JUMP JUMPDEST PUSH2 0x1AB9 PUSH1 0x20 DUP4 ADD DUP7 PUSH2 0x18D8 JUMP JUMPDEST PUSH2 0x1AC6 PUSH1 0x40 DUP4 ADD DUP6 PUSH2 0x164D JUMP JUMPDEST PUSH2 0x1AD3 PUSH1 0x60 DUP4 ADD DUP5 PUSH2 0x164D JUMP JUMPDEST SWAP6 SWAP5 POP POP POP POP POP JUMP JUMPDEST PUSH1 0x0 PUSH1 0x20 DUP3 ADD SWAP1 POP DUP2 DUP2 SUB PUSH1 0x0 DUP4 ADD MSTORE PUSH2 0x1AF5 DUP2 PUSH2 0x1682 JUMP JUMPDEST SWAP1 POP SWAP2 SWAP1 POP JUMP JUMPDEST PUSH1 0x0 PUSH1 0x20 DUP3 ADD SWAP1 POP DUP2 DUP2 SUB PUSH1 0x0 DUP4 ADD MSTORE PUSH2 0x1B15 DUP2 PUSH2 0x16A5 JUMP JUMPDEST SWAP1 POP SWAP2 SWAP1 POP JUMP JUMPDEST PUSH1 0x0 PUSH1 0x20 DUP3 ADD SWAP1 POP DUP2 DUP2 SUB PUSH1 0x0 DUP4 ADD MSTORE PUSH2 0x1B35 DUP2 PUSH2 0x16C8 JUMP JUMPDEST SWAP1 POP SWAP2 SWAP1 POP JUMP JUMPDEST PUSH1 0x0 PUSH1 0x20 DUP3 ADD SWAP1 POP DUP2 DUP2 SUB PUSH1 0x0 DUP4 ADD MSTORE PUSH2 0x1B55 DUP2 PUSH2 0x16EB JUMP JUMPDEST SWAP1 POP SWAP2 SWAP1 POP JUMP JUMPDEST PUSH1 0x0 PUSH1 0x20 DUP3 ADD SWAP1 POP DUP2 DUP2 SUB PUSH1 0x0 DUP4 ADD MSTORE PUSH2 0x1B75 DUP2 PUSH2 0x1731 JUMP JUMPDEST SWAP1 POP SWAP2 SWAP1 POP JUMP JUMPDEST PUSH1 0x0 PUSH1 0x20 DUP3 ADD SWAP1 POP DUP2 DUP2 SUB PUSH1 0x0 DUP4 ADD MSTORE PUSH2 0x1B95 DUP2 PUSH2 0x1754 JUMP JUMPDEST SWAP1 POP SWAP2 SWAP1 POP JUMP JUMPDEST PUSH1 0x0 PUSH1 0x20 DUP3 ADD SWAP1 POP DUP2 DUP2 SUB PUSH1 0x0 DUP4 ADD MSTORE PUSH2 0x1BB5 DUP2 PUSH2 0x1777 JUMP JUMPDEST SWAP1 POP SWAP2 SWAP1 POP JUMP JUMPDEST PUSH1 0x0 PUSH1 0x20 DUP3 ADD SWAP1 POP DUP2 DUP2 SUB PUSH1 0x0 DUP4 ADD MSTORE PUSH2 0x1BD5 DUP2 PUSH2 0x179A JUMP JUMPDEST SWAP1 POP SWAP2 SWAP1 POP JUMP JUMPDEST PUSH1 0x0 PUSH1 0x20 DUP3 ADD SWAP1 POP DUP2 DUP2 SUB PUSH1 0x0 DUP4 ADD MSTORE PUSH2 0x1BF5 DUP2 PUSH2 0x17BD JUMP JUMPDEST SWAP1 POP SWAP2 SWAP1 POP JUMP JUMPDEST PUSH1 0x0 PUSH1 0x20 DUP3 ADD SWAP1 POP DUP2 DUP2 SUB PUSH1 0x0 DUP4 ADD MSTORE PUSH2 0x1C15 DUP2 PUSH2 0x17E0 JUMP JUMPDEST SWAP1 POP SWAP2 SWAP1 POP JUMP JUMPDEST PUSH1 0x0 PUSH1 0x20 DUP3 ADD SWAP1 POP DUP2 DUP2 SUB PUSH1 0x0 DUP4 ADD MSTORE PUSH2 0x1C35 DUP2 PUSH2 0x1803 JUMP JUMPDEST SWAP1 POP SWAP2 SWAP1 POP JUMP JUMPDEST PUSH1 0x0 PUSH1 0x20 DUP3 ADD SWAP1 POP DUP2 DUP2 SUB PUSH1 0x0 DUP4 ADD MSTORE PUSH2 0x1C55 DUP2 PUSH2 0x1826 JUMP JUMPDEST SWAP1 POP SWAP2 SWAP1 POP JUMP JUMPDEST PUSH1 0x0 PUSH1 0x20 DUP3 ADD SWAP1 POP DUP2 DUP2 SUB PUSH1 0x0 DUP4 ADD MSTORE PUSH2 0x1C75 DUP2 PUSH2 0x1849 JUMP JUMPDEST SWAP1 POP SWAP2 SWAP1 POP JUMP JUMPDEST PUSH1 0x0 PUSH1 0x20 DUP3 ADD SWAP1 POP DUP2 DUP2 SUB PUSH1 0x0 DUP4 ADD MSTORE PUSH2 0x1C95 DUP2 PUSH2 0x186C JUMP JUMPDEST SWAP1 POP SWAP2 SWAP1 POP JUMP JUMPDEST PUSH1 0x0 PUSH1 0x20 DUP3 ADD SWAP1 POP DUP2 DUP2 SUB PUSH1 0x0 DUP4 ADD MSTORE PUSH2 0x1CB5 DUP2 PUSH2 0x188F JUMP JUMPDEST SWAP1 POP SWAP2 SWAP1 POP JUMP JUMPDEST PUSH1 0x0 PUSH2 0x1CC6 PUSH2 0x1CD7 JUMP JUMPDEST SWAP1 POP PUSH2 0x1CD2 DUP3 DUP3 PUSH2 0x1E17 JUMP JUMPDEST SWAP2 SWAP1 POP JUMP JUMPDEST PUSH1 0x0 PUSH1 0x40 MLOAD SWAP1 POP SWAP1 JUMP JUMPDEST PUSH1 0x0 PUSH8 0xFFFFFFFFFFFFFFFF DUP3 GT ISZERO PUSH2 0x1CFC JUMPI PUSH2 0x1CFB PUSH2 0x1EDE JUMP JUMPDEST JUMPDEST PUSH2 0x1D05 DUP3 PUSH2 0x1F21 JUMP JUMPDEST SWAP1 POP PUSH1 0x20 DUP2 ADD SWAP1 POP SWAP2 SWAP1 POP JUMP JUMPDEST PUSH1 0x0 DUP3 DUP3 MSTORE PUSH1 0x20 DUP3 ADD SWAP1 POP SWAP3 SWAP2 POP POP JUMP JUMPDEST PUSH1 0x0 DUP2 SWAP1 POP SWAP3 SWAP2 POP POP JUMP JUMPDEST PUSH1 0x0 PUSH2 0x1D39 DUP3 PUSH2 0x1DDF JUMP JUMPDEST SWAP2 POP PUSH2 0x1D44 DUP4 PUSH2 0x1DDF JUMP JUMPDEST SWAP3 POP DUP3 PUSH32 0xFFFFFFFFFFFFFFFFFFFFFFFFFFFFFFFFFFFFFFFFFFFFFFFFFFFFFFFFFFFFFFFF SUB DUP3 GT ISZERO PUSH2 0x1D79 JUMPI PUSH2 0x1D78 PUSH2 0x1E80 JUMP JUMPDEST JUMPDEST DUP3 DUP3 ADD SWAP1 POP SWAP3 SWAP2 POP POP JUMP JUMPDEST PUSH1 0x0 PUSH2 0x1D8F DUP3 PUSH2 0x1DBF JUMP JUMPDEST SWAP1 POP SWAP2 SWAP1 POP JUMP JUMPDEST PUSH1 0x0 DUP2 ISZERO ISZERO SWAP1 POP SWAP2 SWAP1 POP JUMP JUMPDEST PUSH1 0x0 DUP2 SWAP1 POP SWAP2 SWAP1 POP JUMP JUMPDEST PUSH1 0x0 DUP2 SWAP1 POP PUSH2 0x1DBA DUP3 PUSH2 0x22D9 JUMP JUMPDEST SWAP2 SWAP1 POP JUMP JUMPDEST PUSH1 0x0 PUSH20 0xFFFFFFFFFFFFFFFFFFFFFFFFFFFFFFFFFFFFFFFF DUP3 AND SWAP1 POP SWAP2 SWAP1 POP JUMP JUMPDEST PUSH1 0x0 DUP2 SWAP1 POP SWAP2 SWAP1 POP JUMP JUMPDEST PUSH1 0x0 PUSH1 0xFF DUP3 AND SWAP1 POP SWAP2 SWAP1 POP JUMP JUMPDEST PUSH1 0x0 PUSH2 0x1E01 DUP3 PUSH2 0x1DAC JUMP JUMPDEST SWAP1 POP SWAP2 SWAP1 POP JUMP JUMPDEST DUP3 DUP2 DUP4 CALLDATACOPY PUSH1 0x0 DUP4 DUP4 ADD MSTORE POP POP POP JUMP JUMPDEST PUSH2 0x1E20 DUP3 PUSH2 0x1F21 JUMP JUMPDEST DUP2 ADD DUP2 DUP2 LT PUSH8 0xFFFFFFFFFFFFFFFF DUP3 GT OR ISZERO PUSH2 0x1E3F JUMPI PUSH2 0x1E3E PUSH2 0x1EDE JUMP JUMPDEST JUMPDEST DUP1 PUSH1 0x40 MSTORE POP POP POP JUMP JUMPDEST PUSH1 0x0 PUSH2 0x1E53 DUP3 PUSH2 0x1E64 JUMP JUMPDEST SWAP1 POP SWAP2 SWAP1 POP JUMP JUMPDEST PUSH1 0x0 DUP2 SWAP1 POP SWAP2 SWAP1 POP JUMP JUMPDEST PUSH1 0x0 PUSH2 0x1E6F DUP3 PUSH2 0x1F32 JUMP JUMPDEST SWAP1 POP SWAP2 SWAP1 POP JUMP JUMPDEST PUSH1 0x0 DUP2 SWAP1 POP SWAP2 SWAP1 POP JUMP JUMPDEST PUSH32 0x4E487B7100000000000000000000000000000000000000000000000000000000 PUSH1 0x0 MSTORE PUSH1 0x11 PUSH1 0x4 MSTORE PUSH1 0x24 PUSH1 0x0 REVERT JUMPDEST PUSH32 0x4E487B7100000000000000000000000000000000000000000000000000000000 PUSH1 0x0 MSTORE PUSH1 0x21 PUSH1 0x4 MSTORE PUSH1 0x24 PUSH1 0x0 REVERT JUMPDEST PUSH32 0x4E487B7100000000000000000000000000000000000000000000000000000000 PUSH1 0x0 MSTORE PUSH1 0x41 PUSH1 0x4 MSTORE PUSH1 0x24 PUSH1 0x0 REVERT JUMPDEST PUSH1 0x0 DUP1 REVERT JUMPDEST PUSH1 0x0 DUP1 REVERT JUMPDEST PUSH1 0x0 DUP1 REVERT JUMPDEST PUSH1 0x0 DUP1 REVERT JUMPDEST PUSH1 0x0 PUSH1 0x1F NOT PUSH1 0x1F DUP4 ADD AND SWAP1 POP SWAP2 SWAP1 POP JUMP JUMPDEST PUSH1 0x0 DUP2 PUSH1 0x60 SHL SWAP1 POP SWAP2 SWAP1 POP JUMP JUMPDEST PUSH32 0x45434453413A20696E76616C6964207369676E61747572650000000000000000 PUSH1 0x0 DUP3 ADD MSTORE POP JUMP JUMPDEST PUSH32 0x596F752063616E6E6F74206A6F696E20746F20746865206368616E6E656C2074 PUSH1 0x0 DUP3 ADD MSTORE PUSH32 0x776963652E000000000000000000000000000000000000000000000000000000 PUSH1 0x20 DUP3 ADD MSTORE POP JUMP JUMPDEST PUSH32 0x546865206C6177206F6620636F6E736572766174696F6E206F6620746F74616C PUSH1 0x0 DUP3 ADD MSTORE PUSH32 0x2062616C616E63657320776173206E6F74207265737065637465642E00000000 PUSH1 0x20 DUP3 ADD MSTORE POP JUMP JUMPDEST PUSH32 0x45434453413A20696E76616C6964207369676E6174757265206C656E67746800 PUSH1 0x0 DUP3 ADD MSTORE POP JUMP JUMPDEST PUSH32 0x19457468657265756D205369676E6564204D6573736167653A0A333200000000 PUSH1 0x0 DUP3 ADD MSTORE POP JUMP JUMPDEST PUSH32 0x796F75206D757374206D616B65207061796D656E747300000000000000000000 PUSH1 0x0 DUP3 ADD MSTORE POP JUMP JUMPDEST PUSH32 0x596F7520617265206E6F74207061727469636970616E7420696E207468652063 PUSH1 0x0 DUP3 ADD MSTORE PUSH32 0x68616E6E656C0000000000000000000000000000000000000000000000000000 PUSH1 0x20 DUP3 ADD MSTORE POP JUMP JUMPDEST PUSH32 0x4368616E6E656C20646F65736E6F742065786973747300000000000000000000 PUSH1 0x0 DUP3 ADD MSTORE POP JUMP JUMPDEST PUSH32 0x45434453413A20696E76616C6964207369676E6174757265202773272076616C PUSH1 0x0 DUP3 ADD MSTORE PUSH32 0x7565000000000000000000000000000000000000000000000000000000000000 PUSH1 0x20 DUP3 ADD MSTORE POP JUMP JUMPDEST PUSH32 0x7061727469636970616E7473206D757374206861766520646966666572656E74 PUSH1 0x0 DUP3 ADD MSTORE PUSH32 0x2061646472657373000000000000000000000000000000000000000000000000 PUSH1 0x20 DUP3 ADD MSTORE POP JUMP JUMPDEST PUSH32 0x45434453413A20696E76616C6964207369676E6174757265202776272076616C PUSH1 0x0 DUP3 ADD MSTORE PUSH32 0x7565000000000000000000000000000000000000000000000000000000000000 PUSH1 0x20 DUP3 ADD MSTORE POP JUMP JUMPDEST PUSH32 0x4275796572207369676E617475726520697320696E76616C6964000000000000 PUSH1 0x0 DUP3 ADD MSTORE POP JUMP JUMPDEST PUSH32 0x546865206368616E6E656C206973206E6F74206F70656E000000000000000000 PUSH1 0x0 DUP3 ADD MSTORE POP JUMP JUMPDEST PUSH32 0x53656C6C6572207369676E617475726520697320696E76616C69640000000000 PUSH1 0x0 DUP3 ADD MSTORE POP JUMP JUMPDEST PUSH32 0x496E636F727265637420616D6F756E742E000000000000000000000000000000 PUSH1 0x0 DUP3 ADD MSTORE POP JUMP JUMPDEST PUSH32 0x546865206368616E6E656C2063726561746F7220646964276E74207370656369 PUSH1 0x0 DUP3 ADD MSTORE PUSH32 0x667920796F752061732073656C6C65722E000000000000000000000000000000 PUSH1 0x20 DUP3 ADD MSTORE POP JUMP JUMPDEST PUSH1 0x3 DUP2 LT PUSH2 0x22EA JUMPI PUSH2 0x22E9 PUSH2 0x1EAF JUMP JUMPDEST JUMPDEST POP JUMP JUMPDEST PUSH2 0x22F6 DUP2 PUSH2 0x1D84 JUMP JUMPDEST DUP2 EQ PUSH2 0x2301 JUMPI PUSH1 0x0 DUP1 REVERT JUMPDEST POP JUMP JUMPDEST PUSH2 0x230D DUP2 PUSH2 0x1D96 JUMP JUMPDEST DUP2 EQ PUSH2 0x2318 JUMPI PUSH1 0x0 DUP1 REVERT JUMPDEST POP JUMP JUMPDEST PUSH2 0x2324 DUP2 PUSH2 0x1DA2 JUMP JUMPDEST DUP2 EQ PUSH2 0x232F JUMPI PUSH1 0x0 DUP1 REVERT JUMPDEST POP JUMP JUMPDEST PUSH2 0x233B DUP2 PUSH2 0x1DDF JUMP JUMPDEST DUP2 EQ PUSH2 0x2346 JUMPI PUSH1 0x0 DUP1 REVERT JUMPDEST POP JUMP INVALID LOG2 PUSH5 0x6970667358 0x22 SLT KECCAK256 NUMBER 0xCD 0xC7 EXTCODECOPY SWAP8 MLOAD 0xB1 PUSH12 0x13DC801D82D0DC931D45A68 SWAP11 CREATE2 LOG1 SWAP1 0x2B 0xAD CALLDATACOPY 0x25 0x4D NUMBER SDIV 0xCC PUSH5 0x736F6C6343 STOP ADDMOD MOD STOP CALLER "
				},
				"gasEstimates": {
					"creation": {
						"codeDepositCost": "1817400",
						"executionCost": "1912",
						"totalCost": "1819312"
					},
					"external": {
						"channels(bytes32)": "infinite",
						"closeChannel(bytes32,uint256,uint256,uint256,bytes,bytes)": "infinite",
						"joinChannel(bytes32,uint256)": "infinite",
						"openChannel(address,address,uint256,uint256)": "infinite"
					},
					"internal": {
						"distributeTokens(bytes32)": "infinite",
						"receiveTokens(address,address,uint256)": "infinite",
						"transferTokens(address,address,uint256)": "infinite",
						"updateChannel(bytes32,uint256,uint256,uint256)": "infinite",
						"verifyHash(bytes32,bytes memory,address)": "infinite",
						"verifyReceiptSignature(bytes32,uint256,uint256,uint256,bytes memory,bytes memory)": "infinite"
					}
				},
				"methodIdentifiers": {
					"channels(bytes32)": "7a7ebd7b",
					"closeChannel(bytes32,uint256,uint256,uint256,bytes,bytes)": "283ffea0",
					"joinChannel(bytes32,uint256)": "39495ecf",
					"openChannel(address,address,uint256,uint256)": "d8d9965a"
				}
			},
			"storageLayout": {
				"storage": [
					{
						"astId": 1694,
						"contract": "contracts/EscrowChannel.sol:EscrowChannel",
						"label": "channels",
						"offset": 0,
						"slot": "0",
						"type": "t_mapping(t_bytes32,t_struct(Channel)1689_storage)"
					}
				],
				"types": {
					"t_address": {
						"encoding": "inplace",
						"label": "address",
						"numberOfBytes": "20"
					},
					"t_bytes32": {
						"encoding": "inplace",
						"label": "bytes32",
						"numberOfBytes": "32"
					},
					"t_enum(ChannelState)1667": {
						"encoding": "inplace",
						"label": "enum EscrowChannel.ChannelState",
						"numberOfBytes": "1"
					},
					"t_mapping(t_bytes32,t_struct(Channel)1689_storage)": {
						"encoding": "mapping",
						"key": "t_bytes32",
						"label": "mapping(bytes32 => struct EscrowChannel.Channel)",
						"numberOfBytes": "32",
						"value": "t_struct(Channel)1689_storage"
					},
					"t_struct(Channel)1689_storage": {
						"encoding": "inplace",
						"label": "struct EscrowChannel.Channel",
						"members": [
							{
								"astId": 1669,
								"contract": "contracts/EscrowChannel.sol:EscrowChannel",
								"label": "channelId",
								"offset": 0,
								"slot": "0",
								"type": "t_bytes32"
							},
							{
								"astId": 1671,
								"contract": "contracts/EscrowChannel.sol:EscrowChannel",
								"label": "tokenAddress",
								"offset": 0,
								"slot": "1",
								"type": "t_address"
							},
							{
								"astId": 1673,
								"contract": "contracts/EscrowChannel.sol:EscrowChannel",
								"label": "buyerAddress",
								"offset": 0,
								"slot": "2",
								"type": "t_address"
							},
							{
								"astId": 1675,
								"contract": "contracts/EscrowChannel.sol:EscrowChannel",
								"label": "sellerAddress",
								"offset": 0,
								"slot": "3",
								"type": "t_address"
							},
							{
								"astId": 1677,
								"contract": "contracts/EscrowChannel.sol:EscrowChannel",
								"label": "buyerBalance",
								"offset": 0,
								"slot": "4",
								"type": "t_uint256"
							},
							{
								"astId": 1679,
								"contract": "contracts/EscrowChannel.sol:EscrowChannel",
								"label": "sellerBalance",
								"offset": 0,
								"slot": "5",
								"type": "t_uint256"
							},
							{
								"astId": 1681,
								"contract": "contracts/EscrowChannel.sol:EscrowChannel",
								"label": "nonce",
								"offset": 0,
								"slot": "6",
								"type": "t_uint256"
							},
							{
								"astId": 1683,
								"contract": "contracts/EscrowChannel.sol:EscrowChannel",
								"label": "closingTime",
								"offset": 0,
								"slot": "7",
								"type": "t_uint256"
							},
							{
								"astId": 1685,
								"contract": "contracts/EscrowChannel.sol:EscrowChannel",
								"label": "activeTimePeriod",
								"offset": 0,
								"slot": "8",
								"type": "t_uint256"
							},
							{
								"astId": 1688,
								"contract": "contracts/EscrowChannel.sol:EscrowChannel",
								"label": "channelState",
								"offset": 0,
								"slot": "9",
								"type": "t_enum(ChannelState)1667"
							}
						],
						"numberOfBytes": "320"
					},
					"t_uint256": {
						"encoding": "inplace",
						"label": "uint256",
						"numberOfBytes": "32"
					}
				}
			},
			"userdoc": {
				"kind": "user",
				"methods": {
					"openChannel(address,address,uint256,uint256)": {
						"notice": "Open a channel."
					}
				},
				"version": 1
			}
		}
	}
}