{
	"contracts/VerifySig.sol": {
		"VerifySig": {
			"abi": [
				{
					"inputs": [
						{
							"internalType": "bytes32",
							"name": "_messageHash",
							"type": "bytes32"
						}
					],
					"name": "getEthSignedMessageHash",
					"outputs": [
						{
							"internalType": "bytes32",
							"name": "",
							"type": "bytes32"
						}
					],
					"stateMutability": "pure",
					"type": "function"
				},
				{
					"inputs": [
						{
							"internalType": "string",
							"name": "_message",
							"type": "string"
						}
					],
					"name": "getMessageHash",
					"outputs": [
						{
							"internalType": "bytes32",
							"name": "",
							"type": "bytes32"
						}
					],
					"stateMutability": "pure",
					"type": "function"
				},
				{
					"inputs": [
						{
							"internalType": "bytes32",
							"name": "_ethSignedMessageHash",
							"type": "bytes32"
						},
						{
							"internalType": "bytes",
							"name": "_signature",
							"type": "bytes"
						}
					],
					"name": "recover",
					"outputs": [
						{
							"internalType": "address",
							"name": "",
							"type": "address"
						}
					],
					"stateMutability": "pure",
					"type": "function"
				},
				{
					"inputs": [
						{
							"internalType": "address",
							"name": "_signer",
							"type": "address"
						},
						{
							"internalType": "string",
							"name": "_message",
							"type": "string"
						},
						{
							"internalType": "uint256",
							"name": "_nonce",
							"type": "uint256"
						},
						{
							"internalType": "bytes",
							"name": "_signature",
							"type": "bytes"
						}
					],
					"name": "verify",
					"outputs": [
						{
							"internalType": "bool",
							"name": "",
							"type": "bool"
						}
					],
					"stateMutability": "pure",
					"type": "function"
				}
			],
			"devdoc": {
				"kind": "dev",
				"methods": {},
				"version": 1
			},
			"evm": {
				"assembly": "    /* \"contracts/VerifySig.sol\":243:1888  contract VerifySig {... */\n  mstore(0x40, 0x80)\n  callvalue\n  dup1\n  iszero\n  tag_1\n  jumpi\n  0x00\n  dup1\n  revert\ntag_1:\n  pop\n  dataSize(sub_0)\n  dup1\n  dataOffset(sub_0)\n  0x00\n  codecopy\n  0x00\n  return\nstop\n\nsub_0: assembly {\n        /* \"contracts/VerifySig.sol\":243:1888  contract VerifySig {... */\n      mstore(0x40, 0x80)\n      callvalue\n      dup1\n      iszero\n      tag_1\n      jumpi\n      0x00\n      dup1\n      revert\n    tag_1:\n      pop\n      jumpi(tag_2, lt(calldatasize, 0x04))\n      shr(0xe0, calldataload(0x00))\n      dup1\n      0x07546f1a\n      eq\n      tag_3\n      jumpi\n      dup1\n      0x19045a25\n      eq\n      tag_4\n      jumpi\n      dup1\n      0xb446f3b2\n      eq\n      tag_5\n      jumpi\n      dup1\n      0xfa540801\n      eq\n      tag_6\n      jumpi\n    tag_2:\n      0x00\n      dup1\n      revert\n        /* \"contracts/VerifySig.sol\":268:667  function verify(... */\n    tag_3:\n      tag_7\n      0x04\n      dup1\n      calldatasize\n      sub\n      dup2\n      add\n      swap1\n      tag_8\n      swap2\n      swap1\n      tag_9\n      jump\t// in\n    tag_8:\n      tag_10\n      jump\t// in\n    tag_7:\n      mload(0x40)\n      tag_11\n      swap2\n      swap1\n      tag_12\n      jump\t// in\n    tag_11:\n      mload(0x40)\n      dup1\n      swap2\n      sub\n      swap1\n      return\n        /* \"contracts/VerifySig.sol\":1166:1424  function recover(bytes32 _ethSignedMessageHash, bytes memory _signature)... */\n    tag_4:\n      tag_13\n      0x04\n      dup1\n      calldatasize\n      sub\n      dup2\n      add\n      swap1\n      tag_14\n      swap2\n      swap1\n      tag_15\n      jump\t// in\n    tag_14:\n      tag_16\n      jump\t// in\n    tag_13:\n      mload(0x40)\n      tag_17\n      swap2\n      swap1\n      tag_18\n      jump\t// in\n    tag_17:\n      mload(0x40)\n      dup1\n      swap2\n      sub\n      swap1\n      return\n        /* \"contracts/VerifySig.sol\":673:840  function getMessageHash(string memory _message)... */\n    tag_5:\n      tag_19\n      0x04\n      dup1\n      calldatasize\n      sub\n      dup2\n      add\n      swap1\n      tag_20\n      swap2\n      swap1\n      tag_21\n      jump\t// in\n    tag_20:\n      tag_22\n      jump\t// in\n    tag_19:\n      mload(0x40)\n      tag_23\n      swap2\n      swap1\n      tag_24\n      jump\t// in\n    tag_23:\n      mload(0x40)\n      dup1\n      swap2\n      sub\n      swap1\n      return\n        /* \"contracts/VerifySig.sol\":846:1160  function getEthSignedMessageHash(bytes32 _messageHash)... */\n    tag_6:\n      tag_25\n      0x04\n      dup1\n      calldatasize\n      sub\n      dup2\n      add\n      swap1\n      tag_26\n      swap2\n      swap1\n      tag_27\n      jump\t// in\n    tag_26:\n      tag_28\n      jump\t// in\n    tag_25:\n      mload(0x40)\n      tag_29\n      swap2\n      swap1\n      tag_24\n      jump\t// in\n    tag_29:\n      mload(0x40)\n      dup1\n      swap2\n      sub\n      swap1\n      return\n        /* \"contracts/VerifySig.sol\":268:667  function verify(... */\n    tag_10:\n        /* \"contracts/VerifySig.sol\":424:428  bool */\n      0x00\n        /* \"contracts/VerifySig.sol\":467:486  bytes32 messageHash */\n      dup1\n        /* \"contracts/VerifySig.sol\":489:513  getMessageHash(_message) */\n      tag_31\n        /* \"contracts/VerifySig.sol\":504:512  _message */\n      dup6\n        /* \"contracts/VerifySig.sol\":489:503  getMessageHash */\n      tag_22\n        /* \"contracts/VerifySig.sol\":489:513  getMessageHash(_message) */\n      jump\t// in\n    tag_31:\n        /* \"contracts/VerifySig.sol\":467:513  bytes32 messageHash = getMessageHash(_message) */\n      swap1\n      pop\n        /* \"contracts/VerifySig.sol\":523:551  bytes32 ethSignedMessageHash */\n      0x00\n        /* \"contracts/VerifySig.sol\":554:590  getEthSignedMessageHash(messageHash) */\n      tag_32\n        /* \"contracts/VerifySig.sol\":578:589  messageHash */\n      dup3\n        /* \"contracts/VerifySig.sol\":554:577  getEthSignedMessageHash */\n      tag_28\n        /* \"contracts/VerifySig.sol\":554:590  getEthSignedMessageHash(messageHash) */\n      jump\t// in\n    tag_32:\n        /* \"contracts/VerifySig.sol\":523:590  bytes32 ethSignedMessageHash = getEthSignedMessageHash(messageHash) */\n      swap1\n      pop\n        /* \"contracts/VerifySig.sol\":653:660  _signer */\n      dup7\n        /* \"contracts/VerifySig.sol\":608:660  recover(ethSignedMessageHash, _signature) == _signer */\n      0xffffffffffffffffffffffffffffffffffffffff\n      and\n        /* \"contracts/VerifySig.sol\":608:649  recover(ethSignedMessageHash, _signature) */\n      tag_33\n        /* \"contracts/VerifySig.sol\":616:636  ethSignedMessageHash */\n      dup3\n        /* \"contracts/VerifySig.sol\":638:648  _signature */\n      dup7\n        /* \"contracts/VerifySig.sol\":608:615  recover */\n      tag_16\n        /* \"contracts/VerifySig.sol\":608:649  recover(ethSignedMessageHash, _signature) */\n      jump\t// in\n    tag_33:\n        /* \"contracts/VerifySig.sol\":608:660  recover(ethSignedMessageHash, _signature) == _signer */\n      0xffffffffffffffffffffffffffffffffffffffff\n      and\n      eq\n        /* \"contracts/VerifySig.sol\":601:660  return recover(ethSignedMessageHash, _signature) == _signer */\n      swap3\n      pop\n      pop\n      pop\n        /* \"contracts/VerifySig.sol\":268:667  function verify(... */\n      swap5\n      swap4\n      pop\n      pop\n      pop\n      pop\n      jump\t// out\n        /* \"contracts/VerifySig.sol\":1166:1424  function recover(bytes32 _ethSignedMessageHash, bytes memory _signature)... */\n    tag_16:\n        /* \"contracts/VerifySig.sol\":1284:1291  address */\n      0x00\n        /* \"contracts/VerifySig.sol\":1308:1317  bytes32 r */\n      dup1\n        /* \"contracts/VerifySig.sol\":1319:1328  bytes32 s */\n      0x00\n        /* \"contracts/VerifySig.sol\":1330:1337  uint8 v */\n      dup1\n        /* \"contracts/VerifySig.sol\":1341:1359  _split(_signature) */\n      tag_35\n        /* \"contracts/VerifySig.sol\":1348:1358  _signature */\n      dup6\n        /* \"contracts/VerifySig.sol\":1341:1347  _split */\n      tag_36\n        /* \"contracts/VerifySig.sol\":1341:1359  _split(_signature) */\n      jump\t// in\n    tag_35:\n        /* \"contracts/VerifySig.sol\":1307:1359  (bytes32 r, bytes32 s, uint8 v) = _split(_signature) */\n      swap3\n      pop\n      swap3\n      pop\n      swap3\n      pop\n        /* \"contracts/VerifySig.sol\":1376:1417  ecrecover(_ethSignedMessageHash, v, r, s) */\n      0x01\n        /* \"contracts/VerifySig.sol\":1386:1407  _ethSignedMessageHash */\n      dup7\n        /* \"contracts/VerifySig.sol\":1409:1410  v */\n      dup3\n        /* \"contracts/VerifySig.sol\":1412:1413  r */\n      dup6\n        /* \"contracts/VerifySig.sol\":1415:1416  s */\n      dup6\n        /* \"contracts/VerifySig.sol\":1376:1417  ecrecover(_ethSignedMessageHash, v, r, s) */\n      mload(0x40)\n      0x00\n      dup2\n      mstore\n      0x20\n      add\n      0x40\n      mstore\n      mload(0x40)\n      tag_37\n      swap5\n      swap4\n      swap3\n      swap2\n      swap1\n      tag_38\n      jump\t// in\n    tag_37:\n      0x20\n      mload(0x40)\n      0x20\n      dup2\n      sub\n      swap1\n      dup1\n      dup5\n      sub\n      swap1\n      dup6\n      gas\n      staticcall\n      iszero\n      dup1\n      iszero\n      tag_40\n      jumpi\n      returndatasize\n      0x00\n      dup1\n      returndatacopy\n      revert(0x00, returndatasize)\n    tag_40:\n      pop\n      pop\n      pop\n      mload(sub(mload(0x40), 0x20))\n        /* \"contracts/VerifySig.sol\":1369:1417  return ecrecover(_ethSignedMessageHash, v, r, s) */\n      swap4\n      pop\n      pop\n      pop\n      pop\n        /* \"contracts/VerifySig.sol\":1166:1424  function recover(bytes32 _ethSignedMessageHash, bytes memory _signature)... */\n      swap3\n      swap2\n      pop\n      pop\n      jump\t// out\n        /* \"contracts/VerifySig.sol\":673:840  function getMessageHash(string memory _message)... */\n    tag_22:\n        /* \"contracts/VerifySig.sol\":766:773  bytes32 */\n      0x00\n        /* \"contracts/VerifySig.sol\":823:831  _message */\n      dup2\n        /* \"contracts/VerifySig.sol\":806:832  abi.encodePacked(_message) */\n      add(0x20, mload(0x40))\n      tag_42\n      swap2\n      swap1\n      tag_43\n      jump\t// in\n    tag_42:\n      mload(0x40)\n      0x20\n      dup2\n      dup4\n      sub\n      sub\n      dup2\n      mstore\n      swap1\n      0x40\n      mstore\n        /* \"contracts/VerifySig.sol\":796:833  keccak256(abi.encodePacked(_message)) */\n      dup1\n      mload\n      swap1\n      0x20\n      add\n      keccak256\n        /* \"contracts/VerifySig.sol\":789:833  return keccak256(abi.encodePacked(_message)) */\n      swap1\n      pop\n        /* \"contracts/VerifySig.sol\":673:840  function getMessageHash(string memory _message)... */\n      swap2\n      swap1\n      pop\n      jump\t// out\n        /* \"contracts/VerifySig.sol\":846:1160  function getEthSignedMessageHash(bytes32 _messageHash)... */\n    tag_28:\n        /* \"contracts/VerifySig.sol\":946:953  bytes32 */\n      0x00\n        /* \"contracts/VerifySig.sol\":1109:1121  _messageHash */\n      dup2\n        /* \"contracts/VerifySig.sol\":1015:1139  abi.encodePacked(... */\n      add(0x20, mload(0x40))\n      tag_45\n      swap2\n      swap1\n      tag_46\n      jump\t// in\n    tag_45:\n      mload(0x40)\n      0x20\n      dup2\n      dup4\n      sub\n      sub\n      dup2\n      mstore\n      swap1\n      0x40\n      mstore\n        /* \"contracts/VerifySig.sol\":988:1153  keccak256(... */\n      dup1\n      mload\n      swap1\n      0x20\n      add\n      keccak256\n        /* \"contracts/VerifySig.sol\":969:1153  return... */\n      swap1\n      pop\n        /* \"contracts/VerifySig.sol\":846:1160  function getEthSignedMessageHash(bytes32 _messageHash)... */\n      swap2\n      swap1\n      pop\n      jump\t// out\n        /* \"contracts/VerifySig.sol\":1477:1886  function _split(bytes memory _signature)... */\n    tag_36:\n        /* \"contracts/VerifySig.sol\":1578:1587  bytes32 r */\n      0x00\n        /* \"contracts/VerifySig.sol\":1601:1610  bytes32 s */\n      dup1\n        /* \"contracts/VerifySig.sol\":1624:1631  uint8 v */\n      0x00\n        /* \"contracts/VerifySig.sol\":1685:1687  65 */\n      0x41\n        /* \"contracts/VerifySig.sol\":1664:1674  _signature */\n      dup5\n        /* \"contracts/VerifySig.sol\":1664:1681  _signature.length */\n      mload\n        /* \"contracts/VerifySig.sol\":1664:1687  _signature.length == 65 */\n      eq\n        /* \"contracts/VerifySig.sol\":1656:1709  require(_signature.length == 65, \"invalid signature\") */\n      tag_48\n      jumpi\n      mload(0x40)\n      0x08c379a000000000000000000000000000000000000000000000000000000000\n      dup2\n      mstore\n      0x04\n      add\n      tag_49\n      swap1\n      tag_50\n      jump\t// in\n    tag_49:\n      mload(0x40)\n      dup1\n      swap2\n      sub\n      swap1\n      revert\n    tag_48:\n        /* \"contracts/VerifySig.sol\":1769:1771  32 */\n      0x20\n        /* \"contracts/VerifySig.sol\":1757:1767  _signature */\n      dup5\n        /* \"contracts/VerifySig.sol\":1753:1772  add(_signature, 32) */\n      add\n        /* \"contracts/VerifySig.sol\":1747:1773  mload(add(_signature, 32)) */\n      mload\n        /* \"contracts/VerifySig.sol\":1742:1773  r := mload(add(_signature, 32)) */\n      swap3\n      pop\n        /* \"contracts/VerifySig.sol\":1813:1815  64 */\n      0x40\n        /* \"contracts/VerifySig.sol\":1801:1811  _signature */\n      dup5\n        /* \"contracts/VerifySig.sol\":1797:1816  add(_signature, 64) */\n      add\n        /* \"contracts/VerifySig.sol\":1791:1817  mload(add(_signature, 64)) */\n      mload\n        /* \"contracts/VerifySig.sol\":1786:1817  s := mload(add(_signature, 64)) */\n      swap2\n      pop\n        /* \"contracts/VerifySig.sol\":1865:1867  96 */\n      0x60\n        /* \"contracts/VerifySig.sol\":1853:1863  _signature */\n      dup5\n        /* \"contracts/VerifySig.sol\":1849:1868  add(_signature, 96) */\n      add\n        /* \"contracts/VerifySig.sol\":1843:1869  mload(add(_signature, 96)) */\n      mload\n        /* \"contracts/VerifySig.sol\":1840:1841  0 */\n      0x00\n        /* \"contracts/VerifySig.sol\":1835:1870  byte(0, mload(add(_signature, 96))) */\n      byte\n        /* \"contracts/VerifySig.sol\":1830:1870  v := byte(0, mload(add(_signature, 96))) */\n      swap1\n      pop\n        /* \"contracts/VerifySig.sol\":1477:1886  function _split(bytes memory _signature)... */\n      swap2\n      swap4\n      swap1\n      swap3\n      pop\n      jump\t// out\n        /* \"#utility.yul\":7:417   */\n    tag_52:\n        /* \"#utility.yul\":84:89   */\n      0x00\n        /* \"#utility.yul\":109:174   */\n      tag_54\n        /* \"#utility.yul\":125:173   */\n      tag_55\n        /* \"#utility.yul\":166:172   */\n      dup5\n        /* \"#utility.yul\":125:173   */\n      tag_56\n      jump\t// in\n    tag_55:\n        /* \"#utility.yul\":109:174   */\n      tag_57\n      jump\t// in\n    tag_54:\n        /* \"#utility.yul\":100:174   */\n      swap1\n      pop\n        /* \"#utility.yul\":197:203   */\n      dup3\n        /* \"#utility.yul\":190:195   */\n      dup2\n        /* \"#utility.yul\":183:204   */\n      mstore\n        /* \"#utility.yul\":235:239   */\n      0x20\n        /* \"#utility.yul\":228:233   */\n      dup2\n        /* \"#utility.yul\":224:240   */\n      add\n        /* \"#utility.yul\":273:276   */\n      dup5\n        /* \"#utility.yul\":264:270   */\n      dup5\n        /* \"#utility.yul\":259:262   */\n      dup5\n        /* \"#utility.yul\":255:271   */\n      add\n        /* \"#utility.yul\":252:277   */\n      gt\n        /* \"#utility.yul\":249:251   */\n      iszero\n      tag_58\n      jumpi\n        /* \"#utility.yul\":280:359   */\n      tag_59\n      tag_60\n      jump\t// in\n    tag_59:\n        /* \"#utility.yul\":249:251   */\n    tag_58:\n        /* \"#utility.yul\":370:411   */\n      tag_61\n        /* \"#utility.yul\":404:410   */\n      dup5\n        /* \"#utility.yul\":399:402   */\n      dup3\n        /* \"#utility.yul\":394:397   */\n      dup6\n        /* \"#utility.yul\":370:411   */\n      tag_62\n      jump\t// in\n    tag_61:\n        /* \"#utility.yul\":90:417   */\n      pop\n      swap4\n      swap3\n      pop\n      pop\n      pop\n      jump\t// out\n        /* \"#utility.yul\":423:835   */\n    tag_63:\n        /* \"#utility.yul\":501:506   */\n      0x00\n        /* \"#utility.yul\":526:592   */\n      tag_65\n        /* \"#utility.yul\":542:591   */\n      tag_66\n        /* \"#utility.yul\":584:590   */\n      dup5\n        /* \"#utility.yul\":542:591   */\n      tag_67\n      jump\t// in\n    tag_66:\n        /* \"#utility.yul\":526:592   */\n      tag_57\n      jump\t// in\n    tag_65:\n        /* \"#utility.yul\":517:592   */\n      swap1\n      pop\n        /* \"#utility.yul\":615:621   */\n      dup3\n        /* \"#utility.yul\":608:613   */\n      dup2\n        /* \"#utility.yul\":601:622   */\n      mstore\n        /* \"#utility.yul\":653:657   */\n      0x20\n        /* \"#utility.yul\":646:651   */\n      dup2\n        /* \"#utility.yul\":642:658   */\n      add\n        /* \"#utility.yul\":691:694   */\n      dup5\n        /* \"#utility.yul\":682:688   */\n      dup5\n        /* \"#utility.yul\":677:680   */\n      dup5\n        /* \"#utility.yul\":673:689   */\n      add\n        /* \"#utility.yul\":670:695   */\n      gt\n        /* \"#utility.yul\":667:669   */\n      iszero\n      tag_68\n      jumpi\n        /* \"#utility.yul\":698:777   */\n      tag_69\n      tag_60\n      jump\t// in\n    tag_69:\n        /* \"#utility.yul\":667:669   */\n    tag_68:\n        /* \"#utility.yul\":788:829   */\n      tag_70\n        /* \"#utility.yul\":822:828   */\n      dup5\n        /* \"#utility.yul\":817:820   */\n      dup3\n        /* \"#utility.yul\":812:815   */\n      dup6\n        /* \"#utility.yul\":788:829   */\n      tag_62\n      jump\t// in\n    tag_70:\n        /* \"#utility.yul\":507:835   */\n      pop\n      swap4\n      swap3\n      pop\n      pop\n      pop\n      jump\t// out\n        /* \"#utility.yul\":841:980   */\n    tag_71:\n        /* \"#utility.yul\":887:892   */\n      0x00\n        /* \"#utility.yul\":925:931   */\n      dup2\n        /* \"#utility.yul\":912:932   */\n      calldataload\n        /* \"#utility.yul\":903:932   */\n      swap1\n      pop\n        /* \"#utility.yul\":941:974   */\n      tag_73\n        /* \"#utility.yul\":968:973   */\n      dup2\n        /* \"#utility.yul\":941:974   */\n      tag_74\n      jump\t// in\n    tag_73:\n        /* \"#utility.yul\":893:980   */\n      swap3\n      swap2\n      pop\n      pop\n      jump\t// out\n        /* \"#utility.yul\":986:1125   */\n    tag_75:\n        /* \"#utility.yul\":1032:1037   */\n      0x00\n        /* \"#utility.yul\":1070:1076   */\n      dup2\n        /* \"#utility.yul\":1057:1077   */\n      calldataload\n        /* \"#utility.yul\":1048:1077   */\n      swap1\n      pop\n        /* \"#utility.yul\":1086:1119   */\n      tag_77\n        /* \"#utility.yul\":1113:1118   */\n      dup2\n        /* \"#utility.yul\":1086:1119   */\n      tag_78\n      jump\t// in\n    tag_77:\n        /* \"#utility.yul\":1038:1125   */\n      swap3\n      swap2\n      pop\n      pop\n      jump\t// out\n        /* \"#utility.yul\":1144:1482   */\n    tag_79:\n        /* \"#utility.yul\":1199:1204   */\n      0x00\n        /* \"#utility.yul\":1248:1251   */\n      dup3\n        /* \"#utility.yul\":1241:1245   */\n      0x1f\n        /* \"#utility.yul\":1233:1239   */\n      dup4\n        /* \"#utility.yul\":1229:1246   */\n      add\n        /* \"#utility.yul\":1225:1252   */\n      slt\n        /* \"#utility.yul\":1215:1217   */\n      tag_81\n      jumpi\n        /* \"#utility.yul\":1256:1335   */\n      tag_82\n      tag_83\n      jump\t// in\n    tag_82:\n        /* \"#utility.yul\":1215:1217   */\n    tag_81:\n        /* \"#utility.yul\":1373:1379   */\n      dup2\n        /* \"#utility.yul\":1360:1380   */\n      calldataload\n        /* \"#utility.yul\":1398:1476   */\n      tag_84\n        /* \"#utility.yul\":1472:1475   */\n      dup5\n        /* \"#utility.yul\":1464:1470   */\n      dup3\n        /* \"#utility.yul\":1457:1461   */\n      0x20\n        /* \"#utility.yul\":1449:1455   */\n      dup7\n        /* \"#utility.yul\":1445:1462   */\n      add\n        /* \"#utility.yul\":1398:1476   */\n      tag_52\n      jump\t// in\n    tag_84:\n        /* \"#utility.yul\":1389:1476   */\n      swap2\n      pop\n        /* \"#utility.yul\":1205:1482   */\n      pop\n      swap3\n      swap2\n      pop\n      pop\n      jump\t// out\n        /* \"#utility.yul\":1502:1842   */\n    tag_85:\n        /* \"#utility.yul\":1558:1563   */\n      0x00\n        /* \"#utility.yul\":1607:1610   */\n      dup3\n        /* \"#utility.yul\":1600:1604   */\n      0x1f\n        /* \"#utility.yul\":1592:1598   */\n      dup4\n        /* \"#utility.yul\":1588:1605   */\n      add\n        /* \"#utility.yul\":1584:1611   */\n      slt\n        /* \"#utility.yul\":1574:1576   */\n      tag_87\n      jumpi\n        /* \"#utility.yul\":1615:1694   */\n      tag_88\n      tag_83\n      jump\t// in\n    tag_88:\n        /* \"#utility.yul\":1574:1576   */\n    tag_87:\n        /* \"#utility.yul\":1732:1738   */\n      dup2\n        /* \"#utility.yul\":1719:1739   */\n      calldataload\n        /* \"#utility.yul\":1757:1836   */\n      tag_89\n        /* \"#utility.yul\":1832:1835   */\n      dup5\n        /* \"#utility.yul\":1824:1830   */\n      dup3\n        /* \"#utility.yul\":1817:1821   */\n      0x20\n        /* \"#utility.yul\":1809:1815   */\n      dup7\n        /* \"#utility.yul\":1805:1822   */\n      add\n        /* \"#utility.yul\":1757:1836   */\n      tag_63\n      jump\t// in\n    tag_89:\n        /* \"#utility.yul\":1748:1836   */\n      swap2\n      pop\n        /* \"#utility.yul\":1564:1842   */\n      pop\n      swap3\n      swap2\n      pop\n      pop\n      jump\t// out\n        /* \"#utility.yul\":1848:1987   */\n    tag_90:\n        /* \"#utility.yul\":1894:1899   */\n      0x00\n        /* \"#utility.yul\":1932:1938   */\n      dup2\n        /* \"#utility.yul\":1919:1939   */\n      calldataload\n        /* \"#utility.yul\":1910:1939   */\n      swap1\n      pop\n        /* \"#utility.yul\":1948:1981   */\n      tag_92\n        /* \"#utility.yul\":1975:1980   */\n      dup2\n        /* \"#utility.yul\":1948:1981   */\n      tag_93\n      jump\t// in\n    tag_92:\n        /* \"#utility.yul\":1900:1987   */\n      swap3\n      swap2\n      pop\n      pop\n      jump\t// out\n        /* \"#utility.yul\":1993:3116   */\n    tag_9:\n        /* \"#utility.yul\":2098:2104   */\n      0x00\n        /* \"#utility.yul\":2106:2112   */\n      dup1\n        /* \"#utility.yul\":2114:2120   */\n      0x00\n        /* \"#utility.yul\":2122:2128   */\n      dup1\n        /* \"#utility.yul\":2171:2174   */\n      0x80\n        /* \"#utility.yul\":2159:2168   */\n      dup6\n        /* \"#utility.yul\":2150:2157   */\n      dup8\n        /* \"#utility.yul\":2146:2169   */\n      sub\n        /* \"#utility.yul\":2142:2175   */\n      slt\n        /* \"#utility.yul\":2139:2141   */\n      iszero\n      tag_95\n      jumpi\n        /* \"#utility.yul\":2178:2257   */\n      tag_96\n      tag_97\n      jump\t// in\n    tag_96:\n        /* \"#utility.yul\":2139:2141   */\n    tag_95:\n        /* \"#utility.yul\":2298:2299   */\n      0x00\n        /* \"#utility.yul\":2323:2376   */\n      tag_98\n        /* \"#utility.yul\":2368:2375   */\n      dup8\n        /* \"#utility.yul\":2359:2365   */\n      dup3\n        /* \"#utility.yul\":2348:2357   */\n      dup9\n        /* \"#utility.yul\":2344:2366   */\n      add\n        /* \"#utility.yul\":2323:2376   */\n      tag_71\n      jump\t// in\n    tag_98:\n        /* \"#utility.yul\":2313:2376   */\n      swap5\n      pop\n        /* \"#utility.yul\":2269:2386   */\n      pop\n        /* \"#utility.yul\":2453:2455   */\n      0x20\n        /* \"#utility.yul\":2442:2451   */\n      dup6\n        /* \"#utility.yul\":2438:2456   */\n      add\n        /* \"#utility.yul\":2425:2457   */\n      calldataload\n        /* \"#utility.yul\":2484:2502   */\n      0xffffffffffffffff\n        /* \"#utility.yul\":2476:2482   */\n      dup2\n        /* \"#utility.yul\":2473:2503   */\n      gt\n        /* \"#utility.yul\":2470:2472   */\n      iszero\n      tag_99\n      jumpi\n        /* \"#utility.yul\":2506:2585   */\n      tag_100\n      tag_101\n      jump\t// in\n    tag_100:\n        /* \"#utility.yul\":2470:2472   */\n    tag_99:\n        /* \"#utility.yul\":2611:2674   */\n      tag_102\n        /* \"#utility.yul\":2666:2673   */\n      dup8\n        /* \"#utility.yul\":2657:2663   */\n      dup3\n        /* \"#utility.yul\":2646:2655   */\n      dup9\n        /* \"#utility.yul\":2642:2664   */\n      add\n        /* \"#utility.yul\":2611:2674   */\n      tag_85\n      jump\t// in\n    tag_102:\n        /* \"#utility.yul\":2601:2674   */\n      swap4\n      pop\n        /* \"#utility.yul\":2396:2684   */\n      pop\n        /* \"#utility.yul\":2723:2725   */\n      0x40\n        /* \"#utility.yul\":2749:2802   */\n      tag_103\n        /* \"#utility.yul\":2794:2801   */\n      dup8\n        /* \"#utility.yul\":2785:2791   */\n      dup3\n        /* \"#utility.yul\":2774:2783   */\n      dup9\n        /* \"#utility.yul\":2770:2792   */\n      add\n        /* \"#utility.yul\":2749:2802   */\n      tag_90\n      jump\t// in\n    tag_103:\n        /* \"#utility.yul\":2739:2802   */\n      swap3\n      pop\n        /* \"#utility.yul\":2694:2812   */\n      pop\n        /* \"#utility.yul\":2879:2881   */\n      0x60\n        /* \"#utility.yul\":2868:2877   */\n      dup6\n        /* \"#utility.yul\":2864:2882   */\n      add\n        /* \"#utility.yul\":2851:2883   */\n      calldataload\n        /* \"#utility.yul\":2910:2928   */\n      0xffffffffffffffff\n        /* \"#utility.yul\":2902:2908   */\n      dup2\n        /* \"#utility.yul\":2899:2929   */\n      gt\n        /* \"#utility.yul\":2896:2898   */\n      iszero\n      tag_104\n      jumpi\n        /* \"#utility.yul\":2932:3011   */\n      tag_105\n      tag_101\n      jump\t// in\n    tag_105:\n        /* \"#utility.yul\":2896:2898   */\n    tag_104:\n        /* \"#utility.yul\":3037:3099   */\n      tag_106\n        /* \"#utility.yul\":3091:3098   */\n      dup8\n        /* \"#utility.yul\":3082:3088   */\n      dup3\n        /* \"#utility.yul\":3071:3080   */\n      dup9\n        /* \"#utility.yul\":3067:3089   */\n      add\n        /* \"#utility.yul\":3037:3099   */\n      tag_79\n      jump\t// in\n    tag_106:\n        /* \"#utility.yul\":3027:3099   */\n      swap2\n      pop\n        /* \"#utility.yul\":2822:3109   */\n      pop\n        /* \"#utility.yul\":2129:3116   */\n      swap3\n      swap6\n      swap2\n      swap5\n      pop\n      swap3\n      pop\n      jump\t// out\n        /* \"#utility.yul\":3122:3451   */\n    tag_27:\n        /* \"#utility.yul\":3181:3187   */\n      0x00\n        /* \"#utility.yul\":3230:3232   */\n      0x20\n        /* \"#utility.yul\":3218:3227   */\n      dup3\n        /* \"#utility.yul\":3209:3216   */\n      dup5\n        /* \"#utility.yul\":3205:3228   */\n      sub\n        /* \"#utility.yul\":3201:3233   */\n      slt\n        /* \"#utility.yul\":3198:3200   */\n      iszero\n      tag_108\n      jumpi\n        /* \"#utility.yul\":3236:3315   */\n      tag_109\n      tag_97\n      jump\t// in\n    tag_109:\n        /* \"#utility.yul\":3198:3200   */\n    tag_108:\n        /* \"#utility.yul\":3356:3357   */\n      0x00\n        /* \"#utility.yul\":3381:3434   */\n      tag_110\n        /* \"#utility.yul\":3426:3433   */\n      dup5\n        /* \"#utility.yul\":3417:3423   */\n      dup3\n        /* \"#utility.yul\":3406:3415   */\n      dup6\n        /* \"#utility.yul\":3402:3424   */\n      add\n        /* \"#utility.yul\":3381:3434   */\n      tag_75\n      jump\t// in\n    tag_110:\n        /* \"#utility.yul\":3371:3434   */\n      swap2\n      pop\n        /* \"#utility.yul\":3327:3444   */\n      pop\n        /* \"#utility.yul\":3188:3451   */\n      swap3\n      swap2\n      pop\n      pop\n      jump\t// out\n        /* \"#utility.yul\":3457:4109   */\n    tag_15:\n        /* \"#utility.yul\":3534:3540   */\n      0x00\n        /* \"#utility.yul\":3542:3548   */\n      dup1\n        /* \"#utility.yul\":3591:3593   */\n      0x40\n        /* \"#utility.yul\":3579:3588   */\n      dup4\n        /* \"#utility.yul\":3570:3577   */\n      dup6\n        /* \"#utility.yul\":3566:3589   */\n      sub\n        /* \"#utility.yul\":3562:3594   */\n      slt\n        /* \"#utility.yul\":3559:3561   */\n      iszero\n      tag_112\n      jumpi\n        /* \"#utility.yul\":3597:3676   */\n      tag_113\n      tag_97\n      jump\t// in\n    tag_113:\n        /* \"#utility.yul\":3559:3561   */\n    tag_112:\n        /* \"#utility.yul\":3717:3718   */\n      0x00\n        /* \"#utility.yul\":3742:3795   */\n      tag_114\n        /* \"#utility.yul\":3787:3794   */\n      dup6\n        /* \"#utility.yul\":3778:3784   */\n      dup3\n        /* \"#utility.yul\":3767:3776   */\n      dup7\n        /* \"#utility.yul\":3763:3785   */\n      add\n        /* \"#utility.yul\":3742:3795   */\n      tag_75\n      jump\t// in\n    tag_114:\n        /* \"#utility.yul\":3732:3795   */\n      swap3\n      pop\n        /* \"#utility.yul\":3688:3805   */\n      pop\n        /* \"#utility.yul\":3872:3874   */\n      0x20\n        /* \"#utility.yul\":3861:3870   */\n      dup4\n        /* \"#utility.yul\":3857:3875   */\n      add\n        /* \"#utility.yul\":3844:3876   */\n      calldataload\n        /* \"#utility.yul\":3903:3921   */\n      0xffffffffffffffff\n        /* \"#utility.yul\":3895:3901   */\n      dup2\n        /* \"#utility.yul\":3892:3922   */\n      gt\n        /* \"#utility.yul\":3889:3891   */\n      iszero\n      tag_115\n      jumpi\n        /* \"#utility.yul\":3925:4004   */\n      tag_116\n      tag_101\n      jump\t// in\n    tag_116:\n        /* \"#utility.yul\":3889:3891   */\n    tag_115:\n        /* \"#utility.yul\":4030:4092   */\n      tag_117\n        /* \"#utility.yul\":4084:4091   */\n      dup6\n        /* \"#utility.yul\":4075:4081   */\n      dup3\n        /* \"#utility.yul\":4064:4073   */\n      dup7\n        /* \"#utility.yul\":4060:4082   */\n      add\n        /* \"#utility.yul\":4030:4092   */\n      tag_79\n      jump\t// in\n    tag_117:\n        /* \"#utility.yul\":4020:4092   */\n      swap2\n      pop\n        /* \"#utility.yul\":3815:4102   */\n      pop\n        /* \"#utility.yul\":3549:4109   */\n      swap3\n      pop\n      swap3\n      swap1\n      pop\n      jump\t// out\n        /* \"#utility.yul\":4115:4624   */\n    tag_21:\n        /* \"#utility.yul\":4184:4190   */\n      0x00\n        /* \"#utility.yul\":4233:4235   */\n      0x20\n        /* \"#utility.yul\":4221:4230   */\n      dup3\n        /* \"#utility.yul\":4212:4219   */\n      dup5\n        /* \"#utility.yul\":4208:4231   */\n      sub\n        /* \"#utility.yul\":4204:4236   */\n      slt\n        /* \"#utility.yul\":4201:4203   */\n      iszero\n      tag_119\n      jumpi\n        /* \"#utility.yul\":4239:4318   */\n      tag_120\n      tag_97\n      jump\t// in\n    tag_120:\n        /* \"#utility.yul\":4201:4203   */\n    tag_119:\n        /* \"#utility.yul\":4387:4388   */\n      0x00\n        /* \"#utility.yul\":4376:4385   */\n      dup3\n        /* \"#utility.yul\":4372:4389   */\n      add\n        /* \"#utility.yul\":4359:4390   */\n      calldataload\n        /* \"#utility.yul\":4417:4435   */\n      0xffffffffffffffff\n        /* \"#utility.yul\":4409:4415   */\n      dup2\n        /* \"#utility.yul\":4406:4436   */\n      gt\n        /* \"#utility.yul\":4403:4405   */\n      iszero\n      tag_121\n      jumpi\n        /* \"#utility.yul\":4439:4518   */\n      tag_122\n      tag_101\n      jump\t// in\n    tag_122:\n        /* \"#utility.yul\":4403:4405   */\n    tag_121:\n        /* \"#utility.yul\":4544:4607   */\n      tag_123\n        /* \"#utility.yul\":4599:4606   */\n      dup5\n        /* \"#utility.yul\":4590:4596   */\n      dup3\n        /* \"#utility.yul\":4579:4588   */\n      dup6\n        /* \"#utility.yul\":4575:4597   */\n      add\n        /* \"#utility.yul\":4544:4607   */\n      tag_85\n      jump\t// in\n    tag_123:\n        /* \"#utility.yul\":4534:4607   */\n      swap2\n      pop\n        /* \"#utility.yul\":4330:4617   */\n      pop\n        /* \"#utility.yul\":4191:4624   */\n      swap3\n      swap2\n      pop\n      pop\n      jump\t// out\n        /* \"#utility.yul\":4630:4748   */\n    tag_124:\n        /* \"#utility.yul\":4717:4741   */\n      tag_126\n        /* \"#utility.yul\":4735:4740   */\n      dup2\n        /* \"#utility.yul\":4717:4741   */\n      tag_127\n      jump\t// in\n    tag_126:\n        /* \"#utility.yul\":4712:4715   */\n      dup3\n        /* \"#utility.yul\":4705:4742   */\n      mstore\n        /* \"#utility.yul\":4695:4748   */\n      pop\n      pop\n      jump\t// out\n        /* \"#utility.yul\":4754:4863   */\n    tag_128:\n        /* \"#utility.yul\":4835:4856   */\n      tag_130\n        /* \"#utility.yul\":4850:4855   */\n      dup2\n        /* \"#utility.yul\":4835:4856   */\n      tag_131\n      jump\t// in\n    tag_130:\n        /* \"#utility.yul\":4830:4833   */\n      dup3\n        /* \"#utility.yul\":4823:4857   */\n      mstore\n        /* \"#utility.yul\":4813:4863   */\n      pop\n      pop\n      jump\t// out\n        /* \"#utility.yul\":4869:4987   */\n    tag_132:\n        /* \"#utility.yul\":4956:4980   */\n      tag_134\n        /* \"#utility.yul\":4974:4979   */\n      dup2\n        /* \"#utility.yul\":4956:4980   */\n      tag_135\n      jump\t// in\n    tag_134:\n        /* \"#utility.yul\":4951:4954   */\n      dup3\n        /* \"#utility.yul\":4944:4981   */\n      mstore\n        /* \"#utility.yul\":4934:4987   */\n      pop\n      pop\n      jump\t// out\n        /* \"#utility.yul\":4993:5150   */\n    tag_136:\n        /* \"#utility.yul\":5098:5143   */\n      tag_138\n        /* \"#utility.yul\":5118:5142   */\n      tag_139\n        /* \"#utility.yul\":5136:5141   */\n      dup3\n        /* \"#utility.yul\":5118:5142   */\n      tag_135\n      jump\t// in\n    tag_139:\n        /* \"#utility.yul\":5098:5143   */\n      tag_140\n      jump\t// in\n    tag_138:\n        /* \"#utility.yul\":5093:5096   */\n      dup3\n        /* \"#utility.yul\":5086:5144   */\n      mstore\n        /* \"#utility.yul\":5076:5150   */\n      pop\n      pop\n      jump\t// out\n        /* \"#utility.yul\":5156:5533   */\n    tag_141:\n        /* \"#utility.yul\":5262:5265   */\n      0x00\n        /* \"#utility.yul\":5290:5329   */\n      tag_143\n        /* \"#utility.yul\":5323:5328   */\n      dup3\n        /* \"#utility.yul\":5290:5329   */\n      tag_144\n      jump\t// in\n    tag_143:\n        /* \"#utility.yul\":5345:5434   */\n      tag_145\n        /* \"#utility.yul\":5427:5433   */\n      dup2\n        /* \"#utility.yul\":5422:5425   */\n      dup6\n        /* \"#utility.yul\":5345:5434   */\n      tag_146\n      jump\t// in\n    tag_145:\n        /* \"#utility.yul\":5338:5434   */\n      swap4\n      pop\n        /* \"#utility.yul\":5443:5495   */\n      tag_147\n        /* \"#utility.yul\":5488:5494   */\n      dup2\n        /* \"#utility.yul\":5483:5486   */\n      dup6\n        /* \"#utility.yul\":5476:5480   */\n      0x20\n        /* \"#utility.yul\":5469:5474   */\n      dup7\n        /* \"#utility.yul\":5465:5481   */\n      add\n        /* \"#utility.yul\":5443:5495   */\n      tag_148\n      jump\t// in\n    tag_147:\n        /* \"#utility.yul\":5520:5526   */\n      dup1\n        /* \"#utility.yul\":5515:5518   */\n      dup5\n        /* \"#utility.yul\":5511:5527   */\n      add\n        /* \"#utility.yul\":5504:5527   */\n      swap2\n      pop\n        /* \"#utility.yul\":5266:5533   */\n      pop\n      swap3\n      swap2\n      pop\n      pop\n      jump\t// out\n        /* \"#utility.yul\":5539:5905   */\n    tag_149:\n        /* \"#utility.yul\":5681:5684   */\n      0x00\n        /* \"#utility.yul\":5702:5769   */\n      tag_151\n        /* \"#utility.yul\":5766:5768   */\n      0x11\n        /* \"#utility.yul\":5761:5764   */\n      dup4\n        /* \"#utility.yul\":5702:5769   */\n      tag_152\n      jump\t// in\n    tag_151:\n        /* \"#utility.yul\":5695:5769   */\n      swap2\n      pop\n        /* \"#utility.yul\":5778:5871   */\n      tag_153\n        /* \"#utility.yul\":5867:5870   */\n      dup3\n        /* \"#utility.yul\":5778:5871   */\n      tag_154\n      jump\t// in\n    tag_153:\n        /* \"#utility.yul\":5896:5898   */\n      0x20\n        /* \"#utility.yul\":5891:5894   */\n      dup3\n        /* \"#utility.yul\":5887:5899   */\n      add\n        /* \"#utility.yul\":5880:5899   */\n      swap1\n      pop\n        /* \"#utility.yul\":5685:5905   */\n      swap2\n      swap1\n      pop\n      jump\t// out\n        /* \"#utility.yul\":5911:6313   */\n    tag_155:\n        /* \"#utility.yul\":6071:6074   */\n      0x00\n        /* \"#utility.yul\":6092:6177   */\n      tag_157\n        /* \"#utility.yul\":6174:6176   */\n      0x1c\n        /* \"#utility.yul\":6169:6172   */\n      dup4\n        /* \"#utility.yul\":6092:6177   */\n      tag_146\n      jump\t// in\n    tag_157:\n        /* \"#utility.yul\":6085:6177   */\n      swap2\n      pop\n        /* \"#utility.yul\":6186:6279   */\n      tag_158\n        /* \"#utility.yul\":6275:6278   */\n      dup3\n        /* \"#utility.yul\":6186:6279   */\n      tag_159\n      jump\t// in\n    tag_158:\n        /* \"#utility.yul\":6304:6306   */\n      0x1c\n        /* \"#utility.yul\":6299:6302   */\n      dup3\n        /* \"#utility.yul\":6295:6307   */\n      add\n        /* \"#utility.yul\":6288:6307   */\n      swap1\n      pop\n        /* \"#utility.yul\":6075:6313   */\n      swap2\n      swap1\n      pop\n      jump\t// out\n        /* \"#utility.yul\":6319:6431   */\n    tag_160:\n        /* \"#utility.yul\":6402:6424   */\n      tag_162\n        /* \"#utility.yul\":6418:6423   */\n      dup2\n        /* \"#utility.yul\":6402:6424   */\n      tag_163\n      jump\t// in\n    tag_162:\n        /* \"#utility.yul\":6397:6400   */\n      dup3\n        /* \"#utility.yul\":6390:6425   */\n      mstore\n        /* \"#utility.yul\":6380:6431   */\n      pop\n      pop\n      jump\t// out\n        /* \"#utility.yul\":6437:6712   */\n    tag_43:\n        /* \"#utility.yul\":6569:6572   */\n      0x00\n        /* \"#utility.yul\":6591:6686   */\n      tag_165\n        /* \"#utility.yul\":6682:6685   */\n      dup3\n        /* \"#utility.yul\":6673:6679   */\n      dup5\n        /* \"#utility.yul\":6591:6686   */\n      tag_141\n      jump\t// in\n    tag_165:\n        /* \"#utility.yul\":6584:6686   */\n      swap2\n      pop\n        /* \"#utility.yul\":6703:6706   */\n      dup2\n        /* \"#utility.yul\":6696:6706   */\n      swap1\n      pop\n        /* \"#utility.yul\":6573:6712   */\n      swap3\n      swap2\n      pop\n      pop\n      jump\t// out\n        /* \"#utility.yul\":6718:7240   */\n    tag_46:\n        /* \"#utility.yul\":6931:6934   */\n      0x00\n        /* \"#utility.yul\":6953:7101   */\n      tag_167\n        /* \"#utility.yul\":7097:7100   */\n      dup3\n        /* \"#utility.yul\":6953:7101   */\n      tag_155\n      jump\t// in\n    tag_167:\n        /* \"#utility.yul\":6946:7101   */\n      swap2\n      pop\n        /* \"#utility.yul\":7111:7186   */\n      tag_168\n        /* \"#utility.yul\":7182:7185   */\n      dup3\n        /* \"#utility.yul\":7173:7179   */\n      dup5\n        /* \"#utility.yul\":7111:7186   */\n      tag_136\n      jump\t// in\n    tag_168:\n        /* \"#utility.yul\":7211:7213   */\n      0x20\n        /* \"#utility.yul\":7206:7209   */\n      dup3\n        /* \"#utility.yul\":7202:7214   */\n      add\n        /* \"#utility.yul\":7195:7214   */\n      swap2\n      pop\n        /* \"#utility.yul\":7231:7234   */\n      dup2\n        /* \"#utility.yul\":7224:7234   */\n      swap1\n      pop\n        /* \"#utility.yul\":6935:7240   */\n      swap3\n      swap2\n      pop\n      pop\n      jump\t// out\n        /* \"#utility.yul\":7246:7468   */\n    tag_18:\n        /* \"#utility.yul\":7339:7343   */\n      0x00\n        /* \"#utility.yul\":7377:7379   */\n      0x20\n        /* \"#utility.yul\":7366:7375   */\n      dup3\n        /* \"#utility.yul\":7362:7380   */\n      add\n        /* \"#utility.yul\":7354:7380   */\n      swap1\n      pop\n        /* \"#utility.yul\":7390:7461   */\n      tag_170\n        /* \"#utility.yul\":7458:7459   */\n      0x00\n        /* \"#utility.yul\":7447:7456   */\n      dup4\n        /* \"#utility.yul\":7443:7460   */\n      add\n        /* \"#utility.yul\":7434:7440   */\n      dup5\n        /* \"#utility.yul\":7390:7461   */\n      tag_124\n      jump\t// in\n    tag_170:\n        /* \"#utility.yul\":7344:7468   */\n      swap3\n      swap2\n      pop\n      pop\n      jump\t// out\n        /* \"#utility.yul\":7474:7684   */\n    tag_12:\n        /* \"#utility.yul\":7561:7565   */\n      0x00\n        /* \"#utility.yul\":7599:7601   */\n      0x20\n        /* \"#utility.yul\":7588:7597   */\n      dup3\n        /* \"#utility.yul\":7584:7602   */\n      add\n        /* \"#utility.yul\":7576:7602   */\n      swap1\n      pop\n        /* \"#utility.yul\":7612:7677   */\n      tag_172\n        /* \"#utility.yul\":7674:7675   */\n      0x00\n        /* \"#utility.yul\":7663:7672   */\n      dup4\n        /* \"#utility.yul\":7659:7676   */\n      add\n        /* \"#utility.yul\":7650:7656   */\n      dup5\n        /* \"#utility.yul\":7612:7677   */\n      tag_128\n      jump\t// in\n    tag_172:\n        /* \"#utility.yul\":7566:7684   */\n      swap3\n      swap2\n      pop\n      pop\n      jump\t// out\n        /* \"#utility.yul\":7690:7912   */\n    tag_24:\n        /* \"#utility.yul\":7783:7787   */\n      0x00\n        /* \"#utility.yul\":7821:7823   */\n      0x20\n        /* \"#utility.yul\":7810:7819   */\n      dup3\n        /* \"#utility.yul\":7806:7824   */\n      add\n        /* \"#utility.yul\":7798:7824   */\n      swap1\n      pop\n        /* \"#utility.yul\":7834:7905   */\n      tag_174\n        /* \"#utility.yul\":7902:7903   */\n      0x00\n        /* \"#utility.yul\":7891:7900   */\n      dup4\n        /* \"#utility.yul\":7887:7904   */\n      add\n        /* \"#utility.yul\":7878:7884   */\n      dup5\n        /* \"#utility.yul\":7834:7905   */\n      tag_132\n      jump\t// in\n    tag_174:\n        /* \"#utility.yul\":7788:7912   */\n      swap3\n      swap2\n      pop\n      pop\n      jump\t// out\n        /* \"#utility.yul\":7918:8463   */\n    tag_38:\n        /* \"#utility.yul\":8091:8095   */\n      0x00\n        /* \"#utility.yul\":8129:8132   */\n      0x80\n        /* \"#utility.yul\":8118:8127   */\n      dup3\n        /* \"#utility.yul\":8114:8133   */\n      add\n        /* \"#utility.yul\":8106:8133   */\n      swap1\n      pop\n        /* \"#utility.yul\":8143:8214   */\n      tag_176\n        /* \"#utility.yul\":8211:8212   */\n      0x00\n        /* \"#utility.yul\":8200:8209   */\n      dup4\n        /* \"#utility.yul\":8196:8213   */\n      add\n        /* \"#utility.yul\":8187:8193   */\n      dup8\n        /* \"#utility.yul\":8143:8214   */\n      tag_132\n      jump\t// in\n    tag_176:\n        /* \"#utility.yul\":8224:8292   */\n      tag_177\n        /* \"#utility.yul\":8288:8290   */\n      0x20\n        /* \"#utility.yul\":8277:8286   */\n      dup4\n        /* \"#utility.yul\":8273:8291   */\n      add\n        /* \"#utility.yul\":8264:8270   */\n      dup7\n        /* \"#utility.yul\":8224:8292   */\n      tag_160\n      jump\t// in\n    tag_177:\n        /* \"#utility.yul\":8302:8374   */\n      tag_178\n        /* \"#utility.yul\":8370:8372   */\n      0x40\n        /* \"#utility.yul\":8359:8368   */\n      dup4\n        /* \"#utility.yul\":8355:8373   */\n      add\n        /* \"#utility.yul\":8346:8352   */\n      dup6\n        /* \"#utility.yul\":8302:8374   */\n      tag_132\n      jump\t// in\n    tag_178:\n        /* \"#utility.yul\":8384:8456   */\n      tag_179\n        /* \"#utility.yul\":8452:8454   */\n      0x60\n        /* \"#utility.yul\":8441:8450   */\n      dup4\n        /* \"#utility.yul\":8437:8455   */\n      add\n        /* \"#utility.yul\":8428:8434   */\n      dup5\n        /* \"#utility.yul\":8384:8456   */\n      tag_132\n      jump\t// in\n    tag_179:\n        /* \"#utility.yul\":8096:8463   */\n      swap6\n      swap5\n      pop\n      pop\n      pop\n      pop\n      pop\n      jump\t// out\n        /* \"#utility.yul\":8469:8888   */\n    tag_50:\n        /* \"#utility.yul\":8635:8639   */\n      0x00\n        /* \"#utility.yul\":8673:8675   */\n      0x20\n        /* \"#utility.yul\":8662:8671   */\n      dup3\n        /* \"#utility.yul\":8658:8676   */\n      add\n        /* \"#utility.yul\":8650:8676   */\n      swap1\n      pop\n        /* \"#utility.yul\":8722:8731   */\n      dup2\n        /* \"#utility.yul\":8716:8720   */\n      dup2\n        /* \"#utility.yul\":8712:8732   */\n      sub\n        /* \"#utility.yul\":8708:8709   */\n      0x00\n        /* \"#utility.yul\":8697:8706   */\n      dup4\n        /* \"#utility.yul\":8693:8710   */\n      add\n        /* \"#utility.yul\":8686:8733   */\n      mstore\n        /* \"#utility.yul\":8750:8881   */\n      tag_181\n        /* \"#utility.yul\":8876:8880   */\n      dup2\n        /* \"#utility.yul\":8750:8881   */\n      tag_149\n      jump\t// in\n    tag_181:\n        /* \"#utility.yul\":8742:8881   */\n      swap1\n      pop\n        /* \"#utility.yul\":8640:8888   */\n      swap2\n      swap1\n      pop\n      jump\t// out\n        /* \"#utility.yul\":8894:9023   */\n    tag_57:\n        /* \"#utility.yul\":8928:8934   */\n      0x00\n        /* \"#utility.yul\":8955:8975   */\n      tag_183\n      tag_184\n      jump\t// in\n    tag_183:\n        /* \"#utility.yul\":8945:8975   */\n      swap1\n      pop\n        /* \"#utility.yul\":8984:9017   */\n      tag_185\n        /* \"#utility.yul\":9012:9016   */\n      dup3\n        /* \"#utility.yul\":9004:9010   */\n      dup3\n        /* \"#utility.yul\":8984:9017   */\n      tag_186\n      jump\t// in\n    tag_185:\n        /* \"#utility.yul\":8935:9023   */\n      swap2\n      swap1\n      pop\n      jump\t// out\n        /* \"#utility.yul\":9029:9104   */\n    tag_184:\n        /* \"#utility.yul\":9062:9068   */\n      0x00\n        /* \"#utility.yul\":9095:9097   */\n      0x40\n        /* \"#utility.yul\":9089:9098   */\n      mload\n        /* \"#utility.yul\":9079:9098   */\n      swap1\n      pop\n        /* \"#utility.yul\":9069:9104   */\n      swap1\n      jump\t// out\n        /* \"#utility.yul\":9110:9417   */\n    tag_56:\n        /* \"#utility.yul\":9171:9175   */\n      0x00\n        /* \"#utility.yul\":9261:9279   */\n      0xffffffffffffffff\n        /* \"#utility.yul\":9253:9259   */\n      dup3\n        /* \"#utility.yul\":9250:9280   */\n      gt\n        /* \"#utility.yul\":9247:9249   */\n      iszero\n      tag_189\n      jumpi\n        /* \"#utility.yul\":9283:9301   */\n      tag_190\n      tag_191\n      jump\t// in\n    tag_190:\n        /* \"#utility.yul\":9247:9249   */\n    tag_189:\n        /* \"#utility.yul\":9321:9350   */\n      tag_192\n        /* \"#utility.yul\":9343:9349   */\n      dup3\n        /* \"#utility.yul\":9321:9350   */\n      tag_193\n      jump\t// in\n    tag_192:\n        /* \"#utility.yul\":9313:9350   */\n      swap1\n      pop\n        /* \"#utility.yul\":9405:9409   */\n      0x20\n        /* \"#utility.yul\":9399:9403   */\n      dup2\n        /* \"#utility.yul\":9395:9410   */\n      add\n        /* \"#utility.yul\":9387:9410   */\n      swap1\n      pop\n        /* \"#utility.yul\":9176:9417   */\n      swap2\n      swap1\n      pop\n      jump\t// out\n        /* \"#utility.yul\":9423:9731   */\n    tag_67:\n        /* \"#utility.yul\":9485:9489   */\n      0x00\n        /* \"#utility.yul\":9575:9593   */\n      0xffffffffffffffff\n        /* \"#utility.yul\":9567:9573   */\n      dup3\n        /* \"#utility.yul\":9564:9594   */\n      gt\n        /* \"#utility.yul\":9561:9563   */\n      iszero\n      tag_195\n      jumpi\n        /* \"#utility.yul\":9597:9615   */\n      tag_196\n      tag_191\n      jump\t// in\n    tag_196:\n        /* \"#utility.yul\":9561:9563   */\n    tag_195:\n        /* \"#utility.yul\":9635:9664   */\n      tag_197\n        /* \"#utility.yul\":9657:9663   */\n      dup3\n        /* \"#utility.yul\":9635:9664   */\n      tag_193\n      jump\t// in\n    tag_197:\n        /* \"#utility.yul\":9627:9664   */\n      swap1\n      pop\n        /* \"#utility.yul\":9719:9723   */\n      0x20\n        /* \"#utility.yul\":9713:9717   */\n      dup2\n        /* \"#utility.yul\":9709:9724   */\n      add\n        /* \"#utility.yul\":9701:9724   */\n      swap1\n      pop\n        /* \"#utility.yul\":9490:9731   */\n      swap2\n      swap1\n      pop\n      jump\t// out\n        /* \"#utility.yul\":9737:9836   */\n    tag_144:\n        /* \"#utility.yul\":9789:9795   */\n      0x00\n        /* \"#utility.yul\":9823:9828   */\n      dup2\n        /* \"#utility.yul\":9817:9829   */\n      mload\n        /* \"#utility.yul\":9807:9829   */\n      swap1\n      pop\n        /* \"#utility.yul\":9796:9836   */\n      swap2\n      swap1\n      pop\n      jump\t// out\n        /* \"#utility.yul\":9842:10011   */\n    tag_152:\n        /* \"#utility.yul\":9926:9937   */\n      0x00\n        /* \"#utility.yul\":9960:9966   */\n      dup3\n        /* \"#utility.yul\":9955:9958   */\n      dup3\n        /* \"#utility.yul\":9948:9967   */\n      mstore\n        /* \"#utility.yul\":10000:10004   */\n      0x20\n        /* \"#utility.yul\":9995:9998   */\n      dup3\n        /* \"#utility.yul\":9991:10005   */\n      add\n        /* \"#utility.yul\":9976:10005   */\n      swap1\n      pop\n        /* \"#utility.yul\":9938:10011   */\n      swap3\n      swap2\n      pop\n      pop\n      jump\t// out\n        /* \"#utility.yul\":10017:10165   */\n    tag_146:\n        /* \"#utility.yul\":10119:10130   */\n      0x00\n        /* \"#utility.yul\":10156:10159   */\n      dup2\n        /* \"#utility.yul\":10141:10159   */\n      swap1\n      pop\n        /* \"#utility.yul\":10131:10165   */\n      swap3\n      swap2\n      pop\n      pop\n      jump\t// out\n        /* \"#utility.yul\":10171:10267   */\n    tag_127:\n        /* \"#utility.yul\":10208:10215   */\n      0x00\n        /* \"#utility.yul\":10237:10261   */\n      tag_202\n        /* \"#utility.yul\":10255:10260   */\n      dup3\n        /* \"#utility.yul\":10237:10261   */\n      tag_203\n      jump\t// in\n    tag_202:\n        /* \"#utility.yul\":10226:10261   */\n      swap1\n      pop\n        /* \"#utility.yul\":10216:10267   */\n      swap2\n      swap1\n      pop\n      jump\t// out\n        /* \"#utility.yul\":10273:10363   */\n    tag_131:\n        /* \"#utility.yul\":10307:10314   */\n      0x00\n        /* \"#utility.yul\":10350:10355   */\n      dup2\n        /* \"#utility.yul\":10343:10356   */\n      iszero\n        /* \"#utility.yul\":10336:10357   */\n      iszero\n        /* \"#utility.yul\":10325:10357   */\n      swap1\n      pop\n        /* \"#utility.yul\":10315:10363   */\n      swap2\n      swap1\n      pop\n      jump\t// out\n        /* \"#utility.yul\":10369:10446   */\n    tag_135:\n        /* \"#utility.yul\":10406:10413   */\n      0x00\n        /* \"#utility.yul\":10435:10440   */\n      dup2\n        /* \"#utility.yul\":10424:10440   */\n      swap1\n      pop\n        /* \"#utility.yul\":10414:10446   */\n      swap2\n      swap1\n      pop\n      jump\t// out\n        /* \"#utility.yul\":10452:10578   */\n    tag_203:\n        /* \"#utility.yul\":10489:10496   */\n      0x00\n        /* \"#utility.yul\":10529:10571   */\n      0xffffffffffffffffffffffffffffffffffffffff\n        /* \"#utility.yul\":10522:10527   */\n      dup3\n        /* \"#utility.yul\":10518:10572   */\n      and\n        /* \"#utility.yul\":10507:10572   */\n      swap1\n      pop\n        /* \"#utility.yul\":10497:10578   */\n      swap2\n      swap1\n      pop\n      jump\t// out\n        /* \"#utility.yul\":10584:10661   */\n    tag_207:\n        /* \"#utility.yul\":10621:10628   */\n      0x00\n        /* \"#utility.yul\":10650:10655   */\n      dup2\n        /* \"#utility.yul\":10639:10655   */\n      swap1\n      pop\n        /* \"#utility.yul\":10629:10661   */\n      swap2\n      swap1\n      pop\n      jump\t// out\n        /* \"#utility.yul\":10667:10753   */\n    tag_163:\n        /* \"#utility.yul\":10702:10709   */\n      0x00\n        /* \"#utility.yul\":10742:10746   */\n      0xff\n        /* \"#utility.yul\":10735:10740   */\n      dup3\n        /* \"#utility.yul\":10731:10747   */\n      and\n        /* \"#utility.yul\":10720:10747   */\n      swap1\n      pop\n        /* \"#utility.yul\":10710:10753   */\n      swap2\n      swap1\n      pop\n      jump\t// out\n        /* \"#utility.yul\":10759:10913   */\n    tag_62:\n        /* \"#utility.yul\":10843:10849   */\n      dup3\n        /* \"#utility.yul\":10838:10841   */\n      dup2\n        /* \"#utility.yul\":10833:10836   */\n      dup4\n        /* \"#utility.yul\":10820:10850   */\n      calldatacopy\n        /* \"#utility.yul\":10905:10906   */\n      0x00\n        /* \"#utility.yul\":10896:10902   */\n      dup4\n        /* \"#utility.yul\":10891:10894   */\n      dup4\n        /* \"#utility.yul\":10887:10903   */\n      add\n        /* \"#utility.yul\":10880:10907   */\n      mstore\n        /* \"#utility.yul\":10810:10913   */\n      pop\n      pop\n      pop\n      jump\t// out\n        /* \"#utility.yul\":10919:11226   */\n    tag_148:\n        /* \"#utility.yul\":10987:10988   */\n      0x00\n        /* \"#utility.yul\":10997:11110   */\n    tag_212:\n        /* \"#utility.yul\":11011:11017   */\n      dup4\n        /* \"#utility.yul\":11008:11009   */\n      dup2\n        /* \"#utility.yul\":11005:11018   */\n      lt\n        /* \"#utility.yul\":10997:11110   */\n      iszero\n      tag_214\n      jumpi\n        /* \"#utility.yul\":11096:11097   */\n      dup1\n        /* \"#utility.yul\":11091:11094   */\n      dup3\n        /* \"#utility.yul\":11087:11098   */\n      add\n        /* \"#utility.yul\":11081:11099   */\n      mload\n        /* \"#utility.yul\":11077:11078   */\n      dup2\n        /* \"#utility.yul\":11072:11075   */\n      dup5\n        /* \"#utility.yul\":11068:11079   */\n      add\n        /* \"#utility.yul\":11061:11100   */\n      mstore\n        /* \"#utility.yul\":11033:11035   */\n      0x20\n        /* \"#utility.yul\":11030:11031   */\n      dup2\n        /* \"#utility.yul\":11026:11036   */\n      add\n        /* \"#utility.yul\":11021:11036   */\n      swap1\n      pop\n        /* \"#utility.yul\":10997:11110   */\n      jump(tag_212)\n    tag_214:\n        /* \"#utility.yul\":11128:11134   */\n      dup4\n        /* \"#utility.yul\":11125:11126   */\n      dup2\n        /* \"#utility.yul\":11122:11135   */\n      gt\n        /* \"#utility.yul\":11119:11121   */\n      iszero\n      tag_215\n      jumpi\n        /* \"#utility.yul\":11208:11209   */\n      0x00\n        /* \"#utility.yul\":11199:11205   */\n      dup5\n        /* \"#utility.yul\":11194:11197   */\n      dup5\n        /* \"#utility.yul\":11190:11206   */\n      add\n        /* \"#utility.yul\":11183:11210   */\n      mstore\n        /* \"#utility.yul\":11119:11121   */\n    tag_215:\n        /* \"#utility.yul\":10968:11226   */\n      pop\n      pop\n      pop\n      pop\n      jump\t// out\n        /* \"#utility.yul\":11232:11513   */\n    tag_186:\n        /* \"#utility.yul\":11315:11342   */\n      tag_217\n        /* \"#utility.yul\":11337:11341   */\n      dup3\n        /* \"#utility.yul\":11315:11342   */\n      tag_193\n      jump\t// in\n    tag_217:\n        /* \"#utility.yul\":11307:11313   */\n      dup2\n        /* \"#utility.yul\":11303:11343   */\n      add\n        /* \"#utility.yul\":11445:11451   */\n      dup2\n        /* \"#utility.yul\":11433:11443   */\n      dup2\n        /* \"#utility.yul\":11430:11452   */\n      lt\n        /* \"#utility.yul\":11409:11427   */\n      0xffffffffffffffff\n        /* \"#utility.yul\":11397:11407   */\n      dup3\n        /* \"#utility.yul\":11394:11428   */\n      gt\n        /* \"#utility.yul\":11391:11453   */\n      or\n        /* \"#utility.yul\":11388:11390   */\n      iszero\n      tag_218\n      jumpi\n        /* \"#utility.yul\":11456:11474   */\n      tag_219\n      tag_191\n      jump\t// in\n    tag_219:\n        /* \"#utility.yul\":11388:11390   */\n    tag_218:\n        /* \"#utility.yul\":11496:11506   */\n      dup1\n        /* \"#utility.yul\":11492:11494   */\n      0x40\n        /* \"#utility.yul\":11485:11507   */\n      mstore\n        /* \"#utility.yul\":11275:11513   */\n      pop\n      pop\n      pop\n      jump\t// out\n        /* \"#utility.yul\":11519:11598   */\n    tag_140:\n        /* \"#utility.yul\":11558:11565   */\n      0x00\n        /* \"#utility.yul\":11587:11592   */\n      dup2\n        /* \"#utility.yul\":11576:11592   */\n      swap1\n      pop\n        /* \"#utility.yul\":11566:11598   */\n      swap2\n      swap1\n      pop\n      jump\t// out\n        /* \"#utility.yul\":11604:11784   */\n    tag_191:\n        /* \"#utility.yul\":11652:11729   */\n      0x4e487b7100000000000000000000000000000000000000000000000000000000\n        /* \"#utility.yul\":11649:11650   */\n      0x00\n        /* \"#utility.yul\":11642:11730   */\n      mstore\n        /* \"#utility.yul\":11749:11753   */\n      0x41\n        /* \"#utility.yul\":11746:11747   */\n      0x04\n        /* \"#utility.yul\":11739:11754   */\n      mstore\n        /* \"#utility.yul\":11773:11777   */\n      0x24\n        /* \"#utility.yul\":11770:11771   */\n      0x00\n        /* \"#utility.yul\":11763:11778   */\n      revert\n        /* \"#utility.yul\":11790:11907   */\n    tag_83:\n        /* \"#utility.yul\":11899:11900   */\n      0x00\n        /* \"#utility.yul\":11896:11897   */\n      dup1\n        /* \"#utility.yul\":11889:11901   */\n      revert\n        /* \"#utility.yul\":11913:12030   */\n    tag_60:\n        /* \"#utility.yul\":12022:12023   */\n      0x00\n        /* \"#utility.yul\":12019:12020   */\n      dup1\n        /* \"#utility.yul\":12012:12024   */\n      revert\n        /* \"#utility.yul\":12036:12153   */\n    tag_101:\n        /* \"#utility.yul\":12145:12146   */\n      0x00\n        /* \"#utility.yul\":12142:12143   */\n      dup1\n        /* \"#utility.yul\":12135:12147   */\n      revert\n        /* \"#utility.yul\":12159:12276   */\n    tag_97:\n        /* \"#utility.yul\":12268:12269   */\n      0x00\n        /* \"#utility.yul\":12265:12266   */\n      dup1\n        /* \"#utility.yul\":12258:12270   */\n      revert\n        /* \"#utility.yul\":12282:12384   */\n    tag_193:\n        /* \"#utility.yul\":12323:12329   */\n      0x00\n        /* \"#utility.yul\":12374:12376   */\n      0x1f\n        /* \"#utility.yul\":12370:12377   */\n      not\n        /* \"#utility.yul\":12365:12367   */\n      0x1f\n        /* \"#utility.yul\":12358:12363   */\n      dup4\n        /* \"#utility.yul\":12354:12368   */\n      add\n        /* \"#utility.yul\":12350:12378   */\n      and\n        /* \"#utility.yul\":12340:12378   */\n      swap1\n      pop\n        /* \"#utility.yul\":12330:12384   */\n      swap2\n      swap1\n      pop\n      jump\t// out\n        /* \"#utility.yul\":12390:12557   */\n    tag_154:\n        /* \"#utility.yul\":12530:12549   */\n      0x696e76616c6964207369676e6174757265000000000000000000000000000000\n        /* \"#utility.yul\":12526:12527   */\n      0x00\n        /* \"#utility.yul\":12518:12524   */\n      dup3\n        /* \"#utility.yul\":12514:12528   */\n      add\n        /* \"#utility.yul\":12507:12550   */\n      mstore\n        /* \"#utility.yul\":12496:12557   */\n      pop\n      jump\t// out\n        /* \"#utility.yul\":12563:12777   */\n    tag_159:\n        /* \"#utility.yul\":12703:12769   */\n      0x19457468657265756d205369676e6564204d6573736167653a0a333200000000\n        /* \"#utility.yul\":12699:12700   */\n      0x00\n        /* \"#utility.yul\":12691:12697   */\n      dup3\n        /* \"#utility.yul\":12687:12701   */\n      add\n        /* \"#utility.yul\":12680:12770   */\n      mstore\n        /* \"#utility.yul\":12669:12777   */\n      pop\n      jump\t// out\n        /* \"#utility.yul\":12783:12905   */\n    tag_74:\n        /* \"#utility.yul\":12856:12880   */\n      tag_230\n        /* \"#utility.yul\":12874:12879   */\n      dup2\n        /* \"#utility.yul\":12856:12880   */\n      tag_127\n      jump\t// in\n    tag_230:\n        /* \"#utility.yul\":12849:12854   */\n      dup2\n        /* \"#utility.yul\":12846:12881   */\n      eq\n        /* \"#utility.yul\":12836:12838   */\n      tag_231\n      jumpi\n        /* \"#utility.yul\":12895:12896   */\n      0x00\n        /* \"#utility.yul\":12892:12893   */\n      dup1\n        /* \"#utility.yul\":12885:12897   */\n      revert\n        /* \"#utility.yul\":12836:12838   */\n    tag_231:\n        /* \"#utility.yul\":12826:12905   */\n      pop\n      jump\t// out\n        /* \"#utility.yul\":12911:13033   */\n    tag_78:\n        /* \"#utility.yul\":12984:13008   */\n      tag_233\n        /* \"#utility.yul\":13002:13007   */\n      dup2\n        /* \"#utility.yul\":12984:13008   */\n      tag_135\n      jump\t// in\n    tag_233:\n        /* \"#utility.yul\":12977:12982   */\n      dup2\n        /* \"#utility.yul\":12974:13009   */\n      eq\n        /* \"#utility.yul\":12964:12966   */\n      tag_234\n      jumpi\n        /* \"#utility.yul\":13023:13024   */\n      0x00\n        /* \"#utility.yul\":13020:13021   */\n      dup1\n        /* \"#utility.yul\":13013:13025   */\n      revert\n        /* \"#utility.yul\":12964:12966   */\n    tag_234:\n        /* \"#utility.yul\":12954:13033   */\n      pop\n      jump\t// out\n        /* \"#utility.yul\":13039:13161   */\n    tag_93:\n        /* \"#utility.yul\":13112:13136   */\n      tag_236\n        /* \"#utility.yul\":13130:13135   */\n      dup2\n        /* \"#utility.yul\":13112:13136   */\n      tag_207\n      jump\t// in\n    tag_236:\n        /* \"#utility.yul\":13105:13110   */\n      dup2\n        /* \"#utility.yul\":13102:13137   */\n      eq\n        /* \"#utility.yul\":13092:13094   */\n      tag_237\n      jumpi\n        /* \"#utility.yul\":13151:13152   */\n      0x00\n        /* \"#utility.yul\":13148:13149   */\n      dup1\n        /* \"#utility.yul\":13141:13153   */\n      revert\n        /* \"#utility.yul\":13092:13094   */\n    tag_237:\n        /* \"#utility.yul\":13082:13161   */\n      pop\n      jump\t// out\n\n    auxdata: 0xa264697066735822122001285ec1d643a37709fc8755bfa3cd90d5214a44b8b46405b1e93a78fa9a9f5864736f6c63430008060033\n}\n",
				"bytecode": {
					"linkReferences": {},
					"object": "608060405234801561001057600080fd5b5061099f806100206000396000f3fe608060405234801561001057600080fd5b506004361061004c5760003560e01c806307546f1a1461005157806319045a2514610081578063b446f3b2146100b1578063fa540801146100e1575b600080fd5b61006b600480360381019061006691906103c6565b610111565b6040516100789190610659565b60405180910390f35b61009b60048036038101906100969190610492565b610170565b6040516100a8919061063e565b60405180910390f35b6100cb60048036038101906100c691906104ee565b6101df565b6040516100d89190610674565b60405180910390f35b6100fb60048036038101906100f69190610465565b61020f565b6040516101089190610674565b60405180910390f35b60008061011d856101df565b9050600061012a8261020f565b90508673ffffffffffffffffffffffffffffffffffffffff1661014d8286610170565b73ffffffffffffffffffffffffffffffffffffffff161492505050949350505050565b60008060008061017f8561023f565b925092509250600186828585604051600081526020016040526040516101a8949392919061068f565b6020604051602081039080840390855afa1580156101ca573d6000803e3d6000fd5b50505060206040510351935050505092915050565b6000816040516020016101f29190610601565b604051602081830303815290604052805190602001209050919050565b6000816040516020016102229190610618565b604051602081830303815290604052805190602001209050919050565b60008060006041845114610288576040517f08c379a000000000000000000000000000000000000000000000000000000000815260040161027f906106d4565b60405180910390fd5b6020840151925060408401519150606084015160001a90509193909250565b60006102ba6102b584610719565b6106f4565b9050828152602081018484840111156102d6576102d56108b2565b5b6102e1848285610801565b509392505050565b60006102fc6102f78461074a565b6106f4565b905082815260208101848484011115610318576103176108b2565b5b610323848285610801565b509392505050565b60008135905061033a81610924565b92915050565b60008135905061034f8161093b565b92915050565b600082601f83011261036a576103696108ad565b5b813561037a8482602086016102a7565b91505092915050565b600082601f830112610398576103976108ad565b5b81356103a88482602086016102e9565b91505092915050565b6000813590506103c081610952565b92915050565b600080600080608085870312156103e0576103df6108bc565b5b60006103ee8782880161032b565b945050602085013567ffffffffffffffff81111561040f5761040e6108b7565b5b61041b87828801610383565b935050604061042c878288016103b1565b925050606085013567ffffffffffffffff81111561044d5761044c6108b7565b5b61045987828801610355565b91505092959194509250565b60006020828403121561047b5761047a6108bc565b5b600061048984828501610340565b91505092915050565b600080604083850312156104a9576104a86108bc565b5b60006104b785828601610340565b925050602083013567ffffffffffffffff8111156104d8576104d76108b7565b5b6104e485828601610355565b9150509250929050565b600060208284031215610504576105036108bc565b5b600082013567ffffffffffffffff811115610522576105216108b7565b5b61052e84828501610383565b91505092915050565b610540816107a2565b82525050565b61054f816107b4565b82525050565b61055e816107c0565b82525050565b610575610570826107c0565b610874565b82525050565b60006105868261077b565b6105908185610797565b93506105a0818560208601610810565b80840191505092915050565b60006105b9601183610786565b91506105c4826108d2565b602082019050919050565b60006105dc601c83610797565b91506105e7826108fb565b601c82019050919050565b6105fb816107f4565b82525050565b600061060d828461057b565b915081905092915050565b6000610623826105cf565b915061062f8284610564565b60208201915081905092915050565b60006020820190506106536000830184610537565b92915050565b600060208201905061066e6000830184610546565b92915050565b60006020820190506106896000830184610555565b92915050565b60006080820190506106a46000830187610555565b6106b160208301866105f2565b6106be6040830185610555565b6106cb6060830184610555565b95945050505050565b600060208201905081810360008301526106ed816105ac565b9050919050565b60006106fe61070f565b905061070a8282610843565b919050565b6000604051905090565b600067ffffffffffffffff8211156107345761073361087e565b5b61073d826108c1565b9050602081019050919050565b600067ffffffffffffffff8211156107655761076461087e565b5b61076e826108c1565b9050602081019050919050565b600081519050919050565b600082825260208201905092915050565b600081905092915050565b60006107ad826107ca565b9050919050565b60008115159050919050565b6000819050919050565b600073ffffffffffffffffffffffffffffffffffffffff82169050919050565b6000819050919050565b600060ff82169050919050565b82818337600083830152505050565b60005b8381101561082e578082015181840152602081019050610813565b8381111561083d576000848401525b50505050565b61084c826108c1565b810181811067ffffffffffffffff8211171561086b5761086a61087e565b5b80604052505050565b6000819050919050565b7f4e487b7100000000000000000000000000000000000000000000000000000000600052604160045260246000fd5b600080fd5b600080fd5b600080fd5b600080fd5b6000601f19601f8301169050919050565b7f696e76616c6964207369676e6174757265000000000000000000000000000000600082015250565b7f19457468657265756d205369676e6564204d6573736167653a0a333200000000600082015250565b61092d816107a2565b811461093857600080fd5b50565b610944816107c0565b811461094f57600080fd5b50565b61095b816107ea565b811461096657600080fd5b5056fea264697066735822122001285ec1d643a37709fc8755bfa3cd90d5214a44b8b46405b1e93a78fa9a9f5864736f6c63430008060033",
					"opcodes": "PUSH1 0x80 PUSH1 0x40 MSTORE CALLVALUE DUP1 ISZERO PUSH2 0x10 JUMPI PUSH1 0x0 DUP1 REVERT JUMPDEST POP PUSH2 0x99F DUP1 PUSH2 0x20 PUSH1 0x0 CODECOPY PUSH1 0x0 RETURN INVALID PUSH1 0x80 PUSH1 0x40 MSTORE CALLVALUE DUP1 ISZERO PUSH2 0x10 JUMPI PUSH1 0x0 DUP1 REVERT JUMPDEST POP PUSH1 0x4 CALLDATASIZE LT PUSH2 0x4C JUMPI PUSH1 0x0 CALLDATALOAD PUSH1 0xE0 SHR DUP1 PUSH4 0x7546F1A EQ PUSH2 0x51 JUMPI DUP1 PUSH4 0x19045A25 EQ PUSH2 0x81 JUMPI DUP1 PUSH4 0xB446F3B2 EQ PUSH2 0xB1 JUMPI DUP1 PUSH4 0xFA540801 EQ PUSH2 0xE1 JUMPI JUMPDEST PUSH1 0x0 DUP1 REVERT JUMPDEST PUSH2 0x6B PUSH1 0x4 DUP1 CALLDATASIZE SUB DUP2 ADD SWAP1 PUSH2 0x66 SWAP2 SWAP1 PUSH2 0x3C6 JUMP JUMPDEST PUSH2 0x111 JUMP JUMPDEST PUSH1 0x40 MLOAD PUSH2 0x78 SWAP2 SWAP1 PUSH2 0x659 JUMP JUMPDEST PUSH1 0x40 MLOAD DUP1 SWAP2 SUB SWAP1 RETURN JUMPDEST PUSH2 0x9B PUSH1 0x4 DUP1 CALLDATASIZE SUB DUP2 ADD SWAP1 PUSH2 0x96 SWAP2 SWAP1 PUSH2 0x492 JUMP JUMPDEST PUSH2 0x170 JUMP JUMPDEST PUSH1 0x40 MLOAD PUSH2 0xA8 SWAP2 SWAP1 PUSH2 0x63E JUMP JUMPDEST PUSH1 0x40 MLOAD DUP1 SWAP2 SUB SWAP1 RETURN JUMPDEST PUSH2 0xCB PUSH1 0x4 DUP1 CALLDATASIZE SUB DUP2 ADD SWAP1 PUSH2 0xC6 SWAP2 SWAP1 PUSH2 0x4EE JUMP JUMPDEST PUSH2 0x1DF JUMP JUMPDEST PUSH1 0x40 MLOAD PUSH2 0xD8 SWAP2 SWAP1 PUSH2 0x674 JUMP JUMPDEST PUSH1 0x40 MLOAD DUP1 SWAP2 SUB SWAP1 RETURN JUMPDEST PUSH2 0xFB PUSH1 0x4 DUP1 CALLDATASIZE SUB DUP2 ADD SWAP1 PUSH2 0xF6 SWAP2 SWAP1 PUSH2 0x465 JUMP JUMPDEST PUSH2 0x20F JUMP JUMPDEST PUSH1 0x40 MLOAD PUSH2 0x108 SWAP2 SWAP1 PUSH2 0x674 JUMP JUMPDEST PUSH1 0x40 MLOAD DUP1 SWAP2 SUB SWAP1 RETURN JUMPDEST PUSH1 0x0 DUP1 PUSH2 0x11D DUP6 PUSH2 0x1DF JUMP JUMPDEST SWAP1 POP PUSH1 0x0 PUSH2 0x12A DUP3 PUSH2 0x20F JUMP JUMPDEST SWAP1 POP DUP7 PUSH20 0xFFFFFFFFFFFFFFFFFFFFFFFFFFFFFFFFFFFFFFFF AND PUSH2 0x14D DUP3 DUP7 PUSH2 0x170 JUMP JUMPDEST PUSH20 0xFFFFFFFFFFFFFFFFFFFFFFFFFFFFFFFFFFFFFFFF AND EQ SWAP3 POP POP POP SWAP5 SWAP4 POP POP POP POP JUMP JUMPDEST PUSH1 0x0 DUP1 PUSH1 0x0 DUP1 PUSH2 0x17F DUP6 PUSH2 0x23F JUMP JUMPDEST SWAP3 POP SWAP3 POP SWAP3 POP PUSH1 0x1 DUP7 DUP3 DUP6 DUP6 PUSH1 0x40 MLOAD PUSH1 0x0 DUP2 MSTORE PUSH1 0x20 ADD PUSH1 0x40 MSTORE PUSH1 0x40 MLOAD PUSH2 0x1A8 SWAP5 SWAP4 SWAP3 SWAP2 SWAP1 PUSH2 0x68F JUMP JUMPDEST PUSH1 0x20 PUSH1 0x40 MLOAD PUSH1 0x20 DUP2 SUB SWAP1 DUP1 DUP5 SUB SWAP1 DUP6 GAS STATICCALL ISZERO DUP1 ISZERO PUSH2 0x1CA JUMPI RETURNDATASIZE PUSH1 0x0 DUP1 RETURNDATACOPY RETURNDATASIZE PUSH1 0x0 REVERT JUMPDEST POP POP POP PUSH1 0x20 PUSH1 0x40 MLOAD SUB MLOAD SWAP4 POP POP POP POP SWAP3 SWAP2 POP POP JUMP JUMPDEST PUSH1 0x0 DUP2 PUSH1 0x40 MLOAD PUSH1 0x20 ADD PUSH2 0x1F2 SWAP2 SWAP1 PUSH2 0x601 JUMP JUMPDEST PUSH1 0x40 MLOAD PUSH1 0x20 DUP2 DUP4 SUB SUB DUP2 MSTORE SWAP1 PUSH1 0x40 MSTORE DUP1 MLOAD SWAP1 PUSH1 0x20 ADD KECCAK256 SWAP1 POP SWAP2 SWAP1 POP JUMP JUMPDEST PUSH1 0x0 DUP2 PUSH1 0x40 MLOAD PUSH1 0x20 ADD PUSH2 0x222 SWAP2 SWAP1 PUSH2 0x618 JUMP JUMPDEST PUSH1 0x40 MLOAD PUSH1 0x20 DUP2 DUP4 SUB SUB DUP2 MSTORE SWAP1 PUSH1 0x40 MSTORE DUP1 MLOAD SWAP1 PUSH1 0x20 ADD KECCAK256 SWAP1 POP SWAP2 SWAP1 POP JUMP JUMPDEST PUSH1 0x0 DUP1 PUSH1 0x0 PUSH1 0x41 DUP5 MLOAD EQ PUSH2 0x288 JUMPI PUSH1 0x40 MLOAD PUSH32 0x8C379A000000000000000000000000000000000000000000000000000000000 DUP2 MSTORE PUSH1 0x4 ADD PUSH2 0x27F SWAP1 PUSH2 0x6D4 JUMP JUMPDEST PUSH1 0x40 MLOAD DUP1 SWAP2 SUB SWAP1 REVERT JUMPDEST PUSH1 0x20 DUP5 ADD MLOAD SWAP3 POP PUSH1 0x40 DUP5 ADD MLOAD SWAP2 POP PUSH1 0x60 DUP5 ADD MLOAD PUSH1 0x0 BYTE SWAP1 POP SWAP2 SWAP4 SWAP1 SWAP3 POP JUMP JUMPDEST PUSH1 0x0 PUSH2 0x2BA PUSH2 0x2B5 DUP5 PUSH2 0x719 JUMP JUMPDEST PUSH2 0x6F4 JUMP JUMPDEST SWAP1 POP DUP3 DUP2 MSTORE PUSH1 0x20 DUP2 ADD DUP5 DUP5 DUP5 ADD GT ISZERO PUSH2 0x2D6 JUMPI PUSH2 0x2D5 PUSH2 0x8B2 JUMP JUMPDEST JUMPDEST PUSH2 0x2E1 DUP5 DUP3 DUP6 PUSH2 0x801 JUMP JUMPDEST POP SWAP4 SWAP3 POP POP POP JUMP JUMPDEST PUSH1 0x0 PUSH2 0x2FC PUSH2 0x2F7 DUP5 PUSH2 0x74A JUMP JUMPDEST PUSH2 0x6F4 JUMP JUMPDEST SWAP1 POP DUP3 DUP2 MSTORE PUSH1 0x20 DUP2 ADD DUP5 DUP5 DUP5 ADD GT ISZERO PUSH2 0x318 JUMPI PUSH2 0x317 PUSH2 0x8B2 JUMP JUMPDEST JUMPDEST PUSH2 0x323 DUP5 DUP3 DUP6 PUSH2 0x801 JUMP JUMPDEST POP SWAP4 SWAP3 POP POP POP JUMP JUMPDEST PUSH1 0x0 DUP2 CALLDATALOAD SWAP1 POP PUSH2 0x33A DUP2 PUSH2 0x924 JUMP JUMPDEST SWAP3 SWAP2 POP POP JUMP JUMPDEST PUSH1 0x0 DUP2 CALLDATALOAD SWAP1 POP PUSH2 0x34F DUP2 PUSH2 0x93B JUMP JUMPDEST SWAP3 SWAP2 POP POP JUMP JUMPDEST PUSH1 0x0 DUP3 PUSH1 0x1F DUP4 ADD SLT PUSH2 0x36A JUMPI PUSH2 0x369 PUSH2 0x8AD JUMP JUMPDEST JUMPDEST DUP2 CALLDATALOAD PUSH2 0x37A DUP5 DUP3 PUSH1 0x20 DUP7 ADD PUSH2 0x2A7 JUMP JUMPDEST SWAP2 POP POP SWAP3 SWAP2 POP POP JUMP JUMPDEST PUSH1 0x0 DUP3 PUSH1 0x1F DUP4 ADD SLT PUSH2 0x398 JUMPI PUSH2 0x397 PUSH2 0x8AD JUMP JUMPDEST JUMPDEST DUP2 CALLDATALOAD PUSH2 0x3A8 DUP5 DUP3 PUSH1 0x20 DUP7 ADD PUSH2 0x2E9 JUMP JUMPDEST SWAP2 POP POP SWAP3 SWAP2 POP POP JUMP JUMPDEST PUSH1 0x0 DUP2 CALLDATALOAD SWAP1 POP PUSH2 0x3C0 DUP2 PUSH2 0x952 JUMP JUMPDEST SWAP3 SWAP2 POP POP JUMP JUMPDEST PUSH1 0x0 DUP1 PUSH1 0x0 DUP1 PUSH1 0x80 DUP6 DUP8 SUB SLT ISZERO PUSH2 0x3E0 JUMPI PUSH2 0x3DF PUSH2 0x8BC JUMP JUMPDEST JUMPDEST PUSH1 0x0 PUSH2 0x3EE DUP8 DUP3 DUP9 ADD PUSH2 0x32B JUMP JUMPDEST SWAP5 POP POP PUSH1 0x20 DUP6 ADD CALLDATALOAD PUSH8 0xFFFFFFFFFFFFFFFF DUP2 GT ISZERO PUSH2 0x40F JUMPI PUSH2 0x40E PUSH2 0x8B7 JUMP JUMPDEST JUMPDEST PUSH2 0x41B DUP8 DUP3 DUP9 ADD PUSH2 0x383 JUMP JUMPDEST SWAP4 POP POP PUSH1 0x40 PUSH2 0x42C DUP8 DUP3 DUP9 ADD PUSH2 0x3B1 JUMP JUMPDEST SWAP3 POP POP PUSH1 0x60 DUP6 ADD CALLDATALOAD PUSH8 0xFFFFFFFFFFFFFFFF DUP2 GT ISZERO PUSH2 0x44D JUMPI PUSH2 0x44C PUSH2 0x8B7 JUMP JUMPDEST JUMPDEST PUSH2 0x459 DUP8 DUP3 DUP9 ADD PUSH2 0x355 JUMP JUMPDEST SWAP2 POP POP SWAP3 SWAP6 SWAP2 SWAP5 POP SWAP3 POP JUMP JUMPDEST PUSH1 0x0 PUSH1 0x20 DUP3 DUP5 SUB SLT ISZERO PUSH2 0x47B JUMPI PUSH2 0x47A PUSH2 0x8BC JUMP JUMPDEST JUMPDEST PUSH1 0x0 PUSH2 0x489 DUP5 DUP3 DUP6 ADD PUSH2 0x340 JUMP JUMPDEST SWAP2 POP POP SWAP3 SWAP2 POP POP JUMP JUMPDEST PUSH1 0x0 DUP1 PUSH1 0x40 DUP4 DUP6 SUB SLT ISZERO PUSH2 0x4A9 JUMPI PUSH2 0x4A8 PUSH2 0x8BC JUMP JUMPDEST JUMPDEST PUSH1 0x0 PUSH2 0x4B7 DUP6 DUP3 DUP7 ADD PUSH2 0x340 JUMP JUMPDEST SWAP3 POP POP PUSH1 0x20 DUP4 ADD CALLDATALOAD PUSH8 0xFFFFFFFFFFFFFFFF DUP2 GT ISZERO PUSH2 0x4D8 JUMPI PUSH2 0x4D7 PUSH2 0x8B7 JUMP JUMPDEST JUMPDEST PUSH2 0x4E4 DUP6 DUP3 DUP7 ADD PUSH2 0x355 JUMP JUMPDEST SWAP2 POP POP SWAP3 POP SWAP3 SWAP1 POP JUMP JUMPDEST PUSH1 0x0 PUSH1 0x20 DUP3 DUP5 SUB SLT ISZERO PUSH2 0x504 JUMPI PUSH2 0x503 PUSH2 0x8BC JUMP JUMPDEST JUMPDEST PUSH1 0x0 DUP3 ADD CALLDATALOAD PUSH8 0xFFFFFFFFFFFFFFFF DUP2 GT ISZERO PUSH2 0x522 JUMPI PUSH2 0x521 PUSH2 0x8B7 JUMP JUMPDEST JUMPDEST PUSH2 0x52E DUP5 DUP3 DUP6 ADD PUSH2 0x383 JUMP JUMPDEST SWAP2 POP POP SWAP3 SWAP2 POP POP JUMP JUMPDEST PUSH2 0x540 DUP2 PUSH2 0x7A2 JUMP JUMPDEST DUP3 MSTORE POP POP JUMP JUMPDEST PUSH2 0x54F DUP2 PUSH2 0x7B4 JUMP JUMPDEST DUP3 MSTORE POP POP JUMP JUMPDEST PUSH2 0x55E DUP2 PUSH2 0x7C0 JUMP JUMPDEST DUP3 MSTORE POP POP JUMP JUMPDEST PUSH2 0x575 PUSH2 0x570 DUP3 PUSH2 0x7C0 JUMP JUMPDEST PUSH2 0x874 JUMP JUMPDEST DUP3 MSTORE POP POP JUMP JUMPDEST PUSH1 0x0 PUSH2 0x586 DUP3 PUSH2 0x77B JUMP JUMPDEST PUSH2 0x590 DUP2 DUP6 PUSH2 0x797 JUMP JUMPDEST SWAP4 POP PUSH2 0x5A0 DUP2 DUP6 PUSH1 0x20 DUP7 ADD PUSH2 0x810 JUMP JUMPDEST DUP1 DUP5 ADD SWAP2 POP POP SWAP3 SWAP2 POP POP JUMP JUMPDEST PUSH1 0x0 PUSH2 0x5B9 PUSH1 0x11 DUP4 PUSH2 0x786 JUMP JUMPDEST SWAP2 POP PUSH2 0x5C4 DUP3 PUSH2 0x8D2 JUMP JUMPDEST PUSH1 0x20 DUP3 ADD SWAP1 POP SWAP2 SWAP1 POP JUMP JUMPDEST PUSH1 0x0 PUSH2 0x5DC PUSH1 0x1C DUP4 PUSH2 0x797 JUMP JUMPDEST SWAP2 POP PUSH2 0x5E7 DUP3 PUSH2 0x8FB JUMP JUMPDEST PUSH1 0x1C DUP3 ADD SWAP1 POP SWAP2 SWAP1 POP JUMP JUMPDEST PUSH2 0x5FB DUP2 PUSH2 0x7F4 JUMP JUMPDEST DUP3 MSTORE POP POP JUMP JUMPDEST PUSH1 0x0 PUSH2 0x60D DUP3 DUP5 PUSH2 0x57B JUMP JUMPDEST SWAP2 POP DUP2 SWAP1 POP SWAP3 SWAP2 POP POP JUMP JUMPDEST PUSH1 0x0 PUSH2 0x623 DUP3 PUSH2 0x5CF JUMP JUMPDEST SWAP2 POP PUSH2 0x62F DUP3 DUP5 PUSH2 0x564 JUMP JUMPDEST PUSH1 0x20 DUP3 ADD SWAP2 POP DUP2 SWAP1 POP SWAP3 SWAP2 POP POP JUMP JUMPDEST PUSH1 0x0 PUSH1 0x20 DUP3 ADD SWAP1 POP PUSH2 0x653 PUSH1 0x0 DUP4 ADD DUP5 PUSH2 0x537 JUMP JUMPDEST SWAP3 SWAP2 POP POP JUMP JUMPDEST PUSH1 0x0 PUSH1 0x20 DUP3 ADD SWAP1 POP PUSH2 0x66E PUSH1 0x0 DUP4 ADD DUP5 PUSH2 0x546 JUMP JUMPDEST SWAP3 SWAP2 POP POP JUMP JUMPDEST PUSH1 0x0 PUSH1 0x20 DUP3 ADD SWAP1 POP PUSH2 0x689 PUSH1 0x0 DUP4 ADD DUP5 PUSH2 0x555 JUMP JUMPDEST SWAP3 SWAP2 POP POP JUMP JUMPDEST PUSH1 0x0 PUSH1 0x80 DUP3 ADD SWAP1 POP PUSH2 0x6A4 PUSH1 0x0 DUP4 ADD DUP8 PUSH2 0x555 JUMP JUMPDEST PUSH2 0x6B1 PUSH1 0x20 DUP4 ADD DUP7 PUSH2 0x5F2 JUMP JUMPDEST PUSH2 0x6BE PUSH1 0x40 DUP4 ADD DUP6 PUSH2 0x555 JUMP JUMPDEST PUSH2 0x6CB PUSH1 0x60 DUP4 ADD DUP5 PUSH2 0x555 JUMP JUMPDEST SWAP6 SWAP5 POP POP POP POP POP JUMP JUMPDEST PUSH1 0x0 PUSH1 0x20 DUP3 ADD SWAP1 POP DUP2 DUP2 SUB PUSH1 0x0 DUP4 ADD MSTORE PUSH2 0x6ED DUP2 PUSH2 0x5AC JUMP JUMPDEST SWAP1 POP SWAP2 SWAP1 POP JUMP JUMPDEST PUSH1 0x0 PUSH2 0x6FE PUSH2 0x70F JUMP JUMPDEST SWAP1 POP PUSH2 0x70A DUP3 DUP3 PUSH2 0x843 JUMP JUMPDEST SWAP2 SWAP1 POP JUMP JUMPDEST PUSH1 0x0 PUSH1 0x40 MLOAD SWAP1 POP SWAP1 JUMP JUMPDEST PUSH1 0x0 PUSH8 0xFFFFFFFFFFFFFFFF DUP3 GT ISZERO PUSH2 0x734 JUMPI PUSH2 0x733 PUSH2 0x87E JUMP JUMPDEST JUMPDEST PUSH2 0x73D DUP3 PUSH2 0x8C1 JUMP JUMPDEST SWAP1 POP PUSH1 0x20 DUP2 ADD SWAP1 POP SWAP2 SWAP1 POP JUMP JUMPDEST PUSH1 0x0 PUSH8 0xFFFFFFFFFFFFFFFF DUP3 GT ISZERO PUSH2 0x765 JUMPI PUSH2 0x764 PUSH2 0x87E JUMP JUMPDEST JUMPDEST PUSH2 0x76E DUP3 PUSH2 0x8C1 JUMP JUMPDEST SWAP1 POP PUSH1 0x20 DUP2 ADD SWAP1 POP SWAP2 SWAP1 POP JUMP JUMPDEST PUSH1 0x0 DUP2 MLOAD SWAP1 POP SWAP2 SWAP1 POP JUMP JUMPDEST PUSH1 0x0 DUP3 DUP3 MSTORE PUSH1 0x20 DUP3 ADD SWAP1 POP SWAP3 SWAP2 POP POP JUMP JUMPDEST PUSH1 0x0 DUP2 SWAP1 POP SWAP3 SWAP2 POP POP JUMP JUMPDEST PUSH1 0x0 PUSH2 0x7AD DUP3 PUSH2 0x7CA JUMP JUMPDEST SWAP1 POP SWAP2 SWAP1 POP JUMP JUMPDEST PUSH1 0x0 DUP2 ISZERO ISZERO SWAP1 POP SWAP2 SWAP1 POP JUMP JUMPDEST PUSH1 0x0 DUP2 SWAP1 POP SWAP2 SWAP1 POP JUMP JUMPDEST PUSH1 0x0 PUSH20 0xFFFFFFFFFFFFFFFFFFFFFFFFFFFFFFFFFFFFFFFF DUP3 AND SWAP1 POP SWAP2 SWAP1 POP JUMP JUMPDEST PUSH1 0x0 DUP2 SWAP1 POP SWAP2 SWAP1 POP JUMP JUMPDEST PUSH1 0x0 PUSH1 0xFF DUP3 AND SWAP1 POP SWAP2 SWAP1 POP JUMP JUMPDEST DUP3 DUP2 DUP4 CALLDATACOPY PUSH1 0x0 DUP4 DUP4 ADD MSTORE POP POP POP JUMP JUMPDEST PUSH1 0x0 JUMPDEST DUP4 DUP2 LT ISZERO PUSH2 0x82E JUMPI DUP1 DUP3 ADD MLOAD DUP2 DUP5 ADD MSTORE PUSH1 0x20 DUP2 ADD SWAP1 POP PUSH2 0x813 JUMP JUMPDEST DUP4 DUP2 GT ISZERO PUSH2 0x83D JUMPI PUSH1 0x0 DUP5 DUP5 ADD MSTORE JUMPDEST POP POP POP POP JUMP JUMPDEST PUSH2 0x84C DUP3 PUSH2 0x8C1 JUMP JUMPDEST DUP2 ADD DUP2 DUP2 LT PUSH8 0xFFFFFFFFFFFFFFFF DUP3 GT OR ISZERO PUSH2 0x86B JUMPI PUSH2 0x86A PUSH2 0x87E JUMP JUMPDEST JUMPDEST DUP1 PUSH1 0x40 MSTORE POP POP POP JUMP JUMPDEST PUSH1 0x0 DUP2 SWAP1 POP SWAP2 SWAP1 POP JUMP JUMPDEST PUSH32 0x4E487B7100000000000000000000000000000000000000000000000000000000 PUSH1 0x0 MSTORE PUSH1 0x41 PUSH1 0x4 MSTORE PUSH1 0x24 PUSH1 0x0 REVERT JUMPDEST PUSH1 0x0 DUP1 REVERT JUMPDEST PUSH1 0x0 DUP1 REVERT JUMPDEST PUSH1 0x0 DUP1 REVERT JUMPDEST PUSH1 0x0 DUP1 REVERT JUMPDEST PUSH1 0x0 PUSH1 0x1F NOT PUSH1 0x1F DUP4 ADD AND SWAP1 POP SWAP2 SWAP1 POP JUMP JUMPDEST PUSH32 0x696E76616C6964207369676E6174757265000000000000000000000000000000 PUSH1 0x0 DUP3 ADD MSTORE POP JUMP JUMPDEST PUSH32 0x19457468657265756D205369676E6564204D6573736167653A0A333200000000 PUSH1 0x0 DUP3 ADD MSTORE POP JUMP JUMPDEST PUSH2 0x92D DUP2 PUSH2 0x7A2 JUMP JUMPDEST DUP2 EQ PUSH2 0x938 JUMPI PUSH1 0x0 DUP1 REVERT JUMPDEST POP JUMP JUMPDEST PUSH2 0x944 DUP2 PUSH2 0x7C0 JUMP JUMPDEST DUP2 EQ PUSH2 0x94F JUMPI PUSH1 0x0 DUP1 REVERT JUMPDEST POP JUMP JUMPDEST PUSH2 0x95B DUP2 PUSH2 0x7EA JUMP JUMPDEST DUP2 EQ PUSH2 0x966 JUMPI PUSH1 0x0 DUP1 REVERT JUMPDEST POP JUMP INVALID LOG2 PUSH5 0x6970667358 0x22 SLT KECCAK256 ADD 0x28 0x5E 0xC1 0xD6 NUMBER LOG3 PUSH24 0x9FC8755BFA3CD90D5214A44B8B46405B1E93A78FA9A9F58 PUSH5 0x736F6C6343 STOP ADDMOD MOD STOP CALLER "
				},
				"gasEstimates": {
					"creation": {
						"codeDepositCost": "492600",
						"executionCost": "524",
						"totalCost": "493124"
					},
					"external": {
						"getEthSignedMessageHash(bytes32)": "infinite",
						"getMessageHash(string)": "infinite",
						"recover(bytes32,bytes)": "infinite",
						"verify(address,string,uint256,bytes)": "infinite"
					},
					"internal": {
						"_split(bytes memory)": "infinite"
					}
				},
				"methodIdentifiers": {
					"getEthSignedMessageHash(bytes32)": "fa540801",
					"getMessageHash(string)": "b446f3b2",
					"recover(bytes32,bytes)": "19045a25",
					"verify(address,string,uint256,bytes)": "07546f1a"
				}
			},
			"storageLayout": {
				"storage": [],
				"types": null
			},
			"userdoc": {
				"kind": "user",
				"methods": {},
				"notice": "message to sign hasn(message) sign(hash(message),privatekey) off-chain(this is prefixed with some strig and hashed again) ecrecover (hash(message),signature)",
				"version": 1
			}
		}
	}
}