{
	"contracts/Button.sol": {
		"Button": {
			"abi": [
				{
					"inputs": [
						{
							"internalType": "contract TestToken",
							"name": "_token",
							"type": "address"
						},
						{
							"internalType": "uint256",
							"name": "_unluckPeriod",
							"type": "uint256"
						}
					],
					"stateMutability": "nonpayable",
					"type": "constructor"
				},
				{
					"anonymous": false,
					"inputs": [
						{
							"indexed": false,
							"internalType": "uint256",
							"name": "count",
							"type": "uint256"
						}
					],
					"name": "Create",
					"type": "event"
				},
				{
					"inputs": [],
					"name": "count",
					"outputs": [
						{
							"internalType": "uint256",
							"name": "",
							"type": "uint256"
						}
					],
					"stateMutability": "view",
					"type": "function"
				},
				{
					"inputs": [
						{
							"internalType": "bool",
							"name": "_choice",
							"type": "bool"
						}
					],
					"name": "onClick",
					"outputs": [],
					"stateMutability": "nonpayable",
					"type": "function"
				},
				{
					"inputs": [],
					"name": "participantAddress",
					"outputs": [
						{
							"internalType": "address",
							"name": "",
							"type": "address"
						}
					],
					"stateMutability": "view",
					"type": "function"
				},
				{
					"inputs": [
						{
							"internalType": "address",
							"name": "",
							"type": "address"
						}
					],
					"name": "participants",
					"outputs": [
						{
							"internalType": "address",
							"name": "pAddress",
							"type": "address"
						},
						{
							"internalType": "uint256",
							"name": "balance",
							"type": "uint256"
						},
						{
							"internalType": "bool",
							"name": "choice",
							"type": "bool"
						},
						{
							"internalType": "bool",
							"name": "isLeader",
							"type": "bool"
						}
					],
					"stateMutability": "view",
					"type": "function"
				},
				{
					"inputs": [],
					"name": "state",
					"outputs": [
						{
							"internalType": "enum Button.State",
							"name": "",
							"type": "uint8"
						}
					],
					"stateMutability": "view",
					"type": "function"
				},
				{
					"inputs": [],
					"name": "token",
					"outputs": [
						{
							"internalType": "contract TestToken",
							"name": "",
							"type": "address"
						}
					],
					"stateMutability": "view",
					"type": "function"
				},
				{
					"inputs": [],
					"name": "totalPrize",
					"outputs": [
						{
							"internalType": "uint256",
							"name": "",
							"type": "uint256"
						}
					],
					"stateMutability": "view",
					"type": "function"
				},
				{
					"inputs": [],
					"name": "unlockPeriod",
					"outputs": [
						{
							"internalType": "uint256",
							"name": "",
							"type": "uint256"
						}
					],
					"stateMutability": "view",
					"type": "function"
				},
				{
					"inputs": [],
					"name": "winner",
					"outputs": [],
					"stateMutability": "nonpayable",
					"type": "function"
				},
				{
					"inputs": [],
					"name": "winnerAddress",
					"outputs": [
						{
							"internalType": "address",
							"name": "",
							"type": "address"
						}
					],
					"stateMutability": "view",
					"type": "function"
				},
				{
					"inputs": [],
					"name": "withdrawPrize",
					"outputs": [],
					"stateMutability": "nonpayable",
					"type": "function"
				}
			],
			"devdoc": {
				"kind": "dev",
				"methods": {},
				"version": 1
			},
			"evm": {
				"assembly": "    /* \"contracts/Button.sol\":151:1709  contract Button {... */\n  mstore(0x40, 0x80)\n    /* \"contracts/Button.sol\":790:912  constructor(TestToken _token, uint256 _unluckPeriod) {... */\n  callvalue\n  dup1\n  iszero\n  tag_1\n  jumpi\n  0x00\n  dup1\n  revert\ntag_1:\n  pop\n  mload(0x40)\n  sub(codesize, bytecodeSize)\n  dup1\n  bytecodeSize\n  dup4\n  codecopy\n  dup2\n  dup2\n  add\n  0x40\n  mstore\n  dup2\n  add\n  swap1\n  tag_2\n  swap2\n  swap1\n  tag_3\n  jump\t// in\ntag_2:\n    /* \"contracts/Button.sol\":861:867  _token */\n  dup2\n    /* \"contracts/Button.sol\":853:858  token */\n  0x00\n  0x01\n    /* \"contracts/Button.sol\":853:867  token = _token */\n  0x0100\n  exp\n  dup2\n  sload\n  dup2\n  0xffffffffffffffffffffffffffffffffffffffff\n  mul\n  not\n  and\n  swap1\n  dup4\n  0xffffffffffffffffffffffffffffffffffffffff\n  and\n  mul\n  or\n  swap1\n  sstore\n  pop\n    /* \"contracts/Button.sol\":892:905  _unluckPeriod */\n  dup1\n    /* \"contracts/Button.sol\":877:889  unlockPeriod */\n  0x04\n    /* \"contracts/Button.sol\":877:905  unlockPeriod = _unluckPeriod */\n  dup2\n  swap1\n  sstore\n  pop\n    /* \"contracts/Button.sol\":790:912  constructor(TestToken _token, uint256 _unluckPeriod) {... */\n  pop\n  pop\n    /* \"contracts/Button.sol\":151:1709  contract Button {... */\n  jump(tag_6)\n    /* \"#utility.yul\":7:186   */\ntag_8:\n    /* \"#utility.yul\":82:87   */\n  0x00\n    /* \"#utility.yul\":113:119   */\n  dup2\n    /* \"#utility.yul\":107:120   */\n  mload\n    /* \"#utility.yul\":98:120   */\n  swap1\n  pop\n    /* \"#utility.yul\":129:180   */\n  tag_10\n    /* \"#utility.yul\":174:179   */\n  dup2\n    /* \"#utility.yul\":129:180   */\n  tag_11\n  jump\t// in\ntag_10:\n    /* \"#utility.yul\":88:186   */\n  swap3\n  swap2\n  pop\n  pop\n  jump\t// out\n    /* \"#utility.yul\":192:335   */\ntag_12:\n    /* \"#utility.yul\":249:254   */\n  0x00\n    /* \"#utility.yul\":280:286   */\n  dup2\n    /* \"#utility.yul\":274:287   */\n  mload\n    /* \"#utility.yul\":265:287   */\n  swap1\n  pop\n    /* \"#utility.yul\":296:329   */\n  tag_14\n    /* \"#utility.yul\":323:328   */\n  dup2\n    /* \"#utility.yul\":296:329   */\n  tag_15\n  jump\t// in\ntag_14:\n    /* \"#utility.yul\":255:335   */\n  swap3\n  swap2\n  pop\n  pop\n  jump\t// out\n    /* \"#utility.yul\":341:884   */\ntag_3:\n    /* \"#utility.yul\":438:444   */\n  0x00\n    /* \"#utility.yul\":446:452   */\n  dup1\n    /* \"#utility.yul\":495:497   */\n  0x40\n    /* \"#utility.yul\":483:492   */\n  dup4\n    /* \"#utility.yul\":474:481   */\n  dup6\n    /* \"#utility.yul\":470:493   */\n  sub\n    /* \"#utility.yul\":466:498   */\n  slt\n    /* \"#utility.yul\":463:465   */\n  iszero\n  tag_17\n  jumpi\n    /* \"#utility.yul\":501:580   */\n  tag_18\n  tag_19\n  jump\t// in\ntag_18:\n    /* \"#utility.yul\":463:465   */\ntag_17:\n    /* \"#utility.yul\":621:622   */\n  0x00\n    /* \"#utility.yul\":646:728   */\n  tag_20\n    /* \"#utility.yul\":720:727   */\n  dup6\n    /* \"#utility.yul\":711:717   */\n  dup3\n    /* \"#utility.yul\":700:709   */\n  dup7\n    /* \"#utility.yul\":696:718   */\n  add\n    /* \"#utility.yul\":646:728   */\n  tag_8\n  jump\t// in\ntag_20:\n    /* \"#utility.yul\":636:728   */\n  swap3\n  pop\n    /* \"#utility.yul\":592:738   */\n  pop\n    /* \"#utility.yul\":777:779   */\n  0x20\n    /* \"#utility.yul\":803:867   */\n  tag_21\n    /* \"#utility.yul\":859:866   */\n  dup6\n    /* \"#utility.yul\":850:856   */\n  dup3\n    /* \"#utility.yul\":839:848   */\n  dup7\n    /* \"#utility.yul\":835:857   */\n  add\n    /* \"#utility.yul\":803:867   */\n  tag_12\n  jump\t// in\ntag_21:\n    /* \"#utility.yul\":793:867   */\n  swap2\n  pop\n    /* \"#utility.yul\":748:877   */\n  pop\n    /* \"#utility.yul\":453:884   */\n  swap3\n  pop\n  swap3\n  swap1\n  pop\n  jump\t// out\n    /* \"#utility.yul\":971:1067   */\ntag_24:\n    /* \"#utility.yul\":1008:1015   */\n  0x00\n    /* \"#utility.yul\":1037:1061   */\n  tag_26\n    /* \"#utility.yul\":1055:1060   */\n  dup3\n    /* \"#utility.yul\":1037:1061   */\n  tag_27\n  jump\t// in\ntag_26:\n    /* \"#utility.yul\":1026:1061   */\n  swap1\n  pop\n    /* \"#utility.yul\":1016:1067   */\n  swap2\n  swap1\n  pop\n  jump\t// out\n    /* \"#utility.yul\":1073:1187   */\ntag_28:\n    /* \"#utility.yul\":1128:1135   */\n  0x00\n    /* \"#utility.yul\":1157:1181   */\n  tag_30\n    /* \"#utility.yul\":1175:1180   */\n  dup3\n    /* \"#utility.yul\":1157:1181   */\n  tag_24\n  jump\t// in\ntag_30:\n    /* \"#utility.yul\":1146:1181   */\n  swap1\n  pop\n    /* \"#utility.yul\":1136:1187   */\n  swap2\n  swap1\n  pop\n  jump\t// out\n    /* \"#utility.yul\":1193:1319   */\ntag_27:\n    /* \"#utility.yul\":1230:1237   */\n  0x00\n    /* \"#utility.yul\":1270:1312   */\n  0xffffffffffffffffffffffffffffffffffffffff\n    /* \"#utility.yul\":1263:1268   */\n  dup3\n    /* \"#utility.yul\":1259:1313   */\n  and\n    /* \"#utility.yul\":1248:1313   */\n  swap1\n  pop\n    /* \"#utility.yul\":1238:1319   */\n  swap2\n  swap1\n  pop\n  jump\t// out\n    /* \"#utility.yul\":1325:1402   */\ntag_32:\n    /* \"#utility.yul\":1362:1369   */\n  0x00\n    /* \"#utility.yul\":1391:1396   */\n  dup2\n    /* \"#utility.yul\":1380:1396   */\n  swap1\n  pop\n    /* \"#utility.yul\":1370:1402   */\n  swap2\n  swap1\n  pop\n  jump\t// out\n    /* \"#utility.yul\":1531:1648   */\ntag_19:\n    /* \"#utility.yul\":1640:1641   */\n  0x00\n    /* \"#utility.yul\":1637:1638   */\n  dup1\n    /* \"#utility.yul\":1630:1642   */\n  revert\n    /* \"#utility.yul\":1654:1812   */\ntag_11:\n    /* \"#utility.yul\":1745:1787   */\n  tag_38\n    /* \"#utility.yul\":1781:1786   */\n  dup2\n    /* \"#utility.yul\":1745:1787   */\n  tag_28\n  jump\t// in\ntag_38:\n    /* \"#utility.yul\":1738:1743   */\n  dup2\n    /* \"#utility.yul\":1735:1788   */\n  eq\n    /* \"#utility.yul\":1725:1727   */\n  tag_39\n  jumpi\n    /* \"#utility.yul\":1802:1803   */\n  0x00\n    /* \"#utility.yul\":1799:1800   */\n  dup1\n    /* \"#utility.yul\":1792:1804   */\n  revert\n    /* \"#utility.yul\":1725:1727   */\ntag_39:\n    /* \"#utility.yul\":1715:1812   */\n  pop\n  jump\t// out\n    /* \"#utility.yul\":1818:1940   */\ntag_15:\n    /* \"#utility.yul\":1891:1915   */\n  tag_41\n    /* \"#utility.yul\":1909:1914   */\n  dup2\n    /* \"#utility.yul\":1891:1915   */\n  tag_32\n  jump\t// in\ntag_41:\n    /* \"#utility.yul\":1884:1889   */\n  dup2\n    /* \"#utility.yul\":1881:1916   */\n  eq\n    /* \"#utility.yul\":1871:1873   */\n  tag_42\n  jumpi\n    /* \"#utility.yul\":1930:1931   */\n  0x00\n    /* \"#utility.yul\":1927:1928   */\n  dup1\n    /* \"#utility.yul\":1920:1932   */\n  revert\n    /* \"#utility.yul\":1871:1873   */\ntag_42:\n    /* \"#utility.yul\":1861:1940   */\n  pop\n  jump\t// out\n    /* \"contracts/Button.sol\":151:1709  contract Button {... */\ntag_6:\n  dataSize(sub_0)\n  dup1\n  dataOffset(sub_0)\n  0x00\n  codecopy\n  0x00\n  return\nstop\n\nsub_0: assembly {\n        /* \"contracts/Button.sol\":151:1709  contract Button {... */\n      mstore(0x40, 0x80)\n      callvalue\n      dup1\n      iszero\n      tag_1\n      jumpi\n      0x00\n      dup1\n      revert\n    tag_1:\n      pop\n      jumpi(tag_2, lt(calldatasize, 0x04))\n      shr(0xe0, calldataload(0x00))\n      dup1\n      0x82b1ad50\n      gt\n      tag_14\n      jumpi\n      dup1\n      0x82b1ad50\n      eq\n      tag_8\n      jumpi\n      dup1\n      0xc19d93fb\n      eq\n      tag_9\n      jumpi\n      dup1\n      0xd45dcca0\n      eq\n      tag_10\n      jumpi\n      dup1\n      0xdfbf53ae\n      eq\n      tag_11\n      jumpi\n      dup1\n      0xed7a4e0b\n      eq\n      tag_12\n      jumpi\n      dup1\n      0xfc0c546a\n      eq\n      tag_13\n      jumpi\n      jump(tag_2)\n    tag_14:\n      dup1\n      0x06661abd\n      eq\n      tag_3\n      jumpi\n      dup1\n      0x09e69ede\n      eq\n      tag_4\n      jumpi\n      dup1\n      0x20d3a0b4\n      eq\n      tag_5\n      jumpi\n      dup1\n      0x48d37a58\n      eq\n      tag_6\n      jumpi\n      dup1\n      0x59ff6ba8\n      eq\n      tag_7\n      jumpi\n    tag_2:\n      0x00\n      dup1\n      revert\n        /* \"contracts/Button.sol\":548:568  uint256 public count */\n    tag_3:\n      tag_15\n      tag_16\n      jump\t// in\n    tag_15:\n      mload(0x40)\n      tag_17\n      swap2\n      swap1\n      tag_18\n      jump\t// in\n    tag_17:\n      mload(0x40)\n      dup1\n      swap2\n      sub\n      swap1\n      return\n        /* \"contracts/Button.sol\":653:704  mapping(address => Participant) public participants */\n    tag_4:\n      tag_19\n      0x04\n      dup1\n      calldatasize\n      sub\n      dup2\n      add\n      swap1\n      tag_20\n      swap2\n      swap1\n      tag_21\n      jump\t// in\n    tag_20:\n      tag_22\n      jump\t// in\n    tag_19:\n      mload(0x40)\n      tag_23\n      swap5\n      swap4\n      swap3\n      swap2\n      swap1\n      tag_24\n      jump\t// in\n    tag_23:\n      mload(0x40)\n      dup1\n      swap2\n      sub\n      swap1\n      return\n        /* \"contracts/Button.sol\":574:601  uint256 public unlockPeriod */\n    tag_5:\n      tag_25\n      tag_26\n      jump\t// in\n    tag_25:\n      mload(0x40)\n      tag_27\n      swap2\n      swap1\n      tag_18\n      jump\t// in\n    tag_27:\n      mload(0x40)\n      dup1\n      swap2\n      sub\n      swap1\n      return\n        /* \"contracts/Button.sol\":1673:1707  function withdrawPrize() public {} */\n    tag_6:\n      tag_28\n      tag_29\n      jump\t// in\n    tag_28:\n      stop\n        /* \"contracts/Button.sol\":475:508  address public participantAddress */\n    tag_7:\n      tag_30\n      tag_31\n      jump\t// in\n    tag_30:\n      mload(0x40)\n      tag_32\n      swap2\n      swap1\n      tag_33\n      jump\t// in\n    tag_32:\n      mload(0x40)\n      dup1\n      swap2\n      sub\n      swap1\n      return\n        /* \"contracts/Button.sol\":607:632  uint256 public totalPrize */\n    tag_8:\n      tag_34\n      tag_35\n      jump\t// in\n    tag_34:\n      mload(0x40)\n      tag_36\n      swap2\n      swap1\n      tag_18\n      jump\t// in\n    tag_36:\n      mload(0x40)\n      dup1\n      swap2\n      sub\n      swap1\n      return\n        /* \"contracts/Button.sol\":294:312  State public state */\n    tag_9:\n      tag_37\n      tag_38\n      jump\t// in\n    tag_37:\n      mload(0x40)\n      tag_39\n      swap2\n      swap1\n      tag_40\n      jump\t// in\n    tag_39:\n      mload(0x40)\n      dup1\n      swap2\n      sub\n      swap1\n      return\n        /* \"contracts/Button.sol\":918:1461  function onClick(bool _choice) public {... */\n    tag_10:\n      tag_41\n      0x04\n      dup1\n      calldatasize\n      sub\n      dup2\n      add\n      swap1\n      tag_42\n      swap2\n      swap1\n      tag_43\n      jump\t// in\n    tag_42:\n      tag_44\n      jump\t// in\n    tag_41:\n      stop\n        /* \"contracts/Button.sol\":1467:1667  function winner() public {... */\n    tag_11:\n      tag_45\n      tag_46\n      jump\t// in\n    tag_45:\n      stop\n        /* \"contracts/Button.sol\":514:542  address public winnerAddress */\n    tag_12:\n      tag_47\n      tag_48\n      jump\t// in\n    tag_47:\n      mload(0x40)\n      tag_49\n      swap2\n      swap1\n      tag_33\n      jump\t// in\n    tag_49:\n      mload(0x40)\n      dup1\n      swap2\n      sub\n      swap1\n      return\n        /* \"contracts/Button.sol\":446:468  TestToken public token */\n    tag_13:\n      tag_50\n      tag_51\n      jump\t// in\n    tag_50:\n      mload(0x40)\n      tag_52\n      swap2\n      swap1\n      tag_53\n      jump\t// in\n    tag_52:\n      mload(0x40)\n      dup1\n      swap2\n      sub\n      swap1\n      return\n        /* \"contracts/Button.sol\":548:568  uint256 public count */\n    tag_16:\n      sload(0x03)\n      dup2\n      jump\t// out\n        /* \"contracts/Button.sol\":653:704  mapping(address => Participant) public participants */\n    tag_22:\n      mstore(0x20, 0x06)\n      dup1\n      0x00\n      mstore\n      keccak256(0x00, 0x40)\n      0x00\n      swap2\n      pop\n      swap1\n      pop\n      dup1\n      0x00\n      add\n      0x00\n      swap1\n      sload\n      swap1\n      0x0100\n      exp\n      swap1\n      div\n      0xffffffffffffffffffffffffffffffffffffffff\n      and\n      swap1\n      dup1\n      0x01\n      add\n      sload\n      swap1\n      dup1\n      0x02\n      add\n      0x00\n      swap1\n      sload\n      swap1\n      0x0100\n      exp\n      swap1\n      div\n      0xff\n      and\n      swap1\n      dup1\n      0x02\n      add\n      0x01\n      swap1\n      sload\n      swap1\n      0x0100\n      exp\n      swap1\n      div\n      0xff\n      and\n      swap1\n      pop\n      dup5\n      jump\t// out\n        /* \"contracts/Button.sol\":574:601  uint256 public unlockPeriod */\n    tag_26:\n      sload(0x04)\n      dup2\n      jump\t// out\n        /* \"contracts/Button.sol\":1673:1707  function withdrawPrize() public {} */\n    tag_29:\n      jump\t// out\n        /* \"contracts/Button.sol\":475:508  address public participantAddress */\n    tag_31:\n      0x01\n      0x00\n      swap1\n      sload\n      swap1\n      0x0100\n      exp\n      swap1\n      div\n      0xffffffffffffffffffffffffffffffffffffffff\n      and\n      dup2\n      jump\t// out\n        /* \"contracts/Button.sol\":607:632  uint256 public totalPrize */\n    tag_35:\n      sload(0x05)\n      dup2\n      jump\t// out\n        /* \"contracts/Button.sol\":294:312  State public state */\n    tag_38:\n      0x00\n      dup1\n      sload\n      swap1\n      0x0100\n      exp\n      swap1\n      div\n      0xff\n      and\n      dup2\n      jump\t// out\n        /* \"contracts/Button.sol\":918:1461  function onClick(bool _choice) public {... */\n    tag_44:\n        /* \"contracts/Button.sol\":987:997  msg.sender */\n      caller\n        /* \"contracts/Button.sol\":966:984  participantAddress */\n      0x01\n      0x00\n        /* \"contracts/Button.sol\":966:997  participantAddress = msg.sender */\n      0x0100\n      exp\n      dup2\n      sload\n      dup2\n      0xffffffffffffffffffffffffffffffffffffffff\n      mul\n      not\n      and\n      swap1\n      dup4\n      0xffffffffffffffffffffffffffffffffffffffff\n      and\n      mul\n      or\n      swap1\n      sstore\n      pop\n        /* \"contracts/Button.sol\":1011:1018  _choice */\n      dup1\n        /* \"contracts/Button.sol\":1007:1455  if (_choice) {... */\n      iszero\n      tag_56\n      jumpi\n        /* \"contracts/Button.sol\":1069:1269  Participant({... */\n      mload(0x40)\n      dup1\n      0x80\n      add\n      0x40\n      mstore\n      dup1\n        /* \"contracts/Button.sol\":1109:1127  participantAddress */\n      0x01\n      0x00\n      swap1\n      sload\n      swap1\n      0x0100\n      exp\n      swap1\n      div\n      0xffffffffffffffffffffffffffffffffffffffff\n      and\n        /* \"contracts/Button.sol\":1069:1269  Participant({... */\n      0xffffffffffffffffffffffffffffffffffffffff\n      and\n      dup2\n      mstore\n      0x20\n      add\n        /* \"contracts/Button.sol\":1154:1159  token */\n      0x00\n      0x01\n      swap1\n      sload\n      swap1\n      0x0100\n      exp\n      swap1\n      div\n      0xffffffffffffffffffffffffffffffffffffffff\n      and\n        /* \"contracts/Button.sol\":1154:1169  token.balanceOf */\n      0xffffffffffffffffffffffffffffffffffffffff\n      and\n      0x70a08231\n        /* \"contracts/Button.sol\":1170:1188  participantAddress */\n      0x01\n      0x00\n      swap1\n      sload\n      swap1\n      0x0100\n      exp\n      swap1\n      div\n      0xffffffffffffffffffffffffffffffffffffffff\n      and\n        /* \"contracts/Button.sol\":1154:1189  token.balanceOf(participantAddress) */\n      mload(0x40)\n      dup3\n      0xffffffff\n      and\n      0xe0\n      shl\n      dup2\n      mstore\n      0x04\n      add\n      tag_57\n      swap2\n      swap1\n      tag_33\n      jump\t// in\n    tag_57:\n      0x20\n      mload(0x40)\n      dup1\n      dup4\n      sub\n      dup2\n      dup7\n      dup1\n      extcodesize\n      iszero\n      dup1\n      iszero\n      tag_58\n      jumpi\n      0x00\n      dup1\n      revert\n    tag_58:\n      pop\n      gas\n      staticcall\n      iszero\n      dup1\n      iszero\n      tag_60\n      jumpi\n      returndatasize\n      0x00\n      dup1\n      returndatacopy\n      revert(0x00, returndatasize)\n    tag_60:\n      pop\n      pop\n      pop\n      pop\n      mload(0x40)\n      returndatasize\n      not(0x1f)\n      0x1f\n      dup3\n      add\n      and\n      dup3\n      add\n      dup1\n      0x40\n      mstore\n      pop\n      dup2\n      add\n      swap1\n      tag_61\n      swap2\n      swap1\n      tag_62\n      jump\t// in\n    tag_61:\n        /* \"contracts/Button.sol\":1069:1269  Participant({... */\n      dup2\n      mstore\n      0x20\n      add\n        /* \"contracts/Button.sol\":1215:1222  _choice */\n      dup3\n        /* \"contracts/Button.sol\":1069:1269  Participant({... */\n      iszero\n      iszero\n      dup2\n      mstore\n      0x20\n      add\n        /* \"contracts/Button.sol\":1250:1254  true */\n      0x01\n        /* \"contracts/Button.sol\":1069:1269  Participant({... */\n      iszero\n      iszero\n      dup2\n      mstore\n      pop\n        /* \"contracts/Button.sol\":1034:1046  participants */\n      0x06\n        /* \"contracts/Button.sol\":1034:1066  participants[participantAddress] */\n      0x00\n        /* \"contracts/Button.sol\":1047:1065  participantAddress */\n      0x01\n      0x00\n      swap1\n      sload\n      swap1\n      0x0100\n      exp\n      swap1\n      div\n      0xffffffffffffffffffffffffffffffffffffffff\n      and\n        /* \"contracts/Button.sol\":1034:1066  participants[participantAddress] */\n      0xffffffffffffffffffffffffffffffffffffffff\n      and\n      0xffffffffffffffffffffffffffffffffffffffff\n      and\n      dup2\n      mstore\n      0x20\n      add\n      swap1\n      dup2\n      mstore\n      0x20\n      add\n      0x00\n      keccak256\n        /* \"contracts/Button.sol\":1034:1269  participants[participantAddress] = Participant({... */\n      0x00\n      dup3\n      add\n      mload\n      dup2\n      0x00\n      add\n      exp(0x0100, 0x00)\n      dup2\n      sload\n      dup2\n      0xffffffffffffffffffffffffffffffffffffffff\n      mul\n      not\n      and\n      swap1\n      dup4\n      0xffffffffffffffffffffffffffffffffffffffff\n      and\n      mul\n      or\n      swap1\n      sstore\n      pop\n      0x20\n      dup3\n      add\n      mload\n      dup2\n      0x01\n      add\n      sstore\n      0x40\n      dup3\n      add\n      mload\n      dup2\n      0x02\n      add\n      exp(0x0100, 0x00)\n      dup2\n      sload\n      dup2\n      0xff\n      mul\n      not\n      and\n      swap1\n      dup4\n      iszero\n      iszero\n      mul\n      or\n      swap1\n      sstore\n      pop\n      0x60\n      dup3\n      add\n      mload\n      dup2\n      0x02\n      add\n      exp(0x0100, 0x01)\n      dup2\n      sload\n      dup2\n      0xff\n      mul\n      not\n      and\n      swap1\n      dup4\n      iszero\n      iszero\n      mul\n      or\n      swap1\n      sstore\n      pop\n      swap1\n      pop\n      pop\n        /* \"contracts/Button.sol\":1292:1293  1 */\n      0x01\n        /* \"contracts/Button.sol\":1283:1288  count */\n      0x03\n      0x00\n        /* \"contracts/Button.sol\":1283:1293  count += 1 */\n      dup3\n      dup3\n      sload\n      tag_63\n      swap2\n      swap1\n      tag_64\n      jump\t// in\n    tag_63:\n      swap3\n      pop\n      pop\n      dup2\n      swap1\n      sstore\n      pop\n        /* \"contracts/Button.sol\":1307:1312  token */\n      0x00\n      0x01\n      swap1\n      sload\n      swap1\n      0x0100\n      exp\n      swap1\n      div\n      0xffffffffffffffffffffffffffffffffffffffff\n      and\n        /* \"contracts/Button.sol\":1307:1325  token.transferFrom */\n      0xffffffffffffffffffffffffffffffffffffffff\n      and\n      0x23b872dd\n        /* \"contracts/Button.sol\":1343:1361  participantAddress */\n      0x01\n      0x00\n      swap1\n      sload\n      swap1\n      0x0100\n      exp\n      swap1\n      div\n      0xffffffffffffffffffffffffffffffffffffffff\n      and\n        /* \"contracts/Button.sol\":1387:1391  this */\n      address\n        /* \"contracts/Button.sol\":1410:1430  20000000000000000000 */\n      0x01158e460913d00000\n        /* \"contracts/Button.sol\":1307:1444  token.transferFrom(... */\n      mload(0x40)\n      dup5\n      0xffffffff\n      and\n      0xe0\n      shl\n      dup2\n      mstore\n      0x04\n      add\n      tag_65\n      swap4\n      swap3\n      swap2\n      swap1\n      tag_66\n      jump\t// in\n    tag_65:\n      0x20\n      mload(0x40)\n      dup1\n      dup4\n      sub\n      dup2\n      0x00\n      dup8\n      dup1\n      extcodesize\n      iszero\n      dup1\n      iszero\n      tag_67\n      jumpi\n      0x00\n      dup1\n      revert\n    tag_67:\n      pop\n      gas\n      call\n      iszero\n      dup1\n      iszero\n      tag_69\n      jumpi\n      returndatasize\n      0x00\n      dup1\n      returndatacopy\n      revert(0x00, returndatasize)\n    tag_69:\n      pop\n      pop\n      pop\n      pop\n      mload(0x40)\n      returndatasize\n      not(0x1f)\n      0x1f\n      dup3\n      add\n      and\n      dup3\n      add\n      dup1\n      0x40\n      mstore\n      pop\n      dup2\n      add\n      swap1\n      tag_70\n      swap2\n      swap1\n      tag_71\n      jump\t// in\n    tag_70:\n      pop\n        /* \"contracts/Button.sol\":1007:1455  if (_choice) {... */\n    tag_56:\n        /* \"contracts/Button.sol\":918:1461  function onClick(bool _choice) public {... */\n      pop\n      jump\t// out\n        /* \"contracts/Button.sol\":1467:1667  function winner() public {... */\n    tag_46:\n        /* \"contracts/Button.sol\":1579:1584  token */\n      0x00\n      0x01\n      swap1\n      sload\n      swap1\n      0x0100\n      exp\n      swap1\n      div\n      0xffffffffffffffffffffffffffffffffffffffff\n      and\n        /* \"contracts/Button.sol\":1579:1594  token.balanceOf */\n      0xffffffffffffffffffffffffffffffffffffffff\n      and\n      0x70a08231\n        /* \"contracts/Button.sol\":1603:1607  this */\n      address\n        /* \"contracts/Button.sol\":1579:1609  token.balanceOf(address(this)) */\n      mload(0x40)\n      dup3\n      0xffffffff\n      and\n      0xe0\n      shl\n      dup2\n      mstore\n      0x04\n      add\n      tag_73\n      swap2\n      swap1\n      tag_33\n      jump\t// in\n    tag_73:\n      0x20\n      mload(0x40)\n      dup1\n      dup4\n      sub\n      dup2\n      dup7\n      dup1\n      extcodesize\n      iszero\n      dup1\n      iszero\n      tag_74\n      jumpi\n      0x00\n      dup1\n      revert\n    tag_74:\n      pop\n      gas\n      staticcall\n      iszero\n      dup1\n      iszero\n      tag_76\n      jumpi\n      returndatasize\n      0x00\n      dup1\n      returndatacopy\n      revert(0x00, returndatasize)\n    tag_76:\n      pop\n      pop\n      pop\n      pop\n      mload(0x40)\n      returndatasize\n      not(0x1f)\n      0x1f\n      dup3\n      add\n      and\n      dup3\n      add\n      dup1\n      0x40\n      mstore\n      pop\n      dup2\n      add\n      swap1\n      tag_77\n      swap2\n      swap1\n      tag_62\n      jump\t// in\n    tag_77:\n        /* \"contracts/Button.sol\":1566:1576  totalPrize */\n      0x05\n        /* \"contracts/Button.sol\":1566:1609  totalPrize = token.balanceOf(address(this)) */\n      dup2\n      swap1\n      sstore\n      pop\n        /* \"contracts/Button.sol\":1619:1624  token */\n      0x00\n      0x01\n      swap1\n      sload\n      swap1\n      0x0100\n      exp\n      swap1\n      div\n      0xffffffffffffffffffffffffffffffffffffffff\n      and\n        /* \"contracts/Button.sol\":1619:1633  token.transfer */\n      0xffffffffffffffffffffffffffffffffffffffff\n      and\n      0xa9059cbb\n        /* \"contracts/Button.sol\":1634:1647  winnerAddress */\n      0x02\n      0x00\n      swap1\n      sload\n      swap1\n      0x0100\n      exp\n      swap1\n      div\n      0xffffffffffffffffffffffffffffffffffffffff\n      and\n        /* \"contracts/Button.sol\":1648:1658  totalPrize */\n      sload(0x05)\n        /* \"contracts/Button.sol\":1619:1660  token.transfer(winnerAddress,totalPrize ) */\n      mload(0x40)\n      dup4\n      0xffffffff\n      and\n      0xe0\n      shl\n      dup2\n      mstore\n      0x04\n      add\n      tag_78\n      swap3\n      swap2\n      swap1\n      tag_79\n      jump\t// in\n    tag_78:\n      0x20\n      mload(0x40)\n      dup1\n      dup4\n      sub\n      dup2\n      0x00\n      dup8\n      dup1\n      extcodesize\n      iszero\n      dup1\n      iszero\n      tag_80\n      jumpi\n      0x00\n      dup1\n      revert\n    tag_80:\n      pop\n      gas\n      call\n      iszero\n      dup1\n      iszero\n      tag_82\n      jumpi\n      returndatasize\n      0x00\n      dup1\n      returndatacopy\n      revert(0x00, returndatasize)\n    tag_82:\n      pop\n      pop\n      pop\n      pop\n      mload(0x40)\n      returndatasize\n      not(0x1f)\n      0x1f\n      dup3\n      add\n      and\n      dup3\n      add\n      dup1\n      0x40\n      mstore\n      pop\n      dup2\n      add\n      swap1\n      tag_83\n      swap2\n      swap1\n      tag_71\n      jump\t// in\n    tag_83:\n      pop\n        /* \"contracts/Button.sol\":1467:1667  function winner() public {... */\n      jump\t// out\n        /* \"contracts/Button.sol\":514:542  address public winnerAddress */\n    tag_48:\n      0x02\n      0x00\n      swap1\n      sload\n      swap1\n      0x0100\n      exp\n      swap1\n      div\n      0xffffffffffffffffffffffffffffffffffffffff\n      and\n      dup2\n      jump\t// out\n        /* \"contracts/Button.sol\":446:468  TestToken public token */\n    tag_51:\n      0x00\n      0x01\n      swap1\n      sload\n      swap1\n      0x0100\n      exp\n      swap1\n      div\n      0xffffffffffffffffffffffffffffffffffffffff\n      and\n      dup2\n      jump\t// out\n        /* \"#utility.yul\":7:146   */\n    tag_85:\n        /* \"#utility.yul\":53:58   */\n      0x00\n        /* \"#utility.yul\":91:97   */\n      dup2\n        /* \"#utility.yul\":78:98   */\n      calldataload\n        /* \"#utility.yul\":69:98   */\n      swap1\n      pop\n        /* \"#utility.yul\":107:140   */\n      tag_87\n        /* \"#utility.yul\":134:139   */\n      dup2\n        /* \"#utility.yul\":107:140   */\n      tag_88\n      jump\t// in\n    tag_87:\n        /* \"#utility.yul\":59:146   */\n      swap3\n      swap2\n      pop\n      pop\n      jump\t// out\n        /* \"#utility.yul\":152:285   */\n    tag_89:\n        /* \"#utility.yul\":195:200   */\n      0x00\n        /* \"#utility.yul\":233:239   */\n      dup2\n        /* \"#utility.yul\":220:240   */\n      calldataload\n        /* \"#utility.yul\":211:240   */\n      swap1\n      pop\n        /* \"#utility.yul\":249:279   */\n      tag_91\n        /* \"#utility.yul\":273:278   */\n      dup2\n        /* \"#utility.yul\":249:279   */\n      tag_92\n      jump\t// in\n    tag_91:\n        /* \"#utility.yul\":201:285   */\n      swap3\n      swap2\n      pop\n      pop\n      jump\t// out\n        /* \"#utility.yul\":291:428   */\n    tag_93:\n        /* \"#utility.yul\":345:350   */\n      0x00\n        /* \"#utility.yul\":376:382   */\n      dup2\n        /* \"#utility.yul\":370:383   */\n      mload\n        /* \"#utility.yul\":361:383   */\n      swap1\n      pop\n        /* \"#utility.yul\":392:422   */\n      tag_95\n        /* \"#utility.yul\":416:421   */\n      dup2\n        /* \"#utility.yul\":392:422   */\n      tag_92\n      jump\t// in\n    tag_95:\n        /* \"#utility.yul\":351:428   */\n      swap3\n      swap2\n      pop\n      pop\n      jump\t// out\n        /* \"#utility.yul\":434:577   */\n    tag_96:\n        /* \"#utility.yul\":491:496   */\n      0x00\n        /* \"#utility.yul\":522:528   */\n      dup2\n        /* \"#utility.yul\":516:529   */\n      mload\n        /* \"#utility.yul\":507:529   */\n      swap1\n      pop\n        /* \"#utility.yul\":538:571   */\n      tag_98\n        /* \"#utility.yul\":565:570   */\n      dup2\n        /* \"#utility.yul\":538:571   */\n      tag_99\n      jump\t// in\n    tag_98:\n        /* \"#utility.yul\":497:577   */\n      swap3\n      swap2\n      pop\n      pop\n      jump\t// out\n        /* \"#utility.yul\":583:912   */\n    tag_21:\n        /* \"#utility.yul\":642:648   */\n      0x00\n        /* \"#utility.yul\":691:693   */\n      0x20\n        /* \"#utility.yul\":679:688   */\n      dup3\n        /* \"#utility.yul\":670:677   */\n      dup5\n        /* \"#utility.yul\":666:689   */\n      sub\n        /* \"#utility.yul\":662:694   */\n      slt\n        /* \"#utility.yul\":659:661   */\n      iszero\n      tag_101\n      jumpi\n        /* \"#utility.yul\":697:776   */\n      tag_102\n      tag_103\n      jump\t// in\n    tag_102:\n        /* \"#utility.yul\":659:661   */\n    tag_101:\n        /* \"#utility.yul\":817:818   */\n      0x00\n        /* \"#utility.yul\":842:895   */\n      tag_104\n        /* \"#utility.yul\":887:894   */\n      dup5\n        /* \"#utility.yul\":878:884   */\n      dup3\n        /* \"#utility.yul\":867:876   */\n      dup6\n        /* \"#utility.yul\":863:885   */\n      add\n        /* \"#utility.yul\":842:895   */\n      tag_85\n      jump\t// in\n    tag_104:\n        /* \"#utility.yul\":832:895   */\n      swap2\n      pop\n        /* \"#utility.yul\":788:905   */\n      pop\n        /* \"#utility.yul\":649:912   */\n      swap3\n      swap2\n      pop\n      pop\n      jump\t// out\n        /* \"#utility.yul\":918:1241   */\n    tag_43:\n        /* \"#utility.yul\":974:980   */\n      0x00\n        /* \"#utility.yul\":1023:1025   */\n      0x20\n        /* \"#utility.yul\":1011:1020   */\n      dup3\n        /* \"#utility.yul\":1002:1009   */\n      dup5\n        /* \"#utility.yul\":998:1021   */\n      sub\n        /* \"#utility.yul\":994:1026   */\n      slt\n        /* \"#utility.yul\":991:993   */\n      iszero\n      tag_106\n      jumpi\n        /* \"#utility.yul\":1029:1108   */\n      tag_107\n      tag_103\n      jump\t// in\n    tag_107:\n        /* \"#utility.yul\":991:993   */\n    tag_106:\n        /* \"#utility.yul\":1149:1150   */\n      0x00\n        /* \"#utility.yul\":1174:1224   */\n      tag_108\n        /* \"#utility.yul\":1216:1223   */\n      dup5\n        /* \"#utility.yul\":1207:1213   */\n      dup3\n        /* \"#utility.yul\":1196:1205   */\n      dup6\n        /* \"#utility.yul\":1192:1214   */\n      add\n        /* \"#utility.yul\":1174:1224   */\n      tag_89\n      jump\t// in\n    tag_108:\n        /* \"#utility.yul\":1164:1224   */\n      swap2\n      pop\n        /* \"#utility.yul\":1120:1234   */\n      pop\n        /* \"#utility.yul\":981:1241   */\n      swap3\n      swap2\n      pop\n      pop\n      jump\t// out\n        /* \"#utility.yul\":1247:1592   */\n    tag_71:\n        /* \"#utility.yul\":1314:1320   */\n      0x00\n        /* \"#utility.yul\":1363:1365   */\n      0x20\n        /* \"#utility.yul\":1351:1360   */\n      dup3\n        /* \"#utility.yul\":1342:1349   */\n      dup5\n        /* \"#utility.yul\":1338:1361   */\n      sub\n        /* \"#utility.yul\":1334:1366   */\n      slt\n        /* \"#utility.yul\":1331:1333   */\n      iszero\n      tag_110\n      jumpi\n        /* \"#utility.yul\":1369:1448   */\n      tag_111\n      tag_103\n      jump\t// in\n    tag_111:\n        /* \"#utility.yul\":1331:1333   */\n    tag_110:\n        /* \"#utility.yul\":1489:1490   */\n      0x00\n        /* \"#utility.yul\":1514:1575   */\n      tag_112\n        /* \"#utility.yul\":1567:1574   */\n      dup5\n        /* \"#utility.yul\":1558:1564   */\n      dup3\n        /* \"#utility.yul\":1547:1556   */\n      dup6\n        /* \"#utility.yul\":1543:1565   */\n      add\n        /* \"#utility.yul\":1514:1575   */\n      tag_93\n      jump\t// in\n    tag_112:\n        /* \"#utility.yul\":1504:1575   */\n      swap2\n      pop\n        /* \"#utility.yul\":1460:1585   */\n      pop\n        /* \"#utility.yul\":1321:1592   */\n      swap3\n      swap2\n      pop\n      pop\n      jump\t// out\n        /* \"#utility.yul\":1598:1949   */\n    tag_62:\n        /* \"#utility.yul\":1668:1674   */\n      0x00\n        /* \"#utility.yul\":1717:1719   */\n      0x20\n        /* \"#utility.yul\":1705:1714   */\n      dup3\n        /* \"#utility.yul\":1696:1703   */\n      dup5\n        /* \"#utility.yul\":1692:1715   */\n      sub\n        /* \"#utility.yul\":1688:1720   */\n      slt\n        /* \"#utility.yul\":1685:1687   */\n      iszero\n      tag_114\n      jumpi\n        /* \"#utility.yul\":1723:1802   */\n      tag_115\n      tag_103\n      jump\t// in\n    tag_115:\n        /* \"#utility.yul\":1685:1687   */\n    tag_114:\n        /* \"#utility.yul\":1843:1844   */\n      0x00\n        /* \"#utility.yul\":1868:1932   */\n      tag_116\n        /* \"#utility.yul\":1924:1931   */\n      dup5\n        /* \"#utility.yul\":1915:1921   */\n      dup3\n        /* \"#utility.yul\":1904:1913   */\n      dup6\n        /* \"#utility.yul\":1900:1922   */\n      add\n        /* \"#utility.yul\":1868:1932   */\n      tag_96\n      jump\t// in\n    tag_116:\n        /* \"#utility.yul\":1858:1932   */\n      swap2\n      pop\n        /* \"#utility.yul\":1814:1942   */\n      pop\n        /* \"#utility.yul\":1675:1949   */\n      swap3\n      swap2\n      pop\n      pop\n      jump\t// out\n        /* \"#utility.yul\":1955:2073   */\n    tag_117:\n        /* \"#utility.yul\":2042:2066   */\n      tag_119\n        /* \"#utility.yul\":2060:2065   */\n      dup2\n        /* \"#utility.yul\":2042:2066   */\n      tag_120\n      jump\t// in\n    tag_119:\n        /* \"#utility.yul\":2037:2040   */\n      dup3\n        /* \"#utility.yul\":2030:2067   */\n      mstore\n        /* \"#utility.yul\":2020:2073   */\n      pop\n      pop\n      jump\t// out\n        /* \"#utility.yul\":2079:2188   */\n    tag_121:\n        /* \"#utility.yul\":2160:2181   */\n      tag_123\n        /* \"#utility.yul\":2175:2180   */\n      dup2\n        /* \"#utility.yul\":2160:2181   */\n      tag_124\n      jump\t// in\n    tag_123:\n        /* \"#utility.yul\":2155:2158   */\n      dup3\n        /* \"#utility.yul\":2148:2182   */\n      mstore\n        /* \"#utility.yul\":2138:2188   */\n      pop\n      pop\n      jump\t// out\n        /* \"#utility.yul\":2194:2361   */\n    tag_125:\n        /* \"#utility.yul\":2299:2354   */\n      tag_127\n        /* \"#utility.yul\":2348:2353   */\n      dup2\n        /* \"#utility.yul\":2299:2354   */\n      tag_128\n      jump\t// in\n    tag_127:\n        /* \"#utility.yul\":2294:2297   */\n      dup3\n        /* \"#utility.yul\":2287:2355   */\n      mstore\n        /* \"#utility.yul\":2277:2361   */\n      pop\n      pop\n      jump\t// out\n        /* \"#utility.yul\":2367:2514   */\n    tag_129:\n        /* \"#utility.yul\":2462:2507   */\n      tag_131\n        /* \"#utility.yul\":2501:2506   */\n      dup2\n        /* \"#utility.yul\":2462:2507   */\n      tag_132\n      jump\t// in\n    tag_131:\n        /* \"#utility.yul\":2457:2460   */\n      dup3\n        /* \"#utility.yul\":2450:2508   */\n      mstore\n        /* \"#utility.yul\":2440:2514   */\n      pop\n      pop\n      jump\t// out\n        /* \"#utility.yul\":2520:2705   */\n    tag_133:\n        /* \"#utility.yul\":2634:2698   */\n      tag_135\n        /* \"#utility.yul\":2692:2697   */\n      dup2\n        /* \"#utility.yul\":2634:2698   */\n      tag_136\n      jump\t// in\n    tag_135:\n        /* \"#utility.yul\":2629:2632   */\n      dup3\n        /* \"#utility.yul\":2622:2699   */\n      mstore\n        /* \"#utility.yul\":2612:2705   */\n      pop\n      pop\n      jump\t// out\n        /* \"#utility.yul\":2711:2829   */\n    tag_137:\n        /* \"#utility.yul\":2798:2822   */\n      tag_139\n        /* \"#utility.yul\":2816:2821   */\n      dup2\n        /* \"#utility.yul\":2798:2822   */\n      tag_140\n      jump\t// in\n    tag_139:\n        /* \"#utility.yul\":2793:2796   */\n      dup3\n        /* \"#utility.yul\":2786:2823   */\n      mstore\n        /* \"#utility.yul\":2776:2829   */\n      pop\n      pop\n      jump\t// out\n        /* \"#utility.yul\":2835:3057   */\n    tag_33:\n        /* \"#utility.yul\":2928:2932   */\n      0x00\n        /* \"#utility.yul\":2966:2968   */\n      0x20\n        /* \"#utility.yul\":2955:2964   */\n      dup3\n        /* \"#utility.yul\":2951:2969   */\n      add\n        /* \"#utility.yul\":2943:2969   */\n      swap1\n      pop\n        /* \"#utility.yul\":2979:3050   */\n      tag_142\n        /* \"#utility.yul\":3047:3048   */\n      0x00\n        /* \"#utility.yul\":3036:3045   */\n      dup4\n        /* \"#utility.yul\":3032:3049   */\n      add\n        /* \"#utility.yul\":3023:3029   */\n      dup5\n        /* \"#utility.yul\":2979:3050   */\n      tag_117\n      jump\t// in\n    tag_142:\n        /* \"#utility.yul\":2933:3057   */\n      swap3\n      swap2\n      pop\n      pop\n      jump\t// out\n        /* \"#utility.yul\":3063:3559   */\n    tag_66:\n        /* \"#utility.yul\":3239:3243   */\n      0x00\n        /* \"#utility.yul\":3277:3279   */\n      0x60\n        /* \"#utility.yul\":3266:3275   */\n      dup3\n        /* \"#utility.yul\":3262:3280   */\n      add\n        /* \"#utility.yul\":3254:3280   */\n      swap1\n      pop\n        /* \"#utility.yul\":3290:3361   */\n      tag_144\n        /* \"#utility.yul\":3358:3359   */\n      0x00\n        /* \"#utility.yul\":3347:3356   */\n      dup4\n        /* \"#utility.yul\":3343:3360   */\n      add\n        /* \"#utility.yul\":3334:3340   */\n      dup7\n        /* \"#utility.yul\":3290:3361   */\n      tag_117\n      jump\t// in\n    tag_144:\n        /* \"#utility.yul\":3371:3443   */\n      tag_145\n        /* \"#utility.yul\":3439:3441   */\n      0x20\n        /* \"#utility.yul\":3428:3437   */\n      dup4\n        /* \"#utility.yul\":3424:3442   */\n      add\n        /* \"#utility.yul\":3415:3421   */\n      dup6\n        /* \"#utility.yul\":3371:3443   */\n      tag_117\n      jump\t// in\n    tag_145:\n        /* \"#utility.yul\":3453:3552   */\n      tag_146\n        /* \"#utility.yul\":3548:3550   */\n      0x40\n        /* \"#utility.yul\":3537:3546   */\n      dup4\n        /* \"#utility.yul\":3533:3551   */\n      add\n        /* \"#utility.yul\":3524:3530   */\n      dup5\n        /* \"#utility.yul\":3453:3552   */\n      tag_133\n      jump\t// in\n    tag_146:\n        /* \"#utility.yul\":3244:3559   */\n      swap5\n      swap4\n      pop\n      pop\n      pop\n      pop\n      jump\t// out\n        /* \"#utility.yul\":3565:3897   */\n    tag_79:\n        /* \"#utility.yul\":3686:3690   */\n      0x00\n        /* \"#utility.yul\":3724:3726   */\n      0x40\n        /* \"#utility.yul\":3713:3722   */\n      dup3\n        /* \"#utility.yul\":3709:3727   */\n      add\n        /* \"#utility.yul\":3701:3727   */\n      swap1\n      pop\n        /* \"#utility.yul\":3737:3808   */\n      tag_148\n        /* \"#utility.yul\":3805:3806   */\n      0x00\n        /* \"#utility.yul\":3794:3803   */\n      dup4\n        /* \"#utility.yul\":3790:3807   */\n      add\n        /* \"#utility.yul\":3781:3787   */\n      dup6\n        /* \"#utility.yul\":3737:3808   */\n      tag_117\n      jump\t// in\n    tag_148:\n        /* \"#utility.yul\":3818:3890   */\n      tag_149\n        /* \"#utility.yul\":3886:3888   */\n      0x20\n        /* \"#utility.yul\":3875:3884   */\n      dup4\n        /* \"#utility.yul\":3871:3889   */\n      add\n        /* \"#utility.yul\":3862:3868   */\n      dup5\n        /* \"#utility.yul\":3818:3890   */\n      tag_137\n      jump\t// in\n    tag_149:\n        /* \"#utility.yul\":3691:3897   */\n      swap4\n      swap3\n      pop\n      pop\n      pop\n      jump\t// out\n        /* \"#utility.yul\":3903:4432   */\n    tag_24:\n        /* \"#utility.yul\":4068:4072   */\n      0x00\n        /* \"#utility.yul\":4106:4109   */\n      0x80\n        /* \"#utility.yul\":4095:4104   */\n      dup3\n        /* \"#utility.yul\":4091:4110   */\n      add\n        /* \"#utility.yul\":4083:4110   */\n      swap1\n      pop\n        /* \"#utility.yul\":4120:4191   */\n      tag_151\n        /* \"#utility.yul\":4188:4189   */\n      0x00\n        /* \"#utility.yul\":4177:4186   */\n      dup4\n        /* \"#utility.yul\":4173:4190   */\n      add\n        /* \"#utility.yul\":4164:4170   */\n      dup8\n        /* \"#utility.yul\":4120:4191   */\n      tag_117\n      jump\t// in\n    tag_151:\n        /* \"#utility.yul\":4201:4273   */\n      tag_152\n        /* \"#utility.yul\":4269:4271   */\n      0x20\n        /* \"#utility.yul\":4258:4267   */\n      dup4\n        /* \"#utility.yul\":4254:4272   */\n      add\n        /* \"#utility.yul\":4245:4251   */\n      dup7\n        /* \"#utility.yul\":4201:4273   */\n      tag_137\n      jump\t// in\n    tag_152:\n        /* \"#utility.yul\":4283:4349   */\n      tag_153\n        /* \"#utility.yul\":4345:4347   */\n      0x40\n        /* \"#utility.yul\":4334:4343   */\n      dup4\n        /* \"#utility.yul\":4330:4348   */\n      add\n        /* \"#utility.yul\":4321:4327   */\n      dup6\n        /* \"#utility.yul\":4283:4349   */\n      tag_121\n      jump\t// in\n    tag_153:\n        /* \"#utility.yul\":4359:4425   */\n      tag_154\n        /* \"#utility.yul\":4421:4423   */\n      0x60\n        /* \"#utility.yul\":4410:4419   */\n      dup4\n        /* \"#utility.yul\":4406:4424   */\n      add\n        /* \"#utility.yul\":4397:4403   */\n      dup5\n        /* \"#utility.yul\":4359:4425   */\n      tag_121\n      jump\t// in\n    tag_154:\n        /* \"#utility.yul\":4073:4432   */\n      swap6\n      swap5\n      pop\n      pop\n      pop\n      pop\n      pop\n      jump\t// out\n        /* \"#utility.yul\":4438:4696   */\n    tag_53:\n        /* \"#utility.yul\":4549:4553   */\n      0x00\n        /* \"#utility.yul\":4587:4589   */\n      0x20\n        /* \"#utility.yul\":4576:4585   */\n      dup3\n        /* \"#utility.yul\":4572:4590   */\n      add\n        /* \"#utility.yul\":4564:4590   */\n      swap1\n      pop\n        /* \"#utility.yul\":4600:4689   */\n      tag_156\n        /* \"#utility.yul\":4686:4687   */\n      0x00\n        /* \"#utility.yul\":4675:4684   */\n      dup4\n        /* \"#utility.yul\":4671:4688   */\n      add\n        /* \"#utility.yul\":4662:4668   */\n      dup5\n        /* \"#utility.yul\":4600:4689   */\n      tag_125\n      jump\t// in\n    tag_156:\n        /* \"#utility.yul\":4554:4696   */\n      swap3\n      swap2\n      pop\n      pop\n      jump\t// out\n        /* \"#utility.yul\":4702:4940   */\n    tag_40:\n        /* \"#utility.yul\":4803:4807   */\n      0x00\n        /* \"#utility.yul\":4841:4843   */\n      0x20\n        /* \"#utility.yul\":4830:4839   */\n      dup3\n        /* \"#utility.yul\":4826:4844   */\n      add\n        /* \"#utility.yul\":4818:4844   */\n      swap1\n      pop\n        /* \"#utility.yul\":4854:4933   */\n      tag_158\n        /* \"#utility.yul\":4930:4931   */\n      0x00\n        /* \"#utility.yul\":4919:4928   */\n      dup4\n        /* \"#utility.yul\":4915:4932   */\n      add\n        /* \"#utility.yul\":4906:4912   */\n      dup5\n        /* \"#utility.yul\":4854:4933   */\n      tag_129\n      jump\t// in\n    tag_158:\n        /* \"#utility.yul\":4808:4940   */\n      swap3\n      swap2\n      pop\n      pop\n      jump\t// out\n        /* \"#utility.yul\":4946:5168   */\n    tag_18:\n        /* \"#utility.yul\":5039:5043   */\n      0x00\n        /* \"#utility.yul\":5077:5079   */\n      0x20\n        /* \"#utility.yul\":5066:5075   */\n      dup3\n        /* \"#utility.yul\":5062:5080   */\n      add\n        /* \"#utility.yul\":5054:5080   */\n      swap1\n      pop\n        /* \"#utility.yul\":5090:5161   */\n      tag_160\n        /* \"#utility.yul\":5158:5159   */\n      0x00\n        /* \"#utility.yul\":5147:5156   */\n      dup4\n        /* \"#utility.yul\":5143:5160   */\n      add\n        /* \"#utility.yul\":5134:5140   */\n      dup5\n        /* \"#utility.yul\":5090:5161   */\n      tag_137\n      jump\t// in\n    tag_160:\n        /* \"#utility.yul\":5044:5168   */\n      swap3\n      swap2\n      pop\n      pop\n      jump\t// out\n        /* \"#utility.yul\":5255:5560   */\n    tag_64:\n        /* \"#utility.yul\":5295:5298   */\n      0x00\n        /* \"#utility.yul\":5314:5334   */\n      tag_164\n        /* \"#utility.yul\":5332:5333   */\n      dup3\n        /* \"#utility.yul\":5314:5334   */\n      tag_140\n      jump\t// in\n    tag_164:\n        /* \"#utility.yul\":5309:5334   */\n      swap2\n      pop\n        /* \"#utility.yul\":5348:5368   */\n      tag_165\n        /* \"#utility.yul\":5366:5367   */\n      dup4\n        /* \"#utility.yul\":5348:5368   */\n      tag_140\n      jump\t// in\n    tag_165:\n        /* \"#utility.yul\":5343:5368   */\n      swap3\n      pop\n        /* \"#utility.yul\":5502:5503   */\n      dup3\n        /* \"#utility.yul\":5434:5500   */\n      0xffffffffffffffffffffffffffffffffffffffffffffffffffffffffffffffff\n        /* \"#utility.yul\":5430:5504   */\n      sub\n        /* \"#utility.yul\":5427:5428   */\n      dup3\n        /* \"#utility.yul\":5424:5505   */\n      gt\n        /* \"#utility.yul\":5421:5423   */\n      iszero\n      tag_166\n      jumpi\n        /* \"#utility.yul\":5508:5526   */\n      tag_167\n      tag_168\n      jump\t// in\n    tag_167:\n        /* \"#utility.yul\":5421:5423   */\n    tag_166:\n        /* \"#utility.yul\":5552:5553   */\n      dup3\n        /* \"#utility.yul\":5549:5550   */\n      dup3\n        /* \"#utility.yul\":5545:5554   */\n      add\n        /* \"#utility.yul\":5538:5554   */\n      swap1\n      pop\n        /* \"#utility.yul\":5299:5560   */\n      swap3\n      swap2\n      pop\n      pop\n      jump\t// out\n        /* \"#utility.yul\":5566:5662   */\n    tag_120:\n        /* \"#utility.yul\":5603:5610   */\n      0x00\n        /* \"#utility.yul\":5632:5656   */\n      tag_170\n        /* \"#utility.yul\":5650:5655   */\n      dup3\n        /* \"#utility.yul\":5632:5656   */\n      tag_171\n      jump\t// in\n    tag_170:\n        /* \"#utility.yul\":5621:5656   */\n      swap1\n      pop\n        /* \"#utility.yul\":5611:5662   */\n      swap2\n      swap1\n      pop\n      jump\t// out\n        /* \"#utility.yul\":5668:5758   */\n    tag_124:\n        /* \"#utility.yul\":5702:5709   */\n      0x00\n        /* \"#utility.yul\":5745:5750   */\n      dup2\n        /* \"#utility.yul\":5738:5751   */\n      iszero\n        /* \"#utility.yul\":5731:5752   */\n      iszero\n        /* \"#utility.yul\":5720:5752   */\n      swap1\n      pop\n        /* \"#utility.yul\":5710:5758   */\n      swap2\n      swap1\n      pop\n      jump\t// out\n        /* \"#utility.yul\":5764:5895   */\n    tag_173:\n        /* \"#utility.yul\":5811:5818   */\n      0x00\n        /* \"#utility.yul\":5840:5845   */\n      dup2\n        /* \"#utility.yul\":5829:5845   */\n      swap1\n      pop\n        /* \"#utility.yul\":5846:5889   */\n      tag_175\n        /* \"#utility.yul\":5883:5888   */\n      dup3\n        /* \"#utility.yul\":5846:5889   */\n      tag_176\n      jump\t// in\n    tag_175:\n        /* \"#utility.yul\":5819:5895   */\n      swap2\n      swap1\n      pop\n      jump\t// out\n        /* \"#utility.yul\":5901:6027   */\n    tag_171:\n        /* \"#utility.yul\":5938:5945   */\n      0x00\n        /* \"#utility.yul\":5978:6020   */\n      0xffffffffffffffffffffffffffffffffffffffff\n        /* \"#utility.yul\":5971:5976   */\n      dup3\n        /* \"#utility.yul\":5967:6021   */\n      and\n        /* \"#utility.yul\":5956:6021   */\n      swap1\n      pop\n        /* \"#utility.yul\":5946:6027   */\n      swap2\n      swap1\n      pop\n      jump\t// out\n        /* \"#utility.yul\":6033:6110   */\n    tag_140:\n        /* \"#utility.yul\":6070:6077   */\n      0x00\n        /* \"#utility.yul\":6099:6104   */\n      dup2\n        /* \"#utility.yul\":6088:6104   */\n      swap1\n      pop\n        /* \"#utility.yul\":6078:6110   */\n      swap2\n      swap1\n      pop\n      jump\t// out\n        /* \"#utility.yul\":6116:6278   */\n    tag_128:\n        /* \"#utility.yul\":6184:6193   */\n      0x00\n        /* \"#utility.yul\":6217:6272   */\n      tag_180\n        /* \"#utility.yul\":6266:6271   */\n      dup3\n        /* \"#utility.yul\":6217:6272   */\n      tag_181\n      jump\t// in\n    tag_180:\n        /* \"#utility.yul\":6204:6272   */\n      swap1\n      pop\n        /* \"#utility.yul\":6194:6278   */\n      swap2\n      swap1\n      pop\n      jump\t// out\n        /* \"#utility.yul\":6284:6415   */\n    tag_181:\n        /* \"#utility.yul\":6352:6361   */\n      0x00\n        /* \"#utility.yul\":6385:6409   */\n      tag_183\n        /* \"#utility.yul\":6403:6408   */\n      dup3\n        /* \"#utility.yul\":6385:6409   */\n      tag_171\n      jump\t// in\n    tag_183:\n        /* \"#utility.yul\":6372:6409   */\n      swap1\n      pop\n        /* \"#utility.yul\":6362:6415   */\n      swap2\n      swap1\n      pop\n      jump\t// out\n        /* \"#utility.yul\":6421:6552   */\n    tag_132:\n        /* \"#utility.yul\":6479:6488   */\n      0x00\n        /* \"#utility.yul\":6512:6546   */\n      tag_185\n        /* \"#utility.yul\":6540:6545   */\n      dup3\n        /* \"#utility.yul\":6512:6546   */\n      tag_173\n      jump\t// in\n    tag_185:\n        /* \"#utility.yul\":6499:6546   */\n      swap1\n      pop\n        /* \"#utility.yul\":6489:6552   */\n      swap2\n      swap1\n      pop\n      jump\t// out\n        /* \"#utility.yul\":6558:6698   */\n    tag_136:\n        /* \"#utility.yul\":6635:6644   */\n      0x00\n        /* \"#utility.yul\":6668:6692   */\n      tag_187\n        /* \"#utility.yul\":6686:6691   */\n      dup3\n        /* \"#utility.yul\":6668:6692   */\n      tag_140\n      jump\t// in\n    tag_187:\n        /* \"#utility.yul\":6655:6692   */\n      swap1\n      pop\n        /* \"#utility.yul\":6645:6698   */\n      swap2\n      swap1\n      pop\n      jump\t// out\n        /* \"#utility.yul\":6704:6884   */\n    tag_168:\n        /* \"#utility.yul\":6752:6829   */\n      0x4e487b7100000000000000000000000000000000000000000000000000000000\n        /* \"#utility.yul\":6749:6750   */\n      0x00\n        /* \"#utility.yul\":6742:6830   */\n      mstore\n        /* \"#utility.yul\":6849:6853   */\n      0x11\n        /* \"#utility.yul\":6846:6847   */\n      0x04\n        /* \"#utility.yul\":6839:6854   */\n      mstore\n        /* \"#utility.yul\":6873:6877   */\n      0x24\n        /* \"#utility.yul\":6870:6871   */\n      0x00\n        /* \"#utility.yul\":6863:6878   */\n      revert\n        /* \"#utility.yul\":6890:7070   */\n    tag_189:\n        /* \"#utility.yul\":6938:7015   */\n      0x4e487b7100000000000000000000000000000000000000000000000000000000\n        /* \"#utility.yul\":6935:6936   */\n      0x00\n        /* \"#utility.yul\":6928:7016   */\n      mstore\n        /* \"#utility.yul\":7035:7039   */\n      0x21\n        /* \"#utility.yul\":7032:7033   */\n      0x04\n        /* \"#utility.yul\":7025:7040   */\n      mstore\n        /* \"#utility.yul\":7059:7063   */\n      0x24\n        /* \"#utility.yul\":7056:7057   */\n      0x00\n        /* \"#utility.yul\":7049:7064   */\n      revert\n        /* \"#utility.yul\":7199:7316   */\n    tag_103:\n        /* \"#utility.yul\":7308:7309   */\n      0x00\n        /* \"#utility.yul\":7305:7306   */\n      dup1\n        /* \"#utility.yul\":7298:7310   */\n      revert\n        /* \"#utility.yul\":7322:7437   */\n    tag_176:\n        /* \"#utility.yul\":7405:7406   */\n      0x03\n        /* \"#utility.yul\":7398:7403   */\n      dup2\n        /* \"#utility.yul\":7395:7407   */\n      lt\n        /* \"#utility.yul\":7385:7387   */\n      tag_195\n      jumpi\n        /* \"#utility.yul\":7411:7429   */\n      tag_196\n      tag_189\n      jump\t// in\n    tag_196:\n        /* \"#utility.yul\":7385:7387   */\n    tag_195:\n        /* \"#utility.yul\":7375:7437   */\n      pop\n      jump\t// out\n        /* \"#utility.yul\":7443:7565   */\n    tag_88:\n        /* \"#utility.yul\":7516:7540   */\n      tag_198\n        /* \"#utility.yul\":7534:7539   */\n      dup2\n        /* \"#utility.yul\":7516:7540   */\n      tag_120\n      jump\t// in\n    tag_198:\n        /* \"#utility.yul\":7509:7514   */\n      dup2\n        /* \"#utility.yul\":7506:7541   */\n      eq\n        /* \"#utility.yul\":7496:7498   */\n      tag_199\n      jumpi\n        /* \"#utility.yul\":7555:7556   */\n      0x00\n        /* \"#utility.yul\":7552:7553   */\n      dup1\n        /* \"#utility.yul\":7545:7557   */\n      revert\n        /* \"#utility.yul\":7496:7498   */\n    tag_199:\n        /* \"#utility.yul\":7486:7565   */\n      pop\n      jump\t// out\n        /* \"#utility.yul\":7571:7687   */\n    tag_92:\n        /* \"#utility.yul\":7641:7662   */\n      tag_201\n        /* \"#utility.yul\":7656:7661   */\n      dup2\n        /* \"#utility.yul\":7641:7662   */\n      tag_124\n      jump\t// in\n    tag_201:\n        /* \"#utility.yul\":7634:7639   */\n      dup2\n        /* \"#utility.yul\":7631:7663   */\n      eq\n        /* \"#utility.yul\":7621:7623   */\n      tag_202\n      jumpi\n        /* \"#utility.yul\":7677:7678   */\n      0x00\n        /* \"#utility.yul\":7674:7675   */\n      dup1\n        /* \"#utility.yul\":7667:7679   */\n      revert\n        /* \"#utility.yul\":7621:7623   */\n    tag_202:\n        /* \"#utility.yul\":7611:7687   */\n      pop\n      jump\t// out\n        /* \"#utility.yul\":7693:7815   */\n    tag_99:\n        /* \"#utility.yul\":7766:7790   */\n      tag_204\n        /* \"#utility.yul\":7784:7789   */\n      dup2\n        /* \"#utility.yul\":7766:7790   */\n      tag_140\n      jump\t// in\n    tag_204:\n        /* \"#utility.yul\":7759:7764   */\n      dup2\n        /* \"#utility.yul\":7756:7791   */\n      eq\n        /* \"#utility.yul\":7746:7748   */\n      tag_205\n      jumpi\n        /* \"#utility.yul\":7805:7806   */\n      0x00\n        /* \"#utility.yul\":7802:7803   */\n      dup1\n        /* \"#utility.yul\":7795:7807   */\n      revert\n        /* \"#utility.yul\":7746:7748   */\n    tag_205:\n        /* \"#utility.yul\":7736:7815   */\n      pop\n      jump\t// out\n\n    auxdata: 0xa2646970667358221220acd3557d32fd163d29945a4ccbd9046fb21ea4eedf3faa702de50a3899c062c964736f6c63430008060033\n}\n",
				"bytecode": {
					"linkReferences": {},
					"object": "60806040523480156200001157600080fd5b5060405162000dc138038062000dc18339818101604052810190620000379190620000b5565b81600060016101000a81548173ffffffffffffffffffffffffffffffffffffffff021916908373ffffffffffffffffffffffffffffffffffffffff16021790555080600481905550505062000187565b600081519050620000988162000153565b92915050565b600081519050620000af816200016d565b92915050565b60008060408385031215620000cf57620000ce6200014e565b5b6000620000df8582860162000087565b9250506020620000f2858286016200009e565b9150509250929050565b6000620001098262000124565b9050919050565b60006200011d82620000fc565b9050919050565b600073ffffffffffffffffffffffffffffffffffffffff82169050919050565b6000819050919050565b600080fd5b6200015e8162000110565b81146200016a57600080fd5b50565b620001788162000144565b81146200018457600080fd5b50565b610c2a80620001976000396000f3fe608060405234801561001057600080fd5b50600436106100a95760003560e01c806382b1ad501161007157806382b1ad5014610145578063c19d93fb14610163578063d45dcca014610181578063dfbf53ae1461019d578063ed7a4e0b146101a7578063fc0c546a146101c5576100a9565b806306661abd146100ae57806309e69ede146100cc57806320d3a0b4146100ff57806348d37a581461011d57806359ff6ba814610127575b600080fd5b6100b66101e3565b6040516100c39190610a24565b60405180910390f35b6100e660048036038101906100e19190610820565b6101e9565b6040516100f694939291906109a9565b60405180910390f35b610107610253565b6040516101149190610a24565b60405180910390f35b610125610259565b005b61012f61025b565b60405161013c919061092e565b60405180910390f35b61014d610281565b60405161015a9190610a24565b60405180910390f35b61016b610287565b6040516101789190610a09565b60405180910390f35b61019b6004803603810190610196919061084d565b610298565b005b6101a56105f9565b005b6101af610780565b6040516101bc919061092e565b60405180910390f35b6101cd6107a6565b6040516101da91906109ee565b60405180910390f35b60035481565b60066020528060005260406000206000915090508060000160009054906101000a900473ffffffffffffffffffffffffffffffffffffffff16908060010154908060020160009054906101000a900460ff16908060020160019054906101000a900460ff16905084565b60045481565b565b600160009054906101000a900473ffffffffffffffffffffffffffffffffffffffff1681565b60055481565b60008054906101000a900460ff1681565b33600160006101000a81548173ffffffffffffffffffffffffffffffffffffffff021916908373ffffffffffffffffffffffffffffffffffffffff16021790555080156105f6576040518060800160405280600160009054906101000a900473ffffffffffffffffffffffffffffffffffffffff1673ffffffffffffffffffffffffffffffffffffffff168152602001600060019054906101000a900473ffffffffffffffffffffffffffffffffffffffff1673ffffffffffffffffffffffffffffffffffffffff166370a08231600160009054906101000a900473ffffffffffffffffffffffffffffffffffffffff166040518263ffffffff1660e01b81526004016103a5919061092e565b60206040518083038186803b1580156103bd57600080fd5b505afa1580156103d1573d6000803e3d6000fd5b505050506040513d601f19601f820116820180604052508101906103f591906108a7565b815260200182151581526020016001151581525060066000600160009054906101000a900473ffffffffffffffffffffffffffffffffffffffff1673ffffffffffffffffffffffffffffffffffffffff1673ffffffffffffffffffffffffffffffffffffffff16815260200190815260200160002060008201518160000160006101000a81548173ffffffffffffffffffffffffffffffffffffffff021916908373ffffffffffffffffffffffffffffffffffffffff1602179055506020820151816001015560408201518160020160006101000a81548160ff02191690831515021790555060608201518160020160016101000a81548160ff0219169083151502179055509050506001600360008282546105119190610a3f565b92505081905550600060019054906101000a900473ffffffffffffffffffffffffffffffffffffffff1673ffffffffffffffffffffffffffffffffffffffff166323b872dd600160009054906101000a900473ffffffffffffffffffffffffffffffffffffffff16306801158e460913d000006040518463ffffffff1660e01b81526004016105a293929190610949565b602060405180830381600087803b1580156105bc57600080fd5b505af11580156105d0573d6000803e3d6000fd5b505050506040513d601f19601f820116820180604052508101906105f4919061087a565b505b50565b600060019054906101000a900473ffffffffffffffffffffffffffffffffffffffff1673ffffffffffffffffffffffffffffffffffffffff166370a08231306040518263ffffffff1660e01b8152600401610654919061092e565b60206040518083038186803b15801561066c57600080fd5b505afa158015610680573d6000803e3d6000fd5b505050506040513d601f19601f820116820180604052508101906106a491906108a7565b600581905550600060019054906101000a900473ffffffffffffffffffffffffffffffffffffffff1673ffffffffffffffffffffffffffffffffffffffff1663a9059cbb600260009054906101000a900473ffffffffffffffffffffffffffffffffffffffff166005546040518363ffffffff1660e01b815260040161072b929190610980565b602060405180830381600087803b15801561074557600080fd5b505af1158015610759573d6000803e3d6000fd5b505050506040513d601f19601f8201168201806040525081019061077d919061087a565b50565b600260009054906101000a900473ffffffffffffffffffffffffffffffffffffffff1681565b600060019054906101000a900473ffffffffffffffffffffffffffffffffffffffff1681565b6000813590506107db81610baf565b92915050565b6000813590506107f081610bc6565b92915050565b60008151905061080581610bc6565b92915050565b60008151905061081a81610bdd565b92915050565b60006020828403121561083657610835610b96565b5b6000610844848285016107cc565b91505092915050565b60006020828403121561086357610862610b96565b5b6000610871848285016107e1565b91505092915050565b6000602082840312156108905761088f610b96565b5b600061089e848285016107f6565b91505092915050565b6000602082840312156108bd576108bc610b96565b5b60006108cb8482850161080b565b91505092915050565b6108dd81610a95565b82525050565b6108ec81610aa7565b82525050565b6108fb81610af0565b82525050565b61090a81610b14565b82525050565b61091981610b26565b82525050565b61092881610ae6565b82525050565b600060208201905061094360008301846108d4565b92915050565b600060608201905061095e60008301866108d4565b61096b60208301856108d4565b6109786040830184610910565b949350505050565b600060408201905061099560008301856108d4565b6109a2602083018461091f565b9392505050565b60006080820190506109be60008301876108d4565b6109cb602083018661091f565b6109d860408301856108e3565b6109e560608301846108e3565b95945050505050565b6000602082019050610a0360008301846108f2565b92915050565b6000602082019050610a1e6000830184610901565b92915050565b6000602082019050610a39600083018461091f565b92915050565b6000610a4a82610ae6565b9150610a5583610ae6565b9250827fffffffffffffffffffffffffffffffffffffffffffffffffffffffffffffffff03821115610a8a57610a89610b38565b5b828201905092915050565b6000610aa082610ac6565b9050919050565b60008115159050919050565b6000819050610ac182610b9b565b919050565b600073ffffffffffffffffffffffffffffffffffffffff82169050919050565b6000819050919050565b6000610afb82610b02565b9050919050565b6000610b0d82610ac6565b9050919050565b6000610b1f82610ab3565b9050919050565b6000610b3182610ae6565b9050919050565b7f4e487b7100000000000000000000000000000000000000000000000000000000600052601160045260246000fd5b7f4e487b7100000000000000000000000000000000000000000000000000000000600052602160045260246000fd5b600080fd5b60038110610bac57610bab610b67565b5b50565b610bb881610a95565b8114610bc357600080fd5b50565b610bcf81610aa7565b8114610bda57600080fd5b50565b610be681610ae6565b8114610bf157600080fd5b5056fea2646970667358221220acd3557d32fd163d29945a4ccbd9046fb21ea4eedf3faa702de50a3899c062c964736f6c63430008060033",
					"opcodes": "PUSH1 0x80 PUSH1 0x40 MSTORE CALLVALUE DUP1 ISZERO PUSH3 0x11 JUMPI PUSH1 0x0 DUP1 REVERT JUMPDEST POP PUSH1 0x40 MLOAD PUSH3 0xDC1 CODESIZE SUB DUP1 PUSH3 0xDC1 DUP4 CODECOPY DUP2 DUP2 ADD PUSH1 0x40 MSTORE DUP2 ADD SWAP1 PUSH3 0x37 SWAP2 SWAP1 PUSH3 0xB5 JUMP JUMPDEST DUP2 PUSH1 0x0 PUSH1 0x1 PUSH2 0x100 EXP DUP2 SLOAD DUP2 PUSH20 0xFFFFFFFFFFFFFFFFFFFFFFFFFFFFFFFFFFFFFFFF MUL NOT AND SWAP1 DUP4 PUSH20 0xFFFFFFFFFFFFFFFFFFFFFFFFFFFFFFFFFFFFFFFF AND MUL OR SWAP1 SSTORE POP DUP1 PUSH1 0x4 DUP2 SWAP1 SSTORE POP POP POP PUSH3 0x187 JUMP JUMPDEST PUSH1 0x0 DUP2 MLOAD SWAP1 POP PUSH3 0x98 DUP2 PUSH3 0x153 JUMP JUMPDEST SWAP3 SWAP2 POP POP JUMP JUMPDEST PUSH1 0x0 DUP2 MLOAD SWAP1 POP PUSH3 0xAF DUP2 PUSH3 0x16D JUMP JUMPDEST SWAP3 SWAP2 POP POP JUMP JUMPDEST PUSH1 0x0 DUP1 PUSH1 0x40 DUP4 DUP6 SUB SLT ISZERO PUSH3 0xCF JUMPI PUSH3 0xCE PUSH3 0x14E JUMP JUMPDEST JUMPDEST PUSH1 0x0 PUSH3 0xDF DUP6 DUP3 DUP7 ADD PUSH3 0x87 JUMP JUMPDEST SWAP3 POP POP PUSH1 0x20 PUSH3 0xF2 DUP6 DUP3 DUP7 ADD PUSH3 0x9E JUMP JUMPDEST SWAP2 POP POP SWAP3 POP SWAP3 SWAP1 POP JUMP JUMPDEST PUSH1 0x0 PUSH3 0x109 DUP3 PUSH3 0x124 JUMP JUMPDEST SWAP1 POP SWAP2 SWAP1 POP JUMP JUMPDEST PUSH1 0x0 PUSH3 0x11D DUP3 PUSH3 0xFC JUMP JUMPDEST SWAP1 POP SWAP2 SWAP1 POP JUMP JUMPDEST PUSH1 0x0 PUSH20 0xFFFFFFFFFFFFFFFFFFFFFFFFFFFFFFFFFFFFFFFF DUP3 AND SWAP1 POP SWAP2 SWAP1 POP JUMP JUMPDEST PUSH1 0x0 DUP2 SWAP1 POP SWAP2 SWAP1 POP JUMP JUMPDEST PUSH1 0x0 DUP1 REVERT JUMPDEST PUSH3 0x15E DUP2 PUSH3 0x110 JUMP JUMPDEST DUP2 EQ PUSH3 0x16A JUMPI PUSH1 0x0 DUP1 REVERT JUMPDEST POP JUMP JUMPDEST PUSH3 0x178 DUP2 PUSH3 0x144 JUMP JUMPDEST DUP2 EQ PUSH3 0x184 JUMPI PUSH1 0x0 DUP1 REVERT JUMPDEST POP JUMP JUMPDEST PUSH2 0xC2A DUP1 PUSH3 0x197 PUSH1 0x0 CODECOPY PUSH1 0x0 RETURN INVALID PUSH1 0x80 PUSH1 0x40 MSTORE CALLVALUE DUP1 ISZERO PUSH2 0x10 JUMPI PUSH1 0x0 DUP1 REVERT JUMPDEST POP PUSH1 0x4 CALLDATASIZE LT PUSH2 0xA9 JUMPI PUSH1 0x0 CALLDATALOAD PUSH1 0xE0 SHR DUP1 PUSH4 0x82B1AD50 GT PUSH2 0x71 JUMPI DUP1 PUSH4 0x82B1AD50 EQ PUSH2 0x145 JUMPI DUP1 PUSH4 0xC19D93FB EQ PUSH2 0x163 JUMPI DUP1 PUSH4 0xD45DCCA0 EQ PUSH2 0x181 JUMPI DUP1 PUSH4 0xDFBF53AE EQ PUSH2 0x19D JUMPI DUP1 PUSH4 0xED7A4E0B EQ PUSH2 0x1A7 JUMPI DUP1 PUSH4 0xFC0C546A EQ PUSH2 0x1C5 JUMPI PUSH2 0xA9 JUMP JUMPDEST DUP1 PUSH4 0x6661ABD EQ PUSH2 0xAE JUMPI DUP1 PUSH4 0x9E69EDE EQ PUSH2 0xCC JUMPI DUP1 PUSH4 0x20D3A0B4 EQ PUSH2 0xFF JUMPI DUP1 PUSH4 0x48D37A58 EQ PUSH2 0x11D JUMPI DUP1 PUSH4 0x59FF6BA8 EQ PUSH2 0x127 JUMPI JUMPDEST PUSH1 0x0 DUP1 REVERT JUMPDEST PUSH2 0xB6 PUSH2 0x1E3 JUMP JUMPDEST PUSH1 0x40 MLOAD PUSH2 0xC3 SWAP2 SWAP1 PUSH2 0xA24 JUMP JUMPDEST PUSH1 0x40 MLOAD DUP1 SWAP2 SUB SWAP1 RETURN JUMPDEST PUSH2 0xE6 PUSH1 0x4 DUP1 CALLDATASIZE SUB DUP2 ADD SWAP1 PUSH2 0xE1 SWAP2 SWAP1 PUSH2 0x820 JUMP JUMPDEST PUSH2 0x1E9 JUMP JUMPDEST PUSH1 0x40 MLOAD PUSH2 0xF6 SWAP5 SWAP4 SWAP3 SWAP2 SWAP1 PUSH2 0x9A9 JUMP JUMPDEST PUSH1 0x40 MLOAD DUP1 SWAP2 SUB SWAP1 RETURN JUMPDEST PUSH2 0x107 PUSH2 0x253 JUMP JUMPDEST PUSH1 0x40 MLOAD PUSH2 0x114 SWAP2 SWAP1 PUSH2 0xA24 JUMP JUMPDEST PUSH1 0x40 MLOAD DUP1 SWAP2 SUB SWAP1 RETURN JUMPDEST PUSH2 0x125 PUSH2 0x259 JUMP JUMPDEST STOP JUMPDEST PUSH2 0x12F PUSH2 0x25B JUMP JUMPDEST PUSH1 0x40 MLOAD PUSH2 0x13C SWAP2 SWAP1 PUSH2 0x92E JUMP JUMPDEST PUSH1 0x40 MLOAD DUP1 SWAP2 SUB SWAP1 RETURN JUMPDEST PUSH2 0x14D PUSH2 0x281 JUMP JUMPDEST PUSH1 0x40 MLOAD PUSH2 0x15A SWAP2 SWAP1 PUSH2 0xA24 JUMP JUMPDEST PUSH1 0x40 MLOAD DUP1 SWAP2 SUB SWAP1 RETURN JUMPDEST PUSH2 0x16B PUSH2 0x287 JUMP JUMPDEST PUSH1 0x40 MLOAD PUSH2 0x178 SWAP2 SWAP1 PUSH2 0xA09 JUMP JUMPDEST PUSH1 0x40 MLOAD DUP1 SWAP2 SUB SWAP1 RETURN JUMPDEST PUSH2 0x19B PUSH1 0x4 DUP1 CALLDATASIZE SUB DUP2 ADD SWAP1 PUSH2 0x196 SWAP2 SWAP1 PUSH2 0x84D JUMP JUMPDEST PUSH2 0x298 JUMP JUMPDEST STOP JUMPDEST PUSH2 0x1A5 PUSH2 0x5F9 JUMP JUMPDEST STOP JUMPDEST PUSH2 0x1AF PUSH2 0x780 JUMP JUMPDEST PUSH1 0x40 MLOAD PUSH2 0x1BC SWAP2 SWAP1 PUSH2 0x92E JUMP JUMPDEST PUSH1 0x40 MLOAD DUP1 SWAP2 SUB SWAP1 RETURN JUMPDEST PUSH2 0x1CD PUSH2 0x7A6 JUMP JUMPDEST PUSH1 0x40 MLOAD PUSH2 0x1DA SWAP2 SWAP1 PUSH2 0x9EE JUMP JUMPDEST PUSH1 0x40 MLOAD DUP1 SWAP2 SUB SWAP1 RETURN JUMPDEST PUSH1 0x3 SLOAD DUP2 JUMP JUMPDEST PUSH1 0x6 PUSH1 0x20 MSTORE DUP1 PUSH1 0x0 MSTORE PUSH1 0x40 PUSH1 0x0 KECCAK256 PUSH1 0x0 SWAP2 POP SWAP1 POP DUP1 PUSH1 0x0 ADD PUSH1 0x0 SWAP1 SLOAD SWAP1 PUSH2 0x100 EXP SWAP1 DIV PUSH20 0xFFFFFFFFFFFFFFFFFFFFFFFFFFFFFFFFFFFFFFFF AND SWAP1 DUP1 PUSH1 0x1 ADD SLOAD SWAP1 DUP1 PUSH1 0x2 ADD PUSH1 0x0 SWAP1 SLOAD SWAP1 PUSH2 0x100 EXP SWAP1 DIV PUSH1 0xFF AND SWAP1 DUP1 PUSH1 0x2 ADD PUSH1 0x1 SWAP1 SLOAD SWAP1 PUSH2 0x100 EXP SWAP1 DIV PUSH1 0xFF AND SWAP1 POP DUP5 JUMP JUMPDEST PUSH1 0x4 SLOAD DUP2 JUMP JUMPDEST JUMP JUMPDEST PUSH1 0x1 PUSH1 0x0 SWAP1 SLOAD SWAP1 PUSH2 0x100 EXP SWAP1 DIV PUSH20 0xFFFFFFFFFFFFFFFFFFFFFFFFFFFFFFFFFFFFFFFF AND DUP2 JUMP JUMPDEST PUSH1 0x5 SLOAD DUP2 JUMP JUMPDEST PUSH1 0x0 DUP1 SLOAD SWAP1 PUSH2 0x100 EXP SWAP1 DIV PUSH1 0xFF AND DUP2 JUMP JUMPDEST CALLER PUSH1 0x1 PUSH1 0x0 PUSH2 0x100 EXP DUP2 SLOAD DUP2 PUSH20 0xFFFFFFFFFFFFFFFFFFFFFFFFFFFFFFFFFFFFFFFF MUL NOT AND SWAP1 DUP4 PUSH20 0xFFFFFFFFFFFFFFFFFFFFFFFFFFFFFFFFFFFFFFFF AND MUL OR SWAP1 SSTORE POP DUP1 ISZERO PUSH2 0x5F6 JUMPI PUSH1 0x40 MLOAD DUP1 PUSH1 0x80 ADD PUSH1 0x40 MSTORE DUP1 PUSH1 0x1 PUSH1 0x0 SWAP1 SLOAD SWAP1 PUSH2 0x100 EXP SWAP1 DIV PUSH20 0xFFFFFFFFFFFFFFFFFFFFFFFFFFFFFFFFFFFFFFFF AND PUSH20 0xFFFFFFFFFFFFFFFFFFFFFFFFFFFFFFFFFFFFFFFF AND DUP2 MSTORE PUSH1 0x20 ADD PUSH1 0x0 PUSH1 0x1 SWAP1 SLOAD SWAP1 PUSH2 0x100 EXP SWAP1 DIV PUSH20 0xFFFFFFFFFFFFFFFFFFFFFFFFFFFFFFFFFFFFFFFF AND PUSH20 0xFFFFFFFFFFFFFFFFFFFFFFFFFFFFFFFFFFFFFFFF AND PUSH4 0x70A08231 PUSH1 0x1 PUSH1 0x0 SWAP1 SLOAD SWAP1 PUSH2 0x100 EXP SWAP1 DIV PUSH20 0xFFFFFFFFFFFFFFFFFFFFFFFFFFFFFFFFFFFFFFFF AND PUSH1 0x40 MLOAD DUP3 PUSH4 0xFFFFFFFF AND PUSH1 0xE0 SHL DUP2 MSTORE PUSH1 0x4 ADD PUSH2 0x3A5 SWAP2 SWAP1 PUSH2 0x92E JUMP JUMPDEST PUSH1 0x20 PUSH1 0x40 MLOAD DUP1 DUP4 SUB DUP2 DUP7 DUP1 EXTCODESIZE ISZERO DUP1 ISZERO PUSH2 0x3BD JUMPI PUSH1 0x0 DUP1 REVERT JUMPDEST POP GAS STATICCALL ISZERO DUP1 ISZERO PUSH2 0x3D1 JUMPI RETURNDATASIZE PUSH1 0x0 DUP1 RETURNDATACOPY RETURNDATASIZE PUSH1 0x0 REVERT JUMPDEST POP POP POP POP PUSH1 0x40 MLOAD RETURNDATASIZE PUSH1 0x1F NOT PUSH1 0x1F DUP3 ADD AND DUP3 ADD DUP1 PUSH1 0x40 MSTORE POP DUP2 ADD SWAP1 PUSH2 0x3F5 SWAP2 SWAP1 PUSH2 0x8A7 JUMP JUMPDEST DUP2 MSTORE PUSH1 0x20 ADD DUP3 ISZERO ISZERO DUP2 MSTORE PUSH1 0x20 ADD PUSH1 0x1 ISZERO ISZERO DUP2 MSTORE POP PUSH1 0x6 PUSH1 0x0 PUSH1 0x1 PUSH1 0x0 SWAP1 SLOAD SWAP1 PUSH2 0x100 EXP SWAP1 DIV PUSH20 0xFFFFFFFFFFFFFFFFFFFFFFFFFFFFFFFFFFFFFFFF AND PUSH20 0xFFFFFFFFFFFFFFFFFFFFFFFFFFFFFFFFFFFFFFFF AND PUSH20 0xFFFFFFFFFFFFFFFFFFFFFFFFFFFFFFFFFFFFFFFF AND DUP2 MSTORE PUSH1 0x20 ADD SWAP1 DUP2 MSTORE PUSH1 0x20 ADD PUSH1 0x0 KECCAK256 PUSH1 0x0 DUP3 ADD MLOAD DUP2 PUSH1 0x0 ADD PUSH1 0x0 PUSH2 0x100 EXP DUP2 SLOAD DUP2 PUSH20 0xFFFFFFFFFFFFFFFFFFFFFFFFFFFFFFFFFFFFFFFF MUL NOT AND SWAP1 DUP4 PUSH20 0xFFFFFFFFFFFFFFFFFFFFFFFFFFFFFFFFFFFFFFFF AND MUL OR SWAP1 SSTORE POP PUSH1 0x20 DUP3 ADD MLOAD DUP2 PUSH1 0x1 ADD SSTORE PUSH1 0x40 DUP3 ADD MLOAD DUP2 PUSH1 0x2 ADD PUSH1 0x0 PUSH2 0x100 EXP DUP2 SLOAD DUP2 PUSH1 0xFF MUL NOT AND SWAP1 DUP4 ISZERO ISZERO MUL OR SWAP1 SSTORE POP PUSH1 0x60 DUP3 ADD MLOAD DUP2 PUSH1 0x2 ADD PUSH1 0x1 PUSH2 0x100 EXP DUP2 SLOAD DUP2 PUSH1 0xFF MUL NOT AND SWAP1 DUP4 ISZERO ISZERO MUL OR SWAP1 SSTORE POP SWAP1 POP POP PUSH1 0x1 PUSH1 0x3 PUSH1 0x0 DUP3 DUP3 SLOAD PUSH2 0x511 SWAP2 SWAP1 PUSH2 0xA3F JUMP JUMPDEST SWAP3 POP POP DUP2 SWAP1 SSTORE POP PUSH1 0x0 PUSH1 0x1 SWAP1 SLOAD SWAP1 PUSH2 0x100 EXP SWAP1 DIV PUSH20 0xFFFFFFFFFFFFFFFFFFFFFFFFFFFFFFFFFFFFFFFF AND PUSH20 0xFFFFFFFFFFFFFFFFFFFFFFFFFFFFFFFFFFFFFFFF AND PUSH4 0x23B872DD PUSH1 0x1 PUSH1 0x0 SWAP1 SLOAD SWAP1 PUSH2 0x100 EXP SWAP1 DIV PUSH20 0xFFFFFFFFFFFFFFFFFFFFFFFFFFFFFFFFFFFFFFFF AND ADDRESS PUSH9 0x1158E460913D00000 PUSH1 0x40 MLOAD DUP5 PUSH4 0xFFFFFFFF AND PUSH1 0xE0 SHL DUP2 MSTORE PUSH1 0x4 ADD PUSH2 0x5A2 SWAP4 SWAP3 SWAP2 SWAP1 PUSH2 0x949 JUMP JUMPDEST PUSH1 0x20 PUSH1 0x40 MLOAD DUP1 DUP4 SUB DUP2 PUSH1 0x0 DUP8 DUP1 EXTCODESIZE ISZERO DUP1 ISZERO PUSH2 0x5BC JUMPI PUSH1 0x0 DUP1 REVERT JUMPDEST POP GAS CALL ISZERO DUP1 ISZERO PUSH2 0x5D0 JUMPI RETURNDATASIZE PUSH1 0x0 DUP1 RETURNDATACOPY RETURNDATASIZE PUSH1 0x0 REVERT JUMPDEST POP POP POP POP PUSH1 0x40 MLOAD RETURNDATASIZE PUSH1 0x1F NOT PUSH1 0x1F DUP3 ADD AND DUP3 ADD DUP1 PUSH1 0x40 MSTORE POP DUP2 ADD SWAP1 PUSH2 0x5F4 SWAP2 SWAP1 PUSH2 0x87A JUMP JUMPDEST POP JUMPDEST POP JUMP JUMPDEST PUSH1 0x0 PUSH1 0x1 SWAP1 SLOAD SWAP1 PUSH2 0x100 EXP SWAP1 DIV PUSH20 0xFFFFFFFFFFFFFFFFFFFFFFFFFFFFFFFFFFFFFFFF AND PUSH20 0xFFFFFFFFFFFFFFFFFFFFFFFFFFFFFFFFFFFFFFFF AND PUSH4 0x70A08231 ADDRESS PUSH1 0x40 MLOAD DUP3 PUSH4 0xFFFFFFFF AND PUSH1 0xE0 SHL DUP2 MSTORE PUSH1 0x4 ADD PUSH2 0x654 SWAP2 SWAP1 PUSH2 0x92E JUMP JUMPDEST PUSH1 0x20 PUSH1 0x40 MLOAD DUP1 DUP4 SUB DUP2 DUP7 DUP1 EXTCODESIZE ISZERO DUP1 ISZERO PUSH2 0x66C JUMPI PUSH1 0x0 DUP1 REVERT JUMPDEST POP GAS STATICCALL ISZERO DUP1 ISZERO PUSH2 0x680 JUMPI RETURNDATASIZE PUSH1 0x0 DUP1 RETURNDATACOPY RETURNDATASIZE PUSH1 0x0 REVERT JUMPDEST POP POP POP POP PUSH1 0x40 MLOAD RETURNDATASIZE PUSH1 0x1F NOT PUSH1 0x1F DUP3 ADD AND DUP3 ADD DUP1 PUSH1 0x40 MSTORE POP DUP2 ADD SWAP1 PUSH2 0x6A4 SWAP2 SWAP1 PUSH2 0x8A7 JUMP JUMPDEST PUSH1 0x5 DUP2 SWAP1 SSTORE POP PUSH1 0x0 PUSH1 0x1 SWAP1 SLOAD SWAP1 PUSH2 0x100 EXP SWAP1 DIV PUSH20 0xFFFFFFFFFFFFFFFFFFFFFFFFFFFFFFFFFFFFFFFF AND PUSH20 0xFFFFFFFFFFFFFFFFFFFFFFFFFFFFFFFFFFFFFFFF AND PUSH4 0xA9059CBB PUSH1 0x2 PUSH1 0x0 SWAP1 SLOAD SWAP1 PUSH2 0x100 EXP SWAP1 DIV PUSH20 0xFFFFFFFFFFFFFFFFFFFFFFFFFFFFFFFFFFFFFFFF AND PUSH1 0x5 SLOAD PUSH1 0x40 MLOAD DUP4 PUSH4 0xFFFFFFFF AND PUSH1 0xE0 SHL DUP2 MSTORE PUSH1 0x4 ADD PUSH2 0x72B SWAP3 SWAP2 SWAP1 PUSH2 0x980 JUMP JUMPDEST PUSH1 0x20 PUSH1 0x40 MLOAD DUP1 DUP4 SUB DUP2 PUSH1 0x0 DUP8 DUP1 EXTCODESIZE ISZERO DUP1 ISZERO PUSH2 0x745 JUMPI PUSH1 0x0 DUP1 REVERT JUMPDEST POP GAS CALL ISZERO DUP1 ISZERO PUSH2 0x759 JUMPI RETURNDATASIZE PUSH1 0x0 DUP1 RETURNDATACOPY RETURNDATASIZE PUSH1 0x0 REVERT JUMPDEST POP POP POP POP PUSH1 0x40 MLOAD RETURNDATASIZE PUSH1 0x1F NOT PUSH1 0x1F DUP3 ADD AND DUP3 ADD DUP1 PUSH1 0x40 MSTORE POP DUP2 ADD SWAP1 PUSH2 0x77D SWAP2 SWAP1 PUSH2 0x87A JUMP JUMPDEST POP JUMP JUMPDEST PUSH1 0x2 PUSH1 0x0 SWAP1 SLOAD SWAP1 PUSH2 0x100 EXP SWAP1 DIV PUSH20 0xFFFFFFFFFFFFFFFFFFFFFFFFFFFFFFFFFFFFFFFF AND DUP2 JUMP JUMPDEST PUSH1 0x0 PUSH1 0x1 SWAP1 SLOAD SWAP1 PUSH2 0x100 EXP SWAP1 DIV PUSH20 0xFFFFFFFFFFFFFFFFFFFFFFFFFFFFFFFFFFFFFFFF AND DUP2 JUMP JUMPDEST PUSH1 0x0 DUP2 CALLDATALOAD SWAP1 POP PUSH2 0x7DB DUP2 PUSH2 0xBAF JUMP JUMPDEST SWAP3 SWAP2 POP POP JUMP JUMPDEST PUSH1 0x0 DUP2 CALLDATALOAD SWAP1 POP PUSH2 0x7F0 DUP2 PUSH2 0xBC6 JUMP JUMPDEST SWAP3 SWAP2 POP POP JUMP JUMPDEST PUSH1 0x0 DUP2 MLOAD SWAP1 POP PUSH2 0x805 DUP2 PUSH2 0xBC6 JUMP JUMPDEST SWAP3 SWAP2 POP POP JUMP JUMPDEST PUSH1 0x0 DUP2 MLOAD SWAP1 POP PUSH2 0x81A DUP2 PUSH2 0xBDD JUMP JUMPDEST SWAP3 SWAP2 POP POP JUMP JUMPDEST PUSH1 0x0 PUSH1 0x20 DUP3 DUP5 SUB SLT ISZERO PUSH2 0x836 JUMPI PUSH2 0x835 PUSH2 0xB96 JUMP JUMPDEST JUMPDEST PUSH1 0x0 PUSH2 0x844 DUP5 DUP3 DUP6 ADD PUSH2 0x7CC JUMP JUMPDEST SWAP2 POP POP SWAP3 SWAP2 POP POP JUMP JUMPDEST PUSH1 0x0 PUSH1 0x20 DUP3 DUP5 SUB SLT ISZERO PUSH2 0x863 JUMPI PUSH2 0x862 PUSH2 0xB96 JUMP JUMPDEST JUMPDEST PUSH1 0x0 PUSH2 0x871 DUP5 DUP3 DUP6 ADD PUSH2 0x7E1 JUMP JUMPDEST SWAP2 POP POP SWAP3 SWAP2 POP POP JUMP JUMPDEST PUSH1 0x0 PUSH1 0x20 DUP3 DUP5 SUB SLT ISZERO PUSH2 0x890 JUMPI PUSH2 0x88F PUSH2 0xB96 JUMP JUMPDEST JUMPDEST PUSH1 0x0 PUSH2 0x89E DUP5 DUP3 DUP6 ADD PUSH2 0x7F6 JUMP JUMPDEST SWAP2 POP POP SWAP3 SWAP2 POP POP JUMP JUMPDEST PUSH1 0x0 PUSH1 0x20 DUP3 DUP5 SUB SLT ISZERO PUSH2 0x8BD JUMPI PUSH2 0x8BC PUSH2 0xB96 JUMP JUMPDEST JUMPDEST PUSH1 0x0 PUSH2 0x8CB DUP5 DUP3 DUP6 ADD PUSH2 0x80B JUMP JUMPDEST SWAP2 POP POP SWAP3 SWAP2 POP POP JUMP JUMPDEST PUSH2 0x8DD DUP2 PUSH2 0xA95 JUMP JUMPDEST DUP3 MSTORE POP POP JUMP JUMPDEST PUSH2 0x8EC DUP2 PUSH2 0xAA7 JUMP JUMPDEST DUP3 MSTORE POP POP JUMP JUMPDEST PUSH2 0x8FB DUP2 PUSH2 0xAF0 JUMP JUMPDEST DUP3 MSTORE POP POP JUMP JUMPDEST PUSH2 0x90A DUP2 PUSH2 0xB14 JUMP JUMPDEST DUP3 MSTORE POP POP JUMP JUMPDEST PUSH2 0x919 DUP2 PUSH2 0xB26 JUMP JUMPDEST DUP3 MSTORE POP POP JUMP JUMPDEST PUSH2 0x928 DUP2 PUSH2 0xAE6 JUMP JUMPDEST DUP3 MSTORE POP POP JUMP JUMPDEST PUSH1 0x0 PUSH1 0x20 DUP3 ADD SWAP1 POP PUSH2 0x943 PUSH1 0x0 DUP4 ADD DUP5 PUSH2 0x8D4 JUMP JUMPDEST SWAP3 SWAP2 POP POP JUMP JUMPDEST PUSH1 0x0 PUSH1 0x60 DUP3 ADD SWAP1 POP PUSH2 0x95E PUSH1 0x0 DUP4 ADD DUP7 PUSH2 0x8D4 JUMP JUMPDEST PUSH2 0x96B PUSH1 0x20 DUP4 ADD DUP6 PUSH2 0x8D4 JUMP JUMPDEST PUSH2 0x978 PUSH1 0x40 DUP4 ADD DUP5 PUSH2 0x910 JUMP JUMPDEST SWAP5 SWAP4 POP POP POP POP JUMP JUMPDEST PUSH1 0x0 PUSH1 0x40 DUP3 ADD SWAP1 POP PUSH2 0x995 PUSH1 0x0 DUP4 ADD DUP6 PUSH2 0x8D4 JUMP JUMPDEST PUSH2 0x9A2 PUSH1 0x20 DUP4 ADD DUP5 PUSH2 0x91F JUMP JUMPDEST SWAP4 SWAP3 POP POP POP JUMP JUMPDEST PUSH1 0x0 PUSH1 0x80 DUP3 ADD SWAP1 POP PUSH2 0x9BE PUSH1 0x0 DUP4 ADD DUP8 PUSH2 0x8D4 JUMP JUMPDEST PUSH2 0x9CB PUSH1 0x20 DUP4 ADD DUP7 PUSH2 0x91F JUMP JUMPDEST PUSH2 0x9D8 PUSH1 0x40 DUP4 ADD DUP6 PUSH2 0x8E3 JUMP JUMPDEST PUSH2 0x9E5 PUSH1 0x60 DUP4 ADD DUP5 PUSH2 0x8E3 JUMP JUMPDEST SWAP6 SWAP5 POP POP POP POP POP JUMP JUMPDEST PUSH1 0x0 PUSH1 0x20 DUP3 ADD SWAP1 POP PUSH2 0xA03 PUSH1 0x0 DUP4 ADD DUP5 PUSH2 0x8F2 JUMP JUMPDEST SWAP3 SWAP2 POP POP JUMP JUMPDEST PUSH1 0x0 PUSH1 0x20 DUP3 ADD SWAP1 POP PUSH2 0xA1E PUSH1 0x0 DUP4 ADD DUP5 PUSH2 0x901 JUMP JUMPDEST SWAP3 SWAP2 POP POP JUMP JUMPDEST PUSH1 0x0 PUSH1 0x20 DUP3 ADD SWAP1 POP PUSH2 0xA39 PUSH1 0x0 DUP4 ADD DUP5 PUSH2 0x91F JUMP JUMPDEST SWAP3 SWAP2 POP POP JUMP JUMPDEST PUSH1 0x0 PUSH2 0xA4A DUP3 PUSH2 0xAE6 JUMP JUMPDEST SWAP2 POP PUSH2 0xA55 DUP4 PUSH2 0xAE6 JUMP JUMPDEST SWAP3 POP DUP3 PUSH32 0xFFFFFFFFFFFFFFFFFFFFFFFFFFFFFFFFFFFFFFFFFFFFFFFFFFFFFFFFFFFFFFFF SUB DUP3 GT ISZERO PUSH2 0xA8A JUMPI PUSH2 0xA89 PUSH2 0xB38 JUMP JUMPDEST JUMPDEST DUP3 DUP3 ADD SWAP1 POP SWAP3 SWAP2 POP POP JUMP JUMPDEST PUSH1 0x0 PUSH2 0xAA0 DUP3 PUSH2 0xAC6 JUMP JUMPDEST SWAP1 POP SWAP2 SWAP1 POP JUMP JUMPDEST PUSH1 0x0 DUP2 ISZERO ISZERO SWAP1 POP SWAP2 SWAP1 POP JUMP JUMPDEST PUSH1 0x0 DUP2 SWAP1 POP PUSH2 0xAC1 DUP3 PUSH2 0xB9B JUMP JUMPDEST SWAP2 SWAP1 POP JUMP JUMPDEST PUSH1 0x0 PUSH20 0xFFFFFFFFFFFFFFFFFFFFFFFFFFFFFFFFFFFFFFFF DUP3 AND SWAP1 POP SWAP2 SWAP1 POP JUMP JUMPDEST PUSH1 0x0 DUP2 SWAP1 POP SWAP2 SWAP1 POP JUMP JUMPDEST PUSH1 0x0 PUSH2 0xAFB DUP3 PUSH2 0xB02 JUMP JUMPDEST SWAP1 POP SWAP2 SWAP1 POP JUMP JUMPDEST PUSH1 0x0 PUSH2 0xB0D DUP3 PUSH2 0xAC6 JUMP JUMPDEST SWAP1 POP SWAP2 SWAP1 POP JUMP JUMPDEST PUSH1 0x0 PUSH2 0xB1F DUP3 PUSH2 0xAB3 JUMP JUMPDEST SWAP1 POP SWAP2 SWAP1 POP JUMP JUMPDEST PUSH1 0x0 PUSH2 0xB31 DUP3 PUSH2 0xAE6 JUMP JUMPDEST SWAP1 POP SWAP2 SWAP1 POP JUMP JUMPDEST PUSH32 0x4E487B7100000000000000000000000000000000000000000000000000000000 PUSH1 0x0 MSTORE PUSH1 0x11 PUSH1 0x4 MSTORE PUSH1 0x24 PUSH1 0x0 REVERT JUMPDEST PUSH32 0x4E487B7100000000000000000000000000000000000000000000000000000000 PUSH1 0x0 MSTORE PUSH1 0x21 PUSH1 0x4 MSTORE PUSH1 0x24 PUSH1 0x0 REVERT JUMPDEST PUSH1 0x0 DUP1 REVERT JUMPDEST PUSH1 0x3 DUP2 LT PUSH2 0xBAC JUMPI PUSH2 0xBAB PUSH2 0xB67 JUMP JUMPDEST JUMPDEST POP JUMP JUMPDEST PUSH2 0xBB8 DUP2 PUSH2 0xA95 JUMP JUMPDEST DUP2 EQ PUSH2 0xBC3 JUMPI PUSH1 0x0 DUP1 REVERT JUMPDEST POP JUMP JUMPDEST PUSH2 0xBCF DUP2 PUSH2 0xAA7 JUMP JUMPDEST DUP2 EQ PUSH2 0xBDA JUMPI PUSH1 0x0 DUP1 REVERT JUMPDEST POP JUMP JUMPDEST PUSH2 0xBE6 DUP2 PUSH2 0xAE6 JUMP JUMPDEST DUP2 EQ PUSH2 0xBF1 JUMPI PUSH1 0x0 DUP1 REVERT JUMPDEST POP JUMP INVALID LOG2 PUSH5 0x6970667358 0x22 SLT KECCAK256 0xAC 0xD3 SSTORE PUSH30 0x32FD163D29945A4CCBD9046FB21EA4EEDF3FAA702DE50A3899C062C96473 PUSH16 0x6C634300080600330000000000000000 "
				},
				"gasEstimates": {
					"creation": {
						"codeDepositCost": "622800",
						"executionCost": "infinite",
						"totalCost": "infinite"
					},
					"external": {
						"count()": "2430",
						"onClick(bool)": "infinite",
						"participantAddress()": "2603",
						"participants(address)": "infinite",
						"state()": "2579",
						"token()": "2717",
						"totalPrize()": "2429",
						"unlockPeriod()": "2474",
						"winner()": "infinite",
						"winnerAddress()": "2602",
						"withdrawPrize()": "211"
					}
				},
				"methodIdentifiers": {
					"count()": "06661abd",
					"onClick(bool)": "d45dcca0",
					"participantAddress()": "59ff6ba8",
					"participants(address)": "09e69ede",
					"state()": "c19d93fb",
					"token()": "fc0c546a",
					"totalPrize()": "82b1ad50",
					"unlockPeriod()": "20d3a0b4",
					"winner()": "dfbf53ae",
					"winnerAddress()": "ed7a4e0b",
					"withdrawPrize()": "48d37a58"
				}
			},
			"storageLayout": {
				"storage": [
					{
						"astId": 1735,
						"contract": "contracts/Button.sol:Button",
						"label": "state",
						"offset": 0,
						"slot": "0",
						"type": "t_enum(State)1732"
					},
					{
						"astId": 1747,
						"contract": "contracts/Button.sol:Button",
						"label": "token",
						"offset": 1,
						"slot": "0",
						"type": "t_contract(TestToken)1890"
					},
					{
						"astId": 1749,
						"contract": "contracts/Button.sol:Button",
						"label": "participantAddress",
						"offset": 0,
						"slot": "1",
						"type": "t_address"
					},
					{
						"astId": 1751,
						"contract": "contracts/Button.sol:Button",
						"label": "winnerAddress",
						"offset": 0,
						"slot": "2",
						"type": "t_address"
					},
					{
						"astId": 1753,
						"contract": "contracts/Button.sol:Button",
						"label": "count",
						"offset": 0,
						"slot": "3",
						"type": "t_uint256"
					},
					{
						"astId": 1755,
						"contract": "contracts/Button.sol:Button",
						"label": "unlockPeriod",
						"offset": 0,
						"slot": "4",
						"type": "t_uint256"
					},
					{
						"astId": 1757,
						"contract": "contracts/Button.sol:Button",
						"label": "totalPrize",
						"offset": 0,
						"slot": "5",
						"type": "t_uint256"
					},
					{
						"astId": 1762,
						"contract": "contracts/Button.sol:Button",
						"label": "participants",
						"offset": 0,
						"slot": "6",
						"type": "t_mapping(t_address,t_struct(Participant)1744_storage)"
					}
				],
				"types": {
					"t_address": {
						"encoding": "inplace",
						"label": "address",
						"numberOfBytes": "20"
					},
					"t_bool": {
						"encoding": "inplace",
						"label": "bool",
						"numberOfBytes": "1"
					},
					"t_contract(TestToken)1890": {
						"encoding": "inplace",
						"label": "contract TestToken",
						"numberOfBytes": "20"
					},
					"t_enum(State)1732": {
						"encoding": "inplace",
						"label": "enum Button.State",
						"numberOfBytes": "1"
					},
					"t_mapping(t_address,t_struct(Participant)1744_storage)": {
						"encoding": "mapping",
						"key": "t_address",
						"label": "mapping(address => struct Button.Participant)",
						"numberOfBytes": "32",
						"value": "t_struct(Participant)1744_storage"
					},
					"t_struct(Participant)1744_storage": {
						"encoding": "inplace",
						"label": "struct Button.Participant",
						"members": [
							{
								"astId": 1737,
								"contract": "contracts/Button.sol:Button",
								"label": "pAddress",
								"offset": 0,
								"slot": "0",
								"type": "t_address"
							},
							{
								"astId": 1739,
								"contract": "contracts/Button.sol:Button",
								"label": "balance",
								"offset": 0,
								"slot": "1",
								"type": "t_uint256"
							},
							{
								"astId": 1741,
								"contract": "contracts/Button.sol:Button",
								"label": "choice",
								"offset": 0,
								"slot": "2",
								"type": "t_bool"
							},
							{
								"astId": 1743,
								"contract": "contracts/Button.sol:Button",
								"label": "isLeader",
								"offset": 1,
								"slot": "2",
								"type": "t_bool"
							}
						],
						"numberOfBytes": "96"
					},
					"t_uint256": {
						"encoding": "inplace",
						"label": "uint256",
						"numberOfBytes": "32"
					}
				}
			},
			"userdoc": {
				"kind": "user",
				"methods": {},
				"version": 1
			}
		}
	}
}