{
	"contracts/Button.sol": {
		"Button": {
			"abi": [
				{
					"inputs": [],
					"name": "count",
					"outputs": [
						{
							"internalType": "uint256",
							"name": "",
							"type": "uint256"
						}
					],
					"stateMutability": "view",
					"type": "function"
				},
				{
					"inputs": [
						{
							"internalType": "bool",
							"name": "_choice",
							"type": "bool"
						}
					],
					"name": "onClick",
					"outputs": [],
					"stateMutability": "nonpayable",
					"type": "function"
				},
				{
					"inputs": [],
					"name": "participantAddress",
					"outputs": [
						{
							"internalType": "address",
							"name": "",
							"type": "address"
						}
					],
					"stateMutability": "view",
					"type": "function"
				},
				{
					"inputs": [
						{
							"internalType": "address",
							"name": "",
							"type": "address"
						}
					],
					"name": "participants",
					"outputs": [
						{
							"internalType": "uint256",
							"name": "balance",
							"type": "uint256"
						},
						{
							"internalType": "bool",
							"name": "choice",
							"type": "bool"
						},
						{
							"internalType": "bool",
							"name": "isLeader",
							"type": "bool"
						}
					],
					"stateMutability": "view",
					"type": "function"
				},
				{
					"inputs": [],
					"name": "state",
					"outputs": [
						{
							"internalType": "enum Button.State",
							"name": "",
							"type": "uint8"
						}
					],
					"stateMutability": "view",
					"type": "function"
				}
			],
			"devdoc": {
				"kind": "dev",
				"methods": {},
				"version": 1
			},
			"evm": {
				"assembly": "    /* \"contracts/Button.sol\":154:1013  contract Button {... */\n  mstore(0x40, 0x80)\n  callvalue\n  dup1\n  iszero\n  tag_1\n  jumpi\n  0x00\n  dup1\n  revert\ntag_1:\n  pop\n  dataSize(sub_0)\n  dup1\n  dataOffset(sub_0)\n  0x00\n  codecopy\n  0x00\n  return\nstop\n\nsub_0: assembly {\n        /* \"contracts/Button.sol\":154:1013  contract Button {... */\n      mstore(0x40, 0x80)\n      callvalue\n      dup1\n      iszero\n      tag_1\n      jumpi\n      0x00\n      dup1\n      revert\n    tag_1:\n      pop\n      jumpi(tag_2, lt(calldatasize, 0x04))\n      shr(0xe0, calldataload(0x00))\n      dup1\n      0x06661abd\n      eq\n      tag_3\n      jumpi\n      dup1\n      0x09e69ede\n      eq\n      tag_4\n      jumpi\n      dup1\n      0x59ff6ba8\n      eq\n      tag_5\n      jumpi\n      dup1\n      0xc19d93fb\n      eq\n      tag_6\n      jumpi\n      dup1\n      0xd45dcca0\n      eq\n      tag_7\n      jumpi\n    tag_2:\n      0x00\n      dup1\n      revert\n        /* \"contracts/Button.sol\":533:553  uint256 public count */\n    tag_3:\n      tag_8\n      tag_9\n      jump\t// in\n    tag_8:\n      mload(0x40)\n      tag_10\n      swap2\n      swap1\n      tag_11\n      jump\t// in\n    tag_10:\n      mload(0x40)\n      dup1\n      swap2\n      sub\n      swap1\n      return\n        /* \"contracts/Button.sol\":574:625  mapping(address => Participant) public participants */\n    tag_4:\n      tag_12\n      0x04\n      dup1\n      calldatasize\n      sub\n      dup2\n      add\n      swap1\n      tag_13\n      swap2\n      swap1\n      tag_14\n      jump\t// in\n    tag_13:\n      tag_15\n      jump\t// in\n    tag_12:\n      mload(0x40)\n      tag_16\n      swap4\n      swap3\n      swap2\n      swap1\n      tag_17\n      jump\t// in\n    tag_16:\n      mload(0x40)\n      dup1\n      swap2\n      sub\n      swap1\n      return\n        /* \"contracts/Button.sol\":494:527  address public participantAddress */\n    tag_5:\n      tag_18\n      tag_19\n      jump\t// in\n    tag_18:\n      mload(0x40)\n      tag_20\n      swap2\n      swap1\n      tag_21\n      jump\t// in\n    tag_20:\n      mload(0x40)\n      dup1\n      swap2\n      sub\n      swap1\n      return\n        /* \"contracts/Button.sol\":297:315  State public state */\n    tag_6:\n      tag_22\n      tag_23\n      jump\t// in\n    tag_22:\n      mload(0x40)\n      tag_24\n      swap2\n      swap1\n      tag_25\n      jump\t// in\n    tag_24:\n      mload(0x40)\n      dup1\n      swap2\n      sub\n      swap1\n      return\n        /* \"contracts/Button.sol\":756:1011  function onClick(bool _choice) public {... */\n    tag_7:\n      tag_26\n      0x04\n      dup1\n      calldatasize\n      sub\n      dup2\n      add\n      swap1\n      tag_27\n      swap2\n      swap1\n      tag_28\n      jump\t// in\n    tag_27:\n      tag_29\n      jump\t// in\n    tag_26:\n      stop\n        /* \"contracts/Button.sol\":533:553  uint256 public count */\n    tag_9:\n      sload(0x01)\n      dup2\n      jump\t// out\n        /* \"contracts/Button.sol\":574:625  mapping(address => Participant) public participants */\n    tag_15:\n      mstore(0x20, 0x02)\n      dup1\n      0x00\n      mstore\n      keccak256(0x00, 0x40)\n      0x00\n      swap2\n      pop\n      swap1\n      pop\n      dup1\n      0x00\n      add\n      sload\n      swap1\n      dup1\n      0x01\n      add\n      0x00\n      swap1\n      sload\n      swap1\n      0x0100\n      exp\n      swap1\n      div\n      0xff\n      and\n      swap1\n      dup1\n      0x01\n      add\n      0x01\n      swap1\n      sload\n      swap1\n      0x0100\n      exp\n      swap1\n      div\n      0xff\n      and\n      swap1\n      pop\n      dup4\n      jump\t// out\n        /* \"contracts/Button.sol\":494:527  address public participantAddress */\n    tag_19:\n      0x00\n      0x01\n      swap1\n      sload\n      swap1\n      0x0100\n      exp\n      swap1\n      div\n      0xffffffffffffffffffffffffffffffffffffffff\n      and\n      dup2\n      jump\t// out\n        /* \"contracts/Button.sol\":297:315  State public state */\n    tag_23:\n      0x00\n      dup1\n      sload\n      swap1\n      0x0100\n      exp\n      swap1\n      div\n      0xff\n      and\n      dup2\n      jump\t// out\n        /* \"contracts/Button.sol\":756:1011  function onClick(bool _choice) public {... */\n    tag_29:\n        /* \"contracts/Button.sol\":825:835  msg.sender */\n      caller\n        /* \"contracts/Button.sol\":804:822  participantAddress */\n      0x00\n      0x01\n        /* \"contracts/Button.sol\":804:835  participantAddress = msg.sender */\n      0x0100\n      exp\n      dup2\n      sload\n      dup2\n      0xffffffffffffffffffffffffffffffffffffffff\n      mul\n      not\n      and\n      swap1\n      dup4\n      0xffffffffffffffffffffffffffffffffffffffff\n      and\n      mul\n      or\n      swap1\n      sstore\n      pop\n        /* \"contracts/Button.sol\":845:865  Participant memory p */\n      tag_31\n      tag_32\n      jump\t// in\n    tag_31:\n        /* \"contracts/Button.sol\":912:919  _choice */\n      dup2\n        /* \"contracts/Button.sol\":901:902  p */\n      dup2\n        /* \"contracts/Button.sol\":901:909  p.choice */\n      0x20\n      add\n        /* \"contracts/Button.sol\":901:919  p.choice = _choice */\n      swap1\n      iszero\n      iszero\n      swap1\n      dup2\n      iszero\n      iszero\n      dup2\n      mstore\n      pop\n      pop\n        /* \"contracts/Button.sol\":933:940  _choice */\n      dup2\n        /* \"contracts/Button.sol\":929:1005  if (_choice) {... */\n      iszero\n      tag_33\n      jumpi\n        /* \"contracts/Button.sol\":969:973  true */\n      0x01\n        /* \"contracts/Button.sol\":956:957  p */\n      dup2\n        /* \"contracts/Button.sol\":956:966  p.isLeader */\n      0x40\n      add\n        /* \"contracts/Button.sol\":956:973  p.isLeader = true */\n      swap1\n      iszero\n      iszero\n      swap1\n      dup2\n      iszero\n      iszero\n      dup2\n      mstore\n      pop\n      pop\n        /* \"contracts/Button.sol\":987:992  count */\n      0x01\n      0x00\n        /* \"contracts/Button.sol\":987:994  count++ */\n      dup2\n      sload\n      dup1\n      swap3\n      swap2\n      swap1\n      tag_34\n      swap1\n      tag_35\n      jump\t// in\n    tag_34:\n      swap2\n      swap1\n      pop\n      sstore\n      pop\n        /* \"contracts/Button.sol\":929:1005  if (_choice) {... */\n    tag_33:\n        /* \"contracts/Button.sol\":794:1011  {... */\n      pop\n        /* \"contracts/Button.sol\":756:1011  function onClick(bool _choice) public {... */\n      pop\n      jump\t// out\n    tag_32:\n      mload(0x40)\n      dup1\n      0x60\n      add\n      0x40\n      mstore\n      dup1\n      0x00\n      dup2\n      mstore\n      0x20\n      add\n      iszero(iszero(0x00))\n      dup2\n      mstore\n      0x20\n      add\n      iszero(iszero(0x00))\n      dup2\n      mstore\n      pop\n      swap1\n      jump\t// out\n        /* \"#utility.yul\":7:146   */\n    tag_37:\n        /* \"#utility.yul\":53:58   */\n      0x00\n        /* \"#utility.yul\":91:97   */\n      dup2\n        /* \"#utility.yul\":78:98   */\n      calldataload\n        /* \"#utility.yul\":69:98   */\n      swap1\n      pop\n        /* \"#utility.yul\":107:140   */\n      tag_39\n        /* \"#utility.yul\":134:139   */\n      dup2\n        /* \"#utility.yul\":107:140   */\n      tag_40\n      jump\t// in\n    tag_39:\n        /* \"#utility.yul\":59:146   */\n      swap3\n      swap2\n      pop\n      pop\n      jump\t// out\n        /* \"#utility.yul\":152:285   */\n    tag_41:\n        /* \"#utility.yul\":195:200   */\n      0x00\n        /* \"#utility.yul\":233:239   */\n      dup2\n        /* \"#utility.yul\":220:240   */\n      calldataload\n        /* \"#utility.yul\":211:240   */\n      swap1\n      pop\n        /* \"#utility.yul\":249:279   */\n      tag_43\n        /* \"#utility.yul\":273:278   */\n      dup2\n        /* \"#utility.yul\":249:279   */\n      tag_44\n      jump\t// in\n    tag_43:\n        /* \"#utility.yul\":201:285   */\n      swap3\n      swap2\n      pop\n      pop\n      jump\t// out\n        /* \"#utility.yul\":291:620   */\n    tag_14:\n        /* \"#utility.yul\":350:356   */\n      0x00\n        /* \"#utility.yul\":399:401   */\n      0x20\n        /* \"#utility.yul\":387:396   */\n      dup3\n        /* \"#utility.yul\":378:385   */\n      dup5\n        /* \"#utility.yul\":374:397   */\n      sub\n        /* \"#utility.yul\":370:402   */\n      slt\n        /* \"#utility.yul\":367:369   */\n      iszero\n      tag_46\n      jumpi\n        /* \"#utility.yul\":405:484   */\n      tag_47\n      tag_48\n      jump\t// in\n    tag_47:\n        /* \"#utility.yul\":367:369   */\n    tag_46:\n        /* \"#utility.yul\":525:526   */\n      0x00\n        /* \"#utility.yul\":550:603   */\n      tag_49\n        /* \"#utility.yul\":595:602   */\n      dup5\n        /* \"#utility.yul\":586:592   */\n      dup3\n        /* \"#utility.yul\":575:584   */\n      dup6\n        /* \"#utility.yul\":571:593   */\n      add\n        /* \"#utility.yul\":550:603   */\n      tag_37\n      jump\t// in\n    tag_49:\n        /* \"#utility.yul\":540:603   */\n      swap2\n      pop\n        /* \"#utility.yul\":496:613   */\n      pop\n        /* \"#utility.yul\":357:620   */\n      swap3\n      swap2\n      pop\n      pop\n      jump\t// out\n        /* \"#utility.yul\":626:949   */\n    tag_28:\n        /* \"#utility.yul\":682:688   */\n      0x00\n        /* \"#utility.yul\":731:733   */\n      0x20\n        /* \"#utility.yul\":719:728   */\n      dup3\n        /* \"#utility.yul\":710:717   */\n      dup5\n        /* \"#utility.yul\":706:729   */\n      sub\n        /* \"#utility.yul\":702:734   */\n      slt\n        /* \"#utility.yul\":699:701   */\n      iszero\n      tag_51\n      jumpi\n        /* \"#utility.yul\":737:816   */\n      tag_52\n      tag_48\n      jump\t// in\n    tag_52:\n        /* \"#utility.yul\":699:701   */\n    tag_51:\n        /* \"#utility.yul\":857:858   */\n      0x00\n        /* \"#utility.yul\":882:932   */\n      tag_53\n        /* \"#utility.yul\":924:931   */\n      dup5\n        /* \"#utility.yul\":915:921   */\n      dup3\n        /* \"#utility.yul\":904:913   */\n      dup6\n        /* \"#utility.yul\":900:922   */\n      add\n        /* \"#utility.yul\":882:932   */\n      tag_41\n      jump\t// in\n    tag_53:\n        /* \"#utility.yul\":872:932   */\n      swap2\n      pop\n        /* \"#utility.yul\":828:942   */\n      pop\n        /* \"#utility.yul\":689:949   */\n      swap3\n      swap2\n      pop\n      pop\n      jump\t// out\n        /* \"#utility.yul\":955:1073   */\n    tag_54:\n        /* \"#utility.yul\":1042:1066   */\n      tag_56\n        /* \"#utility.yul\":1060:1065   */\n      dup2\n        /* \"#utility.yul\":1042:1066   */\n      tag_57\n      jump\t// in\n    tag_56:\n        /* \"#utility.yul\":1037:1040   */\n      dup3\n        /* \"#utility.yul\":1030:1067   */\n      mstore\n        /* \"#utility.yul\":1020:1073   */\n      pop\n      pop\n      jump\t// out\n        /* \"#utility.yul\":1079:1188   */\n    tag_58:\n        /* \"#utility.yul\":1160:1181   */\n      tag_60\n        /* \"#utility.yul\":1175:1180   */\n      dup2\n        /* \"#utility.yul\":1160:1181   */\n      tag_61\n      jump\t// in\n    tag_60:\n        /* \"#utility.yul\":1155:1158   */\n      dup3\n        /* \"#utility.yul\":1148:1182   */\n      mstore\n        /* \"#utility.yul\":1138:1188   */\n      pop\n      pop\n      jump\t// out\n        /* \"#utility.yul\":1194:1339   */\n    tag_62:\n        /* \"#utility.yul\":1288:1332   */\n      tag_64\n        /* \"#utility.yul\":1326:1331   */\n      dup2\n        /* \"#utility.yul\":1288:1332   */\n      tag_65\n      jump\t// in\n    tag_64:\n        /* \"#utility.yul\":1283:1286   */\n      dup3\n        /* \"#utility.yul\":1276:1333   */\n      mstore\n        /* \"#utility.yul\":1266:1339   */\n      pop\n      pop\n      jump\t// out\n        /* \"#utility.yul\":1345:1463   */\n    tag_66:\n        /* \"#utility.yul\":1432:1456   */\n      tag_68\n        /* \"#utility.yul\":1450:1455   */\n      dup2\n        /* \"#utility.yul\":1432:1456   */\n      tag_69\n      jump\t// in\n    tag_68:\n        /* \"#utility.yul\":1427:1430   */\n      dup3\n        /* \"#utility.yul\":1420:1457   */\n      mstore\n        /* \"#utility.yul\":1410:1463   */\n      pop\n      pop\n      jump\t// out\n        /* \"#utility.yul\":1469:1691   */\n    tag_21:\n        /* \"#utility.yul\":1562:1566   */\n      0x00\n        /* \"#utility.yul\":1600:1602   */\n      0x20\n        /* \"#utility.yul\":1589:1598   */\n      dup3\n        /* \"#utility.yul\":1585:1603   */\n      add\n        /* \"#utility.yul\":1577:1603   */\n      swap1\n      pop\n        /* \"#utility.yul\":1613:1684   */\n      tag_71\n        /* \"#utility.yul\":1681:1682   */\n      0x00\n        /* \"#utility.yul\":1670:1679   */\n      dup4\n        /* \"#utility.yul\":1666:1683   */\n      add\n        /* \"#utility.yul\":1657:1663   */\n      dup5\n        /* \"#utility.yul\":1613:1684   */\n      tag_54\n      jump\t// in\n    tag_71:\n        /* \"#utility.yul\":1567:1691   */\n      swap3\n      swap2\n      pop\n      pop\n      jump\t// out\n        /* \"#utility.yul\":1697:1933   */\n    tag_25:\n        /* \"#utility.yul\":1797:1801   */\n      0x00\n        /* \"#utility.yul\":1835:1837   */\n      0x20\n        /* \"#utility.yul\":1824:1833   */\n      dup3\n        /* \"#utility.yul\":1820:1838   */\n      add\n        /* \"#utility.yul\":1812:1838   */\n      swap1\n      pop\n        /* \"#utility.yul\":1848:1926   */\n      tag_73\n        /* \"#utility.yul\":1923:1924   */\n      0x00\n        /* \"#utility.yul\":1912:1921   */\n      dup4\n        /* \"#utility.yul\":1908:1925   */\n      add\n        /* \"#utility.yul\":1899:1905   */\n      dup5\n        /* \"#utility.yul\":1848:1926   */\n      tag_62\n      jump\t// in\n    tag_73:\n        /* \"#utility.yul\":1802:1933   */\n      swap3\n      swap2\n      pop\n      pop\n      jump\t// out\n        /* \"#utility.yul\":1939:2161   */\n    tag_11:\n        /* \"#utility.yul\":2032:2036   */\n      0x00\n        /* \"#utility.yul\":2070:2072   */\n      0x20\n        /* \"#utility.yul\":2059:2068   */\n      dup3\n        /* \"#utility.yul\":2055:2073   */\n      add\n        /* \"#utility.yul\":2047:2073   */\n      swap1\n      pop\n        /* \"#utility.yul\":2083:2154   */\n      tag_75\n        /* \"#utility.yul\":2151:2152   */\n      0x00\n        /* \"#utility.yul\":2140:2149   */\n      dup4\n        /* \"#utility.yul\":2136:2153   */\n      add\n        /* \"#utility.yul\":2127:2133   */\n      dup5\n        /* \"#utility.yul\":2083:2154   */\n      tag_66\n      jump\t// in\n    tag_75:\n        /* \"#utility.yul\":2037:2161   */\n      swap3\n      swap2\n      pop\n      pop\n      jump\t// out\n        /* \"#utility.yul\":2167:2585   */\n    tag_17:\n        /* \"#utility.yul\":2304:2308   */\n      0x00\n        /* \"#utility.yul\":2342:2344   */\n      0x60\n        /* \"#utility.yul\":2331:2340   */\n      dup3\n        /* \"#utility.yul\":2327:2345   */\n      add\n        /* \"#utility.yul\":2319:2345   */\n      swap1\n      pop\n        /* \"#utility.yul\":2355:2426   */\n      tag_77\n        /* \"#utility.yul\":2423:2424   */\n      0x00\n        /* \"#utility.yul\":2412:2421   */\n      dup4\n        /* \"#utility.yul\":2408:2425   */\n      add\n        /* \"#utility.yul\":2399:2405   */\n      dup7\n        /* \"#utility.yul\":2355:2426   */\n      tag_66\n      jump\t// in\n    tag_77:\n        /* \"#utility.yul\":2436:2502   */\n      tag_78\n        /* \"#utility.yul\":2498:2500   */\n      0x20\n        /* \"#utility.yul\":2487:2496   */\n      dup4\n        /* \"#utility.yul\":2483:2501   */\n      add\n        /* \"#utility.yul\":2474:2480   */\n      dup6\n        /* \"#utility.yul\":2436:2502   */\n      tag_58\n      jump\t// in\n    tag_78:\n        /* \"#utility.yul\":2512:2578   */\n      tag_79\n        /* \"#utility.yul\":2574:2576   */\n      0x40\n        /* \"#utility.yul\":2563:2572   */\n      dup4\n        /* \"#utility.yul\":2559:2577   */\n      add\n        /* \"#utility.yul\":2550:2556   */\n      dup5\n        /* \"#utility.yul\":2512:2578   */\n      tag_58\n      jump\t// in\n    tag_79:\n        /* \"#utility.yul\":2309:2585   */\n      swap5\n      swap4\n      pop\n      pop\n      pop\n      pop\n      jump\t// out\n        /* \"#utility.yul\":2672:2768   */\n    tag_57:\n        /* \"#utility.yul\":2709:2716   */\n      0x00\n        /* \"#utility.yul\":2738:2762   */\n      tag_83\n        /* \"#utility.yul\":2756:2761   */\n      dup3\n        /* \"#utility.yul\":2738:2762   */\n      tag_84\n      jump\t// in\n    tag_83:\n        /* \"#utility.yul\":2727:2762   */\n      swap1\n      pop\n        /* \"#utility.yul\":2717:2768   */\n      swap2\n      swap1\n      pop\n      jump\t// out\n        /* \"#utility.yul\":2774:2864   */\n    tag_61:\n        /* \"#utility.yul\":2808:2815   */\n      0x00\n        /* \"#utility.yul\":2851:2856   */\n      dup2\n        /* \"#utility.yul\":2844:2857   */\n      iszero\n        /* \"#utility.yul\":2837:2858   */\n      iszero\n        /* \"#utility.yul\":2826:2858   */\n      swap1\n      pop\n        /* \"#utility.yul\":2816:2864   */\n      swap2\n      swap1\n      pop\n      jump\t// out\n        /* \"#utility.yul\":2870:2999   */\n    tag_86:\n        /* \"#utility.yul\":2916:2923   */\n      0x00\n        /* \"#utility.yul\":2945:2950   */\n      dup2\n        /* \"#utility.yul\":2934:2950   */\n      swap1\n      pop\n        /* \"#utility.yul\":2951:2993   */\n      tag_88\n        /* \"#utility.yul\":2987:2992   */\n      dup3\n        /* \"#utility.yul\":2951:2993   */\n      tag_89\n      jump\t// in\n    tag_88:\n        /* \"#utility.yul\":2924:2999   */\n      swap2\n      swap1\n      pop\n      jump\t// out\n        /* \"#utility.yul\":3005:3131   */\n    tag_84:\n        /* \"#utility.yul\":3042:3049   */\n      0x00\n        /* \"#utility.yul\":3082:3124   */\n      0xffffffffffffffffffffffffffffffffffffffff\n        /* \"#utility.yul\":3075:3080   */\n      dup3\n        /* \"#utility.yul\":3071:3125   */\n      and\n        /* \"#utility.yul\":3060:3125   */\n      swap1\n      pop\n        /* \"#utility.yul\":3050:3131   */\n      swap2\n      swap1\n      pop\n      jump\t// out\n        /* \"#utility.yul\":3137:3214   */\n    tag_69:\n        /* \"#utility.yul\":3174:3181   */\n      0x00\n        /* \"#utility.yul\":3203:3208   */\n      dup2\n        /* \"#utility.yul\":3192:3208   */\n      swap1\n      pop\n        /* \"#utility.yul\":3182:3214   */\n      swap2\n      swap1\n      pop\n      jump\t// out\n        /* \"#utility.yul\":3220:3349   */\n    tag_65:\n        /* \"#utility.yul\":3277:3286   */\n      0x00\n        /* \"#utility.yul\":3310:3343   */\n      tag_93\n        /* \"#utility.yul\":3337:3342   */\n      dup3\n        /* \"#utility.yul\":3310:3343   */\n      tag_86\n      jump\t// in\n    tag_93:\n        /* \"#utility.yul\":3297:3343   */\n      swap1\n      pop\n        /* \"#utility.yul\":3287:3349   */\n      swap2\n      swap1\n      pop\n      jump\t// out\n        /* \"#utility.yul\":3355:3588   */\n    tag_35:\n        /* \"#utility.yul\":3394:3397   */\n      0x00\n        /* \"#utility.yul\":3417:3441   */\n      tag_95\n        /* \"#utility.yul\":3435:3440   */\n      dup3\n        /* \"#utility.yul\":3417:3441   */\n      tag_69\n      jump\t// in\n    tag_95:\n        /* \"#utility.yul\":3408:3441   */\n      swap2\n      pop\n        /* \"#utility.yul\":3463:3529   */\n      0xffffffffffffffffffffffffffffffffffffffffffffffffffffffffffffffff\n        /* \"#utility.yul\":3456:3461   */\n      dup3\n        /* \"#utility.yul\":3453:3530   */\n      eq\n        /* \"#utility.yul\":3450:3452   */\n      iszero\n      tag_96\n      jumpi\n        /* \"#utility.yul\":3533:3551   */\n      tag_97\n      tag_98\n      jump\t// in\n    tag_97:\n        /* \"#utility.yul\":3450:3452   */\n    tag_96:\n        /* \"#utility.yul\":3580:3581   */\n      0x01\n        /* \"#utility.yul\":3573:3578   */\n      dup3\n        /* \"#utility.yul\":3569:3582   */\n      add\n        /* \"#utility.yul\":3562:3582   */\n      swap1\n      pop\n        /* \"#utility.yul\":3398:3588   */\n      swap2\n      swap1\n      pop\n      jump\t// out\n        /* \"#utility.yul\":3594:3774   */\n    tag_98:\n        /* \"#utility.yul\":3642:3719   */\n      0x4e487b7100000000000000000000000000000000000000000000000000000000\n        /* \"#utility.yul\":3639:3640   */\n      0x00\n        /* \"#utility.yul\":3632:3720   */\n      mstore\n        /* \"#utility.yul\":3739:3743   */\n      0x11\n        /* \"#utility.yul\":3736:3737   */\n      0x04\n        /* \"#utility.yul\":3729:3744   */\n      mstore\n        /* \"#utility.yul\":3763:3767   */\n      0x24\n        /* \"#utility.yul\":3760:3761   */\n      0x00\n        /* \"#utility.yul\":3753:3768   */\n      revert\n        /* \"#utility.yul\":3780:3960   */\n    tag_100:\n        /* \"#utility.yul\":3828:3905   */\n      0x4e487b7100000000000000000000000000000000000000000000000000000000\n        /* \"#utility.yul\":3825:3826   */\n      0x00\n        /* \"#utility.yul\":3818:3906   */\n      mstore\n        /* \"#utility.yul\":3925:3929   */\n      0x21\n        /* \"#utility.yul\":3922:3923   */\n      0x04\n        /* \"#utility.yul\":3915:3930   */\n      mstore\n        /* \"#utility.yul\":3949:3953   */\n      0x24\n        /* \"#utility.yul\":3946:3947   */\n      0x00\n        /* \"#utility.yul\":3939:3954   */\n      revert\n        /* \"#utility.yul\":4089:4206   */\n    tag_48:\n        /* \"#utility.yul\":4198:4199   */\n      0x00\n        /* \"#utility.yul\":4195:4196   */\n      dup1\n        /* \"#utility.yul\":4188:4200   */\n      revert\n        /* \"#utility.yul\":4212:4326   */\n    tag_89:\n        /* \"#utility.yul\":4294:4295   */\n      0x03\n        /* \"#utility.yul\":4287:4292   */\n      dup2\n        /* \"#utility.yul\":4284:4296   */\n      lt\n        /* \"#utility.yul\":4274:4276   */\n      tag_106\n      jumpi\n        /* \"#utility.yul\":4300:4318   */\n      tag_107\n      tag_100\n      jump\t// in\n    tag_107:\n        /* \"#utility.yul\":4274:4276   */\n    tag_106:\n        /* \"#utility.yul\":4264:4326   */\n      pop\n      jump\t// out\n        /* \"#utility.yul\":4332:4454   */\n    tag_40:\n        /* \"#utility.yul\":4405:4429   */\n      tag_109\n        /* \"#utility.yul\":4423:4428   */\n      dup2\n        /* \"#utility.yul\":4405:4429   */\n      tag_57\n      jump\t// in\n    tag_109:\n        /* \"#utility.yul\":4398:4403   */\n      dup2\n        /* \"#utility.yul\":4395:4430   */\n      eq\n        /* \"#utility.yul\":4385:4387   */\n      tag_110\n      jumpi\n        /* \"#utility.yul\":4444:4445   */\n      0x00\n        /* \"#utility.yul\":4441:4442   */\n      dup1\n        /* \"#utility.yul\":4434:4446   */\n      revert\n        /* \"#utility.yul\":4385:4387   */\n    tag_110:\n        /* \"#utility.yul\":4375:4454   */\n      pop\n      jump\t// out\n        /* \"#utility.yul\":4460:4576   */\n    tag_44:\n        /* \"#utility.yul\":4530:4551   */\n      tag_112\n        /* \"#utility.yul\":4545:4550   */\n      dup2\n        /* \"#utility.yul\":4530:4551   */\n      tag_61\n      jump\t// in\n    tag_112:\n        /* \"#utility.yul\":4523:4528   */\n      dup2\n        /* \"#utility.yul\":4520:4552   */\n      eq\n        /* \"#utility.yul\":4510:4512   */\n      tag_113\n      jumpi\n        /* \"#utility.yul\":4566:4567   */\n      0x00\n        /* \"#utility.yul\":4563:4564   */\n      dup1\n        /* \"#utility.yul\":4556:4568   */\n      revert\n        /* \"#utility.yul\":4510:4512   */\n    tag_113:\n        /* \"#utility.yul\":4500:4576   */\n      pop\n      jump\t// out\n\n    auxdata: 0xa26469706673582212206f8a3a72f3a61255adc684bf9ec1c8a27e6848321f21e8b0aa88f7c8b2f0627064736f6c63430008060033\n}\n",
				"bytecode": {
					"linkReferences": {},
					"object": "608060405234801561001057600080fd5b50610510806100206000396000f3fe608060405234801561001057600080fd5b50600436106100575760003560e01c806306661abd1461005c57806309e69ede1461007a57806359ff6ba8146100ac578063c19d93fb146100ca578063d45dcca0146100e8575b600080fd5b610064610104565b604051610071919061032d565b60405180910390f35b610094600480360381019061008f9190610261565b61010a565b6040516100a393929190610348565b60405180910390f35b6100b461014e565b6040516100c191906102f7565b60405180910390f35b6100d2610174565b6040516100df9190610312565b60405180910390f35b61010260048036038101906100fd919061028e565b610185565b005b60015481565b60026020528060005260406000206000915090508060000154908060010160009054906101000a900460ff16908060010160019054906101000a900460ff16905083565b600060019054906101000a900473ffffffffffffffffffffffffffffffffffffffff1681565b60008054906101000a900460ff1681565b33600060016101000a81548173ffffffffffffffffffffffffffffffffffffffff021916908373ffffffffffffffffffffffffffffffffffffffff1602179055506101ce610212565b81816020019015159081151581525050811561020e57600181604001901515908115158152505060016000815480929190610208906103ec565b91905055505b5050565b6040518060600160405280600081526020016000151581526020016000151581525090565b600081359050610246816104ac565b92915050565b60008135905061025b816104c3565b92915050565b60006020828403121561027757610276610493565b5b600061028584828501610237565b91505092915050565b6000602082840312156102a4576102a3610493565b5b60006102b28482850161024c565b91505092915050565b6102c48161037f565b82525050565b6102d381610391565b82525050565b6102e2816103da565b82525050565b6102f1816103d0565b82525050565b600060208201905061030c60008301846102bb565b92915050565b600060208201905061032760008301846102d9565b92915050565b600060208201905061034260008301846102e8565b92915050565b600060608201905061035d60008301866102e8565b61036a60208301856102ca565b61037760408301846102ca565b949350505050565b600061038a826103b0565b9050919050565b60008115159050919050565b60008190506103ab82610498565b919050565b600073ffffffffffffffffffffffffffffffffffffffff82169050919050565b6000819050919050565b60006103e58261039d565b9050919050565b60006103f7826103d0565b91507fffffffffffffffffffffffffffffffffffffffffffffffffffffffffffffffff82141561042a57610429610435565b5b600182019050919050565b7f4e487b7100000000000000000000000000000000000000000000000000000000600052601160045260246000fd5b7f4e487b7100000000000000000000000000000000000000000000000000000000600052602160045260246000fd5b600080fd5b600381106104a9576104a8610464565b5b50565b6104b58161037f565b81146104c057600080fd5b50565b6104cc81610391565b81146104d757600080fd5b5056fea26469706673582212206f8a3a72f3a61255adc684bf9ec1c8a27e6848321f21e8b0aa88f7c8b2f0627064736f6c63430008060033",
					"opcodes": "PUSH1 0x80 PUSH1 0x40 MSTORE CALLVALUE DUP1 ISZERO PUSH2 0x10 JUMPI PUSH1 0x0 DUP1 REVERT JUMPDEST POP PUSH2 0x510 DUP1 PUSH2 0x20 PUSH1 0x0 CODECOPY PUSH1 0x0 RETURN INVALID PUSH1 0x80 PUSH1 0x40 MSTORE CALLVALUE DUP1 ISZERO PUSH2 0x10 JUMPI PUSH1 0x0 DUP1 REVERT JUMPDEST POP PUSH1 0x4 CALLDATASIZE LT PUSH2 0x57 JUMPI PUSH1 0x0 CALLDATALOAD PUSH1 0xE0 SHR DUP1 PUSH4 0x6661ABD EQ PUSH2 0x5C JUMPI DUP1 PUSH4 0x9E69EDE EQ PUSH2 0x7A JUMPI DUP1 PUSH4 0x59FF6BA8 EQ PUSH2 0xAC JUMPI DUP1 PUSH4 0xC19D93FB EQ PUSH2 0xCA JUMPI DUP1 PUSH4 0xD45DCCA0 EQ PUSH2 0xE8 JUMPI JUMPDEST PUSH1 0x0 DUP1 REVERT JUMPDEST PUSH2 0x64 PUSH2 0x104 JUMP JUMPDEST PUSH1 0x40 MLOAD PUSH2 0x71 SWAP2 SWAP1 PUSH2 0x32D JUMP JUMPDEST PUSH1 0x40 MLOAD DUP1 SWAP2 SUB SWAP1 RETURN JUMPDEST PUSH2 0x94 PUSH1 0x4 DUP1 CALLDATASIZE SUB DUP2 ADD SWAP1 PUSH2 0x8F SWAP2 SWAP1 PUSH2 0x261 JUMP JUMPDEST PUSH2 0x10A JUMP JUMPDEST PUSH1 0x40 MLOAD PUSH2 0xA3 SWAP4 SWAP3 SWAP2 SWAP1 PUSH2 0x348 JUMP JUMPDEST PUSH1 0x40 MLOAD DUP1 SWAP2 SUB SWAP1 RETURN JUMPDEST PUSH2 0xB4 PUSH2 0x14E JUMP JUMPDEST PUSH1 0x40 MLOAD PUSH2 0xC1 SWAP2 SWAP1 PUSH2 0x2F7 JUMP JUMPDEST PUSH1 0x40 MLOAD DUP1 SWAP2 SUB SWAP1 RETURN JUMPDEST PUSH2 0xD2 PUSH2 0x174 JUMP JUMPDEST PUSH1 0x40 MLOAD PUSH2 0xDF SWAP2 SWAP1 PUSH2 0x312 JUMP JUMPDEST PUSH1 0x40 MLOAD DUP1 SWAP2 SUB SWAP1 RETURN JUMPDEST PUSH2 0x102 PUSH1 0x4 DUP1 CALLDATASIZE SUB DUP2 ADD SWAP1 PUSH2 0xFD SWAP2 SWAP1 PUSH2 0x28E JUMP JUMPDEST PUSH2 0x185 JUMP JUMPDEST STOP JUMPDEST PUSH1 0x1 SLOAD DUP2 JUMP JUMPDEST PUSH1 0x2 PUSH1 0x20 MSTORE DUP1 PUSH1 0x0 MSTORE PUSH1 0x40 PUSH1 0x0 KECCAK256 PUSH1 0x0 SWAP2 POP SWAP1 POP DUP1 PUSH1 0x0 ADD SLOAD SWAP1 DUP1 PUSH1 0x1 ADD PUSH1 0x0 SWAP1 SLOAD SWAP1 PUSH2 0x100 EXP SWAP1 DIV PUSH1 0xFF AND SWAP1 DUP1 PUSH1 0x1 ADD PUSH1 0x1 SWAP1 SLOAD SWAP1 PUSH2 0x100 EXP SWAP1 DIV PUSH1 0xFF AND SWAP1 POP DUP4 JUMP JUMPDEST PUSH1 0x0 PUSH1 0x1 SWAP1 SLOAD SWAP1 PUSH2 0x100 EXP SWAP1 DIV PUSH20 0xFFFFFFFFFFFFFFFFFFFFFFFFFFFFFFFFFFFFFFFF AND DUP2 JUMP JUMPDEST PUSH1 0x0 DUP1 SLOAD SWAP1 PUSH2 0x100 EXP SWAP1 DIV PUSH1 0xFF AND DUP2 JUMP JUMPDEST CALLER PUSH1 0x0 PUSH1 0x1 PUSH2 0x100 EXP DUP2 SLOAD DUP2 PUSH20 0xFFFFFFFFFFFFFFFFFFFFFFFFFFFFFFFFFFFFFFFF MUL NOT AND SWAP1 DUP4 PUSH20 0xFFFFFFFFFFFFFFFFFFFFFFFFFFFFFFFFFFFFFFFF AND MUL OR SWAP1 SSTORE POP PUSH2 0x1CE PUSH2 0x212 JUMP JUMPDEST DUP2 DUP2 PUSH1 0x20 ADD SWAP1 ISZERO ISZERO SWAP1 DUP2 ISZERO ISZERO DUP2 MSTORE POP POP DUP2 ISZERO PUSH2 0x20E JUMPI PUSH1 0x1 DUP2 PUSH1 0x40 ADD SWAP1 ISZERO ISZERO SWAP1 DUP2 ISZERO ISZERO DUP2 MSTORE POP POP PUSH1 0x1 PUSH1 0x0 DUP2 SLOAD DUP1 SWAP3 SWAP2 SWAP1 PUSH2 0x208 SWAP1 PUSH2 0x3EC JUMP JUMPDEST SWAP2 SWAP1 POP SSTORE POP JUMPDEST POP POP JUMP JUMPDEST PUSH1 0x40 MLOAD DUP1 PUSH1 0x60 ADD PUSH1 0x40 MSTORE DUP1 PUSH1 0x0 DUP2 MSTORE PUSH1 0x20 ADD PUSH1 0x0 ISZERO ISZERO DUP2 MSTORE PUSH1 0x20 ADD PUSH1 0x0 ISZERO ISZERO DUP2 MSTORE POP SWAP1 JUMP JUMPDEST PUSH1 0x0 DUP2 CALLDATALOAD SWAP1 POP PUSH2 0x246 DUP2 PUSH2 0x4AC JUMP JUMPDEST SWAP3 SWAP2 POP POP JUMP JUMPDEST PUSH1 0x0 DUP2 CALLDATALOAD SWAP1 POP PUSH2 0x25B DUP2 PUSH2 0x4C3 JUMP JUMPDEST SWAP3 SWAP2 POP POP JUMP JUMPDEST PUSH1 0x0 PUSH1 0x20 DUP3 DUP5 SUB SLT ISZERO PUSH2 0x277 JUMPI PUSH2 0x276 PUSH2 0x493 JUMP JUMPDEST JUMPDEST PUSH1 0x0 PUSH2 0x285 DUP5 DUP3 DUP6 ADD PUSH2 0x237 JUMP JUMPDEST SWAP2 POP POP SWAP3 SWAP2 POP POP JUMP JUMPDEST PUSH1 0x0 PUSH1 0x20 DUP3 DUP5 SUB SLT ISZERO PUSH2 0x2A4 JUMPI PUSH2 0x2A3 PUSH2 0x493 JUMP JUMPDEST JUMPDEST PUSH1 0x0 PUSH2 0x2B2 DUP5 DUP3 DUP6 ADD PUSH2 0x24C JUMP JUMPDEST SWAP2 POP POP SWAP3 SWAP2 POP POP JUMP JUMPDEST PUSH2 0x2C4 DUP2 PUSH2 0x37F JUMP JUMPDEST DUP3 MSTORE POP POP JUMP JUMPDEST PUSH2 0x2D3 DUP2 PUSH2 0x391 JUMP JUMPDEST DUP3 MSTORE POP POP JUMP JUMPDEST PUSH2 0x2E2 DUP2 PUSH2 0x3DA JUMP JUMPDEST DUP3 MSTORE POP POP JUMP JUMPDEST PUSH2 0x2F1 DUP2 PUSH2 0x3D0 JUMP JUMPDEST DUP3 MSTORE POP POP JUMP JUMPDEST PUSH1 0x0 PUSH1 0x20 DUP3 ADD SWAP1 POP PUSH2 0x30C PUSH1 0x0 DUP4 ADD DUP5 PUSH2 0x2BB JUMP JUMPDEST SWAP3 SWAP2 POP POP JUMP JUMPDEST PUSH1 0x0 PUSH1 0x20 DUP3 ADD SWAP1 POP PUSH2 0x327 PUSH1 0x0 DUP4 ADD DUP5 PUSH2 0x2D9 JUMP JUMPDEST SWAP3 SWAP2 POP POP JUMP JUMPDEST PUSH1 0x0 PUSH1 0x20 DUP3 ADD SWAP1 POP PUSH2 0x342 PUSH1 0x0 DUP4 ADD DUP5 PUSH2 0x2E8 JUMP JUMPDEST SWAP3 SWAP2 POP POP JUMP JUMPDEST PUSH1 0x0 PUSH1 0x60 DUP3 ADD SWAP1 POP PUSH2 0x35D PUSH1 0x0 DUP4 ADD DUP7 PUSH2 0x2E8 JUMP JUMPDEST PUSH2 0x36A PUSH1 0x20 DUP4 ADD DUP6 PUSH2 0x2CA JUMP JUMPDEST PUSH2 0x377 PUSH1 0x40 DUP4 ADD DUP5 PUSH2 0x2CA JUMP JUMPDEST SWAP5 SWAP4 POP POP POP POP JUMP JUMPDEST PUSH1 0x0 PUSH2 0x38A DUP3 PUSH2 0x3B0 JUMP JUMPDEST SWAP1 POP SWAP2 SWAP1 POP JUMP JUMPDEST PUSH1 0x0 DUP2 ISZERO ISZERO SWAP1 POP SWAP2 SWAP1 POP JUMP JUMPDEST PUSH1 0x0 DUP2 SWAP1 POP PUSH2 0x3AB DUP3 PUSH2 0x498 JUMP JUMPDEST SWAP2 SWAP1 POP JUMP JUMPDEST PUSH1 0x0 PUSH20 0xFFFFFFFFFFFFFFFFFFFFFFFFFFFFFFFFFFFFFFFF DUP3 AND SWAP1 POP SWAP2 SWAP1 POP JUMP JUMPDEST PUSH1 0x0 DUP2 SWAP1 POP SWAP2 SWAP1 POP JUMP JUMPDEST PUSH1 0x0 PUSH2 0x3E5 DUP3 PUSH2 0x39D JUMP JUMPDEST SWAP1 POP SWAP2 SWAP1 POP JUMP JUMPDEST PUSH1 0x0 PUSH2 0x3F7 DUP3 PUSH2 0x3D0 JUMP JUMPDEST SWAP2 POP PUSH32 0xFFFFFFFFFFFFFFFFFFFFFFFFFFFFFFFFFFFFFFFFFFFFFFFFFFFFFFFFFFFFFFFF DUP3 EQ ISZERO PUSH2 0x42A JUMPI PUSH2 0x429 PUSH2 0x435 JUMP JUMPDEST JUMPDEST PUSH1 0x1 DUP3 ADD SWAP1 POP SWAP2 SWAP1 POP JUMP JUMPDEST PUSH32 0x4E487B7100000000000000000000000000000000000000000000000000000000 PUSH1 0x0 MSTORE PUSH1 0x11 PUSH1 0x4 MSTORE PUSH1 0x24 PUSH1 0x0 REVERT JUMPDEST PUSH32 0x4E487B7100000000000000000000000000000000000000000000000000000000 PUSH1 0x0 MSTORE PUSH1 0x21 PUSH1 0x4 MSTORE PUSH1 0x24 PUSH1 0x0 REVERT JUMPDEST PUSH1 0x0 DUP1 REVERT JUMPDEST PUSH1 0x3 DUP2 LT PUSH2 0x4A9 JUMPI PUSH2 0x4A8 PUSH2 0x464 JUMP JUMPDEST JUMPDEST POP JUMP JUMPDEST PUSH2 0x4B5 DUP2 PUSH2 0x37F JUMP JUMPDEST DUP2 EQ PUSH2 0x4C0 JUMPI PUSH1 0x0 DUP1 REVERT JUMPDEST POP JUMP JUMPDEST PUSH2 0x4CC DUP2 PUSH2 0x391 JUMP JUMPDEST DUP2 EQ PUSH2 0x4D7 JUMPI PUSH1 0x0 DUP1 REVERT JUMPDEST POP JUMP INVALID LOG2 PUSH5 0x6970667358 0x22 SLT KECCAK256 PUSH16 0x8A3A72F3A61255ADC684BF9EC1C8A27E PUSH9 0x48321F21E8B0AA88F7 0xC8 0xB2 CREATE PUSH3 0x706473 PUSH16 0x6C634300080600330000000000000000 "
				},
				"gasEstimates": {
					"creation": {
						"codeDepositCost": "259200",
						"executionCost": "300",
						"totalCost": "259500"
					},
					"external": {
						"count()": "2407",
						"onClick(bool)": "49378",
						"participantAddress()": "2586",
						"participants(address)": "infinite",
						"state()": "2601"
					}
				},
				"methodIdentifiers": {
					"count()": "06661abd",
					"onClick(bool)": "d45dcca0",
					"participantAddress()": "59ff6ba8",
					"participants(address)": "09e69ede",
					"state()": "c19d93fb"
				}
			},
			"storageLayout": {
				"storage": [
					{
						"astId": 324,
						"contract": "contracts/Button.sol:Button",
						"label": "state",
						"offset": 0,
						"slot": "0",
						"type": "t_enum(State)321"
					},
					{
						"astId": 333,
						"contract": "contracts/Button.sol:Button",
						"label": "participantAddress",
						"offset": 1,
						"slot": "0",
						"type": "t_address"
					},
					{
						"astId": 335,
						"contract": "contracts/Button.sol:Button",
						"label": "count",
						"offset": 0,
						"slot": "1",
						"type": "t_uint256"
					},
					{
						"astId": 340,
						"contract": "contracts/Button.sol:Button",
						"label": "participants",
						"offset": 0,
						"slot": "2",
						"type": "t_mapping(t_address,t_struct(Participant)331_storage)"
					}
				],
				"types": {
					"t_address": {
						"encoding": "inplace",
						"label": "address",
						"numberOfBytes": "20"
					},
					"t_bool": {
						"encoding": "inplace",
						"label": "bool",
						"numberOfBytes": "1"
					},
					"t_enum(State)321": {
						"encoding": "inplace",
						"label": "enum Button.State",
						"numberOfBytes": "1"
					},
					"t_mapping(t_address,t_struct(Participant)331_storage)": {
						"encoding": "mapping",
						"key": "t_address",
						"label": "mapping(address => struct Button.Participant)",
						"numberOfBytes": "32",
						"value": "t_struct(Participant)331_storage"
					},
					"t_struct(Participant)331_storage": {
						"encoding": "inplace",
						"label": "struct Button.Participant",
						"members": [
							{
								"astId": 326,
								"contract": "contracts/Button.sol:Button",
								"label": "balance",
								"offset": 0,
								"slot": "0",
								"type": "t_uint256"
							},
							{
								"astId": 328,
								"contract": "contracts/Button.sol:Button",
								"label": "choice",
								"offset": 0,
								"slot": "1",
								"type": "t_bool"
							},
							{
								"astId": 330,
								"contract": "contracts/Button.sol:Button",
								"label": "isLeader",
								"offset": 1,
								"slot": "1",
								"type": "t_bool"
							}
						],
						"numberOfBytes": "64"
					},
					"t_uint256": {
						"encoding": "inplace",
						"label": "uint256",
						"numberOfBytes": "32"
					}
				}
			},
			"userdoc": {
				"kind": "user",
				"methods": {},
				"version": 1
			}
		}
	}
}