{
	"contracts/VerifySig.sol": {
		"VerifySig": {
			"abi": [
				{
					"inputs": [
						{
							"internalType": "bytes32",
							"name": "_messageHash",
							"type": "bytes32"
						}
					],
					"name": "getEthSignedMessageHash",
					"outputs": [
						{
							"internalType": "bytes32",
							"name": "",
							"type": "bytes32"
						}
					],
					"stateMutability": "pure",
					"type": "function"
				},
				{
					"inputs": [
						{
							"internalType": "string",
							"name": "_message",
							"type": "string"
						},
						{
							"internalType": "uint256",
							"name": "_nonce",
							"type": "uint256"
						},
						{
							"internalType": "uint256",
							"name": "_amount",
							"type": "uint256"
						}
					],
					"name": "getMessageHash",
					"outputs": [
						{
							"internalType": "bytes32",
							"name": "",
							"type": "bytes32"
						}
					],
					"stateMutability": "pure",
					"type": "function"
				},
				{
					"inputs": [
						{
							"internalType": "bytes32",
							"name": "_ethSignedMessageHash",
							"type": "bytes32"
						},
						{
							"internalType": "bytes",
							"name": "_signature",
							"type": "bytes"
						}
					],
					"name": "recover",
					"outputs": [
						{
							"internalType": "address",
							"name": "",
							"type": "address"
						}
					],
					"stateMutability": "pure",
					"type": "function"
				},
				{
					"inputs": [
						{
							"internalType": "address",
							"name": "_signer",
							"type": "address"
						},
						{
							"internalType": "string",
							"name": "_message",
							"type": "string"
						},
						{
							"internalType": "uint256",
							"name": "_nonce",
							"type": "uint256"
						},
						{
							"internalType": "uint256",
							"name": "_amount",
							"type": "uint256"
						},
						{
							"internalType": "bytes",
							"name": "_signature",
							"type": "bytes"
						}
					],
					"name": "verify",
					"outputs": [
						{
							"internalType": "bool",
							"name": "",
							"type": "bool"
						}
					],
					"stateMutability": "pure",
					"type": "function"
				}
			],
			"devdoc": {
				"kind": "dev",
				"methods": {},
				"version": 1
			},
			"evm": {
				"assembly": "    /* \"contracts/VerifySig.sol\":243:2009  contract VerifySig {... */\n  mstore(0x40, 0x80)\n  callvalue\n  dup1\n  iszero\n  tag_1\n  jumpi\n  0x00\n  dup1\n  revert\ntag_1:\n  pop\n  dataSize(sub_0)\n  dup1\n  dataOffset(sub_0)\n  0x00\n  codecopy\n  0x00\n  return\nstop\n\nsub_0: assembly {\n        /* \"contracts/VerifySig.sol\":243:2009  contract VerifySig {... */\n      mstore(0x40, 0x80)\n      callvalue\n      dup1\n      iszero\n      tag_1\n      jumpi\n      0x00\n      dup1\n      revert\n    tag_1:\n      pop\n      jumpi(tag_2, lt(calldatasize, 0x04))\n      shr(0xe0, calldataload(0x00))\n      dup1\n      0x19045a25\n      eq\n      tag_3\n      jumpi\n      dup1\n      0x58b77985\n      eq\n      tag_4\n      jumpi\n      dup1\n      0x7003ea1c\n      eq\n      tag_5\n      jumpi\n      dup1\n      0xfa540801\n      eq\n      tag_6\n      jumpi\n    tag_2:\n      0x00\n      dup1\n      revert\n        /* \"contracts/VerifySig.sol\":1287:1545  function recover(bytes32 _ethSignedMessageHash, bytes memory _signature)... */\n    tag_3:\n      tag_7\n      0x04\n      dup1\n      calldatasize\n      sub\n      dup2\n      add\n      swap1\n      tag_8\n      swap2\n      swap1\n      tag_9\n      jump\t// in\n    tag_8:\n      tag_10\n      jump\t// in\n    tag_7:\n      mload(0x40)\n      tag_11\n      swap2\n      swap1\n      tag_12\n      jump\t// in\n    tag_11:\n      mload(0x40)\n      dup1\n      swap2\n      sub\n      swap1\n      return\n        /* \"contracts/VerifySig.sol\":268:739  function verify(... */\n    tag_4:\n      tag_13\n      0x04\n      dup1\n      calldatasize\n      sub\n      dup2\n      add\n      swap1\n      tag_14\n      swap2\n      swap1\n      tag_15\n      jump\t// in\n    tag_14:\n      tag_16\n      jump\t// in\n    tag_13:\n      mload(0x40)\n      tag_17\n      swap2\n      swap1\n      tag_18\n      jump\t// in\n    tag_17:\n      mload(0x40)\n      dup1\n      swap2\n      sub\n      swap1\n      return\n        /* \"contracts/VerifySig.sol\":745:961  function getMessageHash(string memory _message, uint _nonce , uint256 _amount )... */\n    tag_5:\n      tag_19\n      0x04\n      dup1\n      calldatasize\n      sub\n      dup2\n      add\n      swap1\n      tag_20\n      swap2\n      swap1\n      tag_21\n      jump\t// in\n    tag_20:\n      tag_22\n      jump\t// in\n    tag_19:\n      mload(0x40)\n      tag_23\n      swap2\n      swap1\n      tag_24\n      jump\t// in\n    tag_23:\n      mload(0x40)\n      dup1\n      swap2\n      sub\n      swap1\n      return\n        /* \"contracts/VerifySig.sol\":967:1281  function getEthSignedMessageHash(bytes32 _messageHash)... */\n    tag_6:\n      tag_25\n      0x04\n      dup1\n      calldatasize\n      sub\n      dup2\n      add\n      swap1\n      tag_26\n      swap2\n      swap1\n      tag_27\n      jump\t// in\n    tag_26:\n      tag_28\n      jump\t// in\n    tag_25:\n      mload(0x40)\n      tag_29\n      swap2\n      swap1\n      tag_24\n      jump\t// in\n    tag_29:\n      mload(0x40)\n      dup1\n      swap2\n      sub\n      swap1\n      return\n        /* \"contracts/VerifySig.sol\":1287:1545  function recover(bytes32 _ethSignedMessageHash, bytes memory _signature)... */\n    tag_10:\n        /* \"contracts/VerifySig.sol\":1405:1412  address */\n      0x00\n        /* \"contracts/VerifySig.sol\":1429:1438  bytes32 r */\n      dup1\n        /* \"contracts/VerifySig.sol\":1440:1449  bytes32 s */\n      0x00\n        /* \"contracts/VerifySig.sol\":1451:1458  uint8 v */\n      dup1\n        /* \"contracts/VerifySig.sol\":1462:1480  _split(_signature) */\n      tag_31\n        /* \"contracts/VerifySig.sol\":1469:1479  _signature */\n      dup6\n        /* \"contracts/VerifySig.sol\":1462:1468  _split */\n      tag_32\n        /* \"contracts/VerifySig.sol\":1462:1480  _split(_signature) */\n      jump\t// in\n    tag_31:\n        /* \"contracts/VerifySig.sol\":1428:1480  (bytes32 r, bytes32 s, uint8 v) = _split(_signature) */\n      swap3\n      pop\n      swap3\n      pop\n      swap3\n      pop\n        /* \"contracts/VerifySig.sol\":1497:1538  ecrecover(_ethSignedMessageHash, v, r, s) */\n      0x01\n        /* \"contracts/VerifySig.sol\":1507:1528  _ethSignedMessageHash */\n      dup7\n        /* \"contracts/VerifySig.sol\":1530:1531  v */\n      dup3\n        /* \"contracts/VerifySig.sol\":1533:1534  r */\n      dup6\n        /* \"contracts/VerifySig.sol\":1536:1537  s */\n      dup6\n        /* \"contracts/VerifySig.sol\":1497:1538  ecrecover(_ethSignedMessageHash, v, r, s) */\n      mload(0x40)\n      0x00\n      dup2\n      mstore\n      0x20\n      add\n      0x40\n      mstore\n      mload(0x40)\n      tag_33\n      swap5\n      swap4\n      swap3\n      swap2\n      swap1\n      tag_34\n      jump\t// in\n    tag_33:\n      0x20\n      mload(0x40)\n      0x20\n      dup2\n      sub\n      swap1\n      dup1\n      dup5\n      sub\n      swap1\n      dup6\n      gas\n      staticcall\n      iszero\n      dup1\n      iszero\n      tag_36\n      jumpi\n      returndatasize\n      0x00\n      dup1\n      returndatacopy\n      revert(0x00, returndatasize)\n    tag_36:\n      pop\n      pop\n      pop\n      mload(sub(mload(0x40), 0x20))\n        /* \"contracts/VerifySig.sol\":1490:1538  return ecrecover(_ethSignedMessageHash, v, r, s) */\n      swap4\n      pop\n      pop\n      pop\n      pop\n        /* \"contracts/VerifySig.sol\":1287:1545  function recover(bytes32 _ethSignedMessageHash, bytes memory _signature)... */\n      swap3\n      swap2\n      pop\n      pop\n      jump\t// out\n        /* \"contracts/VerifySig.sol\":268:739  function verify(... */\n    tag_16:\n        /* \"contracts/VerifySig.sol\":449:453  bool */\n      0x00\n        /* \"contracts/VerifySig.sol\":492:511  bytes32 messageHash */\n      dup1\n        /* \"contracts/VerifySig.sol\":514:555  getMessageHash(_message, _nonce, _amount) */\n      tag_38\n        /* \"contracts/VerifySig.sol\":529:537  _message */\n      dup7\n        /* \"contracts/VerifySig.sol\":539:545  _nonce */\n      dup7\n        /* \"contracts/VerifySig.sol\":547:554  _amount */\n      dup7\n        /* \"contracts/VerifySig.sol\":514:528  getMessageHash */\n      tag_22\n        /* \"contracts/VerifySig.sol\":514:555  getMessageHash(_message, _nonce, _amount) */\n      jump\t// in\n    tag_38:\n        /* \"contracts/VerifySig.sol\":492:555  bytes32 messageHash = getMessageHash(_message, _nonce, _amount) */\n      swap1\n      pop\n        /* \"contracts/VerifySig.sol\":595:623  bytes32 ethSignedMessageHash */\n      0x00\n        /* \"contracts/VerifySig.sol\":626:662  getEthSignedMessageHash(messageHash) */\n      tag_39\n        /* \"contracts/VerifySig.sol\":650:661  messageHash */\n      dup3\n        /* \"contracts/VerifySig.sol\":626:649  getEthSignedMessageHash */\n      tag_28\n        /* \"contracts/VerifySig.sol\":626:662  getEthSignedMessageHash(messageHash) */\n      jump\t// in\n    tag_39:\n        /* \"contracts/VerifySig.sol\":595:662  bytes32 ethSignedMessageHash = getEthSignedMessageHash(messageHash) */\n      swap1\n      pop\n        /* \"contracts/VerifySig.sol\":725:732  _signer */\n      dup8\n        /* \"contracts/VerifySig.sol\":680:732  recover(ethSignedMessageHash, _signature) == _signer */\n      0xffffffffffffffffffffffffffffffffffffffff\n      and\n        /* \"contracts/VerifySig.sol\":680:721  recover(ethSignedMessageHash, _signature) */\n      tag_40\n        /* \"contracts/VerifySig.sol\":688:708  ethSignedMessageHash */\n      dup3\n        /* \"contracts/VerifySig.sol\":710:720  _signature */\n      dup7\n        /* \"contracts/VerifySig.sol\":680:687  recover */\n      tag_10\n        /* \"contracts/VerifySig.sol\":680:721  recover(ethSignedMessageHash, _signature) */\n      jump\t// in\n    tag_40:\n        /* \"contracts/VerifySig.sol\":680:732  recover(ethSignedMessageHash, _signature) == _signer */\n      0xffffffffffffffffffffffffffffffffffffffff\n      and\n      eq\n        /* \"contracts/VerifySig.sol\":673:732  return recover(ethSignedMessageHash, _signature) == _signer */\n      swap3\n      pop\n      pop\n      pop\n        /* \"contracts/VerifySig.sol\":268:739  function verify(... */\n      swap6\n      swap5\n      pop\n      pop\n      pop\n      pop\n      pop\n      jump\t// out\n        /* \"contracts/VerifySig.sol\":745:961  function getMessageHash(string memory _message, uint _nonce , uint256 _amount )... */\n    tag_22:\n        /* \"contracts/VerifySig.sol\":870:877  bytes32 */\n      0x00\n        /* \"contracts/VerifySig.sol\":927:935  _message */\n      dup4\n        /* \"contracts/VerifySig.sol\":937:943  _nonce */\n      dup4\n        /* \"contracts/VerifySig.sol\":945:952  _amount */\n      dup4\n        /* \"contracts/VerifySig.sol\":910:953  abi.encodePacked(_message, _nonce, _amount) */\n      add(0x20, mload(0x40))\n      tag_42\n      swap4\n      swap3\n      swap2\n      swap1\n      tag_43\n      jump\t// in\n    tag_42:\n      mload(0x40)\n      0x20\n      dup2\n      dup4\n      sub\n      sub\n      dup2\n      mstore\n      swap1\n      0x40\n      mstore\n        /* \"contracts/VerifySig.sol\":900:954  keccak256(abi.encodePacked(_message, _nonce, _amount)) */\n      dup1\n      mload\n      swap1\n      0x20\n      add\n      keccak256\n        /* \"contracts/VerifySig.sol\":893:954  return keccak256(abi.encodePacked(_message, _nonce, _amount)) */\n      swap1\n      pop\n        /* \"contracts/VerifySig.sol\":745:961  function getMessageHash(string memory _message, uint _nonce , uint256 _amount )... */\n      swap4\n      swap3\n      pop\n      pop\n      pop\n      jump\t// out\n        /* \"contracts/VerifySig.sol\":967:1281  function getEthSignedMessageHash(bytes32 _messageHash)... */\n    tag_28:\n        /* \"contracts/VerifySig.sol\":1067:1074  bytes32 */\n      0x00\n        /* \"contracts/VerifySig.sol\":1230:1242  _messageHash */\n      dup2\n        /* \"contracts/VerifySig.sol\":1136:1260  abi.encodePacked(... */\n      add(0x20, mload(0x40))\n      tag_45\n      swap2\n      swap1\n      tag_46\n      jump\t// in\n    tag_45:\n      mload(0x40)\n      0x20\n      dup2\n      dup4\n      sub\n      sub\n      dup2\n      mstore\n      swap1\n      0x40\n      mstore\n        /* \"contracts/VerifySig.sol\":1109:1274  keccak256(... */\n      dup1\n      mload\n      swap1\n      0x20\n      add\n      keccak256\n        /* \"contracts/VerifySig.sol\":1090:1274  return... */\n      swap1\n      pop\n        /* \"contracts/VerifySig.sol\":967:1281  function getEthSignedMessageHash(bytes32 _messageHash)... */\n      swap2\n      swap1\n      pop\n      jump\t// out\n        /* \"contracts/VerifySig.sol\":1598:2007  function _split(bytes memory _signature)... */\n    tag_32:\n        /* \"contracts/VerifySig.sol\":1699:1708  bytes32 r */\n      0x00\n        /* \"contracts/VerifySig.sol\":1722:1731  bytes32 s */\n      dup1\n        /* \"contracts/VerifySig.sol\":1745:1752  uint8 v */\n      0x00\n        /* \"contracts/VerifySig.sol\":1806:1808  65 */\n      0x41\n        /* \"contracts/VerifySig.sol\":1785:1795  _signature */\n      dup5\n        /* \"contracts/VerifySig.sol\":1785:1802  _signature.length */\n      mload\n        /* \"contracts/VerifySig.sol\":1785:1808  _signature.length == 65 */\n      eq\n        /* \"contracts/VerifySig.sol\":1777:1830  require(_signature.length == 65, \"invalid signature\") */\n      tag_48\n      jumpi\n      mload(0x40)\n      0x08c379a000000000000000000000000000000000000000000000000000000000\n      dup2\n      mstore\n      0x04\n      add\n      tag_49\n      swap1\n      tag_50\n      jump\t// in\n    tag_49:\n      mload(0x40)\n      dup1\n      swap2\n      sub\n      swap1\n      revert\n    tag_48:\n        /* \"contracts/VerifySig.sol\":1890:1892  32 */\n      0x20\n        /* \"contracts/VerifySig.sol\":1878:1888  _signature */\n      dup5\n        /* \"contracts/VerifySig.sol\":1874:1893  add(_signature, 32) */\n      add\n        /* \"contracts/VerifySig.sol\":1868:1894  mload(add(_signature, 32)) */\n      mload\n        /* \"contracts/VerifySig.sol\":1863:1894  r := mload(add(_signature, 32)) */\n      swap3\n      pop\n        /* \"contracts/VerifySig.sol\":1934:1936  64 */\n      0x40\n        /* \"contracts/VerifySig.sol\":1922:1932  _signature */\n      dup5\n        /* \"contracts/VerifySig.sol\":1918:1937  add(_signature, 64) */\n      add\n        /* \"contracts/VerifySig.sol\":1912:1938  mload(add(_signature, 64)) */\n      mload\n        /* \"contracts/VerifySig.sol\":1907:1938  s := mload(add(_signature, 64)) */\n      swap2\n      pop\n        /* \"contracts/VerifySig.sol\":1986:1988  96 */\n      0x60\n        /* \"contracts/VerifySig.sol\":1974:1984  _signature */\n      dup5\n        /* \"contracts/VerifySig.sol\":1970:1989  add(_signature, 96) */\n      add\n        /* \"contracts/VerifySig.sol\":1964:1990  mload(add(_signature, 96)) */\n      mload\n        /* \"contracts/VerifySig.sol\":1961:1962  0 */\n      0x00\n        /* \"contracts/VerifySig.sol\":1956:1991  byte(0, mload(add(_signature, 96))) */\n      byte\n        /* \"contracts/VerifySig.sol\":1951:1991  v := byte(0, mload(add(_signature, 96))) */\n      swap1\n      pop\n        /* \"contracts/VerifySig.sol\":1598:2007  function _split(bytes memory _signature)... */\n      swap2\n      swap4\n      swap1\n      swap3\n      pop\n      jump\t// out\n        /* \"#utility.yul\":7:417   */\n    tag_52:\n        /* \"#utility.yul\":84:89   */\n      0x00\n        /* \"#utility.yul\":109:174   */\n      tag_54\n        /* \"#utility.yul\":125:173   */\n      tag_55\n        /* \"#utility.yul\":166:172   */\n      dup5\n        /* \"#utility.yul\":125:173   */\n      tag_56\n      jump\t// in\n    tag_55:\n        /* \"#utility.yul\":109:174   */\n      tag_57\n      jump\t// in\n    tag_54:\n        /* \"#utility.yul\":100:174   */\n      swap1\n      pop\n        /* \"#utility.yul\":197:203   */\n      dup3\n        /* \"#utility.yul\":190:195   */\n      dup2\n        /* \"#utility.yul\":183:204   */\n      mstore\n        /* \"#utility.yul\":235:239   */\n      0x20\n        /* \"#utility.yul\":228:233   */\n      dup2\n        /* \"#utility.yul\":224:240   */\n      add\n        /* \"#utility.yul\":273:276   */\n      dup5\n        /* \"#utility.yul\":264:270   */\n      dup5\n        /* \"#utility.yul\":259:262   */\n      dup5\n        /* \"#utility.yul\":255:271   */\n      add\n        /* \"#utility.yul\":252:277   */\n      gt\n        /* \"#utility.yul\":249:251   */\n      iszero\n      tag_58\n      jumpi\n        /* \"#utility.yul\":280:359   */\n      tag_59\n      tag_60\n      jump\t// in\n    tag_59:\n        /* \"#utility.yul\":249:251   */\n    tag_58:\n        /* \"#utility.yul\":370:411   */\n      tag_61\n        /* \"#utility.yul\":404:410   */\n      dup5\n        /* \"#utility.yul\":399:402   */\n      dup3\n        /* \"#utility.yul\":394:397   */\n      dup6\n        /* \"#utility.yul\":370:411   */\n      tag_62\n      jump\t// in\n    tag_61:\n        /* \"#utility.yul\":90:417   */\n      pop\n      swap4\n      swap3\n      pop\n      pop\n      pop\n      jump\t// out\n        /* \"#utility.yul\":423:835   */\n    tag_63:\n        /* \"#utility.yul\":501:506   */\n      0x00\n        /* \"#utility.yul\":526:592   */\n      tag_65\n        /* \"#utility.yul\":542:591   */\n      tag_66\n        /* \"#utility.yul\":584:590   */\n      dup5\n        /* \"#utility.yul\":542:591   */\n      tag_67\n      jump\t// in\n    tag_66:\n        /* \"#utility.yul\":526:592   */\n      tag_57\n      jump\t// in\n    tag_65:\n        /* \"#utility.yul\":517:592   */\n      swap1\n      pop\n        /* \"#utility.yul\":615:621   */\n      dup3\n        /* \"#utility.yul\":608:613   */\n      dup2\n        /* \"#utility.yul\":601:622   */\n      mstore\n        /* \"#utility.yul\":653:657   */\n      0x20\n        /* \"#utility.yul\":646:651   */\n      dup2\n        /* \"#utility.yul\":642:658   */\n      add\n        /* \"#utility.yul\":691:694   */\n      dup5\n        /* \"#utility.yul\":682:688   */\n      dup5\n        /* \"#utility.yul\":677:680   */\n      dup5\n        /* \"#utility.yul\":673:689   */\n      add\n        /* \"#utility.yul\":670:695   */\n      gt\n        /* \"#utility.yul\":667:669   */\n      iszero\n      tag_68\n      jumpi\n        /* \"#utility.yul\":698:777   */\n      tag_69\n      tag_60\n      jump\t// in\n    tag_69:\n        /* \"#utility.yul\":667:669   */\n    tag_68:\n        /* \"#utility.yul\":788:829   */\n      tag_70\n        /* \"#utility.yul\":822:828   */\n      dup5\n        /* \"#utility.yul\":817:820   */\n      dup3\n        /* \"#utility.yul\":812:815   */\n      dup6\n        /* \"#utility.yul\":788:829   */\n      tag_62\n      jump\t// in\n    tag_70:\n        /* \"#utility.yul\":507:835   */\n      pop\n      swap4\n      swap3\n      pop\n      pop\n      pop\n      jump\t// out\n        /* \"#utility.yul\":841:980   */\n    tag_71:\n        /* \"#utility.yul\":887:892   */\n      0x00\n        /* \"#utility.yul\":925:931   */\n      dup2\n        /* \"#utility.yul\":912:932   */\n      calldataload\n        /* \"#utility.yul\":903:932   */\n      swap1\n      pop\n        /* \"#utility.yul\":941:974   */\n      tag_73\n        /* \"#utility.yul\":968:973   */\n      dup2\n        /* \"#utility.yul\":941:974   */\n      tag_74\n      jump\t// in\n    tag_73:\n        /* \"#utility.yul\":893:980   */\n      swap3\n      swap2\n      pop\n      pop\n      jump\t// out\n        /* \"#utility.yul\":986:1125   */\n    tag_75:\n        /* \"#utility.yul\":1032:1037   */\n      0x00\n        /* \"#utility.yul\":1070:1076   */\n      dup2\n        /* \"#utility.yul\":1057:1077   */\n      calldataload\n        /* \"#utility.yul\":1048:1077   */\n      swap1\n      pop\n        /* \"#utility.yul\":1086:1119   */\n      tag_77\n        /* \"#utility.yul\":1113:1118   */\n      dup2\n        /* \"#utility.yul\":1086:1119   */\n      tag_78\n      jump\t// in\n    tag_77:\n        /* \"#utility.yul\":1038:1125   */\n      swap3\n      swap2\n      pop\n      pop\n      jump\t// out\n        /* \"#utility.yul\":1144:1482   */\n    tag_79:\n        /* \"#utility.yul\":1199:1204   */\n      0x00\n        /* \"#utility.yul\":1248:1251   */\n      dup3\n        /* \"#utility.yul\":1241:1245   */\n      0x1f\n        /* \"#utility.yul\":1233:1239   */\n      dup4\n        /* \"#utility.yul\":1229:1246   */\n      add\n        /* \"#utility.yul\":1225:1252   */\n      slt\n        /* \"#utility.yul\":1215:1217   */\n      tag_81\n      jumpi\n        /* \"#utility.yul\":1256:1335   */\n      tag_82\n      tag_83\n      jump\t// in\n    tag_82:\n        /* \"#utility.yul\":1215:1217   */\n    tag_81:\n        /* \"#utility.yul\":1373:1379   */\n      dup2\n        /* \"#utility.yul\":1360:1380   */\n      calldataload\n        /* \"#utility.yul\":1398:1476   */\n      tag_84\n        /* \"#utility.yul\":1472:1475   */\n      dup5\n        /* \"#utility.yul\":1464:1470   */\n      dup3\n        /* \"#utility.yul\":1457:1461   */\n      0x20\n        /* \"#utility.yul\":1449:1455   */\n      dup7\n        /* \"#utility.yul\":1445:1462   */\n      add\n        /* \"#utility.yul\":1398:1476   */\n      tag_52\n      jump\t// in\n    tag_84:\n        /* \"#utility.yul\":1389:1476   */\n      swap2\n      pop\n        /* \"#utility.yul\":1205:1482   */\n      pop\n      swap3\n      swap2\n      pop\n      pop\n      jump\t// out\n        /* \"#utility.yul\":1502:1842   */\n    tag_85:\n        /* \"#utility.yul\":1558:1563   */\n      0x00\n        /* \"#utility.yul\":1607:1610   */\n      dup3\n        /* \"#utility.yul\":1600:1604   */\n      0x1f\n        /* \"#utility.yul\":1592:1598   */\n      dup4\n        /* \"#utility.yul\":1588:1605   */\n      add\n        /* \"#utility.yul\":1584:1611   */\n      slt\n        /* \"#utility.yul\":1574:1576   */\n      tag_87\n      jumpi\n        /* \"#utility.yul\":1615:1694   */\n      tag_88\n      tag_83\n      jump\t// in\n    tag_88:\n        /* \"#utility.yul\":1574:1576   */\n    tag_87:\n        /* \"#utility.yul\":1732:1738   */\n      dup2\n        /* \"#utility.yul\":1719:1739   */\n      calldataload\n        /* \"#utility.yul\":1757:1836   */\n      tag_89\n        /* \"#utility.yul\":1832:1835   */\n      dup5\n        /* \"#utility.yul\":1824:1830   */\n      dup3\n        /* \"#utility.yul\":1817:1821   */\n      0x20\n        /* \"#utility.yul\":1809:1815   */\n      dup7\n        /* \"#utility.yul\":1805:1822   */\n      add\n        /* \"#utility.yul\":1757:1836   */\n      tag_63\n      jump\t// in\n    tag_89:\n        /* \"#utility.yul\":1748:1836   */\n      swap2\n      pop\n        /* \"#utility.yul\":1564:1842   */\n      pop\n      swap3\n      swap2\n      pop\n      pop\n      jump\t// out\n        /* \"#utility.yul\":1848:1987   */\n    tag_90:\n        /* \"#utility.yul\":1894:1899   */\n      0x00\n        /* \"#utility.yul\":1932:1938   */\n      dup2\n        /* \"#utility.yul\":1919:1939   */\n      calldataload\n        /* \"#utility.yul\":1910:1939   */\n      swap1\n      pop\n        /* \"#utility.yul\":1948:1981   */\n      tag_92\n        /* \"#utility.yul\":1975:1980   */\n      dup2\n        /* \"#utility.yul\":1948:1981   */\n      tag_93\n      jump\t// in\n    tag_92:\n        /* \"#utility.yul\":1900:1987   */\n      swap3\n      swap2\n      pop\n      pop\n      jump\t// out\n        /* \"#utility.yul\":1993:3262   */\n    tag_15:\n        /* \"#utility.yul\":2107:2113   */\n      0x00\n        /* \"#utility.yul\":2115:2121   */\n      dup1\n        /* \"#utility.yul\":2123:2129   */\n      0x00\n        /* \"#utility.yul\":2131:2137   */\n      dup1\n        /* \"#utility.yul\":2139:2145   */\n      0x00\n        /* \"#utility.yul\":2188:2191   */\n      0xa0\n        /* \"#utility.yul\":2176:2185   */\n      dup7\n        /* \"#utility.yul\":2167:2174   */\n      dup9\n        /* \"#utility.yul\":2163:2186   */\n      sub\n        /* \"#utility.yul\":2159:2192   */\n      slt\n        /* \"#utility.yul\":2156:2158   */\n      iszero\n      tag_95\n      jumpi\n        /* \"#utility.yul\":2195:2274   */\n      tag_96\n      tag_97\n      jump\t// in\n    tag_96:\n        /* \"#utility.yul\":2156:2158   */\n    tag_95:\n        /* \"#utility.yul\":2315:2316   */\n      0x00\n        /* \"#utility.yul\":2340:2393   */\n      tag_98\n        /* \"#utility.yul\":2385:2392   */\n      dup9\n        /* \"#utility.yul\":2376:2382   */\n      dup3\n        /* \"#utility.yul\":2365:2374   */\n      dup10\n        /* \"#utility.yul\":2361:2383   */\n      add\n        /* \"#utility.yul\":2340:2393   */\n      tag_71\n      jump\t// in\n    tag_98:\n        /* \"#utility.yul\":2330:2393   */\n      swap6\n      pop\n        /* \"#utility.yul\":2286:2403   */\n      pop\n        /* \"#utility.yul\":2470:2472   */\n      0x20\n        /* \"#utility.yul\":2459:2468   */\n      dup7\n        /* \"#utility.yul\":2455:2473   */\n      add\n        /* \"#utility.yul\":2442:2474   */\n      calldataload\n        /* \"#utility.yul\":2501:2519   */\n      0xffffffffffffffff\n        /* \"#utility.yul\":2493:2499   */\n      dup2\n        /* \"#utility.yul\":2490:2520   */\n      gt\n        /* \"#utility.yul\":2487:2489   */\n      iszero\n      tag_99\n      jumpi\n        /* \"#utility.yul\":2523:2602   */\n      tag_100\n      tag_101\n      jump\t// in\n    tag_100:\n        /* \"#utility.yul\":2487:2489   */\n    tag_99:\n        /* \"#utility.yul\":2628:2691   */\n      tag_102\n        /* \"#utility.yul\":2683:2690   */\n      dup9\n        /* \"#utility.yul\":2674:2680   */\n      dup3\n        /* \"#utility.yul\":2663:2672   */\n      dup10\n        /* \"#utility.yul\":2659:2681   */\n      add\n        /* \"#utility.yul\":2628:2691   */\n      tag_85\n      jump\t// in\n    tag_102:\n        /* \"#utility.yul\":2618:2691   */\n      swap5\n      pop\n        /* \"#utility.yul\":2413:2701   */\n      pop\n        /* \"#utility.yul\":2740:2742   */\n      0x40\n        /* \"#utility.yul\":2766:2819   */\n      tag_103\n        /* \"#utility.yul\":2811:2818   */\n      dup9\n        /* \"#utility.yul\":2802:2808   */\n      dup3\n        /* \"#utility.yul\":2791:2800   */\n      dup10\n        /* \"#utility.yul\":2787:2809   */\n      add\n        /* \"#utility.yul\":2766:2819   */\n      tag_90\n      jump\t// in\n    tag_103:\n        /* \"#utility.yul\":2756:2819   */\n      swap4\n      pop\n        /* \"#utility.yul\":2711:2829   */\n      pop\n        /* \"#utility.yul\":2868:2870   */\n      0x60\n        /* \"#utility.yul\":2894:2947   */\n      tag_104\n        /* \"#utility.yul\":2939:2946   */\n      dup9\n        /* \"#utility.yul\":2930:2936   */\n      dup3\n        /* \"#utility.yul\":2919:2928   */\n      dup10\n        /* \"#utility.yul\":2915:2937   */\n      add\n        /* \"#utility.yul\":2894:2947   */\n      tag_90\n      jump\t// in\n    tag_104:\n        /* \"#utility.yul\":2884:2947   */\n      swap3\n      pop\n        /* \"#utility.yul\":2839:2957   */\n      pop\n        /* \"#utility.yul\":3024:3027   */\n      0x80\n        /* \"#utility.yul\":3013:3022   */\n      dup7\n        /* \"#utility.yul\":3009:3028   */\n      add\n        /* \"#utility.yul\":2996:3029   */\n      calldataload\n        /* \"#utility.yul\":3056:3074   */\n      0xffffffffffffffff\n        /* \"#utility.yul\":3048:3054   */\n      dup2\n        /* \"#utility.yul\":3045:3075   */\n      gt\n        /* \"#utility.yul\":3042:3044   */\n      iszero\n      tag_105\n      jumpi\n        /* \"#utility.yul\":3078:3157   */\n      tag_106\n      tag_101\n      jump\t// in\n    tag_106:\n        /* \"#utility.yul\":3042:3044   */\n    tag_105:\n        /* \"#utility.yul\":3183:3245   */\n      tag_107\n        /* \"#utility.yul\":3237:3244   */\n      dup9\n        /* \"#utility.yul\":3228:3234   */\n      dup3\n        /* \"#utility.yul\":3217:3226   */\n      dup10\n        /* \"#utility.yul\":3213:3235   */\n      add\n        /* \"#utility.yul\":3183:3245   */\n      tag_79\n      jump\t// in\n    tag_107:\n        /* \"#utility.yul\":3173:3245   */\n      swap2\n      pop\n        /* \"#utility.yul\":2967:3255   */\n      pop\n        /* \"#utility.yul\":2146:3262   */\n      swap3\n      swap6\n      pop\n      swap3\n      swap6\n      swap1\n      swap4\n      pop\n      jump\t// out\n        /* \"#utility.yul\":3268:3597   */\n    tag_27:\n        /* \"#utility.yul\":3327:3333   */\n      0x00\n        /* \"#utility.yul\":3376:3378   */\n      0x20\n        /* \"#utility.yul\":3364:3373   */\n      dup3\n        /* \"#utility.yul\":3355:3362   */\n      dup5\n        /* \"#utility.yul\":3351:3374   */\n      sub\n        /* \"#utility.yul\":3347:3379   */\n      slt\n        /* \"#utility.yul\":3344:3346   */\n      iszero\n      tag_109\n      jumpi\n        /* \"#utility.yul\":3382:3461   */\n      tag_110\n      tag_97\n      jump\t// in\n    tag_110:\n        /* \"#utility.yul\":3344:3346   */\n    tag_109:\n        /* \"#utility.yul\":3502:3503   */\n      0x00\n        /* \"#utility.yul\":3527:3580   */\n      tag_111\n        /* \"#utility.yul\":3572:3579   */\n      dup5\n        /* \"#utility.yul\":3563:3569   */\n      dup3\n        /* \"#utility.yul\":3552:3561   */\n      dup6\n        /* \"#utility.yul\":3548:3570   */\n      add\n        /* \"#utility.yul\":3527:3580   */\n      tag_75\n      jump\t// in\n    tag_111:\n        /* \"#utility.yul\":3517:3580   */\n      swap2\n      pop\n        /* \"#utility.yul\":3473:3590   */\n      pop\n        /* \"#utility.yul\":3334:3597   */\n      swap3\n      swap2\n      pop\n      pop\n      jump\t// out\n        /* \"#utility.yul\":3603:4255   */\n    tag_9:\n        /* \"#utility.yul\":3680:3686   */\n      0x00\n        /* \"#utility.yul\":3688:3694   */\n      dup1\n        /* \"#utility.yul\":3737:3739   */\n      0x40\n        /* \"#utility.yul\":3725:3734   */\n      dup4\n        /* \"#utility.yul\":3716:3723   */\n      dup6\n        /* \"#utility.yul\":3712:3735   */\n      sub\n        /* \"#utility.yul\":3708:3740   */\n      slt\n        /* \"#utility.yul\":3705:3707   */\n      iszero\n      tag_113\n      jumpi\n        /* \"#utility.yul\":3743:3822   */\n      tag_114\n      tag_97\n      jump\t// in\n    tag_114:\n        /* \"#utility.yul\":3705:3707   */\n    tag_113:\n        /* \"#utility.yul\":3863:3864   */\n      0x00\n        /* \"#utility.yul\":3888:3941   */\n      tag_115\n        /* \"#utility.yul\":3933:3940   */\n      dup6\n        /* \"#utility.yul\":3924:3930   */\n      dup3\n        /* \"#utility.yul\":3913:3922   */\n      dup7\n        /* \"#utility.yul\":3909:3931   */\n      add\n        /* \"#utility.yul\":3888:3941   */\n      tag_75\n      jump\t// in\n    tag_115:\n        /* \"#utility.yul\":3878:3941   */\n      swap3\n      pop\n        /* \"#utility.yul\":3834:3951   */\n      pop\n        /* \"#utility.yul\":4018:4020   */\n      0x20\n        /* \"#utility.yul\":4007:4016   */\n      dup4\n        /* \"#utility.yul\":4003:4021   */\n      add\n        /* \"#utility.yul\":3990:4022   */\n      calldataload\n        /* \"#utility.yul\":4049:4067   */\n      0xffffffffffffffff\n        /* \"#utility.yul\":4041:4047   */\n      dup2\n        /* \"#utility.yul\":4038:4068   */\n      gt\n        /* \"#utility.yul\":4035:4037   */\n      iszero\n      tag_116\n      jumpi\n        /* \"#utility.yul\":4071:4150   */\n      tag_117\n      tag_101\n      jump\t// in\n    tag_117:\n        /* \"#utility.yul\":4035:4037   */\n    tag_116:\n        /* \"#utility.yul\":4176:4238   */\n      tag_118\n        /* \"#utility.yul\":4230:4237   */\n      dup6\n        /* \"#utility.yul\":4221:4227   */\n      dup3\n        /* \"#utility.yul\":4210:4219   */\n      dup7\n        /* \"#utility.yul\":4206:4228   */\n      add\n        /* \"#utility.yul\":4176:4238   */\n      tag_79\n      jump\t// in\n    tag_118:\n        /* \"#utility.yul\":4166:4238   */\n      swap2\n      pop\n        /* \"#utility.yul\":3961:4248   */\n      pop\n        /* \"#utility.yul\":3695:4255   */\n      swap3\n      pop\n      swap3\n      swap1\n      pop\n      jump\t// out\n        /* \"#utility.yul\":4261:5060   */\n    tag_21:\n        /* \"#utility.yul\":4348:4354   */\n      0x00\n        /* \"#utility.yul\":4356:4362   */\n      dup1\n        /* \"#utility.yul\":4364:4370   */\n      0x00\n        /* \"#utility.yul\":4413:4415   */\n      0x60\n        /* \"#utility.yul\":4401:4410   */\n      dup5\n        /* \"#utility.yul\":4392:4399   */\n      dup7\n        /* \"#utility.yul\":4388:4411   */\n      sub\n        /* \"#utility.yul\":4384:4416   */\n      slt\n        /* \"#utility.yul\":4381:4383   */\n      iszero\n      tag_120\n      jumpi\n        /* \"#utility.yul\":4419:4498   */\n      tag_121\n      tag_97\n      jump\t// in\n    tag_121:\n        /* \"#utility.yul\":4381:4383   */\n    tag_120:\n        /* \"#utility.yul\":4567:4568   */\n      0x00\n        /* \"#utility.yul\":4556:4565   */\n      dup5\n        /* \"#utility.yul\":4552:4569   */\n      add\n        /* \"#utility.yul\":4539:4570   */\n      calldataload\n        /* \"#utility.yul\":4597:4615   */\n      0xffffffffffffffff\n        /* \"#utility.yul\":4589:4595   */\n      dup2\n        /* \"#utility.yul\":4586:4616   */\n      gt\n        /* \"#utility.yul\":4583:4585   */\n      iszero\n      tag_122\n      jumpi\n        /* \"#utility.yul\":4619:4698   */\n      tag_123\n      tag_101\n      jump\t// in\n    tag_123:\n        /* \"#utility.yul\":4583:4585   */\n    tag_122:\n        /* \"#utility.yul\":4724:4787   */\n      tag_124\n        /* \"#utility.yul\":4779:4786   */\n      dup7\n        /* \"#utility.yul\":4770:4776   */\n      dup3\n        /* \"#utility.yul\":4759:4768   */\n      dup8\n        /* \"#utility.yul\":4755:4777   */\n      add\n        /* \"#utility.yul\":4724:4787   */\n      tag_85\n      jump\t// in\n    tag_124:\n        /* \"#utility.yul\":4714:4787   */\n      swap4\n      pop\n        /* \"#utility.yul\":4510:4797   */\n      pop\n        /* \"#utility.yul\":4836:4838   */\n      0x20\n        /* \"#utility.yul\":4862:4915   */\n      tag_125\n        /* \"#utility.yul\":4907:4914   */\n      dup7\n        /* \"#utility.yul\":4898:4904   */\n      dup3\n        /* \"#utility.yul\":4887:4896   */\n      dup8\n        /* \"#utility.yul\":4883:4905   */\n      add\n        /* \"#utility.yul\":4862:4915   */\n      tag_90\n      jump\t// in\n    tag_125:\n        /* \"#utility.yul\":4852:4915   */\n      swap3\n      pop\n        /* \"#utility.yul\":4807:4925   */\n      pop\n        /* \"#utility.yul\":4964:4966   */\n      0x40\n        /* \"#utility.yul\":4990:5043   */\n      tag_126\n        /* \"#utility.yul\":5035:5042   */\n      dup7\n        /* \"#utility.yul\":5026:5032   */\n      dup3\n        /* \"#utility.yul\":5015:5024   */\n      dup8\n        /* \"#utility.yul\":5011:5033   */\n      add\n        /* \"#utility.yul\":4990:5043   */\n      tag_90\n      jump\t// in\n    tag_126:\n        /* \"#utility.yul\":4980:5043   */\n      swap2\n      pop\n        /* \"#utility.yul\":4935:5053   */\n      pop\n        /* \"#utility.yul\":4371:5060   */\n      swap3\n      pop\n      swap3\n      pop\n      swap3\n      jump\t// out\n        /* \"#utility.yul\":5066:5184   */\n    tag_127:\n        /* \"#utility.yul\":5153:5177   */\n      tag_129\n        /* \"#utility.yul\":5171:5176   */\n      dup2\n        /* \"#utility.yul\":5153:5177   */\n      tag_130\n      jump\t// in\n    tag_129:\n        /* \"#utility.yul\":5148:5151   */\n      dup3\n        /* \"#utility.yul\":5141:5178   */\n      mstore\n        /* \"#utility.yul\":5131:5184   */\n      pop\n      pop\n      jump\t// out\n        /* \"#utility.yul\":5190:5299   */\n    tag_131:\n        /* \"#utility.yul\":5271:5292   */\n      tag_133\n        /* \"#utility.yul\":5286:5291   */\n      dup2\n        /* \"#utility.yul\":5271:5292   */\n      tag_134\n      jump\t// in\n    tag_133:\n        /* \"#utility.yul\":5266:5269   */\n      dup3\n        /* \"#utility.yul\":5259:5293   */\n      mstore\n        /* \"#utility.yul\":5249:5299   */\n      pop\n      pop\n      jump\t// out\n        /* \"#utility.yul\":5305:5423   */\n    tag_135:\n        /* \"#utility.yul\":5392:5416   */\n      tag_137\n        /* \"#utility.yul\":5410:5415   */\n      dup2\n        /* \"#utility.yul\":5392:5416   */\n      tag_138\n      jump\t// in\n    tag_137:\n        /* \"#utility.yul\":5387:5390   */\n      dup3\n        /* \"#utility.yul\":5380:5417   */\n      mstore\n        /* \"#utility.yul\":5370:5423   */\n      pop\n      pop\n      jump\t// out\n        /* \"#utility.yul\":5429:5586   */\n    tag_139:\n        /* \"#utility.yul\":5534:5579   */\n      tag_141\n        /* \"#utility.yul\":5554:5578   */\n      tag_142\n        /* \"#utility.yul\":5572:5577   */\n      dup3\n        /* \"#utility.yul\":5554:5578   */\n      tag_138\n      jump\t// in\n    tag_142:\n        /* \"#utility.yul\":5534:5579   */\n      tag_143\n      jump\t// in\n    tag_141:\n        /* \"#utility.yul\":5529:5532   */\n      dup3\n        /* \"#utility.yul\":5522:5580   */\n      mstore\n        /* \"#utility.yul\":5512:5586   */\n      pop\n      pop\n      jump\t// out\n        /* \"#utility.yul\":5592:5969   */\n    tag_144:\n        /* \"#utility.yul\":5698:5701   */\n      0x00\n        /* \"#utility.yul\":5726:5765   */\n      tag_146\n        /* \"#utility.yul\":5759:5764   */\n      dup3\n        /* \"#utility.yul\":5726:5765   */\n      tag_147\n      jump\t// in\n    tag_146:\n        /* \"#utility.yul\":5781:5870   */\n      tag_148\n        /* \"#utility.yul\":5863:5869   */\n      dup2\n        /* \"#utility.yul\":5858:5861   */\n      dup6\n        /* \"#utility.yul\":5781:5870   */\n      tag_149\n      jump\t// in\n    tag_148:\n        /* \"#utility.yul\":5774:5870   */\n      swap4\n      pop\n        /* \"#utility.yul\":5879:5931   */\n      tag_150\n        /* \"#utility.yul\":5924:5930   */\n      dup2\n        /* \"#utility.yul\":5919:5922   */\n      dup6\n        /* \"#utility.yul\":5912:5916   */\n      0x20\n        /* \"#utility.yul\":5905:5910   */\n      dup7\n        /* \"#utility.yul\":5901:5917   */\n      add\n        /* \"#utility.yul\":5879:5931   */\n      tag_151\n      jump\t// in\n    tag_150:\n        /* \"#utility.yul\":5956:5962   */\n      dup1\n        /* \"#utility.yul\":5951:5954   */\n      dup5\n        /* \"#utility.yul\":5947:5963   */\n      add\n        /* \"#utility.yul\":5940:5963   */\n      swap2\n      pop\n        /* \"#utility.yul\":5702:5969   */\n      pop\n      swap3\n      swap2\n      pop\n      pop\n      jump\t// out\n        /* \"#utility.yul\":5975:6341   */\n    tag_152:\n        /* \"#utility.yul\":6117:6120   */\n      0x00\n        /* \"#utility.yul\":6138:6205   */\n      tag_154\n        /* \"#utility.yul\":6202:6204   */\n      0x11\n        /* \"#utility.yul\":6197:6200   */\n      dup4\n        /* \"#utility.yul\":6138:6205   */\n      tag_155\n      jump\t// in\n    tag_154:\n        /* \"#utility.yul\":6131:6205   */\n      swap2\n      pop\n        /* \"#utility.yul\":6214:6307   */\n      tag_156\n        /* \"#utility.yul\":6303:6306   */\n      dup3\n        /* \"#utility.yul\":6214:6307   */\n      tag_157\n      jump\t// in\n    tag_156:\n        /* \"#utility.yul\":6332:6334   */\n      0x20\n        /* \"#utility.yul\":6327:6330   */\n      dup3\n        /* \"#utility.yul\":6323:6335   */\n      add\n        /* \"#utility.yul\":6316:6335   */\n      swap1\n      pop\n        /* \"#utility.yul\":6121:6341   */\n      swap2\n      swap1\n      pop\n      jump\t// out\n        /* \"#utility.yul\":6347:6749   */\n    tag_158:\n        /* \"#utility.yul\":6507:6510   */\n      0x00\n        /* \"#utility.yul\":6528:6613   */\n      tag_160\n        /* \"#utility.yul\":6610:6612   */\n      0x1c\n        /* \"#utility.yul\":6605:6608   */\n      dup4\n        /* \"#utility.yul\":6528:6613   */\n      tag_149\n      jump\t// in\n    tag_160:\n        /* \"#utility.yul\":6521:6613   */\n      swap2\n      pop\n        /* \"#utility.yul\":6622:6715   */\n      tag_161\n        /* \"#utility.yul\":6711:6714   */\n      dup3\n        /* \"#utility.yul\":6622:6715   */\n      tag_162\n      jump\t// in\n    tag_161:\n        /* \"#utility.yul\":6740:6742   */\n      0x1c\n        /* \"#utility.yul\":6735:6738   */\n      dup3\n        /* \"#utility.yul\":6731:6743   */\n      add\n        /* \"#utility.yul\":6724:6743   */\n      swap1\n      pop\n        /* \"#utility.yul\":6511:6749   */\n      swap2\n      swap1\n      pop\n      jump\t// out\n        /* \"#utility.yul\":6755:6912   */\n    tag_163:\n        /* \"#utility.yul\":6860:6905   */\n      tag_165\n        /* \"#utility.yul\":6880:6904   */\n      tag_166\n        /* \"#utility.yul\":6898:6903   */\n      dup3\n        /* \"#utility.yul\":6880:6904   */\n      tag_167\n      jump\t// in\n    tag_166:\n        /* \"#utility.yul\":6860:6905   */\n      tag_168\n      jump\t// in\n    tag_165:\n        /* \"#utility.yul\":6855:6858   */\n      dup3\n        /* \"#utility.yul\":6848:6906   */\n      mstore\n        /* \"#utility.yul\":6838:6912   */\n      pop\n      pop\n      jump\t// out\n        /* \"#utility.yul\":6918:7030   */\n    tag_169:\n        /* \"#utility.yul\":7001:7023   */\n      tag_171\n        /* \"#utility.yul\":7017:7022   */\n      dup2\n        /* \"#utility.yul\":7001:7023   */\n      tag_172\n      jump\t// in\n    tag_171:\n        /* \"#utility.yul\":6996:6999   */\n      dup3\n        /* \"#utility.yul\":6989:7024   */\n      mstore\n        /* \"#utility.yul\":6979:7030   */\n      pop\n      pop\n      jump\t// out\n        /* \"#utility.yul\":7036:7593   */\n    tag_43:\n        /* \"#utility.yul\":7224:7227   */\n      0x00\n        /* \"#utility.yul\":7246:7341   */\n      tag_174\n        /* \"#utility.yul\":7337:7340   */\n      dup3\n        /* \"#utility.yul\":7328:7334   */\n      dup7\n        /* \"#utility.yul\":7246:7341   */\n      tag_144\n      jump\t// in\n    tag_174:\n        /* \"#utility.yul\":7239:7341   */\n      swap2\n      pop\n        /* \"#utility.yul\":7351:7426   */\n      tag_175\n        /* \"#utility.yul\":7422:7425   */\n      dup3\n        /* \"#utility.yul\":7413:7419   */\n      dup6\n        /* \"#utility.yul\":7351:7426   */\n      tag_163\n      jump\t// in\n    tag_175:\n        /* \"#utility.yul\":7451:7453   */\n      0x20\n        /* \"#utility.yul\":7446:7449   */\n      dup3\n        /* \"#utility.yul\":7442:7454   */\n      add\n        /* \"#utility.yul\":7435:7454   */\n      swap2\n      pop\n        /* \"#utility.yul\":7464:7539   */\n      tag_176\n        /* \"#utility.yul\":7535:7538   */\n      dup3\n        /* \"#utility.yul\":7526:7532   */\n      dup5\n        /* \"#utility.yul\":7464:7539   */\n      tag_163\n      jump\t// in\n    tag_176:\n        /* \"#utility.yul\":7564:7566   */\n      0x20\n        /* \"#utility.yul\":7559:7562   */\n      dup3\n        /* \"#utility.yul\":7555:7567   */\n      add\n        /* \"#utility.yul\":7548:7567   */\n      swap2\n      pop\n        /* \"#utility.yul\":7584:7587   */\n      dup2\n        /* \"#utility.yul\":7577:7587   */\n      swap1\n      pop\n        /* \"#utility.yul\":7228:7593   */\n      swap5\n      swap4\n      pop\n      pop\n      pop\n      pop\n      jump\t// out\n        /* \"#utility.yul\":7599:8121   */\n    tag_46:\n        /* \"#utility.yul\":7812:7815   */\n      0x00\n        /* \"#utility.yul\":7834:7982   */\n      tag_178\n        /* \"#utility.yul\":7978:7981   */\n      dup3\n        /* \"#utility.yul\":7834:7982   */\n      tag_158\n      jump\t// in\n    tag_178:\n        /* \"#utility.yul\":7827:7982   */\n      swap2\n      pop\n        /* \"#utility.yul\":7992:8067   */\n      tag_179\n        /* \"#utility.yul\":8063:8066   */\n      dup3\n        /* \"#utility.yul\":8054:8060   */\n      dup5\n        /* \"#utility.yul\":7992:8067   */\n      tag_139\n      jump\t// in\n    tag_179:\n        /* \"#utility.yul\":8092:8094   */\n      0x20\n        /* \"#utility.yul\":8087:8090   */\n      dup3\n        /* \"#utility.yul\":8083:8095   */\n      add\n        /* \"#utility.yul\":8076:8095   */\n      swap2\n      pop\n        /* \"#utility.yul\":8112:8115   */\n      dup2\n        /* \"#utility.yul\":8105:8115   */\n      swap1\n      pop\n        /* \"#utility.yul\":7816:8121   */\n      swap3\n      swap2\n      pop\n      pop\n      jump\t// out\n        /* \"#utility.yul\":8127:8349   */\n    tag_12:\n        /* \"#utility.yul\":8220:8224   */\n      0x00\n        /* \"#utility.yul\":8258:8260   */\n      0x20\n        /* \"#utility.yul\":8247:8256   */\n      dup3\n        /* \"#utility.yul\":8243:8261   */\n      add\n        /* \"#utility.yul\":8235:8261   */\n      swap1\n      pop\n        /* \"#utility.yul\":8271:8342   */\n      tag_181\n        /* \"#utility.yul\":8339:8340   */\n      0x00\n        /* \"#utility.yul\":8328:8337   */\n      dup4\n        /* \"#utility.yul\":8324:8341   */\n      add\n        /* \"#utility.yul\":8315:8321   */\n      dup5\n        /* \"#utility.yul\":8271:8342   */\n      tag_127\n      jump\t// in\n    tag_181:\n        /* \"#utility.yul\":8225:8349   */\n      swap3\n      swap2\n      pop\n      pop\n      jump\t// out\n        /* \"#utility.yul\":8355:8565   */\n    tag_18:\n        /* \"#utility.yul\":8442:8446   */\n      0x00\n        /* \"#utility.yul\":8480:8482   */\n      0x20\n        /* \"#utility.yul\":8469:8478   */\n      dup3\n        /* \"#utility.yul\":8465:8483   */\n      add\n        /* \"#utility.yul\":8457:8483   */\n      swap1\n      pop\n        /* \"#utility.yul\":8493:8558   */\n      tag_183\n        /* \"#utility.yul\":8555:8556   */\n      0x00\n        /* \"#utility.yul\":8544:8553   */\n      dup4\n        /* \"#utility.yul\":8540:8557   */\n      add\n        /* \"#utility.yul\":8531:8537   */\n      dup5\n        /* \"#utility.yul\":8493:8558   */\n      tag_131\n      jump\t// in\n    tag_183:\n        /* \"#utility.yul\":8447:8565   */\n      swap3\n      swap2\n      pop\n      pop\n      jump\t// out\n        /* \"#utility.yul\":8571:8793   */\n    tag_24:\n        /* \"#utility.yul\":8664:8668   */\n      0x00\n        /* \"#utility.yul\":8702:8704   */\n      0x20\n        /* \"#utility.yul\":8691:8700   */\n      dup3\n        /* \"#utility.yul\":8687:8705   */\n      add\n        /* \"#utility.yul\":8679:8705   */\n      swap1\n      pop\n        /* \"#utility.yul\":8715:8786   */\n      tag_185\n        /* \"#utility.yul\":8783:8784   */\n      0x00\n        /* \"#utility.yul\":8772:8781   */\n      dup4\n        /* \"#utility.yul\":8768:8785   */\n      add\n        /* \"#utility.yul\":8759:8765   */\n      dup5\n        /* \"#utility.yul\":8715:8786   */\n      tag_135\n      jump\t// in\n    tag_185:\n        /* \"#utility.yul\":8669:8793   */\n      swap3\n      swap2\n      pop\n      pop\n      jump\t// out\n        /* \"#utility.yul\":8799:9344   */\n    tag_34:\n        /* \"#utility.yul\":8972:8976   */\n      0x00\n        /* \"#utility.yul\":9010:9013   */\n      0x80\n        /* \"#utility.yul\":8999:9008   */\n      dup3\n        /* \"#utility.yul\":8995:9014   */\n      add\n        /* \"#utility.yul\":8987:9014   */\n      swap1\n      pop\n        /* \"#utility.yul\":9024:9095   */\n      tag_187\n        /* \"#utility.yul\":9092:9093   */\n      0x00\n        /* \"#utility.yul\":9081:9090   */\n      dup4\n        /* \"#utility.yul\":9077:9094   */\n      add\n        /* \"#utility.yul\":9068:9074   */\n      dup8\n        /* \"#utility.yul\":9024:9095   */\n      tag_135\n      jump\t// in\n    tag_187:\n        /* \"#utility.yul\":9105:9173   */\n      tag_188\n        /* \"#utility.yul\":9169:9171   */\n      0x20\n        /* \"#utility.yul\":9158:9167   */\n      dup4\n        /* \"#utility.yul\":9154:9172   */\n      add\n        /* \"#utility.yul\":9145:9151   */\n      dup7\n        /* \"#utility.yul\":9105:9173   */\n      tag_169\n      jump\t// in\n    tag_188:\n        /* \"#utility.yul\":9183:9255   */\n      tag_189\n        /* \"#utility.yul\":9251:9253   */\n      0x40\n        /* \"#utility.yul\":9240:9249   */\n      dup4\n        /* \"#utility.yul\":9236:9254   */\n      add\n        /* \"#utility.yul\":9227:9233   */\n      dup6\n        /* \"#utility.yul\":9183:9255   */\n      tag_135\n      jump\t// in\n    tag_189:\n        /* \"#utility.yul\":9265:9337   */\n      tag_190\n        /* \"#utility.yul\":9333:9335   */\n      0x60\n        /* \"#utility.yul\":9322:9331   */\n      dup4\n        /* \"#utility.yul\":9318:9336   */\n      add\n        /* \"#utility.yul\":9309:9315   */\n      dup5\n        /* \"#utility.yul\":9265:9337   */\n      tag_135\n      jump\t// in\n    tag_190:\n        /* \"#utility.yul\":8977:9344   */\n      swap6\n      swap5\n      pop\n      pop\n      pop\n      pop\n      pop\n      jump\t// out\n        /* \"#utility.yul\":9350:9769   */\n    tag_50:\n        /* \"#utility.yul\":9516:9520   */\n      0x00\n        /* \"#utility.yul\":9554:9556   */\n      0x20\n        /* \"#utility.yul\":9543:9552   */\n      dup3\n        /* \"#utility.yul\":9539:9557   */\n      add\n        /* \"#utility.yul\":9531:9557   */\n      swap1\n      pop\n        /* \"#utility.yul\":9603:9612   */\n      dup2\n        /* \"#utility.yul\":9597:9601   */\n      dup2\n        /* \"#utility.yul\":9593:9613   */\n      sub\n        /* \"#utility.yul\":9589:9590   */\n      0x00\n        /* \"#utility.yul\":9578:9587   */\n      dup4\n        /* \"#utility.yul\":9574:9591   */\n      add\n        /* \"#utility.yul\":9567:9614   */\n      mstore\n        /* \"#utility.yul\":9631:9762   */\n      tag_192\n        /* \"#utility.yul\":9757:9761   */\n      dup2\n        /* \"#utility.yul\":9631:9762   */\n      tag_152\n      jump\t// in\n    tag_192:\n        /* \"#utility.yul\":9623:9762   */\n      swap1\n      pop\n        /* \"#utility.yul\":9521:9769   */\n      swap2\n      swap1\n      pop\n      jump\t// out\n        /* \"#utility.yul\":9775:9904   */\n    tag_57:\n        /* \"#utility.yul\":9809:9815   */\n      0x00\n        /* \"#utility.yul\":9836:9856   */\n      tag_194\n      tag_195\n      jump\t// in\n    tag_194:\n        /* \"#utility.yul\":9826:9856   */\n      swap1\n      pop\n        /* \"#utility.yul\":9865:9898   */\n      tag_196\n        /* \"#utility.yul\":9893:9897   */\n      dup3\n        /* \"#utility.yul\":9885:9891   */\n      dup3\n        /* \"#utility.yul\":9865:9898   */\n      tag_197\n      jump\t// in\n    tag_196:\n        /* \"#utility.yul\":9816:9904   */\n      swap2\n      swap1\n      pop\n      jump\t// out\n        /* \"#utility.yul\":9910:9985   */\n    tag_195:\n        /* \"#utility.yul\":9943:9949   */\n      0x00\n        /* \"#utility.yul\":9976:9978   */\n      0x40\n        /* \"#utility.yul\":9970:9979   */\n      mload\n        /* \"#utility.yul\":9960:9979   */\n      swap1\n      pop\n        /* \"#utility.yul\":9950:9985   */\n      swap1\n      jump\t// out\n        /* \"#utility.yul\":9991:10298   */\n    tag_56:\n        /* \"#utility.yul\":10052:10056   */\n      0x00\n        /* \"#utility.yul\":10142:10160   */\n      0xffffffffffffffff\n        /* \"#utility.yul\":10134:10140   */\n      dup3\n        /* \"#utility.yul\":10131:10161   */\n      gt\n        /* \"#utility.yul\":10128:10130   */\n      iszero\n      tag_200\n      jumpi\n        /* \"#utility.yul\":10164:10182   */\n      tag_201\n      tag_202\n      jump\t// in\n    tag_201:\n        /* \"#utility.yul\":10128:10130   */\n    tag_200:\n        /* \"#utility.yul\":10202:10231   */\n      tag_203\n        /* \"#utility.yul\":10224:10230   */\n      dup3\n        /* \"#utility.yul\":10202:10231   */\n      tag_204\n      jump\t// in\n    tag_203:\n        /* \"#utility.yul\":10194:10231   */\n      swap1\n      pop\n        /* \"#utility.yul\":10286:10290   */\n      0x20\n        /* \"#utility.yul\":10280:10284   */\n      dup2\n        /* \"#utility.yul\":10276:10291   */\n      add\n        /* \"#utility.yul\":10268:10291   */\n      swap1\n      pop\n        /* \"#utility.yul\":10057:10298   */\n      swap2\n      swap1\n      pop\n      jump\t// out\n        /* \"#utility.yul\":10304:10612   */\n    tag_67:\n        /* \"#utility.yul\":10366:10370   */\n      0x00\n        /* \"#utility.yul\":10456:10474   */\n      0xffffffffffffffff\n        /* \"#utility.yul\":10448:10454   */\n      dup3\n        /* \"#utility.yul\":10445:10475   */\n      gt\n        /* \"#utility.yul\":10442:10444   */\n      iszero\n      tag_206\n      jumpi\n        /* \"#utility.yul\":10478:10496   */\n      tag_207\n      tag_202\n      jump\t// in\n    tag_207:\n        /* \"#utility.yul\":10442:10444   */\n    tag_206:\n        /* \"#utility.yul\":10516:10545   */\n      tag_208\n        /* \"#utility.yul\":10538:10544   */\n      dup3\n        /* \"#utility.yul\":10516:10545   */\n      tag_204\n      jump\t// in\n    tag_208:\n        /* \"#utility.yul\":10508:10545   */\n      swap1\n      pop\n        /* \"#utility.yul\":10600:10604   */\n      0x20\n        /* \"#utility.yul\":10594:10598   */\n      dup2\n        /* \"#utility.yul\":10590:10605   */\n      add\n        /* \"#utility.yul\":10582:10605   */\n      swap1\n      pop\n        /* \"#utility.yul\":10371:10612   */\n      swap2\n      swap1\n      pop\n      jump\t// out\n        /* \"#utility.yul\":10618:10717   */\n    tag_147:\n        /* \"#utility.yul\":10670:10676   */\n      0x00\n        /* \"#utility.yul\":10704:10709   */\n      dup2\n        /* \"#utility.yul\":10698:10710   */\n      mload\n        /* \"#utility.yul\":10688:10710   */\n      swap1\n      pop\n        /* \"#utility.yul\":10677:10717   */\n      swap2\n      swap1\n      pop\n      jump\t// out\n        /* \"#utility.yul\":10723:10892   */\n    tag_155:\n        /* \"#utility.yul\":10807:10818   */\n      0x00\n        /* \"#utility.yul\":10841:10847   */\n      dup3\n        /* \"#utility.yul\":10836:10839   */\n      dup3\n        /* \"#utility.yul\":10829:10848   */\n      mstore\n        /* \"#utility.yul\":10881:10885   */\n      0x20\n        /* \"#utility.yul\":10876:10879   */\n      dup3\n        /* \"#utility.yul\":10872:10886   */\n      add\n        /* \"#utility.yul\":10857:10886   */\n      swap1\n      pop\n        /* \"#utility.yul\":10819:10892   */\n      swap3\n      swap2\n      pop\n      pop\n      jump\t// out\n        /* \"#utility.yul\":10898:11046   */\n    tag_149:\n        /* \"#utility.yul\":11000:11011   */\n      0x00\n        /* \"#utility.yul\":11037:11040   */\n      dup2\n        /* \"#utility.yul\":11022:11040   */\n      swap1\n      pop\n        /* \"#utility.yul\":11012:11046   */\n      swap3\n      swap2\n      pop\n      pop\n      jump\t// out\n        /* \"#utility.yul\":11052:11148   */\n    tag_130:\n        /* \"#utility.yul\":11089:11096   */\n      0x00\n        /* \"#utility.yul\":11118:11142   */\n      tag_213\n        /* \"#utility.yul\":11136:11141   */\n      dup3\n        /* \"#utility.yul\":11118:11142   */\n      tag_214\n      jump\t// in\n    tag_213:\n        /* \"#utility.yul\":11107:11142   */\n      swap1\n      pop\n        /* \"#utility.yul\":11097:11148   */\n      swap2\n      swap1\n      pop\n      jump\t// out\n        /* \"#utility.yul\":11154:11244   */\n    tag_134:\n        /* \"#utility.yul\":11188:11195   */\n      0x00\n        /* \"#utility.yul\":11231:11236   */\n      dup2\n        /* \"#utility.yul\":11224:11237   */\n      iszero\n        /* \"#utility.yul\":11217:11238   */\n      iszero\n        /* \"#utility.yul\":11206:11238   */\n      swap1\n      pop\n        /* \"#utility.yul\":11196:11244   */\n      swap2\n      swap1\n      pop\n      jump\t// out\n        /* \"#utility.yul\":11250:11327   */\n    tag_138:\n        /* \"#utility.yul\":11287:11294   */\n      0x00\n        /* \"#utility.yul\":11316:11321   */\n      dup2\n        /* \"#utility.yul\":11305:11321   */\n      swap1\n      pop\n        /* \"#utility.yul\":11295:11327   */\n      swap2\n      swap1\n      pop\n      jump\t// out\n        /* \"#utility.yul\":11333:11459   */\n    tag_214:\n        /* \"#utility.yul\":11370:11377   */\n      0x00\n        /* \"#utility.yul\":11410:11452   */\n      0xffffffffffffffffffffffffffffffffffffffff\n        /* \"#utility.yul\":11403:11408   */\n      dup3\n        /* \"#utility.yul\":11399:11453   */\n      and\n        /* \"#utility.yul\":11388:11453   */\n      swap1\n      pop\n        /* \"#utility.yul\":11378:11459   */\n      swap2\n      swap1\n      pop\n      jump\t// out\n        /* \"#utility.yul\":11465:11542   */\n    tag_167:\n        /* \"#utility.yul\":11502:11509   */\n      0x00\n        /* \"#utility.yul\":11531:11536   */\n      dup2\n        /* \"#utility.yul\":11520:11536   */\n      swap1\n      pop\n        /* \"#utility.yul\":11510:11542   */\n      swap2\n      swap1\n      pop\n      jump\t// out\n        /* \"#utility.yul\":11548:11634   */\n    tag_172:\n        /* \"#utility.yul\":11583:11590   */\n      0x00\n        /* \"#utility.yul\":11623:11627   */\n      0xff\n        /* \"#utility.yul\":11616:11621   */\n      dup3\n        /* \"#utility.yul\":11612:11628   */\n      and\n        /* \"#utility.yul\":11601:11628   */\n      swap1\n      pop\n        /* \"#utility.yul\":11591:11634   */\n      swap2\n      swap1\n      pop\n      jump\t// out\n        /* \"#utility.yul\":11640:11794   */\n    tag_62:\n        /* \"#utility.yul\":11724:11730   */\n      dup3\n        /* \"#utility.yul\":11719:11722   */\n      dup2\n        /* \"#utility.yul\":11714:11717   */\n      dup4\n        /* \"#utility.yul\":11701:11731   */\n      calldatacopy\n        /* \"#utility.yul\":11786:11787   */\n      0x00\n        /* \"#utility.yul\":11777:11783   */\n      dup4\n        /* \"#utility.yul\":11772:11775   */\n      dup4\n        /* \"#utility.yul\":11768:11784   */\n      add\n        /* \"#utility.yul\":11761:11788   */\n      mstore\n        /* \"#utility.yul\":11691:11794   */\n      pop\n      pop\n      pop\n      jump\t// out\n        /* \"#utility.yul\":11800:12107   */\n    tag_151:\n        /* \"#utility.yul\":11868:11869   */\n      0x00\n        /* \"#utility.yul\":11878:11991   */\n    tag_222:\n        /* \"#utility.yul\":11892:11898   */\n      dup4\n        /* \"#utility.yul\":11889:11890   */\n      dup2\n        /* \"#utility.yul\":11886:11899   */\n      lt\n        /* \"#utility.yul\":11878:11991   */\n      iszero\n      tag_224\n      jumpi\n        /* \"#utility.yul\":11977:11978   */\n      dup1\n        /* \"#utility.yul\":11972:11975   */\n      dup3\n        /* \"#utility.yul\":11968:11979   */\n      add\n        /* \"#utility.yul\":11962:11980   */\n      mload\n        /* \"#utility.yul\":11958:11959   */\n      dup2\n        /* \"#utility.yul\":11953:11956   */\n      dup5\n        /* \"#utility.yul\":11949:11960   */\n      add\n        /* \"#utility.yul\":11942:11981   */\n      mstore\n        /* \"#utility.yul\":11914:11916   */\n      0x20\n        /* \"#utility.yul\":11911:11912   */\n      dup2\n        /* \"#utility.yul\":11907:11917   */\n      add\n        /* \"#utility.yul\":11902:11917   */\n      swap1\n      pop\n        /* \"#utility.yul\":11878:11991   */\n      jump(tag_222)\n    tag_224:\n        /* \"#utility.yul\":12009:12015   */\n      dup4\n        /* \"#utility.yul\":12006:12007   */\n      dup2\n        /* \"#utility.yul\":12003:12016   */\n      gt\n        /* \"#utility.yul\":12000:12002   */\n      iszero\n      tag_225\n      jumpi\n        /* \"#utility.yul\":12089:12090   */\n      0x00\n        /* \"#utility.yul\":12080:12086   */\n      dup5\n        /* \"#utility.yul\":12075:12078   */\n      dup5\n        /* \"#utility.yul\":12071:12087   */\n      add\n        /* \"#utility.yul\":12064:12091   */\n      mstore\n        /* \"#utility.yul\":12000:12002   */\n    tag_225:\n        /* \"#utility.yul\":11849:12107   */\n      pop\n      pop\n      pop\n      pop\n      jump\t// out\n        /* \"#utility.yul\":12113:12394   */\n    tag_197:\n        /* \"#utility.yul\":12196:12223   */\n      tag_227\n        /* \"#utility.yul\":12218:12222   */\n      dup3\n        /* \"#utility.yul\":12196:12223   */\n      tag_204\n      jump\t// in\n    tag_227:\n        /* \"#utility.yul\":12188:12194   */\n      dup2\n        /* \"#utility.yul\":12184:12224   */\n      add\n        /* \"#utility.yul\":12326:12332   */\n      dup2\n        /* \"#utility.yul\":12314:12324   */\n      dup2\n        /* \"#utility.yul\":12311:12333   */\n      lt\n        /* \"#utility.yul\":12290:12308   */\n      0xffffffffffffffff\n        /* \"#utility.yul\":12278:12288   */\n      dup3\n        /* \"#utility.yul\":12275:12309   */\n      gt\n        /* \"#utility.yul\":12272:12334   */\n      or\n        /* \"#utility.yul\":12269:12271   */\n      iszero\n      tag_228\n      jumpi\n        /* \"#utility.yul\":12337:12355   */\n      tag_229\n      tag_202\n      jump\t// in\n    tag_229:\n        /* \"#utility.yul\":12269:12271   */\n    tag_228:\n        /* \"#utility.yul\":12377:12387   */\n      dup1\n        /* \"#utility.yul\":12373:12375   */\n      0x40\n        /* \"#utility.yul\":12366:12388   */\n      mstore\n        /* \"#utility.yul\":12156:12394   */\n      pop\n      pop\n      pop\n      jump\t// out\n        /* \"#utility.yul\":12400:12479   */\n    tag_143:\n        /* \"#utility.yul\":12439:12446   */\n      0x00\n        /* \"#utility.yul\":12468:12473   */\n      dup2\n        /* \"#utility.yul\":12457:12473   */\n      swap1\n      pop\n        /* \"#utility.yul\":12447:12479   */\n      swap2\n      swap1\n      pop\n      jump\t// out\n        /* \"#utility.yul\":12485:12564   */\n    tag_168:\n        /* \"#utility.yul\":12524:12531   */\n      0x00\n        /* \"#utility.yul\":12553:12558   */\n      dup2\n        /* \"#utility.yul\":12542:12558   */\n      swap1\n      pop\n        /* \"#utility.yul\":12532:12564   */\n      swap2\n      swap1\n      pop\n      jump\t// out\n        /* \"#utility.yul\":12570:12750   */\n    tag_202:\n        /* \"#utility.yul\":12618:12695   */\n      0x4e487b7100000000000000000000000000000000000000000000000000000000\n        /* \"#utility.yul\":12615:12616   */\n      0x00\n        /* \"#utility.yul\":12608:12696   */\n      mstore\n        /* \"#utility.yul\":12715:12719   */\n      0x41\n        /* \"#utility.yul\":12712:12713   */\n      0x04\n        /* \"#utility.yul\":12705:12720   */\n      mstore\n        /* \"#utility.yul\":12739:12743   */\n      0x24\n        /* \"#utility.yul\":12736:12737   */\n      0x00\n        /* \"#utility.yul\":12729:12744   */\n      revert\n        /* \"#utility.yul\":12756:12873   */\n    tag_83:\n        /* \"#utility.yul\":12865:12866   */\n      0x00\n        /* \"#utility.yul\":12862:12863   */\n      dup1\n        /* \"#utility.yul\":12855:12867   */\n      revert\n        /* \"#utility.yul\":12879:12996   */\n    tag_60:\n        /* \"#utility.yul\":12988:12989   */\n      0x00\n        /* \"#utility.yul\":12985:12986   */\n      dup1\n        /* \"#utility.yul\":12978:12990   */\n      revert\n        /* \"#utility.yul\":13002:13119   */\n    tag_101:\n        /* \"#utility.yul\":13111:13112   */\n      0x00\n        /* \"#utility.yul\":13108:13109   */\n      dup1\n        /* \"#utility.yul\":13101:13113   */\n      revert\n        /* \"#utility.yul\":13125:13242   */\n    tag_97:\n        /* \"#utility.yul\":13234:13235   */\n      0x00\n        /* \"#utility.yul\":13231:13232   */\n      dup1\n        /* \"#utility.yul\":13224:13236   */\n      revert\n        /* \"#utility.yul\":13248:13350   */\n    tag_204:\n        /* \"#utility.yul\":13289:13295   */\n      0x00\n        /* \"#utility.yul\":13340:13342   */\n      0x1f\n        /* \"#utility.yul\":13336:13343   */\n      not\n        /* \"#utility.yul\":13331:13333   */\n      0x1f\n        /* \"#utility.yul\":13324:13329   */\n      dup4\n        /* \"#utility.yul\":13320:13334   */\n      add\n        /* \"#utility.yul\":13316:13344   */\n      and\n        /* \"#utility.yul\":13306:13344   */\n      swap1\n      pop\n        /* \"#utility.yul\":13296:13350   */\n      swap2\n      swap1\n      pop\n      jump\t// out\n        /* \"#utility.yul\":13356:13523   */\n    tag_157:\n        /* \"#utility.yul\":13496:13515   */\n      0x696e76616c6964207369676e6174757265000000000000000000000000000000\n        /* \"#utility.yul\":13492:13493   */\n      0x00\n        /* \"#utility.yul\":13484:13490   */\n      dup3\n        /* \"#utility.yul\":13480:13494   */\n      add\n        /* \"#utility.yul\":13473:13516   */\n      mstore\n        /* \"#utility.yul\":13462:13523   */\n      pop\n      jump\t// out\n        /* \"#utility.yul\":13529:13743   */\n    tag_162:\n        /* \"#utility.yul\":13669:13735   */\n      0x19457468657265756d205369676e6564204d6573736167653a0a333200000000\n        /* \"#utility.yul\":13665:13666   */\n      0x00\n        /* \"#utility.yul\":13657:13663   */\n      dup3\n        /* \"#utility.yul\":13653:13667   */\n      add\n        /* \"#utility.yul\":13646:13736   */\n      mstore\n        /* \"#utility.yul\":13635:13743   */\n      pop\n      jump\t// out\n        /* \"#utility.yul\":13749:13871   */\n    tag_74:\n        /* \"#utility.yul\":13822:13846   */\n      tag_241\n        /* \"#utility.yul\":13840:13845   */\n      dup2\n        /* \"#utility.yul\":13822:13846   */\n      tag_130\n      jump\t// in\n    tag_241:\n        /* \"#utility.yul\":13815:13820   */\n      dup2\n        /* \"#utility.yul\":13812:13847   */\n      eq\n        /* \"#utility.yul\":13802:13804   */\n      tag_242\n      jumpi\n        /* \"#utility.yul\":13861:13862   */\n      0x00\n        /* \"#utility.yul\":13858:13859   */\n      dup1\n        /* \"#utility.yul\":13851:13863   */\n      revert\n        /* \"#utility.yul\":13802:13804   */\n    tag_242:\n        /* \"#utility.yul\":13792:13871   */\n      pop\n      jump\t// out\n        /* \"#utility.yul\":13877:13999   */\n    tag_78:\n        /* \"#utility.yul\":13950:13974   */\n      tag_244\n        /* \"#utility.yul\":13968:13973   */\n      dup2\n        /* \"#utility.yul\":13950:13974   */\n      tag_138\n      jump\t// in\n    tag_244:\n        /* \"#utility.yul\":13943:13948   */\n      dup2\n        /* \"#utility.yul\":13940:13975   */\n      eq\n        /* \"#utility.yul\":13930:13932   */\n      tag_245\n      jumpi\n        /* \"#utility.yul\":13989:13990   */\n      0x00\n        /* \"#utility.yul\":13986:13987   */\n      dup1\n        /* \"#utility.yul\":13979:13991   */\n      revert\n        /* \"#utility.yul\":13930:13932   */\n    tag_245:\n        /* \"#utility.yul\":13920:13999   */\n      pop\n      jump\t// out\n        /* \"#utility.yul\":14005:14127   */\n    tag_93:\n        /* \"#utility.yul\":14078:14102   */\n      tag_247\n        /* \"#utility.yul\":14096:14101   */\n      dup2\n        /* \"#utility.yul\":14078:14102   */\n      tag_167\n      jump\t// in\n    tag_247:\n        /* \"#utility.yul\":14071:14076   */\n      dup2\n        /* \"#utility.yul\":14068:14103   */\n      eq\n        /* \"#utility.yul\":14058:14060   */\n      tag_248\n      jumpi\n        /* \"#utility.yul\":14117:14118   */\n      0x00\n        /* \"#utility.yul\":14114:14115   */\n      dup1\n        /* \"#utility.yul\":14107:14119   */\n      revert\n        /* \"#utility.yul\":14058:14060   */\n    tag_248:\n        /* \"#utility.yul\":14048:14127   */\n      pop\n      jump\t// out\n\n    auxdata: 0xa2646970667358221220cfa654bf73a0890d54f491dcf7192f503e4a5c742355b8b79a915d1e548eb58564736f6c63430008060033\n}\n",
				"bytecode": {
					"linkReferences": {},
					"object": "608060405234801561001057600080fd5b50610a25806100206000396000f3fe608060405234801561001057600080fd5b506004361061004c5760003560e01c806319045a251461005157806358b77985146100815780637003ea1c146100b1578063fa540801146100e1575b600080fd5b61006b600480360381019061006691906104af565b610111565b60405161007891906106ba565b60405180910390f35b61009b600480360381019061009691906103cf565b610180565b6040516100a891906106d5565b60405180910390f35b6100cb60048036038101906100c6919061050b565b6101e2565b6040516100d891906106f0565b60405180910390f35b6100fb60048036038101906100f69190610482565b610218565b60405161010891906106f0565b60405180910390f35b60008060008061012085610248565b92509250925060018682858560405160008152602001604052604051610149949392919061070b565b6020604051602081039080840390855afa15801561016b573d6000803e3d6000fd5b50505060206040510351935050505092915050565b60008061018e8686866101e2565b9050600061019b82610218565b90508773ffffffffffffffffffffffffffffffffffffffff166101be8286610111565b73ffffffffffffffffffffffffffffffffffffffff16149250505095945050505050565b60008383836040516020016101f99392919061065b565b6040516020818303038152906040528051906020012090509392505050565b60008160405160200161022b9190610694565b604051602081830303815290604052805190602001209050919050565b60008060006041845114610291576040517f08c379a000000000000000000000000000000000000000000000000000000000815260040161028890610750565b60405180910390fd5b6020840151925060408401519150606084015160001a90509193909250565b60006102c36102be84610795565b610770565b9050828152602081018484840111156102df576102de610938565b5b6102ea84828561087d565b509392505050565b6000610305610300846107c6565b610770565b90508281526020810184848401111561032157610320610938565b5b61032c84828561087d565b509392505050565b600081359050610343816109aa565b92915050565b600081359050610358816109c1565b92915050565b600082601f83011261037357610372610933565b5b81356103838482602086016102b0565b91505092915050565b600082601f8301126103a1576103a0610933565b5b81356103b18482602086016102f2565b91505092915050565b6000813590506103c9816109d8565b92915050565b600080600080600060a086880312156103eb576103ea610942565b5b60006103f988828901610334565b955050602086013567ffffffffffffffff81111561041a5761041961093d565b5b6104268882890161038c565b9450506040610437888289016103ba565b9350506060610448888289016103ba565b925050608086013567ffffffffffffffff8111156104695761046861093d565b5b6104758882890161035e565b9150509295509295909350565b60006020828403121561049857610497610942565b5b60006104a684828501610349565b91505092915050565b600080604083850312156104c6576104c5610942565b5b60006104d485828601610349565b925050602083013567ffffffffffffffff8111156104f5576104f461093d565b5b6105018582860161035e565b9150509250929050565b60008060006060848603121561052457610523610942565b5b600084013567ffffffffffffffff8111156105425761054161093d565b5b61054e8682870161038c565b935050602061055f868287016103ba565b9250506040610570868287016103ba565b9150509250925092565b6105838161081e565b82525050565b61059281610830565b82525050565b6105a18161083c565b82525050565b6105b86105b38261083c565b6108f0565b82525050565b60006105c9826107f7565b6105d38185610813565b93506105e381856020860161088c565b80840191505092915050565b60006105fc601183610802565b915061060782610958565b602082019050919050565b600061061f601c83610813565b915061062a82610981565b601c82019050919050565b61064661064182610866565b6108fa565b82525050565b61065581610870565b82525050565b600061066782866105be565b91506106738285610635565b6020820191506106838284610635565b602082019150819050949350505050565b600061069f82610612565b91506106ab82846105a7565b60208201915081905092915050565b60006020820190506106cf600083018461057a565b92915050565b60006020820190506106ea6000830184610589565b92915050565b60006020820190506107056000830184610598565b92915050565b60006080820190506107206000830187610598565b61072d602083018661064c565b61073a6040830185610598565b6107476060830184610598565b95945050505050565b60006020820190508181036000830152610769816105ef565b9050919050565b600061077a61078b565b905061078682826108bf565b919050565b6000604051905090565b600067ffffffffffffffff8211156107b0576107af610904565b5b6107b982610947565b9050602081019050919050565b600067ffffffffffffffff8211156107e1576107e0610904565b5b6107ea82610947565b9050602081019050919050565b600081519050919050565b600082825260208201905092915050565b600081905092915050565b600061082982610846565b9050919050565b60008115159050919050565b6000819050919050565b600073ffffffffffffffffffffffffffffffffffffffff82169050919050565b6000819050919050565b600060ff82169050919050565b82818337600083830152505050565b60005b838110156108aa57808201518184015260208101905061088f565b838111156108b9576000848401525b50505050565b6108c882610947565b810181811067ffffffffffffffff821117156108e7576108e6610904565b5b80604052505050565b6000819050919050565b6000819050919050565b7f4e487b7100000000000000000000000000000000000000000000000000000000600052604160045260246000fd5b600080fd5b600080fd5b600080fd5b600080fd5b6000601f19601f8301169050919050565b7f696e76616c6964207369676e6174757265000000000000000000000000000000600082015250565b7f19457468657265756d205369676e6564204d6573736167653a0a333200000000600082015250565b6109b38161081e565b81146109be57600080fd5b50565b6109ca8161083c565b81146109d557600080fd5b50565b6109e181610866565b81146109ec57600080fd5b5056fea2646970667358221220cfa654bf73a0890d54f491dcf7192f503e4a5c742355b8b79a915d1e548eb58564736f6c63430008060033",
					"opcodes": "PUSH1 0x80 PUSH1 0x40 MSTORE CALLVALUE DUP1 ISZERO PUSH2 0x10 JUMPI PUSH1 0x0 DUP1 REVERT JUMPDEST POP PUSH2 0xA25 DUP1 PUSH2 0x20 PUSH1 0x0 CODECOPY PUSH1 0x0 RETURN INVALID PUSH1 0x80 PUSH1 0x40 MSTORE CALLVALUE DUP1 ISZERO PUSH2 0x10 JUMPI PUSH1 0x0 DUP1 REVERT JUMPDEST POP PUSH1 0x4 CALLDATASIZE LT PUSH2 0x4C JUMPI PUSH1 0x0 CALLDATALOAD PUSH1 0xE0 SHR DUP1 PUSH4 0x19045A25 EQ PUSH2 0x51 JUMPI DUP1 PUSH4 0x58B77985 EQ PUSH2 0x81 JUMPI DUP1 PUSH4 0x7003EA1C EQ PUSH2 0xB1 JUMPI DUP1 PUSH4 0xFA540801 EQ PUSH2 0xE1 JUMPI JUMPDEST PUSH1 0x0 DUP1 REVERT JUMPDEST PUSH2 0x6B PUSH1 0x4 DUP1 CALLDATASIZE SUB DUP2 ADD SWAP1 PUSH2 0x66 SWAP2 SWAP1 PUSH2 0x4AF JUMP JUMPDEST PUSH2 0x111 JUMP JUMPDEST PUSH1 0x40 MLOAD PUSH2 0x78 SWAP2 SWAP1 PUSH2 0x6BA JUMP JUMPDEST PUSH1 0x40 MLOAD DUP1 SWAP2 SUB SWAP1 RETURN JUMPDEST PUSH2 0x9B PUSH1 0x4 DUP1 CALLDATASIZE SUB DUP2 ADD SWAP1 PUSH2 0x96 SWAP2 SWAP1 PUSH2 0x3CF JUMP JUMPDEST PUSH2 0x180 JUMP JUMPDEST PUSH1 0x40 MLOAD PUSH2 0xA8 SWAP2 SWAP1 PUSH2 0x6D5 JUMP JUMPDEST PUSH1 0x40 MLOAD DUP1 SWAP2 SUB SWAP1 RETURN JUMPDEST PUSH2 0xCB PUSH1 0x4 DUP1 CALLDATASIZE SUB DUP2 ADD SWAP1 PUSH2 0xC6 SWAP2 SWAP1 PUSH2 0x50B JUMP JUMPDEST PUSH2 0x1E2 JUMP JUMPDEST PUSH1 0x40 MLOAD PUSH2 0xD8 SWAP2 SWAP1 PUSH2 0x6F0 JUMP JUMPDEST PUSH1 0x40 MLOAD DUP1 SWAP2 SUB SWAP1 RETURN JUMPDEST PUSH2 0xFB PUSH1 0x4 DUP1 CALLDATASIZE SUB DUP2 ADD SWAP1 PUSH2 0xF6 SWAP2 SWAP1 PUSH2 0x482 JUMP JUMPDEST PUSH2 0x218 JUMP JUMPDEST PUSH1 0x40 MLOAD PUSH2 0x108 SWAP2 SWAP1 PUSH2 0x6F0 JUMP JUMPDEST PUSH1 0x40 MLOAD DUP1 SWAP2 SUB SWAP1 RETURN JUMPDEST PUSH1 0x0 DUP1 PUSH1 0x0 DUP1 PUSH2 0x120 DUP6 PUSH2 0x248 JUMP JUMPDEST SWAP3 POP SWAP3 POP SWAP3 POP PUSH1 0x1 DUP7 DUP3 DUP6 DUP6 PUSH1 0x40 MLOAD PUSH1 0x0 DUP2 MSTORE PUSH1 0x20 ADD PUSH1 0x40 MSTORE PUSH1 0x40 MLOAD PUSH2 0x149 SWAP5 SWAP4 SWAP3 SWAP2 SWAP1 PUSH2 0x70B JUMP JUMPDEST PUSH1 0x20 PUSH1 0x40 MLOAD PUSH1 0x20 DUP2 SUB SWAP1 DUP1 DUP5 SUB SWAP1 DUP6 GAS STATICCALL ISZERO DUP1 ISZERO PUSH2 0x16B JUMPI RETURNDATASIZE PUSH1 0x0 DUP1 RETURNDATACOPY RETURNDATASIZE PUSH1 0x0 REVERT JUMPDEST POP POP POP PUSH1 0x20 PUSH1 0x40 MLOAD SUB MLOAD SWAP4 POP POP POP POP SWAP3 SWAP2 POP POP JUMP JUMPDEST PUSH1 0x0 DUP1 PUSH2 0x18E DUP7 DUP7 DUP7 PUSH2 0x1E2 JUMP JUMPDEST SWAP1 POP PUSH1 0x0 PUSH2 0x19B DUP3 PUSH2 0x218 JUMP JUMPDEST SWAP1 POP DUP8 PUSH20 0xFFFFFFFFFFFFFFFFFFFFFFFFFFFFFFFFFFFFFFFF AND PUSH2 0x1BE DUP3 DUP7 PUSH2 0x111 JUMP JUMPDEST PUSH20 0xFFFFFFFFFFFFFFFFFFFFFFFFFFFFFFFFFFFFFFFF AND EQ SWAP3 POP POP POP SWAP6 SWAP5 POP POP POP POP POP JUMP JUMPDEST PUSH1 0x0 DUP4 DUP4 DUP4 PUSH1 0x40 MLOAD PUSH1 0x20 ADD PUSH2 0x1F9 SWAP4 SWAP3 SWAP2 SWAP1 PUSH2 0x65B JUMP JUMPDEST PUSH1 0x40 MLOAD PUSH1 0x20 DUP2 DUP4 SUB SUB DUP2 MSTORE SWAP1 PUSH1 0x40 MSTORE DUP1 MLOAD SWAP1 PUSH1 0x20 ADD KECCAK256 SWAP1 POP SWAP4 SWAP3 POP POP POP JUMP JUMPDEST PUSH1 0x0 DUP2 PUSH1 0x40 MLOAD PUSH1 0x20 ADD PUSH2 0x22B SWAP2 SWAP1 PUSH2 0x694 JUMP JUMPDEST PUSH1 0x40 MLOAD PUSH1 0x20 DUP2 DUP4 SUB SUB DUP2 MSTORE SWAP1 PUSH1 0x40 MSTORE DUP1 MLOAD SWAP1 PUSH1 0x20 ADD KECCAK256 SWAP1 POP SWAP2 SWAP1 POP JUMP JUMPDEST PUSH1 0x0 DUP1 PUSH1 0x0 PUSH1 0x41 DUP5 MLOAD EQ PUSH2 0x291 JUMPI PUSH1 0x40 MLOAD PUSH32 0x8C379A000000000000000000000000000000000000000000000000000000000 DUP2 MSTORE PUSH1 0x4 ADD PUSH2 0x288 SWAP1 PUSH2 0x750 JUMP JUMPDEST PUSH1 0x40 MLOAD DUP1 SWAP2 SUB SWAP1 REVERT JUMPDEST PUSH1 0x20 DUP5 ADD MLOAD SWAP3 POP PUSH1 0x40 DUP5 ADD MLOAD SWAP2 POP PUSH1 0x60 DUP5 ADD MLOAD PUSH1 0x0 BYTE SWAP1 POP SWAP2 SWAP4 SWAP1 SWAP3 POP JUMP JUMPDEST PUSH1 0x0 PUSH2 0x2C3 PUSH2 0x2BE DUP5 PUSH2 0x795 JUMP JUMPDEST PUSH2 0x770 JUMP JUMPDEST SWAP1 POP DUP3 DUP2 MSTORE PUSH1 0x20 DUP2 ADD DUP5 DUP5 DUP5 ADD GT ISZERO PUSH2 0x2DF JUMPI PUSH2 0x2DE PUSH2 0x938 JUMP JUMPDEST JUMPDEST PUSH2 0x2EA DUP5 DUP3 DUP6 PUSH2 0x87D JUMP JUMPDEST POP SWAP4 SWAP3 POP POP POP JUMP JUMPDEST PUSH1 0x0 PUSH2 0x305 PUSH2 0x300 DUP5 PUSH2 0x7C6 JUMP JUMPDEST PUSH2 0x770 JUMP JUMPDEST SWAP1 POP DUP3 DUP2 MSTORE PUSH1 0x20 DUP2 ADD DUP5 DUP5 DUP5 ADD GT ISZERO PUSH2 0x321 JUMPI PUSH2 0x320 PUSH2 0x938 JUMP JUMPDEST JUMPDEST PUSH2 0x32C DUP5 DUP3 DUP6 PUSH2 0x87D JUMP JUMPDEST POP SWAP4 SWAP3 POP POP POP JUMP JUMPDEST PUSH1 0x0 DUP2 CALLDATALOAD SWAP1 POP PUSH2 0x343 DUP2 PUSH2 0x9AA JUMP JUMPDEST SWAP3 SWAP2 POP POP JUMP JUMPDEST PUSH1 0x0 DUP2 CALLDATALOAD SWAP1 POP PUSH2 0x358 DUP2 PUSH2 0x9C1 JUMP JUMPDEST SWAP3 SWAP2 POP POP JUMP JUMPDEST PUSH1 0x0 DUP3 PUSH1 0x1F DUP4 ADD SLT PUSH2 0x373 JUMPI PUSH2 0x372 PUSH2 0x933 JUMP JUMPDEST JUMPDEST DUP2 CALLDATALOAD PUSH2 0x383 DUP5 DUP3 PUSH1 0x20 DUP7 ADD PUSH2 0x2B0 JUMP JUMPDEST SWAP2 POP POP SWAP3 SWAP2 POP POP JUMP JUMPDEST PUSH1 0x0 DUP3 PUSH1 0x1F DUP4 ADD SLT PUSH2 0x3A1 JUMPI PUSH2 0x3A0 PUSH2 0x933 JUMP JUMPDEST JUMPDEST DUP2 CALLDATALOAD PUSH2 0x3B1 DUP5 DUP3 PUSH1 0x20 DUP7 ADD PUSH2 0x2F2 JUMP JUMPDEST SWAP2 POP POP SWAP3 SWAP2 POP POP JUMP JUMPDEST PUSH1 0x0 DUP2 CALLDATALOAD SWAP1 POP PUSH2 0x3C9 DUP2 PUSH2 0x9D8 JUMP JUMPDEST SWAP3 SWAP2 POP POP JUMP JUMPDEST PUSH1 0x0 DUP1 PUSH1 0x0 DUP1 PUSH1 0x0 PUSH1 0xA0 DUP7 DUP9 SUB SLT ISZERO PUSH2 0x3EB JUMPI PUSH2 0x3EA PUSH2 0x942 JUMP JUMPDEST JUMPDEST PUSH1 0x0 PUSH2 0x3F9 DUP9 DUP3 DUP10 ADD PUSH2 0x334 JUMP JUMPDEST SWAP6 POP POP PUSH1 0x20 DUP7 ADD CALLDATALOAD PUSH8 0xFFFFFFFFFFFFFFFF DUP2 GT ISZERO PUSH2 0x41A JUMPI PUSH2 0x419 PUSH2 0x93D JUMP JUMPDEST JUMPDEST PUSH2 0x426 DUP9 DUP3 DUP10 ADD PUSH2 0x38C JUMP JUMPDEST SWAP5 POP POP PUSH1 0x40 PUSH2 0x437 DUP9 DUP3 DUP10 ADD PUSH2 0x3BA JUMP JUMPDEST SWAP4 POP POP PUSH1 0x60 PUSH2 0x448 DUP9 DUP3 DUP10 ADD PUSH2 0x3BA JUMP JUMPDEST SWAP3 POP POP PUSH1 0x80 DUP7 ADD CALLDATALOAD PUSH8 0xFFFFFFFFFFFFFFFF DUP2 GT ISZERO PUSH2 0x469 JUMPI PUSH2 0x468 PUSH2 0x93D JUMP JUMPDEST JUMPDEST PUSH2 0x475 DUP9 DUP3 DUP10 ADD PUSH2 0x35E JUMP JUMPDEST SWAP2 POP POP SWAP3 SWAP6 POP SWAP3 SWAP6 SWAP1 SWAP4 POP JUMP JUMPDEST PUSH1 0x0 PUSH1 0x20 DUP3 DUP5 SUB SLT ISZERO PUSH2 0x498 JUMPI PUSH2 0x497 PUSH2 0x942 JUMP JUMPDEST JUMPDEST PUSH1 0x0 PUSH2 0x4A6 DUP5 DUP3 DUP6 ADD PUSH2 0x349 JUMP JUMPDEST SWAP2 POP POP SWAP3 SWAP2 POP POP JUMP JUMPDEST PUSH1 0x0 DUP1 PUSH1 0x40 DUP4 DUP6 SUB SLT ISZERO PUSH2 0x4C6 JUMPI PUSH2 0x4C5 PUSH2 0x942 JUMP JUMPDEST JUMPDEST PUSH1 0x0 PUSH2 0x4D4 DUP6 DUP3 DUP7 ADD PUSH2 0x349 JUMP JUMPDEST SWAP3 POP POP PUSH1 0x20 DUP4 ADD CALLDATALOAD PUSH8 0xFFFFFFFFFFFFFFFF DUP2 GT ISZERO PUSH2 0x4F5 JUMPI PUSH2 0x4F4 PUSH2 0x93D JUMP JUMPDEST JUMPDEST PUSH2 0x501 DUP6 DUP3 DUP7 ADD PUSH2 0x35E JUMP JUMPDEST SWAP2 POP POP SWAP3 POP SWAP3 SWAP1 POP JUMP JUMPDEST PUSH1 0x0 DUP1 PUSH1 0x0 PUSH1 0x60 DUP5 DUP7 SUB SLT ISZERO PUSH2 0x524 JUMPI PUSH2 0x523 PUSH2 0x942 JUMP JUMPDEST JUMPDEST PUSH1 0x0 DUP5 ADD CALLDATALOAD PUSH8 0xFFFFFFFFFFFFFFFF DUP2 GT ISZERO PUSH2 0x542 JUMPI PUSH2 0x541 PUSH2 0x93D JUMP JUMPDEST JUMPDEST PUSH2 0x54E DUP7 DUP3 DUP8 ADD PUSH2 0x38C JUMP JUMPDEST SWAP4 POP POP PUSH1 0x20 PUSH2 0x55F DUP7 DUP3 DUP8 ADD PUSH2 0x3BA JUMP JUMPDEST SWAP3 POP POP PUSH1 0x40 PUSH2 0x570 DUP7 DUP3 DUP8 ADD PUSH2 0x3BA JUMP JUMPDEST SWAP2 POP POP SWAP3 POP SWAP3 POP SWAP3 JUMP JUMPDEST PUSH2 0x583 DUP2 PUSH2 0x81E JUMP JUMPDEST DUP3 MSTORE POP POP JUMP JUMPDEST PUSH2 0x592 DUP2 PUSH2 0x830 JUMP JUMPDEST DUP3 MSTORE POP POP JUMP JUMPDEST PUSH2 0x5A1 DUP2 PUSH2 0x83C JUMP JUMPDEST DUP3 MSTORE POP POP JUMP JUMPDEST PUSH2 0x5B8 PUSH2 0x5B3 DUP3 PUSH2 0x83C JUMP JUMPDEST PUSH2 0x8F0 JUMP JUMPDEST DUP3 MSTORE POP POP JUMP JUMPDEST PUSH1 0x0 PUSH2 0x5C9 DUP3 PUSH2 0x7F7 JUMP JUMPDEST PUSH2 0x5D3 DUP2 DUP6 PUSH2 0x813 JUMP JUMPDEST SWAP4 POP PUSH2 0x5E3 DUP2 DUP6 PUSH1 0x20 DUP7 ADD PUSH2 0x88C JUMP JUMPDEST DUP1 DUP5 ADD SWAP2 POP POP SWAP3 SWAP2 POP POP JUMP JUMPDEST PUSH1 0x0 PUSH2 0x5FC PUSH1 0x11 DUP4 PUSH2 0x802 JUMP JUMPDEST SWAP2 POP PUSH2 0x607 DUP3 PUSH2 0x958 JUMP JUMPDEST PUSH1 0x20 DUP3 ADD SWAP1 POP SWAP2 SWAP1 POP JUMP JUMPDEST PUSH1 0x0 PUSH2 0x61F PUSH1 0x1C DUP4 PUSH2 0x813 JUMP JUMPDEST SWAP2 POP PUSH2 0x62A DUP3 PUSH2 0x981 JUMP JUMPDEST PUSH1 0x1C DUP3 ADD SWAP1 POP SWAP2 SWAP1 POP JUMP JUMPDEST PUSH2 0x646 PUSH2 0x641 DUP3 PUSH2 0x866 JUMP JUMPDEST PUSH2 0x8FA JUMP JUMPDEST DUP3 MSTORE POP POP JUMP JUMPDEST PUSH2 0x655 DUP2 PUSH2 0x870 JUMP JUMPDEST DUP3 MSTORE POP POP JUMP JUMPDEST PUSH1 0x0 PUSH2 0x667 DUP3 DUP7 PUSH2 0x5BE JUMP JUMPDEST SWAP2 POP PUSH2 0x673 DUP3 DUP6 PUSH2 0x635 JUMP JUMPDEST PUSH1 0x20 DUP3 ADD SWAP2 POP PUSH2 0x683 DUP3 DUP5 PUSH2 0x635 JUMP JUMPDEST PUSH1 0x20 DUP3 ADD SWAP2 POP DUP2 SWAP1 POP SWAP5 SWAP4 POP POP POP POP JUMP JUMPDEST PUSH1 0x0 PUSH2 0x69F DUP3 PUSH2 0x612 JUMP JUMPDEST SWAP2 POP PUSH2 0x6AB DUP3 DUP5 PUSH2 0x5A7 JUMP JUMPDEST PUSH1 0x20 DUP3 ADD SWAP2 POP DUP2 SWAP1 POP SWAP3 SWAP2 POP POP JUMP JUMPDEST PUSH1 0x0 PUSH1 0x20 DUP3 ADD SWAP1 POP PUSH2 0x6CF PUSH1 0x0 DUP4 ADD DUP5 PUSH2 0x57A JUMP JUMPDEST SWAP3 SWAP2 POP POP JUMP JUMPDEST PUSH1 0x0 PUSH1 0x20 DUP3 ADD SWAP1 POP PUSH2 0x6EA PUSH1 0x0 DUP4 ADD DUP5 PUSH2 0x589 JUMP JUMPDEST SWAP3 SWAP2 POP POP JUMP JUMPDEST PUSH1 0x0 PUSH1 0x20 DUP3 ADD SWAP1 POP PUSH2 0x705 PUSH1 0x0 DUP4 ADD DUP5 PUSH2 0x598 JUMP JUMPDEST SWAP3 SWAP2 POP POP JUMP JUMPDEST PUSH1 0x0 PUSH1 0x80 DUP3 ADD SWAP1 POP PUSH2 0x720 PUSH1 0x0 DUP4 ADD DUP8 PUSH2 0x598 JUMP JUMPDEST PUSH2 0x72D PUSH1 0x20 DUP4 ADD DUP7 PUSH2 0x64C JUMP JUMPDEST PUSH2 0x73A PUSH1 0x40 DUP4 ADD DUP6 PUSH2 0x598 JUMP JUMPDEST PUSH2 0x747 PUSH1 0x60 DUP4 ADD DUP5 PUSH2 0x598 JUMP JUMPDEST SWAP6 SWAP5 POP POP POP POP POP JUMP JUMPDEST PUSH1 0x0 PUSH1 0x20 DUP3 ADD SWAP1 POP DUP2 DUP2 SUB PUSH1 0x0 DUP4 ADD MSTORE PUSH2 0x769 DUP2 PUSH2 0x5EF JUMP JUMPDEST SWAP1 POP SWAP2 SWAP1 POP JUMP JUMPDEST PUSH1 0x0 PUSH2 0x77A PUSH2 0x78B JUMP JUMPDEST SWAP1 POP PUSH2 0x786 DUP3 DUP3 PUSH2 0x8BF JUMP JUMPDEST SWAP2 SWAP1 POP JUMP JUMPDEST PUSH1 0x0 PUSH1 0x40 MLOAD SWAP1 POP SWAP1 JUMP JUMPDEST PUSH1 0x0 PUSH8 0xFFFFFFFFFFFFFFFF DUP3 GT ISZERO PUSH2 0x7B0 JUMPI PUSH2 0x7AF PUSH2 0x904 JUMP JUMPDEST JUMPDEST PUSH2 0x7B9 DUP3 PUSH2 0x947 JUMP JUMPDEST SWAP1 POP PUSH1 0x20 DUP2 ADD SWAP1 POP SWAP2 SWAP1 POP JUMP JUMPDEST PUSH1 0x0 PUSH8 0xFFFFFFFFFFFFFFFF DUP3 GT ISZERO PUSH2 0x7E1 JUMPI PUSH2 0x7E0 PUSH2 0x904 JUMP JUMPDEST JUMPDEST PUSH2 0x7EA DUP3 PUSH2 0x947 JUMP JUMPDEST SWAP1 POP PUSH1 0x20 DUP2 ADD SWAP1 POP SWAP2 SWAP1 POP JUMP JUMPDEST PUSH1 0x0 DUP2 MLOAD SWAP1 POP SWAP2 SWAP1 POP JUMP JUMPDEST PUSH1 0x0 DUP3 DUP3 MSTORE PUSH1 0x20 DUP3 ADD SWAP1 POP SWAP3 SWAP2 POP POP JUMP JUMPDEST PUSH1 0x0 DUP2 SWAP1 POP SWAP3 SWAP2 POP POP JUMP JUMPDEST PUSH1 0x0 PUSH2 0x829 DUP3 PUSH2 0x846 JUMP JUMPDEST SWAP1 POP SWAP2 SWAP1 POP JUMP JUMPDEST PUSH1 0x0 DUP2 ISZERO ISZERO SWAP1 POP SWAP2 SWAP1 POP JUMP JUMPDEST PUSH1 0x0 DUP2 SWAP1 POP SWAP2 SWAP1 POP JUMP JUMPDEST PUSH1 0x0 PUSH20 0xFFFFFFFFFFFFFFFFFFFFFFFFFFFFFFFFFFFFFFFF DUP3 AND SWAP1 POP SWAP2 SWAP1 POP JUMP JUMPDEST PUSH1 0x0 DUP2 SWAP1 POP SWAP2 SWAP1 POP JUMP JUMPDEST PUSH1 0x0 PUSH1 0xFF DUP3 AND SWAP1 POP SWAP2 SWAP1 POP JUMP JUMPDEST DUP3 DUP2 DUP4 CALLDATACOPY PUSH1 0x0 DUP4 DUP4 ADD MSTORE POP POP POP JUMP JUMPDEST PUSH1 0x0 JUMPDEST DUP4 DUP2 LT ISZERO PUSH2 0x8AA JUMPI DUP1 DUP3 ADD MLOAD DUP2 DUP5 ADD MSTORE PUSH1 0x20 DUP2 ADD SWAP1 POP PUSH2 0x88F JUMP JUMPDEST DUP4 DUP2 GT ISZERO PUSH2 0x8B9 JUMPI PUSH1 0x0 DUP5 DUP5 ADD MSTORE JUMPDEST POP POP POP POP JUMP JUMPDEST PUSH2 0x8C8 DUP3 PUSH2 0x947 JUMP JUMPDEST DUP2 ADD DUP2 DUP2 LT PUSH8 0xFFFFFFFFFFFFFFFF DUP3 GT OR ISZERO PUSH2 0x8E7 JUMPI PUSH2 0x8E6 PUSH2 0x904 JUMP JUMPDEST JUMPDEST DUP1 PUSH1 0x40 MSTORE POP POP POP JUMP JUMPDEST PUSH1 0x0 DUP2 SWAP1 POP SWAP2 SWAP1 POP JUMP JUMPDEST PUSH1 0x0 DUP2 SWAP1 POP SWAP2 SWAP1 POP JUMP JUMPDEST PUSH32 0x4E487B7100000000000000000000000000000000000000000000000000000000 PUSH1 0x0 MSTORE PUSH1 0x41 PUSH1 0x4 MSTORE PUSH1 0x24 PUSH1 0x0 REVERT JUMPDEST PUSH1 0x0 DUP1 REVERT JUMPDEST PUSH1 0x0 DUP1 REVERT JUMPDEST PUSH1 0x0 DUP1 REVERT JUMPDEST PUSH1 0x0 DUP1 REVERT JUMPDEST PUSH1 0x0 PUSH1 0x1F NOT PUSH1 0x1F DUP4 ADD AND SWAP1 POP SWAP2 SWAP1 POP JUMP JUMPDEST PUSH32 0x696E76616C6964207369676E6174757265000000000000000000000000000000 PUSH1 0x0 DUP3 ADD MSTORE POP JUMP JUMPDEST PUSH32 0x19457468657265756D205369676E6564204D6573736167653A0A333200000000 PUSH1 0x0 DUP3 ADD MSTORE POP JUMP JUMPDEST PUSH2 0x9B3 DUP2 PUSH2 0x81E JUMP JUMPDEST DUP2 EQ PUSH2 0x9BE JUMPI PUSH1 0x0 DUP1 REVERT JUMPDEST POP JUMP JUMPDEST PUSH2 0x9CA DUP2 PUSH2 0x83C JUMP JUMPDEST DUP2 EQ PUSH2 0x9D5 JUMPI PUSH1 0x0 DUP1 REVERT JUMPDEST POP JUMP JUMPDEST PUSH2 0x9E1 DUP2 PUSH2 0x866 JUMP JUMPDEST DUP2 EQ PUSH2 0x9EC JUMPI PUSH1 0x0 DUP1 REVERT JUMPDEST POP JUMP INVALID LOG2 PUSH5 0x6970667358 0x22 SLT KECCAK256 0xCF 0xA6 SLOAD 0xBF PUSH20 0xA0890D54F491DCF7192F503E4A5C742355B8B79A SWAP2 0x5D 0x1E SLOAD DUP15 0xB5 DUP6 PUSH5 0x736F6C6343 STOP ADDMOD MOD STOP CALLER "
				},
				"gasEstimates": {
					"creation": {
						"codeDepositCost": "519400",
						"executionCost": "556",
						"totalCost": "519956"
					},
					"external": {
						"getEthSignedMessageHash(bytes32)": "infinite",
						"getMessageHash(string,uint256,uint256)": "infinite",
						"recover(bytes32,bytes)": "infinite",
						"verify(address,string,uint256,uint256,bytes)": "infinite"
					},
					"internal": {
						"_split(bytes memory)": "infinite"
					}
				},
				"methodIdentifiers": {
					"getEthSignedMessageHash(bytes32)": "fa540801",
					"getMessageHash(string,uint256,uint256)": "7003ea1c",
					"recover(bytes32,bytes)": "19045a25",
					"verify(address,string,uint256,uint256,bytes)": "58b77985"
				}
			},
			"storageLayout": {
				"storage": [],
				"types": null
			},
			"userdoc": {
				"kind": "user",
				"methods": {},
				"notice": "message to sign hasn(message) sign(hash(message),privatekey) off-chain(this is prefixed with some strig and hashed again) ecrecover (hash(message),signature)",
				"version": 1
			}
		}
	}
}