{
  "contractName": "Escrow",
  "abi": [
    {
      "inputs": [
        {
          "internalType": "address",
          "name": "_buyer",
          "type": "address"
        },
        {
          "internalType": "address payable",
          "name": "_seller",
          "type": "address"
        },
        {
          "internalType": "uint256",
          "name": "_price",
          "type": "uint256"
        }
      ],
      "stateMutability": "nonpayable",
      "type": "constructor"
    },
    {
      "inputs": [],
      "name": "buyer",
      "outputs": [
        {
          "internalType": "address",
          "name": "",
          "type": "address"
        }
      ],
      "stateMutability": "view",
      "type": "function",
      "constant": true
    },
    {
      "inputs": [],
      "name": "currentState",
      "outputs": [
        {
          "internalType": "enum Escrow.State",
          "name": "",
          "type": "uint8"
        }
      ],
      "stateMutability": "view",
      "type": "function",
      "constant": true
    },
    {
      "inputs": [],
      "name": "isBuyerIn",
      "outputs": [
        {
          "internalType": "bool",
          "name": "",
          "type": "bool"
        }
      ],
      "stateMutability": "view",
      "type": "function",
      "constant": true
    },
    {
      "inputs": [],
      "name": "isSellerIn",
      "outputs": [
        {
          "internalType": "bool",
          "name": "",
          "type": "bool"
        }
      ],
      "stateMutability": "view",
      "type": "function",
      "constant": true
    },
    {
      "inputs": [],
      "name": "price",
      "outputs": [
        {
          "internalType": "uint256",
          "name": "",
          "type": "uint256"
        }
      ],
      "stateMutability": "view",
      "type": "function",
      "constant": true
    },
    {
      "inputs": [],
      "name": "seller",
      "outputs": [
        {
          "internalType": "address payable",
          "name": "",
          "type": "address"
        }
      ],
      "stateMutability": "view",
      "type": "function",
      "constant": true
    },
    {
      "inputs": [],
      "name": "initContract",
      "outputs": [],
      "stateMutability": "nonpayable",
      "type": "function"
    },
    {
      "inputs": [],
      "name": "confirmPayment",
      "outputs": [],
      "stateMutability": "payable",
      "type": "function",
      "payable": true
    },
    {
      "inputs": [],
      "name": "confirmDelivery",
      "outputs": [],
      "stateMutability": "payable",
      "type": "function",
      "payable": true
    },
    {
      "inputs": [],
      "name": "withdraw",
      "outputs": [],
      "stateMutability": "payable",
      "type": "function",
      "payable": true
    },
    {
      "inputs": [],
      "name": "getBalance",
      "outputs": [
        {
          "internalType": "uint256",
          "name": "",
          "type": "uint256"
        }
      ],
      "stateMutability": "view",
      "type": "function",
      "constant": true
    }
  ],
  "bytecode": "0x60806040523480156200001157600080fd5b5060405162000f7938038062000f798339818101604052810190620000379190620001c8565b82600060036101000a81548173ffffffffffffffffffffffffffffffffffffffff021916908373ffffffffffffffffffffffffffffffffffffffff16021790555081600160006101000a81548173ffffffffffffffffffffffffffffffffffffffff021916908373ffffffffffffffffffffffffffffffffffffffff160217905550670de0b6b3a764000081620000cf919062000253565b600281905550505050620002b4565b600080fd5b600073ffffffffffffffffffffffffffffffffffffffff82169050919050565b60006200011082620000e3565b9050919050565b620001228162000103565b81146200012e57600080fd5b50565b600081519050620001428162000117565b92915050565b60006200015582620000e3565b9050919050565b620001678162000148565b81146200017357600080fd5b50565b60008151905062000187816200015c565b92915050565b6000819050919050565b620001a2816200018d565b8114620001ae57600080fd5b50565b600081519050620001c28162000197565b92915050565b600080600060608486031215620001e457620001e3620000de565b5b6000620001f48682870162000131565b9350506020620002078682870162000176565b92505060406200021a86828701620001b1565b9150509250925092565b7f4e487b7100000000000000000000000000000000000000000000000000000000600052601160045260246000fd5b600062000260826200018d565b91506200026d836200018d565b9250817fffffffffffffffffffffffffffffffffffffffffffffffffffffffffffffffff0483118215151615620002a957620002a862000224565b5b828202905092915050565b610cb580620002c46000396000f3fe60806040526004361061009c5760003560e01c806362ef1f811161006457806362ef1f81146101365780637150d8ae146101405780638203f5fe1461016b5780639b3bcb3314610182578063a035b1fe146101ad578063c4bce180146101d85761009c565b806308551a53146100a15780630c3f6acf146100cc57806312065fe0146100f75780633ccfd60b146101225780635e10177b1461012c575b600080fd5b3480156100ad57600080fd5b506100b6610203565b6040516100c391906108d9565b60405180910390f35b3480156100d857600080fd5b506100e1610229565b6040516100ee919061096b565b60405180910390f35b34801561010357600080fd5b5061010c61023a565b604051610119919061099f565b60405180910390f35b61012a610242565b005b6101346103bb565b005b61013e610556565b005b34801561014c57600080fd5b506101556106ca565b60405161016291906109db565b60405180910390f35b34801561017757600080fd5b506101806106f0565b005b34801561018e57600080fd5b5061019761086c565b6040516101a49190610a11565b60405180910390f35b3480156101b957600080fd5b506101c261087f565b6040516101cf919061099f565b60405180910390f35b3480156101e457600080fd5b506101ed610885565b6040516101fa9190610a11565b60405180910390f35b600160009054906101000a900473ffffffffffffffffffffffffffffffffffffffff1681565b60008054906101000a900460ff1681565b600047905090565b600060039054906101000a900473ffffffffffffffffffffffffffffffffffffffff1673ffffffffffffffffffffffffffffffffffffffff163373ffffffffffffffffffffffffffffffffffffffff16146102d2576040517f08c379a00000000000000000000000000000000000000000000000000000000081526004016102c990610aaf565b60405180910390fd5b600260038111156102e6576102e56108f4565b5b60008054906101000a900460ff166003811115610306576103056108f4565b5b14610346576040517f08c379a000000000000000000000000000000000000000000000000000000000815260040161033d90610b1b565b60405180910390fd5b3373ffffffffffffffffffffffffffffffffffffffff166108fc6002549081150290604051600060405180830381858888f1935050505015801561038e573d6000803e3d6000fd5b5060036000806101000a81548160ff021916908360038111156103b4576103b36108f4565b5b0217905550565b600060039054906101000a900473ffffffffffffffffffffffffffffffffffffffff1673ffffffffffffffffffffffffffffffffffffffff163373ffffffffffffffffffffffffffffffffffffffff161461044b576040517f08c379a000000000000000000000000000000000000000000000000000000000815260040161044290610aaf565b60405180910390fd5b6002600381111561045f5761045e6108f4565b5b60008054906101000a900460ff16600381111561047f5761047e6108f4565b5b146104bf576040517f08c379a00000000000000000000000000000000000000000000000000000000081526004016104b690610b87565b60405180910390fd5b600160009054906101000a900473ffffffffffffffffffffffffffffffffffffffff1673ffffffffffffffffffffffffffffffffffffffff166108fc6002549081150290604051600060405180830381858888f19350505050158015610529573d6000803e3d6000fd5b5060036000806101000a81548160ff0219169083600381111561054f5761054e6108f4565b5b0217905550565b600060039054906101000a900473ffffffffffffffffffffffffffffffffffffffff1673ffffffffffffffffffffffffffffffffffffffff163373ffffffffffffffffffffffffffffffffffffffff16146105e6576040517f08c379a00000000000000000000000000000000000000000000000000000000081526004016105dd90610aaf565b60405180910390fd5b600160038111156105fa576105f96108f4565b5b60008054906101000a900460ff16600381111561061a576106196108f4565b5b1461065a576040517f08c379a000000000000000000000000000000000000000000000000000000000815260040161065190610bf3565b60405180910390fd5b600254341461069e576040517f08c379a000000000000000000000000000000000000000000000000000000000815260040161069590610c5f565b60405180910390fd5b60026000806101000a81548160ff021916908360038111156106c3576106c26108f4565b5b0217905550565b600060039054906101000a900473ffffffffffffffffffffffffffffffffffffffff1681565b60006003811115610704576107036108f4565b5b60008054906101000a900460ff166003811115610724576107236108f4565b5b1461072e57600080fd5b600060039054906101000a900473ffffffffffffffffffffffffffffffffffffffff1673ffffffffffffffffffffffffffffffffffffffff163373ffffffffffffffffffffffffffffffffffffffff1614156107a0576001600060016101000a81548160ff0219169083151502179055505b600160009054906101000a900473ffffffffffffffffffffffffffffffffffffffff1673ffffffffffffffffffffffffffffffffffffffff163373ffffffffffffffffffffffffffffffffffffffff161415610812576001600060026101000a81548160ff0219169083151502179055505b600060019054906101000a900460ff16801561083a5750600060029054906101000a900460ff165b1561086a5760016000806101000a81548160ff02191690836003811115610864576108636108f4565b5b02179055505b565b600060029054906101000a900460ff1681565b60025481565b600060019054906101000a900460ff1681565b600073ffffffffffffffffffffffffffffffffffffffff82169050919050565b60006108c382610898565b9050919050565b6108d3816108b8565b82525050565b60006020820190506108ee60008301846108ca565b92915050565b7f4e487b7100000000000000000000000000000000000000000000000000000000600052602160045260246000fd5b60048110610934576109336108f4565b5b50565b600081905061094582610923565b919050565b600061095582610937565b9050919050565b6109658161094a565b82525050565b6000602082019050610980600083018461095c565b92915050565b6000819050919050565b61099981610986565b82525050565b60006020820190506109b46000830184610990565b92915050565b60006109c582610898565b9050919050565b6109d5816109ba565b82525050565b60006020820190506109f060008301846109cc565b92915050565b60008115159050919050565b610a0b816109f6565b82525050565b6000602082019050610a266000830184610a02565b92915050565b600082825260208201905092915050565b7f4f6e6c792062757965722063616e2063616c6c20746869732066756e6374696f60008201527f6e00000000000000000000000000000000000000000000000000000000000000602082015250565b6000610a99602183610a2c565b9150610aa482610a3d565b604082019050919050565b60006020820190508181036000830152610ac881610a8c565b9050919050565b7f43616e6e6f742077697468647261770000000000000000000000000000000000600082015250565b6000610b05600f83610a2c565b9150610b1082610acf565b602082019050919050565b60006020820190508181036000830152610b3481610af8565b9050919050565b7f43616e6e6f7420636f6e6669726d2064656c6976657279000000000000000000600082015250565b6000610b71601783610a2c565b9150610b7c82610b3b565b602082019050919050565b60006020820190508181036000830152610ba081610b64565b9050919050565b7f416c726561647920706169640000000000000000000000000000000000000000600082015250565b6000610bdd600c83610a2c565b9150610be882610ba7565b602082019050919050565b60006020820190508181036000830152610c0c81610bd0565b9050919050565b7f57726f6e67206465706f73697420616d6f756e74000000000000000000000000600082015250565b6000610c49601483610a2c565b9150610c5482610c13565b602082019050919050565b60006020820190508181036000830152610c7881610c3c565b905091905056fea26469706673582212204cd92e5e7ea8b5ef415849ce390bc2aa087d1ae7fc7315d6d2272bad450ccc2764736f6c634300080b0033",
  "immutableReferences": {},
  "source": "// SPDX-License-Identifier: MIT\npragma solidity >=0.4.22 <0.9.0;\n\ncontract Escrow {\n    //VARIABLES\n    enum State {\n        NOT_INITIATED,\n        AWAITING_PAYMENT,\n        AWAITING_DELIVERY,\n        COMPLETE\n    }\n\n    State public currentState;\n\n    bool public isBuyerIn;\n    bool public isSellerIn;\n\n    address public buyer;\n    address payable public seller;\n\n    uint256 public price;\n    uint256 private paymentAmount;\n\n    //MODIFIERS\n\n    modifier OnlyBuyer() {\n        require(msg.sender == buyer, \"Only buyer can call this function\");\n        _;\n    }\n\n    //FUNCTIONS\n    constructor(\n        address _buyer,\n        address payable _seller,\n        uint256 _price\n    ) {\n        buyer = _buyer;\n        seller = _seller;\n        //converting wei to ether\n        price = _price * (1 ether);\n    }\n\n    function initContract() public {\n        require(currentState == State.NOT_INITIATED);\n\n        if (msg.sender == buyer) {\n            isBuyerIn = true;\n        }\n\n        if (msg.sender == seller) {\n            isSellerIn = true;\n        }\n        if (isBuyerIn && isSellerIn) {\n            currentState = State.AWAITING_PAYMENT;\n        }\n    }\n\n    /*\n     * buyer to deposit and confirm payment\n     */\n    function confirmPayment() public payable OnlyBuyer {\n        require(currentState == State.AWAITING_PAYMENT, \"Already paid\");\n        //mention price must be equal to msg.value\n        require(msg.value == price, \"Wrong deposit amount\");\n        currentState = State.AWAITING_DELIVERY;\n    }\n\n    //delivery occurs outside the contract\n    //transfer the fund\n    function confirmDelivery() public payable OnlyBuyer {\n        require(\n            currentState == State.AWAITING_DELIVERY,\n            \"Cannot confirm delivery\"\n        );\n        seller.transfer(price);\n        currentState = State.COMPLETE;\n    }\n\n    function withdraw() public payable OnlyBuyer {\n        require(currentState == State.AWAITING_DELIVERY, \"Cannot withdraw\");\n        payable(msg.sender).transfer(price);\n        currentState = State.COMPLETE;\n    }\n\n    function getBalance() public view returns (uint256) {\n        return address(this).balance;\n    }\n}\n",
  "sourcePath": "/home/anisha/Desktop/state-channel/contracts/Escrow.sol",
  "compiler": {
    "name": "solc",
    "version": "0.8.11+commit.d7f03943.Emscripten.clang"
  },
  "schemaVersion": "3.4.4",
  "updatedAt": "2022-07-19T17:42:11.391Z",
  "networkType": "ethereum",
  "devdoc": {
    "kind": "dev",
    "methods": {},
    "version": 1
  },
  "userdoc": {
    "kind": "user",
    "methods": {},
    "version": 1
  }
}