{
  "contractName": "New",
  "abi": [
    {
      "inputs": [
        {
          "internalType": "address",
          "name": "minter",
          "type": "address"
        }
      ],
      "stateMutability": "nonpayable",
      "type": "constructor"
    },
    {
      "anonymous": false,
      "inputs": [
        {
          "indexed": true,
          "internalType": "bytes32",
          "name": "role",
          "type": "bytes32"
        },
        {
          "indexed": true,
          "internalType": "bytes32",
          "name": "previousAdminRole",
          "type": "bytes32"
        },
        {
          "indexed": true,
          "internalType": "bytes32",
          "name": "newAdminRole",
          "type": "bytes32"
        }
      ],
      "name": "RoleAdminChanged",
      "type": "event"
    },
    {
      "anonymous": false,
      "inputs": [
        {
          "indexed": true,
          "internalType": "bytes32",
          "name": "role",
          "type": "bytes32"
        },
        {
          "indexed": true,
          "internalType": "address",
          "name": "account",
          "type": "address"
        },
        {
          "indexed": true,
          "internalType": "address",
          "name": "sender",
          "type": "address"
        }
      ],
      "name": "RoleGranted",
      "type": "event"
    },
    {
      "anonymous": false,
      "inputs": [
        {
          "indexed": true,
          "internalType": "bytes32",
          "name": "role",
          "type": "bytes32"
        },
        {
          "indexed": true,
          "internalType": "address",
          "name": "account",
          "type": "address"
        },
        {
          "indexed": true,
          "internalType": "address",
          "name": "sender",
          "type": "address"
        }
      ],
      "name": "RoleRevoked",
      "type": "event"
    },
    {
      "inputs": [],
      "name": "DEFAULT_ADMIN_ROLE",
      "outputs": [
        {
          "internalType": "bytes32",
          "name": "",
          "type": "bytes32"
        }
      ],
      "stateMutability": "view",
      "type": "function"
    },
    {
      "inputs": [],
      "name": "MINTER_ROLE",
      "outputs": [
        {
          "internalType": "bytes32",
          "name": "",
          "type": "bytes32"
        }
      ],
      "stateMutability": "view",
      "type": "function"
    },
    {
      "inputs": [],
      "name": "adminAddress",
      "outputs": [
        {
          "internalType": "address",
          "name": "",
          "type": "address"
        }
      ],
      "stateMutability": "view",
      "type": "function"
    },
    {
      "inputs": [],
      "name": "amountToDeposit",
      "outputs": [
        {
          "internalType": "uint256",
          "name": "",
          "type": "uint256"
        }
      ],
      "stateMutability": "view",
      "type": "function"
    },
    {
      "inputs": [],
      "name": "count",
      "outputs": [
        {
          "internalType": "uint256",
          "name": "",
          "type": "uint256"
        }
      ],
      "stateMutability": "view",
      "type": "function"
    },
    {
      "inputs": [],
      "name": "depositAmount",
      "outputs": [
        {
          "internalType": "uint256",
          "name": "",
          "type": "uint256"
        }
      ],
      "stateMutability": "view",
      "type": "function"
    },
    {
      "inputs": [
        {
          "internalType": "bytes32",
          "name": "role",
          "type": "bytes32"
        }
      ],
      "name": "getRoleAdmin",
      "outputs": [
        {
          "internalType": "bytes32",
          "name": "",
          "type": "bytes32"
        }
      ],
      "stateMutability": "view",
      "type": "function"
    },
    {
      "inputs": [
        {
          "internalType": "bytes32",
          "name": "role",
          "type": "bytes32"
        },
        {
          "internalType": "address",
          "name": "account",
          "type": "address"
        }
      ],
      "name": "grantRole",
      "outputs": [],
      "stateMutability": "nonpayable",
      "type": "function"
    },
    {
      "inputs": [
        {
          "internalType": "bytes32",
          "name": "role",
          "type": "bytes32"
        },
        {
          "internalType": "address",
          "name": "account",
          "type": "address"
        }
      ],
      "name": "hasRole",
      "outputs": [
        {
          "internalType": "bool",
          "name": "",
          "type": "bool"
        }
      ],
      "stateMutability": "view",
      "type": "function"
    },
    {
      "inputs": [],
      "name": "participantAddress",
      "outputs": [
        {
          "internalType": "address",
          "name": "",
          "type": "address"
        }
      ],
      "stateMutability": "view",
      "type": "function"
    },
    {
      "inputs": [
        {
          "internalType": "bytes32",
          "name": "role",
          "type": "bytes32"
        },
        {
          "internalType": "address",
          "name": "account",
          "type": "address"
        }
      ],
      "name": "renounceRole",
      "outputs": [],
      "stateMutability": "nonpayable",
      "type": "function"
    },
    {
      "inputs": [
        {
          "internalType": "bytes32",
          "name": "role",
          "type": "bytes32"
        },
        {
          "internalType": "address",
          "name": "account",
          "type": "address"
        }
      ],
      "name": "revokeRole",
      "outputs": [],
      "stateMutability": "nonpayable",
      "type": "function"
    },
    {
      "inputs": [
        {
          "internalType": "bytes4",
          "name": "interfaceId",
          "type": "bytes4"
        }
      ],
      "name": "supportsInterface",
      "outputs": [
        {
          "internalType": "bool",
          "name": "",
          "type": "bool"
        }
      ],
      "stateMutability": "view",
      "type": "function"
    },
    {
      "inputs": [],
      "name": "transferAmount",
      "outputs": [
        {
          "internalType": "uint256",
          "name": "",
          "type": "uint256"
        }
      ],
      "stateMutability": "view",
      "type": "function"
    },
    {
      "inputs": [
        {
          "internalType": "bool",
          "name": "_choice",
          "type": "bool"
        }
      ],
      "name": "onClick",
      "outputs": [],
      "stateMutability": "nonpayable",
      "type": "function"
    },
    {
      "inputs": [
        {
          "internalType": "bool",
          "name": "_change",
          "type": "bool"
        },
        {
          "internalType": "uint256",
          "name": "_newAmount",
          "type": "uint256"
        }
      ],
      "name": "changeDepositAmount",
      "outputs": [],
      "stateMutability": "nonpayable",
      "type": "function"
    }
  ],
  "bytecode": "0x60806040523480156200001157600080fd5b506040516200170938038062001709833981810160405281019062000037919062000253565b620000697f9f2df0fed2c77648de5860a4cc508cd0818c85b8b8a1ab4ceeef8d981c8956a6826200007060201b60201c565b5062000285565b6200008282826200008660201b60201c565b5050565b6200009882826200017760201b60201c565b6200017357600160008084815260200190815260200160002060000160008373ffffffffffffffffffffffffffffffffffffffff1673ffffffffffffffffffffffffffffffffffffffff16815260200190815260200160002060006101000a81548160ff02191690831515021790555062000118620001e160201b60201c565b73ffffffffffffffffffffffffffffffffffffffff168173ffffffffffffffffffffffffffffffffffffffff16837f2f8788117e7eff1d82e926ec794901d17c78024a50270940304540a733656f0d60405160405180910390a45b5050565b600080600084815260200190815260200160002060000160008373ffffffffffffffffffffffffffffffffffffffff1673ffffffffffffffffffffffffffffffffffffffff16815260200190815260200160002060009054906101000a900460ff16905092915050565b600033905090565b600080fd5b600073ffffffffffffffffffffffffffffffffffffffff82169050919050565b60006200021b82620001ee565b9050919050565b6200022d816200020e565b81146200023957600080fd5b50565b6000815190506200024d8162000222565b92915050565b6000602082840312156200026c576200026b620001e9565b5b60006200027c848285016200023c565b91505092915050565b61147480620002956000396000f3fe608060405234801561001057600080fd5b50600436106101005760003560e01c80636e560d0511610097578063d539139311610066578063d53913931461029b578063d547741f146102b9578063fc6f9468146102d5578063fe135c0e146102f357610100565b80636e560d051461021557806391d1485414610231578063a217fddf14610261578063d45dcca01461027f57610100565b806336568abe116100d357806336568abe1461019f578063419759f5146101bb578063504d27fd146101d957806359ff6ba8146101f757610100565b806301ffc9a71461010557806306661abd14610135578063248a9ca3146101535780632f2ff15d14610183575b600080fd5b61011f600480360381019061011a9190610c87565b610311565b60405161012c9190610ccf565b60405180910390f35b61013d61038b565b60405161014a9190610d03565b60405180910390f35b61016d60048036038101906101689190610d54565b610391565b60405161017a9190610d90565b60405180910390f35b61019d60048036038101906101989190610e09565b6103b0565b005b6101b960048036038101906101b49190610e09565b6103d1565b005b6101c3610454565b6040516101d09190610d03565b60405180910390f35b6101e161045a565b6040516101ee9190610d03565b60405180910390f35b6101ff610460565b60405161020c9190610e58565b60405180910390f35b61022f600480360381019061022a9190610ecb565b610486565b005b61024b60048036038101906102469190610e09565b610578565b6040516102589190610ccf565b60405180910390f35b6102696105e2565b6040516102769190610d90565b60405180910390f35b61029960048036038101906102949190610f0b565b6105e9565b005b6102a3610683565b6040516102b09190610d90565b60405180910390f35b6102d360048036038101906102ce9190610e09565b6106a7565b005b6102dd6106c8565b6040516102ea9190610e58565b60405180910390f35b6102fb6106ee565b6040516103089190610d03565b60405180910390f35b60007f7965db0b000000000000000000000000000000000000000000000000000000007bffffffffffffffffffffffffffffffffffffffffffffffffffffffff1916827bffffffffffffffffffffffffffffffffffffffffffffffffffffffff191614806103845750610383826106f4565b5b9050919050565b60035481565b6000806000838152602001908152602001600020600101549050919050565b6103b982610391565b6103c28161075e565b6103cc8383610772565b505050565b6103d9610852565b73ffffffffffffffffffffffffffffffffffffffff168173ffffffffffffffffffffffffffffffffffffffff1614610446576040517f08c379a000000000000000000000000000000000000000000000000000000000815260040161043d90610fbb565b60405180910390fd5b610450828261085a565b5050565b60015481565b60055481565b600460009054906101000a900473ffffffffffffffffffffffffffffffffffffffff1681565b6104b07f9f2df0fed2c77648de5860a4cc508cd0818c85b8b8a1ab4ceeef8d981c8956a633610578565b6104ef576040517f08c379a00000000000000000000000000000000000000000000000000000000081526004016104e690611027565b60405180910390fd5b60016003541015610535576040517f08c379a000000000000000000000000000000000000000000000000000000000815260040161052c90611093565b60405180910390fd5b81156105475780600181905550610574565b610564678ac7230489e8000060025461093b90919063ffffffff16565b6002819055506002546001819055505b5050565b600080600084815260200190815260200160002060000160008373ffffffffffffffffffffffffffffffffffffffff1673ffffffffffffffffffffffffffffffffffffffff16815260200190815260200160002060009054906101000a900460ff16905092915050565b6000801b81565b33600460006101000a81548173ffffffffffffffffffffffffffffffffffffffff021916908373ffffffffffffffffffffffffffffffffffffffff16021790555060016003600082825461063d91906110e2565b92505081905550600160035414156106705768056bc75e2d6310000060018190555068056bc75e2d631000006002819055505b8015610680576001546005819055505b50565b7f9f2df0fed2c77648de5860a4cc508cd0818c85b8b8a1ab4ceeef8d981c8956a681565b6106b082610391565b6106b98161075e565b6106c3838361085a565b505050565b600660009054906101000a900473ffffffffffffffffffffffffffffffffffffffff1681565b60025481565b60007f01ffc9a7000000000000000000000000000000000000000000000000000000007bffffffffffffffffffffffffffffffffffffffffffffffffffffffff1916827bffffffffffffffffffffffffffffffffffffffffffffffffffffffff1916149050919050565b61076f8161076a610852565b610951565b50565b61077c8282610578565b61084e57600160008084815260200190815260200160002060000160008373ffffffffffffffffffffffffffffffffffffffff1673ffffffffffffffffffffffffffffffffffffffff16815260200190815260200160002060006101000a81548160ff0219169083151502179055506107f3610852565b73ffffffffffffffffffffffffffffffffffffffff168173ffffffffffffffffffffffffffffffffffffffff16837f2f8788117e7eff1d82e926ec794901d17c78024a50270940304540a733656f0d60405160405180910390a45b5050565b600033905090565b6108648282610578565b1561093757600080600084815260200190815260200160002060000160008373ffffffffffffffffffffffffffffffffffffffff1673ffffffffffffffffffffffffffffffffffffffff16815260200190815260200160002060006101000a81548160ff0219169083151502179055506108dc610852565b73ffffffffffffffffffffffffffffffffffffffff168173ffffffffffffffffffffffffffffffffffffffff16837ff6391f5c32d9c69d2a47ea670b442974b53935d1edc7fd64eb21e047a839171b60405160405180910390a45b5050565b6000818361094991906110e2565b905092915050565b61095b8282610578565b6109ea576109808173ffffffffffffffffffffffffffffffffffffffff1660146109ee565b61098e8360001c60206109ee565b60405160200161099f92919061124a565b6040516020818303038152906040526040517f08c379a00000000000000000000000000000000000000000000000000000000081526004016109e191906112ce565b60405180910390fd5b5050565b606060006002836002610a0191906112f0565b610a0b91906110e2565b67ffffffffffffffff811115610a2457610a2361134a565b5b6040519080825280601f01601f191660200182016040528015610a565781602001600182028036833780820191505090505b5090507f300000000000000000000000000000000000000000000000000000000000000081600081518110610a8e57610a8d611379565b5b60200101907effffffffffffffffffffffffffffffffffffffffffffffffffffffffffffff1916908160001a9053507f780000000000000000000000000000000000000000000000000000000000000081600181518110610af257610af1611379565b5b60200101907effffffffffffffffffffffffffffffffffffffffffffffffffffffffffffff1916908160001a90535060006001846002610b3291906112f0565b610b3c91906110e2565b90505b6001811115610bdc577f3031323334353637383961626364656600000000000000000000000000000000600f861660108110610b7e57610b7d611379565b5b1a60f81b828281518110610b9557610b94611379565b5b60200101907effffffffffffffffffffffffffffffffffffffffffffffffffffffffffffff1916908160001a905350600485901c945080610bd5906113a8565b9050610b3f565b5060008414610c20576040517f08c379a0000000000000000000000000000000000000000000000000000000008152600401610c179061141e565b60405180910390fd5b8091505092915050565b600080fd5b60007fffffffff0000000000000000000000000000000000000000000000000000000082169050919050565b610c6481610c2f565b8114610c6f57600080fd5b50565b600081359050610c8181610c5b565b92915050565b600060208284031215610c9d57610c9c610c2a565b5b6000610cab84828501610c72565b91505092915050565b60008115159050919050565b610cc981610cb4565b82525050565b6000602082019050610ce46000830184610cc0565b92915050565b6000819050919050565b610cfd81610cea565b82525050565b6000602082019050610d186000830184610cf4565b92915050565b6000819050919050565b610d3181610d1e565b8114610d3c57600080fd5b50565b600081359050610d4e81610d28565b92915050565b600060208284031215610d6a57610d69610c2a565b5b6000610d7884828501610d3f565b91505092915050565b610d8a81610d1e565b82525050565b6000602082019050610da56000830184610d81565b92915050565b600073ffffffffffffffffffffffffffffffffffffffff82169050919050565b6000610dd682610dab565b9050919050565b610de681610dcb565b8114610df157600080fd5b50565b600081359050610e0381610ddd565b92915050565b60008060408385031215610e2057610e1f610c2a565b5b6000610e2e85828601610d3f565b9250506020610e3f85828601610df4565b9150509250929050565b610e5281610dcb565b82525050565b6000602082019050610e6d6000830184610e49565b92915050565b610e7c81610cb4565b8114610e8757600080fd5b50565b600081359050610e9981610e73565b92915050565b610ea881610cea565b8114610eb357600080fd5b50565b600081359050610ec581610e9f565b92915050565b60008060408385031215610ee257610ee1610c2a565b5b6000610ef085828601610e8a565b9250506020610f0185828601610eb6565b9150509250929050565b600060208284031215610f2157610f20610c2a565b5b6000610f2f84828501610e8a565b91505092915050565b600082825260208201905092915050565b7f416363657373436f6e74726f6c3a2063616e206f6e6c792072656e6f756e636560008201527f20726f6c657320666f722073656c660000000000000000000000000000000000602082015250565b6000610fa5602f83610f38565b9150610fb082610f49565b604082019050919050565b60006020820190508181036000830152610fd481610f98565b9050919050565b7f43616c6c6572206973206e6f742061206d696e74657200000000000000000000600082015250565b6000611011601683610f38565b915061101c82610fdb565b602082019050919050565b6000602082019050818103600083015261104081611004565b9050919050565b7f414343455054532054484520494e495449414c495a45442056414c5545000000600082015250565b600061107d601d83610f38565b915061108882611047565b602082019050919050565b600060208201905081810360008301526110ac81611070565b9050919050565b7f4e487b7100000000000000000000000000000000000000000000000000000000600052601160045260246000fd5b60006110ed82610cea565b91506110f883610cea565b9250827fffffffffffffffffffffffffffffffffffffffffffffffffffffffffffffffff0382111561112d5761112c6110b3565b5b828201905092915050565b600081905092915050565b7f416363657373436f6e74726f6c3a206163636f756e7420000000000000000000600082015250565b6000611179601783611138565b915061118482611143565b601782019050919050565b600081519050919050565b60005b838110156111b857808201518184015260208101905061119d565b838111156111c7576000848401525b50505050565b60006111d88261118f565b6111e28185611138565b93506111f281856020860161119a565b80840191505092915050565b7f206973206d697373696e6720726f6c6520000000000000000000000000000000600082015250565b6000611234601183611138565b915061123f826111fe565b601182019050919050565b60006112558261116c565b915061126182856111cd565b915061126c82611227565b915061127882846111cd565b91508190509392505050565b6000601f19601f8301169050919050565b60006112a08261118f565b6112aa8185610f38565b93506112ba81856020860161119a565b6112c381611284565b840191505092915050565b600060208201905081810360008301526112e88184611295565b905092915050565b60006112fb82610cea565b915061130683610cea565b9250817fffffffffffffffffffffffffffffffffffffffffffffffffffffffffffffffff048311821515161561133f5761133e6110b3565b5b828202905092915050565b7f4e487b7100000000000000000000000000000000000000000000000000000000600052604160045260246000fd5b7f4e487b7100000000000000000000000000000000000000000000000000000000600052603260045260246000fd5b60006113b382610cea565b915060008214156113c7576113c66110b3565b5b600182039050919050565b7f537472696e67733a20686578206c656e67746820696e73756666696369656e74600082015250565b6000611408602083610f38565b9150611413826113d2565b602082019050919050565b60006020820190508181036000830152611437816113fb565b905091905056fea2646970667358221220b49b7ec4743c6f59adffb8212a5a52e3af1d958cc71cbbcd8d9ba891b21a74d164736f6c634300080b0033",
  "immutableReferences": {},
  "source": "//SPDX-License-Identifier: MIT\npragma solidity >=0.4.22 <0.9.0;\n\nimport \"@openzeppelin/contracts/access/AccessControl.sol\";\nimport \"@openzeppelin/contracts/utils/math/SafeMath.sol\";\n\ncontract New is AccessControl {\n    // Create a new role identifier for the minter role\n    bytes32 public constant MINTER_ROLE = keccak256(\"MINTER_ROLE\");\n    using SafeMath for uint256;\n\n    uint256 public depositAmount;\n    uint256 public amountToDeposit;\n    uint256 public count;\n    address public participantAddress;\n\n    uint256 public transferAmount;\n\n    address public adminAddress;\n\n    modifier onlyMinter() {\n        require(hasRole(MINTER_ROLE, msg.sender), \"Caller is not a minter\");\n        _;\n    }\n\n    constructor(address minter) {\n        // Grant the minter role to a specified account\n        _setupRole(MINTER_ROLE, minter);\n    }\n\n    function onClick(bool _choice) public {\n        participantAddress = msg.sender;\n        count += 1;\n        if (count == 1) {\n            depositAmount = 100000000000000000000;\n            amountToDeposit = 100000000000000000000;\n        }\n        if (_choice) {\n            transferAmount = depositAmount;\n        }\n    }\n\n    function changeDepositAmount(bool _change, uint256 _newAmount)\n        public\n        onlyMinter\n    {\n        require(count >= 1, \"ACCEPTS THE INITIALIZED VALUE\");\n        if (_change) {\n            depositAmount = _newAmount;\n        } else {\n            amountToDeposit = amountToDeposit.add(10000000000000000000);\n            depositAmount = amountToDeposit;\n        }\n    }\n}\n",
  "sourcePath": "/home/anisha/Desktop/state-channel/contracts/New.sol",
  "compiler": {
    "name": "solc",
    "version": "0.8.11+commit.d7f03943.Emscripten.clang"
  },
  "schemaVersion": "3.4.4",
  "updatedAt": "2022-08-05T05:25:43.523Z",
  "devdoc": {
    "kind": "dev",
    "methods": {
      "getRoleAdmin(bytes32)": {
        "details": "Returns the admin role that controls `role`. See {grantRole} and {revokeRole}. To change a role's admin, use {_setRoleAdmin}."
      },
      "grantRole(bytes32,address)": {
        "details": "Grants `role` to `account`. If `account` had not been already granted `role`, emits a {RoleGranted} event. Requirements: - the caller must have ``role``'s admin role. May emit a {RoleGranted} event."
      },
      "hasRole(bytes32,address)": {
        "details": "Returns `true` if `account` has been granted `role`."
      },
      "renounceRole(bytes32,address)": {
        "details": "Revokes `role` from the calling account. Roles are often managed via {grantRole} and {revokeRole}: this function's purpose is to provide a mechanism for accounts to lose their privileges if they are compromised (such as when a trusted device is misplaced). If the calling account had been revoked `role`, emits a {RoleRevoked} event. Requirements: - the caller must be `account`. May emit a {RoleRevoked} event."
      },
      "revokeRole(bytes32,address)": {
        "details": "Revokes `role` from `account`. If `account` had been granted `role`, emits a {RoleRevoked} event. Requirements: - the caller must have ``role``'s admin role. May emit a {RoleRevoked} event."
      },
      "supportsInterface(bytes4)": {
        "details": "See {IERC165-supportsInterface}."
      }
    },
    "version": 1
  },
  "userdoc": {
    "kind": "user",
    "methods": {},
    "version": 1
  }
}