{
  "contractName": "VerifySig",
  "abi": [
    {
      "inputs": [
        {
          "internalType": "address",
          "name": "_signer",
          "type": "address"
        },
        {
          "internalType": "string",
          "name": "_message",
          "type": "string"
        },
        {
          "internalType": "uint256",
          "name": "_nonce",
          "type": "uint256"
        },
        {
          "internalType": "uint256",
          "name": "_amount",
          "type": "uint256"
        },
        {
          "internalType": "bytes",
          "name": "_signature",
          "type": "bytes"
        }
      ],
      "name": "verify",
      "outputs": [
        {
          "internalType": "bool",
          "name": "",
          "type": "bool"
        }
      ],
      "stateMutability": "pure",
      "type": "function"
    },
    {
      "inputs": [
        {
          "internalType": "string",
          "name": "_message",
          "type": "string"
        },
        {
          "internalType": "uint256",
          "name": "_nonce",
          "type": "uint256"
        },
        {
          "internalType": "uint256",
          "name": "_amount",
          "type": "uint256"
        }
      ],
      "name": "getMessageHash",
      "outputs": [
        {
          "internalType": "bytes32",
          "name": "",
          "type": "bytes32"
        }
      ],
      "stateMutability": "pure",
      "type": "function"
    },
    {
      "inputs": [
        {
          "internalType": "bytes32",
          "name": "_messageHash",
          "type": "bytes32"
        }
      ],
      "name": "getEthSignedMessageHash",
      "outputs": [
        {
          "internalType": "bytes32",
          "name": "",
          "type": "bytes32"
        }
      ],
      "stateMutability": "pure",
      "type": "function"
    },
    {
      "inputs": [
        {
          "internalType": "bytes32",
          "name": "_ethSignedMessageHash",
          "type": "bytes32"
        },
        {
          "internalType": "bytes",
          "name": "_signature",
          "type": "bytes"
        }
      ],
      "name": "recover",
      "outputs": [
        {
          "internalType": "address",
          "name": "",
          "type": "address"
        }
      ],
      "stateMutability": "pure",
      "type": "function"
    }
  ],
  "bytecode": "0x608060405234801561001057600080fd5b50610a25806100206000396000f3fe608060405234801561001057600080fd5b506004361061004c5760003560e01c806319045a251461005157806358b77985146100815780637003ea1c146100b1578063fa540801146100e1575b600080fd5b61006b60048036038101906100669190610440565b610111565b60405161007891906104dd565b60405180910390f35b61009b600480360381019061009691906105fb565b610180565b6040516100a891906106c9565b60405180910390f35b6100cb60048036038101906100c691906106e4565b6101e2565b6040516100d89190610762565b60405180910390f35b6100fb60048036038101906100f6919061077d565b610218565b6040516101089190610762565b60405180910390f35b60008060008061012085610248565b9250925092506001868285856040516000815260200160405260405161014994939291906107c6565b6020604051602081039080840390855afa15801561016b573d6000803e3d6000fd5b50505060206040510351935050505092915050565b60008061018e8686866101e2565b9050600061019b82610218565b90508773ffffffffffffffffffffffffffffffffffffffff166101be8286610111565b73ffffffffffffffffffffffffffffffffffffffff16149250505095945050505050565b60008383836040516020016101f9939291906108a6565b6040516020818303038152906040528051906020012090509392505050565b60008160405160200161022b919061094c565b604051602081830303815290604052805190602001209050919050565b60008060006041845114610291576040517f08c379a0000000000000000000000000000000000000000000000000000000008152600401610288906109cf565b60405180910390fd5b6020840151925060408401519150606084015160001a90509193909250565b6000604051905090565b600080fd5b600080fd5b6000819050919050565b6102d7816102c4565b81146102e257600080fd5b50565b6000813590506102f4816102ce565b92915050565b600080fd5b600080fd5b6000601f19601f8301169050919050565b7f4e487b7100000000000000000000000000000000000000000000000000000000600052604160045260246000fd5b61034d82610304565b810181811067ffffffffffffffff8211171561036c5761036b610315565b5b80604052505050565b600061037f6102b0565b905061038b8282610344565b919050565b600067ffffffffffffffff8211156103ab576103aa610315565b5b6103b482610304565b9050602081019050919050565b82818337600083830152505050565b60006103e36103de84610390565b610375565b9050828152602081018484840111156103ff576103fe6102ff565b5b61040a8482856103c1565b509392505050565b600082601f830112610427576104266102fa565b5b81356104378482602086016103d0565b91505092915050565b60008060408385031215610457576104566102ba565b5b6000610465858286016102e5565b925050602083013567ffffffffffffffff811115610486576104856102bf565b5b61049285828601610412565b9150509250929050565b600073ffffffffffffffffffffffffffffffffffffffff82169050919050565b60006104c78261049c565b9050919050565b6104d7816104bc565b82525050565b60006020820190506104f260008301846104ce565b92915050565b610501816104bc565b811461050c57600080fd5b50565b60008135905061051e816104f8565b92915050565b600067ffffffffffffffff82111561053f5761053e610315565b5b61054882610304565b9050602081019050919050565b600061056861056384610524565b610375565b905082815260208101848484011115610584576105836102ff565b5b61058f8482856103c1565b509392505050565b600082601f8301126105ac576105ab6102fa565b5b81356105bc848260208601610555565b91505092915050565b6000819050919050565b6105d8816105c5565b81146105e357600080fd5b50565b6000813590506105f5816105cf565b92915050565b600080600080600060a08688031215610617576106166102ba565b5b60006106258882890161050f565b955050602086013567ffffffffffffffff811115610646576106456102bf565b5b61065288828901610597565b9450506040610663888289016105e6565b9350506060610674888289016105e6565b925050608086013567ffffffffffffffff811115610695576106946102bf565b5b6106a188828901610412565b9150509295509295909350565b60008115159050919050565b6106c3816106ae565b82525050565b60006020820190506106de60008301846106ba565b92915050565b6000806000606084860312156106fd576106fc6102ba565b5b600084013567ffffffffffffffff81111561071b5761071a6102bf565b5b61072786828701610597565b9350506020610738868287016105e6565b9250506040610749868287016105e6565b9150509250925092565b61075c816102c4565b82525050565b60006020820190506107776000830184610753565b92915050565b600060208284031215610793576107926102ba565b5b60006107a1848285016102e5565b91505092915050565b600060ff82169050919050565b6107c0816107aa565b82525050565b60006080820190506107db6000830187610753565b6107e860208301866107b7565b6107f56040830185610753565b6108026060830184610753565b95945050505050565b600081519050919050565b600081905092915050565b60005b8381101561083f578082015181840152602081019050610824565b8381111561084e576000848401525b50505050565b600061085f8261080b565b6108698185610816565b9350610879818560208601610821565b80840191505092915050565b6000819050919050565b6108a061089b826105c5565b610885565b82525050565b60006108b28286610854565b91506108be828561088f565b6020820191506108ce828461088f565b602082019150819050949350505050565b7f19457468657265756d205369676e6564204d6573736167653a0a333200000000600082015250565b6000610915601c83610816565b9150610920826108df565b601c82019050919050565b6000819050919050565b610946610941826102c4565b61092b565b82525050565b600061095782610908565b91506109638284610935565b60208201915081905092915050565b600082825260208201905092915050565b7f696e76616c6964207369676e6174757265000000000000000000000000000000600082015250565b60006109b9601183610972565b91506109c482610983565b602082019050919050565b600060208201905081810360008301526109e8816109ac565b905091905056fea2646970667358221220214903d87be26274a1e582e05ae0389083b7e2f0e9007b24c1cb4c3db6a9672f64736f6c634300080b0033",
  "immutableReferences": {},
  "source": "//SPDX-License-Identifier: MIT\npragma solidity >=0.4.22 <0.9.0;\n\n/**\n * message to sign\n *hasn(message)\n *sign(hash(message),privatekey) off-chain(this is prefixed with some strig and hashed again)\n *ecrecover (hash(message),signature)\n *\n */\ncontract VerifySig {\n    function verify(\n        address _signer,\n        string memory _message,\n        uint _nonce,\n        uint256 _amount,\n        bytes memory _signature\n    ) external pure returns (bool) {\n        //hash the message\n        bytes32 messageHash = getMessageHash(_message, _nonce, _amount);\n        //signature is generated for messageHash \n        //generate ethSigned msg \n        bytes32 ethSignedMessageHash = getEthSignedMessageHash(messageHash);\n\n        return recover(ethSignedMessageHash, _signature) == _signer;\n    }\n\n    function getMessageHash(string memory _message, uint _nonce , uint256 _amount )\n        public\n        pure\n        returns (bytes32)\n    {\n        return keccak256(abi.encodePacked(_message, _nonce, _amount));\n    }\n\n    function getEthSignedMessageHash(bytes32 _messageHash)\n        public\n        pure\n        returns (bytes32)\n    {\n        return\n            keccak256(\n                abi.encodePacked(\n                    \"\\x19Ethereum Signed Message:\\n32\",\n                    _messageHash\n                )\n            );\n    }\n\n    function recover(bytes32 _ethSignedMessageHash, bytes memory _signature)\n        public\n        pure\n        returns (address)\n    {\n        (bytes32 r, bytes32 s, uint8 v) = _split(_signature);\n        return ecrecover(_ethSignedMessageHash, v, r, s);\n    }\n\n    //split signature\n    //_signature pointer\n    function _split(bytes memory _signature)\n        internal\n        pure\n        returns (\n            bytes32 r,\n            bytes32 s,\n            uint8 v\n        )\n    {\n        require(_signature.length == 65, \"invalid signature\");\n        assembly {\n            r := mload(add(_signature, 32))\n            s := mload(add(_signature, 64))\n            v := byte(0, mload(add(_signature, 96)))\n        }\n    }\n}\n",
  "sourcePath": "/home/anisha/Desktop/state-channel/contracts/VerifySig.sol",
  "compiler": {
    "name": "solc",
    "version": "0.8.11+commit.d7f03943.Emscripten.clang"
  },
  "schemaVersion": "3.4.4",
  "updatedAt": "2022-08-05T05:25:43.531Z",
  "devdoc": {
    "kind": "dev",
    "methods": {},
    "version": 1
  },
  "userdoc": {
    "kind": "user",
    "methods": {},
    "notice": "message to sign hasn(message) sign(hash(message),privatekey) off-chain(this is prefixed with some strig and hashed again) ecrecover (hash(message),signature)",
    "version": 1
  }
}